:1000000000600020C33F0000C92A00006D0C000002
:10001000CB2A0000CD2A0000CF2A000000000000FB
:10002000000000000000000000000000D12A0000D5
:10003000D32A000000000000D52A0000D72A0000C3
:100040000008000800000540020000002000000039
:1000500040000000040000000021000082000000B9
:100060000300000000000000002000000000054028
:10007000020000002000000040000000000004001A
:10008000000100000200000003000000000000006A
:10009000000000000000054001000000100000000A
:1000A000100000000200000000220000810000009B
:0C00B00001000000000000000020000023
:0400BC000000000040
:1000C00000000540000000000000000040000000AB
:1000D0000100000000030000800000003C00000060
:1000E000FF0300000F0000000F0E03FF01000000DF
:0400F00001001020DB
:0C00F4000000000000000000732F00005E
:1001000080B541F2FC00C2F200000078C007BFF3E6
:100110005F8F26D141F2FC00C2F2000004F0C5F965
:10012000F8B1002040F20041C2F20001002200BFFD
:100130008B181832B2F5A56F1861F9D140F265102D
:10014000C0F2000040F20002C0F20002002104F000
:1001500086F941F2FC00C2F20000BDE8084002F05E
:040160009EBE08BD7A
:1001640010B540F20044C2F2000404F5A56000BFDB
:0C017400183802F07AFFA042FAD110BD4A
:0C01800000000000000000001B30000028
:10018C0080B541F2FC00C2F200000078C007BFF35A
:10019C005F8F26D141F2FC00C2F2000004F07FF91F
:1001AC00F8B1002040F20041C2F20001002200BF71
:1001BC008B181832B2F5A56F1861F9D140F2F11015
:1001CC00C0F2000040F20002C0F20002002104F074
:1001DC0040F941F2FC00C2F20000BDE8084002F018
:0401EC0058BE08BD34
:1001F00010B540F20044C2F2000404F5A56000BF4F
:0C020000183802F034FFA042FAD110BD03
:10020C0041F2EC02C2F20002106041F2E800C2F2CC
:08021C000000016000BFFDE7D6
:1002240030B58DB0044640F28811C0F2000140F8A8
:10023400041F40F63C31C0F20001CDE9061406ADBE
:100244000A950022C4F20502294602F0E4FE0A9847
:10025400A84202D028B1142100E0102102685158AC
:10026400884740F66030C0F20000CDE900046D46D6
:100274000495002141F22450C2F200000A4650F8CD
:100284002110B1F5A02F02F10101F7D102EB4200D8
:1002940040F20041C2F2000101EBC000294603F024
:1002A400B0F80498A84202D028B1142100E010212B
:1002B40002685158884740F2C000C0F2000002F0C2
:0802C40000FA20460DB030BD28
:1002CC0041F2F800C2F200000178C90719D10121EE
:1002DC000170002040F62841C2F20001002200BF4C
:1002EC008B181832B2F5347F1861F9D140F2113005
:1002FC00C0F2000040F20002C0F20002002104F043
:04030C00A8B87047D6
:1003100010B540F62844C2F2000404F5347000BF62
:0C032000183803F01EFAA042FAD110BDFC
:10032C002DE97043A6B0044641F22800261844F685
:10033C002C01C0F20001304601F0CCFC44F28D607F
:10034C00C0F2000002F0AAFC40F26C08C0F20008F7
:10035C00404601F054FF404602F0CFFF00282490A5
:10036C0059D024AA404614A902F0CBFFBDF8902026
:10037C00204614A901F034FC0020ADF84C00CDE966
:10038C00110011A9204600F053F840B344F24A5032
:10039C00C0F2000011A900BF11F8012B10F8013BAD
:1003AC0012B19A42F8D006E02BB941F21F50C2F2BA
:1003BC0000000121017044F25150C0F2000011A95B
:1003CC0011F8012B10F8013B12B19A42F8D006E05B
:1003DC002BB941F21F50C2F20000012101702046DE
:1003EC0001A9402201F00CFC054604F501694846C0
:1003FC0001A92A4601F0F4FB44F63801C0F20001D1
:10040C00304601F067FC484601A92A4601F0E8FB9A
:10041C00204601F00DFC4046002101F095FF41F211
:10042C004200215A41F00401215226B0BDE87083EC
:10043C00D0F80428032A01D2002070472DE9F04F90
:10044C0083B081468A46D0F80C08CDE901200025FE
:10045C0044F25568C0F2000844F64C07C0F200079D
:10046C004046114603F05DFE484602A901AA02F07F
:10047C004EFF795D884203D1012D04D8013500E08F
:10048C000025019AECE706460198E8B100250A27F9
:10049C0044F2676BC0F2000B484602A901AA02F0B5
:1004AC0036FF01998AF80000584603F03AFE1AF814
:1004BC00010B60B1013F380615D000209EB901999F
:1004CC0001350029E8D10EE08AF800000BE0B9F8FC
:1004DC000C18E81CC2B28A4204D909EB0100511A6B
:0C04EC0001F086F8012003B0BDE8F08F9D
:1004F80038B5040019D040F62845C2F2000500BFFF
:1005080094FAA4F0B0FA80F0C0F12E01102838BF98
:10051800411E01EB410005EBC0000169002918BF2D
:0C05280002F0B2F8601E0440EAD138BDB9
:1005340030B583B041F20014C2F20004B0F5D06FBC
:10054400A2783ADB0B4642F22001884253DCE5787C
:10055400B0F5D06F00F08C80B0F5086F00F08880A3
:10056400B0F5106F40F08E81002141F22450C2F2A8
:10057400000000BF0A4650F82110B1F5102F02F117
:100584000101F7D102EB420040F20041C2F2000146
:1005940001EBC000016931B141F20011C2F2000166
:1005A4001A4602F06CF80020C4F205000021012272
:1005B40003B0BDE8304002F052BAB0F5817F51DBA0
:1005C40000F09C80B0F5407F5ED0B0F5A06F40F0A5
:1005D40059810021CDE9001141F22450C2F20000FA
:1005E4000A4650F82110B1F5A02F02F10101F7D10C
:1005F40002EB420037E10131884200F08A8042F286
:10060400A11188424ED042F22121884240F03A8121
:10061400002141F22450C2F2000042F20012C0F262
:10062400220200BF0B4650F82110914203F1010150
:10063400F8D103EB430040F20041C2F2000101EBA8
:10064400C000016949B141F20011C2F2000141F256
:10065400F002C2F2000202F012F840F2C000C0F24E
:10066400000019E008280AD0B0F5807F0ED009E117
:10067400A179284603B0BDE8304003F0BAB803B00E
:10068400BDE8304003F09DB8022A39D0012A40F277
:10069400C000C0F2000037D1012103B0BDE83040F2
:1006A40001F056BE0021CDE9001141F22450C2F2FE
:1006B40000004AF20012C0F2210200BF0B4650F8BB
:1006C4002110914203F10101F8D103EB430040F200
:1006D4000041C2F2000101EBC000016931B141F2F5
:1006E400F002C2F20002694601F0C9FF40F2C00004
:1006F400C0F20000012101F02BFEC3E06088E0B3EA
:1007040040F2C000C0F2000003B0BDE8304001F088
:10071400B1BF41F20C15C2F2000515F8020C002815
:1007240047D0002242F20010C0F2200041F22451CE
:10073400C2F20001134651F82220824203F1010261
:10074400F8D103EB430040F20041C2F2000101EB97
:10075400C000016931B141F20011C2F200012A4620
:1007640001F08DFF40F2C000C0F20000012101F051
:10077400EFFD002005F8020C84E02079802823DDB9
:10078400832838D0822849D08128B9D10021CDE9E5
:10079400001141F22450C2F2000040F28122C0F262
:1007A40001020B4650F82110914203F10101F8D1E6
:1007B40057E0012005F8020CE2882A8040F2C000CC
:1007C400C0F20000002168E701283AD0022897D13E
:1007D4000021CDE9001141F22450C2F2000040F2A0
:1007E4000222C0F201020B4650F82110914203F19B
:1007F4000101F8D135E00021CDE9001141F2245086
:10080400C2F2000040F28322C0F201020B4650F80B
:100814002110914203F10101F8D122E00021CDE938
:10082400001141F22450C2F2000040F28222C0F2D0
:1008340001020B4650F82110914203F10101F8D155
:100844000FE000F581300022CDE9002241F224516D
:10085400C2F20001134651F82220824203F1010240
:10086400F8D103EB430040F20041C2F2000101EB76
:10087400C000016931B141F2F002C2F200026946DE
:0808840001F0FDFE03B030BDE0
:10088C0070B51546914238BF0D46402D04461AD31B
:10089C0040F2C006C0F2000630462146402202F06B
:1008AC00ECFC0130F8D000BF30464FF4817101F000
:1008BC00B3FC0130F8D04034A5F1400069B24029B6
:1008CC000546E9DB00E02846C5B240F2C006C0F29E
:1008DC00000600BF304621462A4602F0CEFC01300D
:1008EC00F8D040F2C004C0F2000400BF20464FF420
:0C08FC00857101F091FC0130F8D070BD56
:1009080070B51546914238BF0D46402D04461AD39E
:1009180040F2C006C0F2000630462146402202F0EE
:10092800AEFC0130F8D000BF30464FF4817101F0C1
:1009380075FC0130F8D04034A5F1400069B2402977
:100948000546E9DB00E02846C5B240F2C006C0F221
:10095800000600BF304621462A4602F090FC0130CE
:10096800F8D040F2C004C0F2000400BF20464FF4A3
:0C097800857101F053FC0130F8D070BD17
:100984000000000000000000B3250000E71B000089
:10099400EB300000233100000B1C0000371C00006A
:0409A400DB1C000058
:1009A80000000000000000001B1E0000731E000075
:1009B800333100006B3100008F1E0000CB1E000099
:0409C8007B3100007F
:1009CC000000000000000000B3250000BB21000067
:1009DC00DF31000017320000C1210000C3210000EC
:0409EC00C92100001D
:1009F0000000000000000000B32500002F220000CE
:100A000093320000CB320000352200003722000074
:040A10003D22000083
:100A14000000000000000000B32500005F23000078
:100A2400BF330000F7330000652300006723000094
:040A34006D2300002E
:100A380000000000000000009F260000A72300001F
:100A4800573400008F340000AD230000AF230000AE
:040A58009F340000C7
:100A5C0000000000000000009F260000C7230000DB
:100A6C00B7340000EF340000CD230000CF2300008A
:040A7C00791E0000DF
:100A800000000000000000009F260000E723000097
:100A9000FF34000037350000ED230000EF23000095
:040AA000F52300003A
:100AA40000000000000000009F2600003324000026
:100AB400473500007F350000392400003B24000046
:040AC40041240000C9
:100AC80000000000000000009F26000063240000D2
:100AD800373600006F360000692400006B240000E0
:040AE8007124000075
:100AEC0000000000000000009F260000B32400005E
:100AFC007F360000B7360000B9240000BB2400008C
:040B0C00C124000000
:100B100000000000000000009F2600003B250000B0
:100B2000C7360000FF3600004125000043250000C5
:040B30004925000053
:100B34000000000000000000B3250000B5250000FF
:100B44007F370000B7370000BB250000BD2500003B
:040B5400C3250000B5
:100B580000000000000000009F260000A126000001
:100B6800573800008F380000A7260000A92600008B
:040B7800AF260000A4
:100B7C009E380000AE380000BE380000CE380000B1
:100B8C0010B540F62814C2F2000404F5407000BF02
:0C0B9C00183802F0E0FDA042FAD110BDB4
:100BA800F8B51D46144606460020C4F205008642E4
:100BB8000F4607D044F20A70C0F2000040F64C21FC
:100BC800FFF720FB4FF0FF3000EB37100F2819D24A
:100BD80007F58370805BC00702D12860C043F8BD69
:100BE800F019B0F808012968814238BF0846286022
:100BF80038B106F12001BA08535C04F8013B01380A
:100C0800FAD1F8BD4FEA371048B144F20A70C0F281
:100C1800000040F65421FFF7F5FA002FD8D14FF421
:040C28008170D7E719
:100C2C0002000000010000000100000001000000B3
:100C3C0001000000010000000100000001000000A4
:100C4C000100000001000000010000000100000094
:100C5C000100000001000000010000000100000084
:100C6C0008490A68002AFED41EF0040F0CBFEFF3EB
:100C7C000880EFF3098042F000420A60816902317A
:080C8C00816170472CED00E0CE
:100C9400094B0A4A70B51C689442144609D01D6871
:100CA40000235E59E6500433B3F51B7FF9D1024BA0
:100CB4001A6044F8201070BD08ED00E00000002028
:100CC400042804D1134B1A6842F4803205E0052845
:100CD40005D1104B1A6842F400321A607047062896
:100CE40004D10C4B1A6842F48022F6E70F2804D191
:100CF400094B1A6842F00202EFE70AD91038074B91
:100D0400420953F8223000F01F00012212FA00F0C9
:100D14001860704724ED00E010E000E0240D0000AE
:100D240000E100E004E100E008E100E00CE100E0A3
:040D340010E100E0EA
:100D380000F07043B3F1704F15D100F47F42114BAE
:100D4800120A00F0FF00D318800003F0704240F050
:100D5800007023F07F43104323F4700340EA4313E9
:100D680001221A607047020F81B200F4F810000CDB
:100D780011FA00F0044B53F822301A681043186037
:0C0D8800704700BF00E60F407C11000027
:100D9400054B18B11A6842F0006202E01A6822F0AA
:0C0DA40000621A60704700BF60E00F4062
:100DB000534B2DE9F0411A68044612F0E04F06D07B
:100DC0001A68504B02EA0303B3F1805F02D1002C92
:100DD000C0F294804C494D4A0B68166843F4006396
:100DE00023F4800546F4006613F0020F0D601660D0
:100DF00002D014F0020F05D015F0010F1AD014F034
:100E0000010F17D164F003031D403F4B002E1D60FE
:100E100005DA06F07003302B05D0702B02E005F0E8
:100E20003003302B02D14FF4805001E04FF400200A
:100E300001F05CFE04F4FE6325F4FE6545EA030858
:100E4000334D26F0004604EA050526F0700645EA13
:100E5000060604F0080546EAC5052C4F2A4E102068
:100E6000C6F800803D6001F041FE28F4405804F4CB
:100E70000052284904F4405325F4005548EA03037E
:100E800040201543244A086052BF33603D60336000
:100E900023F0F86304EA020223F0030358BF3D6025
:100EA000134304F0FC5125F0FC5214F0804F42EA49
:100EB000010208D0194922F4800204EA010143F436
:100EC00080030A4301E022F0804214F4006F0CD149
:100ED0004FF400411248006810F0400F01D1013971
:100EE000F8D123F4006322F40062074910200B605C
:100EF000064B1A60BDE8F04101F0F8BDBDE8F08195
:100F000000E00F400000FF7060E00F4070E00F4015
:100F10003000008058E00F400300C0070000404050
:040F200050E00F404E
:100F2400694B70B51A6810331B68002BB4BF03F00B
:100F3400700102F0300120293AD004D869B1102997
:100F440040F0C08010E060295DD0702958D030296D
:100F540040F0B88047F2305063E002F4F8605B4937
:100F6400800951F820005CE05949086810F0E04F0E
:100F74004CD00C68574804EA0000B0F1805F45D0BB
:100F84000C68544804EA0000534CA04203D1096899
:100F940089B202293CD04E484E49046804EA010152
:100FA4004E4CA14236D100684D4980B24D4C22E0EE
:100FB4004749086810F0E04F2ED00C68454804EA11
:100FC4000000B0F1805F27D00C68424804EA0000BA
:100FD400414CA04203D1096889B202291ED03C4881
:100FE4003C49046804EA01013C4CA14218D1006860
:100FF4003D493E4C80B200280CBF2046084610E014
:101004004FF400400DE04FF480000AE0384808E057
:10101400344806E0324804E0364802E0334800E051
:101024003148002B02DA13F4006F01E012F4006F70
:101034002AD13149264D09682C6814F0E04F43F653
:10104400E07401EA040406D02E68224D06EA050580
:10105400B5F1805F06D16409023401F01F056043D5
:10106400023505E06409604301F01F0501356D0098
:10107400B0FBF5F011F4804F18BF400811F4004F95
:1010840018BF800842F4800212F4800F1BD0002B9A
:1010940011DA13F0804F07D013F4006F04D103F07A
:1010A400FE5340009B0D02E003F0FC53DB0D0133C3
:1010B400B0FBF3F070BD02F0F062D20D0132B0FB70
:1010C400F2F070BD002070BD60E00F401011000010
:1010D40000E00F400000FF7000000110000003104A
:1010E4000024F400001BB70000093D00C0C62D0019
:0C10F400C0E1E4007038390064E00F40F7
:10110000024B1A6822F480421A60704770E00F4068
:1011100040420F0000201C0080841E00008025003B
:10112000999E36000040380000093D0000803E00D6
:1011300000004B00404B4C0000204E00808D5B00B7
:1011400000C05D000080700000127A0000007D0089
:1011500080969800001BB7000080BB00C0E8CE005E
:10116000647ADA000024F4000000FA0080A812017A
:0C117000002D310100366E0140787D0139
:0C117C0000E10F4004E10F4008E10F40CB
:1011880010B50023074AD90052F83340844202D1EF
:101198005218506810BD01330C2BF3D14FF0FF30BB
:0811A80010BD00BFB0110000F2
:1011B0000000034023000000001003402500000051
:1011C00000200340270000000030034033000000EF
:1011D0000040034056000000005003406C00000037
:1011E000006003406E0000000070034070000000CB
:1011F00000C004407200000000D0044074000000F1
:1012000000E004407600000000F004407800000098
:10121000034C206804348047FBE700F065FAFEE7E2
:041220003C49000045
:101224002DE9F04F87B017468B4680460020C8F85A
:1012340000000DF1060A1BF8011B252906D0002920
:1012440000F08681404602F0ECFEF4E700255946A2
:101254001BF8010B5E28FAD0672813DC262805DC6E
:10126400202809D0232832D1802009E0272805D05E
:101274002B282CD1202003E0402001E04FF4004033
:101284000543E4E76B2806DD6C280DD0742818BFED
:101294007A2805D01BE068280BD06A2817D10235BC
:1012A40001F1020B487812E048786C2809D1023524
:1012B40003E04878682807D1083501F1030B8878E2
:1012C40005E001F1020B02E001F1020B0435622892
:1012D40021DDA0F1630115294FF00009ABD8DFE847
:1012E40011F026001700160016001600160017004D
:1012F400160016001600160029003600E700160036
:1013040016003B0016004D0016001600210092E75F
:1013140045F4804532E0252873D0582840F02981CF
:1013240045F40055290623D44FF0000926E017F8A8
:10133400041B87E757F8040B2907D8F8001000F1BD
:101344000581AA0754BF0160C0E9001973E72906A3
:10135400302202EAE17911E057F8046B3178002970
:101364003FF469AF404602F05CFE16F8011FF6E751
:1013740043F25809782808BF43F27809690404D471
:10138400A90709D4391D00260CE0A90713D439464E
:1013940051F8047BFE1714E0F91D21F0070707F14B
:1013A40008017E686A073F6814D415F0080F13D04B
:1013B4000026FFB210E0F91D21F007014E6851F834
:1013C400087B0091690709D429070AD547F3C01699
:1013D4007FB206E0BFB20026009119E047F3C036A1
:1013E4003FB2002E06DBA90610D4690610D54FF0D3
:1013F40020090DE000217F4261EB06064FF02D0924
:1014040006E04046252102F00CFE14E74FF02B09BC
:1014140000246E2821DD6F38092800F27880DFE887
:1014240000F00550767676762276765057EA0600F6
:1014340069D0F80840EA4670062262F3DF070AF82A
:101444000470013450EAD6014FEAD6064FEAD001BF
:10145400074641EA4670F0D159E0582831D0642853
:1014640018BF692853D157EA06004CD0280407D581
:1014740004F00300032802BF2C200AF804000134FE
:10148400384631460A22002300F09EFD00EB80021C
:10149400A7EB4202B7F10A0376F1000342F03002EF
:1014A4000AF8042004F1010407460E46DED22EE0B9
:1014B4003846232150F8047B0090280601EAE0799D
:1014C400002657EA06001ED044F65000C0F2000081
:1014D400A9045CBF44F66000C0F20000390941EA87
:1014E4000671002407F00F020F46825C0AF80420FC
:1014F400013451EA16114FEA16164FEA171141EA60
:101504000671EFD103E030208DF806000124B9F113
:10151400FF0F06D94FEA1921404602F082FD009FD1
:1015240003E0B9F1000F009F03D04046494602F0A2
:1015340078FD012CFFF67FAE661E40461AF80610B1
:1015440002F06FFD012C3446F6D874E6017072E6A1
:10155400D8F80C0028B1D8E9001291423CBF00220F
:101564004254404601F0CCFBD8F8000007B0BDE877
:10157400F08F00287FF45FAE404601F0C1FB4FF0CE
:04158400FF30F3E75A
:1015880003480449091A08B501F01CFC0CBC1847AB
:08159800B0160020B01E002077
:1015A0005AB3844690EA01039B071FD1830707D0F3
:1015B00011F8013B00F8013B521EF7D11CE08446B4
:1015C000203A09D32DE9F007B1E8F807A0E8F807B9
:1015D000203AF9D2BDE8F0071C3205D451F8043B9B
:1015E00040F8043B121FF9D2043205D011F8013B38
:0C15F00000F8013B521EF9D16046704724
:1015FC0000220B0011001A0084465AB3830704D052
:10160C0000F8011B521EF9D124E0C9B241EA0121B4
:10161C0041EA0141202A11D3203A2DE9F0030B466F
:10162C000C460D460E460F4688468946A0E8FA033E
:10163C00203AFBD2BDE8F00320320BD0042A05D3AC
:10164C0040F8041B121F05D0042AF9D200F8011B24
:08165C00521EFBD160467047ED
:0C166400D1460000901600007016000037
:10167000EF4300000F4400001B440000274400001B
:101680004744000053440000552E0000232E000064
:10169000D3460000D9470000D9470000D9470000D1
:1016A000D9470000D9470000D9470000D9470000BA
:1016B000D9470000D9470000FFFFFFFFFFFFFFFFF2
:1016C000FFFFFFFFFFFF0000974600008B47000071
:1016D0009B450000A8470000F24500007947000044
:0816E00082470000F9450000FB
:1016E80010B4ADF5875D85B001F0F7F940F24050D0
:1016F800C0F2C010FFF758FB0120FFF747FB01209D
:10170800C2F21000FFF714FB0DF1100E0EF5835412
:10171800204600F012F800F018FA04F1280104F14C
:10172800780204A800F084F801A8FEF777FD01F01C
:0A173800CFF9204601F0A5FCFEE702
:1017420070B586B004460025C4F2030540F2FC00E1
:10175200C0F200002060201D0121012201F0ACFC3A
:101762000620207544F24026C0F20F06A66104F15D
:101772001C0001210A2201F09FFC04F12C0001212E
:10178200642201F099FC04F13C0001214FF47A72C9
:1017920001F092FC04F14C00012142F2107201F0BE
:1017A2008BFC04F15C0048F2A062C0F2010201214C
:1017B20001F082FC04F16C000121324601F07CFC54
:1017C200002084F87C000120C1F21000FFF7B3FA78
:1017D2002846FF2101F095F92846222102F0FCFB60
:1017E200A2682846FF2101F095F940F68C10C0F25C
:1017F2000000CDE900046E460496204631462A4692
:10180200FF2301F0B5FB0498B04202D028B11421A5
:1018120000E010210268515888472846012101261C
:1018220002F0F2FB2846012102F0EAFB204684F88E
:061832007C6006B070BDF1
:101838002DE9F041C2B090460E46044640F2FF70D2
:1018480041F21001421CA4F800280023C4F804380F
:10185800C4F80808C4F80C0865186252C5E90130D4
:10186800E86040F6B010C0F20000CDE93C0441F257
:1018780028003CAF20444097394601F080FC40984E
:10188800B84202D028B1142100E010210268515852
:101898008847002085F84200C5E9116840F6D41051
:1018A800C0F20000CDE9360436AE3A9640F640451F
:1018B800C2F200052846314600F01BFC3A98B042B7
:1018C80002D028B1142100E010210268515888473D
:1018D80040F6F810C0F20000CDE9300430AE34967E
:1018E80005F52270314600F004FC3498B04202D06D
:1018F80028B1142100E0102102685158884740F6A9
:101908001C20C0F20000CDE92A042AAD2E9540F62D
:101918002840C2F20000294600F0EBFB2E98A842AE
:1019280002D028B1142100E01021026851588847DC
:1019380042F20017C0F2200740F64020C0F2000033
:10194800CDE9240424AD2895002141F22456C2F2A1
:10195800000607F5003000BF0A4656F821108142FC
:1019680002F10101F8D102EB420040F20048C2F254
:10197800000808EBC000294601F041FD2898A8425C
:1019880002D028B1142100E010210268515888477C
:1019980040F66420C0F20000CDE91E041EAD229579
:1019A800002100BF084656F82110B94200F1010194
:1019B800F8D100EB400008EBC000294601F01FFDFC
:1019C8002298A84202D028B1142100E01021026810
:1019D8005158884740F68820C0F20000CDE9180425
:1019E80018AD1C95002107F5C03000BF0A4656F80F
:1019F8002110814202F10101F8D102EB420008EB0B
:101A0800C000294601F0FBFC1C98A84202D028B16E
:101A1800142100E0102102685158884740F6AC2094
:101A2800C0F20000CDE9120412AD1695002100BFE6
:101A3800084656F82110B1F5102F00F10101F7D131
:101A480000EB400008EBC000294601F0D8FC1698CE
:101A5800A84202D028B1142100E010210268515890
:101A6800884740F20227C0F2010740F6D020C0F2B2
:101A78000000CDE90C040CAD1095002107F17F00A2
:101A88000A4656F82110814202F10101F8D102EB11
:101A9800420008EBC000294601F0B1FC1098A842AA
:101AA80002D028B1142100E010210268515888475B
:101AB80040F6F420C0F20000CDE9060406AD0A9510
:101AC800002107F1800000BF0A4656F82110814224
:101AD80002F10101F8D102EB420008EBC0002946EF
:101AE80001F08DFC0A98A84202D028B1142100E028
:101AF800102102685158884740F61830C0F200009B
:101B0800CDE900046D460495002100BF084656F84B
:101B18002110B94200F10101F8D100EB400008EBB7
:101B2800C000294601F06BFC0498A84202D028B1F5
:101B3800142100E01021026851588847204600F01F
:0A1B480040F9204642B0BDE8F081EC
:101B520038B5044690F87D00012811D194F87C0034
:101B620001280DD10025C4F203052846FF2100F00B
:101B7200C8FF2846012100F0F3FF002084F87D0011
:021B820038BD6C
:101B840070B504460025C4F2030528460121012648
:101B940000F0EAFFC00723D02846012102F033FAFF
:101BA400207D2674E0B141F2F40EC2F2000EA36966
:101BB400DEF800C004F11C02012100BF9668BCFBE2
:101BC400F6F404FB16C646B916681173F51A18BF65
:101BD4000CF10105CEF80050AC4610320138EDD1BD
:021BE40070BDD2
:061BE600082102F0ADBC75
:101BEC00F8B5140009D00D460646274615F8011B1A
:0E1BFC00304600F0C4F9013FF8D12046F8BD94
:021C0A00704721
:101C0C00F8B5D0F8046876B1964228BF164652B1A2
:101C1C0004460D46374600BF204600F01CFB013F32
:0A1C2C0005F8010BF8D1B0B2F8BDC5
:061C3600082102F085BC4C
:101C3C002DE9F04190B0044641F2140021580029DE
:101C4C0042D0251895F82C00032803D020460321F8
:101C5C0001F081FBE88D00F40470B0F5007F33D106
:101C6C002A68402A04F5016812D300BF4046694631
:101C7C004022FFF7C5FF0746204669463A4600F06A
:101C8C0005FB2A683F2AF1D81AB9B8060BD01BE01D
:101C9C004AB140466946FFF7B3FF02462046694603
:101CAC0000F0F4FA10E040F24404C0F200042046C4
:101CBC00002101F0E2FA20464FF4817100F0ACFAF9
:0E1CCC00E88D40F01000E88510B0BDE8F08112
:061CDA004068FFF752BF55
:101CE00082B070B582B00C460546CDE9062306A841
:101CF000009000BF207825280AD078B301348DF8F1
:101D0000070028460DF1070100F0A4FAF2E700BF32
:101D1000607872280CDC58280ED064281CD10098FA
:101D2000011D00910168284601F0D7FA14E000BFB8
:101D3000732809D078280FD10098011D00910168FF
:101D4000284600F019F807E00098011D009101688D
:101D5000284600F04FF800BF0234CBE702B0BDE8E0
:061D6000704002B0704764
:101D660002460068116018B19168C90002F0E8BB2C
:021D76007047B4
:101D7800F0B585B00446039103A80DF10305294683
:101D8800042200F047F830208DF8130020460DF1AA
:101D9800130100F05BFA78208DF813000DF11301A0
:101DA800204600F053FA082715F8010B8DF81300A8
:101DB80020460DF1130100F049FA013FF4D105B0B6
:021DC800F0BD6C
:101DCA0010B540F24404C0F2000404F1500040216E
:101DDA0001F098FC0146204601F094FC014604F10A
:0A1DEA002800BDE8104001F08DBC98
:101DF400F8B50C46097869B1054600278DF803103B
:101E0400013728460DF1030100F022FAF8B2215CF3
:061E14000029F3D1F8BD26
:021E1A0070470F
:101E1C0001EB4201002301F801391AB3F0B54FF080
:101E2C00200C6FF01F0E00BFD0E900459E00ACEBFC
:101E3C00830705FA07F7F4403C431EEB830658BFB3
:101E4C0025FA06F404F00F04CD1A04F13006092C1F
:101E5C0088BF04F137060133DCB2B4EB420F2E70AD
:061E6C00E2D3F0BD704757
:061E7200082102F067BB2D
:101E7800406800F58150072211F8013B00F8013B4A
:061E8800013AF9D1704798
:021E8E0070479B
:101E900038B505680024C4F2050440F2C000C0F261
:101EA0000000002100F056FA94F80201C006FBD5AC
:101EB00041F20010C2F20000807800F07F0120465D
:0A1EC00001F0ADFF0220287038BDCC
:061ECA00082102F03BBB01
:101ED000002040F62811C2F2000100228B181832AF
:101EE000B2F5407F1861F9D140F68D30C0F20000A4
:0E1EF00040F20002C0F20002002102F0B0BA7F
:101EFE0002460068116018B19168C90002F01CBB5F
:021F0E0070471A
:101F1000F8B51C46154606460020C4F20500864268
:101F20000F4607D044F20A70C0F200004FF432614D
:101F3000FEF76CF94FEA3710102806D240F62C4114
:101F4000C0F2000151F820000BE044F20A70C0F228
:101F5000000040F62831FEF759F90120002F08BF94
:101F60000220F11991F80211084202D04FF0FF301F
:101F7000F8BD44B106F12000B90800BF15F8012BE7
:0A1F80000A54013CFAD10020F8BD1C
:101F8A00D0F80838B0F8002801339342002228BF5D
:101F9A001346C0F80838C154D0F80838D0F80C18DD
:101FAA00994208D1B0F800380131994238BF0A463F
:101FBA00C0F80C287047D0F804180131C0F804188A
:021FCA0070475E
:101FCC00002B35D129B9B0FBF2FC0CFB1202604698
:101FDC007047914215D22DE9F041B2FA82F39A4042
:101FEC009940D3F1200C30FA0CFC51EA0C019840CA
:101FFC0000F04EF8280036FA03F200210023BDE869
:10200C00F081F0B5B1FBF2FC0CFB1211B2FA82F3C9
:10201C009A409940D3F1200630FA06F631439840A5
:10202C0000F036F8614628003200DA400023F0BD9B
:10203C00F3B5B3FA83FC49085FEA300013FA0CF3EA
:10204C00DCF1200432FA04F423430CB41A0000F03F
:10205C001FF80CBC33FA0CF3DCF11F0C35FA0CF541
:10206C0018BF6D1E03BCA5FB026705FB0377801B25
:10207C00B941904271EB030C05D3821A71EB030347
:10208C00681C0021F0BD02000B0028000021F0BDEF
:10209C00940D4FF6C2752D02B5FBF4F4D60A761CDE
:1020AC0004FB04F5A5FB0656F64306EB041655088F
:1020BC0032BF002777086D1C05FB1677A6FB074778
:1020CC007F0807EBC63714001500E7FB02457F1BA2
:1020DC004D1C0400E7FB014505FB1206A64284BF1C
:0E20EC006D1EB618964224BF6D1CB61A7047C2
:1020FA0030B587B004466D46284601F055F82146AA
:10210A0000F00DF80498A84202D028B1142100E08A
:0E211A001021026851588847204607B030BD9A
:1021280081420CD0B0B584B00C46054600690969F7
:10213800A84205D0A14210D02961206137E070473C
:102148000268A142D26815D02146904728690168E3
:10215800096988472069286128E00868C268084634
:1021680029469047206901680969884728692061DC
:102178002D611CE06946904728690168096988470C
:1021880000272F6120690168CA682946904720699D
:10219800016809698847276100982D61C268684607
:1021A800214690470098016968468847246104B031
:0221B800B0BDB8
:0621BA00082102F0C3B988
:0221C000704766
:0621C200082102F0BFB984
:0621C800406800F009B8B8
:1021CE0002460068116018B19168C90002F0B4B9F6
:0221DE00704748
:1021E00010B5044640F24400C0F2000000F00DF8C3
:1021F00041F24201605A40F0020020F010022046F5
:0A2200006252BDE8104001F00EB874
:10220A0010B504460068A16801F00AFD024620687C
:0A221A00A168BDE8104000F02DBBE4
:0A2224000A468168006801F04CBE14
:06222E00082102F089B94D
:022234007047F1
:06223600082102F085B949
:06223C004068FEF775B8D2
:1022420002460068116018B19168C90002F07AB9BB
:022252007047D3
:0E225400006910B102689269104701F04CF861
:102262008446D0F804280020A2B100B5DCF80C188E
:10227200BCF800E84B1CDCF80818734538BF184658
:10228200431A18BF531ECCF80C08CCF804381CF8BB
:06229200000000BD7047D2
:102298002DE9F04141F242031446C25A0D46C718CF
:1022A800D1061AD4402C264628BF402640F24408BE
:1022B800C0F2000840462946324600F0E0FF40469A
:1022C8004FF48171FFF7AAFF388840F01001412CC4
:1022D80039800CD340F0900002E042F080000026E4
:1022E8003880C7F80250C7F80640C7F80A60BDE84A
:0222F800F08173
:1022FA0070B5044641F241000D46215C261820467D
:10230A0001F040F8B6F8010001070AD431782046F6
:10231A0001F038F8B6F8010040F00800A6F801000C
:10232A0006E02DB140F6D27000F0DBFBB6F80100F2
:10233A00010709D400F108023178A6F801202046E5
:0A234A00BDE8704001F01EB870BD40
:0A2354000A468168006800F082BBB1
:06235E00082102F0F1B8B5
:022364007047C0
:06236600082102F0EDB8B1
:06236C00406800F009B812
:1023720002460068116018B19168C90002F0E2B823
:022382007047A2
:1023840010B5044640F29400C0F20000FFF73BFF92
:1023940041F24200215A41F0010121F00801215289
:0223A40010BD6A
:0623A600082102F0CDB891
:0223AC00704778
:0623AE00082102F0C9B88D
:1023B40002460068116018B19168C90002F0C1B802
:0223C400704760
:0623C600082102F0BDB881
:0223CC00704758
:0623CE00082102F0B9B87D
:1023D40002460068116018B19168C90002F0B1B8F2
:0223E400704740
:0623E600082102F0ADB871
:0223EC00704738
:0623EE00082102F0A9B86D
:0623F400043000F009B8FE
:1023FA0002460068116018B19168C90002F09EB8DF
:02240A00704719
:10240C0010B5006800F5815140F2C004C0F2000420
:10241C002046072200F031FF20464FF48571BDE8BD
:06242C001040FFF7F9BEAD
:06243200082102F087B84A
:022438007047EB
:06243A00082102F083B846
:06244000043001F0A4B815
:1024460002460068116018B19168C90002F078B8B8
:022456007047CD
:0A2458008168426A006801F06CBD63
:06246200082102F06FB832
:022468007047BB
:06246A00082102F06BB82E
:06247000043000F009B881
:1024760002460068116018B19168C90002F060B8A0
:0224860070479D
:1024880010B5006841F2420140F29404425A22F029
:1024980009024252C0F200042046FFF7B2FE20466D
:0A24A8000121BDE81040FFF751BF0D
:0624B200082102F047B80A
:0224B80070476B
:0624BA00082102F043B806
:0624C000043000F009B831
:1024C60002460068116018B19168C90002F038B878
:0224D60070474D
:1024D800F8B5056841F21006AF1940F24404C0F29D
:1024E80000042046FFF78DFE204600F018F820462D
:1024F80000F01AF8A85B01380021C7E90110F8605C
:10250800032087F830004020788640F68C2000F0C1
:0E251800E9FA20460121BDE8F840FFF717BFA1
:0A25260081684269006801F013BCEF
:0A2530008168426A006801F09CBB5C
:06253A00082102F003B8C5
:022540007047E2
:06254200082101F0FFBFBB
:06254800043000F009B8A8
:10254E0002460068116018B19168C90001F0F4BF2D
:02255E007047C4
:1025600038B5056840F26C04C0F200042046FFF75D
:102570004CFE2046FFF7D7FF2046FFF7D9FFB5F8FE
:10258000000801380021C5F8041841F24201C5F8DD
:1025900008086A5AC5F80C0822F024006852204640
:1025A0000121FFF7D7FE20460021BDE83840FFF7A4
:0225B000D1BE9A
:0225B200704770
:0625B400082101F0C6BF82
:0225BA00704768
:0625BC00082101F0C2BF7E
:0625C200406800F009B8BA
:1025C80002460068116018B19168C90001F0B7BFF0
:0225D80070474A
:1025DA00F0B583B040F20211C4F2050104460A784C
:1025EA008DF807208A798DF806200A7A8DF8052059
:1025FA00A1F58175284601F0E7FA060029D044F6CC
:10260A004400C0F20000314601F08CFDF00720D0F2
:10261A0040F2C000C0F2000000F070FEC8B10290A3
:10262A0040F2C000C0F2000041F20017C2F20007F7
:10263A0002AA394600F066FE41F20811C2F2000110
:10264A008878002806BF3888088008882146FDF760
:10265A006CFF3046FDF74BFF284601F071FA00F097
:0E266A000700012804BF0020207003B0F0BD5F
:0A26780081684269006801F026BB8A
:0E268200006910B103689B69184700F035FE2F
:0E269000006910B101688969084700F02EFE4C
:02269E00704783
:0626A000082101F050BF0B
:0226A60070477B
:0626A800082101F04CBF07
:0626AE000430FFF7EEBB53
:1026B40002460068116018B19168C90001F041BF79
:0226C40070475D
:1026C60010B50446006BFEF734FBFEF716FDE06915
:1026D600FEF7F5FA2068216A00F05DF82068616A65
:1026E60000F084F82068A16A01F056FA2068E16AD1
:1026F60000F0A7F82068A16A00F012F82068BDE88B
:06270600104001F075BB5C
:10270C0040F62810C2F20000006928B140F62810EB
:0A271C00C2F20000FFF7B6BF7047DD
:1027260070B504460026C4F20506B0420D4607D031
:1027360044F20A70C0F2000040F24B21FDF763FD3F
:102746004FF2F010C0F2FC00054207D044F20A70C6
:10275600C0F200004FF41371FDF755FD15F00F00A0
:102766001EBFE1880843E08015F460601EBF218922
:1027760041EA10202081280E1EBFE17A0843E0724C
:10278600E80344BF0120C4F80804A80344BF01209D
:06279600C6F8480470BD06
:10279C0070B504460026C4F20506B0420D4607D0BB
:1027AC0044F20A70C0F2000040F29521FDF728FDBA
:1027BC00B5F5806F07D344F20A70C0F2000040F206
:1027CC009621FDF71DFD28061EBFE07AA843E07296
:1027DC00E80544BF0020C4F80804A80544BF002045
:0627EC00C6F8480470BDB0
:1027F20070B504460026C4F20506B0420D4607D065
:1028020044F20A70C0F200004FF43271FDF7FDFC91
:10281200B5F5806F07D344F20A70C0F2000040F2AF
:10282200C921FDF7F2FC28061EBFE07A2843E072B8
:10283200E80544BF0120C4F80804A80544BF0120EC
:06284200C6F8480470BD59
:1028480038B504460020C4F2050084420D4607D07E
:1028580044F20A70C0F2000040F27F31FDF7D2FC6A
:10286800E0882843E0806FF00100218900EA1540E4
:062878000843208138BD79
:10287E0070B5144605460020C4F2050085420E468A
:10288E0007D044F20A70C0F2000040F2B541FDF7E5
:10289E00B6FC4FF0FF3000EB36100F2811D2701936
:1028AE00DB2290F8021162EA0402114080F8021154
:1028BE0090F80611B32262EA1442114080F8061114
:1028CE0070BD4FEA361048B144F20A70C0F20000F3
:1028DE0040F2BD41FDF793FC002EE0D1E0071EBF94
:1028EE0095F8020140F0400085F80201E00642BF73
:1028FE0095F8020140F0800085F802016007DFD5EF
:0E290E0095F8020100F0FB0085F8020170BD93
:10291C00F8B51C46154606460020C4F20500864252
:10292C000F4607D044F20A70C0F2000040F2DE718C
:10293C00FDF766FC103F4FEA37100F2807D344F21F
:10294C000A70C0F2000040F2E671FDF759FCA004D9
:10295C0007EB060010D4A0F8145104F00401202257
:10296C00E3064CBF282302EA840343EA4112802386
:10297C004FF48B77791C10E0A0F81051E10640F26F
:10298C00131105D404F0090292FAA2F2120E02E01D
:10299C00142264F3C71240234F1E14F4407F08BF67
:0A29AC0042F040024254C355F8BD4A
:1029B6002DE9F0411D46164604460020C4F20500E6
:1029C60084420F4606D044F20A70C0F20000792114
:1029D600FDF719FCDDF81880042F06D344F20A70BF
:1029E600C0F200007B21FDF70EFCB8F1010FA07BC1
:0E29F600A77314BF35533555A073BDE8F081AB
:102A040038B504460020C4F2050084420D4607D0C0
:102A140044F20A70C0F2000040F60721FDF7F4FB0F
:102A24004FF0FF3000EB35100F2808D205F5837006
:102A3400005BC0071CBF6019B0F8080138BD4FEA3D
:102A4400351048B144F20A70C0F2000040F60F217C
:0E2A5400FDF7DAFB002DE9D14FF48170E8E7C1
:102A620070B5154604460020C4F2050084420E46A5
:102A720007D044F20A70C0F2000040F6B421FDF71C
:102A8200C4FB4FF0FF3000EB36100F2807D2A0191D
:102A920090F8061101F0FE0180F8061170BD4FEAB0
:102AA200361048B144F20A70C0F2000040F6BC2170
:102AB200FDF7ABFB002EEAD14820002D08BF4020D5
:062AC20084F8020170BD62
:022AC800FEE727
:022ACA00FEE725
:022ACC00FEE723
:022ACE00FEE721
:022AD000FEE71F
:022AD200FEE71D
:022AD400FEE71B
:022AD600FEE719
:0A2AD80008B501F07AFAC0B208BD9B
:0A2AE20008B501F071FAC0B208BD9A
:062AEC000138FDD1704726
:102AF200C26840F2011301EA030342EA0303C3601E
:022B020070471A
:102B0400C26840F2011301EA030322EA0303C3602B
:022B1400704708
:102B160011F0FF0F18BF826211F47F4F18BFC26217
:022B26007047F6
:102B280070B50C461546FEF72BFB14F0FF0F064652
:102B380005D02946FEF7AAF83046FEF7BFF814F488
:102B48007F4F09D0741C20462946FEF79FF820467F
:0A2B5800BDE87040FEF7B2B870BD92
:0A2B6200836923EA010383617047D1
:0A2B6C0009B1006A7047C0697047A4
:102B760010B500280C4603DA0A2A01D1012300E029
:0A2B8600002300F002F8204610BD05
:102B900030B5002B8C46E6461EBF2D210EF8011BDA
:102BA00040427346B0FBF2F404FB120101F1300520
:102BB000092988BF01F157058242194603F8015BD4
:102BC0002046EFD90020187008789EF8002001F800
:0E2BD00001290EF8010B8E45F6D3604630BD8C
:102BDE0040F2BC00C0F200000468204600F001F88C
:022BEE00FBE703
:102BF00080B505281FD841F2A00CC2F2000C42F6A5
:102C000077435CF82010C0F200034CF82030A9B1E3
:102C100042F67542C0F2000291420CD0994208D0AF
:102C200042F67343C0F20003994207D04CF82030BB
:102C30008847002008BD4FF0FF3008BD0120FEF797
:022C4000EEFAAA
:102C420041F21E53C2F200031A78002A02464FF0E4
:102C5200010007D141F2B80CC2F2000CCCE900210C
:062C62001870002070470D
:0A2C6800014600200022FFF7E8BF3C
:022C72007047A9
:022C74007047A7
:022C76007047A5
:0E2C780041F29461C2F20001096800F000B858
:102C860080B50B468DF803000DF1030001210122EA
:102C960000F01EF89DF80310002808BF411E0846E4
:022CA60008BD67
:102CA80038B541F29461C2F2000104460D6800F0A3
:102CB8009FF802462846214600F032F8013004D039
:0E2CC8000A20BDE83840FFF7D3BFC04338BD37
:102CD600F8B51D4617460C460646184601F03AFA60
:102CE600002803D407FB04F2A24201D20020F8BD5B
:0E2CF6002846314600F015F8B0FBF4F0F8BDAA
:102D040042694AB110B50446036A002B1CBF21690D
:0A2D140098470020606110BD704771
:0A2D1E00436A08460121FFF7D7BF02
:062D2800006800F034B861
:102D2E000146C0680A6982426FEA000010449CBFE7
:062D3E008968084470479B
:102D44002DE9F843144688460546C7684FF0000944
:102D54002869F943B8420844A96898BF0844CE1BBF
:102D6400B04238BF06466868A64228BF26463844A3
:102D740041463246FEF712FCA868F1190F1A18BF33
:102D84000F46A41BB144B044EF60E1D14846BDE80E
:022D9400F883C2
:102D9600F8B540F6F863C2F2000314461B78002B20
:102DA6000D46064608BF01F0F3F9EFF311874FF021
:102DB600200181F3118830462946224601F034FA73
:062DC60087F31188F8BD3F
:102DCC00082907D341F2E402C2F20002106000228B
:062DDC00C0E90021704770
:102DE20010B5044601F0D6FA204601F085FABDE896
:062DF200104001F0DBBA05
:102DF800017881B10246944652F8043BA3F10131AF
:102E0800994331F07F33F6D019BAB1FA81F10CEB5E
:0A2E1800D101081A7047002070472E
:102E220084460020002918BF002A0ED0097848B233
:102E320000280BD4BCF1000F18BFCCF80010002101
:102E4200C3E90011002818BF012070476FF001008C
:022E52007047C7
:0E2E54007F298EBF6FF00100017001207047D2
:062E6200FFF7BCFEFEE7D5
:102E6800F8B541F2C404C2F20004206890B141F2FE
:102E78002005C2F2000540F6A076C2F200066FF007
:102E8800030707EB80002958305888472068013825
:062E98002060F6D1F8BD38
:102E9E0070B582B004460125BFF35F8F057044F60E
:102EAE000411C0F2000101A800F02FF866786570D9
:102EBE0001F026FB700706D541F2C800C2F20000F1
:102ECE0001F0A6F808B902B070BD44F23E60C0F23F
:0E2EDE00000044F60411C0F20001FFF7BBFF34
:102EEC0010B541F2CC04C2F200040020206001F0C5
:062EFC0088F8206010BD03
:102F020010B541F2C804C2F200040020206001F0B2
:062F120083F8206010BDF1
:102F180010B50446016041F2CC00C2F2000001F095
:102F280074F808B9204610BD216844F20860C0F260
:062F38000000FFF792FF0C
:102F3E0080B500F008F800B108BD44F2E770C0F2A9
:062F4E000000FFF787FF01
:102F540010B50446012898BF0124204601F02DFA3B
:0E2F640020B901F0E4FA08B18047F6E710BD8D
:102F720081B078B51446059305A841F22056C2F2F5
:102F8200000600903278031D1F2A009318D80568A6
:102F920002EB420040F62812C2F2000202EBC0002D
:102FA20000F012F8307841F20061C2F2000151F8EB
:102FB200202020462946FFF7B6FD307801303070D8
:082FC200BDE8784001B0704742
:102FCA0070B50D4604460021002600F011F8286964
:102FDA0020B1A84204D020612E6107E0266105E0F5
:102FEA00246128690168CA6821469047204670BD55
:102FFA0010B5044600690021A042216102D028B11F
:10300A00142100E01021026851588847204610BD5B
:10301A0081B030B582B0144641F22055C2F20005A3
:10302A000593287805AA1F28019216D800EB4000BC
:10303A0040F62812C2F2000202EBC000FFF7C0FFFE
:10304A00287841F20061C2F2000151F820102046AE
:10305A0000F0CEFD28780130287002B0BDE830407B
:04306A0001B07047FA
:10306E0010B504460069A04202D028B1142100E038
:0C307E001021026851588847204610BD00
:10308A0038B5044690F87D0088B994F87C00012888
:10309A000DD10025C4F203052846FF21FFF724FDC0
:1030AA0028460121012500F0A7FF84F87D5038BD8C
:1030BA0070B514460D4606460260FDF72EFF4DF622
:1030CA008361C4F21B31A0FB0101880C6843B4FB85
:1030DA00F5F10138C6E9010100213046317370BDAE
:1030EA0030B585B004460820FFF724FF05460DF1E8
:1030FA001300029001200390606840F68C11C0F220
:10310A000001C5E900100020019001A80021FEF786
:08311A0025FE284605B030BD7A
:1031220040F68C12C0F200024068C1E900207047EC
:1031320030B585B004460820FFF700FF05460DF1C3
:103142001300029001200390606840F6B011C0F2B3
:103152000001C5E900100020019001A80021FEF73E
:08316200CDFE284605B030BD8A
:10316A0040F6B012C0F200024068C1E90020704780
:0C317A004068097800F50160FEF702BF14
:1031860010B50A6904463AB18A4207D010688168C8
:1031960010468847206107E0226105E0246108693E
:0C31A6000168CA6821469047204610BD11
:1031B20010B50A6904463AB18A4207D0106881689C
:1031C20010468847206107E0226105E02461086912
:0C31D2000168CA6821469047204610BDE5
:1031DE0030B585B004460820FFF7AAFE05460DF16E
:1031EE001300029001200390606840F6D411C0F2E3
:1031FE000001C5E900100020019001A80021FEF792
:08320E00DFFF284605B030BDCA
:1032160040F6D412C0F200024068C1E900207047AF
:1032260041F24202815A0B0600D4704770B58618E7
:10323600D6F80620D6F80A0082421DD9141AD6F806
:103246000210402C28BF4024014440F24405C0F23D
:1032560000052846224600F013F828464FF48171EF
:10326600FEF7DDFF3088D6F80A1040F010003080F7
:103276000819C6F80A0070BD21F08000308070BDC4
:0C32860013460A4681680068FEF73FBE50
:1032920030B585B004460820FFF750FE05460DF113
:1032A2001300029001200390606840F6F811C0F20A
:1032B2000001C5E900100020019001A80021FEF7DD
:0832C200BFFF284605B030BD36
:1032CA0040F6F812C0F200024068C1E900207047D7
:1032DA0010B584B0044608460DF102010A22FFF730
:1032EA0045FC20460DF10201FEF77FFD04B010BD3A
:0C32FA0044F2D560C0F20000FFF7AEBD4A
:0833060081680068FFF77BBB42
:0C330E0013460A4681680068FDF747BCC2
:10331A001368002B4FF000031CD000B5D1F800C091
:10332A00B0F800E80CF1010CF44538BF63460B60B5
:10333A001368A3F1010EC2F800E0D1F800C0D0F87A
:10334A000838BCEB030318BF734613600968435C73
:08335A005DF804EB1846704712
:1033620041F24102835C994200D1704738B5851819
:103372000C4629700121FEF7BFFF032C02BFB5F8EE
:0C338200010040F40070A5F8010038BD07
:10338E0010B541F2A062C2F2000240F29404118123
:10339E00C0F20004204611460A22FFF76DFF00B16D
:1033AE0010BD20464FF48171BDE81040FEF733BFCB
:1033BE0030B585B004460820FFF7BAFD05460DF17D
:1033CE001300029001200390606840F61C21C0F2A9
:1033DE000001C5E900100020019001A80021FEF7B0
:0833EE00C1FF284605B030BD07
:1033F60040F61C22C0F200024068C1E90020704776
:1034060070B50D4604460021002600F011F8286923
:1034160020B1A84204D020612E6107E0266105E0B4
:10342600246128690168CA6821469047204670BD14
:1034360010B5044600690021A042216102D028B1DE
:10344600142100E01021026851588847204610BD1B
:1034560030B585B004460820FFF76EFD05460DF130
:103466001300029001200390606840F64021C0F2EC
:103476000001C5E900100020019001A80021FEF717
:0834860096FF284605B030BD99
:10348E0040F64022C0F200024068C1E900207047B9
:10349E00897840684FF4825201F00301815400F59F
:0834AE0082504021418070476B
:1034B60030B585B004460820FFF73EFD05460DF100
:1034C6001300029001200390606840F66421C0F268
:1034D6000001C5E900100020019001A80021FEF7B7
:0834E60076FF284605B030BD59
:1034EE0040F66422C0F200024068C1E90020704735
:1034FE0030B585B004460820FFF71AFD05460DF1DC
:10350E001300029001200390606840F68821C0F2FB
:10351E000001C5E900100020019001A80021FEF76E
:08352E0065FF284605B030BD21
:1035360040F68822C0F200024068C1E900207047C8
:1035460030B585B004460820FFF7F6FC05460DF1B8
:103556001300029001200390606840F6AC21C0F28F
:103566000001C5E900100020019001A80021FEF726
:0835760067FF284605B030BDD7
:10357E0040F6AC22C0F200024068C1E9002070475C
:10358E00F8B50468154604F582572046002100263A
:10359E0000F024F82878032811D17E8040F24406EA
:1035AE00C0F2000606F15000FEF74FFF3046FEF760
:1035BE004CFF06F12800FEF748FF012028607888AE
:1035CE0020F400707880032028604FF4807220462B
:0C35DE0001213A80BDE8F84000F000B880
:1035EA0010B540F24404C0F2000404F1500051B195
:1035FA0000F014F8204600F011F804F12800BDE8A4
:10360A00104000F00BB800F00DF8204600F00AF860
:0C361A0004F12800BDE8104000F004B8E6
:0836260001690068FFF70DB90E
:08362E000169006800F0B4BA64
:1036360030B585B004460820FFF77EFC05460DF13F
:103646001300029001200390606840F6D021C0F27A
:103656000001C5E900100020019001A80021FEF735
:0836660007FF284605B030BD46
:10366E0040F6D022C0F200024068C1E90020704747
:10367E0030B585B004460820FFF75AFC05460DF11B
:10368E001300029001200390606840F6F421C0F20E
:10369E000001C5E900100020019001A80021FEF7ED
:0836AE000BFF284605B030BDFA
:1036B60040F6F422C0F200024068C1E900207047DB
:1036C60030B585B004460820FFF736FC05460DF1F7
:1036D6001300029001200390606840F61831C0F292
:1036E6000001C5E900100020019001A80021FEF7A5
:0836F6002BFF284605B030BD92
:1036FE0040F61832C0F200024068C1E9002070475F
:10370E0038B5044605C80D468273204600F00EF803
:10371E002068E16801602046294600F00DF8E06857
:0C372E0094F820108840284480B238BD78
:0C373A00D0E9021243690068FFF7EBB809
:1037460010B582B0D0F808C0C369446A0068009416
:0C3756000A46614600F072FB02B010BD94
:1037620010B504460069A04202D028B1142100E03D
:0C3772001021026851588847204610BD05
:10377E0030B585B004460820FFF7DAFB05460DF19B
:10378E001300029001200390606840F63C31C0F2B5
:10379E000001C5E900100020019001A80021FEF7EC
:0837AE000CFF284605B030BDF8
:1037B60040F63C32C0F200024068C1E90020704782
:1037C60038B541F20015C2F2000544F27964AA79CF
:1037D600C0F2000420460221FDF755F8AA7940F20E
:1037E600C000C0F200002146BDE83840FFF748BDE2
:1037F600032815D080B5022808D0012814D1CAB2F2
:1038060044F27B60C0F20000122105E0CAB244F225
:103816005850C0F200004321FDF773F8012008BD9F
:0C382600C9B2104600F002B8002008BD36
:1038320010B50446032809D840F67C30C0F20000D7
:103842000A4650F824001021FDF75DF8042C80414F
:04385200404210BD23
:1038560030B585B004460820FFF76EFB05460DF12E
:103866001300029001200390606840F66031C0F2B8
:103876000001C5E900100020019001A80021FEF713
:0838860016FF284605B030BD15
:10388E0040F66032C0F200024068C1E90020704785
:10389E000403090400000000000000000000000006
:1038AE000E0341006E006400720065007700000098
:1038BE000A0354004500530054003000000000007D
:1038CE00100331003200330034003500360037006B
:1038DE0040F64010C2F200000169002908BF70478F
:0438EE00FEF7CFBE54
:1038F20040F65810C2F200000169002908BF704763
:04390200FEF7C5BE49
:1039060040F67010C2F200000169002908BF704736
:04391600FEF7BBBE3F
:10391A0040F68810C2F200000169002908BF70470A
:04392A00FEF7B1BE35
:10392E0040F6A010C2F200000169002908BF7047DE
:04393E00FEF7A7BE2B
:1039420040F6B810C2F200000169002908BF7047B2
:04395200FEF79DBE21
:1039560040F6D010C2F200000169002908BF704786
:04396600FEF793BE17
:10396A0040F6E810C2F200000169002908BF70475A
:04397A00FEF789BE0D
:10397E0040F60020C2F200000169002908BF70471E
:04398E00FEF77FBE03
:1039920040F61820C2F200000169002908BF7047F2
:0439A200FEF775BEF9
:1039A60040F63020C2F200000169002908BF7047C6
:0439B600FEF76BBEEF
:1039BA0040F64820C2F200000169002908BF70479A
:0439CA00FEF761BEE5
:1039CE0040F66020C2F200000169002908BF70476E
:0439DE00FEF757BEDB
:1039E20040F67820C2F200000169002908BF704742
:0439F200FEF74DBED1
:1039F60040F69020C2F200000169002908BF704716
:043A0600FEF743BEC6
:103A0A0040F6A820C2F200000169002908BF7047E9
:043A1A00FEF739BEBC
:103A1E0040F6C020C2F200000169002908BF7047BD
:043A2E00FEF72FBEB2
:103A320040F6D820C2F200000169002908BF704791
:043A4200FEF725BEA8
:103A460040F6F020C2F200000169002908BF704765
:043A5600FEF71BBE9E
:103A5A0040F60830C2F200000169002908BF704729
:043A6A00FEF711BE94
:103A6E0040F62030C2F200000169002908BF7047FD
:043A7E00FEF707BE8A
:103A820040F63830C2F200000169002908BF7047D1
:043A9200FEF7FDBD81
:103A960040F65030C2F200000169002908BF7047A5
:043AA600FEF7F3BD77
:103AAA0040F66830C2F200000169002908BF704779
:043ABA00FEF7E9BD6D
:103ABE0040F68030C2F200000169002908BF70474D
:043ACE00FEF7DFBD63
:103AD20040F69830C2F200000169002908BF704721
:043AE200FEF7D5BD59
:103AE60040F6B030C2F200000169002908BF7047F5
:043AF600FEF7CBBD4F
:103AFA0040F6C830C2F200000169002908BF7047C9
:043B0A00FEF7C1BD44
:103B0E0040F6E030C2F200000169002908BF70479C
:043B1E00FEF7B7BD3A
:103B220040F6F830C2F200000169002908BF704770
:043B3200FEF7ADBD30
:103B360040F61040C2F200000169002908BF704734
:043B4600FEF7A3BD26
:103B4A0010B504460020C4F20500844207D044F2AE
:103B5A000A70C0F2000040F21631FCF752FBA07A5C
:103B6A00D4F80C14C90707D094F80C1400F5807027
:103B7A0041F0010184F80C1440F24C41C4F20501F1
:103B8A000A68D20705D00A6800F5007042F00102FF
:043B9A000A6010BDF0
:103B9E0038B504460020C4F2050084420D4607D015
:103BAE0044F20A70C0F2000040F25731FCF727FBD6
:103BBE00E088A843E0802089012161EA1541084090
:043BCE00208138BD5D
:103BD20010B504460020C4F20500844207D044F226
:103BE2000A70C0F2000040F2AA31FCF70EFB6088B6
:083BF200A18840EA014010BD6A
:103BFA0010B50022C4F2050290420C4607D044F2E6
:103C0A000A70C0F200004FF47571FCF7FAFA3C2012
:103C1A002146FDF73AF83C20BDE81040FDF74DB8C3
:103C2A0038B504460020C4F2050084420D4607D088
:103C3A0044F20A70C0F2000040F25141FCF7E1FA86
:103C4A004FEA3510102807D344F20A70C0F2000078
:103C5A0040F25941FCF7D5FA6019B0F80211B0F8F0
:083C6A00060141EA004038BDEB
:103C720070B5144605460020C4F2050085420E4682
:103C820007D044F20A70C0F200004FF4AE61FCF7B4
:103C9200BCFAA6F110004FEA30100F2807D344F205
:103CA2000A70C0F200004FF4AF61FCF7AEFA70196F
:103CB20014F4005F4FF4817108BF0431425C0CBF01
:0C3CC20042F0800342F04003435470BD08
:103CCE0070B5164604460020C4F2050084420D4627
:103CDE0007D044F20A70C0F2000040F2A351FCF784
:103CEE008EFA6FF40050064207D044F20A70C0F20A
:103CFE00000040F2A451FCF782FA4FF0FF3000EBC7
:103D0E0035100F280FD2B6F5005F04D1601900F5FB
:103D1E008170102103E0281900F5837020210278AC
:103D2E001143017070BD4FEA351048B144F20A706C
:103D3E00C0F2000040F2AC51FCF761FA002DE2D166
:083D4E0004F581706021EAE731
:103D560070B5164604460020C4F2050084420D469E
:103D660007D044F20A70C0F2000040F2E651FCF7B8
:103D76004AFA4FEA3510102807D344F20A70C0F207
:103D8600000040F2EE51FCF73EFA6FF40050064296
:103D960007D044F20A70C0F2000040F2EF51FCF77F
:103DA60032FA85B1B6F5005F14D1601990F80211A8
:103DB60001F0CF0180F8021190F8021141F04001A4
:103DC60080F8021170BD94F8020100F0FB0084F83F
:103DD600020170BD281990F8061101F09F0180F8C4
:103DE600061190F8061141F0800180F8061170BDA9
:103DF60010B504460020C4F20500844207D044F200
:103E06000A70C0F2000040F22D61FCF7FCF9607800
:083E160040F04000607010BD97
:103E1E0038B504460020C4F2050084420D4607D092
:103E2E0044F20A70C0F2000040F26761FCF7E7F955
:043E3E00257038BDF6
:103E42002DE9F04182B09846164604460020C4F29D
:103E520005008442089D0F4607D044F20A70C0F262
:103E6200000040F63611FCF7D0F9A7F110004FEA36
:103E720030100F2807D344F20A70C0F2000040F657
:103E82003E11FCF7C2F93F09F608622215F4005F01
:103E920012BF6425632266254FF0010C2046394685
:103EA2004346CDF800C0FEF785FD4FF0020C2046D8
:103EB20039462A463346CDF820C002B0BDE8F0416B
:043EC200FEF778BDD2
:103EC60070B5144605460020C4F2050085420E462C
:103ED60007D044F20A70C0F2000040F67331FCF7D6
:103EE60092F94FF0FF3000EB36100F280AD2A819CE
:103EF60090F80211C9071AD100F58170240A0470DE
:103F0600002070BD4FEA361048B144F20A70C0F284
:103F1600000040F67B31FCF776F9002EE7D195F8E4
:103F26000201800703D405F581703044E7E74FF0BE
:043F3600FF3070BD2B
:103F3A0070B5164604460020C4F2050084420D46B8
:103F4A0007D044F20A70C0F2000040F6BB31FCF719
:103F5A0058F94FF0FF3000EB35100F2817D2B00494
:103F6A000BD4281990F80611C9071EBF90F806113C
:103F7A0041F0100180F8061170BD04F58170415DB1
:103F8A00C907F9D0295C41F00801295470BD4FEAEC
:103F9A00351048B144F20A70C0F2000040F6C3314D
:103FAA00FCF72FF9002DDAD194F802018007E3D04B
:083FBA00012084F8030170BD31
:083FC200AFF30080FDF723F9C5
:083FCA00EFF3108072B670479E
:083FD200EFF3108062B67047A6
:103FDA00C36823F4807323F00103C3600B0E0360EC
:103FEA0001F0FF03090A01F0FF0143F4007341F4F1
:083FFA00007143608160704713
:0840020083690B4383617047E1
:04400A004162704758
:04400E0000207047D7
:0440120000207047D3
:0440160000207047CF
:04401A0000207047CB
:04401E0000207047C7
:0440220000207047C3
:1040260010B582B0044600698DF8071078B1D4E95E
:1040360000239A4231D26269531C63618154D4E9E8
:104046000501884229D12046FEF759FE25E0E068A1
:1040560050B1D4E9002C62451FD2531CB3EB0C03BC
:1040660018BF0B46835418E0A06858B1D4E9002C59
:10407600624512D2531CB3EB0C0318BFCBB240F807
:1040860022300AE0236A43B1D4E90001884204D20F
:104096000DF1070120460122984720680130206073
:0440A60002B010BD97
:1040AA0070B514460D46064600F090F901463046B2
:0C40BA002A462346BDE8704000F000B824
:1040C6002DE9F04F03AF8DB047F83C3C91460C46C6
:1040D600064600F05BF80546EB46073020F0070081
:1040E600ADEB0008C546A7F1380A50460021242248
:1040F600FDF785FA47E908546FF0004047F8340C9D
:1041060042F61F50C0F2000047F8288C47E9060621
:104116005046494657F83C2CFDF781F8DD46A7F195
:084126000C04A546BDE8F08F72
:10412E0083B000B582B0CDE9031241F2946CC2F2B5
:10413E00000C059303AA01920146DCF80000FFF77C
:0C414E00ADFF02B05DF804EB03B0704759
:10415A0041F29861C2F2000141F29462C2F2000295
:10416A000968126841F29C63C2F20003411A1B6893
:10417A0018BF0121821A18BF01221140C01A18BFA4
:08418A0001200840404270478B
:044192004020704712
:1041960040F6F860C2F20000032144F27072C0F2E9
:1041A60000020161416141F20E11C2F20001826119
:1041B600C1614FF480610162002181624162C16286
:1041C60041F20E53C2F20003026643661022826673
:1041D6000167C16644F25F72C0F200024167531A7A
:0C41E600DB7B435401311029F9D17047F4
:1041F2002DE9F04104468068E66815466268871B2F
:104202009019BD4204D22A46FDF7C9F935440AE0A5
:1042120088463A46FDF7C3F9ED1B08EB07016068D3
:0C4222002A46FDF7BCF9E560BDE8F0811C
:10422E0070B500EB400040F6F863C2F2000303EBFA
:10423E00C00303F11806D86A022818D00D4614469A
:10424E00012807D020B93046FEF76AFDA04207D2FA
:10425E0000240AE03046FEF763FDA04238BF044654
:10426E00304629462246FFF7BDFF204670BD304638
:08427E00BDE87040FEF75FBDD2
:1042860041F2E40CC2F2000CDCF800304BB170B520
:104296000F305C6820F0070E0025744503D11846E0
:1042A60015E00020704700214A1E0025744588BF8E
:1042B6000125944280414642186835421CBF194682
:1042C600224668B1446874451D460346EDD1002D6B
:1042D60001680CBFCCF80010296040F808EB70BDEF
:1042E6000029FCD04B68A2EB0E000844A3EB0E029B
:0442F6004A60F2E741
:1042FA0020B350F8081CCA0718BF21F00100E8B122
:10430A0010B541F2E402C2F200020146D2F800E01E
:10431A00BEF1000F51F808CD11D08E45734615D263
:10432A001A461B681C0018BF012401D08B42F7D320
:10433A0040F804CD40F8043C11600EE0704711606B
:10434A00C1F800E01068C0F804C010BD40F804CD00
:10435A00012440F804EC116000225CB101EB0C046A
:10436A009C4201BFD3F804C004686444046004BFDB
:10437A001B680B608E45E8D25368D4188C42E4D18E
:0C438A000068184450600868106010BD06
:10439600EFF3108072B6B0FA80F041F2D001C2F2AB
:0843A6000001400908607047A6
:1043AE0041F2D000C2F20000006800B162B6704760
:1043BE0010B50446FFF7E8FF2046FFF75DFF044601
:0843CE00FFF7EEFF204610BDD1
:1043D60041F2E000C2F200000068002804BF41F28A
:0843E6008060C2F20000704784
:1043EE007F280BD844F67002C0F2000244F2DA7352
:1043FE00C0F20003105C595C084070470020704703
:0C440E00A0F161011A2938BF2038704766
:0C441A00A0F141011A2938BF2030704782
:104426007F280BD844F67002C0F2000244F2DA7319
:10443600C0F20003105C595C0840704700207047CA
:0C444600A0F161011A2938BF203870472E
:0C445200A0F141011A2938BF203070474A
:10445E0070B541F2C406C2F200060C46326805463B
:10446E008AB11F2A16D841F22000C2F2000040F88D
:10447E00225040F6A070C2F2000040F82240501CBC
:10448E003060002070BD42F66960C0F20000FEF799
:0C449E00E4FB08B1012070BD3268E2E7C9
:1044AA0070B582B004460078BFF35F8F08B100246C
:1044BA0025E044F6F001C0F2000101A8FEF727FD4D
:1044CA006078810711D541F2C805C2F2000541F2B0
:1044DA00CC06C2F2000640F004006070284631465D
:1044EA00FFF79AFD60788107F5D401281CBF0221E5
:1044FA006170441E18BF012401A800F003F8204689
:04450A0002B070BDCE
:10450E0010B5044641F2CC00C2F20000FFF77CFD6C
:10451E0008B9204610BD216844F22360C0F20000A5
:04452E00FEF798FC00
:1045320041F2C000C2F200000068BFF35F8F704713
:04454200FEF74EBC76
:04454600FFF7FCBFC0
:07454A006563686F6F6E00EE
:074551006563686F666600F8
:10455800090243000201008032090400000102023E
:1045680001000524001001052401010104240202B0
:104578000524060001070581031000010904010054
:10458800020A000000070582024000010705020236
:03459800400001DF
:10459B004A616E75617279004665627275617279F6
:1045AB00004D6172636800417072696C004D6179F6
:1045BB00004A756E65004A756C79004175677573B5
:1045CB00740053657074656D626572004F63746F30
:1045DB00626572004E6F76656D626572004465634D
:0745EB00656D6265720000BE
:0745F200414D00504D000097
:0F45F900256120256220256520255420255900A5
:104608002573206661696C656420746F206163712D
:0B46180075697265206D75746578008F
:104623002573206661696C656420746F2072656C04
:0B46330065617365206D75746578008B
:10463E002573206661696C656420746F2062726FE9
:07464E0061646361737400F5
:10465500736861646F775F636F756E74312025646D
:024665000A0049
:10466700736861646F775F636F756E74322025645A
:024677000A0037
:0246790003003C
:10467B001201000200000040470502100001010278
:02468B00030129
:0A468D00525868616E646C6572009B
:1046970053756E646179004D6F6E6461790054756E
:1046A7006573646179005765646E65736461790049
:1046B7005468757273646179004672696461790040
:0A46C700536174757264617900009C
:0246D1004300A4
:0246D3002E00B7
:1046D5006261645F66756E6374696F6E5F63616C5A
:1046E5006C20776173207468726F776E20696E2015
:1046F5002D666E6F2D657863657074696F6E7320B6
:054705006D6F6465000A
:10470A002F686F6D652F416E647265772F446F63F2
:10471A00756D656E74732F53454747455220456D35
:10472A006265646465642053747564696F205072AD
:10473A006F6A656374732F5374656C6C6172697305
:10474A00576172652F6472697665726C69622F753A
:05475A0073622E6300F4
:10475F000000000000005454522052454747455373
:01476F000049
:094770005465726D696E616C0004
:09477900256D2F25642F25790020
:0947820025483A254D3A25530063
:10478B0053756E004D6F6E00547565005765640070
:0D479B005468750046726900536174000097
:1047A8004A616E00466562004D6172004170720098
:1047B8004D6179004A756E004A756C004175670055
:1047C800536570004F6374004E6F76004465630054
:0147D80000E0
:0147D90000DF
:0D47DA00000703200417020108571040805B
:1047E7006261645F616C6C6F6320776173207468CA
:1047F700726F776E20696E202D666E6F2D657863F8
:0D480700657074696F6E73206D6F646500DD
:04481400010100009E
:044818008D0100000E
:04481C00CD020000C9
:04482000D11E0000A5
:08482400ED2E0000032F00003F
:0C482C00434D4420303D2025640D0A005F
:0C483800434D4420313D2025640D0A0052
:084844004353202564200A0003
:04484C00434D440094
:1048500030313233343536373839414243444546B6
:1048600030313233343536373839616263646566E6
:1048700020202020202020202068282828282020D0
:104880002020202020202020202020202020202028
:1048900048101010101010101010101010101010E0
:1048A0008484848484848484848410101010101080
:1048B00010818181818181010101010101010101D9
:1048C000010101010101010101010110101010108D
:1048D00010828282828282020202020202020202AA
:1048E0000202020202020202020202101010102052
:1048F0005F5F6378615F67756172645F6163717543
:044900006972650073
:104904005F5F6378615F67756172645F72656C6530
:044914006173650066
:1049180000B506480649884205D00268043003B449
:10492800904703BCF7E708BC18470000144800008C
:044938002C48000007
:10493C00654A00000000002021150000774A0000A5
:10494C002415002064490000860100008915000030
:08495C00194900001B120000C4
:10496400DD0881CC05820182CC02820382CC0482E0
:104974008582CC81828282CC838284829B010101E4
:104984008805020101020188020201030201880470
:1049940002018502018881020182020188830201E9
:1049A4008402019B030103890203050201880102B9
:1049B40001020201880302010402018885020181C7
:1049C400020188820201830201B8840201059980F0
:1049D400068106B9820607B980080999810A010B84
:1049E40099820CA101F9210ABB0102992120A1217C
:1049F400C921220D27CCDF38F338CC07391B39CC39
:104A04002F394339CC57396B39CC7F399339CCA7FB
:104A140039BB39CCCF39E339CCF7390B3ACC1F3A0F
:104A2400333ACC473A5B3ACC6F3A833ACC973AABB9
:104A34003ACCBF3AD33ACCE73AFB3ACC0F3B233BD0
:104A4400CC373B6416CC64166416CC6416641644E6
:104A5400D41020D81020C4DC1020A1202B02020086
:104A6400206861680834002200E04254491EFCD5E5
:024A7400704789
:104A760020686168A2680C340B78491C082600255A
:104A86005B0801D20D78491C0570401C521E02D0ED
:084A9600761EF4D1F0E7704731
:0400000300003FC3F7
:00000001FF
