:10000000006000206F3100006F1F0000710D0000C4
:10001000711F0000731F0000751F0000000000002A
:10002000000000000000000000000000771F00003A
:10003000791F0000000000007B1F00007D1F0000F2
:0C0040000000000000000000D7210000BC
:10004C0080B541F24400C2F200000078C007BFF353
:10005C005F8F26D141F24400C2F2000003F07DF91B
:10006C00F8B1002040F20041C2F20001002200BFB2
:10007C008B181832B2F5A56F1861F9D140F2B100A6
:10008C00C0F2000040F20002C0F20002002103F0B6
:10009C003EF941F24400C2F20000BDE8084002F013
:0400AC002AB808BDA9
:1000B00010B540F20044C2F2000404F5A56000BF90
:0C00C000183802F006F9A042FAD110BD79
:0C00CC0000000000000000007F22000087
:1000D80080B541F24400C2F200000078C007BFF3C7
:1000E8005F8F26D141F24400C2F2000003F037F9D5
:1000F800F8B1002040F20041C2F20001002200BF26
:100108008B181832B2F5A56F1861F9D140F23D107D
:10011800C0F2000040F20002C0F20002002103F029
:10012800F8F841F24400C2F20000BDE8084001F0CE
:04013800E4BF08BD5B
:10013C0010B540F20044C2F2000404F5A56000BF03
:0C014C00183802F0C0F8A042FAD110BD33
:1001580041F23402C2F20002106041F23000C2F2F1
:080168000000016000BFFDE78B
:1001700070B58CB004460025C4F2050540F2D401E8
:10018000C0F2000140F8041F40F6B421C0F20001A3
:10019000CDE9061406AE0A9631462A4602F06FF8FB
:1001A0000A98B04202D028B1142100E01021026860
:1001B0005158884740F6D820C0F20000CDE900042D
:1001C0006E460496002141F25800C2F2000000BFC2
:1001D0000A4650F82110B1F5A02F02F10101F7D124
:1001E00002EB420040F20041C2F2000101EBC0000C
:1001F000314602F066F90498B04202D028B11421C9
:1002000000E010210268515888470120C2F2100016
:1002100000F014FE00F0F6FF3C2000F0D5FD28466B
:1002200040F2FF3101F00DFD28460F2101F034FDB1
:1002300028464FF0FF3102F088FD2846012101F0E9
:1002400056FD40F60F61CFF60371284601F0BEFC63
:0C025000284602F0A6FE20460CB070BD4F
:10025C002DE9F041C2B090460E46044640F2FF70C4
:10026C0041F21001421CA4F800280023C4F8043801
:10027C00C4F80808C4F80C0865186252C5E90130C6
:10028C00E86040F6FC20C0F20000CDE93C0441F2ED
:10029C0028003CAF20444097394602F090F9409832
:1002AC00B84202D028B1142100E010210268515844
:1002BC008847C5E9116840F62030C0F20000CDE94E
:1002CC00360436AE3A9640F64045C2F20005284652
:1002DC00314601F0CBFA3A98B04202D028B1142141
:1002EC0000E0102102685158884740F64430C0F2B3
:1002FC000000CDE9300430AE349605F5227031465D
:10030C0001F0B4FA3498B04202D028B1142100E0C4
:10031C00102102685158884740F66830C0F200003E
:10032C00CDE92A042AAD2E9540F62840C2F20000F1
:10033C00294601F09BFA2E98A84202D028B114212C
:10034C0000E0102102685158884742F20017C0F2B1
:10035C00200740F68C30C0F20000CDE9240424AD17
:10036C002895002141F25806C2F2000607F500302C
:10037C000A4656F82110814202F10101F8D102EB34
:10038C00420040F20048C2F2000808EBC0002946C7
:10039C0002F091F82898A84202D028B1142100E06C
:1003AC00102102685158884740F6B030C0F2000066
:1003BC00CDE91E041EAD2295002100BF084656F85B
:1003CC002110B94200F10101F8D100EB400008EB1B
:1003DC00C000294602F06FF82298A84202D028B13A
:1003EC00142100E0102102685158884740F6D4309F
:1003FC00C0F20000CDE9180418AD1C95002107F5DA
:10040C00C03000BF0A4656F82110814202F10101AA
:10041C00F8D102EB420008EBC000294602F04BF881
:10042C001C98A84202D028B1142100E010210268C7
:10043C005158884740F6F830C0F20000CDE912045C
:10044C0012AD1695002100BF084656F82110B1F5E3
:10045C00102F00F10101F7D100EB400008EBC000B8
:10046C00294602F028F81698A84202D028B1142187
:10047C0000E0102102685158884740F20227C0F270
:10048C00010740F61C40C0F20000CDE90C040CAD95
:10049C001095002107F17F000A4656F82110814281
:1004AC0002F10101F8D102EB420008EBC000294631
:1004BC0002F001F81098A84202D028B1142100E0F3
:1004CC00102102685158884740F64040C0F20000A5
:1004DC00CDE9060406AD0A95002107F1800000BFA6
:1004EC000A4656F82110814202F10101F8D102EBC3
:1004FC00420008EBC000294601F0DDFF0A98A84233
:10050C0002D028B1142100E010210268515888470C
:10051C0040F66440C0F20000CDE900046D4604953D
:10052C00002100BF084656F82110B94200F1010124
:10053C00F8D100EB400008EBC000294601F0BBFFEE
:10054C000498A84202D028B1142100E010210268BE
:0C055C0051588847204642B0BDE8F081AD
:1005680041F24000C2F200000178C90719D1012107
:100578000170002040F62841C2F20001002200BFAD
:100588008B181832B2F5347F1861F9D140F2AD50AA
:10059800C0F2000040F20002C0F20002002102F0A6
:0405A800B8BE704722
:1005AC0010B540F62844C2F2000404F5347000BFC4
:0C05BC00183801F0CCFFA042FAD110BDAD
:1005C80038B5040019D040F62845C2F2000500BF2E
:1005D80094FAA4F0B0FA80F0C0F12E01102838BFC8
:1005E800411E01EB410005EBC0000169002918BF5D
:0C05F80001F0F2F8601E0440EAD138BDAA
:1006040070B582B0B0F5D06F12DB0A4642F2200119
:1006140088423DDCB0F5D06F00F0E780B0F5106F94
:1006240000F0828040F62121884240F0E98025E1F3
:10063400B0F5817F59DB00F0CB80B0F5407F65D009
:10064400B0F5A06F40F0DC800021CDE9001141F24B
:100654005800C2F2000000BF0A4650F82110B1F55C
:10066400A02F02F10101F7D102EB420040F2004158
:10067400C2F2000101EBC0000169002900F0FE8014
:1006840041F23802C2F20002694601F0A0F8F5E036
:100694000131884200F0BF8042F2A11188426BD040
:1006A40042F22121884240F0AB80002141F25800FF
:1006B400C2F2000042F20012C0F222020B4650F8CD
:1006C4002110914203F10101F8D103EB430040F200
:1006D4000041C2F2000101EBC0000169002941D0D0
:1006E40041F23802C2F2000236E0082809D0B0F51F
:1006F400807F40F0858041F24800C2F2000080789B
:100704000BE002B0BDE8704001F048B841F2480087
:10071400C2F200008078022861D0012840F2000073
:10072400C4F2050021D05DE0002141F25800C2F27C
:10073400000000BF0B4650F82110B1F5102F03F153
:100744000101F7D103EB430040F20041C2F2000182
:1007540001EBC000016929B141F24801C2F2000174
:1007640001F035F80020C4F205000122002102B096
:10077400BDE8704001F0C6BB0021CDE9001141F293
:100784005800C2F200004AF20012C0F2210200BF77
:100794000B4650F82110914203F10101F8D103EB0B
:1007A400430040F20041C2F2000101EBC0000169C4
:1007B40031B141F23802C2F20002694601F007F891
:1007C4000020C4F205000021012201F09BFB55E04A
:1007D40041F24800C2F200004188002950D00020B4
:1007E400C4F205000021002210E041F24801C2F2E7
:1007F40000018A78C878897901F02BFE00283DD160
:100804000020C4F2050000214FF4005202B0BDE8FC
:10081400704002F030BB41F25404C2F2000414F8F8
:10082400020C002200285BD042F20010C0F220002B
:1008340041F25801C2F20001134651F822208242CB
:1008440003F10102F8D103EB430040F20041C2F28C
:10085400000101EBC000016931B141F24801C2F26B
:100864000001224600F0B3FF0020C4F2050000217D
:100874000122002501F046FB04F8025C02B070BDC1
:100884000079802839DD832878D0822800F0AA8076
:10089400812840F0F3800024C4F20504204610218E
:1008A4004FF4005202F02BFB204610214FF400526B
:1008B40002F0B3FA012001F0BCFD0021CDE90011E2
:1008C40041F25800C2F2000040F28122C0F201025B
:1008D4000B4650F82110914203F10101F8D16EE06A
:1008E400012004F8020C41F24800C2F20000C3885F
:1008F40023800020C4F2050038E7012800F0AD8011
:10090400022840F0BB800024C4F2050420462021C4
:100914000022002502F0F3FA20462021002202F0F2
:100924007CFA022001F085FDCDE9005541F2580022
:10093400C2F2000040F20221C0F201012A4650F83E
:10094400253001358B42F9D102EB420040F20041DF
:10095400C2F2000101EBC000016931B141F2380279
:10096400C2F20002694600F032FF20460021012253
:1009740001F0C8FA20462021002226E70024C4F210
:100984000504204630214FF4005202F0B8FA204604
:1009940030214FF4005202F040FA0021CDE9001159
:1009A40041F25800C2F2000040F28322C0F2010278
:1009B4000B4650F82110914203F10101F8D103EBE9
:1009C400430040F20041C2F2000101EBC0000169A2
:1009D400002940D041F23802C2F20002694600F018
:1009E400F6FE38E00024C4F20504022001F021FDE3
:1009F400204620214FF4005202F00FFA0021CDE9E5
:100A0400001141F25800C2F2000040F28222C0F20A
:100A140001020B4650F82110914203F10101F8D173
:100A240003EB430040F20041C2F2000101EBC000BD
:100A3400016931B141F23802C2F20002694600F0A4
:100A4400C6FE204620214FF4005202F058FA40F628
:100A54008C2001F097FA2046B5E600F5813000229B
:100A6400CDE9002241F25801C2F20001134651F8C7
:100A74002220824203F10102F8D190E60020C4F260
:040A84000500B0E6D3
:100A880000000000000000001D1A0000EB15000027
:100A98001F230000572300005F1600009716000070
:040AA800BB16000079
:100AAC0000000000000000001D1A00007B17000071
:100ABC00672300009F2300008117000083170000AC
:040ACC008917000086
:100AD0000000000000000000911B0000EF17000064
:100AE000132500004B250000F5170000F717000044
:040AF000FD170000EE
:100AF4000000000000000000151800001718000096
:100B040077250000AF2500001D1800001F18000005
:040B1400BF250000F9
:100B180000000000000000001D1A00003919000044
:100B2800232600005B2600003F1900004119000041
:040B38004719000059
:100B3C0000000000000000001D1A0000F719000062
:100B4C006B260000A3260000FD190000FF19000011
:040B5C00051A000076
:100B600000000000000000001D1A00001F1A000015
:100B70000F27000047270000251A0000271A000051
:040B80002D1A00002A
:100B84000000000000000000911B0000731A000028
:100B9400572700008F270000791A00007B1A0000F5
:040BA4009F27000087
:100BA8000000000000000000911B0000931A0000E4
:100BB800B7270000EF270000991A00009B1A0000D1
:040BC800FF27000003
:100BCC000000000000000000911B0000B31A0000A0
:100BDC00132800004B280000B91A0000BB1A0000B3
:040BEC00C11A00002A
:100BF0000000000000000000911B0000D91A000056
:100C000083280000BB280000DF1A0000E11A000062
:040C1000E71A0000DF
:100C14000000000000000000911B0000511B0000B8
:100C24001F29000057290000571B0000591B000012
:040C3400672900002C
:100C38000000000000000000911B0000711B000074
:100C480077290000AF290000771B0000791B0000FE
:040C5800BF290000B0
:100C5C000000000000000000911B0000931B00002E
:100C6C00DF290000172A0000991B00009B1B0000C5
:040C7C00272A000023
:100C80004A2A00005A2A00006A2A00007A2A000034
:100C900010B540F62814C2F2000404F5407000BFFD
:0C0CA000183801F05AFCA042FAD110BD37
:100CAC00F8B51D46144606460020C4F205008642DF
:100CBC000F4607D043F2DF40C0F2000040F64C2153
:100CCC00FFF744FA4FF0FF3000EB37100F2819D222
:100CDC0007F58370805BC00702D12860C043F8BD64
:100CEC00F019B0F808012968814238BF084628601D
:100CFC0038B106F12001BA08535C04F8013B013805
:100D0C00FAD1F8BD4FEA371048B143F2DF40C0F2D8
:100D1C00000040F65421FFF719FA002FD8D14FF4F8
:040D2C008170D7E714
:100D300002000000010000000100000001000000AE
:100D4000010000000100000001000000010000009F
:100D5000010000000100000001000000010000008F
:100D6000010000000100000001000000010000007F
:100D700008490A68002AFED41EF0040F0CBFEFF3E6
:100D80000880EFF3098042F000420A608169023175
:080D9000816170472CED00E0C9
:100D9800094B0A4A70B51C689442144609D01D686C
:100DA80000235E59E6500433B3F51B7FF9D1024B9B
:100DB8001A6044F8201070BD08ED00E00000002023
:100DC800042804D1134B1A6842F4803205E0052840
:100DD80005D1104B1A6842F400321A607047062891
:100DE80004D10C4B1A6842F48022F6E70F2804D18C
:100DF800094B1A6842F00202EFE70AD91038074B8C
:100E0800420953F8223000F01F00012212FA00F0C4
:100E18001860704724ED00E010E000E0280E0000A4
:100E280000E100E004E100E008E100E00CE100E09E
:040E380010E100E0E5
:100E3C0000F07043B3F1704F15D100F47F42114BA9
:100E4C00120A00F0FF00D318800003F0704240F04B
:100E5C00007023F07F43104323F4700340EA4313E4
:100E6C0001221A607047020F81B200F4F810000CD6
:100E7C0011FA00F0044B53F822301A681043186032
:0C0E8C00704700BF00E60F40801200001D
:100E9800054B18B11A6842F0006202E01A6822F0A5
:0C0EA80000621A60704700BF60E00F405D
:100EB400534B2DE9F0411A68044612F0E04F06D076
:100EC4001A68504B02EA0303B3F1805F02D1002C8D
:100ED400C0F294804C494D4A0B68166843F4006391
:100EE40023F4800546F4006613F0020F0D601660CB
:100EF40002D014F0020F05D015F0010F1AD014F02F
:100F0400010F17D164F003031D403F4B002E1D60F9
:100F140005DA06F07003302B05D0702B02E005F0E3
:100F24003003302B02D14FF4805001E04FF4002005
:100F340001F028F804F4FE6325F4FE6545EA03088D
:100F4400334D26F0004604EA050526F0700645EA0E
:100F5400060604F0080546EAC5052C4F2A4E102063
:100F6400C6F800803D6001F00DF828F4405804F400
:100F74000052284904F4405325F4005548EA030379
:100F840040201543244A086052BF33603D603360FB
:100F940023F0F86304EA020223F0030358BF3D6020
:100FA400134304F0FC5125F0FC5214F0804F42EA44
:100FB400010208D0194922F4800204EA010143F431
:100FC40080030A4301E022F0804214F4006F0CD144
:100FD4004FF400411248006810F0400F01D101396C
:100FE400F8D123F4006322F40062074910200B6057
:100FF400064B1A60BDE8F04100F0C4BFBDE8F081C3
:1010040000E00F400000FF7060E00F4070E00F4010
:101014003000008058E00F400300C007000040404B
:0410240050E00F4049
:10102800694B70B51A6810331B68002BB4BF03F006
:10103800700102F0300120293AD004D869B1102992
:1010480040F0C08010E060295DD0702958D0302968
:1010580040F0B88047F2305063E002F4F8605B4932
:10106800800951F820005CE05949086810F0E04F09
:101078004CD00C68574804EA0000B0F1805F45D0B6
:101088000C68544804EA0000534CA04203D1096894
:1010980089B202293CD04E484E49046804EA01014D
:1010A8004E4CA14236D100684D4980B24D4C22E0E9
:1010B8004749086810F0E04F2ED00C68454804EA0C
:1010C8000000B0F1805F27D00C68424804EA0000B5
:1010D800414CA04203D1096889B202291ED03C487C
:1010E8003C49046804EA01013C4CA14218D100685B
:1010F8003D493E4C80B200280CBF2046084610E00F
:101108004FF400400DE04FF480000AE0384808E052
:10111800344806E0324804E0364802E0334800E04C
:101128003148002B02DA13F4006F01E012F4006F6B
:101138002AD13149264D09682C6814F0E04F43F64E
:10114800E07401EA040406D02E68224D06EA05057B
:10115800B5F1805F06D16409023401F01F056043D0
:10116800023505E06409604301F01F0501356D0093
:10117800B0FBF5F011F4804F18BF400811F4004F90
:1011880018BF800842F4800212F4800F1BD0002B95
:1011980011DA13F0804F07D013F4006F04D103F075
:1011A800FE5340009B0D02E003F0FC53DB0D0133BE
:1011B800B0FBF3F070BD02F0F062D20D0132B0FB6B
:1011C800F2F070BD002070BD60E00F401412000006
:1011D80000E00F400000FF70000001100000031045
:1011E8000024F400001BB70000093D00C0C62D0014
:0C11F800C0E1E4007038390064E00F40F2
:10120400024B1A6822F480421A60704770E00F4063
:1012140040420F0000201C0080841E000080250036
:10122400999E36000040380000093D0000803E00D1
:1012340000004B00404B4C0000204E00808D5B00B2
:1012440000C05D000080700000127A0000007D0084
:1012540080969800001BB7000080BB00C0E8CE0059
:10126400647ADA000024F4000000FA0080A8120175
:0C127400002D310100366E0140787D0134
:0C12800000E10F4004E10F4008E10F40C6
:10128C0010B50023074AD90052F83340844202D1EA
:10129C005218506810BD01330C2BF3D14FF0FF30B6
:0812AC0010BD00BFB4120000E8
:1012B400000003402300000000100340250000004C
:1012C40000200340270000000030034033000000EA
:1012D4000040034056000000005003406C00000032
:1012E400006003406E0000000070034070000000C6
:1012F40000C004407200000000D0044074000000EC
:1013040000E004407600000000F004407800000093
:10131400034C206804348047FBE700F03FF8FEE705
:04132400C8350000C8
:0413280000000000C1
:10132C0003480449091A08B500F0B1FE0CBC184773
:08133C00B8110020B8190020CF
:101344005AB3844690EA01039B071FD1830707D051
:1013540011F8013B00F8013B521EF7D11CE0844612
:10136400203A09D32DE9F007B1E8F807A0E8F80717
:10137400203AF9D2BDE8F0071C3205D451F8043BF9
:1013840040F8043B121FF9D2043205D011F8013B96
:0C13940000F8013B521EF9D16046704782
:1013A00010B4ADF5875D85B040F24050C0F2C0107A
:1013B000FFF780FD0120FFF76FFDFFF735FE0DF110
:1013C000100E0EF58354204600F013F800F0BDF81F
:1013D0000DF1040E0EF58350FEF7CAFE04F128014C
:1013E00004F178026846FEF739FF00F0C8FD00BF3F
:0213F000FEE716
:1013F20070B586B004460025C4F2030540F24800E9
:10140200C0F200002060201D0121012200F06EFFC9
:101412000620207544F24026C0F20F06A66104F1B0
:101422001C0001210A2200F061FF04F12C000121BD
:10143200642200F05BFF04F13C0001214FF47A7258
:1014420000F054FF04F14C00012142F2107200F04E
:101452004DFF04F15C0048F2A062C0F201020121DA
:1014620000F044FF04F16C000121324600F03EFF1F
:10147200002084F87C000120C1F21000FFF7DDFC9F
:101482002846FF2100F082FD2846222101F076FE47
:10149200A2682846FF2100F082FD40F69020C0F2AB
:1014A2000000CDE900046E460496204631462A46E5
:1014B200FF2300F08FFE0498B04202D028B114211D
:1014C20000E0102102685158884728460121012670
:1014D20001F06CFE2846012101F064FE204684F8EA
:0614E2007C6006B070BD45
:1014E80070B504460025C4F20305284601210126EB
:1014F80000F07DFDC00723D02846012101F053FEEE
:10150800207D2674E0B141F23C0EC2F2000EA369C0
:10151800DEF800C004F11C02012100BF9668BCFB84
:10152800F6F404FB16C646B916681173F51A18BF07
:101538000CF10105CEF80050AC4610320138EDD15F
:0215480070BD74
:10154A0038B5044690F87D00012811D194F87C0042
:10155A0001280DD10025C4F203052846FF2100F019
:10156A0011FD2846012100F03CFD002084F87D0091
:02157A0038BD7A
:10157C0070B516460546914238BF0E46402E40F2D5
:10158C000004C4F2050417D3204600212A46402348
:10159C0000F0B0F80130F7D0204600214FF48172F2
:1015AC0001F061FD0130F7D04035A6F1400071B279
:1015BC004029064601DAE7E73046C6B2204600214C
:1015CC002A46334600F096F80130F7D02046002129
:0E15DC004FF4857201F047FD0130F7D070BD6D
:0615EA00082101F009BF19
:1015F00070B516460546914238BF0E46402E40F261
:101600000004C4F2050417D3204600212A464023D3
:1016100000F076F80130F7D0204600214FF48172B7
:1016200001F027FD0130F7D04035A6F1400071B23E
:101630004029064601DAE7E73046C6B220460021D7
:101640002A46334600F05CF80130F7D020460021EE
:0E1650004FF4857201F00DFD0130F7D070BD32
:02165E007047D3
:1016600038B505680024C4F2050420460021002294
:1016700000F04AFC94F80201C006FBD541F2480094
:10168000C2F20000807800F07F01204601F09DFC4E
:061690000220287038BDA5
:06169600082101F0B3BEC3
:10169C00F8B5140009D00D460646274615F8011B6F
:0E16AC00304600F0C2F8013FF8D12046F8BDEC
:0616BA004068FFF714BFB9
:1016C000002040F62811C2F2000100228B181832C7
:1016D000B2F5407F1861F9D140F69140C0F20000A8
:0E16E00040F20002C0F20002002101F016BE2E
:1016EE0002460068116018B19168C90001F082BE0F
:0216FE00704733
:10170000F8B51C46154606460020C4F20500864280
:101710000F4607D043F2DF40C0F200004FF43261C1
:10172000FEF71AFD4FEA3710102806D240F6305166
:10173000C0F2000151F820000BE043F2DF40C0F29C
:10174000000040F62831FEF707FD0120002F08BFFA
:101750000220F11991F80211084202D04FF0FF3037
:10176000F8BD44B106F12000B90800BF15F8012BFF
:0A1770000A54013CFAD10020F8BD34
:06177A00082101F041BE50
:021780007047B0
:06178200082101F03DBE4C
:06178800406800F010BEF5
:10178E0002460068116018B19168C90001F032BEBE
:02179E00704792
:1017A00038B541F24805C2F2000543F29644AA79E1
:1017B000C0F2000420460221FFF7E0FEAB790020D2
:1017C000C4F205000021224601B0BDE83040FFF719
:0217D00097BFC1
:0E17D200006910B103689B69184700F059FECA
:0E17E000006910B101688969084700F052FEE7
:0617EE00082101F007BE16
:0217F40070473C
:0617F600082101F003BE12
:0617FC000430FFF72FBFCF
:1018020002460068116018B19168C90001F0F8BD84
:0218120070471D
:0218140070471B
:06181600082101F0F3BD02
:02181C00704713
:06181E00082101F0EFBDFE
:1018240002460068116018B19168C90001F0E7BD73
:021834007047FB
:10183600D0F80838B0F8002801339342002228BFB8
:101846001346C0F80838C154D0F80838D0F80C1838
:10185600994208D1B0F800380131994238BF0A469A
:10186600C0F80C287047D0F804180131C0F80418E5
:021876007047B9
:1018780030B587B004466D46284600F0B8FE2146CC
:1018880000F00DF80498A84202D028B1142100E015
:0E1898001021026851588847204607B030BD25
:1018A60081420CD0B0B584B00C4605460069096982
:1018B600A84205D0A14210D02961206137E07047C7
:1018C6000268A142D26815D021469047286901686E
:1018D600096988472069286128E00868C2680846BF
:1018E6002946904720690168096988472869206167
:1018F6002D611CE069469047286901680969884797
:1019060000272F6120690168CA6829469047206927
:10191600016809698847276100982D61C268684691
:10192600214690470098016968468847246104B0BB
:02193600B0BD42
:06193800082101F062BD70
:02193E007047F0
:06194000082101F05EBD6C
:06194600406800F009B842
:10194C0002460068116018B19168C90001F053BDDE
:02195C007047D2
:10195E0038B504460025C4F205052846202101F0BD
:10196E0033FA02462846202100F0D5F941F2420111
:10197E00605A40F0020020F0100220466252BDE88C
:06198E00384000F000B833
:1019940041F24202815A0B0600D4704770B5861892
:1019A400D6F80620D6F80A0082421ED9141AD6F8B0
:1019B4000210402C28BF40240A180025C4F2050553
:1019C400284620212346FFF799FE284620214FF47C
:1019D400817201F04CFB3088D6F80A1040F01000F8
:1019E40030800819C6F80A0070BD21F080003080EC
:0219F40070BDC4
:0619F600082101F003BD11
:0219FC00704732
:0619FE00082101F0FFBC0E
:061A0400406800F054BE32
:101A0A0002460068116018B19168C90001F0F4BC7F
:021A1A00704713
:021A1C00704711
:061A1E00082101F0EFBCFD
:021A2400704709
:061A2600082101F0EBBCF9
:061A2C00406800F009B85B
:101A320002460068116018B19168C90001F0E0BC6B
:021A42007047EB
:101A440038B504460025C4F205052846102101F0E6
:101A5400C0F902462846102100F062F941F2420022
:0E1A6400215A41F0010121F00801215238BD44
:061A7200082101F0C5BCD3
:021A78007047B5
:061A7A00082101F0C1BCCF
:101A800002460068116018B19168C90001F0B9BC44
:021A900070479D
:061A9200082101F0B5BCC3
:021A9800704795
:061A9A00082101F0B1BCBF
:101AA00002460068116018B19168C90001F0A9BC34
:021AB00070477D
:061AB200082101F0A5BCB3
:021AB800704775
:061ABA00082101F0A1BCAF
:061AC000043000F0CABE74
:101AC60002460068116018B19168C90001F096BC21
:021AD600704757
:061AD800082101F092BCA0
:021ADE0070474F
:061AE000082101F08EBC9C
:061AE600043000F0EFBE29
:101AEC0002460068116018B19168C90001F083BC0E
:021AFC00704731
:101AFE0038B50024C4F205040120A073204610213D
:101B0E0010224FF40853102500F054F9A4F8105188
:101B1E004FF400552046102140220123009501F07C
:101B2E005FFA20460221022500F0DAF82046202135
:101B3E0040224FF40453A57301B0BDE8304000F0CD
:021B4E0039B9A3
:061B5000082101F056BC63
:021B56007047D6
:061B5800082101F052BC5F
:101B5E0002460068116018B19168C90001F04ABCD4
:021B6E007047BE
:061B7000082101F046BC53
:021B76007047B6
:061B7800082101F042BC4F
:101B7E0002460068116018B19168C90001F03ABCC4
:021B8E0070479E
:021B900070479C
:061B9200082101F035BC42
:021B9800704794
:061B9A00082101F031BC3E
:101BA00002460068116018B19168C90001F029BCB3
:021BB00070477C
:101BB20040F62810C2F20000006928B140F6281051
:0A1BC200C2F20000FFF70BBE7047EF
:101BCC0070B504460026C4F20506B0420D4607D097
:101BDC0043F2DF40C0F2000040F24B21FEF7B6FAB0
:101BEC004FF2F010C0F2FC00054207D043F2DF4088
:101BFC00C0F200004FF41371FEF7A8FA15F00F00B5
:101C0C001EBFE1880843E08015F460601EBF218987
:101C1C0041EA10202081280E1EBFE17A0843E072B1
:101C2C00E80344BF0120C4F80804A80344BF012002
:061C3C00C6F8480470BD6B
:101C420070B504460026C4F20506B0420D4607D020
:101C520043F2DF40C0F2000040F29521FEF77BFA2A
:101C6200B5F5806F07D343F2DF40C0F2000040F2C7
:101C72009621FEF770FA28061EBFE07AA843E072AA
:101C8200E80544BF0020C4F80804A80544BF0020AA
:061C9200C6F8480470BD15
:101C980070B504460026C4F20506B0420D4607D0CA
:101CA80043F2DF40C0F200004FF43271FEF750FA01
:101CB800B5F5806F07D343F2DF40C0F2000040F271
:101CC800C921FEF745FA28061EBFE07A2843E072CC
:101CD800E80544BF0120C4F80804A80544BF012052
:061CE800C6F8480470BDBF
:101CEE0038B504460020C4F2050084420D4607D0E4
:101CFE0043F2DF40C0F2000040F27F31FEF725FADA
:101D0E00E0882843E0806FF00100218900EA154049
:061D1E000843208138BDDE
:101D240070B5144605460020C4F2050085420E46EF
:101D340007D043F2DF40C0F2000040F2B541FEF7A5
:101D440009FA4FF0FF3000EB36100F2811D270194A
:101D5400DB2290F8021162EA0402114080F80211B9
:101D640090F80611B32262EA1442114080F8061179
:101D740070BD4FEA361048B143F2DF40C0F20000B4
:101D840040F2BD41FEF7E6F9002EE0D1E0071EBFA8
:101D940095F8020140F0400085F80201E00642BFD8
:101DA40095F8020140F0800085F802016007DFD554
:0E1DB40095F8020100F0FB0085F8020170BDF9
:101DC200F8B51C46154606460020C4F205008642B8
:101DD2000F4607D043F2DF40C0F2000040F2DE714E
:101DE200FEF7B9F9103F4FEA37100F2807D343F235
:101DF200DF40C0F2000040F2E671FEF7ACF9A00449
:101E020007EB060010D4A0F8145104F004012022BC
:101E1200E3064CBF282302EA840343EA41128023EB
:101E22004FF48B77791C10E0A0F81051E10640F2D4
:101E3200131105D404F0090292FAA2F2120E02E082
:101E4200142264F3C71240234F1E14F4407F08BFCC
:0A1E520042F040024254C355F8BDAF
:101E5C002DE9F0411D46164604460020C4F205004B
:101E6C0084420F4606D043F2DF40C0F200007921D5
:101E7C00FEF76CF9DDF81880042F06D343F2DF402F
:101E8C00C0F200007B21FEF761F9B8F1010FA07BD5
:0E1E9C00A77314BF35533555A073BDE8F08110
:101EAA0038B504460020C4F2050084420D4607D026
:101EBA0043F2DF40C0F2000040F60721FEF747F97F
:101ECA004FF0FF3000EB35100F2808D205F583706C
:101EDA00005BC0071CBF6019B0F8080138BD4FEAA3
:101EEA00351048B143F2DF40C0F2000040F60F213E
:0E1EFA00FEF72DF9002DE9D14FF48170E8E7D5
:101F080070B5154604460020C4F2050084420E460A
:101F180007D043F2DF40C0F2000040F6B421FEF7DC
:101F280017F94FF0FF3000EB36100F2807D2A01931
:101F380090F8061101F0FE0180F8061170BD4FEA15
:101F4800361048B143F2DF40C0F2000040F6BC2131
:101F5800FEF7FEF8002EEAD14820002D08BF4020E9
:061F680084F8020170BDC7
:021F6E00FEE78C
:021F7000FEE78A
:021F7200FEE788
:021F7400FEE786
:021F7600FEE784
:021F7800FEE782
:021F7A00FEE780
:021F7C00FEE77E
:0A1F7E0008B501F0F9F8C0B208BD83
:061F88000138FDD1704795
:101F8E00C26840F2011301EA030322EA0303C360AD
:021F9E0070478A
:101FA00011F0FF0F18BF826211F47F4F18BFC26299
:021FB000704778
:101FB20070B50C461546FFF768F914F0FF0F064698
:101FC20005D02946FEF7E7FE3046FEF7FCFE14F484
:101FD2007F4F09D0741C20462946FEF7DCFE2046BE
:0A1FE200BDE87040FEF7EFBE70BDD1
:0A1FEC00836923EA01038361704753
:0A1FF60009B1006A7047C069704726
:1020000041F22830C0F200000468204600F001F8D8
:02201000FBE7EC
:1020120080B505281FD840F6F87CC2F2000C42F2C7
:1020220099035CF82010C0F200034CF82030A9B1EB
:1020320042F29702C0F2000291420CD0994208D0BB
:1020420042F29503C0F20003994207D04CF82030C7
:102052008847002008BD4FF0FF3008BD0120FFF780
:022062005FF924
:1020640041F25603C2F200031A78002A02464FF0E6
:10207400010007D141F2100CC2F2000CCCE900219E
:06208400187000207047F7
:0A208A00014600200022FFF7E8BF26
:02209400704793
:02209600704791
:0220980070478F
:10209A00082907D341F22C02C2F200021060002282
:0620AA00C0E900217047AF
:1020B00010B5044601F011F9204601F0C0F8BDE862
:0620C000104001F016B90A
:0620C600FFF79BFFFEE79F
:1020CC00F8B541F21C04C2F20004206890B140F64D
:1020DC007875C2F2000540F6F866C2F200066FF0A1
:1020EC00030707EB800029583058884720680138CF
:0620FC002060F6D1F8BDE2
:1021020070B582B004460125BFF35F8F057043F2BC
:102112009051C0F2000101A800F02FF866786570B6
:1021220001F052F9700706D541F22000C2F2000018
:1021320001F046F808B902B070BD43F27F40C0F228
:0E214200000043F29051C0F20001FFF7BBFF16
:1021500010B541F22404C2F200040020206001F016
:0621600028F8206010BD0C
:1021660010B541F22004C2F200040020206001F004
:0621760023F8206010BDFB
:10217C0010B50446016041F22400C2F2000001F0E7
:10218C0014F808B9204610BD216843F24940C0F24A
:06219C000000FFF792FFB6
:1021A20080B500F008F800B108BD43F23450C0F227
:0621B2000000FFF787FFAB
:1021B80010B50446012898BF0124204601F09DF877
:0E21C80020B901F010F908B18047F6E710BD0C
:1021D60081B078B51446059305A841F25706C2F2B8
:1021E600000600903278031D1F2A009318D8056850
:1021F60002EB420040F62812C2F2000202EBC000D7
:1022060000F012F8307841F23411C2F2000151F8B0
:10221600202020462946FFF7C9FE3078013030706D
:08222600BDE8784001B07047EB
:10222E0070B50D4604460021002600F011F828690D
:10223E0020B1A84204D020612E6107E0266105E09E
:10224E00246128690168CA6821469047204670BDFE
:10225E0010B5044600690021A042216102D028B1C8
:10226E00142100E01021026851588847204610BD05
:10227E0081B030B582B0144641F25705C2F2000566
:10228E000593287805AA1F28019216D800EB400066
:10229E0040F62812C2F2000202EBC000FFF7C0FFA8
:1022AE00287841F23411C2F2000151F82010204674
:1022BE0000F072FD28780130287002B0BDE8304081
:0422CE0001B07047A4
:1022D20010B504460069A04202D028B1142100E0E2
:0C22E2001021026851588847204610BDAA
:1022EE0070B514460D4606460260FEF796FE4DF694
:1022FE008361C4F21B31A0FB0101880C6843B4FB5F
:10230E00F5F10138C6E9010100213046317370BD87
:10231E0030B585B004460820FFF73CFF05460DF1A9
:10232E001300029001200390606840F69021C0F2E5
:10233E000001C5E900100020019001A80021FFF75F
:08234E00CFF9284605B030BDAF
:1023560040F69022C0F200024068C1E900207047B2
:1023660030B585B004460820FFF718FF05460DF185
:102376001300029001200390606840F6B421C0F279
:102386000001C5E900100020019001A80021FFF717
:08239600FBF9284605B030BD3B
:10239E0040F6B422C0F200024068C1E90020704746
:1023AE00F0B583B040F20211C4F2050104460A787A
:1023BE008DF807208A798DF806200A7A8DF8052087
:1023CE00A1F58175284600F0D3FC060021D0F00758
:1023DE001CD028460021FFF761FDB8B1029041F2F2
:1023EE004807C2F2000702AB284600213A46FEF724
:1023FE0056FC41F25001C2F200018878002806BF57
:10240E003888088008882146FEF7F5F83046FEF732
:10241E00D4F8284600F068FC00F00700012804BF3D
:08242E000020207003B0F0BD96
:1024360038B504010025C4F205052846214600F0FA
:10244600C7FC024628462146BDE83840FFF767BC70
:10245600032815D080B5022808D0012814D1CAB2A5
:1024660043F29840C0F20000122105E0CAB243F2DE
:102476000640C0F200004321FFF7B7F8012008BD6F
:0C248600C9B2104600F008B8002008BDE4
:0C24920043F2AA40C0F20000FFF714BEA5
:10249E0010B50446032809D840F68040C0F200006B
:1024AE000A4650F824001021FFF79BF8042C8041B7
:0424BE00404210BDCB
:1024C20070B50D4604460021002600F011F8286977
:1024D20020B1A84204D020612E6107E0266105E008
:1024E200246128690168CA6821469047204670BD68
:1024F20010B5044600690021A042216102D028B132
:10250200142100E01021026851588847204610BD6E
:1025120030B585B004460820FFF742FE05460DF1AE
:102522001300029001200390606840F6D821C0F2A7
:102532000001C5E900100020019001A80021FFF769
:082542005FF9284605B030BD29
:10254A0040F6D822C0F200024068C1E90020704774
:10255A0010B504460069A04202D028B1142100E057
:0C256A001021026851588847204610BD1F
:1025760030B585B004460820FFF710FE05460DF17C
:102586001300029001200390606840F6FC21C0F21F
:102596000001C5E900100020019001A80021FFF705
:0825A6003EF9284605B030BDE6
:1025AE0040F6FC22C0F200024068C1E900207047EC
:0C25BE004068097800F50160FFF736B9AD
:1025CA0010B50A6904463AB18A4207D01068816890
:1025DA0010468847206107E0226105E02461086906
:0C25EA000168CA6821469047204610BDD9
:1025F60010B50A6904463AB18A4207D01068816864
:1026060010468847206107E0226105E024610869D9
:0C2616000168CA6821469047204610BDAC
:1026220030B585B004460820FFF7BAFD05460DF126
:102632001300029001200390606840F62031C0F23E
:102642000001C5E900100020019001A80021FFF758
:082652007CF9284605B030BDFB
:10265A0040F62032C0F200024068C1E9002070470B
:10266A0030B585B004460820FFF796FD05460DF102
:10267A001300029001200390606840F64431C0F2D2
:10268A000001C5E900100020019001A80021FFF710
:08269A00B7F9284605B030BD78
:1026A20040F64432C0F200024068C1E9002070479F
:1026B20030B593B004460025C4F205052846202112
:1026C20000F088FB024628462021FFF72AFB284615
:1026D2002021FFF7E9FB119058B111AB28462021C8
:1026E20001AAFEF7E2FABDF84420204601A9FEF74E
:1026F200D4FF284620210022FFF705FC41F24200C8
:0C270200215A41F00401215213B030BDF7
:10270E0030B585B004460820FFF744FD05460DF1AF
:10271E001300029001200390606840F66831C0F209
:10272E000001C5E900100020019001A80021FFF76B
:08273E0079F9284605B030BD11
:1027460040F66832C0F200024068C1E900207047D6
:1027560030B585B004460820FFF720FD05460DF18B
:102766001300029001200390606840F68C31C0F29D
:102776000001C5E900100020019001A80021FFF723
:082786007CF9284605B030BDC6
:10278E0040F68C32C0F200024068C1E9002070476A
:10279E00897840684FF4825201F00301815400F5AC
:0827AE00825040214180704778
:1027B60030B585B004460820FFF7F0FC05460DF15C
:1027C6001300029001200390606840F6B031C0F219
:1027D6000001C5E900100020019001A80021FFF7C3
:0827E6005CF9284605B030BD86
:1027EE0040F6B032C0F200024068C1E900207047E6
:1027FE004068126800F5815041F24801C2F20001B2
:04280E00FEF799BD7B
:1028120030B585B004460820FFF7C2FC05460DF12D
:102822001300029001200390606840F6D431C0F298
:102832000001C5E900100020019001A80021FFF766
:0828420041F9284605B030BD44
:10284A0040F6D432C0F200024068C1E90020704765
:10285A0010B5006800F581520024C4F20504204630
:10286A0000210723FEF747FF204600214FF4857217
:08287A00BDE8104000F0F8BBBE
:1028820030B585B004460820FFF78AFC05460DF1F5
:102892001300029001200390606840F6F831C0F204
:1028A2000001C5E900100020019001A80021FFF7F6
:0828B2001CF9284605B030BDF9
:1028BA0040F6F832C0F200024068C1E900207047D1
:1028CA0070B51178046803291AD1154641F24200FD
:1028DA00002121520026C4F20506304610214FF489
:1028EA00005200F0FBFB304620214FF4005200F06A
:1028FA00F5FB30462021002200F0F0FB0120286081
:10290A002046FFF7F7F841F24200215A21F40071FC
:04291A00215270BD19
:10291E0030B585B004460820FFF73CFC05460DF1A6
:10292E001300029001200390606840F61C41C0F233
:10293E000001C5E900100020019001A80021FFF759
:08294E0007F9284605B030BD71
:1029560040F61C42C0F200024068C1E90020704700
:10296600406841F24201425A22F00902425270473F
:1029760030B585B004460820FFF710FC05460DF17A
:102986001300029001200390606840F64041C0F2B7
:102996000001C5E900100020019001A80021FFF701
:0829A600EBF8284605B030BD36
:1029AE0040F64042C0F200024068C1E90020704784
:1029BE00406841F21001425A0844511E0022C0E9FB
:1029CE000121C160032180F83010402141867047FB
:1029DE0030B585B004460820FFF7DCFB05460DF147
:1029EE001300029001200390606840F66441C0F22B
:1029FE000001C5E900100020019001A80021FFF799
:082A0E00C8F8284605B030BDF0
:102A160040F66442C0F200024068C1E900207047F7
:102A260040680022B0F800180139C0F8042841F2C5
:102A36004202C0F80818835AC0F80C1823F0240183
:042A46008152704702
:102A4A000403090400000000000000000000000068
:102A5A000E0341006E0064007200650077000000FA
:102A6A000A035400450053005400300000000000DF
:102A7A0010033100320033003400350036003700CD
:102A8A0040F64010C2F200000169002908BF7047F1
:042A9A00FEF7A1BEE4
:102A9E0040F65810C2F200000169002908BF7047C5
:042AAE00FEF797BEDA
:102AB20040F67010C2F200000169002908BF704799
:042AC200FEF78DBED0
:102AC60040F68810C2F200000169002908BF70476D
:042AD600FEF783BEC6
:102ADA0040F6A010C2F200000169002908BF704741
:042AEA00FEF779BEBC
:102AEE0040F6B810C2F200000169002908BF704715
:042AFE00FEF76FBEB2
:102B020040F6D010C2F200000169002908BF7047E8
:042B1200FEF765BEA7
:102B160040F6E810C2F200000169002908BF7047BC
:042B2600FEF75BBE9D
:102B2A0040F60020C2F200000169002908BF704780
:042B3A00FEF751BE93
:102B3E0040F61820C2F200000169002908BF704754
:042B4E00FEF747BE89
:102B520040F63020C2F200000169002908BF704728
:042B6200FEF73DBE7F
:102B660040F64820C2F200000169002908BF7047FC
:042B7600FEF733BE75
:102B7A0040F66020C2F200000169002908BF7047D0
:042B8A00FEF729BE6B
:102B8E0040F67820C2F200000169002908BF7047A4
:042B9E00FEF71FBE61
:102BA20040F69020C2F200000169002908BF704778
:042BB200FEF715BE57
:102BB60040F6A820C2F200000169002908BF70474C
:042BC600FEF70BBE4D
:102BCA0040F6C020C2F200000169002908BF704720
:042BDA00FEF701BE43
:102BDE0040F6D820C2F200000169002908BF7047F4
:042BEE00FEF7F7BD3A
:102BF20040F6F020C2F200000169002908BF7047C8
:042C0200FEF7EDBD2F
:102C060040F60830C2F200000169002908BF70478B
:042C1600FEF7E3BD25
:102C1A0040F62030C2F200000169002908BF70475F
:042C2A00FEF7D9BD1B
:102C2E0040F63830C2F200000169002908BF704733
:042C3E00FEF7CFBD11
:102C420040F65030C2F200000169002908BF704707
:042C5200FEF7C5BD07
:102C560040F66830C2F200000169002908BF7047DB
:042C6600FEF7BBBDFD
:102C6A0040F68030C2F200000169002908BF7047AF
:042C7A00FEF7B1BDF3
:102C7E0040F69830C2F200000169002908BF704783
:042C8E00FEF7A7BDE9
:102C920040F6B030C2F200000169002908BF704757
:042CA200FEF79DBDDF
:102CA60040F6C830C2F200000169002908BF70472B
:042CB600FEF793BDD5
:102CBA0040F6E030C2F200000169002908BF7047FF
:042CCA00FEF789BDCB
:102CCE0040F6F830C2F200000169002908BF7047D3
:042CDE00FEF77FBDC1
:102CE20040F61040C2F200000169002908BF704797
:042CF200FEF775BDB7
:102CF60010B504460020C4F20500844207D043F212
:102D0600DF40C0F2000040F21631FDF722FAA07A49
:102D1600D4F80C14C90707D094F80C1400F5807089
:102D260041F0010184F80C1440F24C41C4F2050153
:102D36000A68D20705D00A6800F5007042F0010261
:042D46000A6010BD52
:102D4A0038B504460020C4F2050084420D4607D077
:102D5A0043F2DF40C0F2000040F25731FDF7F7F9C5
:102D6A00E088A843E0802089012161EA15410840F2
:042D7A00208138BDBF
:102D7E0010B504460020C4F20500844207D043F289
:102D8E00DF40C0F2000040F2AA31FDF7DEF96088A4
:082D9E00A18840EA014010BDCC
:102DA60010B50022C4F2050290420C4607D043F249
:102DB600DF40C0F200004FF47571FDF7CAF93C2000
:102DC6002146FDF7E6FF3C20BDE81040FDF7F9BFC0
:102DD60038B504460020C4F2050084420D4607D0EB
:102DE60043F2DF40C0F2000040F25141FDF7B1F975
:102DF6004FEA3510102807D343F2DF40C0F2000037
:102E060040F25941FDF7A5F96019B0F80211B0F882
:082E1600060141EA004038BD4D
:102E1E0070B5144605460020C4F2050085420E46E4
:102E2E0007D043F2DF40C0F200004FF4AE61FDF771
:102E3E008CF9A6F110004FEA30100F2807D343F299
:102E4E00DF40C0F200004FF4AF61FDF77EF970195C
:102E5E0014F4005F4FF4817108BF0431425C0CBF63
:0C2E6E0042F0800342F04003435470BD6A
:102E7A0070B5164604460020C4F2050084420D4689
:102E8A0007D043F2DF40C0F2000040F2A351FDF741
:102E9A005EF96FF40050064207D043F2DF40C0F2F9
:102EAA00000040F2A451FDF752F94FF0FF3000EB59
:102EBA0035100F280FD2B6F5005F04D1601900F55E
:102ECA008170102103E0281900F58370202102780F
:102EDA001143017070BD4FEA351048B143F2DF402B
:102EEA00C0F2000040F2AC51FDF731F9002DE2D1F9
:082EFA0004F581706021EAE794
:102F020070B5164604460020C4F2050084420D4600
:102F120007D043F2DF40C0F2000040F2E651FDF775
:102F22001AF94FEA3510102807D343F2DF40C0F2F6
:102F3200000040F2EE51FDF70EF96FF40050064228
:102F420007D043F2DF40C0F2000040F2EF51FDF73C
:102F520002F985B1B6F5005F14D1601990F802113B
:102F620001F0CF0180F8021190F8021141F0400106
:102F720080F8021170BD94F8020100F0FB0084F8A1
:102F8200020170BD281990F8061101F09F0180F826
:102F9200061190F8061141F0800180F8061170BD0B
:102FA20010B504460020C4F20500844207D043F263
:102FB200DF40C0F2000040F22D61FDF7CCF86078EE
:082FC20040F04000607010BDFA
:102FCA0038B504460020C4F2050084420D4607D0F5
:102FDA0043F2DF40C0F2000040F26761FDF7B7F844
:042FEA00257038BD59
:102FEE002DE9F04182B09846164604460020C4F200
:102FFE0005008442089D0F4607D043F2DF40C0F221
:10300E00000040F63611FDF7A0F8A7F110004FEAC8
:10301E0030100F2807D343F2DF40C0F2000040F615
:10302E003E11FDF792F83F09F608622215F4005F93
:10303E0012BF6425632266254FF0010C20463946E7
:10304E004346CDF800C0FEF702FF4FF0020C2046BB
:10305E0039462A463346CDF820C002B0BDE8F041CD
:04306E00FEF7F5BEB6
:1030720070B5144605460020C4F2050085420E468E
:1030820007D043F2DF40C0F2000040F67331FDF793
:1030920062F84FF0FF3000EB36100F280AD2A81961
:1030A20090F80211C9071AD100F58170240A047040
:1030B200002070BD4FEA361048B143F2DF40C0F243
:1030C200000040F67B31FDF746F8002EE7D195F877
:1030D2000201800703D405F581703044E7E74FF021
:0430E200FF3070BD8E
:1030E60070B5164604460020C4F2050084420D461B
:1030F60007D043F2DF40C0F2000040F6BB31FDF7D7
:1031060028F84FF0FF3000EB35100F2817D2B00427
:103116000BD4281990F80611C9071EBF90F806119E
:1031260041F0100180F8061170BD04F58170415D13
:10313600C907F9D0295C41F00801295470BD4FEA4E
:10314600351048B143F2DF40C0F2000040F6C3310B
:10315600FCF7FFFF002DDAD194F802018007E3D0D7
:08316600012084F8030170BD93
:08316E00AFF30080FEF7CFF87B
:08317600EFF3108062B6704710
:10317E00C36823F4807323F00103C3600B0E036056
:10318E0001F0FF03090A01F0FF0143F4007341F45B
:08319E0000714360816070477D
:0831A60083690B43836170474C
:0431AE0041627047C3
:0431B2000020704742
:0431B600002070473E
:0431BA00002070473A
:0431BE000020704736
:0431C2000020704732
:0431C600002070472E
:1031CA0041F22C0CC2F2000CDCF800304BB170B5A5
:1031DA000F305C6820F0070E0025744503D11846AD
:1031EA0015E00020704700214A1E0025744588BF5B
:1031FA000125944280414642186835421CBF19464F
:10320A00224668B1446874451D460346EDD1002D37
:10321A0001680CBFCCF80010296040F808EB70BDBB
:10322A000029FCD04B68A2EB0E000844A3EB0E0267
:04323A004A60F2E70D
:10323E0020B350F8081CCA0718BF21F00100E8B1EE
:10324E0010B541F22C02C2F200020146D2F800E0A3
:10325E00BEF1000F51F808CD11D08E45734615D230
:10326E001A461B681C0018BF012401D08B42F7D3ED
:10327E0040F804CD40F8043C11600EE07047116038
:10328E00C1F800E01068C0F804C010BD40F804CDCD
:10329E00012440F804EC116000225CB101EB0C0437
:1032AE009C4201BFD3F804C004686444046004BFA8
:1032BE001B680B608E45E8D25368D4188C42E4D15B
:0C32CE000068184450600868106010BDD3
:1032DA00EFF3108072B6B0FA80F041F22801C2F220
:0832EA00000140090860704773
:1032F20041F22800C2F20000006800B162B67047D5
:1033020010B50446FFF7E8FF2046FFF75DFF0446CD
:08331200FFF7EEFF204610BD9D
:10331A0070B541F21C06C2F200060C463268054638
:10332A008AB11F2A16D840F67870C2F2000040F817
:10333A00225040F6F860C2F2000040F82240501CC9
:10334A003060002070BD42F2CD00C0F20000FEF7EE
:0C335A0097FE08B1012070BD3268E2E768
:1033660070B582B004460078BFF35F8F08B10024C1
:1033760025E043F27C51C0F2000101A8FEF7FBFEF6
:103386006078810711D541F22005C2F2000541F2AD
:103396002406C2F2000640F004006070284631465A
:1033A600FFF70EFF60788107F5D401281CBF0221C4
:1033B6006170441E18BF012401A800F003F82046DE
:0433C60002B070BD24
:1033CA0010B5044641F22400C2F20000FFF7F0FEF5
:1033DA0008B9204610BD216843F26440C0F20000DB
:0433EA00FEF76CFE80
:1033EE0041F21800C2F200000068BFF35F8F704711
:0433FE00FEF757BEC1
:04340200FFF7FCBF15
:1034060009024300020100803209040000010202A1
:103416000100052400100105240101010424020213
:1034260005240600010705810010000109040100BA
:10343600020A000000070582024000010705020299
:0334460040000142
:103449002573206661696C656420746F20616371FE
:0B34590075697265206D757465780060
:103464002573206661696C656420746F2072656CD5
:0B34740065617365206D75746578005C
:10347F002573206661696C656420746F2062726FBA
:07348F0061646361737400C6
:02349600030031
:10349800120100020000004047050210000101026D
:0234A80003011E
:1034AA006261645F66756E6374696F6E5F63616C97
:1034BA006C20776173207468726F776E20696E2052
:1034CA002D666E6F2D657863657074696F6E7320F3
:0534DA006D6F64650048
:1034DF002F686F6D652F416E647265772F446F6330
:1034EF00756D656E74732F53454747455220456D73
:1034FF006265646465642053747564696F205072EB
:10350F006F6A656374732F5374656C6C6172697342
:10351F00576172652F6472697665726C69622F7577
:05352F0073622E630031
:103534006261645F616C6C6F63207761732074688F
:10354400726F776E20696E202D666E6F2D657863BD
:0D355400657074696F6E73206D6F646500A3
:043564004D00000016
:04356800D900000086
:04356C0069050000ED
:04357000C116000080
:08357400512100006721000055
:10357C005F5F6378615F67756172645F61637175CA
:04358C0069726500FB
:103590005F5F6378615F67756172645F72656C65B8
:0435A00061736500EE
:1035A40000B506480649884205D00268043003B4D1
:1035B400904703BCF7E708BC1847000064350000D7
:0435C4007C35000052
:1035C800D53600000000002058100000E736000043
:1035D80058100020F03500005C0100002D13000099
:0835E800A53500001F130000CF
:1035F000DD0881CC05820182CC02820382CC048268
:103600008582CC81828282CC838284829B0101016B
:1036100088050201010201880202010302018804F7
:103620000201850201888102018202018883020170
:103630008402019B03010389020305020188010240
:10364000010202018803020104020188850201814E
:10365000020188820201830201B884020105998077
:10366000068106B9820607B980080999810A010B0B
:1036700099820CA101F9210ABB0102992120A12103
:10368000C92122B31BCC8B2A9F2ACCB32AC72ACCB0
:10369000DB2AEF2ACC032B172BCC2B2B3F2BCC5325
:1036A0002B672BCC7B2B8F2BCCA32BB72BCCCB2BF3
:1036B000DF2BCCF32B072CCC1B2C2F2CCC432C57E3
:1036C0002CCC6B2C7F2CCC932CA72CCCBB2CCF2CB4
:0436D0000CE32C00DB
:1036D400206861680834002200E04254491EFCD589
:0236E40070472D
:1036E60020686168A2680C340B78491C08260025FE
:1036F6005B0801D20D78491C0570401C521E02D091
:08370600761EF4D1F0E77047D4
:040000030000316F59
:00000001FF
