:1000000000600020A5430000DF2B00006D0D000004
:10001000E12B0000E32B0000E52B000000000000B6
:10002000000000000000000000000000E72B0000BE
:10003000E92B000000000000EB2B0000ED2B00007E
:100040000010001000000540020000002000000029
:1000500040000000040000000021000082000000B9
:100060000300000000000000002000000000054028
:10007000020000002000000040000000000004001A
:10008000000100000200000003000000000000006A
:10009000000000000000054001000000100000000A
:1000A000100000000200000000220000810000009B
:0C00B00001000000000000000020000023
:0400BC000000000040
:1000C00000000540000000000000000040000000AB
:1000D0000000000000030000800000003C00000061
:1000E000FF0300000F0000000F0E03FF01000000DF
:0400F00001001020DB
:0C00F40000000000000000008930000047
:1001000080B541F24020C2F200000078C007BFF382
:100110005F8F26D141F24020C2F2000004F0B6FB0E
:10012000F8B1002040F20041C2F20001002200BFFD
:100130008B181832B2F5A56F1861F9D140F265102D
:10014000C0F2000040F20002C0F20002002104F000
:1001500077FB41F24020C2F20000BDE8084002F007
:0401600029BF08BDEE
:1001640010B540F20044C2F2000404F5A56000BFDB
:0C017400183803F005F8A042FAD110BDC5
:0C01800000000000000000003131000011
:10018C0080B541F24020C2F200000078C007BFF3F6
:10019C005F8F26D141F24020C2F2000004F070FBC8
:1001AC00F8B1002040F20041C2F20001002200BF71
:1001BC008B181832B2F5A56F1861F9D140F2F11015
:1001CC00C0F2000040F20002C0F20002002104F074
:1001DC0031FB41F24020C2F20000BDE8084002F0C1
:0401EC00E3BE08BDA9
:1001F00010B540F20044C2F2000404F5A56000BF4F
:0C020000183802F0BFFFA042FAD110BD78
:10020C0041F22C22C2F20002106041F22820C2F20C
:08021C000000016000BFFDE7D6
:1002240030B58DB0044640F28811C0F2000140F8A8
:10023400041F40F63C41C0F20001CDE9061406ADAE
:100244000A950022C4F20502294602F06FFF0A98BB
:10025400A84202D028B1142100E0102102685158AC
:10026400884740F66040C0F20000CDE900046D46C6
:100274000495002141F27860C2F200000A4650F869
:100284002110B1F5A02F02F10101F7D102EB4200D8
:1002940040F20041C2F2000101EBC000294603F024
:1002A40003FA0498A84202D028B1142100E01021D6
:1002B40002685158884740F2C000C0F2000002F0C2
:0802C4008BFA20460DB030BD9D
:1002CC0041F23820C2F200000178C90719D101218E
:1002DC000170002040F62841C2F20001002200BF4C
:1002EC008B181832B2F5347F1861F9D140F2113005
:1002FC00C0F2000040F20002C0F20002002104F043
:04030C0099BA7047E3
:1003100010B540F62844C2F2000404F5347000BF62
:0C032000183803F097FBA042FAD110BD82
:10032C0041F23C20C2F200000178C90719D1012129
:10033C000170002040F6F861C2F20001002200BFFB
:10034C008B182032B2F5A07F9861F9D141F6355067
:10035C00C0F2000040F20002C0F20002002104F0E2
:04036C0069BA7047B3
:10037000F8B514460D460646287840B3252808D01F
:1003800001358DF8030030460DF1030101F0E3FC67
:10039000F2E76878722809DC58280BD0642814D159
:1003A00054F8041B304602F03BFF0EE0732807D0E0
:1003B00078280AD154F8041B304601F0D3FC04E03D
:1003C00054F8041B304601F0F9FC0235D4E7F8BDBF
:1003D00070B504460025C4F2030528460121012614
:1003E00002F04FFCC0071CD02846012103F0FEFF9D
:1003F000217E6068267591B104F12002E369B4465C
:100400009668B0FBF6F505FB16062EB9166882F85D
:100410000CC0F61A08BF304610320139F0D1013055
:04042000606070BDEB
:100424002DE9F84F5FEA020970D0834641F2726009
:10043400C2F20000884604784FF0000A41F2626577
:10044400C2F2000541F27366C2F20006032C59D8C9
:1004540018F80A70DFE804F0021E0E16432F30D09D
:100464005846394601F0AEFE41F27260C2F2000015
:10047400047847E0442F11D144F643502880AF70EC
:10048400032439E03078232F0ED100242C5401F0BA
:1004940005FD31E04D2F0ED102242EE058464321B4
:1004A40001F090FE4D2107E00E2812D2411C31705C
:1004B4002F54032426E04321584601F083FE432FA2
:1004C40001D1012419E05846394601F07BFE00248D
:1004D40013E044464FF0000815F80810584601F0A0
:1004E40071FE307808F101088045F5D3432FA0460A
:1004F40014BF0024012400BF347041F27260C2F2C0
:10050400000004700AF1010ACA459FD1BDE8F88FC2
:100514002DE9F04190B0044642F21400215800291C
:1005240041D0271897F82C00032803D02046032134
:1005340002F0C0FFF88DC00635D43A6841F21000CD
:100544002518402A13D300BF28466946402201F0EB
:1005540075FC804620466946424601F062FF3A68CF
:100564003F2AF1D822B95FEA88600BD01BE04AB178
:100574002846694601F062FC02462046694601F0BD
:1005840050FF10E040F24404C0F200042046002171
:1005940002F0BEFF20464FF4817101F0A0FFF88DF8
:0C05A40040F01000F88510B0BDE8F081B8
:1005B00038B5040019D040F62845C2F2000500BF46
:1005C00094FAA4F0B0FA80F0C0F12E01102838BFE0
:1005D000411E01EB410005EBC0000169002918BF75
:0C05E00002F0E1F8601E0440EAD138BDD2
:1005EC0030B583B041F24424C2F20004B0F5D06FB0
:1005FC00A2783ADB0B4642F22001884253DCE578C4
:10060C00B0F5D06F00F08C80B0F5086F00F08880EA
:10061C00B0F5106F40F08E81002141F27860C2F28B
:10062C00000000BF0A4650F82110B1F5102F02F15E
:10063C000101F7D102EB420040F20041C2F200018D
:10064C0001EBC000016931B141F24421C2F2000159
:10065C001A4602F09BF80020C4F20500002101228A
:10066C0003B0BDE8304002F081BAB0F5817F51DBB8
:10067C0000F09C80B0F5407F5ED0B0F5A06F40F0EC
:10068C0059810021CDE9001141F27860C2F20000DD
:10069C000A4650F82110B1F5A02F02F10101F7D153
:1006AC0002EB420037E10131884200F08A8042F2CD
:1006BC00A11188424ED042F22121884240F03A8169
:1006CC00002141F27860C2F2000042F20012C0F246
:1006DC00220200BF0B4650F82110914203F1010198
:1006EC00F8D103EB430040F20041C2F2000101EBF0
:1006FC00C000016949B141F24421C2F2000141F24A
:10070C003022C2F2000202F041F840F2C000C0F206
:10071C00000019E008280AD0B0F5807F0ED009E15E
:10072C00A179284603B0BDE8304003F01FBA03B0EE
:10073C00BDE8304003F002BA022A39D0012A40F257
:10074C00C000C0F2000037D1012103B0BDE8304039
:10075C0001F0C6BE0021CDE9001141F27860C2F271
:10076C0000004AF20012C0F2210200BF0B4650F802
:10077C002110914203F10101F8D103EB430040F247
:10078C000041C2F2000101EBC000016931B141F23C
:10079C003022C2F20002694601F0F8FF40F2C000BC
:1007AC00C0F20000012101F09BFEC3E06088E0B3C1
:1007BC0040F2C000C0F2000003B0BDE8304001F0D0
:1007CC00E0BF41F25025C2F2000515F8020C0028DA
:1007DC0047D0002242F20010C0F2200041F27861B2
:1007EC00C2F20001134651F82220824203F10102A9
:1007FC00F8D103EB430040F20041C2F2000101EBDF
:10080C00C000016931B141F24421C2F200012A4613
:10081C0001F0BCFF40F2C000C0F20000012101F069
:10082C005FFE002005F8020C84E02079802823DD8F
:10083C00832838D0822849D08128B9D10021CDE92C
:10084C00001141F27860C2F2000040F28122C0F245
:10085C0001020B4650F82110914203F10101F8D12D
:10086C0057E0012005F8020CE2882A8040F2C00013
:10087C00C0F20000002168E701283AD0022897D185
:10088C000021CDE9001141F27860C2F2000040F283
:10089C000222C0F201020B4650F82110914203F1E2
:1008AC000101F8D135E00021CDE9001141F2786069
:1008BC00C2F2000040F28322C0F201020B4650F853
:1008CC002110914203F10101F8D122E00021CDE980
:1008DC00001141F27860C2F2000040F28222C0F2B4
:1008EC0001020B4650F82110914203F10101F8D19D
:1008FC000FE000F581300022CDE9002241F2786151
:10090C00C2F20001134651F82220824203F1010287
:10091C00F8D103EB430040F20041C2F2000101EBBD
:10092C00C000016931B141F23022C2F200026946C5
:08093C0001F02CFF03B030BDF7
:1009440070B51546914238BF0D46402D04461AD362
:1009540040F2C006C0F2000630462146402202F0B2
:10096400D7FD0130F8D000BF30464FF4817101F05B
:10097400B6FD0130F8D04034A5F1400069B24029F9
:100984000546E9DB00E02846C5B240F2C006C0F2E5
:10099400000600BF304621462A4602F0B9FD013068
:1009A400F8D040F2C004C0F2000400BF20464FF467
:0C09B400857101F094FD0130F8D070BD99
:1009C00070B51546914238BF0D46402D04461AD3E6
:1009D00040F2C006C0F2000630462146402202F036
:1009E00099FD0130F8D000BF30464FF4817101F01D
:1009F00078FD0130F8D04034A5F1400069B24029BB
:100A00000546E9DB00E02846C5B240F2C006C0F268
:100A1000000600BF304621462A4602F07BFD013029
:100A2000F8D040F2C004C0F2000400BF20464FF4EA
:0C0A3000857101F056FD0130F8D070BD5A
:100A3C00000000000000000067270000B71D000048
:100A4C007D320000B5320000E31D00003B1E0000AB
:040A5C006B1E00000D
:100A600000000000000000006F1F00008B1F00004E
:100A700075330000AD330000CB1F0000FB1F0000EA
:040A80007B200000D7
:100A8400000000000000000067270000CB220000E7
:100A9400153400004D340000D1220000D3220000A0
:040AA400D922000053
:100AA8000000000000000000672700002D23000060
:100AB8005D34000095340000332300003523000026
:040AC8003B230000CC
:100ACC00000000000000000067270000F724000071
:100ADC002135000059350000FD240000FF240000E2
:040AEC0005250000DC
:100AF00000000000000000005F2500003F2500000E
:100B0000E1350000193600004525000047250000AA
:040B10002936000082
:100B140000000000000000005F25000061250000C7
:100B2400553600008D360000672500006925000059
:040B34009D360000EA
:100B38000000000000000000B5270000812500002B
:100B4800FD360000353700008725000089250000A4
:040B5800453700001D
:100B5C000000000000000000B5270000A1250000E7
:100B6C005D37000095370000A7250000A92500007F
:040B7C00711F0000E5
:100B80000000000000000000B5270000C1250000A3
:100B9000A5370000DD370000C7250000C92500008B
:040BA000CF2500005D
:100BA4000000000000000000B5270000E725000059
:100BB400153800004D380000ED250000EF25000039
:040BC400F525000013
:100BC8000000000000000000B52700001726000004
:100BD80029390000613900001D2600001F26000089
:040BE80025260000BE
:100BEC000000000000000000B52700006726000090
:100BFC0071390000A93900006D2600006F26000035
:040C0C007526000049
:100C10000000000000000000B5270000EF260000E3
:100C2000B9390000F1390000F5260000F726000070
:040C3000FD2600009D
:100C34000000000000000000672700006927000092
:100C4400713A0000A93A00006F27000071270000E4
:040C540077270000FE
:100C58000000000000000000B5270000B7270000D2
:100C6800D93B0000113C0000BD270000BF27000051
:040C7800C52700008C
:100C7C00803C0000903C0000A03C0000B03C000018
:100C8C0010B540F62814C2F2000404F5407000BF01
:0C0C9C00183802F0D9FEA042FAD110BDB9
:100CA800F8B51D46144606460020C4F205008642E3
:100CB8000F4607D044F63930C0F2000040F64C2108
:100CC800FFF7A0FA4FF0FF3000EB37100F2819D2CA
:100CD80007F58370805BC00702D12860C043F8BD68
:100CE800F019B0F808012968814238BF0846286021
:100CF80038B106F12001BA08535C04F8013B013809
:100D0800FAD1F8BD4FEA371048B144F63930C0F28D
:100D1800000040F65421FFF775FA002FD8D14FF4A0
:040D28008170D7E718
:100D2C0002000000010000000100000001000000B2
:100D3C0001000000010000000100000001000000A3
:100D4C000100000001000000010000000100000093
:100D5C000100000001000000010000000100000083
:100D6C0008490A68002AFED41EF0040F0CBFEFF3EA
:100D7C000880EFF3098042F000420A608169023179
:080D8C00816170472CED00E0CD
:100D9400094B0A4A70B51C689442144609D01D6870
:100DA40000235E59E6500433B3F51B7FF9D1024B9F
:100DB4001A6044F8201070BD08ED00E00000002027
:100DC400042804D1134B1A6842F4803205E0052844
:100DD40005D1104B1A6842F400321A607047062895
:100DE40004D10C4B1A6842F48022F6E70F2804D190
:100DF400094B1A6842F00202EFE70AD91038074B90
:100E0400420953F8223000F01F00012212FA00F0C8
:100E14001860704724ED00E010E000E0240E0000AC
:100E240000E100E004E100E008E100E00CE100E0A2
:040E340010E100E0E9
:100E380000F07043B3F1704F15D100F47F42114BAD
:100E4800120A00F0FF00D318800003F0704240F04F
:100E5800007023F07F43104323F4700340EA4313E8
:100E680001221A607047020F81B200F4F810000CDA
:100E780011FA00F0044B53F822301A681043186036
:0C0E8800704700BF00E60F407C12000025
:100E9400054B18B11A6842F0006202E01A6822F0A9
:0C0EA40000621A60704700BF60E00F4061
:100EB000534B2DE9F0411A68044612F0E04F06D07A
:100EC0001A68504B02EA0303B3F1805F02D1002C91
:100ED000C0F294804C494D4A0B68166843F4006395
:100EE00023F4800546F4006613F0020F0D601660CF
:100EF00002D014F0020F05D015F0010F1AD014F033
:100F0000010F17D164F003031D403F4B002E1D60FD
:100F100005DA06F07003302B05D0702B02E005F0E7
:100F20003003302B02D14FF4805001E04FF4002009
:100F300001F067FE04F4FE6325F4FE6545EA03084C
:100F4000334D26F0004604EA050526F0700645EA12
:100F5000060604F0080546EAC5052C4F2A4E102067
:100F6000C6F800803D6001F04CFE28F4405804F4BF
:100F70000052284904F4405325F4005548EA03037D
:100F800040201543244A086052BF33603D603360FF
:100F900023F0F86304EA020223F0030358BF3D6024
:100FA000134304F0FC5125F0FC5214F0804F42EA48
:100FB000010208D0194922F4800204EA010143F435
:100FC00080030A4301E022F0804214F4006F0CD148
:100FD0004FF400411248006810F0400F01D1013970
:100FE000F8D123F4006322F40062074910200B605B
:100FF000064B1A60BDE8F04101F003BEBDE8F08188
:1010000000E00F400000FF7060E00F4070E00F4014
:101010003000008058E00F400300C007000040404F
:0410200050E00F404D
:10102400694B70B51A6810331B68002BB4BF03F00A
:10103400700102F0300120293AD004D869B1102996
:1010440040F0C08010E060295DD0702958D030296C
:1010540040F0B88047F2305063E002F4F8605B4936
:10106400800951F820005CE05949086810F0E04F0D
:101074004CD00C68574804EA0000B0F1805F45D0BA
:101084000C68544804EA0000534CA04203D1096898
:1010940089B202293CD04E484E49046804EA010151
:1010A4004E4CA14236D100684D4980B24D4C22E0ED
:1010B4004749086810F0E04F2ED00C68454804EA10
:1010C4000000B0F1805F27D00C68424804EA0000B9
:1010D400414CA04203D1096889B202291ED03C4880
:1010E4003C49046804EA01013C4CA14218D100685F
:1010F4003D493E4C80B200280CBF2046084610E013
:101104004FF400400DE04FF480000AE0384808E056
:10111400344806E0324804E0364802E0334800E050
:101124003148002B02DA13F4006F01E012F4006F6F
:101134002AD13149264D09682C6814F0E04F43F652
:10114400E07401EA040406D02E68224D06EA05057F
:10115400B5F1805F06D16409023401F01F056043D4
:10116400023505E06409604301F01F0501356D0097
:10117400B0FBF5F011F4804F18BF400811F4004F94
:1011840018BF800842F4800212F4800F1BD0002B99
:1011940011DA13F0804F07D013F4006F04D103F079
:1011A400FE5340009B0D02E003F0FC53DB0D0133C2
:1011B400B0FBF3F070BD02F0F062D20D0132B0FB6F
:1011C400F2F070BD002070BD60E00F40101200000E
:1011D40000E00F400000FF70000001100000031049
:1011E4000024F400001BB70000093D00C0C62D0018
:0C11F400C0E1E4007038390064E00F40F6
:10120000024B1A6822F480421A60704770E00F4067
:1012100040420F0000201C0080841E00008025003A
:10122000999E36000040380000093D0000803E00D5
:1012300000004B00404B4C0000204E00808D5B00B6
:1012400000C05D000080700000127A0000007D0088
:1012500080969800001BB7000080BB00C0E8CE005D
:10126000647ADA000024F4000000FA0080A8120179
:0C127000002D310100366E0140787D0138
:0C127C0000E10F4004E10F4008E10F40CA
:1012880010B50023074AD90052F83340844202D1EE
:101298005218506810BD01330C2BF3D14FF0FF30BA
:0812A80010BD00BFB0120000F0
:1012B0000000034023000000001003402500000050
:1012C00000200340270000000030034033000000EE
:1012D0000040034056000000005003406C00000036
:1012E000006003406E0000000070034070000000CA
:1012F00000C004407200000000D0044074000000F0
:1013000000E004407600000000F004407800000097
:10131000034C206804348047FBE700F065FAFEE7E1
:04132000644D000018
:101324002DE9F04F87B017468B4680460020C8F859
:1013340000000DF1060A1BF8011B252906D000291F
:1013440000F08681404603F05DF8F4E70025594635
:101354001BF8010B5E28FAD0672813DC262805DC6D
:10136400202809D0232832D1802009E0272805D05D
:101374002B282CD1202003E0402001E04FF4004032
:101384000543E4E76B2806DD6C280DD0742818BFEC
:101394007A2805D01BE068280BD06A2817D10235BB
:1013A40001F1020B487812E048786C2809D1023523
:1013B40003E04878682807D1083501F1030B8878E1
:1013C40005E001F1020B02E001F1020B0435622891
:1013D40021DDA0F1630115294FF00009ABD8DFE846
:1013E40011F026001700160016001600160017004C
:1013F400160016001600160029003600E700160035
:1014040016003B0016004D0016001600210092E75E
:1014140045F4804532E0252873D0582840F02981CE
:1014240045F40055290623D44FF0000926E017F8A7
:10143400041B87E757F8040B2907D8F8001000F1BC
:101444000581AA0754BF0160C0E9001973E72906A2
:10145400302202EAE17911E057F8046B317800296F
:101464003FF469AF404602F0CDFF16F8011FF6E7DE
:1014740043F25809782808BF43F27809690404D470
:10148400A90709D4391D00260CE0A90713D439464D
:1014940051F8047BFE1714E0F91D21F0070707F14A
:1014A40008017E686A073F6814D415F0080F13D04A
:1014B4000026FFB210E0F91D21F007014E6851F833
:1014C400087B0091690709D429070AD547F3C01698
:1014D4007FB206E0BFB20026009119E047F3C036A0
:1014E4003FB2002E06DBA90610D4690610D54FF0D2
:1014F40020090DE000217F4261EB06064FF02D0923
:1015040006E04046252102F07DFF14E74FF02B0949
:1015140000246E2821DD6F38092800F27880DFE886
:1015240000F00550767676762276765057EA0600F5
:1015340069D0F80840EA4670062262F3DF070AF829
:101544000470013450EAD6014FEAD6064FEAD001BE
:10155400074641EA4670F0D159E0582831D0642852
:1015640018BF692853D157EA06004CD0280407D580
:1015740004F00300032802BF2C200AF804000134FD
:10158400384631460A22002300F07CFD00EB80023D
:10159400A7EB4202B7F10A0376F1000342F03002EE
:1015A4000AF8042004F1010407460E46DED22EE0B8
:1015B4003846232150F8047B0090280601EAE0799C
:1015C400002657EA06001ED044F67840C0F2000018
:1015D400A9045CBF44F68840C0F20000390941EA1E
:1015E4000671002407F00F020F46825C0AF80420FB
:1015F400013451EA16114FEA16164FEA171141EA5F
:101604000671EFD103E030208DF806000124B9F112
:10161400FF0F06D94FEA1921404602F0F3FE009F5E
:1016240003E0B9F1000F009F03D04046494602F0A1
:10163400E9FE012CFFF67FAE661E40461AF806103E
:1016440002F0E0FE012C3446F6D874E6017072E62E
:10165400D8F80C0028B1D8E9001291423CBF00220E
:101664004254404601F0D7FBD8F8000007B0BDE86B
:10167400F08F00287FF45FAE404601F0CCFB4FF0C2
:04168400FF30F3E759
:1016880003480449091A08B501F027FC0CBC18479F
:081698000018002000200020D2
:1016A0005AB3844690EA01039B071FD1830707D0F2
:1016B00011F8013B00F8013B521EF7D11CE08446B3
:1016C000203A09D32DE9F007B1E8F807A0E8F807B8
:1016D000203AF9D2BDE8F0071C3205D451F8043B9A
:1016E00040F8043B121FF9D2043205D011F8013B37
:0C16F00000F8013B521EF9D16046704723
:1016FC0000220B0011001A0084465AB3830704D051
:10170C0000F8011B521EF9D124E0C9B241EA0121B3
:10171C0041EA0141202A11D3203A2DE9F0030B466E
:10172C000C460D460E460F4688468946A0E8FA033D
:10173C00203AFBD2BDE8F00320320BD0042A05D3AB
:10174C0040F8041B121F05D0042AF9D200F8011B23
:08175C00521EFBD160467047EC
:0C176400BA4A0000901700007017000047
:10177000D1470000F1470000FD4700000948000084
:1017800029480000354800006B2F0000392F000069
:10179000BC4A0000084C0000084C0000084C000047
:1017A000084C0000084C0000084C0000084C0000E9
:1017B000084C0000084C0000FFFFFFFFFFFFFFFF89
:1017C000FFFFFFFFFFFF0000804A0000BA4B000050
:1017D000B0490000D74B0000074A0000A84B0000AA
:0817E000B14B00000E4A0000AD
:1017E80030B4ADF5035D8EB001F002FA40F240501E
:1017F800C0F2C010FFF758FB0120FFF747FB01209C
:10180800C2F21000FFF714FB0DF1340E0EF501556E
:10181800284600F034F800F070FA05F12C0105F1C3
:101828007C0204AC204600F0ABF801A8FEF7F6FCF9
:1018380001F0D9F9284601F0AFFC42F2280025183A
:1018480041F23427C2F2000744F62C18C0F200080F
:10185800002600BF204601F0C1FC0DF5005090F8AD
:10186800B0000128F6D13A68501C38602846414635
:0E18780001F0C6FC0DF5005080F8B060EAE704
:1018860070B586B004460025C4F2030540F2FC009C
:10189600C0F20000206004F108000A210A2201F0CB
:1018A600D2FC0620207649F28066C0F29806E661F0
:1018B60004F120000A21642201F0C5FC04F1300085
:1018C6000A214FF47A7201F0BEFC04F140000A21AD
:1018D60042F2107201F0B7FC04F1500048F2A06227
:1018E600C0F201020A2101F0AEFC04F1600044F2EC
:1018F6004022C0F20F020A2101F0A5FC04F170009B
:101906000A21324601F09FFC0020A4F88000012045
:10191600C1F21000FFF78DFA2846FF2101F07AF98F
:101926002846222102F047FDE2682846FF2101F001
:101936007AF940F64420C0F20000CDE900046E4674
:101946000496204631462A46FF2301F09AFB049866
:10195600B04202D028B1142100E01021026851588B
:10196600884728460121012602F03DFD284601212F
:1019760002F035FD00206060204684F8806006B0E5
:0219860070BD32
:101988002DE9F041CEB090460E46044600F5805051
:1019980040F6FF714B1C42F21002E3520027C0E9E7
:1019A8000171C160A518A352C5E90171E96040F64B
:1019B8006820C0F20000CDE9480442F2280048AF90
:1019C80020444C97394601F0F5FC4C98B84202D0B7
:1019D80028B1142100E010210268515888470020DE
:1019E80085F84200C5E91168688640F68C20C0F287
:1019F8000000CDE9420442AE469640F64045C2F2A8
:101A080000052846314600F0FCFB4698B04202D05B
:101A180028B1142100E0102102685158884740F687
:101A2800B020C0F20000CDE93C043CAE409605F57C
:101A38002270314600F0E5FB4098B04202D028B150
:101A4800142100E0102102685158884740F6D4203C
:101A5800C0F20000CDE9360436AD3A9540F628408C
:101A6800C2F20000294600F0CCFB3A98A84202D006
:101A780028B1142100E0102102685158884740F627
:101A8800F820C0F20000CDE9300430AD349544F6BA
:101A98004B10C0F20000294601F010FC3498A8420F
:101AA80002D028B1142100E010210268515888475B
:101AB80040F61C30C0F20000CDE92A042AAD2E956C
:101AC80044F66040C0F20000294601F023FC2E983D
:101AD800A84202D028B1142100E010210268515810
:101AE800884742F20017C0F2200740F64030C0F2A3
:101AF8000000CDE9240424AD2895002141F2786640
:101B0800C2F2000607F500300A4656F82110814255
:101B180002F10101F8D102EB420040F20048C2F2A2
:101B2800000808EBC000294601F0BCFD2898A8422F
:101B380002D028B1142100E01021026851588847CA
:101B480040F66430C0F20000CDE91E041EAD2295B7
:101B5800002100BF084656F82110B94200F10101E2
:101B6800F8D100EB400008EBC000294601F09AFDCF
:101B78002298A84202D028B1142100E0102102685E
:101B88005158884740F68830C0F20000CDE9180463
:101B980018AD1C95002107F5C03000BF0A4656F85D
:101BA8002110814202F10101F8D102EB420008EB59
:101BB800C000294601F076FD1C98A84202D028B141
:101BC800142100E0102102685158884740F6AC30D3
:101BD800C0F20000CDE9120412AD1695002100BF35
:101BE800084656F82110B1F5102F00F10101F7D180
:101BF80000EB400008EBC000294601F053FD1698A1
:101C0800A84202D028B1142100E0102102685158DE
:101C1800884740F20227C0F2010740F6D030C0F2F0
:101C28000000CDE90C040CAD1095002107F17F00F0
:101C38000A4656F82110814202F10101F8D102EB5F
:101C4800420008EBC000294601F02CFD1098A8427C
:101C580002D028B1142100E01021026851588847A9
:101C680040F6F430C0F20000CDE9060406AD0A954E
:101C7800002107F1800000BF0A4656F82110814272
:101C880002F10101F8D102EB420008EBC00029463D
:101C980001F008FD0A98A84202D028B1142100E0FA
:101CA800102102685158884740F61840C0F20000D9
:101CB800CDE900046D460495002100BF084656F89A
:101CC8002110B94200F10101F8D100EB400008EB06
:101CD800C000294601F0E6FC0498A84202D028B1C9
:101CE800142100E01021026851588847204600F06E
:0A1CF80002F920464EB0BDE8F0816D
:101D020038B5044690F88100012811D194F880007A
:101D120001280DD10025C4F203052846FF2100F059
:101D22007BFF2846012100F0A6FF002084F88100F5
:021D320038BDBA
:101D340038B540F6F864C2F2000404F5A07000BFA0
:101D4400A0F12005183801F075FCA5422846F7D10A
:021D540038BD98
:0E1D5600006910B102689269104701F06EFA40
:101D6400F0B585B00446039103A80DF10305294697
:101D7400042200F035F830208DF8130020460DF1D0
:101D84001301FFF7E6FF78208DF813000DF113011E
:101D94002046FFF7DEFF082715F8010B8DF8130026
:101DA40020460DF11301FFF7D4FF013FF4D105B034
:021DB400F0BD80
:061DB600082102F0B6BD99
:101DBC00F8B50C46097869B1054600278DF8031073
:101DCC00013728460DF10301FFF7BFFFF8B2215C84
:061DDC000029F3D1F8BD5F
:021DE200704748
:101DE40001EB4201002301F801391AB3F0B54FF0B9
:101DF400200C6FF01F0E00BFD0E900459E00ACEB35
:101E0400830705FA07F7F4403C431EEB830658BFEB
:101E140025FA06F404F00F04CD1A04F13006092C57
:101E240088BF04F137060133DCB2B4EB420F2E70E5
:061E3400E2D3F0BD70478F
:061E3A00082102F074BD56
:101E4000F8B5044641F20400265866B1964228BF10
:101E5000164642B10D463746204600F0CDFA013F06
:0A1E600005F8010BF8D1B0B2F8BD8F
:061E6A004068FEF7B0BA6B
:101E7000F8B5140009D00D460646274615F8011B93
:0E1E8000304600F0A1F9013FF8D12046F8BD30
:101E8E0002460068116018B19168C90002F045BDA4
:021E9E0070478B
:101EA00070B541F27365C2F2000541F262642878B0
:101EB000C2F200040021215440B10026A019C078CC
:101EC00000F065FF287801368642F7D344F67E207D
:101ED000C0F2000000F073FFE01C00F025F80028BD
:101EE0000CD440F6F861C2F2000101EB401008305A
:0E1EF00000210022BDE8704000F06CBA70BD09
:101EFE0010B540F24404C0F2000404F15000402139
:101F0E0001F077FD0146204601F073FD014604F114
:0A1F1E002800BDE8104001F06CBD82
:101F280041F27461C2F200010B78D3B130B5844636
:101F3800002040F6F86EC2F2000E00BF5EF8201BCB
:101F4800624600BF12F8014B11F8015B14B1AC42B4
:101F5800F8D000E025B101309842EFD14FF0FF30C2
:061F680030BDD8437047B4
:021F6E007047BA
:101F7000406842F220021044072200BF11F8013BE2
:0A1F800000F8013B013AF9D1704767
:061F8A00082102F0CCBCAE
:101F900038B505680024C4F2050440F2C000C0F260
:101FA0000000002100F0A2FA94F80201C006FBD55F
:101FB00041F24420C2F20000807800F07F01204608
:0A1FC00002F01EF90220287038BD5F
:021FCA0070475E
:101FCC00002040F62811C2F2000100228B181832B2
:101FDC00B2F5407F1861F9D140F68D40C0F2000097
:0E1FEC0040F20002C0F20002002102F023BC0D
:061FFA00082102F094BC76
:10200000F8B51C46154606460020C4F20500864277
:102010000F4607D044F63930C0F200004FF4326169
:10202000FEF7F4F84FEA3710102806D240F62C518C
:10203000C0F2000151F820000BE044F63930C0F244
:10204000000040F62831FEF7E1F80120002F08BF1C
:102050000220F11991F80211084202D04FF0FF302E
:10206000F8BD44B106F12000B90800BF15F8012BF6
:0A2070000A54013CFAD10020F8BD2B
:0E207A000978406841F21002104400F0A0B84E
:10208800002B35D129B9B0FBF2FC0CFB12026046DB
:102098007047914215D22DE9F041B2FA82F39A4085
:1020A8009940D3F1200C30FA0CFC51EA0C0198400D
:1020B80000F04EF8280036FA03F200210023BDE8AC
:1020C800F081F0B5B1FBF2FC0CFB1211B2FA82F30D
:1020D8009A409940D3F1200630FA06F631439840E9
:1020E80000F036F8614628003200DA400023F0BDDF
:1020F800F3B5B3FA83FC49085FEA300013FA0CF32E
:10210800DCF1200432FA04F423430CB41A0000F082
:102118001FF80CBC33FA0CF3DCF11F0C35FA0CF584
:1021280018BF6D1E03BCA5FB026705FB0377801B68
:10213800B941904271EB030C05D3821A71EB03038A
:10214800681C0021F0BD02000B0028000021F0BD32
:10215800940D4FF6C2752D02B5FBF4F4D60A761C21
:1021680004FB04F5A5FB0656F64306EB04165508D2
:1021780032BF002777086D1C05FB1677A6FB0747BB
:102188007F0807EBC63714001500E7FB02457F1BE5
:102198004D1C0400E7FB014505FB1206A64284BF5F
:0E21A8006D1EB618964224BF6D1CB61A704705
:1021B60002460068116018B19168C90002F0B1BB0F
:0221C600704760
:1021C80000B500F580524FF4805C936830F80CE05D
:1021D80003F1010C0023F44528BF9C46C2F808C04F
:1021E80000F80C10D2E90210884206D1118801309B
:1021F800884238BF0346D36000BD50680130506044
:0222080000BD17
:10220A0030B587B004466D46284601F0E8F8214605
:10221A0000F00DF80498A84202D028B1142100E079
:0E222A001021026851588847204607B030BD89
:1022380081420CD0B0B584B00C46054600690969E6
:10224800A84205D0A14210D02961206137E070472B
:102258000268A142D26815D02146904728690168D2
:10226800096988472069286128E00868C268084623
:1022780029469047206901680969884728692061CB
:102288002D611CE0694690472869016809698847FB
:1022980000272F6120690168CA682946904720698C
:1022A800016809698847276100982D61C2686846F6
:1022B800214690470098016968468847246104B020
:0222C800B0BDA7
:0622CA00082102F02CBB0C
:0222D000704755
:0622D200082102F028BB08
:0622D800406800F009B8A7
:1022DE0002460068116018B19168C90002F01DBB7A
:0222EE00704737
:1022F00010B5044640F24400C0F2000000F009F8B6
:1023000042F24200215A41F0020121F01001215213
:0223100010BDFE
:1023120010B504460068A16801F077FE0246206805
:0A232200A168BDE8104000F034BBD4
:06232C00082102F0FBBADB
:022332007047F2
:06233400082102F0F7BAD7
:06233A00406800F009B844
:1023400002460068116018B19168C90002F0ECBA49
:022350007047D4
:10235200F0B5A1B0054640F26C04C0F2000420467C
:10236200FFF7D6FF204601F09CF8209078B320AA10
:10237200204610A901F099F8209A284610A9FEF7E4
:1023820050F842F24206AF19A85BC0F3803144F61E
:102392006840C0F2000002F0BAF8A85B40040ED513
:1023A200284669464022FFF74AFD024641F21000E4
:1023B20028446946FFF75BFD2846FEF7AAF8204647
:1023C200002100F092F8388840F00400388021B0F3
:0223D200F0BD5C
:1023D40002B582B08DF8072002A90DF1070200F0C2
:0623E40002F803B000BD89
:0E23EA00006910B103689B69184700F024FFDA
:1023F80000F580520146536800207BB130B5D2E920
:1024080002C415880134AC4238BF2046B0EB0C0535
:0E241800D06018BF5D1E5560085C30BD704777
:102426002DE9F04142F242031446C25A0D46C7183E
:10243600D1061AD4402C264628BF402640F244082E
:10244600C0F2000840462946324601F060F8404690
:102456004FF4817100F042F8388840F01001412CA9
:1024660039800CD340F0900002E042F08000002654
:102476003880C7F80250C7F80640C7F80A60BDE8BA
:02248600F081E3
:1024880070B5044642F241000D46215C26182046EC
:1024980001F024F8B6F8010001070AD43178204683
:1024A80001F01CF8B6F8010040F00800A6F8010099
:1024B80006E02DB140F6D27000F09FFBB6F801009F
:1024C800010709D400F108023178A6F80120204656
:0A24D800BDE8704001F002B870BDCD
:0A24E2000A468168006801F0DEBEC2
:0A24EC000A468168006800F041BB59
:0624F600082102F016BAF5
:0224FC00704727
:0624FE00082102F012BAF1
:06250400406800F009B878
:10250A0002460068116018B19168C90002F007BA62
:02251A00704708
:10251C0010B5044640F29400C0F20000FFF7F3FE41
:10252C0042F24200215A41F0010121F008012152EE
:02253C0010BDD0
:06253E00082102F0F2B9D1
:022544007047DE
:06254600082102F0EEB9CD
:10254C0002460068116018B19168C90002F0E6B942
:02255C007047C6
:02255E007047C4
:06256000082102F0E1B9C0
:022566007047BC
:06256800082102F0DDB9BC
:10256E0002460068116018B19168C90002F0D5B931
:02257E007047A4
:06258000082102F0D1B9B0
:0225860070479C
:06258800082102F0CDB9AC
:10258E0002460068116018B19168C90002F0C5B921
:02259E00704784
:0625A000082102F0C1B9A0
:0225A60070477C
:0625A800082102F0BDB99C
:1025AE0002460068116018B19168C90002F0B5B911
:0225BE00704764
:0625C000082102F0B1B990
:0225C60070475C
:0625C800082102F0ADB98C
:0625CE00043001F00CB91D
:1025D40002460068116018B19168C90002F0A2B9FE
:0225E40070473E
:0625E600082102F09EB97D
:0225EC00704736
:0625EE00082102F09AB979
:0625F400043001F031B9D2
:1025FA0002460068116018B19168C90002F08FB9EB
:02260A00704717
:0A260C008168426A006801F083BE95
:06261600082102F086B964
:02261C00704705
:06261E00082102F082B960
:06262400043000F009B8CB
:10262A0002460068116018B19168C90002F077B9D2
:02263A007047E7
:10263C0010B5006842F2420140F29404425A22F072
:10264C0009024252C0F200042046FFF75CFE20460D
:0A265C000121BDE81040FFF743BF65
:06266600082102F05EB93C
:02266C007047B5
:06266E00082102F05AB938
:06267400043000F009B87B
:10267A0002460068116018B19168C90002F04FB9AA
:02268A00704797
:10268C00F8B5056842F21006AF1940F24404C0F2E6
:10269C0000042046FFF737FE204600F018F82046CD
:1026AC0000F01AF8A85B01380021C7E90110F860A6
:1026BC00032087F830004020788640F68C2000F00C
:0E26CC009AFA20460121BDE8F840FFF709BF49
:0A26DA0081684269006801F02ABD22
:0A26E4008168426A006801F0B3BC8F
:0626EE00082102F01AB9F8
:0226F40070472D
:0626F600082102F016B9F4
:0626FC00043000F009B8F3
:1027020002460068116018B19168C90002F00BB965
:0227120070470E
:1027140070B5056805F5805640F26C04C0F20004FB
:102724002046FFF7F4FD2046FFF7D5FF2046FFF7CC
:10273400D7FF4FF480500021285A0138C6E9011010
:1027440042F242016A5AF06022F0240068522046A4
:102754000121FFF7C9FE20460021BDE87040FFF7C4
:02276400C3BEF2
:022766007047BA
:06276800082102F0DDB8BB
:02276E007047B2
:06277000082102F0D9B8B7
:06277600406801F09EB96D
:10277C0002460068116018B19168C90002F0CEB829
:02278C00704794
:0A278E0081684269006801F08CBC0C
:0E279800006910B103689B69184700F04DFD01
:0E27A600006910B101688969084700F046FD1E
:0227B40070476C
:0627B600082102F0B6B894
:0227BC00704764
:0627BE00082102F0B2B890
:0627C4000430FFF7E3BB47
:1027CA0002460068116018B19168C90002F0A7B802
:0227DA00704746
:1027DC0010B50446006BFEF729FBFEF70BFDE06914
:1027EC00FEF7EAFA2068216A00F05DF82068616A59
:1027FC0000F084F82068A16A01F0BCFB2068E16A53
:10280C0000F0A7F82068A16A00F012F82068BDE873
:06281C00104001F0DBBCDE
:1028220040F62810C2F20000006928B140F62810D4
:0A283200C2F20000FFF7B6BF7047C6
:10283C0070B504460026C4F20506B0420D4607D01A
:10284C0044F63930C0F2000040F24B21FDF7D8FCC1
:10285C004FF2F010C0F2FC00054207D044F63930BC
:10286C00C0F200004FF41371FDF7CAFC15F00F0015
:10287C001EBFE1880843E08015F460601EBF21890B
:10288C0041EA10202081280E1EBFE17A0843E07235
:10289C00E80344BF0120C4F80804A80344BF012086
:0628AC00C6F8480470BDEF
:1028B20070B504460026C4F20506B0420D4607D0A4
:1028C20044F63930C0F2000040F29521FDF79DFC3C
:1028D200B5F5806F07D344F63930C0F2000040F2FC
:1028E2009621FDF792FC28061EBFE07AA843E0720B
:1028F200E80544BF0020C4F80804A80544BF00202E
:06290200C6F8480470BD98
:1029080070B504460026C4F20506B0420D4607D04D
:1029180044F63930C0F200004FF43271FDF772FC12
:10292800B5F5806F07D344F63930C0F2000040F2A5
:10293800C921FDF767FC28061EBFE07A2843E0722C
:10294800E80544BF0120C4F80804A80544BF0120D5
:06295800C6F8480470BD42
:10295E0038B504460020C4F2050084420D4607D067
:10296E0044F63930C0F2000040F27F31FDF747FCEB
:10297E00E0882843E0806FF00100218900EA1540CD
:06298E000843208138BD62
:1029940070B5144605460020C4F2050085420E4673
:1029A40007D044F63930C0F2000040F2B541FDF7DB
:1029B4002BFC4FF0FF3000EB36100F2811D27019AA
:1029C400DB2290F8021162EA0402114080F802113D
:1029D40090F80611B32262EA1442114080F80611FD
:1029E40070BD4FEA361048B144F63930C0F20000E9
:1029F40040F2BD41FDF708FC002EE0D1E0071EBF08
:102A040095F8020140F0400085F80201E00642BF5B
:102A140095F8020140F0800085F802016007DFD5D7
:0E2A240095F8020100F0FB0085F8020170BD7C
:102A3200F8B51C46154606460020C4F2050086423B
:102A42000F4607D044F63930C0F2000040F2DE7182
:102A5200FDF7DBFB103F4FEA37100F2807D344F690
:102A62003930C0F2000040F2E671FDF7CEFBA0045F
:102A720007EB060010D4A0F8145104F00401202240
:102A8200E3064CBF282302EA840343EA411280236F
:102A92004FF48B77791C10E0A0F81051E10640F258
:102AA200131105D404F0090292FAA2F2120E02E006
:102AB200142264F3C71240234F1E14F4407F08BF50
:0A2AC20042F040024254C355F8BD33
:102ACC002DE9F0411D46164604460020C4F20500CF
:102ADC0084420F4606D044F63930C0F2000079210A
:102AEC00FDF78EFBDDF81880042F06D344F6393041
:102AFC00C0F200007B21FDF783FBB8F1010FA07B36
:0E2B0C00A77314BF35533555A073BDE8F08193
:102B1A0038B504460020C4F2050084420D4607D0A9
:102B2A0044F63930C0F2000040F60721FDF769FB90
:102B3A004FF0FF3000EB35100F2808D205F58370EF
:102B4A00005BC0071CBF6019B0F8080138BD4FEA26
:102B5A00351048B144F63930C0F2000040F60F2172
:0E2B6A00FDF74FFB002DE9D14FF48170E8E735
:102B780070B5154604460020C4F2050084420E468E
:102B880007D044F63930C0F2000040F6B421FDF712
:102B980039FB4FF0FF3000EB36100F2807D2A01991
:102BA80090F8061101F0FE0180F8061170BD4FEA99
:102BB800361048B144F63930C0F2000040F6BC2166
:102BC800FDF720FB002EEAD14820002D08BF402049
:062BD80084F8020170BD4B
:022BDE00FEE710
:022BE000FEE70E
:022BE200FEE70C
:022BE400FEE70A
:022BE600FEE708
:022BE800FEE706
:022BEA00FEE704
:022BEC00FEE702
:0A2BEE0008B501F0E0FBC0B208BD1D
:0A2BF80008B501F0D7FBC0B208BD1C
:062C02000138FDD170470E
:102C0800C26840F2011301EA030342EA0303C36006
:022C1800704703
:102C1A00C26840F2011301EA030322EA0303C36014
:022C2A007047F1
:102C2C0011F0FF0F18BF826211F47F4F18BFC26200
:022C3C007047DF
:102C3E0070B50C461546FEF720FB14F0FF0F064646
:102C4E0005D02946FEF79FF83046FEF7B4F814F487
:102C5E007F4F09D0741C20462946FEF794F8204673
:0A2C6E00BDE87040FEF7A7B870BD86
:0A2C7800836923EA010383617047BA
:0A2C820009B1006A7047C06970478D
:102C8C0010B500280C4603DA0A2A01D1012300E012
:0A2C9C00002300F002F8204610BDEE
:102CA60030B5002B8C46E6461EBF2D210EF8011BC3
:102CB60040427346B0FBF2F404FB120101F1300509
:102CC600092988BF01F157058242194603F8015BBD
:102CD6002046EFD90020187008789EF8002001F8E9
:0E2CE60001290EF8010B8E45F6D3604630BD75
:102CF40040F2BC00C0F200000468204600F001F875
:022D0400FBE7EB
:102D060080B505281FD841F2E01CC2F2000C42F63D
:102D16008D535CF82010C0F200034CF82030A9B1A6
:102D260042F68B52C0F2000291420CD0994208D072
:102D360042F68953C0F20003994207D04CF820307E
:102D46008847002008BD4FF0FF3008BD0120FEF780
:022D5600E3FA9E
:102D580041F27163C2F200031A78002A02464FF06A
:102D6800010007D141F2F81CC2F2000CCCE90021A5
:062D7800187000207047F6
:0A2D7E00014600200022FFF7E8BF25
:022D8800704792
:022D8A00704790
:022D8C0070478E
:0E2D8E0041F2E871C2F20001096800F000B8DD
:102D9C0080B50B468DF803000DF1030001210122D3
:102DAC0000F01EF89DF80310002808BF411E0846CD
:022DBC0008BD50
:102DBE0038B541F2E871C2F2000104460D6800F028
:102DCE009FF802462846214600F032F8013004D022
:0E2DDE000A20BDE83840FFF7D3BFC04338BD20
:102DEC00F8B51D4617460C460646184601F0A0FBE2
:102DFC00002803D407FB04F2A24201D20020F8BD44
:0E2E0C002846314600F015F8B0FBF4F0F8BD92
:102E1A0042694AB110B50446036A002B1CBF2169F6
:0A2E2A0098470020606110BD70475A
:0A2E3400436A08460121FFF7D7BFEB
:062E3E00006800F034B84A
:102E44000146C0680A6982426FEA000010449CBFD0
:062E540089680844704784
:102E5A002DE9F843144688460546C7684FF000092D
:102E6A002869F943B8420844A96898BF0844CE1BA8
:102E7A00B04238BF06466868A64228BF264638448C
:102E8A0041463246FEF707FCA868F1190F1A18BF27
:102E9A000F46A41BB144B044EF60E1D14846BDE8F7
:022EAA00F883AB
:102EAC00F8B541F23803C2F2000314461B78002B2C
:102EBC000D46064608BF01F059FBEFF311874FF0A2
:102ECC00200181F3118830462946224601F09AFBF5
:062EDC0087F31188F8BD28
:102EE200082907D341F22422C2F200021060002214
:062EF200C0E90021704759
:102EF80010B5044601F03CFC204601F0EBFBBDE8B0
:062F0800104001F041BC85
:102F0E00017881B10246944652F8043BA3F1013197
:102F1E00994331F07F33F6D019BAB1FA81F10CEB47
:0A2F2E00D101081A70470020704717
:102F380084460020002918BF002A0ED0097848B21C
:102F480000280BD4BCF1000F18BFCCF800100021EA
:102F5800C3E90011002818BF012070476FF0010075
:022F68007047B0
:0E2F6A007F298EBF6FF00100017001207047BB
:062F7800FFF7BCFEFEE7BE
:102F7E00F8B541F20424C2F20004206890B141F287
:102F8E006015C2F2000541F2E006C2F200066FF0D3
:102F9E00030707EB8000295830588847206801380E
:062FAE002060F6D1F8BD21
:102FB40070B582B004460125BFF35F8F057044F6F7
:102FC4002C51C0F2000101A800F02FF8667865705A
:102FD40001F08CFC700706D541F20820C2F2000013
:102FE40001F00CFA08B902B070BD44F65320C0F2E7
:0E2FF400000044F62C51C0F20001FFF7BBFFB5
:1030020010B541F20C24C2F200040020206001F04D
:06301200EEF9206010BD84
:1030180010B541F20824C2F200040020206001F03B
:06302800E9F9206010BD73
:10302E0010B50446016041F20C20C2F2000001F01E
:10303E00DAF908B9204610BD216844F61D20C0F209
:06304E000000FFF792FFF5
:1030540080B500F008F800B108BD44F61640C0F28F
:063064000000FFF787FFEA
:10306A0010B50446012898BF0124204601F093FBBD
:0E307A0020B901F04AFC08B18047F6E710BD0E
:1030880081B078B51446059305A841F27566C2F279
:10309800000600903278031D1F2A009318D805688F
:1030A80002EB420040F62812C2F2000202EBC00016
:1030B80000F012F8307841F25471C2F2000151F870
:1030C800202020462946FFF7B6FD307801303070C1
:0830D800BDE8784001B070472B
:1030E00070B50D4604460021002600F011F828694D
:1030F00020B1A84204D020612E6107E0266105E0DE
:10310000246128690168CA6821469047204670BD3D
:1031100010B5044600690021A042216102D028B107
:10312000142100E01021026851588847204610BD44
:1031300081B030B582B0144641F27565C2F2000527
:103140000593287805AA1F28019216D800EB4000A5
:1031500040F62812C2F2000202EBC000FFF7C0FFE7
:10316000287841F25471C2F2000151F82010204633
:1031700000F034FF28780130287002B0BDE83040FC
:0431800001B07047E3
:1031840010B504460069A04202D028B1142100E021
:0C3194001021026851588847204610BDE9
:1031A00038B5044690F8802090F8811044F610302D
:1031B000C0F2000001F0ACF994F8810088B994F8ED
:1031C000800001280DD10025C4F203052846FF2107
:1031D000FFF71AFD28460121012501F003F984F8C3
:0431E000815038BD25
:1031E40038B5044600F01AFD42F25400215809781B
:1031F400012906D125182046FDF78AF928680021FF
:04320400017038BD60
:1032080082B080B5CDE9022302AA0092FDF7ACF89E
:08321800BDE8084002B0704758
:1032200010B584B0044608460DF102010A22FFF7EA
:103230002DFD20460DF10201FEF7C0FD04B010BDCA
:0C32400044F6BE20C0F20000FFF796BE6E
:10324C0070B514460D4606460260FDF7E5FE4DF6D8
:10325C008361C4F21B31A0FB0101880C6843B4FBF1
:10326C00F5F10138C6E9010100213046317370BD1A
:10327C0030B585B004460820FFF7E6FE05460DF193
:10328C001300029001200390606840F64421C0F2C4
:10329C000001C5E900100020019001A80021FEF7F3
:0832AC00F0FD284605B030BD1D
:1032B40040F64422C0F200024068C1E90020704791
:1032C40070B588B041F27466C2F200063578092DF3
:1032D4001DD8009002AC204600F044F93078411C1F
:1032E400317040F6F861C2F2000101EB4010009A1F
:1032F40040F8082B214600F049F90698A04202D074
:1033040028B1142100E010210268515888470A2D81
:083314008041404208B070BD89
:10331C0070B588B041F27466C2F200063578092D9A
:10332C001DD8009002AC204600F018F93078411CF2
:10333C00317040F6F861C2F2000101EB4010009AC6
:10334C0040F8082B214600F01DF90698A04202D047
:10335C0028B1142100E010210268515888470A2D29
:08336C008041404208B070BD31
:1033740030B585B004460820FFF76AFE05460DF116
:103384001300029001200390606840F66821C0F2A7
:103394000001C5E900100020019001A80021FEF7FA
:0833A40008FF284605B030BD0A
:1033AC0040F66822C0F200024068C1E90020704774
:1033BC0010B50A6904463AB18A4207D01068816890
:1033CC0010468847206107E0226105E02461086906
:0C33DC000168CA6821469047204610BDD9
:1033E80010B50A6904463AB18A4207D01068816864
:1033F80010468847206107E0226105E024610869DA
:0C3408000168CA6821469047204610BDAC
:1034140030B585B004460820FFF71AFE05460DF1C5
:103424001300029001200390606840F68C21C0F2E2
:103434000001C5E900100020019001A80021FEF759
:083444004CFF284605B030BD25
:10344C0040F68C22C0F200024068C1E900207047AF
:10345C0030B585B004460820FFF7F6FD05460DF1A2
:10346C001300029001200390606840F6B021C0F276
:10347C000001C5E900100020019001A80021FEF711
:08348C0059FF284605B030BDD0
:1034940040F6B022C0F200024068C1E90020704743
:0834A40081680068FFF737BBE7
:0C34AC0013460A4681680068FDF7F8BB73
:1034B80042F24102835C994200D1704738B58518C1
:1034C8000C4629700121FEF7DBFF032C02BFB5F87B
:0C34D800010040F40070A5F8010038BDB0
:1034E40010B541F2F472C2F2000240F29404118168
:1034F400C0F20004204611460A2200F009F800B187
:1035040010BD20464FF48171BDE81040FEF7E7BFBF
:0C35140013460A4681680068FEF770BD8F
:1035200030B585B004460820FFF794FD05460DF13F
:103530001300029001200390606840F6D421C0F28D
:103540000001C5E900100020019001A80021FEF74C
:08355000DCFF284605B030BD88
:1035580040F6D422C0F200024068C1E9002070475A
:1035680010B50A6904462AB18A4205D022610020B2
:10357800086107E0226105E0246108690168CA68FA
:0835880021469047204610BDCA
:1035900070B50D4604460021002600F011F8286998
:1035A00020B1A84204D020612E6107E0266105E029
:1035B000246128690168CA6821469047204670BD89
:1035C00010B5044600690021A042216102D028B153
:1035D000142100E01021026851588847204610BD90
:1035E00030B585B004460820FFF734FD05460DF1DF
:1035F0001300029001200390606840F6F821C0F2A9
:103600000001C5E900100020019001A80021FEF78B
:083610009DFF284605B030BD06
:1036180040F6F822C0F200024068C1E90020704775
:10362800406842F24201425A42F480424252704794
:1036380010B504460069A04202D028B1142100E068
:0C3648001021026851588847204610BD30
:1036540030B585B004460820FFF7FAFC05460DF1A5
:103664001300029001200390606840F61C31C0F200
:103674000001C5E900100020019001A80021FEF717
:0836840074FF284605B030BDBB
:10368C0040F61C32C0F200024068C1E900207047CD
:10369C00406842F24201425A22F480424252704740
:1036AC0070B50D4604460021002600F011F828697B
:1036BC0020B1A84204D020612E6107E0266105E00C
:1036CC00246128690168CA6821469047204670BD6C
:1036DC0010B5044600690021A042216102D028B136
:1036EC00142100E01021026851588847204610BD73
:1036FC0030B585B004460820FFF7A6FC05460DF151
:10370C001300029001200390606840F64031C0F233
:10371C000001C5E900100020019001A80021FEF76E
:08372C0030FF284605B030BD56
:1037340040F64032C0F200024068C1E90020704700
:10374400897840684FF4015201F00301815400F577
:08375400015040214180704743
:10375C0030B585B004460820FFF776FC05460DF120
:10376C001300029001200390606840F66431C0F2AF
:10377C000001C5E900100020019001A80021FEF70E
:08378C0010FF284605B030BD16
:1037940040F66432C0F200024068C1E9002070477C
:1037A40030B585B004460820FFF752FC05460DF1FC
:1037B4001300029001200390606840F68831C0F243
:1037C4000001C5E900100020019001A80021FEF7C6
:0837D400FFFE284605B030BDE0
:1037DC0040F68832C0F200024068C1E90020704710
:1037EC0010B5006842F22001014440F2C004C0F25E
:1037FC00000420460722FFF787FE20464FF4857110
:08380C00BDE81040FEF767BEA5
:1038140030B585B004460820FFF71AFC05460DF1C3
:103824001300029001200390606840F6AC31C0F2AE
:103834000001C5E900100020019001A80021FEF755
:08384400DAFE284605B030BD94
:10384C0040F6AC32C0F200024068C1E9002070477B
:10385C00F8B50468154604F50157204600210026EA
:10386C0000F036F82878032811D17E8040F2440607
:10387C00C0F2000606F15000FEF7C2FE3046FEF71D
:10388C00BFFE06F12800FEF7BBFE012028607888F9
:10389C0020F40070788044F6F320C0F20000002180
:1038AC0000F030FE032028604FF4807038802046F2
:1038BC00012100F00DF8788840F4007244F65210A3
:1038CC00C0F2000001217A80BDE8F84000F01ABE79
:1038DC0010B540F24404C0F2000404F1500051B1A0
:1038EC0000F014F8204600F011F804F12800BDE8AF
:1038FC00104000F00BB800F00DF8204600F00AF86C
:0C390C0004F12800BDE8104000F004B8F1
:0839180001690068FFF71FB808
:083920000169006800F02CBBF6
:1039280030B585B004460820FFF790FB05460DF139
:103938001300029001200390606840F6D031C0F275
:103948000001C5E900100020019001A80021FEF740
:0839580068FE284605B030BDF1
:1039600040F6D032C0F200024068C1E90020704742
:1039700030B585B004460820FFF76CFB05460DF115
:103980001300029001200390606840F6F431C0F209
:103990000001C5E900100020019001A80021FEF7F8
:0839A0006CFE284605B030BDA5
:1039A80040F6F432C0F200024068C1E900207047D6
:1039B80030B585B004460820FFF748FB05460DF1F1
:1039C8001300029001200390606840F61841C0F28D
:1039D8000001C5E900100020019001A80021FEF7B0
:0839E8008CFE284605B030BD3D
:1039F00040F61842C0F200024068C1E9002070475A
:103A000038B5044605C80D468273204600F00EF80E
:103A10002068E16801602046294600F00DF8E06862
:0C3A200094F820108840284480B238BD83
:0C3A2C00D0E9021243690068FEF7FDBFFC
:103A380010B582B0D0F808C0C369446A0068009421
:0C3A48000A46614600F0EAFB02B010BD27
:103A540010B504460069A04202D028B1142100E048
:0C3A64001021026851588847204610BD10
:103A700030B585B004460820FFF7ECFA05460DF195
:103A80001300029001200390606840F63C41C0F2B0
:103A90000001C5E900100020019001A80021FEF7F7
:083AA0006DFE284605B030BDA3
:103AA80040F63C42C0F200024068C1E9002070477D
:103AB800F0B583B040F20211C4F2050104460A7859
:103AC8008DF807208A798DF806200A7A8DF8052066
:103AD800A1F58175284600F069FA060025D0F0079F
:103AE80020D040F2C000C0F20000FFF7D7FCC8B1F8
:103AF800029040F2C000C0F2000041F24427C2F236
:103B0800000702AA3946FFF7CDFC41F24C21C2F268
:103B180000018878002806BF388808800888214670
:103B2800FCF760FD3046FCF73FFD284600F0FAF947
:103B380000F00700012804BF0020207003B0F0BD8A
:103B480038B541F24425C2F2000544F66A24AA7940
:103B5800C0F2000420460221FCF7F0FEAA7940F2E8
:103B6800C000C0F200002146BDE83840FFF7CEBCD7
:103B7800032815D080B5022808D0012814D1CAB26C
:103B880044F66C20C0F20000122105E0CAB244F6E7
:103B98006D10C0F200004321FCF70EFF012008BDA4
:0C3BA800C9B2104600F002B8002008BDB1
:103BB40010B50446032809D840F67C40C0F2000042
:103BC4000A4650F824001021FCF7F8FE042C80412A
:043BD400404210BD9E
:103BD80030B585B004460820FFF738FA05460DF1E0
:103BE8001300029001200390606840F66041C0F223
:103BF8000001C5E900100020019001A80021FEF78E
:083C0800E0FD284605B030BDC7
:103C100040F66042C0F200024068C1E900207047EF
:103C200042F24202815A0B0600D4704770B58618E2
:103C3000D6F80620D6F80A0082421DD9141AD6F802
:103C40000210402C28BF4024014440F24405C0F239
:103C5000000528462246FFF75DFC28464FF4817197
:103C6000FEF73FFC3088D6F80A1040F01000308094
:103C70000819C6F80A0070BD21F09000308070BDB0
:103C80000403090400000000000000000000000020
:103C90000E0341006E0064007200650077000000B2
:103CA0000A03540045005300540030000000000097
:103CB0001003310032003300340035003600370085
:103CC00040F64010C2F200000169002908BF7047A9
:043CD000FEF769BDD5
:103CD40040F65810C2F200000169002908BF70477D
:043CE400FEF75FBDCB
:103CE80040F67010C2F200000169002908BF704751
:043CF800FEF755BDC1
:103CFC0040F68810C2F200000169002908BF704725
:043D0C00FEF74BBDB6
:103D100040F6A010C2F200000169002908BF7047F8
:043D2000FEF741BDAC
:103D240040F6B810C2F200000169002908BF7047CC
:043D3400FEF737BDA2
:103D380040F6D010C2F200000169002908BF7047A0
:043D4800FEF72DBD98
:103D4C0040F6E810C2F200000169002908BF704774
:043D5C00FEF723BD8E
:103D600040F60020C2F200000169002908BF704738
:043D7000FEF719BD84
:103D740040F61820C2F200000169002908BF70470C
:043D8400FEF70FBD7A
:103D880040F63020C2F200000169002908BF7047E0
:043D9800FEF705BD70
:103D9C0040F64820C2F200000169002908BF7047B4
:043DAC00FEF7FBBC67
:103DB00040F66020C2F200000169002908BF704788
:043DC000FEF7F1BC5D
:103DC40040F67820C2F200000169002908BF70475C
:043DD400FEF7E7BC53
:103DD80040F69020C2F200000169002908BF704730
:043DE800FEF7DDBC49
:103DEC0040F6A820C2F200000169002908BF704704
:043DFC00FEF7D3BC3F
:103E000040F6C020C2F200000169002908BF7047D7
:043E1000FEF7C9BC34
:103E140040F6D820C2F200000169002908BF7047AB
:043E2400FEF7BFBC2A
:103E280040F6F020C2F200000169002908BF70477F
:043E3800FEF7B5BC20
:103E3C0040F60830C2F200000169002908BF704743
:043E4C00FEF7ABBC16
:103E500040F62030C2F200000169002908BF704717
:043E6000FEF7A1BC0C
:103E640040F63830C2F200000169002908BF7047EB
:043E7400FEF797BC02
:103E780040F65030C2F200000169002908BF7047BF
:043E8800FEF78DBCF8
:103E8C0040F66830C2F200000169002908BF704793
:043E9C00FEF783BCEE
:103EA00040F68030C2F200000169002908BF704767
:043EB000FEF779BCE4
:103EB40040F69830C2F200000169002908BF70473B
:043EC400FEF76FBCDA
:103EC80040F6B030C2F200000169002908BF70470F
:043ED800FEF765BCD0
:103EDC0040F6C830C2F200000169002908BF7047E3
:043EEC00FEF75BBCC6
:103EF00040F6E030C2F200000169002908BF7047B7
:043F0000FEF751BCBB
:103F040040F6F830C2F200000169002908BF70478A
:043F1400FEF747BCB1
:103F180040F61040C2F200000169002908BF70474E
:043F2800FEF73DBCA7
:103F2C0010B504460020C4F20500844207D044F6C4
:103F3C003930C0F2000040F21631FCF761F9A07A7A
:103F4C00D4F80C14C90707D094F80C1400F5807041
:103F5C0041F0010184F80C1440F24C41C4F205010B
:103F6C000A68D20705D00A6800F5007042F0010219
:043F7C000A6010BD0A
:103F800038B504460020C4F2050084420D4607D02F
:103F900044F63930C0F2000040F25731FCF736F9F0
:103FA000E088A843E0802089012161EA15410840AA
:043FB000208138BD77
:103FB40010B504460020C4F20500844207D044F63C
:103FC4003930C0F2000040F2AA31FCF71DF96088D4
:083FD400A18840EA014010BD84
:103FDC0010B50022C4F2050290420C4607D044F6FC
:103FEC003930C0F200004FF47571FCF709F93C2030
:103FFC002146FCF7C9FE3C20BDE81040FCF7DCBEB6
:10400C0038B504460020C4F2050084420D4607D0A2
:10401C0044F63930C0F2000040F25141FCF7F0F8A0
:10402C004FEA3510102807D344F63930C0F200009F
:10403C0040F25941FCF7E4F86019B0F80211B0F8FD
:08404C00060141EA004038BD05
:1040540070B5144605460020C4F2050085420E469C
:1040640007D044F63930C0F200004FF4AE61FCF7DB
:10407400CBF8A6F110004FEA30100F2807D344F60E
:104084003930C0F200004FF4AF61FCF7BDF870198D
:1040940014F4005F4FF4817108BF0431425C0CBF1B
:0C40A40042F0800342F04003435470BD22
:1040B00070B5164604460020C4F2050084420D4641
:1040C00007D044F63930C0F2000040F2A351FCF7AB
:1040D0009DF86FF40050064207D044F63930C0F224
:1040E000000040F2A451FCF791F84FF0FF3000EBD4
:1040F00035100F280FD2B6F5005F04D1601900F516
:104100008170102103E0281900F5837020210278C6
:104110001143017070BD4FEA351048B144F6393093
:10412000C0F2000040F2AC51FCF770F8002DE2D173
:0841300004F581706021EAE74B
:1041380070B5164604460020C4F2050084420D46B8
:1041480007D044F63930C0F2000040F2E651FCF7DF
:1041580059F84FEA3510102807D344F63930C0F221
:10416800000040F2EE51FCF74DF86FF400500642A3
:1041780007D044F63930C0F2000040F2EF51FCF7A6
:1041880041F885B1B6F5005F14D1601990F80211B5
:1041980001F0CF0180F8021190F8021141F04001BE
:1041A80080F8021170BD94F8020100F0FB0084F859
:1041B800020170BD281990F8061101F09F0180F8DE
:1041C800061190F8061141F0800180F8061170BDC3
:1041D80010B504460020C4F20500844207D044F616
:1041E8003930C0F2000040F22D61FCF70BF860781E
:0841F80040F04000607010BDB2
:1042000038B504460020C4F2050084420D4607D0AC
:1042100044F63930C0F2000040F26761FBF7F6FF68
:04422000257038BD10
:104224002DE9F04182B09846164604460020C4F2B7
:1042340005008442089D0F4607D044F63930C0F289
:10424400000040F63611FBF7DFFFA7F110004FEA3C
:1042540030100F2807D344F63930C0F2000040F67E
:104264003E11FBF7D1FF3F09F608622215F4005F07
:1042740012BF6425632266254FF0010C204639469F
:104284004346CDF800C0FEF71FFC4FF0020C204659
:1042940039462A463346CDF820C002B0BDE8F04185
:0442A400FEF712BC53
:1042A80070B5144605460020C4F2050085420E4646
:1042B80007D044F63930C0F2000040F67331FBF7FE
:1042C800A1FF4FF0FF3000EB36100F280AD2A819D3
:1042D80090F80211C9071AD100F58170240A0470F8
:1042E800002070BD4FEA361048B144F63930C0F2AC
:1042F800000040F67B31FBF785FF002EE7D195F8EB
:104308000201800703D405F581703044E7E74FF0D8
:04431800FF3070BD45
:10431C0070B5164604460020C4F2050084420D46D2
:10432C0007D044F63930C0F2000040F6BB31FBF741
:10433C0067FF4FF0FF3000EB35100F2817D2B00499
:10434C000BD4281990F80611C9071EBF90F8061156
:10435C0041F0100180F8061170BD04F58170415DCB
:10436C00C907F9D0295C41F00801295470BD4FEA06
:10437C00351048B144F63930C0F2000040F6C33174
:10438C00FBF73EFF002DDAD194F802018007E3D051
:08439C00012084F8030170BD4B
:0843A400AFF30080FCF7B2FF4B
:0843AC00EFF3108072B67047B8
:0843B400EFF3108062B67047C0
:1043BC00C36823F4807323F00103C3600B0E036006
:1043CC0001F0FF03090A01F0FF0143F4007341F40B
:0843DC0000714360816070472D
:0843E40083690B4383617047FC
:0443EC004162704773
:0443F00000207047F2
:0443F40000207047EE
:0443F80000207047EA
:0443FC0000207047E6
:0444000000207047E1
:0444040000207047DD
:1044080010B582B0044600698DF8071078B1D4E978
:1044180000239A4231D26269531C63618154D4E902
:104428000501884229D12046FEF7F3FC25E0E06823
:1044380050B1D4E9002C62451FD2531CB3EB0C03D6
:1044480018BF0B46835418E0A06858B1D4E9002C73
:10445800624512D2531CB3EB0C0318BFCBB240F821
:1044680022300AE0236A43B1D4E90001884204D229
:104478000DF107012046012298472068013020608D
:0444880002B010BDB1
:10448C0070B514460D46064600F090F901463046CC
:0C449C002A462346BDE8704000F000B83E
:1044A8002DE9F04F03AF8DB047F83C3C91460C46E0
:1044B800064600F05BF80546EB46073020F007009B
:1044C800ADEB0008C546A7F1380A50460021242262
:1044D800FDF714F947E908546FF0004047F8340C29
:1044E80042F63560C0F2000047F8288C47E9060616
:1044F8005046494657F83C2CFCF710FFDD46A7F11B
:084508000C04A546BDE8F08F8C
:1045100083B000B582B0CDE9031241F2E87CC2F26B
:10452000000C059303AA01920146DCF80000FFF796
:0C453000ADFF02B05DF804EB03B0704773
:10453C0041F2EC71C2F2000141F2E872C2F20002E7
:10454C000968126841F2F073C2F20003411A1B6849
:10455C0018BF0121821A18BF01221140C01A18BFBE
:08456C000120084040427047A5
:04457400402070472C
:1045780041F23800C2F20000032144F69F32C0F233
:1045880000020161416141F25221C2F200018261DF
:10459800C1614FF480610162002181624162C162A0
:1045A80041F25263C2F20003026643661022826639
:1045B8000167C16644F68E32C0F200024167531AA1
:0C45C800DB7B435401311029F9D170470E
:1045D4002DE9F04104468068E66815466268871B49
:1045E4009019BD4204D22A46FDF758F835440AE032
:1045F40088463A46FDF752F8ED1B08EB0701606860
:0C4604002A46FDF74BF8E560BDE8F081A8
:1046100070B500EB400041F23803C2F2000303EB37
:10462000C00303F11806D86A022818D00D461446B4
:10463000012807D020B93046FEF704FCA04207D27B
:1046400000240AE03046FEF7FDFBA04238BF0446D6
:10465000304629462246FFF7BDFF204670BD304652
:08466000BDE87040FEF7F9BB54
:1046680041F2242CC2F2000CDCF800304BB170B5DA
:104678000F305C6820F0070E0025744503D11846FA
:1046880015E00020704700214A1E0025744588BFA8
:104698000125944280414642186835421CBF19469C
:1046A800224668B1446874451D460346EDD1002D85
:1046B80001680CBFCCF80010296040F808EB70BD09
:1046C8000029FCD04B68A2EB0E000844A3EB0E02B5
:0446D8004A60F2E75B
:1046DC0020B350F8081CCA0718BF21F00100E8B13C
:1046EC0010B541F22422C2F200020146D2F800E0D9
:1046FC00BEF1000F51F808CD11D08E45734615D27E
:10470C001A461B681C0018BF012401D08B42F7D33A
:10471C0040F804CD40F8043C11600EE07047116085
:10472C00C1F800E01068C0F804C010BD40F804CD1A
:10473C00012440F804EC116000225CB101EB0C0484
:10474C009C4201BFD3F804C004686444046004BFF5
:10475C001B680B608E45E8D25368D4188C42E4D1A8
:0C476C000068184450600868106010BD20
:10477800EFF3108072B6B0FA80F041F21021C2F265
:084788000001400908607047C0
:1047900041F21020C2F20000006800B162B670471A
:1047A00010B50446FFF7E8FF2046FFF75DFF04461B
:0847B000FFF7EEFF204610BDEB
:1047B80041F22020C2F200000068002804BF41F244
:0847C800D470C2F2000070473A
:1047D0007F280BD844F69842C0F2000244F6094301
:1047E000C0F20003105C595C08407047002070471D
:0C47F000A0F161011A2938BF2038704781
:0C47FC00A0F141011A2938BF203070479D
:104808007F280BD844F69842C0F2000244F60943C8
:10481800C0F20003105C595C0840704700207047E4
:0C482800A0F161011A2938BF2038704748
:0C483400A0F141011A2938BF2030704764
:1048400070B541F20426C2F200060C4632680546F5
:104850008AB11F2A16D841F26010C2F2000040F857
:10486000225041F2E000C2F2000040F82240501C09
:104870003060002070BD42F67F70C0F20000FEF78D
:0C4880007EFA08B1012070BD3268E2E74A
:10488C0070B582B004460078BFF35F8F08B1002486
:10489C0025E044F61851C0F2000101A8FEF7C1FB57
:1048AC006078810711D541F20825C2F2000541F26A
:1048BC000C26C2F2000640F0040060702846314617
:1048CC00FFF79AFD60788107F5D401281CBF0221FF
:1048DC006170441E18BF012401A800F003F82046A3
:0448EC0002B070BDE9
:1048F00010B5044641F20C20C2F20000FFF77CFD27
:1049000008B9204610BD216844F63820C0F20000E6
:04491000FEF732FB81
:1049140041F20020C2F200000068BFF35F8F7047CD
:04492400FEF7E8BAF8
:04492800FFF7FCBFDA
:10492C0028545F75732E496E74466C616728312963
:0F493C0020696E74657276616C2025640D0A0027
:07494B006563686F6F6E00E9
:1049520073657420466C6167732E444154415F490C
:0B4962004E5F4F4E202564200D0A0020
:10496D000902430002010080320904000001020225
:10497D000100052400100105240101010424020297
:10498D00052406000107058103100001090401003B
:10499D00020A00000007058202400001070502021D
:0349AD00400001C6
:1049B0004A616E75617279004665627275617279DD
:1049C000004D6172636800417072696C004D6179DD
:1049D000004A756E65004A756C790041756775739C
:1049E000740053657074656D626572004F63746F17
:1049F000626572004E6F76656D6265720044656334
:074A0000656D6265720000A4
:074A0700414D00504D00007D
:0F4A0E002561202562202565202554202559008B
:104A1D002573206661696C656420746F2061637114
:0B4A2D0075697265206D757465780076
:104A38002573206661696C656420746F2072656CEB
:0B4A480065617365206D757465780072
:104A53002573206661696C656420746F2062726FD0
:074A630061646361737400DC
:024A6A00030047
:104A6C001201000200000040470502100001010283
:024A7C00030134
:024A7E000D0029
:104A800053756E646179004D6F6E64617900547581
:104A90006573646179005765646E6573646179005C
:104AA0005468757273646179004672696461790053
:0A4AB00053617475726461790000AF
:024ABA004300B7
:024ABC002E00CA
:104ABE006261645F66756E6374696F6E5F63616C6D
:104ACE006C20776173207468726F776E20696E2028
:104ADE002D666E6F2D657863657074696F6E7320C9
:054AEE006D6F6465001E
:104AF300636C65617220466C6167732E4441544157
:0D4B03005F494E5F4F4E202564200D0A00D3
:104B100054494D45525F49535F454E41424C4520F3
:104B20003D2025642C2054494D45525F49535F492F
:094B30004E4954203D25640A00A1
:104B39002F686F6D652F416E647265772F446F63BF
:104B4900756D656E74732F53454747455220456D02
:104B59006265646465642053747564696F2050727A
:104B69006F6A656374732F5374656C6C61726973D2
:104B7900576172652F6472697665726C69622F7507
:054B890073622E6300C1
:104B8E000000000000005454522052454747455340
:014B9E000016
:094B9F005465726D696E616C00D1
:094BA800256D2F25642F257900ED
:094BB10025483A254D3A25530030
:104BBA0053756E004D6F6E0054756500576564003D
:0D4BCA005468750046726900536174000064
:104BD7004A616E00466562004D6172004170720065
:104BE7004D6179004A756E004A756C004175670022
:104BF700536570004F6374004E6F76004465630021
:014C070000AC
:014C080000AB
:0D4C09000007032004170201085710408027
:104C16006261645F616C6C6F632077617320746896
:104C2600726F776E20696E202D666E6F2D657863C4
:0D4C3600657074696F6E73206D6F646500AA
:044C4400010100006A
:044C48008D010000DA
:044C4C00CD02000095
:044C50002D03000030
:044C5400CD1F000070
:084C58000330000019300000D8
:084C60006563686F6F66660072
:104C6800466C6167732E4543484F3D2025640A0012
:104C7800303132333435363738394142434445468A
:104C880030313233343536373839616263646566BA
:104C980020202020202020202068282828282020A4
:104CA80020202020202020202020202020202020FC
:104CB80048101010101010101010101010101010B4
:104CC8008484848484848484848410101010101054
:104CD80010818181818181010101010101010101AD
:104CE8000101010101010101010101101010101061
:104CF800108282828282820202020202020202027E
:104D08000202020202020202020202101010102025
:104D18005F5F6378615F67756172645F6163717516
:044D28006972650047
:104D2C005F5F6378615F67756172645F72656C6504
:044D3C00617365003A
:104D400000B506480649884205D00268043003B41D
:104D5000904703BCF7E708BC18470000444C00002C
:044D6000604C0000A3
:104D64008D4E000000000020761600009F4E0000CB
:104D7400781600208C4D0000860100008916000082
:084D8400414D00001B1300006B
:104D8C00DD0881CC05820182CC02820382CC0482B4
:104D9C008582CC81828282CC838284829B010101B8
:104DAC008805020101020188020201030201880444
:104DBC0002018502018881020182020188830201BD
:104DCC008402019B0301038902030502018801028D
:104DDC00010202018803020104020188850201819B
:104DEC00020188820201830201B8840201059980C4
:104DFC00068106B9820607B980080999810A010B58
:104E0C0099820CA101F9210ABB0102992120A1214F
:104E1C00C921222328CCC13CD53CCCE93CFD3CCC5F
:104E2C00113D253DCC393D4D3DCC613D753DCC8989
:104E3C003D9D3DCCB13DC53DCCD93DED3DCC013E7C
:104E4C00153ECC293E3D3ECC513E653ECC793E8D47
:104E5C003ECCA13EB53ECCC93EDD3ECCF13E053F3D
:104E6C00CC193F6417CC64176417CC6417641744CF
:104E7C00141220181220C41C1220A1202B02020094
:104E8C00206861680834002200E04254491EFCD5B9
:024E9C0070475D
:104E9E0020686168A2680C340B78491C082600252E
:104EAE005B0801D20D78491C0570401C521E02D0C1
:084EBE00761EF4D1F0E7704705
:04000003000043A511
:00000001FF
