:1000000000600020333500003D2300002D0A000071
:100010003F230000412300004323000000000000B4
:100020000000000000000000000000004523000068
:100030004723000000000000492300004B2300007C
:100040000008000800000540020000002000000039
:1000500040000000040000000021000082000000B9
:100060000300000000000000002000000000054028
:10007000020000002000000040000000000004001A
:10008000000100000200000003000000000000006A
:10009000000000000000054001000000100000000A
:1000A000100000000200000000220000810000009B
:0C00B00001000000000000000020000023
:0400BC000000000040
:1000C00000000540000000000000000040000000AB
:1000D0000100000000030000800000003C00000060
:1000E000FF0300000F0000000F0E03FF01000000DF
:0400F00001001020DB
:1000F40080B541F2F800C2F200000078C007BFF3F7
:100104005F8F26D141F2F800C2F2000003F069FCCF
:10011400F8B1002040F20041C2F20001002200BF09
:100124008B181832B2F5A56F1861F9D140F2591045
:10013400C0F2000040F20002C0F20002002103F00D
:100144002AFC41F2F800C2F20000BDE8084002F0C7
:0401540024BA08BD04
:1001580010B540F20044C2F2000404F5A56000BFE7
:0C016800183802F0D4FAA042FAD110BD01
:0C0174000000000000000000C326000096
:1001800080B541F2F800C2F200000078C007BFF36A
:100190005F8F26D141F2F800C2F2000003F023FC89
:1001A000F8B1002040F20041C2F20001002200BF7D
:1001B0008B181832B2F5A56F1861F9D140F2E5102D
:1001C000C0F2000040F20002C0F20002002103F081
:1001D000E4FB41F2F800C2F20000BDE8084002F082
:0401E000DEB908BDBF
:1001E40010B540F20044C2F2000404F5A56000BF5B
:0C01F400183802F08EFAA042FAD110BDBB
:1002000041F2EC02C2F20002106041F2E800C2F2D8
:080210000000016000BFFDE7E2
:1002180030B58DB0044640F27C11C0F2000140F8C0
:10022800041F40F6FC01C0F20001CDE9061406AD3A
:100238000A950022C4F20502294602F03EFA0A98FD
:10024800A84202D028B1142100E0102102685158B8
:10025800884740F62010C0F20000CDE900046D4642
:100268000495002141F21C50C2F200000A4650F8E1
:100278002110B1F5A02F02F10101F7D102EB4200E4
:1002880040F20041C2F2000101EBC000294602F031
:1002980074FB0498A84202D028B1142100E0102170
:1002A80002685158884740F2C000C0F2000001F0CF
:0802B80040FE20460DB030BDF0
:1002C00041F2F400C2F200000178C90719D10121FE
:1002D0000170002040F62841C2F20001002200BF58
:1002E0008B181832B2F5347F1861F9D140F205301D
:1002F000C0F2000040F20002C0F20002002103F050
:040300004CBB70473B
:1003040010B540F62844C2F2000404F5347000BF6E
:0C031400183802F0D6FCA042FAD110BD4F
:1003200038B5040019D040F62845C2F2000500BFD8
:1003300094FAA4F0B0FA80F0C0F12E01102838BF72
:10034000411E01EB410005EBC0000169002918BF07
:0C03500001F0D8FD601E0440EAD138BD69
:10035C0010B582B041F2FC01C2F20001B0F5D06FD1
:10036C008A7818DB42F22003984232DCCB78B0F565
:10037C00D06F6BD0B0F5086F68D0B0F5106F40F04F
:10038C006F810020C4F205000021012202B0BDE8FB
:10039C00104001F09ABFB0F5817F51DB00F09C80DA
:1003AC00B0F5407F5ED0B0F5A06F40F059810021D0
:1003BC00CDE9001141F21C50C2F200000A4650F87F
:1003CC002110B1F5A02F02F10101F7D102EB42008F
:1003DC0037E15A1C904200F08A8042F2A111884207
:1003EC004ED042F22121884240F03A81002141F264
:1003FC001C50C2F2000042F20012C0F2220200BFF6
:10040C000B4650F82110914203F10101F8D103EB96
:10041C00430040F20041C2F2000101EBC00001694F
:10042C0049B141F2FC01C2F2000141F2F002C2F208
:10043C00000201F05AFD40F2C000C0F2000019E0C9
:10044C0008280AD0B0F5807F0ED009E189791846CA
:10045C0002B0BDE8104002F07ABC02B0BDE810401A
:10046C0002F05DBC022A39D0012A40F2C000C0F271
:10047C00000037D1012102B0BDE8104001F087BB6C
:10048C000021CDE9001141F21C50C2F200004AF2E9
:10049C000012C0F2210200BF0B4650F8211091420D
:1004AC0003F10101F8D103EB430040F20041C2F229
:1004BC00000101EBC000016931B141F2F002C2F25E
:1004CC000002694601F011FD40F2C000C0F20000CC
:1004DC00012101F05CFBC3E04888E0B340F2C000AE
:1004EC00C0F2000002B0BDE8104001F0F9BC41F2CE
:1004FC000814C2F2000414F8020C002847D00022A1
:10050C0042F20010C0F2200041F21C51C2F2000174
:10051C00134651F82220824203F10102F8D103EB79
:10052C00430040F20041C2F2000101EBC00001693E
:10053C0031B141F2FC01C2F20001224601F0D5FCBE
:10054C0040F2C000C0F20000012101F020FB0020AD
:10055C0004F8020C84E00879802823DD832838D045
:10056C00822849D08128B9D10021CDE9001141F26E
:10057C001C50C2F2000040F28122C0F201020B4674
:10058C0050F82110914203F10101F8D157E00120FC
:10059C0004F8020CCA88228040F2C000C0F20000AD
:1005AC00002168E701283AD0022897D10021CDE933
:1005BC00001141F21C50C2F2000040F20222C0F2C3
:1005CC0001020B4650F82110914203F10101F8D1C0
:1005DC0035E00021CDE9001141F21C50C2F20000BF
:1005EC0040F28322C0F201020B4650F821109142D6
:1005FC0003F10101F8D122E00021CDE9001141F213
:10060C001C50C2F2000040F28222C0F201020B46E2
:10061C0050F82110914203F10101F8D10FE000F5DF
:10062C0081300022CDE9002241F21C51C2F20001BE
:10063C00134651F82220824203F10102F8D103EB58
:10064C00430040F20041C2F2000101EBC00001691D
:10065C0031B141F2F002C2F20002694601F045FCF0
:04066C0002B010BD0B
:1006700070B51546914238BF0D46402D04461AD339
:1006800040F2C006C0F2000630462146402202F089
:10069000FAF80130F8D000BF30464FF4817101F014
:1006A00064FA0130F8D04034A5F1400069B2402925
:1006B0000546E9DB00E02846C5B240F2C006C0F2BC
:1006C000000600BF304621462A4602F0DCF8013021
:1006D000F8D040F2C004C0F2000400BF20464FF43E
:0C06E000857101F042FA0130F8D070BDC5
:1006EC0070B51546914238BF0D46402D04461AD3BD
:1006FC0040F2C006C0F2000630462146402202F00D
:10070C00BCF80130F8D000BF30464FF4817101F0D5
:10071C0026FA0130F8D04034A5F1400069B24029E6
:10072C000546E9DB00E02846C5B240F2C006C0F23F
:10073C00000600BF304621462A4602F09EF80130E2
:10074C00F8D040F2C004C0F2000400BF20464FF4C1
:0C075C00857101F004FA0130F8D070BD86
:100768000000000000000000AF170000CF170000D5
:10077800332700006B2700000F1800003F18000007
:040788007B270000CB
:10078C000000000000000000271E0000011B0000FC
:10079C00DF27000017280000071B0000091B0000C2
:0407AC000F1B00001F
:1007B0000000000000000000271E0000751B000064
:1007C00093280000CB2800007B1B00007D1B00004D
:0407D000831B000087
:1007D4000000000000000000271E0000A51B000010
:1007E4003B29000073290000AB1B0000AD1B000077
:0407F400B31B000033
:1007F8000000000000000000131F0000ED1B0000B7
:10080800D32900000B2A0000F31B0000F51B000091
:040818001B2A000097
:10081C000000000000000000131F00000D1C000071
:10082C00332A00006B2A0000131C0000151C00006A
:04083C007B2A000013
:100840000000000000000000131F00002D1C00002D
:10085000872A0000BF2A0000331C0000351C00005E
:040860003B1C00003D
:100864000000000000000000131F0000791C0000BD
:10087400CF2A0000072B00007F1C0000811C000011
:04088400871C0000CD
:100888000000000000000000131F0000A91C000069
:10089800C72B0000FF2B0000AF1C0000B11C00009C
:0408A800B71C000079
:1008AC000000000000000000131F0000F91C0000F5
:1008BC000F2C0000472C0000FF1C0000011D000045
:0408CC00071D000004
:1008D0000000000000000000131F0000811D000048
:1008E000572C00008F2C0000871D0000891D000080
:0408F0008F1D000058
:1008F4000000000000000000271E0000291E000068
:10090400E32C00001B2D00002F1E0000311E0000F0
:04091400371E00008A
:100918000000000000000000131F0000151F000069
:10092800C72D0000FF2D00001B1F00001D1F000029
:04093800231F000079
:10093C000E2E00001E2E00002E2E00003E2E00005B
:10094C0010B540F62814C2F2000404F5407000BF44
:0C095C00183802F0B2F9A042FAD110BD28
:10096800F8B51D46144606460020C4F20500864226
:100978000F4607D043F60A40C0F2000040F64C216B
:10098800FFF73AFC4FF0FF3000EB37100F2819D271
:1009980007F58370805BC00702D12860C043F8BDAB
:1009A800F019B0F808012968814238BF0846286064
:1009B80038B106F12001BA08535C04F8013B01384C
:1009C800FAD1F8BD4FEA371048B143F60A40C0F2F1
:1009D800000040F65421FFF70FFC002FD8D14FF448
:0409E8008170D7E75C
:1009EC0002000000010000000100000001000000F6
:1009FC0001000000010000000100000001000000E7
:100A0C0001000000010000000100000001000000D6
:100A1C0001000000010000000100000001000000C6
:100A2C0008490A68002AFED41EF0040F0CBFEFF32D
:100A3C000880EFF3098042F000420A6081690231BC
:080A4C00816170472CED00E010
:100A5400094B0A4A70B51C689442144609D01D68B3
:100A640000235E59E6500433B3F51B7FF9D1024BE2
:100A74001A6044F8201070BD08ED00E0000000206A
:100A8400042804D1134B1A6842F4803205E0052887
:100A940005D1104B1A6842F400321A6070470628D8
:100AA40004D10C4B1A6842F48022F6E70F2804D1D3
:100AB400094B1A6842F00202EFE70AD91038074BD3
:100AC400420953F8223000F01F00012212FA00F00C
:100AD4001860704724ED00E010E000E0E40A000034
:100AE40000E100E004E100E008E100E00CE100E0E6
:040AF40010E100E02D
:100AF80000F07043B3F1704F15D100F47F42114BF1
:100B0800120A00F0FF00D318800003F0704240F092
:100B1800007023F07F43104323F4700340EA43132B
:100B280001221A607047020F81B200F4F810000C1D
:100B380011FA00F0044B53F822301A681043186079
:0C0B4800704700BF00E60F403C0F0000AB
:100B5400054B18B11A6842F0006202E01A6822F0EC
:0C0B640000621A60704700BF60E00F40A4
:100B7000534B2DE9F0411A68044612F0E04F06D0BD
:100B80001A68504B02EA0303B3F1805F02D1002CD4
:100B9000C0F294804C494D4A0B68166843F40063D8
:100BA00023F4800546F4006613F0020F0D60166012
:100BB00002D014F0020F05D015F0010F1AD014F076
:100BC000010F17D164F003031D403F4B002E1D6041
:100BD00005DA06F07003302B05D0702B02E005F02B
:100BE0003003302B02D14FF4805001E04FF400204D
:100BF00001F0B6FB04F4FE6325F4FE6545EA030844
:100C0000334D26F0004604EA050526F0700645EA55
:100C1000060604F0080546EAC5052C4F2A4E1020AA
:100C2000C6F800803D6001F09BFB28F4405804F4B6
:100C30000052284904F4405325F4005548EA0303C0
:100C400040201543244A086052BF33603D60336042
:100C500023F0F86304EA020223F0030358BF3D6067
:100C6000134304F0FC5125F0FC5214F0804F42EA8B
:100C7000010208D0194922F4800204EA010143F478
:100C800080030A4301E022F0804214F4006F0CD18B
:100C90004FF400411248006810F0400F01D10139B3
:100CA000F8D123F4006322F40062074910200B609E
:100CB000064B1A60BDE8F04101F052BBBDE8F0817F
:100CC00000E00F400000FF7060E00F4070E00F4058
:100CD0003000008058E00F400300C0070000404093
:040CE00050E00F4091
:100CE400694B70B51A6810331B68002BB4BF03F04E
:100CF400700102F0300120293AD004D869B11029DA
:100D040040F0C08010E060295DD0702958D03029AF
:100D140040F0B88047F2305063E002F4F8605B4979
:100D2400800951F820005CE05949086810F0E04F50
:100D34004CD00C68574804EA0000B0F1805F45D0FD
:100D44000C68544804EA0000534CA04203D10968DB
:100D540089B202293CD04E484E49046804EA010194
:100D64004E4CA14236D100684D4980B24D4C22E030
:100D74004749086810F0E04F2ED00C68454804EA53
:100D84000000B0F1805F27D00C68424804EA0000FC
:100D9400414CA04203D1096889B202291ED03C48C3
:100DA4003C49046804EA01013C4CA14218D10068A2
:100DB4003D493E4C80B200280CBF2046084610E056
:100DC4004FF400400DE04FF480000AE0384808E09A
:100DD400344806E0324804E0364802E0334800E094
:100DE4003148002B02DA13F4006F01E012F4006FB3
:100DF4002AD13149264D09682C6814F0E04F43F696
:100E0400E07401EA040406D02E68224D06EA0505C2
:100E1400B5F1805F06D16409023401F01F05604317
:100E2400023505E06409604301F01F0501356D00DA
:100E3400B0FBF5F011F4804F18BF400811F4004FD7
:100E440018BF800842F4800212F4800F1BD0002BDC
:100E540011DA13F0804F07D013F4006F04D103F0BC
:100E6400FE5340009B0D02E003F0FC53DB0D013305
:100E7400B0FBF3F070BD02F0F062D20D0132B0FBB2
:100E8400F2F070BD002070BD60E00F40D00E000095
:100E940000E00F400000FF7000000110000003108C
:100EA4000024F400001BB70000093D00C0C62D005B
:0C0EB400C0E1E4007038390064E00F4039
:100EC000024B1A6822F480421A60704770E00F40AB
:100ED00040420F0000201C0080841E00008025007E
:100EE000999E36000040380000093D0000803E0019
:100EF00000004B00404B4C0000204E00808D5B00FA
:100F000000C05D000080700000127A0000007D00CB
:100F100080969800001BB7000080BB00C0E8CE00A0
:100F2000647ADA000024F4000000FA0080A81201BC
:0C0F3000002D310100366E0140787D017B
:0C0F3C0000E10F4004E10F4008E10F400D
:100F4800034C206804348047FBE700F065FAFEE7AD
:040F5800203E000037
:100F5C002DE9F04F87B017468B4680460020C8F825
:100F6C0000000DF1060A1BF8011B252906D00029EB
:100F7C0000F08681404602F0EEFAF4E7002559466F
:100F8C001BF8010B5E28FAD0672813DC262805DC39
:100F9C00202809D0232832D1802009E0272805D029
:100FAC002B282CD1202003E0402001E04FF40040FE
:100FBC000543E4E76B2806DD6C280DD0742818BFB8
:100FCC007A2805D01BE068280BD06A2817D1023587
:100FDC0001F1020B487812E048786C2809D10235EF
:100FEC0003E04878682807D1083501F1030B8878AD
:100FFC0005E001F1020B02E001F1020B043562285D
:10100C0021DDA0F1630115294FF00009ABD8DFE811
:10101C0011F0260017001600160016001600170017
:10102C00160016001600160029003600E700160000
:10103C0016003B0016004D0016001600210092E72A
:10104C0045F4804532E0252873D0582840F029819A
:10105C0045F40055290623D44FF0000926E017F873
:10106C00041B87E757F8040B2907D8F8001000F188
:10107C000581AA0754BF0160C0E9001973E729066E
:10108C00302202EAE17911E057F8046B317800293B
:10109C003FF469AF404602F05EFA16F8011FF6E71E
:1010AC0043F25809782808BF43F27809690404D43C
:1010BC00A90709D4391D00260CE0A90713D4394619
:1010CC0051F8047BFE1714E0F91D21F0070707F116
:1010DC0008017E686A073F6814D415F0080F13D016
:1010EC000026FFB210E0F91D21F007014E6851F8FF
:1010FC00087B0091690709D429070AD547F3C01664
:10110C007FB206E0BFB20026009119E047F3C0366B
:10111C003FB2002E06DBA90610D4690610D54FF09D
:10112C0020090DE000217F4261EB06064FF02D09EE
:10113C0006E04046252102F00EFA14E74FF02B0989
:10114C0000246E2821DD6F38092800F27880DFE852
:10115C0000F00550767676762276765057EA0600C1
:10116C0069D0F80840EA4670062262F3DF070AF8F5
:10117C000470013450EAD6014FEAD6064FEAD0018A
:10118C00074641EA4670F0D159E0582831D064281E
:10119C0018BF692853D157EA06004CD0280407D54C
:1011AC0004F00300032802BF2C200AF804000134C9
:1011BC00384631460A22002300F084FB00EB800203
:1011CC00A7EB4202B7F10A0376F1000342F03002BA
:1011DC000AF8042004F1010407460E46DED22EE084
:1011EC003846232150F8047B0090280601EAE07968
:1011FC00002657EA06001ED043F63450C0F2000019
:10120C00A9045CBF43F64450C0F20000390941EA1E
:10121C000671002407F00F020F46825C0AF80420C6
:10122C00013451EA16114FEA16164FEA171141EA2A
:10123C000671EFD103E030208DF806000124B9F1DE
:10124C00FF0F06D94FEA1921404602F084F9009F9E
:10125C0003E0B9F1000F009F03D04046494602F06D
:10126C007AF9012CFFF67FAE661E40461AF806107E
:10127C0002F071F9012C3446F6D874E6017072E66E
:10128C00D8F80C0028B1D8E9001291423CBF0022DA
:10129C004254404601F0C5F8D8F8000007B0BDE84C
:1012AC00F08F00287FF45FAE404601F0BAF84FF0A3
:0412BC00FF30F3E725
:1012C00003480449091A08B501F015F90CBC184780
:0812D00098160020981E002072
:1012D8005AB3844690EA01039B071FD1830707D0BE
:1012E80011F8013B00F8013B521EF7D11CE084467F
:1012F800203A09D32DE9F007B1E8F807A0E8F80784
:10130800203AF9D2BDE8F0071C3205D451F8043B65
:1013180040F8043B121FF9D2043205D011F8013B02
:0C13280000F8013B521EF9D160467047EE
:1013340000220B0011001A0084465AB3830704D01C
:1013440000F8011B521EF9D124E0C9B241EA01217F
:1013540041EA0141202A11D3203A2DE9F0030B463A
:101364000C460D460E460F4688468946A0E8FA0309
:10137400203AFBD2BDE8F00320320BD0042A05D377
:1013840040F8041B121F05D0042AF9D200F8011BEF
:08139400521EFBD160467047B8
:0C139C00D13B0000C8130000A8130000A3
:1013A8002B3900004B390000573900006339000021
:1013B800833900008F3900005525000023250000DF
:1013C800D33B0000D93C0000D93C0000D93C0000C8
:1013D800D93C0000D93C0000D93C0000D93C0000B1
:1013E800D93C0000D93C0000FFFFFFFFFFFFFFFFD3
:1013F800FFFFFFFFFFFF0000973B00008B3C000052
:10140800C93A0000A83C0000203B0000793C0000DD
:08141800823C0000273B0000AC
:10142000ADF5835D86B000F096FF40F24050C0F20B
:10143000C010FFF79DFB0120FFF78CFBFFF752FC6C
:101440000DF5805E00208EF877008EF8760004A8F7
:101450000DF1170E0EF583510DF1160E0EF5835298
:1014600000F01CF801A8FEF7D7FE00F06FFF00BFE8
:02147000FEE795
:1014720010B540F24404C0F2000404F150004021CF
:1014820000F0B9FC0146204600F0B5FC014604F12B
:0A1492002800BDE8104000F0AEBCD9
:10149C002DE9F041C2B090460E46044640F2FF7072
:1014AC0041F21001421CA4F800280023C4F80438AF
:1014BC00C4F80808C4F80C0865186252C5E9013074
:1014CC00E86040F27070C0F20000CDE93C0441F2DB
:1014DC0028003CAF20444097394601F04EF9409823
:1014EC00B84202D028B1142100E0102102685158F2
:1014FC008847C5E9116840F29470C0F20000CDE94C
:10150C00360436AE3A9640F64045C2F200052846FF
:10151C00314600F08FFA3A98B04202D028B114212B
:10152C0000E0102102685158884740F2B870C0F2B0
:10153C000000CDE9300430AE349605F5227031460A
:10154C0000F078FA3498B04202D028B1142100E0AF
:10155C00102102685158884740F2DC70C0F200003C
:10156C00CDE92A042AAD2E9540F62840C2F200009F
:10157C00294600F05FFA2E98A84202D028B1142117
:10158C0000E0102102685158884742F20017C0F25F
:10159C00200740F60000C0F20000CDE9240424AD81
:1015AC002895002141F21C56C2F2000607F50030C6
:1015BC000A4656F82110814202F10101F8D102EBE2
:1015CC00420040F20048C2F2000808EBC000294675
:1015DC0001F0D1F92898A84202D028B1142100E0DA
:1015EC00102102685158884740F62400C0F20000D0
:1015FC00CDE91E041EAD2295002100BF084656F809
:10160C002110B94200F10101F8D100EB400008EBC8
:10161C00C000294601F0AFF92298A84202D028B1A7
:10162C00142100E0102102685158884740F6480008
:10163C00C0F20000CDE9180418AD1C95002107F587
:10164C00C03000BF0A4656F82110814202F1010158
:10165C00F8D102EB420008EBC000294601F08BF9EF
:10166C001C98A84202D028B1142100E01021026875
:10167C005158884740F66C00C0F20000CDE91204C6
:10168C0012AD1695002100BF084656F82110B1F591
:10169C00102F00F10101F7D100EB400008EBC00066
:1016AC00294601F068F91698A84202D028B11421F5
:1016BC0000E0102102685158884740F20227C0F21E
:1016CC00010740F69000C0F20000CDE90C040CAD0F
:1016DC001095002107F17F000A4656F8211081422F
:1016EC0002F10101F8D102EB420008EBC0002946DF
:1016FC0001F041F91098A84202D028B1142100E061
:10170C00102102685158884740F6B400C0F200001E
:10171C00CDE9060406AD0A95002107F1800000BF53
:10172C000A4656F82110814202F10101F8D102EB70
:10173C00420008EBC000294601F01DF90A98A842A6
:10174C0002D028B1142100E01021026851588847BA
:10175C0040F6D800C0F20000CDE900046D460495B7
:10176C00002100BF084656F82110B94200F10101D2
:10177C00F8D100EB400008EBC000294601F0FBF863
:10178C000498A84202D028B1142100E0102102686C
:10179C00515888472046FFF766FE204642B0BDE808
:0217AC00F081CA
:0217AE00704782
:1017B000F8B5140009D00D460646274615F8011B5A
:0E17C000304600F01CF9013FF8D12046F8BD7C
:0617CE00082102F057B9EA
:1017D40038B505680024C4F2050440F2C000C0F224
:1017E4000000002100F0D7F994F80201C006FBD5EF
:1017F40041F2FC00C2F20000807800F07F01204634
:0A18040001F0C3FD0220287038BD7A
:02180E00704721
:10181000002040F62811C2F2000100228B18183275
:10182000B2F5407F1861F9D140F64D10C0F20000CA
:0E18300040F20002C0F20002002102F0AEB849
:06183E00082102F01FB9B1
:10184400F8B51C46154606460020C4F2050086423B
:101854000F4607D043F60A40C0F200004FF432614D
:10186400FEF7CCFC4FEA3710102806D240F6EC11F4
:10187400C0F2000151F820000BE043F60A40C0F228
:10188400000040F62831FEF7B9FC0120002F08BF04
:101894000220F11991F80211084202D04FF0FF30F2
:1018A400F8BD44B106F12000B90800BF15F8012BBA
:0A18B4000A54013CFAD10020F8BDEF
:1018BE0002460068116018B19168C90002F0DAB8EA
:0218CE00704761
:1018D000002B35D129B9B0FBF2FC0CFB120260469B
:1018E0007047914215D22DE9F041B2FA82F39A4045
:1018F0009940D3F1200C30FA0CFC51EA0C019840CD
:1019000000F04EF8280036FA03F200210023BDE86B
:10191000F081F0B5B1FBF2FC0CFB1211B2FA82F3CC
:101920009A409940D3F1200630FA06F631439840A8
:1019300000F036F8614628003200DA400023F0BD9E
:10194000F3B5B3FA83FC49085FEA300013FA0CF3ED
:10195000DCF1200432FA04F423430CB41A0000F042
:101960001FF80CBC33FA0CF3DCF11F0C35FA0CF544
:1019700018BF6D1E03BCA5FB026705FB0377801B28
:10198000B941904271EB030C05D3821A71EB03034A
:10199000681C0021F0BD02000B0028000021F0BDF2
:1019A000940D4FF6C2752D02B5FBF4F4D60A761CE1
:1019B00004FB04F5A5FB0656F64306EB0416550892
:1019C00032BF002777086D1C05FB1677A6FB07477B
:1019D0007F0807EBC63714001500E7FB02457F1BA5
:1019E0004D1C0400E7FB014505FB1206A64284BF1F
:0E19F0006D1EB618964224BF6D1CB61A7047C5
:1019FE00D0F80838B0F8002801339342002228BFEF
:101A0E001346C0F80838C154D0F80838D0F80C186E
:101A1E00994208D1B0F800380131994238BF0A46D0
:101A2E00C0F80C287047D0F804180131C0F804181B
:021A3E007047EF
:101A400030B587B004466D46284600F0B2FE214608
:101A500000F00DF80498A84202D028B1142100E04B
:0E1A60001021026851588847204607B030BD5B
:101A6E0081420CD0B0B584B00C46054600690969B8
:101A7E00A84205D0A14210D02961206137E07047FD
:101A8E000268A142D26815D02146904728690168A4
:101A9E00096988472069286128E00868C2680846F5
:101AAE00294690472069016809698847286920619D
:101ABE002D611CE0694690472869016809698847CD
:101ACE0000272F6120690168CA682946904720695E
:101ADE00016809698847276100982D61C2686846C8
:101AEE00214690470098016968468847246104B0F2
:021AFE00B0BD79
:061B0000082101F0BEBF48
:021B0600704726
:061B0800082101F0BABF44
:061B0E00406800F009B878
:101B140002460068116018B19168C90001F0AFBFB6
:021B2400704708
:101B260010B5044640F24400C0F2000000F00DF883
:101B360041F24201605A40F0020020F010022046B5
:0A1B46006252BDE8104000F06BBED3
:101B500010B504460068A16801F01FFB024620682A
:0A1B6000A168BDE8104000F0C4BA0F
:0A1B6A000A468168006801F061BCC2
:061B7400082101F084BF0E
:021B7A007047B2
:061B7C00082101F080BF0A
:061B8200406800F0A9BE5E
:101B880002460068116018B19168C90001F075BF7C
:021B9800704794
:0A1B9A000A468168006800F099BB5C
:061BA400082101F06CBFF6
:021BAA00704782
:061BAC00082101F068BFF2
:061BB200406800F009B8D4
:101BB80002460068116018B19168C90001F05DBF64
:021BC800704764
:101BCA0010B5044640F29400C0F20000FFF7BBFFD4
:101BDA0041F24200215A41F0010121F0080121524B
:021BEA0010BD2C
:061BEC00082101F048BFD2
:021BF20070473A
:061BF400082101F044BFCE
:101BFA0002460068116018B19168C90001F03CBF43
:021C0A00704721
:061C0C00082101F038BFC1
:021C1200704719
:061C1400082101F034BFBD
:101C1A0002460068116018B19168C90001F02CBF32
:021C2A00704701
:061C2C00082101F028BFB1
:021C32007047F9
:061C3400082101F024BFAD
:061C3A00043000F009B8BF
:101C400002460068116018B19168C90001F019BF1F
:021C50007047DB
:101C520010B5006800F5815140F2C004C0F20004E2
:101C62002046072200F00EFE20464FF48571BDE8A3
:061C72001040FFF779BFEE
:061C7800082101F002BF8B
:021C7E007047AD
:061C8000082101F0FEBE88
:061C8600043000F045BF30
:101C8C0002460068116018B19168C90001F0F3BEFA
:021C9C0070478F
:0A1C9E008168426A006801F001BC91
:061CA800082101F0EABE74
:021CAE0070477D
:061CB000082101F0E6BE70
:061CB600043000F009B843
:101CBC0002460068116018B19168C90001F0DBBEE2
:021CCC0070475F
:101CCE0010B5006841F2420140F29404425A22F0EB
:101CDE0009024252C0F200042046FFF732FF2046AE
:0A1CEE000121BDE81040FFF751BFCF
:061CF800082101F0C2BE4C
:021CFE0070472D
:061D0000082101F0BEBE47
:061D0600043000F009B8F2
:101D0C0002460068116018B19168C90001F0B3BEB9
:021D1C0070470E
:101D1E00F8B5056841F21006AF1940F24404C0F25E
:101D2E0000042046FFF70DFF204600F018F820466D
:101D3E0000F01AF8A85B01380021C7E90110F8601D
:101D4E00032087F830004020788640F68C2000F083
:0E1D5E0000FB20460121BDE8F840FFF717BF4B
:0A1D6C0081684269006801F0A8BA1E
:0A1D76008168426A006801F031BA8A
:061D8000082101F07EBE07
:021D86007047A4
:061D8800082101F07ABE03
:061D8E00043000F009B86A
:101D940002460068116018B19168C90001F06FBE75
:021DA400704786
:101DA60038B5056840F26C04C0F200042046FFF71F
:101DB600CCFE2046FFF7D7FF2046FFF7D9FFB5F840
:101DC600000801380021C5F8041841F24201C5F89F
:101DD60008086A5AC5F80C0822F024006852204602
:101DE6000121FFF7D7FE20460021BDE83840FFF766
:021DF600D1BE5C
:101DF80038B5044605C80D46C0F80E20204600F048
:101E08004AFF2068E16801602046294600F049FF42
:0E1E1800E06894F820108840284480B238BD5D
:021E2600704703
:061E2800082101F02ABEB2
:021E2E007047FB
:061E3000082101F026BEAE
:061E3600406800F009B84D
:101E3C0002460068116018B19168C90001F01BBE20
:021E4C007047DD
:101E4E00F0B583B040F20211C4F2050104460A78DF
:101E5E008DF807208A798DF806200A7A8DF80520EC
:101E6E00A1F58175284601F065F9060029D043F6E3
:101E7E002C50C0F20000314601F0F0FBF00720D0EC
:101E8E0040F2C000C0F2000000F046FDC8B1029062
:101E9E0040F2C000C0F2000041F2FC07C2F200079F
:101EAE0002AA394600F03CFD41F20411C2F20001D3
:101EBE008878002806BF3888088008882146FEF7F3
:101ECE0046FA3046FEF725FA284601F0EFF800F004
:0E1EDE000700012804BF0020207003B0F0BDF3
:0A1EEC0081684269006801F0A4B9A2
:0E1EF600006910B103689B69184700F049FFAE
:0E1F0400006910B101688969084700F042FFCA
:021F1200704716
:061F1400082101F0B4BD3C
:021F1A0070470E
:061F1C00082101F0B0BD38
:061F22000430FFF756BC7D
:101F280002460068116018B19168C90001F0A5BDAA
:021F38007047F0
:101F3A0010B50446006BFEF7DAFDFEF7BCFFE06958
:101F4A00FEF79BFD2068216A00F05DF82068616A4F
:101F5A0000F084F82068A16A01F0D4F82068E16AE8
:101F6A0000F0A7F82068A16A00F012F82068BDE81E
:061F7A00104001F0F3B974
:101F800040F62810C2F20000006928B140F628107F
:0A1F9000C2F20000FFF7B6BF704771
:101F9A0070B504460026C4F20506B0420D4607D0C5
:101FAA0043F60A40C0F2000040F24B21FEF723F943
:101FBA004FF2F010C0F2FC00054207D043F60A4087
:101FCA00C0F200004FF41371FEF715F915F00F0077
:101FDA001EBFE1880843E08015F460601EBF2189B6
:101FEA0041EA10202081280E1EBFE17A0843E072E0
:101FFA00E80344BF0120C4F80804A80344BF012031
:06200A00C6F8480470BD99
:1020100070B504460026C4F20506B0420D4607D04E
:1020200043F60A40C0F2000040F29521FEF7E8F8BE
:10203000B5F5806F07D343F60A40C0F2000040F2C6
:102040009621FEF7DDF828061EBFE07AA843E0726D
:10205000E80544BF0020C4F80804A80544BF0020D8
:06206000C6F8480470BD43
:1020660070B504460026C4F20506B0420D4607D0F8
:1020760043F60A40C0F200004FF43271FEF7BDF895
:10208600B5F5806F07D343F60A40C0F2000040F270
:10209600C921FEF7B2F828061EBFE07A2843E0728F
:1020A600E80544BF0120C4F80804A80544BF012080
:0620B600C6F8480470BDED
:1020BC0038B504460020C4F2050084420D4607D012
:1020CC0043F60A40C0F2000040F27F31FEF792F86E
:1020DC00E0882843E0806FF00100218900EA154078
:0620EC000843208138BD0D
:1020F20070B5144605460020C4F2050085420E461E
:1021020007D043F60A40C0F2000040F2B541FEF7A4
:1021120076F84FF0FF3000EB36100F2811D270190D
:10212200DB2290F8021162EA0402114080F80211E7
:1021320090F80611B32262EA1442114080F80611A7
:1021420070BD4FEA361048B143F60A40C0F20000B3
:1021520040F2BD41FEF753F8002EE0D1E0071EBF6A
:1021620095F8020140F0400085F80201E00642BF06
:1021720095F8020140F0800085F802016007DFD582
:0E21820095F8020100F0FB0085F8020170BD27
:10219000F8B51C46154606460020C4F205008642E6
:1021A0000F4607D043F60A40C0F2000040F2DE714D
:1021B000FEF726F8103F4FEA37100F2807D343F6F3
:1021C0000A40C0F2000040F2E671FEF719F8A004E0
:1021D00007EB060010D4A0F8145104F004012022EB
:1021E000E3064CBF282302EA840343EA411280231A
:1021F0004FF48B77791C10E0A0F81051E10640F203
:10220000131105D404F0090292FAA2F2120E02E0B0
:10221000142264F3C71240234F1E14F4407F08BFFA
:0A22200042F040024254C355F8BDDD
:10222A002DE9F0411D46164604460020C4F2050079
:10223A0084420F4606D043F60A40C0F200007921D4
:10224A00FDF7D9FFDDF81880042F06D343F60A40BC
:10225A00C0F200007B21FDF7CEFFB8F1010FA07B91
:0E226A00A77314BF35533555A073BDE8F0813E
:1022780038B504460020C4F2050084420D4607D054
:1022880043F60A40C0F2000040F60721FDF7B4FF0C
:102298004FF0FF3000EB35100F2808D205F583709A
:1022A800005BC0071CBF6019B0F8080138BD4FEAD1
:1022B800351048B143F60A40C0F2000040F60F213D
:0E22C800FDF79AFF002DE9D14FF48170E8E791
:1022D60070B5154604460020C4F2050084420E4639
:1022E60007D043F60A40C0F2000040F6B421FDF7DD
:1022F60084FF4FF0FF3000EB36100F2807D2A019ED
:1023060090F8061101F0FE0180F8061170BD4FEA43
:10231600361048B143F60A40C0F2000040F6BC2130
:10232600FDF76BFF002EEAD14820002D08BF4020A4
:0623360084F8020170BDF5
:02233C00FEE7BA
:02233E00FEE7B8
:02234000FEE7B6
:02234200FEE7B4
:02234400FEE7B2
:02234600FEE7B0
:02234800FEE7AE
:02234A00FEE7AC
:0A234C0008B501F0F8F8C0B208BDB2
:0A23560008B501F0EFF8C0B208BDB1
:062360000138FDD17047B9
:1023660040F2BC00C0F200000468204600F001F80C
:02237600FBE783
:1023780080B505281FD841F2A00CC2F2000C42F229
:10238800FF335CF82010C0F200034CF82030A9B1EC
:1023980042F2FD32C0F2000291420CD0994208D0BC
:1023A80042F2FB33C0F20003994207D04CF82030C8
:1023B8008847002008BD4FF0FF3008BD0120FEF718
:0223C800C6FD50
:1023CA0041F21A53C2F200031A78002A02464FF069
:1023DA00010007D141F2B80CC2F2000CCCE900218D
:0623EA001870002070478E
:0A23F000014600200022FFF7E8BFBD
:0223FA0070472A
:0223FC00704728
:0223FE00704726
:10240000F8B51D4617460C460646184601F043F936
:10241000002803D407FB04F2A24201D20020F8BD39
:0E2420002846314600F015F8B0FBF4F0F8BD88
:10242E0042694AB110B50446036A002B1CBF2169EC
:0A243E0098470020606110BD704750
:0A244800436A08460121FFF7D7BFE1
:06245200006800F034B840
:102458000146C0680A6982426FEA000010449CBFC6
:062468008968084470477A
:10246E002DE9F843144688460546C7684FF0000923
:10247E002869F943B8420844A96898BF0844CE1B9E
:10248E00B04238BF06466868A64228BF2646384482
:10249E0041463246FEF719FFA868F1190F1A18BF08
:1024AE000F46A41BB144B044EF60E1D14846BDE8ED
:0224BE00F883A1
:1024C000F8B540F6F863C2F2000314461B78002BFF
:1024D0000D46064608BF01F0FCF8EFF311874FF0F8
:1024E000200181F3118830462946224601F03DF94A
:0624F00087F31188F8BD1E
:1024F600082907D341F2E402C2F20002106000226A
:06250600C0E9002170474E
:10250C0010B5044601F0DFF9204601F08EF9BDE864
:06251C00104001F0E4B9DB
:1025220084460020002918BF002A0ED0097848B23C
:1025320000280BD4BCF1000F18BFCCF8001000210A
:10254200C3E90011002818BF012070476FF0010095
:022552007047D0
:0E2554007F298EBF6FF00100017001207047DB
:06256200FFF700FFFEE799
:10256800F8B541F2C404C2F20004206890B141F207
:102578002005C2F2000540F6A076C2F200066FF010
:10258800030707EB8000295830588847206801382E
:062598002060F6D1F8BD41
:10259E0070B582B004460125BFF35F8F057043F618
:1025AE00E851C0F2000101A800F02FF866786570BE
:1025BE0001F044FA700706D541F2C800C2F20000DD
:1025CE0000F0C4FF08B902B070BD43F66C30C0F223
:0E25DE00000043F6E851C0F20001FFF7BBFF1A
:1025EC0010B541F2CC04C2F200040020206000F0CF
:0625FC00A6FF206010BDE7
:1026020010B541F2C804C2F200040020206000F0BC
:06261200A1FF206010BDD5
:1026180010B50446016041F2CC00C2F2000000F09F
:1026280092FF08B9204610BD216843F63630C0F243
:062638000000FFF792FF15
:10263E0080B500F008F800B108BD43F6E740C0F2DF
:06264E000000FFF787FF0A
:1026540010B50446012898BF0124204601F04BF927
:0E26640020B901F002FA08B18047F6E710BD78
:1026720070B50D4604460021002600F011F82869C5
:1026820020B1A84204D020612E6107E0266105E056
:10269200246128690168CA6821469047204670BDB6
:1026A20010B5044600690021A042216102D028B180
:1026B200142100E01021026851588847204610BDBD
:1026C20081B030B582B0144641F21B55C2F200050A
:1026D2000593287805AA1F28019216D800EB40001E
:1026E20040F62812C2F2000202EBC000FFF7C0FF60
:1026F200287841F2F851C2F2000151F82010204628
:1027020000F032FD28780130287002B0BDE8304078
:0427120001B070475B
:1027160010B504460069A04202D028B1142100E099
:0C2726001021026851588847204610BD61
:1027320030B585B004460820FFF780FF05460DF14D
:102742001300029001200390606840F27071C0F2A1
:102752000001C5E900100020019001A80021FFF747
:08276200ADF8284605B030BDBA
:10276A0040F27072C0F200024068C1E9002070476E
:0C277A004068097800F50160FFF73CB9E9
:1027860010B50A6904463AB18A4207D010688168D2
:1027960010468847206107E0226105E02461086948
:0C27A6000168CA6821469047204610BD1B
:1027B20010B50A6904463AB18A4207D010688168A6
:1027C20010468847206107E0226105E0246108691C
:0C27D2000168CA6821469047204610BDEF
:1027DE0030B585B004460820FFF72AFF05460DF1F7
:1027EE001300029001200390606840F29471C0F2D1
:1027FE000001C5E900100020019001A80021FFF79B
:08280E0082F9284605B030BD37
:1028160040F29472C0F200024068C1E9002070479D
:1028260041F24202815A0B0600D4704770B58618F1
:10283600D6F80620D6F80A0082421DD9141AD6F810
:102846000210402C28BF4024014440F24405C0F247
:1028560000052846224600F013F828464FF48171F9
:10286600FFF780F93088D6F80A1040F01000308063
:102876000819C6F80A0070BD21F08000308070BDCE
:0C28860013460A4681680068FEF7D9BFBF
:1028920030B585B004460820FFF7D0FE05460DF19D
:1028A2001300029001200390606840F2B871C0F2F8
:1028B2000001C5E900100020019001A80021FFF7E6
:0828C20062F9284605B030BDA3
:1028CA0040F2B872C0F200024068C1E900207047C5
:1028DA0030B593B0044640F26C05C0F200052846B4
:1028EA00FFF731F9284600F019F8119050B111AAF2
:1028FA00284601A900F016F8BDF84420204601A98F
:10290A00FEF751FF28460021FFF742F941F2420043
:0C291A00215A41F00401215213B030BDDD
:0829260081680068FFF7A5BC01
:0C292E0013460A4681680068FEF717B8DF
:10293A0030B585B004460820FFF77CFE05460DF148
:10294A001300029001200390606840F2DC71C0F22B
:10295A000001C5E900100020019001A80021FFF73D
:08296A0026F9284605B030BD36
:1029720040F2DC72C0F200024068C1E900207047F8
:1029820070B50D4604460021002600F011F82869B2
:1029920020B1A84204D020612E6107E0266105E043
:1029A200246128690168CA6821469047204670BDA3
:1029B20010B5044600690021A042216102D028B16D
:1029C200142100E01021026851588847204610BDAA
:1029D20030B585B004460820FFF730FE05460DF1FC
:1029E2001300029001200390606840F60001C0F2DB
:1029F2000001C5E900100020019001A80021FFF7A5
:082A0200FBF8284605B030BDC9
:102A0A0040F60002C0F200024068C1E900207047A7
:102A1A00897840684FF4825201F00301815400F52D
:082A2A008250402141807047F9
:102A320030B585B004460820FFF700FE05460DF1CB
:102A42001300029001200390606840F62401C0F256
:102A52000001C5E900100020019001A80021FFF744
:082A6200DBF8284605B030BD89
:102A6A0040F62402C0F200024068C1E90020704723
:0C2A7A004068126800F58150FEF729BC8E
:102A860030B585B004460820FFF7D6FD05460DF1A2
:102A96001300029001200390606840F64801C0F2DE
:102AA6000001C5E900100020019001A80021FFF7F0
:082AB600C4F8284605B030BD4C
:102ABE0040F64802C0F200024068C1E900207047AB
:102ACE0030B585B004460820FFF7B2FD05460DF17E
:102ADE001300029001200390606840F66C01C0F272
:102AEE000001C5E900100020019001A80021FFF7A8
:082AFE00C6F8284605B030BD02
:102B060040F66C02C0F200024068C1E9002070473E
:102B1600F8B50468154604F58257204600210026BC
:102B260000F028F82878032812D17E8040F2440667
:102B3600C0F2000606F15000FFF7AEF83046FFF788
:102B4600ABF806F12800FFF7A7F80120286002E09D
:102B56002046FEF78BFC788820F4007078800320EE
:102B660028604FF48072204601213A80BDE8F84083
:042B760000F000B8B3
:102B7A0010B540F24404C0F2000404F1500051B10F
:102B8A0000F014F8204600F011F804F12800BDE81E
:102B9A00104000F00BB800F00DF8204600F00AF8DB
:0C2BAA0004F12800BDE8104000F004B861
:082BB60001690068FFF77FBA16
:082BBE000169006800F0A4BAEF
:102BC60030B585B004460820FFF736FD05460DF101
:102BD6001300029001200390606840F69001C0F255
:102BE6000001C5E900100020019001A80021FFF7AF
:082BF60062F8284605B030BD6D
:102BFE0040F69002C0F200024068C1E90020704722
:102C0E0030B585B004460820FFF712FD05460DF1DC
:102C1E001300029001200390606840F6B401C0F2E8
:102C2E000001C5E900100020019001A80021FFF766
:082C3E0066F8284605B030BD20
:102C460040F6B402C0F200024068C1E900207047B5
:102C560030B585B004460820FFF7EEFC05460DF1B9
:102C66001300029001200390606840F6D801C0F27C
:102C76000001C5E900100020019001A80021FFF71E
:082C860086F8284605B030BDB8
:102C8E0040F6D802C0F200024068C1E90020704749
:0C2C9E00D0E9021243690068FFF773BA26
:102CAA0010B582B0D0F808C0C369446A00680094BD
:0C2CBA000A46614600F078FB02B010BD35
:102CC60010B504460069A04202D028B1142100E0E4
:0C2CD6001021026851588847204610BDAC
:102CE20030B585B004460820FFF7A8FC05460DF173
:102CF2001300029001200390606840F6FC01C0F2CC
:102D02000001C5E900100020019001A80021FFF791
:082D120094F8284605B030BD1D
:102D1A0040F6FC02C0F200024068C1E90020704798
:102D2A0038B541F2FC05C2F2000543F68334AA79AC
:102D3A00C0F2000420460221FDF795FCAA7940F270
:102D4A00C000C0F200002146BDE83840FFF796BD3A
:102D5A00032815D080B5022808D0012814D1CAB298
:102D6A0043F68530C0F20000122105E0CAB243F6EC
:102D7A008620C0F200004321FDF7B3FC012008BD04
:0C2D8A00C9B2104600F008B8002008BDD7
:0C2D960043F6D530C0F20000FFF7E0BBB0
:102DA20010B50446032809D840F63C10C0F20000D2
:102DB2000A4650F824001021FDF797FC042C8041AC
:042DC200404210BDBE
:102DC60030B585B004460820FFF736FC05460DF100
:102DD6001300029001200390606840F62011C0F2B3
:102DE6000001C5E900100020019001A80021FFF7AD
:082DF60098F8284605B030BD35
:102DFE0040F62012C0F200024068C1E90020704780
:102E0E0004030904000000000000000000000000A0
:102E1E000E0341006E006400720065007700000032
:102E2E000A03540045005300540030000000000017
:102E3E001003310032003300340035003600370005
:102E4E0040F64010C2F200000169002908BF704729
:042E5E00FFF751B871
:102E620040F65810C2F200000169002908BF7047FD
:042E7200FFF747B867
:102E760040F67010C2F200000169002908BF7047D1
:042E8600FFF73DB85D
:102E8A0040F68810C2F200000169002908BF7047A5
:042E9A00FFF733B853
:102E9E0040F6A010C2F200000169002908BF704779
:042EAE00FFF729B849
:102EB20040F6B810C2F200000169002908BF70474D
:042EC200FFF71FB83F
:102EC60040F6D010C2F200000169002908BF704721
:042ED600FFF715B835
:102EDA0040F6E810C2F200000169002908BF7047F5
:042EEA00FFF70BB82B
:102EEE0040F60020C2F200000169002908BF7047B9
:042EFE00FFF701B821
:102F020040F61820C2F200000169002908BF70478C
:042F1200FEF7F7BF10
:102F160040F63020C2F200000169002908BF704760
:042F2600FEF7EDBF06
:102F2A0040F64820C2F200000169002908BF704734
:042F3A00FEF7E3BFFC
:102F3E0040F66020C2F200000169002908BF704708
:042F4E00FEF7D9BFF2
:102F520040F67820C2F200000169002908BF7047DC
:042F6200FEF7CFBFE8
:102F660040F69020C2F200000169002908BF7047B0
:042F7600FEF7C5BFDE
:102F7A0040F6A820C2F200000169002908BF704784
:042F8A00FEF7BBBFD4
:102F8E0040F6C020C2F200000169002908BF704758
:042F9E00FEF7B1BFCA
:102FA20040F6D820C2F200000169002908BF70472C
:042FB200FEF7A7BFC0
:102FB60040F6F020C2F200000169002908BF704700
:042FC600FEF79DBFB6
:102FCA0040F60830C2F200000169002908BF7047C4
:042FDA00FEF793BFAC
:102FDE0040F62030C2F200000169002908BF704798
:042FEE00FEF789BFA2
:102FF20040F63830C2F200000169002908BF70476C
:04300200FEF77FBF97
:1030060040F65030C2F200000169002908BF70473F
:04301600FEF775BF8D
:10301A0040F66830C2F200000169002908BF704713
:04302A00FEF76BBF83
:10302E0040F68030C2F200000169002908BF7047E7
:04303E00FEF761BF79
:1030420040F69830C2F200000169002908BF7047BB
:04305200FEF757BF6F
:1030560040F6B030C2F200000169002908BF70478F
:04306600FEF74DBF65
:10306A0040F6C830C2F200000169002908BF704763
:04307A00FEF743BF5B
:10307E0040F6E030C2F200000169002908BF704737
:04308E00FEF739BF51
:1030920040F6F830C2F200000169002908BF70470B
:0430A200FEF72FBF47
:1030A60040F61040C2F200000169002908BF7047CF
:0430B600FEF725BF3D
:1030BA0010B504460020C4F20500844207D043F646
:1030CA000A40C0F2000040F21631FDF794F8A07AE7
:1030DA00D4F80C14C90707D094F80C1400F58070C2
:1030EA0041F0010184F80C1440F24C41C4F205018C
:1030FA000A68D20705D00A6800F5007042F001029A
:04310A000A6010BD8A
:10310E0038B504460020C4F2050084420D4607D0AF
:10311E0043F60A40C0F2000040F25731FDF769F85D
:10312E00E088A843E0802089012161EA154108402A
:04313E00208138BDF7
:1031420010B504460020C4F20500844207D043F6BD
:103152000A40C0F2000040F2AA31FDF750F8608840
:08316200A18840EA014010BD04
:10316A0010B50022C4F2050290420C4607D043F67D
:10317A000A40C0F200004FF47571FDF73CF83C209C
:10318A002146FDF762FC3C20BDE81040FDF775BC06
:10319A0038B504460020C4F2050084420D4607D023
:1031AA0043F60A40C0F2000040F25141FDF723F80D
:1031BA004FEA3510102807D343F60A40C0F2000040
:1031CA0040F25941FDF717F86019B0F80211B0F84A
:0831DA00060141EA004038BD86
:1031E20070B5144605460020C4F2050085420E461D
:1031F20007D043F60A40C0F200004FF4AE61FCF77C
:10320200FEFFA6F110004FEA30100F2807D343F655
:103212000A40C0F200004FF4AF61FCF7F0FF7019F2
:1032220014F4005F4FF4817108BF0431425C0CBF9B
:0C32320042F0800342F04003435470BDA2
:10323E0070B5164604460020C4F2050084420D46C1
:10324E0007D043F60A40C0F2000040F2A351FCF74B
:10325E00D0FF6FF40050064207D043F60A40C0F28A
:10326E00000040F2A451FCF7C4FF4FF0FF3000EB1A
:10327E0035100F280FD2B6F5005F04D1601900F596
:10328E008170102103E0281900F583702021027847
:10329E001143017070BD4FEA351048B143F60A4034
:1032AE00C0F2000040F2AC51FCF7A3FF002DE2D1BA
:0832BE0004F581706021EAE7CC
:1032C60070B5164604460020C4F2050084420D4639
:1032D60007D043F60A40C0F2000040F2E651FCF780
:1032E6008CFF4FEA3510102807D343F60A40C0F288
:1032F600000040F2EE51FCF780FF6FF400500642EA
:1033060007D043F60A40C0F2000040F2EF51FCF746
:1033160074FF85B1B6F5005F14D1601990F80211FB
:1033260001F0CF0180F8021190F8021141F040013E
:1033360080F8021170BD94F8020100F0FB0084F8D9
:10334600020170BD281990F8061101F09F0180F85E
:10335600061190F8061141F0800180F8061170BD43
:1033660010B504460020C4F20500844207D043F697
:103376000A40C0F2000040F22D61FCF73EFF607883
:0833860040F04000607010BD32
:10338E0038B504460020C4F2050084420D4607D02D
:10339E0043F60A40C0F2000040F26761FCF729FFD5
:0433AE00257038BD91
:1033B2002DE9F04182B09846164604460020C4F238
:1033C20005008442089D0F4607D043F60A40C0F22A
:1033D200000040F63611FCF712FFA7F110004FEA89
:1033E20030100F2807D343F60A40C0F2000040F61F
:1033F2003E11FCF704FF3F09F608622215F4005F54
:1034020012BF6425632266254FF0010C204639461F
:103412004346CDF800C0FEF707FF4FF0020C2046EE
:1034220039462A463346CDF820C002B0BDE8F04105
:04343200FEF7FABEE9
:1034360070B5144605460020C4F2050085420E46C6
:1034460007D043F60A40C0F2000040F67331FCF79D
:10345600D4FE4FF0FF3000EB36100F280AD2A81921
:1034660090F80211C9071AD100F58170240A047078
:10347600002070BD4FEA361048B143F60A40C0F24C
:10348600000040F67B31FCF7B8FE002EE7D195F838
:103496000201800703D405F581703044E7E74FF059
:0434A600FF3070BDC6
:1034AA0070B5164604460020C4F2050084420D4653
:1034BA0007D043F60A40C0F2000040F6BB31FCF7E1
:1034CA009AFE4FF0FF3000EB35100F2817D2B004E8
:1034DA000BD4281990F80611C9071EBF90F80611D7
:1034EA0041F0100180F8061170BD04F58170415D4C
:1034FA00C907F9D0295C41F00801295470BD4FEA87
:10350A00351048B143F60A40C0F2000040F6C33114
:10351A00FCF771FE002DDAD194F802018007E3D09E
:08352A00012084F8030170BDCB
:08353200AFF30080FDF707FD77
:08353A00EFF3108072B6704738
:08354200EFF3108062B6704740
:04354A0000207047A6
:04354E0000207047A2
:04355200002070479E
:04355600002070479A
:04355A000020704796
:04355E000020704792
:1035620010B582B0044600698DF8071078B1D4E92D
:1035720000239A4231D26269531C63618154D4E9B7
:103582000501884229D12046FEF750FF25E0E06878
:1035920050B1D4E9002C62451FD2531CB3EB0C038B
:1035A20018BF0B46835418E0A06858B1D4E9002C28
:1035B200624512D2531CB3EB0C0318BFCBB240F8D6
:1035C20022300AE0236A43B1D4E90001884204D2DE
:1035D2000DF1070120460122984720680130206042
:0435E20002B010BD66
:1035E60070B514460D46064600F090F90146304681
:0C35F6002A462346BDE8704000F000B8F3
:103602002DE9F04F03AF8DB047F83C3C91460C4694
:10361200064600F05BF80546EB46073020F007004F
:10362200ADEB0008C546A7F1380A50460021242216
:10363200FDF783FE47E908546FF0004047F8340C69
:1036420042F24940C0F2000047F8288C47E90606DA
:103652005046494657F83C2CFDF77FFCDD46A7F162
:083662000C04A546BDE8F08F41
:10366A0083B000B582B0CDE9031241F28C6CC2F28C
:10367A00000C059303AA01920146DCF80000FFF74B
:0C368A00ADFF02B05DF804EB03B0704728
:1036960041F29061C2F2000141F28C62C2F2000274
:1036A6000968126841F29463C2F20003411A1B686A
:1036B60018BF0121821A18BF01221140C01A18BF73
:0836C60001200840404270475A
:0436CE0040207047E1
:1036D20040F6F860C2F20000032143F67042C0F2E5
:1036E20000020161416141F20A11C2F200018261EC
:1036F200C1614FF480610162002181624162C16255
:1037020041F20A53C2F20003026643661022826645
:103712000167C16643F65F42C0F200024167531A75
:0C372200DB7B435401311029F9D17047C2
:10372E002DE9F04104468068E66815466268871BFD
:10373E009019BD4204D22A46FDF7C7FD35440AE072
:10374E0088463A46FDF7C1FDED1B08EB07016068A0
:0C375E002A46FDF7BAFDE560BDE8F081E9
:10376A0070B500EB400040F6F863C2F2000303EBC9
:10377A00C00303F11806D86A022818D00D46144669
:10378A00012807D020B93046FEF761FEA04207D2D1
:10379A0000240AE03046FEF75AFEA04238BF04462B
:1037AA00304629462246FFF7BDFF204670BD304607
:0837BA00BDE87040FEF756BEA9
:1037C20041F2E40CC2F2000CDCF800304BB170B5EF
:1037D2000F305C6820F0070E0025744503D11846AF
:1037E20015E00020704700214A1E0025744588BF5D
:1037F2000125944280414642186835421CBF194651
:10380200224668B1446874451D460346EDD1002D39
:1038120001680CBFCCF80010296040F808EB70BDBD
:103822000029FCD04B68A2EB0E000844A3EB0E0269
:043832004A60F2E70F
:1038360020B350F8081CCA0718BF21F00100E8B1F0
:1038460010B541F2E402C2F200020146D2F800E0ED
:10385600BEF1000F51F808CD11D08E45734615D232
:103866001A461B681C0018BF012401D08B42F7D3EF
:1038760040F804CD40F8043C11600EE0704711603A
:10388600C1F800E01068C0F804C010BD40F804CDCF
:10389600012440F804EC116000225CB101EB0C0439
:1038A6009C4201BFD3F804C004686444046004BFAA
:1038B6001B680B608E45E8D25368D4188C42E4D15D
:0C38C6000068184450600868106010BDD5
:1038D200EFF3108072B6B0FA80F041F2D001C2F27A
:0838E200000140090860704775
:1038EA0041F2D000C2F20000006800B162B670472F
:1038FA0010B50446FFF7E8FF2046FFF75DFF0446D0
:08390A00FFF7EEFF204610BD9F
:1039120041F2E000C2F200000068002804BF41F258
:083922007860C2F2000070475A
:10392A007F280BD843F65452C0F2000243F6DA431A
:10393A00C0F20003105C595C0840704700207047D1
:0C394A00A0F161011A2938BF2038704735
:0C395600A0F141011A2938BF2030704751
:103962007F280BD843F65452C0F2000243F6DA43E2
:10397200C0F20003105C595C084070470020704799
:0C398200A0F161011A2938BF20387047FD
:0C398E00A0F141011A2938BF2030704719
:10399A0070B541F2C406C2F200060C46326805460A
:1039AA008AB11F2A16D841F22000C2F2000040F85C
:1039BA00225040F6A070C2F2000040F82240501C8B
:1039CA003060002070BD42F26950C0F20000FEF77C
:0C39DA000AFD08B1012070BD3268E2E770
:1039E60070B582B004460078BFF35F8F08B100243B
:1039F60025E043F6D451C0F2000101A8FEF709FE06
:103A06006078810711D541F2C805C2F2000541F27E
:103A1600CC06C2F2000640F004006070284631462B
:103A2600FFF79AFD60788107F5D401281CBF0221B3
:103A36006170441E18BF012401A800F003F8204657
:043A460002B070BD9D
:103A4A0010B5044641F2CC00C2F20000FFF77CFD3B
:103A5A0008B9204610BD216843F65130C0F2000073
:043A6A00FEF77AFDEC
:103A6E0041F2C000C2F200000068BFF35F8F7047E2
:043A7E00FEF745BD4D
:043A8200FFF7FCBF8F
:103A8600090243000201008032090400000102021B
:103A9600010005240010010524010101042402028D
:103AA6000524060001070581031000010904010031
:103AB600020A000000070582024000010705020213
:033AC600400001BC
:103AC9004A616E75617279004665627275617279D3
:103AD900004D6172636800417072696C004D6179D3
:103AE900004A756E65004A756C7900417567757392
:103AF900740053657074656D626572004F63746F0D
:103B0900626572004E6F76656D6265720044656329
:073B1900656D62657200009A
:073B2000414D00504D000073
:0F3B270025612025622025652025542025590081
:103B36002573206661696C656420746F206163710A
:0B3B460075697265206D75746578006C
:103B51002573206661696C656420746F2072656CE1
:0B3B610065617365206D757465780068
:103B6C002573206661696C656420746F2062726FC6
:073B7C0061646361737400D2
:023B830003003D
:103B85001201000200000040470502100001010279
:023B950003012A
:103B970053756E646179004D6F6E64617900547579
:103BA7006573646179005765646E65736461790054
:103BB700546875727364617900467269646179004B
:0A3BC70053617475726461790000A7
:023BD1004300AF
:023BD3002E00C2
:103BD5006261645F66756E6374696F6E5F63616C65
:103BE5006C20776173207468726F776E20696E2020
:103BF5002D666E6F2D657863657074696F6E7320C1
:053C05006D6F64650015
:103C0A002F686F6D652F416E647265772F446F63FD
:103C1A00756D656E74732F53454747455220456D40
:103C2A006265646465642053747564696F205072B8
:103C3A006F6A656374732F5374656C6C6172697310
:103C4A00576172652F6472697665726C69622F7545
:053C5A0073622E6300FF
:103C5F00000000000000545452205245474745537E
:013C6F000054
:093C70005465726D696E616C000F
:093C7900256D2F25642F2579002B
:093C820025483A254D3A2553006E
:103C8B0053756E004D6F6E0054756500576564007B
:0D3C9B0054687500467269005361740000A2
:103CA8004A616E00466562004D61720041707200A3
:103CB8004D6179004A756E004A756C004175670060
:103CC800536570004F6374004E6F7600446563005F
:013CD80000EB
:013CD90000EA
:0D3CDA000007032004170201085710408066
:103CE7006261645F616C6C6F6320776173207468D5
:103CF700726F776E20696E202D666E6F2D65786303
:0D3D0700657074696F6E73206D6F646500E8
:043D1400F5000000B6
:043D18008101000025
:043D1C00C1020000E0
:043D20001118000076
:083D2400ED250000032600005C
:083D2C004353202564200A0026
:103D340030313233343536373839414243444546DD
:103D4400303132333435363738396162636465660D
:103D540020202020202020202068282828282020F7
:103D6400202020202020202020202020202020204F
:103D74004810101010101010101010101010101007
:103D840084848484848484848484101010101010A7
:103D94001081818181818101010101010101010100
:103DA40001010101010101010101011010101010B4
:103DB40010828282828282020202020202020202D1
:103DC4000202020202020202020202101010102079
:103DD4005F5F6378615F67756172645F616371756A
:043DE400697265009B
:103DE8005F5F6378615F67756172645F72656C6558
:043DF800617365008E
:103DFC0000B506480649884205D00268043003B471
:103E0C00904703BCF7E708BC18470000143D0000BE
:043E1C002C3D000039
:103E2000453F0000000000201C150000573F000027
:103E30001C150020483E00007C010000C11200005B
:083E4000FD3D0000530F0000DE
:103E4800DD0881CC05820182CC02820382CC048207
:103E58008582CC81828282CC838284829B0101010B
:103E68008805020101020188020201030201880497
:103E78000201850201888102018202018883020110
:103E88008402019B030103890203050201880102E0
:103E980001020201880302010402018885020181EE
:103EA800020188820201830201B884020105998017
:103EB800068106B9820607B980080999810A010BAB
:103EC80099820CA101F9210ABB0102992120A121A3
:103ED800C92122811FCC4F2E632ECC772E8B2ECC5E
:103EE8009F2EB32ECCC72EDB2ECCEF2E032FCC1754
:103EF8002F2B2FCC3F2F532FCC672F7B2FCC8F2FDF
:103F0800A32FCCB72FCB2FCCDF2FF32FCC07301B11
:103F180030CC2F304330CC57306B30CC7F3093309F
:103F2800CCA7309C13CC9C139C13CC9C139C13449F
:0C3F3800D41020D8102004DC1020000061
:103F4400206861680834002200E04254491EFCD510
:023F54007047B4
:103F560020686168A2680C340B78491C0826002585
:103F66005B0801D20D78491C0570401C521E02D018
:083F7600761EF4D1F0E770475C
:040000030000353391
:00000001FF
