:1000000000600020A5170000BD150000C50C000011
:10001000BD150000BD150000BD150000000000006A
:10002000000000000000000000000000BD150000FE
:10003000BD15000000000000BD150000BD1500004A
:1000400081B078B51446059305AA0092101D009062
:100050000D4E30781F2812D800EB40000B4B03EBFD
:10006000C000156801F01AFB3078094951F82020CA
:100070002046294601F0B8FA307801303070BDE8EA
:10008000784001B0704700BF5310002028090020BD
:04009000440C00001C
:1000940081B018B5039303A800900E4C20781F2854
:1000A40013D800EB40000C4A02EBC00001F0F4FA54
:1000B40020780A4951F820103C2000F015FE3C201D
:1000C40000F02AFE207801302070BDE8184001B00D
:1000D400704700BF5310002028090020440C000082
:1000E40080B50F480078BFF35F8FC00716D10C4866
:1000F40001F090F990B1002000210A4A0A441061ED
:100104001831B1F5A56FF8D10748084A002101F06C
:1001140047F90348BDE8084001F0A4B908BD00BF91
:100124004010002000040020350100000000000001
:1001340010B5044C04F5A560183801F0F5F9A04297
:08014400FAD110BD00040020F7
:10014C000A480178C90718BF7047012101700020C7
:10015C000021074A0A4410611831B1F5347FF8D1F7
:10016C000448054A002101F017B900BF3C100020DB
:0C017C00280C0020890100000000000099
:1001880010B5044C04F53470183801F0D8F9A042C1
:08019800FAD110BD280C002073
:1001A0003FB4ADF5885D04A800F5835B9F4800F07F
:1001B0002BFE0125012000F019FE9D4EB047A348FB
:1001C000CBE90205B0474FF00A089A4CCBE9084842
:1001D00006210DF5805282F88C104FF000090DF5C4
:1001E000805181F88890B0FBF4F0A0F1010ACBE9CE
:1001F00004A5B0476427CBF834700DF5805181F821
:10020000A09001F0A7FACBE90A08B0474FF47A783A
:10021000CBF844800DF5805181F8B09001F09AFA46
:10022000CBE90E07B04742F21077CBF854700DF5CA
:10023000805181F8C09001F08DFACBE91208B047E7
:10024000DFF8F481CBF864800DF5805181F8D0900F
:1002500001F080FACBE91607B047CBF874400DF5F2
:10026000805181F8E09001F075FACBE91A08B047A7
:100270000DF5805181F8F49081F8F09001F06AFA60
:10028000CBE91E04DFF8B481404600F081FD6C4EDE
:100290003046FF2101F096F93046222101F086FA1E
:1002A0003046FF21524601F096F902AF069706A8A4
:1002B00000F5835003906648029039463246FF238A
:1002C000FFF7BEFE384601F03EF93046012101F04D
:1002D00085FA3046012101F07DFA0DF5805080F855
:1002E000F45090F8F500012841F210040BD130468B
:1002F000FF2101F067F93046012101F092F90DF577
:10030000805080F8F5903D195248CBF800000697D0
:1003100003A800F5835603964F4802903946FFF72D
:10032000B9FE384601F00FF906A800F5875ACBF858
:1003300098A04A4CCBE922464FF4A02000F0A0F848
:1003400000EB40003F4901EBC0063069C6F8109051
:10035000B04202D078B1142100E0102101F02BF955
:10036000DBF8980028B1504509D03061CBF898905F
:100370000AE0306108E006A800F5875000E0046854
:100380003661E2683146904706A800F58756304648
:1003900001F0CCF808F1805000F0FAFC00F0DCFE2F
:1003A0002949088820F00C0008804879002048710D
:1003B00001F20242106010644A7942F00F024A7161
:1003C0000A884FF2F0131A400A804A8802F0FD02B0
:1003D0004A800A8842F001020A804A884A800A88D4
:1003E00042F00C020A8011F8052C42F0400201F89C
:1003F000052C40F2FF71C5E90101E9604A1C2A8021
:10040000CDF81418CDF81018CDF80C08ADF8082860
:10041000CBF898601248CBE9220741F22800384413
:10042000314601F09DF8304601F0ADF84005C001BD
:100430007D0F000040420F00A08601000100101057
:10044000000003400004002006000540B80A000038
:10045000C40A0000E80A0000F40A0000F40B0000DF
:04046000180C000074
:1004640010B501F069F9014901F06EB9180C0000EA
:0C047400014A01F065B900BF180C00003F
:1004800000221146044A52F82120824201F1010261
:0C049000F7D10846704700BF100B0000B9
:10049C0010B501F04DF9014901F052B9F40B00000F
:0C04AC00014A01F049B900BFF40B000048
:1004B8004068074940220A700A78D206FCD5054AE6
:1004C800927802F07F02044BCA54022101707047EF
:0C04D8000201054044100020FEFEFFFF62
:1004E40010B501F029F9014901F02EB9F40A000010
:0C04F400014A01F025B900BFF40A000025
:1005000080B54168194890F800218DF8032090F8D3
:1005100006218DF8022090F808218DF8012002882C
:1005200043881A43120417D1007A114A1368DB0773
:100530001EBF137843F001031370136CDB071EBF5B
:10054000136C43F00103136410F0060F03D1C007CE
:100550001CBF0020087008BDB0F80021D20714BFEE
:10056000B0F80601002000F005F800BF02000540C9
:040570000C04054032
:100574007CB50B466D4D2988C90704D16D4CA07814
:1005840068B121880EE0E988884238BF014668488E
:100594000139F3D315F8E22C00F8012BF8E764498C
:1005A4000988218042F2212291424BD0B1F5807F0B
:1005B40031D0B1F5817F6FD0B1F5407F3BD0B1F53B
:1005C400A06F2ED0B1F5D06F5AD0B1F5106F25D0F1
:1005D40040F62122914266D042F22102914236D065
:1005E40042F2A11081423FD0082958D1504EB4792B
:1005F400022C28BF02245448214600F0E3F80130BD
:10060400F9D028788007FCD40A202870B1794E48A4
:1006140000F0D8F87CBD4648807810E0444A08468B
:1006240029E06A460020C2E90000464B0846002142
:1006340000F08CF87CBD3E48807802282FD0012839
:100644001CD02CE03A4A3F4B42F2212013E058B32D
:10065400231D0026364A42F22100002100F076F8DC
:1006640048202870A6707CBD6A460020C2E90000BC
:10067400344B42F2A110002100F068F8482011E048
:100684002B49C8788A7903282AD0022825D0012842
:1006940005D12B4812212AE02548418859B12878F0
:1006A40040F0600028707CBD0120A0702048C08804
:1006B400A0804020F6E70079012830D0022819D024
:1006C400832825D082281CD08128E8D101F044F861
:1006D4001C4B4FF481708121AAE71848432106E09E
:1006E40088780328DBD8144951F82000102100F041
:1006F40043F87CBD01F030F8124B4FF481700221B5
:1007040096E701F029F80F4B4FF4817082218FE7AF
:1007140001F022F80B4B4FF48170832188E701F03C
:100724001BF8084B4FF48170012181E70201054059
:10073400441000204C100020340C00001418000059
:0C074400A618000034100020A4180000CB
:1007500038B51C46154641EA0020FFF791FE00EB34
:100760004000054901EBC000006920B101688B69B8
:0C07700029462246984738BD00040020AE
:10077C00F8B515460446914238BF0D460E4FEEB201
:10078C00402E0DD32046402100F018F80130F9D04E
:10079C0038788007FCD402203870403D4034EEE7B6
:1007AC002046314600F00AF80130F9D0387880073D
:0C07BC00FCD40A203870F8BD0201054092
:1007C800074A92F8E2309B0705D4013906D310F89E
:1007D800013B1370F9E74FF0FF3070470020704776
:0407E80020000540A8
:0C07EC00014800F038BF00BFB818000042
:1007F80010B500F09FFF014900F0A4BFC40A000033
:0C080800014A00F09BBF00BFC40A0000C2
:1008140070B54568124C01262046012100F004FF02
:10082400C00700D170BD2046012100F0D5FF2E7411
:1008340005F11C00A9690B4A14682B7D013BF1D317
:100844008568B4FBF5F606FB15453DB9012505732E
:1008540005686D1A18BF651C15602C461030EDE74D
:080864000000034038100020E1
:10086C000348006910B1024800F095BE704700BF04
:04087C002809002027
:100880000248016909B100F08CBE704740090020A0
:100890000248016909B100F084BE70475809002080
:1008A0000248016909B100F07CBE70477009002060
:1008B0000248016909B100F074BE70478809002040
:1008C0000248016909B100F06CBE7047A009002020
:1008D0000248016909B100F064BE7047B809002000
:1008E0000248016909B100F05CBE7047D0090020E0
:1008F0000248016909B100F054BE7047E8090020C0
:100900000248016909B100F04CBE7047000A00209E
:100910000248016909B100F044BE7047180A00207E
:100920000248016909B100F03CBE7047300A00205E
:100930000248016909B100F034BE7047480A00203E
:100940000248016909B100F02CBE7047600A00201E
:100950000248016909B100F024BE7047780A0020FE
:100960000248016909B100F01CBE7047900A0020DE
:100970000248016909B100F014BE7047A80A0020BE
:100980000248016909B100F00CBE7047C00A00209E
:100990000248016909B100F004BE7047D80A00207E
:1009A0000248016909B100F0FCBD7047F00A00205F
:1009B0000248016909B100F0F4BD7047080B00203E
:1009C0000248016909B100F0ECBD7047200B00201E
:1009D0000248016909B100F0E4BD7047380B0020FE
:1009E0000248016909B100F0DCBD7047500B0020DE
:1009F0000248016909B100F0D4BD7047680B0020BE
:100A00000248016909B100F0CCBD7047800B00209D
:100A10000248016909B100F0C4BD7047980B00207D
:100A20000248016909B100F0BCBD7047B00B00205D
:100A30000248016909B100F0B4BD7047C80B00203D
:100A40000248016909B100F0ACBD7047E00B00201D
:100A50000248016909B100F0A4BD7047F80B0020FD
:100A60000248016909B100F09CBD7047100C0020DC
:100A700000200021054A0A4410611831B1F5407F79
:100A8000F8D10348034A002100F08CBC280900205B
:080A9000990A000000000000BB
:100A980010B5044C04F54070183800F050FDA04221
:080AA800FAD110BD280900205D
:0C0AB000000000000000000041000000F9
:100ABC000000000000000000A11500003517000028
:100ACC00F907000009080000A11500003917000003
:040ADC0015080000F9
:0C0AE00000000000000000009500000075
:100AEC000000000000000000A11500002D17000000
:100AFC00E5040000F5040000A1150000311700000A
:040B0C0001050000DF
:100B10000008000000810000058200000182000042
:100B2000028200000382000004820000858200002F
:100B300081820000828200008382000084820000A3
:100B40000000010000010100050201000102010096
:100B500002020100030201000402010085020100FB
:100B6000810201008202010083020100840201006F
:100B70000000030000010300000203000502010061
:100B8000010201000202010003020100040201004F
:100B9000850201008102010082020100830201003E
:100BA00084020100000005000080060000810600AC
:100BB0000082060000000700008008000000090015
:100BC00000810A0000010B0000820C0000A101005E
:100BD00000210A00000000000000010000000200E7
:0C0BE0000021200000A1210000212200C3
:100BEC000000000000000000A11500002517000007
:100BFC009D040000AD040000A115000029170000A1
:040C0C00B904000027
:100C10000000000000000000A1150000DD1600002B
:100C20006504000075040000A1150000E116000035
:040C3000E5160000C5
:100C34006417000074170000841700009417000064
:100C44006D0800008108000091080000A108000060
:100C5400B1080000C1080000D1080000E10800004C
:100C6400F108000001090000110900002109000039
:100C74003109000041090000510900006109000028
:100C8400710900008109000091090000A109000018
:100C9400B1090000C1090000D1090000E109000008
:100CA400F1090000010A0000110A0000210A0000F5
:100CB400310A0000410A0000510A0000610A0000E4
:100CC40008490A68002AFED41EF0040F0CBFEFF393
:100CD4000880EFF3098042F000420A608169023122
:080CE400816170472CED00E076
:100CEC00094B0A4A70B51C689442144609D01D6819
:100CFC0000235E59E6500433B3F51B7FF9D1024B48
:100D0C001A6044F8201070BD08ED00E000000020CF
:100D1C00042804D1134B1A6842F4803205E00528EC
:100D2C0005D1104B1A6842F400321A60704706283D
:100D3C0004D10C4B1A6842F48022F6E70F2804D138
:100D4C00094B1A6842F00202EFE70AD91038074B38
:100D5C00420953F8223000F01F00012212FA00F071
:100D6C001860704724ED00E010E000E07C0D0000FE
:100D7C0000E100E004E100E008E100E00CE100E04B
:040D8C0010E100E092
:100D900000F07043B3F1704F15D100F47F42114B56
:100DA000120A00F0FF00D318800003F0704240F0F8
:100DB000007023F07F43104323F4700340EA431391
:100DC00001221A607047020F81B200F4F810000C83
:100DD00011FA00F0044B53F822301A6810431860DF
:0C0DE000704700BF00E60F40D411000077
:100DEC00054B18B11A6842F0006202E01A6822F052
:0C0DFC0000621A60704700BF60E00F400A
:100E0800534B2DE9F0411A68044612F0E04F06D022
:100E18001A68504B02EA0303B3F1805F02D1002C39
:100E2800C0F294804C494D4A0B68166843F400633D
:100E380023F4800546F4006613F0020F0D60166077
:100E480002D014F0020F05D015F0010F1AD014F0DB
:100E5800010F17D164F003031D403F4B002E1D60A6
:100E680005DA06F07003302B05D0702B02E005F090
:100E78003003302B02D14FF4805001E04FF40020B2
:100E880000F099FB04F4FE6325F4FE6545EA0308C7
:100E9800334D26F0004604EA050526F0700645EABB
:100EA800060604F0080546EAC5052C4F2A4E102010
:100EB800C6F800803D6000F07EFB28F4405804F43A
:100EC8000052284904F4405325F4005548EA030326
:100ED80040201543244A086052BF33603D603360A8
:100EE80023F0F86304EA020223F0030358BF3D60CD
:100EF800134304F0FC5125F0FC5214F0804F42EAF1
:100F0800010208D0194922F4800204EA010143F4DD
:100F180080030A4301E022F0804214F4006F0CD1F0
:100F28004FF400411248006810F0400F01D1013918
:100F3800F8D123F4006322F40062074910200B6003
:100F4800064B1A60BDE8F04100F035BBBDE8F08102
:100F580000E00F400000FF7060E00F4070E00F40BD
:100F68003000008058E00F400300C00700004040F8
:040F780050E00F40F6
:100F7C00694B70B51A6810331B68002BB4BF03F0B3
:100F8C00700102F0300120293AD004D869B110293F
:100F9C0040F0C08010E060295DD0702958D0302915
:100FAC0040F0B88047F2305063E002F4F8605B49DF
:100FBC00800951F820005CE05949086810F0E04FB6
:100FCC004CD00C68574804EA0000B0F1805F45D063
:100FDC000C68544804EA0000534CA04203D1096841
:100FEC0089B202293CD04E484E49046804EA0101FA
:100FFC004E4CA14236D100684D4980B24D4C22E096
:10100C004749086810F0E04F2ED00C68454804EAB8
:10101C000000B0F1805F27D00C68424804EA000061
:10102C00414CA04203D1096889B202291ED03C4828
:10103C003C49046804EA01013C4CA14218D1006807
:10104C003D493E4C80B200280CBF2046084610E0BB
:10105C004FF400400DE04FF480000AE0384808E0FF
:10106C00344806E0324804E0364802E0334800E0F9
:10107C003148002B02DA13F4006F01E012F4006F18
:10108C002AD13149264D09682C6814F0E04F43F6FB
:10109C00E07401EA040406D02E68224D06EA050528
:1010AC00B5F1805F06D16409023401F01F0560437D
:1010BC00023505E06409604301F01F0501356D0040
:1010CC00B0FBF5F011F4804F18BF400811F4004F3D
:1010DC0018BF800842F4800212F4800F1BD0002B42
:1010EC0011DA13F0804F07D013F4006F04D103F022
:1010FC00FE5340009B0D02E003F0FC53DB0D01336B
:10110C00B0FBF3F070BD02F0F062D20D0132B0FB17
:10111C00F2F070BD002070BD60E00F40681100005F
:10112C0000E00F400000FF700000011000000310F1
:10113C000024F400001BB70000093D00C0C62D00C0
:0C114C00C0E1E4007038390064E00F409E
:10115800024B1A6822F480421A60704770E00F4010
:1011680040420F0000201C0080841E0000802500E3
:10117800999E36000040380000093D0000803E007E
:1011880000004B00404B4C0000204E00808D5B005F
:1011980000C05D000080700000127A0000007D0031
:1011A80080969800001BB7000080BB00C0E8CE0006
:1011B800647ADA000024F4000000FA0080A8120122
:0C11C800002D310100366E0140787D01E1
:0C11D40000E10F4004E10F4008E10F4073
:1011E00010B50023074AD90052F83340844202D197
:1011F0005218506810BD01330C2BF3D14FF0FF3063
:0812000010BD00BF0812000040
:1012080000000340230000000010034025000000F8
:101218000020034027000000003003403300000096
:101228000040034056000000005003406C000000DE
:10123800006003406E000000007003407000000072
:1012480000C004407200000000D004407400000098
:1012580000E004407600000000F004407800000040
:10126800034C206804348047FBE7FEF795FFFEE750
:041278007C190000DD
:10127C0002480468204600F003F8FBE72013000046
:10128C0070B504460D4E314600F030F805460C485A
:10129C0085420CD0B54208D00A4885420AD0014696
:1012AC00204600F023F82046A847002070BD4FF0E0
:1012BC00FF3070BD0120FFF7D8FF00BF45160000BE
:0812CC0043160000411600006A
:1012D40010B50246054B187800284FF0010001BFF5
:1012E400034CC4E900211870002010BD52100020E6
:0412F40010100020B6
:1012F8000200064808D4052A06D8054B53F82200F0
:1013080043F8221000B90348704700BF4316000095
:08131800F80F0020411600004F
:0413200000000000C9
:1013240003480449091A08B500F01CF80CBC184716
:08133400581000205818002099
:10133C0020F007010831814203D3064A1068884225
:10134C0001D200207047411A116003490968084412
:0C135C00704700BF2C1000203010002053
:10136800024A116002490860704700BF2C10002033
:041378003010002011
:10137C00EFF3108072B6B0FA80F0400901490860B2
:08138C00704700BF281000208B
:101394000248006800B162B6704700BF2810002000
:1013A40070B50D4604460B4E306858B11F280DD851
:1013B4000A4941F820500A4941F820400130306080
:1013C400002070BD044800F034F908B1012070BD5C
:1013D4003068EBE71C100020E9130000F80E002031
:0413E400780F00205E
:1013E80010B5084C206860B16FF0030101EB800173
:1013F80005484058054A51588847206801382060F8
:10140800F1E710BD1C100020F80E0020780F002016
:1014180038B504460078BFF35F8F08B1002038BDA7
:1014280068460C4900F050F86578A80707D545F0DC
:10143800040060700848094900F0DAF9F4E7012D62
:101448001CBF02206070684600F050F8681E18BF84
:10145800012038BD30190000201000202410002081
:101468007CB50446BFF35F8F0125057001A80949C3
:1014780000F02AF86678657000F038F8700703D530
:10148800054800F0B5F900B97CBD0448014900F0F1
:10149800E4F800BF44190000201000208D18000057
:1014A80010B5034C0020206000F096F9206010BDB4
:0414B80024100020DC
:1014BC0010B5034C0020206000F08CF9206010BDAA
:0414CC0020100020CC
:1014D00010B504460160054800F08EF908B92046B1
:1014E00010BD2168024800F0BCF800BF24100020A5
:0414F0005718000089
:1014F40010B50446044800F07DF908B9204610BD33
:101504002168024800F0ABF8241000207218000093
:0C151400014800F075B900BF181000205D
:0C15200080B5014800F09DF8ED180000B7
:10152C0010B504460069A04202D020B1142100E09D
:0A153C00102100F03AF8204610BD1F
:1015460010B504460069A04202D020B1142100E083
:0A155600102100F02DF8204610BD12
:1015600010B50446086920B1884204D00168896832
:101570008847206105E0246108690168CA6821463E
:061580009047204610BD5B
:1015860010B504460069A04202D020B1142100E043
:0A159600102100F00DF8204610BDF2
:0215A000704792
:0E15A200006910B1016889690847FFF71EF95A
:0615B000082100F02DB936
:0615B600026851580847CD
:0215BC00FEE748
:0615BE000138FDD1704769
:1015C400C26840F2011301EA030322EA0303C36081
:0215D40070475E
:1015D60011F0FF0F18BF826211F47F4F18BFC2626D
:0215E60070474C
:1015E80070B50C461546FFF7F7FD14F0FF0F0646D9
:1015F80005D02946FFF776FB3046FFF78BFB14F43E
:101608007F4F09D0741C20462946FFF76BFB204604
:0A161800BDE87040FFF77EBB70BD17
:0A162200836923EA01038361704726
:0A162C0009B1006A7047C0697047F9
:0A163600014600200022FFF74ABE23
:021640007047F1
:021642007047EF
:021644007047ED
:1016460010B50446FFF797FE2046FFF774FE00F03C
:0616560002F8204610BD61
:06165C000446FFF799BEF1
:06166200FFF70BFEFEE79E
:1016680010B500F006F8040001D1FFF755FF204639
:0216780010BDA3
:10167A0038B50446012898BF01242046FFF7DEFF4B
:10168A00050004D1FFF741FF08B18047F5E7284676
:02169A0038BD59
:10169C0038B50D460446006900212161A04202D0F4
:1016AC0020B1142100E01021FFF77FFF286928B139
:1016BC00A84205D020610020286107E0206105E0E8
:1016CC00246128690168CA6821469047204638BDC4
:0416DC00FFF768BFED
:0416E000FFF766BFEB
:1016E40030B5426841F21000104403880C788168D8
:1016F4004D1C00219D4228BF0D4685602A4482F876
:101704001048D0E902329A4206D1038801329A4243
:1017140038BF1146C16030BD41680131416030BD00
:04172400FFF744BFC8
:04172800FFF742BFC6
:04172C00FFF740BFC4
:04173000FFF73EBFC2
:04173400FFF73CBFC0
:04173800FFF73ABFBE
:08173C0004460820FFF792BFEC
:081744000A604068486070472C
:08174C006268C0E9001210BD43
:08175400B0FBF4F0013870470E
:08175C006A46C2E90011704762
:101764000403090400000000000000000000000061
:101774000E0341006E0064007200650077000000F3
:101784000A035400450053005400300000000000D8
:1017940010033100320033003400350036003700C6
:0817A400AFF30080FFF75EFDCA
:1017AC00C36823F4807323F00103C3600B0E036042
:1017BC0001F0FF03090A01F0FF0143F4007341F447
:0817CC00007143608160704769
:0817D40083690B438361704738
:0417DC0041627047AF
:0417E000002070472E
:1017E40010B50446FFF7C8FD2046FFF7D7FEFFF704
:0417F400CFFD10BD58
:0C17F80080B5FFF7F1FF00B1012008BD33
:081804000068BFF35F8F70471D
:04180C00FFF7EABF39
:04181000FFF7FCBF23
:1018140009024300020100803209040000010202AF
:101824000100052400100105240101010424020221
:1018340005240600010705810310000109040100C5
:10184400020A0000000705820240000107050202A7
:0318540040000150
:101857002573206661696C656420746F206163710C
:0B18670075697265206D75746578006E
:101872002573206661696C656420746F2072656CE3
:0B18820065617365206D75746578006A
:10188D002573206661696C656420746F2062726FC8
:07189D0061646361737400D4
:0218A40003003F
:1018A600120100020000004047050210000101027B
:0218B60003012C
:1018B8006261645F66756E6374696F6E5F63616CA5
:1018C8006C20776173207468726F776E20696E2060
:1018D8002D666E6F2D657863657074696F6E732001
:0518E8006D6F64650056
:1018ED006261645F616C6C6F6320776173207468F3
:1018FD00726F776E20696E202D666E6F2D65786321
:0D190D00657074696F6E73206D6F64650006
:04191C00E5000000E2
:041920004D01000075
:04192400710A000044
:08192800A9140000BD14000029
:101930005F5F6378615F67756172645F6163717532
:041940006972650063
:101944005F5F6378615F67756172645F72656C6520
:041954006173650056
:1019580000B506480649884205D00268043003B439
:10196800904703BCF7E708BC184700001C190000A3
:041978003019000022
:10197C0095190000000000205410000025130000F1
:08198C0059190000731200005C
:10199400206861680834002200E04254491EFCD5E6
:0219A40070478A
:04000003000017A53D
:00000001FF
