:1000000000600020AD1F0000671B00009D11000074
:10001000671B0000671B0000671B0000000000005A
:10002000000000000000000000000000671B00004E
:10003000671B000000000000671B0000671B00003A
:1000400081B078B51446059305AA0092101D009062
:100050000D4E30781F2812D800EB40000B4B03EBFD
:10006000C000156801F0B2FE3078094951F820202F
:100070002046294601F08DFD307801303070BDE812
:10008000784001B0704700BF0B100020E00800204E
:040090001C1100003F
:1000940081B03CB5059305A801900D4D28781F2823
:1000A40011D8144600EB40000A4A02EBC00001F0EC
:1000B4008BFE2878084951F82010204601F096FD5F
:1000C400287801302870BDE83C4001B0704700BF7B
:0C00D4000B100020E00800201C110000B0
:1000E00080B50F480078BFF35F8FC00716D10C486A
:1000F00001F0A6FB90B1002000210A4A0A441061D9
:100100001831B1F59C6FF8D10748084A002101F079
:100110005DFB0348BDE8084001F0BABB08BD00BF65
:100120000010002000040020310100000000000049
:1001300010B5044C04F59C60183801F00BFCA0428B
:08014000FAD110BD00040020FB
:100148000A480178C90718BF7047012101700020CB
:100158000021074A0A4410611831B1F5347FF8D1FB
:100168000448054A002101F02DBB00BFFC0F002008
:0C017800E00B00208501000000000000EA
:1001840010B5044C04F53470183801F0EEFBA042AD
:08019400FAD110BDE00B0020C0
:10019C002DE9F04FADF58F5D85B003A800F58358C0
:1001AC000127D54848E90107C94EB0474FF00A0B63
:1001BC00C84CC8E9054B06210DF5805282F87C101D
:1001CC0000250DF5805181F87850B0FBF4F0A0F1CA
:1001DC00010AC8E901A7B0476427C8F828700DF5D3
:1001EC00805181F8905001F0B7FEC8E9070BB04779
:1001FC004FF47A7BC8F838B00DF5805181F8A050D7
:10020C0001F0AAFEC8E90B07B04742F21079C8F812
:10021C0048900DF5805181F8B05001F09DFEC8E971
:10022C000F0BB047AC4FC8F858700DF5805181F8E2
:10023C00C05001F091FEC8E91309B047C8F86840F6
:10024C000DF5805181F8D05001F086FEC8E91707F2
:10025C00B0470DF5805181F8E45081F8E05001F081
:10026C007BFEC8E91B049D4801F002F8DFF870B270
:10027C00ABF500363046FF2101F073FC30462221ED
:10028C0001F092FE3046FF21524601F073FC02AFA2
:10029C0006979A48029002A800F58359CDF80C9065
:1002AC0039463246FF23FFF7C5FEDFF838A2384641
:1002BC00D0473046012101F08FFE3046012101F07C
:1002CC0087FE01200DF5805181F8E40041F2100009
:1002DC004FF400613E183180481EC6E90150F060B1
:1002EC00CDF81408CDF81008CDF80C58ADF8081856
:1002FC0006A800F58E50C8F87C01814AC8E95B2736
:10030C0006F118010191B162C6E9062701F036FB2E
:10031C0009F1780009F12801C6E911100DF58E5686
:10032C00C8F864617748C8E955076F4C20203146FE
:10033C00A0473046D04702A800F58D55C8F84C515F
:10034C007148C8E94F0720202946A0472846D047C6
:10035C0004A800F58C55C8F834516C48C8E9490715
:10036C0010202946A0472846D04706A800F58B55F3
:10037C00C8F81C516648C8E94307DFF87091284655
:10038C0042F221210022C847DFF864A12846D04759
:10039C000DF58B55C8F804515E48C8E93D07284651
:1003AC0042F221010022C8472846D04702A800F596
:1003BC008A55C8F8EC505848C8E93707284642F225
:1003CC00A1110022C8472846D04704A800F589553A
:1003DC00C8F8D4505148C8E9310728464FF4106189
:1003EC000022C8472846D04706A800F58855C8F80B
:1003FC00BC504B48C8E92B0728464FF48171812229
:10040C00C8472846D0470DF58855C8F8A45045482C
:10041C00C8E9250701F094FB2846D04702A800F54F
:10042C008755C8F88C504048C8E91F0701F088FB75
:10043C002846D0473D48C8F8400106A800F58E5123
:10044C00C8F87C113A4802AA02F58D55C8E95B053B
:10045C000C465A46FFF718FE204622498847C8F832
:10046C0064613448C8E9550530464FF4A061002258
:10047C00C8473046D047194800F1805000F0F8FECC
:10048C0001F012F83C2000F0B9FE584640F2FF3162
:10049C0001F0B8F858460F2101F0CAF858464FF051
:1004AC00FF3101F092FB5846012101F097FD1149F3
:1004BC00584601F081F8584601F0D5FB019801F03F
:1004CC005DFA00200DF58F5D05B0BDE8F08F00BF23
:1004DC00D912000040420F00A0860100010010104C
:1004EC00000005406F1900002109000045050000BF
:1004FC00551900000F0E03FF340E0000400E0000D3
:10050C00640E0000880E0000AC0E0000D00E00003F
:10051C00C40F0000E80F00000C10000030100000A9
:10052C0054100000781000009C100000C010000057
:08053C00CC100000F0100000DB
:1005440038B5044642EA012000F020F800EB4000F0
:100554000D4901EBC005286900212961A84202D098
:1005640020B1142100E0102101F0E6FA206928B13D
:10057400A04205D028610020206138BD286138BD23
:0C0584002D6101F0DCFA38BD00040020FD
:1005900000221146044A52F82120824201F1010250
:0C05A000F7D10846704700BFEC0E0000C9
:1005AC0010B501F0BFFC014901F0C4BCF010000013
:0C05BC00014A01F0BBBC00BFF0100000C1
:1005C80010B501F0B1FC014901F0B6BCCC10000037
:0C05D800014A01F0ADBC00BFCC100000D7
:1005E4007CB544681F4D284601F008FD060029D05B
:1005F400F00725D02846002101F03EFB00B301900E
:10060400194E01AB28460021324601F045FD174939
:10061400887808B3088821E096FAA6F0B0FA80F04A
:10062400C0F12E01102838BF411E01EB41001049D2
:1006340001EBC000016909B101F0B2F9701E064076
:10064400002EE9D1284601F00DF810F0060F02D172
:10065400C00718BF26707CBD30880880214600F092
:100664000FF800BF00000540D00F00200410002048
:04067400E00B002077
:0C067800014801F08ABB00BF73210000A4
:100684007CB50B4642F22121884252D0B0F5807FDE
:1006940037D0B0F5817F00F08480B0F5407F41D041
:1006A400B0F5A06F33D0B0F5D06F6ED0B0F5106F49
:1006B40041D040F62121884266D042F2210188428D
:1006C40043D042F2A111884250D0082840F09E80C5
:1006D4007F4EB579022D28BF0225824C834A2046DD
:1006E40000212B4601F0E8FA0130F7D001F02AFC92
:1006F4000130FBD0B3797D4A2046002101F0DCFAB9
:100704007CBD734880780128764819D04DE06A464C
:100714000020C2E90000724B4FF4A060002100F0F9
:10072400E7F87CBD6A48807802283DD0012806D0CD
:100734003AE06B4B0846664A002100F0D9F8694854
:100744000122002101F0A9FA7CBD674CA07878B39E
:10075400231D00255E4A0846002100F0C9F86148BF
:100764000021012201F099FAA5707CBD6A4600209F
:10077400C2E9000008460021594B00F0B9F8594875
:100784000021012201F089FA7CBD5149C8788A7997
:10079400032831D002282CD0012837D14F48122108
:1007A40031E04B48418859B14E480021002231E0E4
:1007B4000120A0704648C088A0804A480022C0E7B3
:1007C400007901287CD0022827D0832861D0822890
:1007D40044D0812872D1434C2046102101F0BCFB47
:1007E4002046102101F0B4FB102001F0E0F8812133
:1007F40059E03948212106E08878032806D835498C
:1008040051F82000102101F00FFB7CBD3548002178
:100814004FF4005201F008FC7CBD324C0025204608
:100824002021002201F018FC20462021002201F0A2
:10083400EBFB202001F0BBF86A46C2E90055284BC7
:100844004FF48170022100F053F820460021012268
:1008540001F023FA20462021002293E7202001F012
:10086400A6F8204C2046202101F072FB6A460020A5
:10087400C2E900001A4B4FF48170822100F038F86D
:100884002046202101F068FB40F68C2001F06AF933
:1008940012E0144C2046302101F05EFB204630214A
:1008A40001F056FB83216A460020C2E900000C4B8C
:1008B4004FF4817000F01CF8204661E7094875E7A1
:1008C4006A46C2E900114FF48170012154E700BF68
:1008D400D00F00200C110000A82100000C100020F3
:1008E400F40F0020000005400410002071210000D6
:1008F40038B51C46154641EA0020FFF747FE00EBD9
:100904004000054901EBC000006920B101688B6912
:0C09140029462246984738BD0004002008
:10092000B0B58AB090FAA0F0B0FA80F000EB4000C9
:10093000294A02EBC000A0F11804086920B18842DE
:1009400004D0016889688847049004E069460491EE
:100950000268D26890476D46AC4238D0216904984D
:10096000A84204D0A1420ED0206104912FE0A14200
:100970000168CA6813D021469047049801F0EBF84B
:100980002069049022E00868C2680846294690471A
:10099000206901F0E0F804982061049517E006A9A9
:1009A0009047049801F0D7F80027049701F0C9F8A0
:1009B000206901F0D0F8276104950698C26806A85E
:1009C000214690470698016906A888472461684631
:0C09D00000F0CDFF0AB0B0BDE00B00202D
:1009DC0010B501F0A7FA014901F0ACBA9C10000067
:0C09EC00014A01F0A3BA00BF9C100000FB
:1009F80010B501F099FA014901F09EBA781000008B
:0C0A0800014A01F095BA00BF7810000010
:100A140010B501F08BFA014901F090BA54100000AE
:0C0A2400014A01F087BA00BF5410000026
:100A300010B501F07DFA014901F082BA30100000D2
:0C0A4000014A01F079BA00BF301000003C
:100A4C00F8B546681078032816D1144641F24200D6
:100A5C00002131520C4D0D4F284610214FF40052FD
:100A6C00B847284620214FF40052B8472846202189
:100A7C000022B8470120206041F24200315A21F493
:100A8C0000713152F8BD00BF00000540211D00006F
:100A9C0010B501F047FA014901F04CBA0C100000F6
:0C0AAC00014A01F043BA00BF0C1000002A
:100AB80010B501F039FA014901F03EBAE80F00001B
:0C0AC800014A01F035BA00BFE80F000041
:100AD4001268406800F58150014901F00DBB00BF68
:040AE400D00F00200F
:100AE80010B501F021FA014901F026BAC40F00003F
:0C0AF800014A01F01DBA00BFC40F00004D
:100B040010B501F013FA014901F018BAD00E000033
:0C0B1400014A01F00FBA00BFD00E000033
:100B200010B501F005FA014901F00ABAAC0E000057
:0C0B3000014A01F001BA00BFAC0E000049
:100B3C0010B501F0F7F9014901F0FCB9880E00007D
:0C0B4C00014A01F0F3B900BF880E000060
:100B580010B501F0E9F9014901F0EEB9640E0000A1
:0C0B6800014A01F0E5B900BF640E000076
:100B740010B501F0DBF9014901F0E0B9400E0000C5
:0C0B8400014A01F0D7B900BF400E00008C
:100B900070B54568124C01262046012101F016F877
:100BA000C00700D170BD2046012101F01BFA2E7450
:100BB00005F11C00A9690B4A14682B7D013BF1D398
:100BC0008568B4FBF5F606FB15453DB901250573AF
:100BD00005686D1A18BF651C15602C461030EDE7CE
:080BE00000000340F80F0020A3
:100BE8000348006910B1024800F0D8BE704700BF42
:040BF800E0080020F1
:100BFC000248016909B100F0CFBE7047F808002027
:100C0C000248016909B100F0C7BE70471009002005
:100C1C000248016909B100F0BFBE704728090020E5
:100C2C000248016909B100F0B7BE704740090020C5
:100C3C000248016909B100F0AFBE704758090020A5
:100C4C000248016909B100F0A7BE70477009002085
:100C5C000248016909B100F09FBE70478809002065
:100C6C000248016909B100F097BE7047A009002045
:100C7C000248016909B100F08FBE7047B809002025
:100C8C000248016909B100F087BE7047D009002005
:100C9C000248016909B100F07FBE7047E8090020E5
:100CAC000248016909B100F077BE7047000A0020C4
:100CBC000248016909B100F06FBE7047180A0020A4
:100CCC000248016909B100F067BE7047300A002084
:100CDC000248016909B100F05FBE7047480A002064
:100CEC000248016909B100F057BE7047600A002044
:100CFC000248016909B100F04FBE7047780A002024
:100D0C000248016909B100F047BE7047900A002003
:100D1C000248016909B100F03FBE7047A80A0020E3
:100D2C000248016909B100F037BE7047C00A0020C3
:100D3C000248016909B100F02FBE7047D80A0020A3
:100D4C000248016909B100F027BE7047F00A002083
:100D5C000248016909B100F01FBE7047080B002062
:100D6C000248016909B100F017BE7047200B002042
:100D7C000248016909B100F00FBE7047380B002022
:100D8C000248016909B100F007BE7047500B002002
:100D9C000248016909B100F0FFBD7047680B0020E3
:100DAC000248016909B100F0F7BD7047800B0020C3
:100DBC000248016909B100F0EFBD7047980B0020A3
:100DCC000248016909B100F0E7BD7047B00B002083
:100DDC000248016909B100F0DFBD7047C80B002063
:100DEC0000200021054A0A4410611831B1F5407FFA
:100DFC00F8D10348034A002100F0E2BCE0080020CF
:080E0C00150E000000000000BB
:100E140010B5044C04F54070183800F0A6FDA0424B
:080E2400FAD110BDE008002026
:0C0E2C0000000000000000004100000079
:100E38000000000000000000A3190000291F0000A6
:100E4800750B0000850B0000A31900002D1F000082
:040E5800910B0000FA
:100E5C000000000000000000A3190000151F000096
:100E6C00590B0000690B0000A3190000191F0000AA
:040E7C001D1F000036
:100E80000000000000000000A31900000D1F00007A
:100E90003D0B00004D0B0000A3190000111F0000C6
:040EA000BD1A000077
:100EA4000000000000000000A3190000051F00005E
:100EB400210B0000310B0000A3190000091F0000E2
:040EC400151A0000FB
:100EC8000000000000000000A3190000FD1E000043
:100ED800050B0000150B0000A3190000011F0000FE
:040EE800EB19000002
:100EEC000008000000810000058200000182000063
:100EFC000282000003820000048200008582000050
:100F0C0081820000828200008382000084820000C3
:100F1C0000000100000101000502010001020100B6
:100F2C00020201000302010004020100850201001B
:100F3C00810201008202010083020100840201008F
:100F4C000000030000010300000203000502010081
:100F5C00010201000202010003020100040201006F
:100F6C00850201008102010082020100830201005E
:100F7C0084020100000005000080060000810600CC
:100F8C000082060000000700008008000000090035
:100F9C0000810A0000010B0000820C0000A101007E
:100FAC0000210A0000000000000001000000020007
:100FBC000000000000000000A3190000DD1E00006E
:100FCC00E90A0000F90A0000A3190000E11E000064
:040FDC00E51E00000E
:100FE0000000000000000000A3190000D51E000052
:100FF000B90A0000C90A0000A3190000D91E0000A8
:04100000D50A00000D
:101004000000000000000000A3190000CD1E000035
:101014009D0A0000AD0A0000A3190000D11E0000C3
:04102400D1190000DE
:101028000000000000000000A3190000C51E000019
:10103800310A0000410A0000A3190000C91E00007F
:041048004D0A00004D
:10104C000000000000000000A3190000AD1E00000D
:10105C00150A0000250A0000A3190000B11E0000AB
:04106C00B51E0000AD
:101070000000000000000000A3190000851E000011
:10108000F9090000090A0000A3190000891E0000E8
:041090008D1E0000B1
:101094000000000000000000A3190000591E000019
:1010A400DD090000ED090000A31900005D1E000029
:0410B400611E0000B9
:0C10B80000000000000000009500000097
:1010C4000000000000000000A3190000251E00001D
:1010D400C9050000D9050000A3190000291E00005D
:0410E400E50500001E
:1010E8000000000000000000A31900000D1E000011
:1010F800AD050000BD050000A3190000111E000089
:04110800151E0000B0
:10110C006C1F00007C1F00008C1F00009C1F000047
:10111C00E90B0000FD0B00000D0C00001D0C000085
:10112C002D0C00003D0C00004D0C00005D0C00006F
:10113C006D0C00007D0C00008D0C00009D0C00005F
:10114C00AD0C0000BD0C0000CD0C0000DD0C00004F
:10115C00ED0C0000FD0C00000D0D00001D0D00003D
:10116C002D0D00003D0D00004D0D00005D0D00002B
:10117C006D0D00007D0D00008D0D00009D0D00001B
:10118C00AD0D0000BD0D0000CD0D0000DD0D00000B
:10119C0008490A68002AFED41EF0040F0CBFEFF3B6
:1011AC000880EFF3098042F000420A608169023145
:0811BC00816170472CED00E099
:1011C400034C206804348047FBE7FEF7E5FFFEE7A5
:0411D400582200009D
:1011D800094B0A4A70B51C689442144609D01D6828
:1011E80000235E59E6500433B3F51B7FF9D1024B57
:1011F8001A6044F8201070BD08ED00E000000020DF
:10120800042804D1134B1A6842F4803205E00528FB
:1012180005D1104B1A6842F400321A60704706284C
:1012280004D10C4B1A6842F48022F6E70F2804D147
:10123800094B1A6842F00202EFE70AD91038074B47
:10124800420953F8223000F01F00012212FA00F080
:101258001860704724ED00E010E000E0681200001C
:1012680000E100E004E100E008E100E00CE100E05A
:0412780010E100E0A1
:10127C0000F07043B3F1704F15D100F47F42114B65
:10128C00120A00F0FF00D318800003F0704240F007
:10129C00007023F07F43104323F4700340EA4313A0
:1012AC0001221A607047020F81B200F4F810000C92
:1012BC0011FA00F0044B53F822301A6810431860EE
:0C12CC00704700BF00E60F403015000026
:1012D800694B70B51A6810331B68002BB4BF03F054
:1012E800700102F0300120293AD004D869B11029E0
:1012F80040F0C08010E060295DD0702958D03029B6
:1013080040F0B88047F2305063E002F4F8605B497F
:10131800800951F820005CE05949086810F0E04F56
:101328004CD00C68574804EA0000B0F1805F45D003
:101338000C68544804EA0000534CA04203D10968E1
:1013480089B202293CD04E484E49046804EA01019A
:101358004E4CA14236D100684D4980B24D4C22E036
:101368004749086810F0E04F2ED00C68454804EA59
:101378000000B0F1805F27D00C68424804EA000002
:10138800414CA04203D1096889B202291ED03C48C9
:101398003C49046804EA01013C4CA14218D10068A8
:1013A8003D493E4C80B200280CBF2046084610E05C
:1013B8004FF400400DE04FF480000AE0384808E0A0
:1013C800344806E0324804E0364802E0334800E09A
:1013D8003148002B02DA13F4006F01E012F4006FB9
:1013E8002AD13149264D09682C6814F0E04F43F69C
:1013F800E07401EA040406D02E68224D06EA0505C9
:10140800B5F1805F06D16409023401F01F0560431D
:10141800023505E06409604301F01F0501356D00E0
:10142800B0FBF5F011F4804F18BF400811F4004FDD
:1014380018BF800842F4800212F4800F1BD0002BE2
:1014480011DA13F0804F07D013F4006F04D103F0C2
:10145800FE5340009B0D02E003F0FC53DB0D01330B
:10146800B0FBF3F070BD02F0F062D20D0132B0FBB8
:10147800F2F070BD002070BD60E00F40C4140000A1
:1014880000E00F400000FF70000001100000031092
:101498000024F400001BB70000093D00C0C62D0061
:0C14A800C0E1E4007038390064E00F403F
:1014B400024B1A6822F480421A60704770E00F40B1
:1014C40040420F0000201C0080841E000080250084
:1014D400999E36000040380000093D0000803E001F
:1014E40000004B00404B4C0000204E00808D5B0000
:1014F40000C05D000080700000127A0000007D00D2
:1015040080969800001BB7000080BB00C0E8CE00A6
:10151400647ADA000024F4000000FA0080A81201C2
:0C152400002D310100366E0140787D0181
:0C15300000E10F4004E10F4008E10F4013
:10153C0010B50023074AD90052F83340844202D137
:10154C005218506810BD01330C2BF3D14FF0FF3003
:08155C0010BD00BF6415000082
:101564000000034023000000001003402500000099
:101574000020034027000000003003403300000037
:101584000040034056000000005003406C0000007F
:10159400006003406E000000007003407000000013
:1015A40000C004407200000000D004407400000039
:1015B40000E004407600000000F0044078000000E1
:1015C40011F00F0203D0C3889BB21343C38011F4FC
:1015D400606204D003899BB243EA1223038111F0B1
:1015E4007F4F03D0C37A43EA1163C37211F4803F7F
:1015F40002D00123C0F8083411F4003F02D0024B9A
:0C16040001221A60704700BF4804054036
:1016100011F0FF0F03D0C37A23EA0103C37211F460
:10162000807F02D00023C0F8083411F4007F02D07C
:0C163000014B00221A607047480405407E
:10163C0011F0FF0F02D0C37A0B43C37211F4807FF9
:10164C0002D00123C0F8083411F4007F02D0024B01
:0C165C0001221A60704700BF48040540DE
:101668000346807AD3F80C2412F0010F07D093F8C0
:101678000C2440F4807042F0010283F80C24064BDD
:101688001A6812F0010F05D01A6840F4007042F091
:0C16980001021A60704700BF4C040540BE
:1016A40002480468204600F003F8FBE748170000EE
:1016B40070B504460D4E314600F030F805460C482E
:1016C40085420CD0B54208D00A4885420AD001466A
:1016D400204600F023F82046A847002070BD4FF0B4
:1016E400FF3070BD0120FFF772FD00BF751D0000C3
:0816F400731D0000711D0000D0
:1016FC0010B50246054B187800284FF0010001BFC9
:10170C00034CC4E900211870002010BD0A10002001
:04171C00C80F0020D2
:101720000200064808D4052A06D8054B53F82200C3
:1017300043F8221000B90348704700BF731D000032
:08174000B00F0020711D000034
:04174800000000009D
:10174C0003480449091A08B500F01CF80CBC1847EA
:08175C002010002020180020DD
:1017640020F007010831814203D3064A10688842F9
:1017740001D200207047411A1160034909680844E6
:0C178400704700BFEC0F0020F00F0020A9
:10179000024A116002490860704700BFEC0F002048
:0417A000F00F002026
:1017A400EFF3108072B6B0FA80F040090149086086
:0817B400704700BFE80F0020A0
:1017BC000248006800B162B6704700BFE80F002015
:1017CC0070B50D4604460B4E306858B11F280DD825
:1017DC000A4941F820500A4941F820400130306054
:1017EC00002070BD044800F0B8FA08B1012070BDAB
:1017FC003068EBE7DC0F002011180000B00E002061
:04180C00300F002079
:1018100010B5084C206860B16FF0030101EB800146
:1018200005484058054A51588847206801382060CB
:10183000F1E710BDDC0F0020B00E0020300F0020BB
:1018400038B504460078BFF35F8F08B1002038BD7B
:1018500068460C4900F050F86578A80707D545F0B0
:10186000040060700848094900F04EFCF4E7012DBF
:101870001CBF02206070684600F050F8681E18BF58
:10188000012038BD0C220000E00F0020E40F0020F2
:101890007CB50446BFF35F8F0125057001A8094997
:1018A00000F02AF86678657000F038F8700703D504
:1018B000054800F029FC00B97CBD0448014900F04E
:1018C00068FA00BF20220000E00F00205A2100002B
:1018D00010B5034C0020206000F004FC206010BD17
:0418E000E40F0020F1
:1018E40010B5034C0020206000F0FAFB206010BD0E
:0418F400E00F0020E1
:1018F80010B504460160054800F002FC08B920460E
:1019080010BD2168024800F040FA00BFE40F002033
:041918002421000086
:10191C0010B50446044800F0F1FB08B9204610BD90
:10192C002168024800F02FFAE40F00203F2100004C
:0C193C00014800F0E9BB00BFD80F0020FC
:0C19480080B5014800F021FAC921000020
:1019540010B504460069A04202D020B1142100E071
:0A196400102100F0E9F8204610BD44
:10196E0010B504460069A04202D020B1142100E057
:0A197E00102100F0DCF8204610BD37
:1019880010B504460069A04202D020B1142100E03D
:0A199800102100F0CFF8204610BD2A
:0219A20070478C
:0E19A400006910B1016889690847FEF763FE0B
:1019B20038B5044644F205052D042846214600F0B8
:0E19C2001FF902462846214600F023F938BDE1
:1019D00010B5406800F5815200F0C0F800210723DF
:0A19E00000F06CF900F0B0FA10BD41
:1019EA0038B5456800F0B5F8102100F005F902464F
:1019FA002046102100F009F941F24200295A41F02B
:0A1A0A00010121F00801295238BD46
:101A1400F0B591B0446844F205052D042846202110
:101A240000F0EDF802462846202100F0F1F828469F
:101A3400202100F021F9109080B16E4610AB2846A9
:101A44002021324600F028FBBDF84070013F05D349
:101A540016F8011B204600F00EF8F7E7284620216F
:101A6400002200F01AF941F24200215A41F0040127
:061A7400215211B0F0BD8B
:101A7A00D0F80828531CB0F800289342002228BF47
:101A8A001346C0F80838C154D0F80838D0F80C18F2
:101A9A00994208D1B0F800380131994238BF0A4654
:101AAA00C0F80C287047D0F804180131C0F804189F
:021ABA00704773
:101ABC0070B5456800F04CF8202100F09CF8024607
:101ACC002046202100F0A0F841F242002E18318867
:101ADC0041F0020020F010003080090624D5D6F821
:101AEC000620D6F80A108A421BD9551A402D28BF59
:101AFC004025D6F802004218204620212B4600F043
:101B0C00D7F8204620214FF4817200F0EAF8308893
:101B1C0040F010003080D6F80A002844C6F80A00BD
:0A1B2C0070BD20F09000308070BD05
:061B3600082100F0F2BAE4
:061B3C0002685158084741
:0A1B420020690168CA6829461047AF
:0A1B4C0028464FF481710222484739
:061B56000168096908475F
:0A1B5C0044F20504240420467047FB
:021B6600FEE798
:061B68000138FDD17047B9
:101B6E00C26840F2011301EA030322EA0303C360D1
:021B7E007047AE
:101B800011F0FF0F18BF826211F47F4F18BFC262BD
:021B900070479C
:101B920070B50C461546FFF7D0FC14F0FF0F064651
:101BA20005D02946FFF717FB3046FFF72CFB14F44C
:101BB2007F4F09D0741C20462946FFF70CFB2046B4
:0A1BC200BDE87040FFF71FBB70BDC7
:0A1BCC0009B1006A7047C069704754
:101BD600C3889BB223EA0103C3800389490C9BB2E5
:0A1BE600490423EA11410181704710
:101BF0003C2010B5FFF7F0FA3C20BDE81040FFF79D
:021C000003BB24
:101C02000918B1F80231B1F806019BB243EA00406B
:021C1200704719
:101C1400D9B912F0010F05D090F8023143F0400316
:101C240080F8023112F0100F05D090F8023143F021
:101C3400800380F8023112F0040F17D090F80231BB
:101C440003F0FB0380F802317047081890F8023162
:101C540002F0240123EA010380F8023190F80631EE
:0E1C640002F4980223EA124280F8062170472B
:0A1C7200437843F0400343707047CD
:101C7C0011B101F5837301E04FF481731B5A13F01A
:101C8C00010304D000F58470405A80B270471846A6
:021C9C0070478F
:101C9E0031B9002A0CBF4022482280F80221704739
:0E1CAE0000F58370435C03F0FE03435470475F
:101CBC0030B500F58174645C002914BF0125022540
:101CCC0025420BD1203000EB910103E012F8010BFF
:101CDC00013B0870002BF9D1184630BD4FF0FF3096
:021CEC0030BD09
:101CEE0029B990F8023113F0020F07D00BE000F57E
:101CFE0081735B5C13F0010F08D1120A00F581703D
:101D0E004254002070474FF0FF3070474FF0FF30C5
:021D1E0070470C
:101D200041B990F8023113F0030F1BD0012380F862
:101D30000331704712F4005F0AD000F58170435CF4
:101D400013F0010F0ED0435C43F008034354704777
:101D500000F58370435C13F0010F03D0435C43F044
:061D60001003435470471C
:0A1D6600014600200022FFF7C6BC72
:021D70007047BA
:021D72007047B8
:021D74007047B6
:101D760010B50446FFF713FD2046FFF7F0FC00F010
:061D860002F8204610BD2A
:061D8C000446FFF715BD3F
:061D9200FFF787FCFEE7ED
:101D980010B500F006F8040001D1FFF7D1FD204688
:021DA80010BD6C
:101DAA0038B50446012898BF01242046FFF7DEFF14
:101DBA00050004D1FFF7BDFD08B18047F5E72846C5
:021DCA0038BD22
:101DCC0038B50D460446006900212161A04202D0BD
:101DDC0020B1142100E01021FFF7AAFE286928B1D8
:101DEC00A84205D020610020286107E0206105E0B1
:101DFC00246128690168CA6821469047204638BD8D
:041E0C00FFF793BE8B
:041E1000FFF791BE89
:101E140044F20500000400210022FFF73EFFFEE724
:041E2400FFF787BE7F
:041E2800FFF785BE7D
:101E2C0070B515460646914238BF0D4644F205047E
:101E3C0024042046002132462B46FFF739FF01309F
:0C1E4C00F7D000F07BF80130FBD070BD37
:041E5800FFF76DBE65
:041E5C00FFF76BBE63
:101E6000406841F24201425A22F0240242520021CB
:101E7000B0F80028013AC0F80418C0F80828C0F8E3
:041E80000C28704773
:041E8400FFF757BE4F
:041E8800FFF755BE4D
:101E8C00406841F21001084440214186032180F84A
:101E9C0030100021416001880139C0E902117047FE
:041EAC00FFF743BE3B
:041EB000FFF741BE39
:101EB400406841F24201425A22F0090242527047FC
:041EC400FFF737BE2F
:041EC800FFF735BE2D
:041ECC00FFF733BE2B
:041ED000FFF731BE29
:041ED400FFF72FBE27
:041ED800FFF72DBE25
:041EDC00FFF72BBE23
:041EE000FFF729BE21
:101EE4004068897801F003014FF48252815400F56F
:081EF40082504021418070473B
:041EFC00FFF71BBE13
:041F0000FFF719BE10
:041F0400FFF717BE0E
:041F0800FFF715BE0C
:041F0C00FFF713BE0A
:041F1000FFF711BE08
:041F1400FFF70FBE06
:041F1800FFF70DBE04
:0C1F1C000978406800F50160FFF7A9BDDE
:041F2800FFF705BEFC
:041F2C00FFF703BEFA
:081F300004460820FFF730BF52
:081F38000A6040684860704730
:081F40006268C0E9001210BD47
:0C1F4800204600214FF48572FFF7CDBE4B
:081F54004FF4005200F058B8F0
:081F5C004FF4005200F07CB8C4
:081F6400B0FBF4F001387047F6
:101F6C000403090400000000000000000000000051
:101F7C000E0341006E0064007200650077000000E3
:101F8C000A035400450053005400300000000000C8
:101F9C0010033100320033003400350036003700B6
:081FAC00AFF30080FFF708F914
:101FB400C36823F4807323F00103C3600B0E036032
:101FC40001F0FF03090A01F0FF0143F4007341F437
:081FD400007143608160704759
:081FDC0083690B438361704728
:041FE400416270479F
:101FE800C38841EA0303C3800389490C9BB24904AF
:081FF80043EA11410181704729
:0C200000438880889BB243EA0040704790
:10200C0012F4005F05D000F58170435C43F040038F
:10201C0004E000F58370435C43F080034354704745
:10202C0031B990F8023143F0600380F80231704707
:10203C00B2F5005F05D100F58170435C43F01003ED
:10204C0004E000F58370435C43F020034354704775
:10205C0031B990F8023103F0FB0380F8023170477C
:10206C00B2F5005F09D100F58170435C03F0CF033A
:10207C004354435C43F0400308E000F58370435C39
:10208C0003F09F034354435C43F080034354704775
:10209C0030B511B101F5837401E04FF48174245A09
:1020AC0014F0010403D11C604FF0FF3030BD00F57B
:1020BC008474645A1D68A4B2AC4228BF2C462030EC
:1020CC001C6000EB910103E00B78013C02F8013B32
:0820DC00002CF9D1204630BDB3
:0420E4000020704721
:1020E80010B50446FFF75AFB2046FFF756FCFFF7EA
:0420F80061FB10BDBB
:0C20FC001AB1521E8B5C8354FBD170475C
:0C21080080B5FFF7EBFF00B1012008BD1F
:082114000068BFF35F8F704704
:04211C00FFF7E4BF26
:04212000FFF7FCBF0A
:102124002573206661696C656420746F2061637136
:0B21340075697265206D757465780098
:10213F002573206661696C656420746F2072656C0D
:0B214F0065617365206D757465780094
:10215A002573206661696C656420746F2062726FF2
:07216A0061646361737400FE
:02217100030069
:102173006261645F66756E6374696F6E5F63616CE1
:102183006C20776173207468726F776E20696E209C
:102193002D666E6F2D657863657074696F6E73203D
:0521A3006D6F64650092
:1021A8000902210002010080320005240010010507
:1021B8002401000104240202052406000100000095
:0121C8000016
:1021C9006261645F616C6C6F63207761732074680E
:1021D900726F776E20696E202D666E6F2D6578633C
:0D21E900657074696F6E73206D6F64650022
:0421F800E100000002
:0421FC004901000095
:04220000ED0D0000E0
:08220400D1180000E5180000EC
:10220C005F5F6378615F67756172645F616371754D
:04221C00697265007E
:102220005F5F6378615F67756172645F72656C653B
:042230006173650071
:1022340000B506480649884205D00268043003B454
:10224400904703BCF7E708BC18470000F8210000DA
:042254000C22000058
:1022580095220000000000200C100000A7220000BA
:102268000C10002080220000120000004D17000012
:0822780035220000CF11000027
:102280001201000200000040470502100001010297
:042290000301000046
:10229400206861680834002200E04254491EFCD5DD
:0222A400704781
:1022A60020686168A2680C3401E08B5C8354521E7E
:0422B600FBD570479D
:0400000300001FAD2D
:00000001FF
