:1000000000600020C11B0000711900005D1000009D
:100010007119000071190000711900000000000042
:100020000000000000000000000000007119000046
:100030007119000000000000711900007119000022
:1000400081B078B51446059305AA0092101D009062
:100050000D4E30781F2812D800EB40000B4B03EBFD
:10006000C000156801F002FD3078094951F82020E0
:100070002046294601F097FC307801303070BDE809
:10008000784001B0704700BF4110002028090020CF
:04009000DC0F000081
:1000940081B018B5039303A800900E4C20781F2854
:1000A40013D800EB40000C4A02EBC00001F0DCFC6A
:1000B40020780A4951F820103C2000F0EBFF3C2046
:1000C40001F000F8207801302070BDE8184001B03C
:1000D400704700BF4110002028090020DC0F0000F9
:1000E40080B50F480078BFF35F8FC00716D10C4866
:1000F40001F05CFB90B1002000210A4A0A4410611F
:100104001831B1F5A56FF8D10748084A002101F06C
:1001140013FB0348BDE8084001F070BB08BD00BFF5
:100124003C10002000040020350100000000000005
:1001340010B5044C04F5A560183801F0C1FBA042C9
:08014400FAD110BD00040020F7
:10014C000A480178C90718BF7047012101700020C7
:10015C000021074A0A4410611831B1F5347FF8D1F7
:10016C000448054A002101F0E3BA00BF3810002012
:0C017C00280C0020890100000000000099
:1001880010B5044C04F53470183801F0A4FBA042F3
:08019800FAD110BD280C002073
:1001A0003CB4ADF5905D06A800F58359DB4801F03D
:1001B00001F80120834600F0EFFFDFF86483C047B9
:1001C000E148C9E9020BC0470A27D64CC9E90847EC
:1001D00006210DF5805282F8941000250DF580510E
:1001E00081F89050B0FBF4F0461EC9E9046BC0479B
:1001F0004FF0640AC9F834A00DF5805181F8A85079
:1002000001F0DAFCC9E90A07C0474FF47A77C9F868
:1002100044700DF5805181F8B85001F0CDFCC9E96A
:100220000E0AC04742F2107AC9F854A00DF5805169
:1002300081F8C85001F0C0FCC9E91207C047BA4FA5
:10024000C9F864700DF5805181F8D85001F0B4FC04
:10025000C9E9160AC047C9F874400DF5805181F804
:10026000E85001F0A9FCC9E91A07C0470DF5805113
:1002700081F8FC5081F8F85001F09EFCC9E91E0499
:10028000AA4800F05BFFDFF8A8824046FF2101F09A
:1002900078FB4046222101F09BFC4046FF2132467C
:1002A00001F078FB04AC0894A8480DF58456CDE91C
:1002B000040621464246FF23FFF7C2FE204601F016
:1002C0000EFB4046012101F09BFC4046012101F05C
:1002D00093FC0DF5805080F8FCB041F210000DF554
:1002E000805191F8FD102718012906F1780003903C
:1002F00006F1280002900BD14046FF2101F041FB9E
:100300004046012101F06CFB0DF5805080F8FD5056
:100310008F48C9F80000089405A800F58356059693
:100320008C4804902146FFF7B5FEDFF8088220468E
:10033000C04704A800F58F5AC9F888A18648C9E9C2
:100340005E06DFF8F4B150464FF4A0610022D847B2
:100350007A4E5046B047754800F1805000F0EEFEEE
:1003600001F0D0F83C2000F0AFFE754841794571AE
:1003700000F202410D600D64427942F00F024271B9
:1003800002880580428802F001024280028842F021
:100390000102028042884280028842F00F020280FD
:1003A000428842F00E0242804279FF2242710122CD
:1003B0000A600A6410F8051C41F0400100F8051CB1
:1003C00040F2FF70C7E90150F860411C3980DDE957
:1003D0000232C7E91132FC61604A3B4643F8182FEC
:1003E000BB62CDF81C08CDF81808CDF81458ADF84C
:1003F0001018C9F888A1C9E95E2406A800F58E5531
:10040000C9F870515648C9E958044E4F2020294672
:10041000B8472846C0470DF58E55C9F85851514880
:10042000C9E9520420202946B8472846C04702A8F7
:1004300000F58D55C9F840514B48C9E94C041020CE
:100440002946B8472846C04704A800F58C55C9F886
:1004500028514648C9E94604284642F22121002293
:10046000D8472846B04706A800F58B55C9F8105163
:100470003F48C9E94004284642F221010022D847FA
:100480002846B0470DF58B55C9F8F8503948C9E9E9
:100490003A04284642F2A1110022D8472846B04724
:1004A00002A800F58A55C9F8E0503348C9E9340478
:1004B00028464FF410610022D8472846B04704A8C8
:1004C00000F58955C9F8C8502C48C9E92E042846BA
:1004D0004FF481718122D8472846B04706A800F51D
:1004E0008855C9F8B0502648C9E9280428464FF471
:1004F00081718222D8472846B0470DF58855C9F842
:1005000098502048C9E9220428464FF481710222FC
:10051000D8472846B04701F02CFAFEE74005C00155
:100520002913000040420F00A086010001001010B6
:1005300000000340DF18000045060000C518000059
:100540000600054089050000F80C0000040D0000BD
:10055000280D0000340D0000340E0000580E00007D
:100560007C0E0000A00E0000C40E0000E80E00008B
:100570000C0F0000300F0000540F0000780F000037
:080580009C0F0000C00F0000F9
:10058800B0B58AB090FAA0F0B0FA80F000EB400065
:10059800294A02EBC000A0F11804086920B188427A
:1005A80004D0016889688847049004E0694604918A
:1005B8000268D26890476D46AC4238D021690498E9
:1005C800A84204D0A1420ED0206104912FE0A1429C
:1005D8000168CA6813D021469047049801F0C1F910
:1005E8002069049022E00868C268084629469047B6
:1005F800206901F0B6F904982061049517E006A96E
:100608009047049801F0ADF90027049701F0A1F98B
:10061800206901F0A6F9276104950698C26806A822
:10062800214690470698016906A8884724616846CC
:0C06380001F051F90AB0B0BD280C002000
:1006440038B5044642EA012000221146124A52F803
:100654002120824201F10102F7D101EB41000F494F
:1006640001EBC005286900212961A84202D020B10C
:10067400142100E0102101F073F9206928B1A0428F
:1006840005D028610020206138BD286138BD2D6166
:1006940001F061F938BD00BF500D000000040020D6
:1006A40010B501F07FFA014901F078BAC00F0000DB
:0C06B400014A01F07BBA00BFC00F00003B
:1006C00010B501F071FA014901F06ABA9C0F0000FF
:0C06D000014A01F06DBA00BF9C0F000051
:1006DC0010B501F063FA014901F05CBA780F000023
:0C06EC00014A01F05FBA00BF780F000067
:1006F80010B501F055FA014901F04EBA540F000047
:0C070800014A01F051BA00BF540F00007C
:100714004068117803291BD141F24201002343525E
:100724000F490B78DB071EBF0B7843F008030B70EF
:100734000B7CDB071EBF0B7C43F008030B740B7DA3
:10074400DB071EBF0B7D43F010030B750121116005
:1007540041F24201425A22F400724252704700BFF1
:040764001201054039
:1007680010B501F01DFA014901F016BA300F00006A
:0C077800014A01F019BA00BF300F000068
:1007840080B5406800F581510020072200F098FAF6
:100794000348017889075CBF0A21017008BD00BFC6
:0407A4000201054009
:1007A80010B501F0FDF9014901F0F6B90C0F000090
:0C07B800014A01F0F9B900BF0C0F00006D
:1007C40010B501F0EFF9014901F0E8B9E80E0000B5
:0C07D400014A01F0EBB900BFE80E000084
:1007E00010B501F0E1F9014901F0DAB9C40E0000D9
:0C07F000014A01F0DDB900BFC40E00009A
:1007FC0010B5446808480188808841EA00411020FF
:10080C0000F048FA41F24200215A41F0010121F076
:0C081C000801215210BD00BF1201054070
:1008280010B501F0BDF9014901F0B6B9A00E0000FC
:0C083800014A01F0B9B900BFA00E000099
:10084400F0B591B044681B4DB5F8FA00B5F8FE1048
:1008540001F07CF8B5F8FE00C00710D0B5F800012F
:1008640068B1B5F8FE10C90717D1002601AF013EE3
:1008740005D317F8011B204601F03DF8F7E795F87A
:10088400FE0000F0FE0085F8FE0041F24200215A0D
:1008940041F00401215211B0F0BDB5F80061B0423D
:1008A40038BF064601A831460139DFD32A7800F85B
:0808B400012BF9E728000540C3
:1008BC0010B501F073F9014901F06CB97C0E000020
:0C08CC00014A01F06FB900BF7C0E000073
:1008D80070B54468194D2888A98801F035F841F2A7
:1008E80042002618318841F0020020F010003080C4
:1008F800090622D5D6F80620D6F80A108A4219D950
:10090800541A402C28BF4024D6F802000144202065
:10091800224600F0D3F92878C00704BF01202870C8
:10092800308840F010003080D6F80A002044C6F81D
:100938000A0070BD20F09000308070BD2201054093
:1009480010B501F02DF9014901F026B9580E000043
:0C095800014A01F029B900BF580E000050
:1009640010B501F01FF9014901F018B9340E000067
:0C097400014A01F01BB900BF340E000066
:100980004068064940220A700A78D206FCD5044A1B
:1009900000238B5402210170704700BF0201054003
:0409A000FEFEFFFF59
:1009A40010B501F0FFF8014901F0F8B8340D00006A
:0C09B400014A01F0FBB800BF340D000048
:1009C00081B0054801788DF8031081798DF8021007
:0C09D000007A8DF8010000BF0201054014
:1009DC0010B501F0E3F8014901F0DCB8040D00009A
:0C09EC00014A01F0DFB800BF040D00005C
:1009F80070B54568124C01262046012100F0F1FF30
:100A0800C00700D170BD2046012101F0F5F82E7411
:100A180005F11C00A9690B4A14682B7D013BF1D331
:100A28008568B4FBF5F606FB15453DB90125057348
:100A380005686D1A18BF651C15602C461030EDE767
:080A48000000034034100020FF
:100A50000348006910B1024800F070BF704700BF42
:040A60002809002041
:100A64000248016909B100F067BF704740090020DE
:100A74000248016909B100F05FBF704758090020BE
:100A84000248016909B100F057BF7047700900209E
:100A94000248016909B100F04FBF7047880900207E
:100AA4000248016909B100F047BF7047A00900205E
:100AB4000248016909B100F03FBF7047B80900203E
:100AC4000248016909B100F037BF7047D00900201E
:100AD4000248016909B100F02FBF7047E8090020FE
:100AE4000248016909B100F027BF7047000A0020DD
:100AF4000248016909B100F01FBF7047180A0020BD
:100B04000248016909B100F017BF7047300A00209C
:100B14000248016909B100F00FBF7047480A00207C
:100B24000248016909B100F007BF7047600A00205C
:100B34000248016909B100F0FFBE7047780A00203D
:100B44000248016909B100F0F7BE7047900A00201D
:100B54000248016909B100F0EFBE7047A80A0020FD
:100B64000248016909B100F0E7BE7047C00A0020DD
:100B74000248016909B100F0DFBE7047D80A0020BD
:100B84000248016909B100F0D7BE7047F00A00209D
:100B94000248016909B100F0CFBE7047080B00207C
:100BA4000248016909B100F0C7BE7047200B00205C
:100BB4000248016909B100F0BFBE7047380B00203C
:100BC4000248016909B100F0B7BE7047500B00201C
:100BD4000248016909B100F0AFBE7047680B0020FC
:100BE4000248016909B100F0A7BE7047800B0020DC
:100BF4000248016909B100F09FBE7047980B0020BC
:100C04000248016909B100F097BE7047B00B00209B
:100C14000248016909B100F08FBE7047C80B00207B
:100C24000248016909B100F087BE7047E00B00205B
:100C34000248016909B100F07FBE7047F80B00203B
:100C44000248016909B100F077BE7047100C00201A
:0C0C5400014800F0ECBE00BF851C000051
:100C600000200021054A0A4410611831B1F5407F87
:100C7000F8D10348034A002100F060BD2809002094
:080C8000890C000000000000D7
:100C880010B5044C04F54070183800F024FEA0425A
:080C9800FAD110BD280900206B
:100CA000DB2262EA0102064B184403781A40027004
:100CB000B32262EA1141027911400171704700BF0D
:040CC00002010540E8
:100CC40030B5012400B90224074BC51895F8E25049
:100CD4002C4200D030BD43EA9000013AFAD311F817
:0C0CE400013B0370F9E700BF2000054051
:0C0CF000000000000000000041000000B7
:100CFC000000000000000000F9180000991B000023
:100D0C00DD090000ED090000F91800009D1B000032
:040D1C00F9090000D1
:0C0D200000000000000000009500000032
:100D2C000000000000000000F9180000911B0000FA
:100D3C00A5090000B5090000F9180000951B00007A
:040D4C00C1090000D9
:100D50000008000000810000058200000182000000
:100D600002820000038200000482000085820000ED
:100D70008182000082820000838200008482000061
:100D80000000010000010100050201000102010054
:100D900002020100030201000402010085020100B9
:100DA000810201008202010083020100840201002D
:100DB000000003000001030000020300050201001F
:100DC000010201000202010003020100040201000D
:100DD00085020100810201008202010083020100FC
:100DE000840201000000050000800600008106006A
:100DF00000820600000007000080080000000900D3
:100E000000810A0000010B0000820C0000A101001B
:100E100000210A00000000000000010000000200A4
:0C0E20000021200000A121000021220080
:100E2C000000000000000000F9180000891B000001
:100E3C006509000075090000F91800008D1B000001
:040E4C008109000018
:100E50000000000000000000F9180000751B0000F1
:100E60004909000059090000F9180000791B000029
:040E70007D1B0000E6
:100E74000000000000000000F91800006D1B0000D5
:100E8400BD080000CD080000F9180000711B000027
:040E9400D908000079
:100E98000000000000000000F9180000651B0000B9
:100EA8002908000039080000F9180000691B000033
:040EB80045080000E9
:100EBC000000000000000000F91800005D1B00009D
:100ECC00E1070000F1070000F9180000611B0000A9
:040EDC00FD0700000E
:100EE0000000000000000000F91800003D1B000099
:100EF000C5070000D5070000F9180000411B0000DD
:040F0000451B00008D
:100F04000000000000000000F9180000291B000088
:100F1400A9070000B9070000F91800002D1B000004
:040F2400311B00007D
:100F28000000000000000000F9180000211B00006C
:100F38006907000079070000F9180000251B000068
:040F48008507000019
:100F4C000000000000000000F9180000191B000050
:100F5C00F906000009070000F91800001D1B00002D
:040F6C001507000065
:100F70000000000000000000F9180000011B000044
:100F8000DD060000ED060000F9180000051B00005A
:040F9000091B000039
:100F94000000000000000000F9180000D91A000049
:100FA400C1060000D1060000F9180000DD1A000097
:040FB400E11A00003E
:100FB8000000000000000000F9180000AD1A000051
:100FC800A5060000B5060000F9180000B11A0000D7
:040FD800B51A000046
:100FDC00510A0000650A0000750A0000850A00002D
:100FEC00950A0000A50A0000B50A0000C50A000019
:100FFC00D50A0000E50A0000F50A0000050B000008
:10100C00150B0000250B0000350B0000450B0000F4
:10101C00550B0000650B0000750B0000850B0000E4
:10102C00950B0000A50B0000B50B0000C50B0000D4
:10103C00D50B0000E50B0000F50B0000050C0000C3
:10104C00150C0000250C0000350C0000450C0000B0
:10105C0008490A68002AFED41EF0040F0CBFEFF3F7
:10106C000880EFF3098042F000420A608169023186
:08107C00816170472CED00E0DA
:10108400034C206804348047FBE7FFF787F8FEE74A
:04109400481D0000F3
:10109800094B0A4A70B51C689442144609D01D6869
:1010A80000235E59E6500433B3F51B7FF9D1024B98
:1010B8001A6044F8201070BD08ED00E00000002020
:1010C800042804D1134B1A6842F4803205E005283D
:1010D80005D1104B1A6842F400321A60704706288E
:1010E80004D10C4B1A6842F48022F6E70F2804D189
:1010F800094B1A6842F00202EFE70AD91038074B89
:10110800420953F8223000F01F00012212FA00F0C1
:101118001860704724ED00E010E000E0281100009E
:1011280000E100E004E100E008E100E00CE100E09B
:0411380010E100E0E2
:10113C0000F07043B3F1704F15D100F47F42114BA6
:10114C00120A00F0FF00D318800003F0704240F048
:10115C00007023F07F43104323F4700340EA4313E1
:10116C0001221A607047020F81B200F4F810000CD3
:10117C0011FA00F0044B53F822301A68104318602F
:0C118C00704700BF00E60F408015000017
:10119800054B18B11A6842F0006202E01A6822F0A2
:0C11A80000621A60704700BF60E00F405A
:1011B400534B2DE9F0411A68044612F0E04F06D073
:1011C4001A68504B02EA0303B3F1805F02D1002C8A
:1011D400C0F294804C494D4A0B68166843F400638E
:1011E40023F4800546F4006613F0020F0D601660C8
:1011F40002D014F0020F05D015F0010F1AD014F02C
:10120400010F17D164F003031D403F4B002E1D60F6
:1012140005DA06F07003302B05D0702B02E005F0E0
:101224003003302B02D14FF4805001E04FF4002002
:1012340000F0A2FB04F4FE6325F4FE6545EA03080E
:10124400334D26F0004604EA050526F0700645EA0B
:10125400060604F0080546EAC5052C4F2A4E102060
:10126400C6F800803D6000F087FB28F4405804F481
:101274000052284904F4405325F4005548EA030376
:1012840040201543244A086052BF33603D603360F8
:1012940023F0F86304EA020223F0030358BF3D601D
:1012A400134304F0FC5125F0FC5214F0804F42EA41
:1012B400010208D0194922F4800204EA010143F42E
:1012C40080030A4301E022F0804214F4006F0CD141
:1012D4004FF400411248006810F0400F01D1013969
:1012E400F8D123F4006322F40062074910200B6054
:1012F400064B1A60BDE8F04100F03EBBBDE8F0814A
:1013040000E00F400000FF7060E00F4070E00F400D
:101314003000008058E00F400300C0070000404048
:0413240050E00F4046
:10132800694B70B51A6810331B68002BB4BF03F003
:10133800700102F0300120293AD004D869B110298F
:1013480040F0C08010E060295DD0702958D0302965
:1013580040F0B88047F2305063E002F4F8605B492F
:10136800800951F820005CE05949086810F0E04F06
:101378004CD00C68574804EA0000B0F1805F45D0B3
:101388000C68544804EA0000534CA04203D1096891
:1013980089B202293CD04E484E49046804EA01014A
:1013A8004E4CA14236D100684D4980B24D4C22E0E6
:1013B8004749086810F0E04F2ED00C68454804EA09
:1013C8000000B0F1805F27D00C68424804EA0000B2
:1013D800414CA04203D1096889B202291ED03C4879
:1013E8003C49046804EA01013C4CA14218D1006858
:1013F8003D493E4C80B200280CBF2046084610E00C
:101408004FF400400DE04FF480000AE0384808E04F
:10141800344806E0324804E0364802E0334800E049
:101428003148002B02DA13F4006F01E012F4006F68
:101438002AD13149264D09682C6814F0E04F43F64B
:10144800E07401EA040406D02E68224D06EA050578
:10145800B5F1805F06D16409023401F01F056043CD
:10146800023505E06409604301F01F0501356D0090
:10147800B0FBF5F011F4804F18BF400811F4004F8D
:1014880018BF800842F4800212F4800F1BD0002B92
:1014980011DA13F0804F07D013F4006F04D103F072
:1014A800FE5340009B0D02E003F0FC53DB0D0133BB
:1014B800B0FBF3F070BD02F0F062D20D0132B0FB68
:1014C800F2F070BD002070BD60E00F401415000000
:1014D80000E00F400000FF70000001100000031042
:1014E8000024F400001BB70000093D00C0C62D0011
:0C14F800C0E1E4007038390064E00F40EF
:10150400024B1A6822F480421A60704770E00F4060
:1015140040420F0000201C0080841E000080250033
:10152400999E36000040380000093D0000803E00CE
:1015340000004B00404B4C0000204E00808D5B00AF
:1015440000C05D000080700000127A0000007D0081
:1015540080969800001BB7000080BB00C0E8CE0056
:10156400647ADA000024F4000000FA0080A8120172
:0C157400002D310100366E0140787D0131
:0C15800000E10F4004E10F4008E10F40C3
:10158C0010B50023074AD90052F83340844202D1E7
:10159C005218506810BD01330C2BF3D14FF0FF30B3
:0815AC0010BD00BFB4150000E2
:1015B4000000034023000000001003402500000049
:1015C40000200340270000000030034033000000E7
:1015D4000040034056000000005003406C0000002F
:1015E400006003406E0000000070034070000000C3
:1015F40000C004407200000000D0044074000000E9
:1016040000E004407600000000F004407800000090
:1016140002480468204600F003F8FBE7B81600000F
:1016240070B504460D4E314600F030F805460C48BE
:1016340085420CD0B54208D00A4885420AD00146FA
:10164400204600F023F82046A847002070BD4FF044
:10165400FF3070BD0120FFF71AFD00BF031A000020
:08166400011A0000FF1900004B
:10166C0010B50246054B187800284FF0010001BF59
:10167C00034CC4E900211870002010BD401000205C
:04168C00101000201A
:101690000200064808D4052A06D8054B53F8220054
:1016A00043F8221000B90348704700BF011A000038
:0816B000F80F0020FF190000F3
:0416B800000000002E
:1016BC0003480449091A08B500F01CF80CBC18477B
:0816CC0048100020481800201E
:1016D40020F007010831814203D3064A106888428A
:1016E40001D200207047411A116003490968084477
:0C16F400704700BF2C10002030100020B8
:10170000024A116002490860704700BF2C10002097
:041710003010002075
:10171400EFF3108072B6B0FA80F040090149086016
:08172400704700BF28100020EF
:10172C000248006800B162B6704700BF2810002064
:10173C0070B50D4604460B4E306858B11F280DD8B5
:10174C000A4941F820500A4941F8204001303060E4
:10175C00002070BD044800F047F908B1012070BDAD
:10176C003068EBE71C10002081170000F80E0020F9
:04177C00780F0020C2
:1017800010B5084C206860B16FF0030101EB8001D7
:1017900005484058054A515888472068013820605C
:1017A000F1E710BD1C100020F80E0020780F00207B
:1017B00038B504460078BFF35F8F08B1002038BD0C
:1017C00068460C4900F050F86578A80707D545F041
:1017D000040060700848094900F020FAF4E7012D80
:1017E0001CBF02206070684600F050F8681E18BFE9
:1017F000012038BDFC1C0000201000202410002017
:101800007CB50446BFF35F8F0125057001A8094927
:1018100000F02AF86678657000F038F8700703D594
:10182000054800F0FBF900B97CBD0448014900F00F
:1018300000F900BF101D0000201000206E1C0000E9
:1018400010B5034C0020206000F0DCF9206010BDD2
:041850002410002040
:1018540010B5034C0020206000F0D2F9206010BDC8
:041864002010002030
:1018680010B504460160054800F0D4F908B92046CF
:1018780010BD2168024800F0D8F800BF24100020ED
:04188800381C000008
:10188C0010B50446044800F0C3F908B9204610BD51
:10189C002168024800F0C7F824100020531C0000F7
:0C18AC00014800F0BBB900BF181000207C
:0C18B80080B5014800F0B9F8BA1C00002F
:1018C40010B504460069A04202D020B1142100E002
:0A18D400102100F045F8204610BD79
:1018DE0010B504460069A04202D020B1142100E0E8
:0A18EE00102100F038F8204610BD6C
:0218F800704737
:1018FA00D0F80828531CB0F800289342002228BFC9
:10190A001346C0F80838C154D0F80838D0F80C1873
:10191A00994208D1B0F800380131994238BF0A46D5
:10192A00C0F80C287047D0F804180131C0F8041820
:02193A007047F4
:0E193C00006910B1016889690847FFF785F955
:06194A00082100F072B953
:0A19500040EA01412020FFF7A3B98F
:0A195A0020690168CA682946104799
:061964000268515808471B
:06196A000168096908474D
:02197000FEE790
:0A19720008B500F028F9C0B208BD66
:06197C000138FDD17047A7
:10198200C26840F2011301EA030322EA0303C360BF
:0219920070479C
:1019940011F0FF0F18BF826211F47F4F18BFC262AB
:0219A40070478A
:1019A60070B50C461546FFF7EEFD14F0FF0F064620
:1019B60005D02946FFF76DFB3046FFF782FB14F48E
:1019C6007F4F09D0741C20462946FFF762FB20464C
:0A19D600BDE87040FFF775BB70BD5F
:0A19E000836923EA01038361704765
:0A19EA0009B1006A7047C069704738
:0A19F400014600200022FFF737BE75
:0219FE00704730
:021A000070472D
:021A020070472B
:101A040010B50446FFF784FE2046FFF761FE00F0A0
:061A140002F8204610BD9F
:061A1A000446FFF786BE42
:101A200000220B0011001A0012B1521E8154FCD189
:021A30007047FD
:061A3200FFF7EFFDFEE7E7
:101A380010B500F006F8040001D1FFF739FF204681
:021A480010BDCF
:101A4A0038B50446012898BF01242046FFF7D5FF80
:101A5A00050004D1FFF725FF08B18047F5E72846BE
:021A6A0038BD85
:101A6C0038B50D460446006900212161A04202D020
:101A7C0020B1142100E01021FFF76EFF286928B176
:101A8C00A84205D020610020286107E0206105E014
:101A9C00246128690168CA6821469047204638BDF0
:041AAC00FFF74DBF34
:041AB000FFF74BBF32
:101AB400406841F24201425A22F02402425200217B
:101AC400B0F80028013AC0F80418C0F80828C0F893
:041AD4000C28704723
:041AD800FFF737BF1E
:041ADC00FFF735BF1C
:101AE000406841F21001084440214186032180F8FA
:101AF00030100021416001880139C0E902117047AE
:041B0000FFF723BF09
:041B0400FFF721BF07
:101B0800406841F24201425A22F0090242527047AB
:041B1800FFF717BFFD
:041B1C00FFF715BFFB
:041B2000FFF713BFF9
:041B2400FFF711BFF7
:041B2800FFF70FBFF5
:041B2C00FFF70DBFF3
:0C1B30001168406800F58150FFF772BF9B
:041B3C00FFF705BFEB
:041B4000FFF703BFE9
:101B44004068897801F003014FF48252815400F512
:081B54008250402141807047DE
:041B5C00FFF7F5BEDC
:041B6000FFF7F3BEDA
:041B6400FFF7F1BED8
:041B6800FFF7EFBED6
:041B6C00FFF7EDBED4
:041B7000FFF7EBBED2
:041B7400FFF7E9BED0
:041B7800FFF7E7BECE
:0C1B7C000978406800F50160FFF7B9BE71
:041B8800FFF7DFBEC6
:041B8C00FFF7DDBEC4
:041B9000FFF7DBBEC2
:041B9400FFF7D9BEC0
:041B9800FFF7D7BEBE
:041B9C00FFF7D5BEBC
:081BA0006268C0E9001210BDEB
:081BA80004460820FFF744BFCA
:081BB0000A60406848607047BC
:081BB800B0FBF4F001387047A6
:081BC000AFF30080FFF75EFAAD
:081BC800EFF3108062B67047D4
:101BD000C36823F4807323F00103C3600B0E03601A
:101BE00001F0FF03090A01F0FF0143F4007341F41F
:081BF000007143608160704741
:081BF80083690B438361704710
:041C00004162704786
:041C04000020704705
:101C080010B50446FFF782FD2046FFF771FEFFF787
:041C180089FD10BD75
:0C1C1C0080B5FFF7F1FF00B1012008BD0A
:081C28000068BFF35F8F7047F5
:041C3000FFF7EABF11
:041C3400FFF7FCBFFB
:101C38002573206661696C656420746F2061637127
:0B1C480075697265206D757465780089
:101C53002573206661696C656420746F2072656CFE
:0B1C630065617365206D757465780085
:101C6E002573206661696C656420746F2062726FE3
:071C7E0061646361737400EF
:101C85006261645F66756E6374696F6E5F63616CD4
:101C95006C20776173207468726F776E20696E208F
:101CA5002D666E6F2D657863657074696F6E732030
:051CB5006D6F64650085
:101CBA006261645F616C6C6F632077617320746822
:101CCA00726F776E20696E202D666E6F2D65786350
:0D1CDA00657074696F6E73206D6F64650036
:041CE800E500000013
:041CEC004D010000A6
:041CF000610C000083
:081CF400411800005518000022
:101CFC005F5F6378615F67756172645F6163717563
:041D0C006972650093
:101D10005F5F6378615F67756172645F72656C6550
:041D20006173650086
:101D240000B506480649884205D00268043003B469
:101D3400904703BCF7E708BC18470000E81C000004
:041D4400FC1C000083
:101D4800611D00000000002042100000BD160000C8
:081D5800251D00008F100000A2
:101D6000206861680834002200E04254491EFCD516
:021D70007047BA
:0400000300001BC11D
:00000001FF
