:1000000000600020A52C0000371E0000810C0000BD
:10001000371E0000371E0000371E000000000000E1
:10002000000000000000000000000000371E00007B
:10003000371E000000000000371E0000371E0000C1
:100040000008000800000540020000002000000039
:1000500040000000040000000021000082000000B9
:100060000300000000000000002000000000054028
:10007000020000002000000040000000000004001A
:10008000000100000200000003000000000000006A
:10009000000000000000054001000000100000000A
:1000A000100000000200000000220000810000009B
:0C00B00001000000000000000020000023
:0400BC000000000040
:1000C00000000540000000000000000040000000AB
:1000D0000100000000030000800000003C00000060
:1000E000FF0300000F0000000F0E03FF01000000DF
:0400F00001001020DB
:1000F40080B541F2F000C2F200000078C007BFF3FF
:100104005F8F26D141F2F000C2F2000003F008F83C
:10011400F8B1002040F20041C2F20001002200BF09
:100124008B181832B2F5A56F1861F9D140F2591045
:10013400C0F2000040F20002C0F20002002102F00E
:10014400C9FF41F2F000C2F20000BDE8084001F02E
:0401540095BF08BD8E
:1001580010B540F20044C2F2000404F5A56000BFE7
:0C016800183802F045F8A042FAD110BD92
:0C0174000000000000000000A5210000B9
:1001800080B541F2F000C2F200000078C007BFF372
:100190005F8F26D141F2F000C2F2000002F0C2FFF0
:1001A000F8B1002040F20041C2F20001002200BF7D
:1001B0008B181832B2F5A56F1861F9D140F25910B9
:1001C000C0F2000040F20002C0F20002002102F082
:1001D00083FF41F2F000C2F20000BDE8084001F0E8
:0401E0004FBF08BD48
:1001E4002DE9F041C2B090460E46044640F2FF703D
:1001F40041F21001421CA4F800280023C4F804387A
:10020400C4F80808C4F80C0865186252C5E901303E
:10021400E86040F6F810C0F20000CDE93C0441F279
:1002240028003CAF20444097394602F01BF8409820
:10023400B84202D028B1142100E0102102685158BC
:100244008847C5E9116840F61C20C0F20000CDE9DA
:10025400360436AE3A9640F64045C2F200052846CA
:10026400314601F02CFB3A98B04202D028B1142157
:1002740000E0102102685158884740F64020C0F23F
:100284000000CDE9300430AE349605F522703146D5
:1002940001F015FB3498B04202D028B1142100E0DB
:1002A400102102685158884740F66420C0F20000CB
:1002B400CDE92A042AAD2E9540F62840C2F200006A
:1002C400294601F0FCFA2E98A84202D028B1142144
:1002D40000E0102102685158884742F20017C0F22A
:1002E400200740F68820C0F20000CDE9240424ADA4
:1002F4002895002141F21456C2F2000607F5003099
:100304000A4656F82110814202F10101F8D102EBAC
:10031400420040F20048C2F2000808EBC00029463F
:1003240001F016FF2898A84202D028B1142100E059
:10033400102102685158884740F6AC20C0F20000F2
:10034400CDE91E041EAD2295002100BF084656F8D3
:100354002110B94200F10101F8D100EB400008EB93
:10036400C000294601F0F4FE2298A84202D028B128
:10037400142100E0102102685158884740F6D0202B
:10038400C0F20000CDE9180418AD1C95002107F552
:10039400C03000BF0A4656F82110814202F1010123
:1003A400F8D102EB420008EBC000294601F0D0FE70
:1003B4001C98A84202D028B1142100E01021026840
:1003C4005158884740F6F420C0F20000CDE91204E9
:1003D40012AD1695002100BF084656F82110B1F55C
:1003E400102F00F10101F7D100EB400008EBC00031
:1003F400294601F0ADFE1698A84202D028B1142176
:1004040000E0102102685158884740F20227C0F2E8
:10041400010740F61830C0F20000CDE90C040CAD21
:100424001095002107F17F000A4656F821108142F9
:1004340002F10101F8D102EB420008EBC0002946A9
:1004440001F086FE1098A84202D028B1142100E0E1
:10045400102102685158884740F63C30C0F2000031
:10046400CDE9060406AD0A95002107F1800000BF1E
:100474000A4656F82110814202F10101F8D102EB3B
:10048400420008EBC000294601F062FE0A98A84227
:1004940002D028B1142100E0102102685158884785
:1004A40040F66030C0F20000CDE900046D460495CA
:1004B400002100BF084656F82110B94200F101019D
:1004C400F8D100EB400008EBC000294601F040FEE3
:1004D4000498A84202D028B1142100E01021026837
:0C04E40051588847204642B0BDE8F08126
:1004F000F0B58DB0044640F27C11C0F2000140F826
:10050000041F40F68431C0F20001CDE9061406ADA7
:100510000A950022C4F20502294601F043FE0A981A
:10052000A84202D028B1142100E0102102685158DD
:10053000884740F6A830C0F20000CDE900046D46BF
:100540000495002041F21456C2F20006014656F806
:100550002000B0F5A02F01F10100F7D101EB41001F
:1005600040F20047C2F2000707EBC000294601F045
:10057000F1FD0498A84202D028B1142100E0102116
:1005800002685158884740F2C000C0F2000001F0F4
:100590006DFB0021084656F82110B1F5102F00F12F
:1005A0000101F7D100EB400007EBC000016931B158
:1005B00041F2F401C2F20001224601F07AFB20462A
:0405C0000DB0F0BDCD
:1005C40041F2EC00C2F200000178C90719D10121FF
:1005D4000170002040F62841C2F20001002200BF51
:1005E4008B181832B2F5347F1861F9D140F20960E2
:1005F400C0F2000040F20002C0F20002002102F04A
:0406040069BD704715
:1006080010B540F62844C2F2000404F5347000BF67
:0C061800183801F0EDFDA042FAD110BD31
:1006240038B5040019D040F62845C2F2000500BFD1
:1006340094FAA4F0B0FA80F0C0F12E01102838BF6B
:10064400411E01EB410005EBC0000169002918BF00
:0C06540001F000FB601E0440EAD138BD3C
:1006600010B582B041F2F401C2F20001B0F5D06FD2
:100670008A7818DB42F22003984232DCCB78B0F55E
:10068000D06F6BD0B0F5086F68D0B0F5106F40F048
:100690006F810020C4F205000021012202B0BDE8F4
:1006A000104002F0DDBAB0F5817F51DB00F09C8094
:1006B000B0F5407F5ED0B0F5A06F40F059810021C9
:1006C000CDE9001141F21450C2F200000A4650F880
:1006D0002110B1F5A02F02F10101F7D102EB420088
:1006E00037E15A1C904200F08A8042F2A111884200
:1006F0004ED042F22121884240F03A81002141F25D
:100700001450C2F2000042F20012C0F2220200BFF6
:100710000B4650F82110914203F10101F8D103EB8F
:10072000430040F20041C2F2000101EBC000016948
:1007300049B141F2F401C2F2000141F2E802C2F211
:10074000000201F0B6FA40F2C000C0F2000019E069
:1007500008280AD0B0F5807F0ED009E189791846C3
:1007600002B0BDE8104001F0F1BF02B0BDE810409A
:1007700001F0D4BF022A39D0012A40F2C000C0F2F1
:10078000000037D1012102B0BDE8104001F026B9C8
:100790000021CDE9001141F21450C2F200004AF2EA
:1007A0000012C0F2210200BF0B4650F82110914206
:1007B00003F10101F8D103EB430040F20041C2F222
:1007C000000101EBC000016931B141F2E802C2F25F
:1007D0000002694601F06DFA40F2C000C0F200006C
:1007E000012101F0FBF8C3E04888E0B340F2C0000B
:1007F000C0F2000002B0BDE8104001F028BA41F29A
:100800000014C2F2000414F8020C002847D00022A1
:1008100042F20010C0F2200041F21451C2F2000175
:10082000134651F82220824203F10102F8D103EB72
:10083000430040F20041C2F2000101EBC000016937
:1008400031B141F2F401C2F20001224601F031FA65
:1008500040F2C000C0F20000012101F0BFF800200A
:1008600004F8020C84E00879802823DD832838D03E
:10087000822849D08128B9D10021CDE9001141F267
:100880001450C2F2000040F28122C0F201020B4675
:1008900050F82110914203F10101F8D157E00120F5
:1008A00004F8020CCA88228040F2C000C0F20000A6
:1008B000002168E701283AD0022897D10021CDE92C
:1008C000001141F21450C2F2000040F20222C0F2C4
:1008D00001020B4650F82110914203F10101F8D1B9
:1008E00035E00021CDE9001141F21450C2F20000C0
:1008F00040F28322C0F201020B4650F821109142CF
:1009000003F10101F8D122E00021CDE9001141F20B
:100910001450C2F2000040F28222C0F201020B46E3
:1009200050F82110914203F10101F8D10FE000F5D8
:1009300081300022CDE9002241F21451C2F20001BF
:10094000134651F82220824203F10102F8D103EB51
:10095000430040F20041C2F2000101EBC000016916
:1009600031B141F2E802C2F20002694601F0A1F998
:0409700002B010BD04
:1009740070B51546914238BF0D46402D04461AD332
:1009840040F2C006C0F2000630462146402201F083
:10099400D3FC0130F8D000BF30464FF4817101F030
:1009A40013F80130F8D04034A5F1400069B2402971
:1009B4000546E9DB00E02846C5B240F2C006C0F2B5
:1009C400000600BF304621462A4601F0B5FC01303E
:1009D400F8D040F2C004C0F2000400BF20464FF437
:0C09E400857100F0F1FF0130F8D070BD0B
:1009F0000000000000000000B3160000D316000045
:100A0000152200004D220000B3160000D31600008E
:040A10005D22000063
:100A14000000000000000000B3160000D316000020
:100A240095220000CD220000B3160000D31600006A
:040A34008319000022
:100A38000000000000000000B3160000D3160000FC
:100A48004923000081230000B3160000D3160000DC
:040A5800D7190000AA
:100A5C000000000000000000B3160000D3160000D8
:100A6C00F123000029240000B3160000D316000067
:040A7C00E719000076
:100A80000000000000000000B3160000D3160000B4
:100A90003924000071240000B3160000D3160000B2
:040AA00081240000AD
:100AA4000000000000000000B3160000D316000090
:100AB40099240000D1240000B3160000D3160000CE
:040AC400E124000029
:100AC8000000000000000000B3160000D31600006C
:100AD800ED24000025250000B3160000D316000001
:040AE8000F1A0000E1
:100AEC000000000000000000B3160000D316000048
:100AFC00352500006D250000B3160000D31600004C
:040B0C003B1A000090
:100B10000000000000000000B3160000D316000023
:100B2000FD25000035260000B3160000D316000096
:040B3000BB1A0000EC
:100B34000000000000000000B3160000D3160000FF
:100B4400452600007D260000B3160000D3160000E1
:040B5400EB1A000098
:100B58000000000000000000B3160000D3160000DB
:100B68008D260000C5260000B3160000D31600002D
:040B7800531B00000B
:100B7C000000000000000000B3160000D3160000B7
:100B8C00D52600000D270000B3160000D316000078
:040B9C00AB1B00008F
:100BA0000000000000000000B3160000D316000093
:100BB000B9270000F1270000B3160000D31600008B
:040BC000671C0000AE
:100BC4000028000010280000202800003028000021
:100BD40010B540F62814C2F2000404F5407000BFBA
:0C0BE400183801F007FBA042FAD110BD48
:100BF00000B501F5837C002908BF4FF4817C3CF8E7
:100C000000C05FEACC7C04D1C3F800C04FF0FF30D5
:100C100000BD00EB010CBCF808C1D3F800E0E645CC
:100C200038BFF446BCF1000FC3F800C008D0203034
:100C3000890800BF0B5C02F8013BBCF1010CF9D143
:040C4000002000BDD3
:100C440000B500EB010E4FF0010C9EF802E1002903
:100C540008BF4FF0020C1CEA0E0F02D04FF0FF3019
:100C640000BD4BB100F1200C890800BF12F8010B44
:0C0C740001F80C00013BF9D1002000BD8C
:100C800008490A68002AFED41EF0040F0CBFEFF3D7
:100C90000880EFF3098042F000420A608169023166
:080CA000816170472CED00E0BA
:100CA800094B0A4A70B51C689442144609D01D685D
:100CB80000235E59E6500433B3F51B7FF9D1024B8C
:100CC8001A6044F8201070BD08ED00E00000002014
:100CD800042804D1134B1A6842F4803205E0052831
:100CE80005D1104B1A6842F400321A607047062882
:100CF80004D10C4B1A6842F48022F6E70F2804D17D
:100D0800094B1A6842F00202EFE70AD91038074B7C
:100D1800420953F8223000F01F00012212FA00F0B5
:100D28001860704724ED00E010E000E0380D000086
:100D380000E100E004E100E008E100E00CE100E08F
:040D480010E100E0D6
:100D4C0000F07043B3F1704F15D100F47F42114B9A
:100D5C00120A00F0FF00D318800003F0704240F03C
:100D6C00007023F07F43104323F4700340EA4313D5
:100D7C0001221A607047020F81B200F4F810000CC7
:100D8C0011FA00F0044B53F822301A681043186023
:0C0D9C00704700BF00E60F4090110000FF
:100DA800054B18B11A6842F0006202E01A6822F096
:0C0DB80000621A60704700BF60E00F404E
:100DC400534B2DE9F0411A68044612F0E04F06D067
:100DD4001A68504B02EA0303B3F1805F02D1002C7E
:100DE400C0F294804C494D4A0B68166843F4006382
:100DF40023F4800546F4006613F0020F0D601660BC
:100E040002D014F0020F05D015F0010F1AD014F01F
:100E1400010F17D164F003031D403F4B002E1D60EA
:100E240005DA06F07003302B05D0702B02E005F0D4
:100E34003003302B02D14FF4805001E04FF40020F6
:100E440000F0FDFF04F4FE6325F4FE6545EA0308A3
:100E5400334D26F0004604EA050526F0700645EAFF
:100E6400060604F0080546EAC5052C4F2A4E102054
:100E7400C6F800803D6000F0E2FF28F4405804F416
:100E84000052284904F4405325F4005548EA03036A
:100E940040201543244A086052BF33603D603360EC
:100EA40023F0F86304EA020223F0030358BF3D6011
:100EB400134304F0FC5125F0FC5214F0804F42EA35
:100EC400010208D0194922F4800204EA010143F422
:100ED40080030A4301E022F0804214F4006F0CD135
:100EE4004FF400411248006810F0400F01D101395D
:100EF400F8D123F4006322F40062074910200B6048
:100F0400064B1A60BDE8F04100F099BFBDE8F081DE
:100F140000E00F400000FF7060E00F4070E00F4001
:100F24003000008058E00F400300C007000040403C
:040F340050E00F403A
:100F3800694B70B51A6810331B68002BB4BF03F0F7
:100F4800700102F0300120293AD004D869B1102983
:100F580040F0C08010E060295DD0702958D0302959
:100F680040F0B88047F2305063E002F4F8605B4923
:100F7800800951F820005CE05949086810F0E04FFA
:100F88004CD00C68574804EA0000B0F1805F45D0A7
:100F98000C68544804EA0000534CA04203D1096885
:100FA80089B202293CD04E484E49046804EA01013E
:100FB8004E4CA14236D100684D4980B24D4C22E0DA
:100FC8004749086810F0E04F2ED00C68454804EAFD
:100FD8000000B0F1805F27D00C68424804EA0000A6
:100FE800414CA04203D1096889B202291ED03C486D
:100FF8003C49046804EA01013C4CA14218D100684C
:101008003D493E4C80B200280CBF2046084610E0FF
:101018004FF400400DE04FF480000AE0384808E043
:10102800344806E0324804E0364802E0334800E03D
:101038003148002B02DA13F4006F01E012F4006F5C
:101048002AD13149264D09682C6814F0E04F43F63F
:10105800E07401EA040406D02E68224D06EA05056C
:10106800B5F1805F06D16409023401F01F056043C1
:10107800023505E06409604301F01F0501356D0084
:10108800B0FBF5F011F4804F18BF400811F4004F81
:1010980018BF800842F4800212F4800F1BD0002B86
:1010A80011DA13F0804F07D013F4006F04D103F066
:1010B800FE5340009B0D02E003F0FC53DB0D0133AF
:1010C800B0FBF3F070BD02F0F062D20D0132B0FB5C
:1010D800F2F070BD002070BD60E00F4024110000E8
:1010E80000E00F400000FF70000001100000031036
:1010F8000024F400001BB70000093D00C0C62D0005
:0C110800C0E1E4007038390064E00F40E2
:10111400024B1A6822F480421A60704770E00F4054
:1011240040420F0000201C0080841E000080250027
:10113400999E36000040380000093D0000803E00C2
:1011440000004B00404B4C0000204E00808D5B00A3
:1011540000C05D000080700000127A0000007D0075
:1011640080969800001BB7000080BB00C0E8CE004A
:10117400647ADA000024F4000000FA0080A8120166
:0C118400002D310100366E0140787D0125
:0C11900000E10F4004E10F4008E10F40B7
:10119C00034C206804348047FBE700F065FAFEE757
:0411AC000C350000FE
:1011B0002DE9F04F87B017468B4680460020C8F8CF
:1011C00000000DF1060A1BF8011B252906D0002995
:1011D00000F08681404601F06FFDF4E70025594696
:1011E0001BF8010B5E28FAD0672813DC262805DCE3
:1011F000202809D0232832D1802009E0272805D0D3
:101200002B282CD1202003E0402001E04FF40040A7
:101210000543E4E76B2806DD6C280DD0742818BF61
:101220007A2805D01BE068280BD06A2817D1023530
:1012300001F1020B487812E048786C2809D1023598
:1012400003E04878682807D1083501F1030B887856
:1012500005E001F1020B02E001F1020B0435622806
:1012600021DDA0F1630115294FF00009ABD8DFE8BB
:1012700011F02600170016001600160016001700C1
:10128000160016001600160029003600E7001600AA
:1012900016003B0016004D0016001600210092E7D4
:1012A00045F4804532E0252873D0582840F0298144
:1012B00045F40055290623D44FF0000926E017F81D
:1012C000041B87E757F8040B2907D8F8001000F132
:1012D0000581AA0754BF0160C0E9001973E7290618
:1012E000302202EAE17911E057F8046B31780029E5
:1012F0003FF469AF404601F0DFFC16F8011FF6E746
:1013000043F25809782808BF43F27809690404D4E5
:10131000A90709D4391D00260CE0A90713D43946C2
:1013200051F8047BFE1714E0F91D21F0070707F1BF
:1013300008017E686A073F6814D415F0080F13D0BF
:101340000026FFB210E0F91D21F007014E6851F8A8
:10135000087B0091690709D429070AD547F3C0160D
:101360007FB206E0BFB20026009119E047F3C03615
:101370003FB2002E06DBA90610D4690610D54FF047
:1013800020090DE000217F4261EB06064FF02D0998
:1013900006E04046252101F08FFC14E74FF02B09B1
:1013A00000246E2821DD6F38092800F27880DFE8FC
:1013B00000F00550767676762276765057EA06006B
:1013C00069D0F80840EA4670062262F3DF070AF89F
:1013D0000470013450EAD6014FEAD6064FEAD00134
:1013E000074641EA4670F0D159E0582831D06428C8
:1013F00018BF692853D157EA06004CD0280407D5F6
:1014000004F00300032802BF2C200AF80400013472
:10141000384631460A22002300F0BCF900EB800276
:10142000A7EB4202B7F10A0376F1000342F0300263
:101430000AF8042004F1010407460E46DED22EE02D
:101440003846232150F8047B0090280601EAE07911
:10145000002657EA06001ED043F22040C0F20000EA
:10146000A9045CBF43F23040C0F20000390941EAF0
:101470000671002407F00F020F46825C0AF8042070
:10148000013451EA16114FEA16164FEA171141EAD4
:101490000671EFD103E030208DF806000124B9F188
:1014A000FF0F06D94FEA1921404601F005FC009FC5
:1014B00003E0B9F1000F009F03D04046494601F018
:1014C000FBFB012CFFF67FAE661E40461AF80610A5
:1014D00001F0F2FB012C3446F6D874E6017072E696
:1014E000D8F80C0028B1D8E9001291423CBF002284
:1014F0004254404600F00CFDD8F8000007B0BDE8AB
:10150000F08F00287FF45FAE404600F001FD4FF001
:04151000FF30F3E7CE
:1015140003480449091A08B500F05CFD0CBC1847DF
:0815240090160020901E00202B
:10152C005AB3844690EA01039B071FD1830707D067
:10153C0011F8013B00F8013B521EF7D11CE0844628
:10154C00203A09D32DE9F007B1E8F807A0E8F8072D
:10155C00203AF9D2BDE8F0071C3205D451F8043B0F
:10156C0040F8043B121FF9D2043205D011F8013BAC
:0C157C0000F8013B521EF9D16046704798
:1015880000220B0011001A0084465AB3830704D0C6
:1015980000F8011B521EF9D124E0C9B241EA012129
:1015A80041EA0141202A11D3203A2DE9F0030B46E4
:1015B8000C460D460E460F4688468946A0E8FA03B3
:1015C800203AFBD2BDE8F00320320BD0042A05D321
:1015D80040F8041B121F05D0042AF9D200F8011B99
:0815E800521EFBD16046704762
:0C15F0000F3300001C160000FC1500006A
:1015FC0081300000A1300000AD300000B930000097
:10160C00A1300000AD3000003720000005200000A4
:10161C0011330000C2330000C2330000C23300009B
:10162C00C2330000C2330000C2330000C2330000DA
:10163C00C2330000C2330000FFFFFFFFFFFFFFFFBC
:10164C00FFFFFFFFFFFF0000D532000074330000E6
:10165C0007320000913300005E320000623300005C
:08166C006B3300006532000041
:10167400ADF5835D86B040F24050C0F2C010FFF774
:101684009FFB0120FFF78EFBFFF754FC04A80DF12C
:10169400170E0EF583510DF1160E0EF58352FEF75B
:0E16A4009FFD01A8FEF722FF00F0C4FBFEE749
:0216B20070477F
:1016B400F8B5140009D00D460646274615F8011B57
:0E16C400304600F044F8013FF8D12046F8BD52
:0616D200082101F074BDC7
:1016D80038B505680024C4F2050440F2C000C0F221
:1016E8000000002100F076F994F80201C006FBD54D
:1016F80041F2F400C2F20000807800F07F01204639
:0A17080001F04AFA0220287038BDF3
:1017120002460068116018B19168C90001F04FBD1E
:0217220070470E
:10172400002040F62811C2F2000100228B18183262
:10173400B2F5407F1861F9D140F6D530C0F200000F
:0E17440040F20002C0F20002002101F0C3BC1E
:10175200D0F80838B0F8002801339342002228BF9D
:101762001346C0F80838C154D0F80838D0F80C181D
:10177200994208D1B0F800380131994238BF0A467F
:10178200C0F80C287047D0F804180131C0F80418CA
:0217920070479E
:10179400002B35D129B9B0FBF2FC0CFB12026046D8
:1017A4007047914215D22DE9F041B2FA82F39A4082
:1017B4009940D3F1200C30FA0CFC51EA0C0198400A
:1017C40000F04EF8280036FA03F200210023BDE8A9
:1017D400F081F0B5B1FBF2FC0CFB1211B2FA82F30A
:1017E4009A409940D3F1200630FA06F631439840E6
:1017F40000F036F8614628003200DA400023F0BDDC
:10180400F3B5B3FA83FC49085FEA300013FA0CF32A
:10181400DCF1200432FA04F423430CB41A0000F07F
:101824001FF80CBC33FA0CF3DCF11F0C35FA0CF581
:1018340018BF6D1E03BCA5FB026705FB0377801B65
:10184400B941904271EB030C05D3821A71EB030387
:10185400681C0021F0BD02000B0028000021F0BD2F
:10186400940D4FF6C2752D02B5FBF4F4D60A761C1E
:1018740004FB04F5A5FB0656F64306EB04165508CF
:1018840032BF002777086D1C05FB1677A6FB0747B8
:101894007F0807EBC63714001500E7FB02457F1BE2
:1018A4004D1C0400E7FB014505FB1206A64284BF5C
:0E18B4006D1EB618964224BF6D1CB61A704702
:1018C20030B587B004466D46284600F0CCFC214670
:1018D20000F00DF80498A84202D028B1142100E0CB
:0E18E2001021026851588847204607B030BDDB
:1018F00081420CD0B0B584B00C4605460069096938
:10190000A84205D0A14210D02961206137E070477C
:101910000268A142D26815D0214690472869016823
:10192000096988472069286128E00868C268084674
:10193000294690472069016809698847286920611C
:101940002D611CE06946904728690168096988474C
:1019500000272F6120690168CA68294690472069DD
:10196000016809698847276100982D61C268684647
:10197000214690470098016968468847246104B071
:02198000B0BDF8
:06198200406800F000B80F
:1019880010B5044640F24400C0F2000000F00DF823
:1019980041F24201605A40F0020020F01002204655
:0A19A8006252BDE8104000F095BC4B
:1019B20010B504460068A16801F0BDF8024620682F
:0A19C200A168BDE8104001F0BEB8B6
:0A19CC000A468168006801F055B971
:0619D600406800F0DABCDD
:0A19DC000A468168006801F03DB979
:0619E600406800F000B8AB
:1019EC0010B5044640F29400C0F20000FFF7DBFF94
:1019FC0041F24200215A41F0010121F0080121522B
:021A0C0010BD0B
:061A0E00043000F000B8F6
:101A140010B5006800F5815140F2C004C0F2000422
:101A24002046072200F088FC20464FF48571BDE86B
:061A34001040FFF7C9BFDE
:061A3A00043000F09EBD27
:101A400070B540F24404C0F2000404F15005284689
:101A5000402100F01BF80646284600F0CBFD20464A
:101A6000314600F013F80546204600F0C3FD283447
:101A70002046294600F00AF82046BDE8704000F0F4
:021A8000B9BDEE
:0A1A82008168426A006800F0B4B900
:101A8C0038B5044605C80D46C0F80E20204600F0B7
:101A9C0097FD2068E16801602046294600F096FD1C
:0E1AAC00E06894F820108840284480B238BDCD
:061ABA00043000F000B84A
:101AC00010B5006841F2420140F29404425A22F0FB
:101AD00009024252C0F200042046FFF76AFF204686
:0A1AE0000121BDE81040FFF779BFB7
:061AEA00043000F000B81A
:101AF000F8B5056841F21006AF1940F24404C0F28F
:101B000000042046FFF755FF204600F018F8204655
:101B100000F01AF8A85B01380021C7E90110F8604D
:101B2000032087F830004020788640F68C2000F0B3
:0E1B300088F920460121BDE8F840FFF74FBFBD
:0A1B3E0081684269006800F02CB9CC
:0A1B48008168426A006800F003B9EA
:061B5200043000F000B8B1
:101B580038B5056840F26C04C0F200042046FFF76F
:101B680024FF2046FFF7E7FF2046FFF7E9FFB5F817
:101B7800000801380021C5F8041841F24201C5F8EF
:101B880008086A5AC5F80C0822F024006852204652
:101B98000121FFF71FFF20460021BDE83840FFF76D
:021BA80019BF63
:061BAA00406800F000B8E5
:101BB000F0B583B040F20211C4F2050104460A7880
:101BC0008DF807208A798DF806200A7A8DF805208D
:101BD000A1F58175284600F0B1F8060029D043F23E
:101BE0001840C0F20000314601F0EAF8F00720D0BA
:101BF00040F2C000C0F2000000F0F0FBC8B102905B
:101C000040F2C000C0F2000041F2F407C2F2000747
:101C100002AA394600F0E6FB41F2FC01C2F20001E3
:101C20008878002806BF3888088008882146FEF793
:101C300017FD3046FEF7F6FC284600F057FF00F08F
:0E1C40000700012804BF0020207003B0F0BD93
:0A1C4E0081684269006800F08FB859
:0E1C5800006910B101688969084700F0A3FD1A
:061C66000430FFF736BD5B
:101C6C0010B50446006BFFF76BF8FFF74DFAE0690F
:101C7C00FFF72CF82068216A00F029F82068616AC7
:101C8C0000F038F82068A16A00F046FF2068E16A8D
:101C9C0000F043F82068A16A00F002FF2068BDE85C
:061CAC00104000F09CB89E
:0E1CB200006910B103689B69184700F076FDC9
:101CC00040F62810C2F20000006928B140F6281042
:0A1CD000C2F20000FFF7C0BF70472A
:101CDA000A061EBFC27A8A43C272CA0544BF0022DC
:101CEA00C0F80824880505D540F24840C4F205002A
:061CFA00002101607047AB
:101D00000A061EBFC27A0A43C272CA0544BF012234
:101D1000C0F80824880505D540F24840C4F2050003
:061D200001210160704783
:101D2600C2880A43C2806FF00102038902EA1141A8
:061D360019430181704712
:0A1D3C004188808841EA00407047AA
:101D460080B53C20FEF7ADFF3C20BDE80840FEF71D
:021D5600C0BF0C
:101D5800084412F4005F4FF4817108BF0431425CFB
:0E1D68000CBF42F0800342F04003435470472A
:101D760039B1B2F5005F08D1084400F58170102131
:101D860007E000F58170602103E0084400F58370E8
:0A1D9600202102781143017070470C
:101DA00071B1B2F5005F12D1084490F8021101F050
:101DB000CF0180F8021190F8021141F0400103E0D8
:101DC00090F8021101F0FB0180F8021170470844FD
:101DD00090F8061101F09F0180F8061190F80611A5
:0A1DE00041F0800180F80611704701
:0A1DEA00417841F04001417070475C
:101DF40069B1920413D4084490F80611C9071EBFB0
:101E040090F8061141F0100180F80611704790F81F
:101E140002118907FAD0012180F80311704700F5F7
:101E24008170425CD207F1D00A5C42F008020A5485
:021E34007047F5
:021E3600FEE7C5
:0A1E380008B500F037FFC0B208BD86
:061E42000138FDD17047DC
:101E480040F2BC00C0F200000468204600F001F82F
:021E5800FBE7A6
:101E5A0080B505281FD841F2A00CC2F2000C41F649
:101E6A00E1635CF82010C0F200034CF82030A9B1FD
:101E7A0041F6DF62C0F2000291420CD0994208D0CA
:101E8A0041F6DD63C0F20003994207D04CF82030D6
:101E9A008847002008BD4FF0FF3008BD0120FFF73A
:021EAA007FF9BE
:101EAC0041F21253C2F200031A78002A02464FF094
:101EBC00010007D141F2B80CC2F2000CCCE90021B0
:061ECC00187000207047B1
:0A1ED200014600200022FFF7E8BFE0
:021EDC0070474D
:021EDE0070474B
:021EE000704749
:101EE200F8B51D4617460C460646184600F07DFF1B
:101EF200002803D407FB04F2A24201D20020F8BD5D
:0E1F02002846314600F015F8B0FBF4F0F8BDAB
:101F100042694AB110B50446036A002B1CBF21690F
:0A1F200098470020606110BD704773
:0A1F2A00436A08460121FFF7D7BF04
:061F3400006800F034B863
:101F3A000146C0680A6982426FEA000010449CBFE9
:061F4A008968084470479D
:101F50002DE9F843144688460546C7684FF0000946
:101F60002869F943B8420844A96898BF0844CE1BC1
:101F7000B04238BF06466868A64228BF26463844A5
:101F800041463246FFF7D2FAA868F1190F1A18BF76
:101F90000F46A41BB144B044EF60E1D14846BDE810
:021FA000F883C4
:101FA200F8B540F6F863C2F2000314461B78002B22
:101FB2000D46064608BF00F036FFEFF311874FF0DB
:101FC200200181F3118830462946224600F077FF2E
:061FD20087F31188F8BD41
:101FD800082907D341F2E402C2F20002106000228D
:061FE800C0E90021704772
:101FEE0010B5044601F019F8204600F0C8FFBDE810
:061FFE00104001F01EB8C6
:1020040084460020002918BF002A0ED0097848B25F
:1020140000280BD4BCF1000F18BFCCF8001000212D
:10202400C3E90011002818BF012070476FF00100B8
:022034007047F3
:0E2036007F298EBF6FF00100017001207047FE
:06204400FFF700FFFEE7BC
:10204A00F8B541F2C404C2F20004206890B141F22A
:10205A002005C2F2000540F6A076C2F200066FF033
:10206A00030707EB80002958305888472068013851
:06207A002060F6D1F8BD64
:1020800070B582B004460125BFF35F8F057043F23F
:10209000D441C0F2000101A800F02FF86678657005
:1020A00001F072F8700706D541F2C800C2F20000D4
:1020B00000F000FE08B902B070BD43F2AA20C0F2E1
:0E20C000000043F2D441C0F20001FFF7BBFF65
:1020CE0010B541F2CC04C2F200040020206000F0F2
:0620DE00EAFD206010BDC8
:1020E40010B541F2C804C2F200040020206000F0E0
:0620F400DFFD206010BDBD
:1020FA0010B50446016041F2CC00C2F2000000F0C3
:10210A00D4FD08B9204610BD216843F27420C0F2FC
:06211A000000FFF792FF38
:1021200080B500F008F800B108BD43F2D030C0F22D
:062130000000FFF787FF2D
:1021360010B50446012898BF0124204600F085FF0B
:0E21460020B901F030F808B18047F6E710BD6F
:1021540070B50D4604460021002600F011F82869E8
:1021640020B1A84204D020612E6107E0266105E079
:10217400246128690168CA6821469047204670BDD9
:1021840010B5044600690021A042216102D028B1A3
:10219400142100E01021026851588847204610BDE0
:1021A40081B030B582B0144641F21355C2F2000535
:1021B4000593287805AA1F28019216D800EB400041
:1021C40040F62812C2F2000202EBC000FFF7C0FF83
:1021D400287841F2F051C2F2000151F82010204653
:1021E400FFF7AFFD28780130287002B0BDE8304019
:0421F40001B070477F
:1021F80010B504460069A04202D028B1142100E0BD
:0C2208001021026851588847204610BD84
:1022140030B585B004460820FFF780FF05460DF170
:102224001300029001200390606840F6F811C0F298
:102234000001C5E900100020019001A80021FFF76A
:0822440066FA284605B030BD22
:10224C0040F6F812C0F200024068C1E90020704765
:0C225C004068097800F50160FFF775BAD2
:1022680010B50A6904463AB18A4207D010688168F5
:1022780010468847206107E0226105E0246108696B
:0C2288000168CA6821469047204610BD3E
:1022940030B585B004460820FFF740FF05460DF130
:1022A4001300029001200390606840F61C21C0F2E4
:1022B4000001C5E900100020019001A80021FFF7EA
:0822C40026FA284605B030BDE2
:1022CC0040F61C22C0F200024068C1E900207047B1
:1022DC0041F24202815A0B0600D4704770B5861841
:1022EC00D6F80620D6F80A0082421DD9141AD6F860
:1022FC000210402C28BF4024014440F24405C0F297
:10230C0000052846224600F013F828464FF4817148
:10231C00FFF756FB3088D6F80A1040F010003080DA
:10232C000819C6F80A0070BD21F08000308070BD1D
:0C233C0013460A4681680068FEF77EBC6C
:1023480030B585B004460820FFF7E6FE05460DF1D6
:102358001300029001200390606840F64021C0F20B
:102368000001C5E900100020019001A80021FFF735
:08237800CCF9284605B030BD88
:1023800040F64022C0F200024068C1E900207047D8
:1023900030B593B0044640F26C05C0F20005284603
:1023A000FFF707FB284600F019F8119050B111AA69
:1023B000284601A900F016F8BDF84420204601A9DE
:1023C000FFF778F928460021FFF708FB41F24200A9
:0C23D000215A41F00401215213B030BD2D
:0823DC008168006800F030BCCC
:0C23E40013460A4681680068FEF700BC42
:1023F00030B585B004460820FFF792FE05460DF182
:102400001300029001200390606840F66421C0F23E
:102410000001C5E900100020019001A80021FFF78C
:0824200078F9284605B030BD33
:1024280040F66422C0F200024068C1E9002070470B
:1024380030B585B004460820FFF76EFE05460DF15D
:102448001300029001200390606840F68821C0F2D2
:102458000001C5E900100020019001A80021FFF744
:0824680054F9284605B030BD0F
:1024700040F68822C0F200024068C1E9002070479F
:10248000897840684FF4825201F00301815400F5CD
:08249000825040214180704799
:1024980030B585B004460820FFF73EFE05460DF12D
:1024A8001300029001200390606840F6AC21C0F24E
:1024B8000001C5E900100020019001A80021FFF7E4
:0824C80024F9284605B030BDDF
:1024D00040F6AC22C0F200024068C1E9002070471B
:0C24E0004068126800F58150FFF720B83A
:1024EC0030B585B004460820FFF714FE05460DF103
:1024FC001300029001200390606840F6D021C0F2D6
:10250C000001C5E900100020019001A80021FFF78F
:08251C00FAF8284605B030BDB5
:1025240040F6D022C0F200024068C1E900207047A2
:1025340030B585B004460820FFF7F0FD05460DF1DF
:102544001300029001200390606840F6F421C0F269
:102554000001C5E900100020019001A80021FFF747
:08256400D6F8284605B030BD91
:10256C0040F6F422C0F200024068C1E90020704736
:10257C0070B5144611780068032900F5825613D102
:10258C000020708040F24405C0F2000505F15000B7
:10259C00FFF771FA2846FFF76EFA05F12800FFF7EE
:1025AC006AFA0120206001E0FFF744FA708820F4F9
:1025BC0000707080032020604FF48070308070BDFC
:0C25CC00D0E902124369006800F0E6BA92
:1025D80010B582B0D0F808C0C369446A0068009496
:0C25E8000A46614600F010FB02B010BD76
:0825F40001690068FFF795BBC7
:1025FC0030B585B004460820FFF78CFD05460DF17B
:10260C001300029001200390606840F61831C0F26C
:10261C000001C5E900100020019001A80021FFF77E
:08262C0072F8284605B030BD2C
:1026340040F61832C0F200024068C1E90020704739
:1026440030B585B004460820FFF768FD05460DF156
:102654001300029001200390606840F63C31C0F200
:102664000001C5E900100020019001A80021FFF736
:082674004EF8284605B030BD08
:10267C0040F63C32C0F200024068C1E900207047CD
:10268C0030B585B004460820FFF744FD05460DF132
:10269C001300029001200390606840F66031C0F294
:1026AC000001C5E900100020019001A80021FFF7EE
:0826BC002AF8284605B030BDE4
:1026C40040F66032C0F200024068C1E90020704761
:1026D40030B585B004460820FFF720FD05460DF10E
:1026E4001300029001200390606840F68431C0F228
:1026F4000001C5E900100020019001A80021FFF7A6
:0827040006F8284605B030BDBF
:10270C0040F68432C0F200024068C1E900207047F4
:10271C0038B541F2F405C2F2000543F2C124AA799E
:10272C00C0F2000420460221FEF71EF9AA7940F2FD
:10273C00C000C0F200002146BDE83840FFF7F8BDEC
:10274C00032815D080B5022808D0012814D1CAB2AC
:10275C0043F2C320C0F20000122105E0CAB243F2DA
:10276C00C410C0F200004321FEF7FEF8012008BDA2
:0C277C00C9B2104600F002B8002008BDF1
:1027880010B50446032809D840F6C430C0F200004A
:102798000A4650F824001021FEF7E8F8042C80417E
:0427A800404210BDDE
:0C27AC0043F21330C0F20000FFF746BCFF
:1027B80030B585B004460820FFF7AEFC05460DF19C
:1027C8001300029001200390606840F6A831C0F21F
:1027D8000001C5E900100020019001A80021FEF7C2
:0827E80094FF284605B030BD46
:1027F00040F6A832C0F200024068C1E900207047EC
:1028000004030904000000000000000000000000B4
:102810000E0341006E006400720065007700000046
:102820000A0354004500530054003000000000002B
:102830001003310032003300340035003600370019
:1028400040F64010C2F200000169002908BF70473D
:04285000FFF702BAD2
:1028540040F65810C2F200000169002908BF704711
:04286400FFF7F8B9C9
:1028680040F67010C2F200000169002908BF7047E5
:04287800FFF7EEB9BF
:10287C0040F68810C2F200000169002908BF7047B9
:04288C00FFF7E4B9B5
:1028900040F6A010C2F200000169002908BF70478D
:0428A000FFF7DAB9AB
:1028A40040F6B810C2F200000169002908BF704761
:0428B400FFF7D0B9A1
:1028B80040F6D010C2F200000169002908BF704735
:0428C800FFF7C6B997
:1028CC0040F6E810C2F200000169002908BF704709
:0428DC00FFF7BCB98D
:1028E00040F60020C2F200000169002908BF7047CD
:0428F000FFF7B2B983
:1028F40040F61820C2F200000169002908BF7047A1
:04290400FFF7A8B978
:1029080040F63020C2F200000169002908BF704774
:04291800FFF79EB96E
:10291C0040F64820C2F200000169002908BF704748
:04292C00FFF794B964
:1029300040F66020C2F200000169002908BF70471C
:04294000FFF78AB95A
:1029440040F67820C2F200000169002908BF7047F0
:04295400FFF780B950
:1029580040F69020C2F200000169002908BF7047C4
:04296800FFF776B946
:10296C0040F6A820C2F200000169002908BF704798
:04297C00FFF76CB93C
:1029800040F6C020C2F200000169002908BF70476C
:04299000FFF762B932
:1029940040F6D820C2F200000169002908BF704740
:0429A400FFF758B928
:1029A80040F6F020C2F200000169002908BF704714
:0429B800FFF74EB91E
:1029BC0040F60830C2F200000169002908BF7047D8
:0429CC00FFF744B914
:1029D00040F62030C2F200000169002908BF7047AC
:0429E000FFF73AB90A
:1029E40040F63830C2F200000169002908BF704780
:0429F400FFF730B900
:1029F80040F65030C2F200000169002908BF704754
:042A0800FFF726B9F5
:102A0C0040F66830C2F200000169002908BF704727
:042A1C00FFF71CB9EB
:102A200040F68030C2F200000169002908BF7047FB
:042A3000FFF712B9E1
:102A340040F69830C2F200000169002908BF7047CF
:042A4400FFF708B9D7
:102A480040F6B030C2F200000169002908BF7047A3
:042A5800FFF7FEB8CE
:102A5C0040F6C830C2F200000169002908BF704777
:042A6C00FFF7F4B8C4
:102A700040F6E030C2F200000169002908BF70474B
:042A8000FFF7EAB8BA
:102A840040F6F830C2F200000169002908BF70471F
:042A9400FFF7E0B8B0
:102A980040F61040C2F200000169002908BF7047E3
:042AA800FFF7D6B8A6
:102AAC0011F00F021EBFC3881A43C28011F460627A
:102ABC001EBF038943EA122202810A0E1EBFC37A8B
:102ACC001A43C272CA0344BF0122C0F80824880307
:102ADC0005D540F24840C4F2050001210160704761
:102AEC000146807AD1F80C24D20707D091F80C2437
:102AFC0000F5807042F0010281F80C2440F24C4148
:102B0C00C4F205010A68D20705D00A6800F5007006
:082B1C0042F001020A6070475B
:102B2400C2888A43C2800289012363EA11411140A9
:042B34000181704764
:102B38000844B0F80211B0F8060141EA00407047B5
:102B480089B10844DB2390F8021163EA02031940B3
:102B580080F8021190F80611B32363EA124211407B
:102B680080F806117047D1071EBF90F8021141F096
:102B7800400180F80211D10642BF90F8021141F0DD
:102B8800800180F802115107ECD590F8021101F08C
:082B9800FB0180F802117047F7
:042BA0000170704709
:102BA40000B508441038990413D4A0F8142103F094
:102BB40004014FF0200CDA064CBF28220CEA8302F1
:102BC40042EA41124FF0800E4FF48B7140F2171C11
:102BD40012E0A0F81021D90640F2131C05D403F02A
:102BE400090191FAA1F10A0E02E0142263F3C7125B
:102BF4004FF0400E4FF4897113F4407F08BF42F048
:0C2C0400400200F80C2000F801E000BDC8
:102C100000B50909DDF804C04FEAD20E62221CF4A7
:102C2000005F90F80EC008BF63228173835480F860
:102C30000EC0827B817314BF6421662120F801E0FD
:042C4000827300BDDE
:102C440001F58372002908BF4FF48172125AD2072A
:0C2C54000EBF00200844B0F808017047D3
:102C600039B1084490F8061101F0FE0180F8061110
:102C700070474821002A08BF402180F802117047A0
:102C800000F5817029B1435CDB0708D10844120AC2
:102C900002E00178890702D40270002070474FF0EB
:042CA000FF3070474A
:082CA400AFF30080FEF778FA9F
:082CAC00EFF3108062B67047DF
:042CB4000020704745
:102CB80010B582B0044600698DF8071078B1D4E9E0
:102CC80000239A4231D26269531C63618154D4E96A
:102CD8000501884229D12046FFF716F925E0E0686A
:102CE80050B1D4E9002C62451FD2531CB3EB0C033E
:102CF80018BF0B46835418E0A06858B1D4E9002CDB
:102D0800624512D2531CB3EB0C0318BFCBB240F888
:102D180022300AE0236A43B1D4E90001884204D290
:102D28000DF10701204601229847206801302060F4
:042D380002B010BD18
:102D3C0070B514460D46064600F090F90146304633
:0C2D4C002A462346BDE8704000F000B8A5
:102D58002DE9F04F03AF8DB047F83C3C91460C4647
:102D6800064600F05BF80546EB46073020F0070002
:102D7800ADEB0008C546A7F1380A504600212422C9
:102D8800FEF702FC47E908546FF0004047F8340C9E
:102D980041F62B70C0F2000047F8288C47E9060678
:102DA8005046494657F83C2CFEF7FEF9DD46A7F198
:082DB8000C04A546BDE8F08FF4
:102DC00083B000B582B0CDE9031241F2846CC2F247
:102DD000000C059303AA01920146DCF80000FFF7FE
:0C2DE000ADFF02B05DF804EB03B07047DB
:102DEC0041F28861C2F2000141F28462C2F2000237
:102DFC000968126841F28C63C2F20003411A1B6825
:102E0C0018BF0121821A18BF01221140C01A18BF25
:082E1C0001200840404270470C
:042E24004020704793
:102E280040F6F860C2F20000032143F25932C0F2C2
:102E380000020161416141F20211C2F200018261A6
:102E4800C1614FF480610162002181624162C16207
:102E580041F20253C2F20003026643661022826600
:102E68000167C16643F24832C0F200024167531A53
:0C2E7800DB7B435401311029F9D1704775
:102E84002DE9F04104468068E66815466268871BB0
:102E94009019BD4204D22A46FEF746FB35440AE0A7
:102EA40088463A46FEF740FBED1B08EB07016068D5
:0C2EB4002A46FEF739FBE560BDE8F0811E
:102EC00070B500EB400040F6F863C2F2000303EB7C
:102ED000C00303F11806D86A022818D00D4614461C
:102EE000012807D020B93046FFF727F8A04207D2C3
:102EF00000240AE03046FFF720F8A04238BF04461D
:102F0000304629462246FFF7BDFF204670BD3046B9
:082F1000BDE87040FFF71CB89A
:102F180041F2E40CC2F2000CDCF800304BB170B5A1
:102F28000F305C6820F0070E0025744503D1184661
:102F380015E00020704700214A1E0025744588BF0F
:102F48000125944280414642186835421CBF194603
:102F5800224668B1446874451D460346EDD1002DEC
:102F680001680CBFCCF80010296040F808EB70BD70
:102F78000029FCD04B68A2EB0E000844A3EB0E021C
:042F88004A60F2E7C2
:102F8C0020B350F8081CCA0718BF21F00100E8B1A3
:102F9C0010B541F2E402C2F200020146D2F800E0A0
:102FAC00BEF1000F51F808CD11D08E45734615D2E5
:102FBC001A461B681C0018BF012401D08B42F7D3A2
:102FCC0040F804CD40F8043C11600EE070471160ED
:102FDC00C1F800E01068C0F804C010BD40F804CD82
:102FEC00012440F804EC116000225CB101EB0C04EC
:102FFC009C4201BFD3F804C004686444046004BF5D
:10300C001B680B608E45E8D25368D4188C42E4D10F
:0C301C000068184450600868106010BD87
:10302800EFF3108072B6B0FA80F041F2D001C2F22C
:08303800000140090860704727
:1030400041F2D000C2F20000006800B162B67047E1
:1030500010B50446FFF7E8FF2046FFF75DFF044682
:08306000FFF7EEFF204610BD52
:1030680041F2E000C2F200000068002804BF41F20B
:083078007060C2F20000704715
:103080007F280BD843F24042C0F2000243F2C33320
:10309000C0F20003105C595C084070470020704784
:0C30A000A0F161011A2938BF20387047E8
:0C30AC00A0F141011A2938BF2030704704
:1030B8007F280BD843F24042C0F2000243F2C333E8
:1030C800C0F20003105C595C08407047002070474C
:1030D80070B541F2C406C2F200060C4632680546D5
:1030E8008AB11F2A16D841F22000C2F2000040F827
:1030F800225040F6A070C2F2000040F82240501C56
:103108003060002070BD42F24B00C0F20000FEF7B4
:0C311800DCFE08B1012070BD3268E2E767
:1031240070B582B004460078BFF35F8F08B1002405
:1031340025E043F2C041C0F2000101A8FEF7DBFF25
:103144006078810711D541F2C805C2F2000541F249
:10315400CC06C2F2000640F00400607028463146F6
:10316400FFF7A6FD60788107F5D401281CBF022172
:103174006170441E18BF012401A800F003F8204622
:0431840002B070BD68
:1031880010B5044641F2CC00C2F20000FFF78EFDF4
:1031980008B9204610BD216843F28F20C0F2000014
:0431A800FEF74CFFE3
:1031AC0041F2C000C2F200000068BFF35F8F7047AD
:0431BC00FEF717BF44
:0431C000FFF7FCBF5A
:1031C40009024300020100803209040000010202E6
:1031D4000100052400100105240101010424020258
:1031E40005240600010705810310000109040100FC
:1031F400020A0000000705820240000107050202DE
:0332040040000186
:103207004A616E756172790046656272756172799D
:10321700004D6172636800417072696C004D61799D
:10322700004A756E65004A756C790041756775735C
:10323700740053657074656D626572004F63746FD7
:10324700626572004E6F76656D62657200446563F4
:07325700656D626572000065
:07325E00414D00504D00003E
:0F3265002561202562202565202554202559004C
:103274002573206661696C656420746F20616371D5
:0B32840075697265206D757465780037
:10328F002573206661696C656420746F2072656CAC
:0B329F0065617365206D757465780033
:1032AA002573206661696C656420746F2062726F91
:0732BA00616463617374009D
:0232C100030008
:1032C3001201000200000040470502100001010244
:0232D3000301F5
:1032D50053756E646179004D6F6E64617900547544
:1032E5006573646179005765646E6573646179001F
:1032F5005468757273646179004672696461790016
:0A3305005361747572646179000071
:02330F00430079
:023311002E008C
:103313006261645F66756E6374696F6E5F63616C2F
:103323006C20776173207468726F776E20696E20EA
:103333002D666E6F2D657863657074696F6E73208B
:053343006D6F646500E0
:10334800000000000000545452205245474745539E
:013358000074
:093359005465726D696E616C002F
:09336200256D2F25642F2579004B
:09336B0025483A254D3A2553008E
:1033740053756E004D6F6E0054756500576564009B
:0D33840054687500467269005361740000C2
:103391004A616E00466562004D61720041707200C3
:1033A1004D6179004A756E004A756C004175670080
:1033B100536570004F6374004E6F7600446563007F
:0133C100000B
:0133C200000A
:0D33C3000007032004170201085710408086
:1033D0006261645F616C6C6F6320776173207468F5
:1033E000726F776E20696E202D666E6F2D65786323
:0D33F000657074696F6E73206D6F64650009
:04340000F5000000D3
:043404008101000042
:04340800C5050000F6
:04340C002517000080
:08341000CF200000E5200000C0
:083418004353202564200A0043
:1034200030313233343536373839414243444546FA
:10343000303132333435363738396162636465662A
:103440002020202020202020206828282828202014
:10345000202020202020202020202020202020206C
:103460004810101010101010101010101010101024
:1034700084848484848484848484101010101010C4
:10348000108181818181810101010101010101011D
:1034900001010101010101010101011010101010D1
:1034A00010828282828282020202020202020202EE
:1034B0000202020202020202020202101010102096
:1034C0005F5F6378615F67756172645F6163717587
:0434D00069726500B8
:1034D4005F5F6378615F67756172645F72656C6575
:0434E40061736500AB
:1034E80000B506480649884205D00268043003B48E
:1034F800904703BCF7E708BC1847000000340000F9
:043508001834000073
:10350C003136000000000020141500004336000086
:10351C0014150020343500007C0100001515000046
:08352C00E9340000A7110000C2
:10353400DD0881CC05820182CC02820382CC048224
:103544008582CC81828282CC838284829B01010128
:1035540088050201010201880202010302018804B4
:10356400020185020188810201820201888302012D
:103574008402019B030103890203050201880102FD
:10358400010202018803020104020188850201810B
:10359400020188820201830201B884020105998034
:1035A400068106B9820607B980080999810A010BC8
:1035B40099820CA101F9210ABB0102992120A121C0
:1035C400C92122C11CCC41285528CC69287D28CC8E
:1035D4009128A528CCB928CD28CCE128F528CC09F8
:1035E400291D29CC31294529CC59296D29CC81297A
:1035F4009529CCA929BD29CCD129E529CCF9290DB6
:103604002ACC212A352ACC492A5D2ACC712A852A3A
:10361400CC992AF015CCF015F015CCF015F0154422
:0C362400D41020D8102004DC102000007E
:10363000206861680834002200E04254491EFCD52D
:023640007047D1
:1036420020686168A2680C340B78491C08260025A2
:103652005B0801D20D78491C0570401C521E02D035
:08366200761EF4D1F0E7704779
:0400000300002CA528
:00000001FF
