:10000000006000203B260000DB180000F107000024
:10001000DB180000DB180000DB1800000000000007
:10002000000000000000000000000000DB180000DD
:10003000DB18000000000000DB180000DB180000E7
:0C0040000000000000000000BB1C0000DD
:10004C0080B541F23C00C2F200000078C007BFF35B
:10005C005F8F26D141F23C00C2F2000002F057FC47
:10006C00F8B1002040F20041C2F20001002200BFB2
:10007C008B181832B2F5A56F1861F9D140F2B100A6
:10008C00C0F2000040F20002C0F20002002102F0B7
:10009C0018FC41F23C00C2F20000BDE8084001F03F
:0400AC009CBD08BD32
:1000B00010B540F20044C2F2000404F5A56000BF90
:0C00C000183801F078FEA042FAD110BD03
:0C00CC000000000000000000631D0000A8
:1000D80080B541F23C00C2F200000078C007BFF3CF
:1000E8005F8F26D141F23C00C2F2000002F011FC01
:1000F800F8B1002040F20041C2F20001002200BF26
:100108008B181832B2F5A56F1861F9D140F2B10019
:10011800C0F2000040F20002C0F20002002102F02A
:10012800D2FB41F23C00C2F20000BDE8084001F0F9
:0401380056BD08BDEB
:10013C002DE9F041C2B090460E46044640F2FF70E5
:10014C0041F21001421CA4F800280023C4F8043822
:10015C00C4F80808C4F80C0865186252C5E90130E7
:10016C00E86040F2F450C0F20000CDE93C0441F2EA
:10017C0028003CAF20444097394601F08AFE409855
:10018C00B84202D028B1142100E010210268515865
:10019C008847C5E9116840F21860C0F20000CDE94B
:1001AC00360436AF3A9740F67045C2F2000505F1B9
:1001BC0018063046394601F05AFA3A98B84202D03D
:1001CC0028B1142100E0102102685158884740F2F0
:1001DC003C60C0F20000CDE9300430AF34973046BB
:1001EC00394601F044FA3498B84202D028B11421AF
:1001FC0000E0102102685158884740F26060C0F25C
:10020C000000CDE92A042AAE2E962846314601F08C
:10021C002EFA2E98B04202D028B1142100E0102101
:10022C0002685158884742F20017C0F2200740F28A
:10023C008460C0F20000CDE9240424AD289500218F
:10024C0041F25006C2F2000607F500300A4656F895
:10025C002110814202F10101F8D102EB420040F27F
:10026C000048C2F2000808EBC000294601F04BFD23
:10027C002898A84202D028B1142100E0102102686D
:10028C005158884740F2A860C0F20000CDE91E0426
:10029C001EAD2295002100BF084656F82110B94228
:1002AC0000F10101F8D100EB400008EBC000294639
:1002BC0001F029FD2298A84202D028B1142100E0B7
:1002CC00102102685158884740F2CC60C0F20000FF
:1002DC00CDE9180418AD1C95002107F5C03000BFFE
:1002EC000A4656F82110814202F10101F8D102EBC5
:1002FC00420008EBC000294601F005FD1C98A842FD
:10030C0002D028B1142100E010210268515888470E
:10031C0040F2F060C0F20000CDE9120412AD169567
:10032C00002100BF084656F82110B1F5102F00F13E
:10033C000101F7D100EB400008EBC000294601F0A9
:10034C00E2FC1698A84202D028B1142100E010213A
:10035C0002685158884740F20227C0F2010740F268
:10036C001470C0F20000CDE90C040CAD1095002106
:10037C0007F17F000A4656F82110814202F1010173
:10038C00F8D102EB420008EBC000294601F0BBFC9F
:10039C001098A84202D028B1142100E01021026864
:1003AC005158884740F23870C0F20000CDE906047D
:1003BC0006AD0A95002100BF084656F82110B94237
:1003CC0000F10101F8D100EB400008EBC000294618
:1003DC0001F099FC0A98A84202D028B1142100E03F
:1003EC00102102685158884740F25C70C0F200003E
:1003FC00CDE900046D460495002100BF084656F86F
:10040C002110B94200F10101F8D100EB400008EBDA
:10041C00C000294601F077FC0498A84202D028B10C
:10042C00142100E01021026851588847204642B040
:04043C00BDE8F081A6
:1004400070B58CB004460025C4F2050540F2D40115
:10045000C0F2000140F8041F40F28071C0F20001B8
:10046000CDE9061406AE0A9631462A4601F079FC1B
:100470000A98B04202D028B1142100E0102102688D
:100480005158884740F2A470C0F20000CDE9000442
:100490006E460496002141F25000C2F2000000BFF7
:1004A0000A4650F82110B1F5A02F02F10101F7D151
:1004B00002EB420040F20041C2F2000101EBC00039
:1004C000314601F026FC0498B04202D028B1142134
:1004D00000E010210268515888470120C2F2100044
:1004E00000F0F6F900F0D8FB3C2000F0B7F9284600
:1004F00040F2FF3100F07EFC28460F2100F090FC16
:1005000028464FF0FF3101F025FA2846012102F07C
:10051000B6F840F60F61CFF60371284600F044FCB0
:0C052000284601F065FA20460CB070BDC2
:10052C0041F23800C2F200000178C90719D101214B
:10053C000170002040F62841C2F20001002200BFE9
:10054C008B181832B2F5347F1861F9D140F2715022
:10055C00C0F2000040F20002C0F20002002102F0E2
:04056C00B0B970476B
:1005700010B540F62844C2F2000404F5347000BF00
:0C058000183801F018FCA042FAD110BDA0
:10058C0038B5040019D040F62845C2F2000500BF6A
:10059C0094FAA4F0B0FA80F0C0F12E01102838BF04
:1005AC00411E01EB410005EBC0000169002918BF99
:0C05BC0001F079F9601E0440EAD138BD5E
:1005C8000000000000000000BF1000009B100000A9
:1005D800031E00003B1E0000BF1000009B1000001F
:0405E8007315000087
:1005EC000000000000000000BF1000009B10000085
:1005FC004B1E0000831E0000BF1000009B1000006B
:04060C00931E000039
:100610000000000000000000BF1000009B10000060
:10062000CB1E0000031F0000BF1000009B10000045
:040630003B17000074
:100634000000000000000000BF1000009B1000003C
:10064400131F00004B1F0000BF1000009B10000090
:04065400D9170000B2
:100658000000000000000000BF1000009B10000018
:10066800B71F0000EF1F0000BF1000009B10000024
:04067800DF17000088
:10067C000000000000000000BF1000009B100000F4
:10068C00FF1F000037200000BF1000009B1000006F
:04069C0047200000F3
:1006A0000000000000000000BF1000009B100000D0
:1006B0005F20000097200000BF1000009B1000008A
:0406C000A72000006F
:1006C4000000000000000000BF1000009B100000AC
:1006D400BB200000F3200000BF1000009B100000AE
:0406E40013180000E7
:1006E8000000000000000000BF1000009B10000088
:1006F8002B21000063210000BF1000009B100000A8
:0407080019180000BC
:10070C000000000000000000BF1000009B10000063
:10071C0073210000AB210000BF1000009B100000F3
:04072C00BB210000ED
:100730000000000000000000BF1000009B1000003F
:10074000CB21000003220000BF1000009B1000001E
:040750001322000070
:100754000000000000000000BF1000009B1000001B
:10076400332200006B220000BF1000009B10000029
:040774007B220000E4
:100778000000000000000000BF1000009B100000F7
:100788009F220000D7220000BF1000009B1000002D
:040798006D180000D8
:10079C000000000000000000BF1000009B100000D3
:1007AC0087230000BF230000BF1000009B10000037
:0407BC00F91500002B
:1007C0001201000200000040470502100010010263
:0407D0000301000021
:1007D40010B540F62814C2F2000404F5407000BFBE
:0C07E400183801F0E6FAA042FAD110BD6E
:1007F00008490A68002AFED41EF0040F0CBFEFF36C
:100800000880EFF3098042F000420A6081690231FA
:08081000816170472CED00E04E
:10081800034C206804348047FBE700F06DFBFEE7DB
:04082800D02A0000D2
:10082C00094B0A4A70B51C689442144609D01D68DD
:10083C0000235E59E6500433B3F51B7FF9D1024B0C
:10084C001A6044F8201070BD08ED00E00000002094
:10085C00042804D1134B1A6842F4803205E00528B1
:10086C0005D1104B1A6842F400321A607047062802
:10087C0004D10C4B1A6842F48022F6E70F2804D1FD
:10088C00094B1A6842F00202EFE70AD91038074BFD
:10089C00420953F8223000F01F00012212FA00F036
:1008AC001860704724ED00E010E000E0BC08000088
:1008BC0000E100E004E100E008E100E00CE100E010
:0408CC0010E100E057
:1008D00000F07043B3F1704F15D100F47F42114B1B
:1008E000120A00F0FF00D318800003F0704240F0BD
:1008F000007023F07F43104323F4700340EA431356
:1009000001221A607047020F81B200F4F810000C47
:1009100011FA00F0044B53F822301A6810431860A3
:0C092000704700BF00E60F40140D0000FF
:10092C00054B18B11A6842F0006202E01A6822F016
:0C093C0000621A60704700BF60E00F40CE
:10094800534B2DE9F0411A68044612F0E04F06D0E7
:100958001A68504B02EA0303B3F1805F02D1002CFE
:10096800C0F294804C494D4A0B68166843F4006302
:1009780023F4800546F4006613F0020F0D6016603C
:1009880002D014F0020F05D015F0010F1AD014F0A0
:10099800010F17D164F003031D403F4B002E1D606B
:1009A80005DA06F07003302B05D0702B02E005F055
:1009B8003003302B02D14FF4805001E04FF4002077
:1009C80000F08DFF04F4FE6325F4FE6545EA030894
:1009D800334D26F0004604EA050526F0700645EA80
:1009E800060604F0080546EAC5052C4F2A4E1020D5
:1009F800C6F800803D6000F072FF28F4405804F407
:100A08000052284904F4405325F4005548EA0303EA
:100A180040201543244A086052BF33603D6033606C
:100A280023F0F86304EA020223F0030358BF3D6091
:100A3800134304F0FC5125F0FC5214F0804F42EAB5
:100A4800010208D0194922F4800204EA010143F4A2
:100A580080030A4301E022F0804214F4006F0CD1B5
:100A68004FF400411248006810F0400F01D10139DD
:100A7800F8D123F4006322F40062074910200B60C8
:100A8800064B1A60BDE8F04100F029BFBDE8F081CF
:100A980000E00F400000FF7060E00F4070E00F4082
:100AA8003000008058E00F400300C00700004040BD
:040AB80050E00F40BB
:100ABC00694B70B51A6810331B68002BB4BF03F078
:100ACC00700102F0300120293AD004D869B1102904
:100ADC0040F0C08010E060295DD0702958D03029DA
:100AEC0040F0B88047F2305063E002F4F8605B49A4
:100AFC00800951F820005CE05949086810F0E04F7B
:100B0C004CD00C68574804EA0000B0F1805F45D027
:100B1C000C68544804EA0000534CA04203D1096805
:100B2C0089B202293CD04E484E49046804EA0101BE
:100B3C004E4CA14236D100684D4980B24D4C22E05A
:100B4C004749086810F0E04F2ED00C68454804EA7D
:100B5C000000B0F1805F27D00C68424804EA000026
:100B6C00414CA04203D1096889B202291ED03C48ED
:100B7C003C49046804EA01013C4CA14218D10068CC
:100B8C003D493E4C80B200280CBF2046084610E080
:100B9C004FF400400DE04FF480000AE0384808E0C4
:100BAC00344806E0324804E0364802E0334800E0BE
:100BBC003148002B02DA13F4006F01E012F4006FDD
:100BCC002AD13149264D09682C6814F0E04F43F6C0
:100BDC00E07401EA040406D02E68224D06EA0505ED
:100BEC00B5F1805F06D16409023401F01F05604342
:100BFC00023505E06409604301F01F0501356D0005
:100C0C00B0FBF5F011F4804F18BF400811F4004F01
:100C1C0018BF800842F4800212F4800F1BD0002B06
:100C2C0011DA13F0804F07D013F4006F04D103F0E6
:100C3C00FE5340009B0D02E003F0FC53DB0D01332F
:100C4C00B0FBF3F070BD02F0F062D20D0132B0FBDC
:100C5C00F2F070BD002070BD60E00F40A80C0000E9
:100C6C0000E00F400000FF700000011000000310B6
:100C7C000024F400001BB70000093D00C0C62D0085
:0C0C8C00C0E1E4007038390064E00F4063
:100C9800024B1A6822F480421A60704770E00F40D5
:100CA80040420F0000201C0080841E0000802500A8
:100CB800999E36000040380000093D0000803E0043
:100CC80000004B00404B4C0000204E00808D5B0024
:100CD80000C05D000080700000127A0000007D00F6
:100CE80080969800001BB7000080BB00C0E8CE00CB
:100CF800647ADA000024F4000000FA0080A81201E7
:0C0D0800002D310100366E0140787D01A5
:0C0D140000E10F4004E10F4008E10F4037
:100D200010B50023074AD90052F83340844202D15B
:100D30005218506810BD01330C2BF3D14FF0FF3027
:080D400010BD00BF480D0000CA
:100D480000000340230000000010034025000000BD
:100D5800002003402700000000300340330000005B
:100D68000040034056000000005003406C000000A3
:100D7800006003406E000000007003407000000037
:100D880000C004407200000000D00440740000005D
:100D980000E004407600000000F004407800000005
:100DA80011F00F0203D0C3889BB21343C38011F420
:100DB800606204D003899BB243EA1223038111F0D5
:100DC8007F4F03D0C37A43EA1163C37211F4803FA3
:100DD80002D00123C0F8083411F4003F02D0024BBE
:0C0DE80001221A60704700BF480405405B
:100DF40011F0FF0F03D0C37A23EA0103C37211F485
:100E0400807F02D00023C0F8083411F4007F02D0A0
:0C0E1400014B00221A60704748040540A2
:100E200011F0FF0F02D0C37A0B43C37211F4807F1D
:100E300002D00123C0F8083411F4007F02D0024B25
:0C0E400001221A60704700BF4804054002
:100E4C000346807AD3F80C2412F0010F07D093F8E4
:100E5C000C2440F4807042F0010283F80C24064B01
:100E6C001A6812F0010F05D01A6840F4007042F0B5
:0C0E7C0001021A60704700BF4C040540E2
:040E88000000000066
:100E8C0003480449091A08B500F073FE0CBC184756
:080E9C00B0110020B019002084
:100EA4005AB3844690EA01039B071FD1830707D0F6
:100EB40011F8013B00F8013B521EF7D11CE08446B7
:100EC400203A09D32DE9F007B1E8F807A0E8F807BC
:100ED400203AF9D2BDE8F0071C3205D451F8043B9E
:100EE40040F8043B121FF9D2043205D011F8013B3B
:0C0EF40000F8013B521EF9D16046704727
:100F0000ADF5875D84B040F24050C0F2C010FFF7ED
:100F10001BFD0120FFF70AFDFFF7D0FD0DF1100EBC
:100F20000EF5835000F00DF800F1280100F1780271
:100F300004A8FFF703F901A8FFF782FA00F0CEFC3E
:020F4000FEE7CA
:100F420070B586B004460025C4F2030540F248009D
:100F5200C0F200002060201D0121012200F038FFB4
:100F62000620207544F24026C0F20F06A66104F165
:100F72001C0001210A2200F02BFF04F12C000121A8
:100F8200642200F025FF04F13C0001214FF47A7243
:100F920000F01EFF04F14C00012142F2107200F039
:100FA20017FF04F15C0048F2A062C0F201020121C5
:100FB20000F00EFF04F16C000121324600F008FF40
:100FC200002084F87C000120C1F21000FFF77FFCB2
:100FD2002846FF2100F089FC2846222101F034FB3B
:100FE200A2682846FF2100F089FC40F2D050C0F2EE
:100FF2000000CDE900046E460496204631462A469A
:10100200FF2300F059FE0498B04202D028B1142107
:1010120000E0102102685158884728460121012624
:1010220001F02AFB2846012101F022FB204684F828
:061032007C6006B070BDF9
:1010380070B504460025C4F203052846012101269F
:1010480000F07FFCC00723D02846012101F011FBE6
:10105800207D2674E0B141F2340EC2F2000EA3697D
:10106800DEF800C004F11C02012100BF9668BCFB39
:10107800F6F404FB16C646B916681173F51A18BFBC
:101088000CF10105CEF80050AC4610320138EDD114
:0210980070BD29
:06109A00082101F08BBCEF
:1010A000F8B5140009D00D460646274615F8011B71
:0E10B000304600F0AAFA013FF8D12046F8BD04
:0210BE00704779
:1010C000F0B585B0B0F5D06F12DB0A4642F22001D0
:1010D00088423DDCB0F5D06F00F0ED80B0F5106FC8
:1010E00000F0888040F62121884200F0338133E10E
:1010F000B0F5817F59DB00F0D180B0F5407F6BD037
:10110000B0F5A06F40F028810021CDE9001141F237
:101110005000C2F2000000BF0A4650F82110B1F59D
:10112000A02F02F10101F7D102EB420040F2004191
:10113000C2F2000101EBC0000169002900F00A8140
:1011400041F23002C2F20002694600F0ABFB01E15D
:101150000131884200F0CB8042F2A111884271D067
:1011600042F22121884240F0F780002141F25000F4
:10117000C2F2000042F20012C0F222020B4650F806
:101180002110914203F10101F8D103EB430040F239
:101190000041C2F2000101EBC0000169002947D003
:1011A00041F23002C2F200023CE008280FD0B0F554
:1011B000807F40F0D18041F24000C2F20000807890
:1011C000012840F20000C4F2050034D070E005B000
:1011D000BDE8F04000F04DBB41F24000C2F200001B
:1011E0008178022940F20000C4F2050060D0012994
:1011F00021D05DE0002141F25000C2F2000000BFAA
:101200000B4650F82110B1F5102F03F10101F7D171
:1012100003EB430040F20041C2F2000101EBC000C9
:10122000016929B141F24001C2F2000100F03AFB2C
:101230000020C4F205000122002105B0BDE8F04005
:1012400000F0ECBB0021CDE9001141F25000C2F2E8
:1012500000004AF20012C0F2210200BF0B4650F813
:101260002110914203F10101F8D103EB430040F258
:101270000041C2F2000101EBC000016931B141F24D
:101280003002C2F20002694600F00CFB0020C4F2FA
:1012900005000021012200F0C1FB5BE041F24000AB
:1012A000C2F200004188002961D00020C4F205008C
:1012B0000021002256E00024C4F2050440F2C07C64
:1012C000C0F2000C69469CE86D006DC1204600210B
:1012D0006A46122300F0B1FB0130F7D0204600210E
:1012E0004FF4857200F0C2FB0130F7D032E041F2DA
:1012F0004C04C2F2000414F8020C0022002866D04C
:1013000042F20010C0F2200041F25001C2F200018E
:10131000134651F82220824203F10102F8D103EB77
:10132000430040F20041C2F2000101EBC00001693C
:1013300031B141F24001C2F20001224600F0B2FA9E
:101340000020C4F2050000210122002500F066FB08
:1013500004F8025C05B0F0BD0020C4F205000021D5
:101360004FF4005205B0BDE8F04001F0AAB9007991
:10137000802839DD832878D0822800F0AA8081284F
:1013800040F0F3800024C4F20504204610214FF4FD
:10139000005201F0AEF9204610214FF4005201F046
:1013A00080F9102000F0D9FF0021CDE9001141F2B1
:1013B0005000C2F2000040F28122C0F201020B464E
:1013C00050F82110914203F10101F8D16EE00120A3
:1013D00004F8020C41F24000C2F20000C3882380EE
:1013E0000020C4F2050027E7012800F0AD800228A4
:1013F00040F0BB800024C4F20504204620210022D6
:10140000002501F076F920462021002201F049F95B
:10141000202000F0A2FFCDE9005541F25000C2F2B9
:10142000000040F20221C0F201012A4650F82530A6
:1014300001358B42F9D102EB420040F20041C2F289
:10144000000101EBC000016931B141F23002C2F28A
:101450000002694600F026FA20460021012200F031
:10146000DDFA20462021002215E70024C4F20504FD
:10147000204630214FF4005201F03BF92046302144
:101480004FF4005201F00DF90021CDE9001141F2B5
:101490005000C2F2000040F28322C0F201020B466B
:1014A00050F82110914203F10101F8D103EB430000
:1014B00040F20041C2F2000101EBC00001690029C5
:1014C00040D041F23002C2F20002694600F0EAF96F
:1014D00038E00024C4F20504202000F03EFF20463E
:1014E00020214FF4005201F0DCF80021CDE9001179
:1014F00041F25000C2F2000040F28222C0F201022A
:101500000B4650F82110914203F10101F8D103EB91
:10151000430040F20041C2F2000101EBC00001694A
:1015200031B141F23002C2F20002694600F0BAF96C
:10153000204620214FF4005201F0DBF840F68C20C9
:1015400000F0D1F92046A4E600F581300022CDE973
:10155000002241F25001C2F20001134651F822204C
:10156000824203F10102F8D17FE60020C4F20500B7
:021570009FE6F4
:061572004068FFF760BDB8
:1015780070B516460546914238BF0E46402E40F2D9
:101588000004C4F2050417D3204600212A4640234C
:1015980000F04FFA0130F7D0204600214FF4817255
:1015A80000F060FA0130F7D04035A6F1400071B282
:1015B8004029064601DAE7E73046C6B22046002150
:1015C8002A46334600F035FA0130F7D0204600218C
:0E15D8004FF4857200F046FA0130F7D070BD76
:1015E60002460068116018B19168C90001F0E0B9BF
:0215F60070473C
:1015F80080B50020C4F205000021002200F00AFA9C
:02160800FEE7FB
:10160A00D0F80838B0F8002801339342002228BFE6
:10161A001346C0F80838C154D0F80838D0F80C1866
:10162A00994208D1B0F800380131994238BF0A46C8
:10163A00C0F80C287047D0F804180131C0F8041813
:02164A007047E7
:10164C00002040F62811C2F2000100228B1818323B
:10165C00B2F5407F1861F9D140F2D570C0F20000AC
:0E166C0040F20002C0F20002002101F02AB993
:10167A0030B587B004466D46284600F00BFC21467B
:10168A0000F00DF80498A84202D028B1142100E015
:0E169A001021026851588847204607B030BD25
:1016A80081420CD0B0B584B00C4605460069096982
:1016B800A84205D0A14210D02961206137E07047C7
:1016C8000268A142D26815D021469047286901686E
:1016D800096988472069286128E00868C2680846BF
:1016E8002946904720690168096988472869206167
:1016F8002D611CE069469047286901680969884797
:1017080000272F6120690168CA6829469047206927
:10171800016809698847276100982D61C268684691
:10172800214690470098016968468847246104B0BB
:02173800B0BD42
:06173A00406800F000B859
:1017400038B504460025C4F205052846202100F0DE
:1017500017F902462846202100F01BF941F2420108
:10176000605A40F0020020F0100220466252BDE8AC
:06177000384000F000B853
:1017760041F24202815A0B0600D4704770B58618B2
:10178600D6F80620D6F80A0082421ED9141AD6F8D0
:101796000210402C28BF40240A180025C4F2050573
:1017A60028462021234600F045F9284620214FF4FB
:1017B600817200F058F93088D6F80A1040F010000F
:1017C60030800819C6F80A0070BD21F0800030800C
:0217D60070BDE4
:0617D800406800F0BEBBFA
:0617DE00406800F000B8B5
:1017E40038B504460025C4F205052846102100F04A
:1017F400C5F802462846102100F0C9F841F242001B
:0E180400215A41F0010121F00801215238BDA6
:06181200043000F075BC7B
:06181800043000F000B8EE
:10181E0070B51178066803291AD1144641F24200B8
:10182E00002131520025C4F20505284610214FF43F
:10183E00005200F02DF9284620214FF4005200F0FE
:10184E0027F928462021002200F022F901202060ED
:0E185E0041F24200315A21F40071315270BD46
:06186C00406800F03ABDE7
:1018720038B541F24005C2F2000542F60724AA79C2
:10188200C0F2000420460221FFF775FEAB7900206A
:10189200C4F205000021224601B0BDE8304000F04C
:0218A200CBB8C1
:0E18A400006910B103689B69184700F064FDED
:0E18B200006910B101688969084700F05DFD0A
:1018C00040F62810C2F20000006928B140F6281046
:0A18D000C2F20000FFF7EDBF704701
:0218DA00FEE727
:0A18DC0008B500F0B0FEC0B208BD70
:0618E6000138FDD170473E
:1018EC00C26840F2011301EA030322EA0303C36056
:0218FC00704733
:1018FE0011F0FF0F18BF826211F47F4F18BFC26242
:02190E00704720
:1019100070B50C461546FFF703FA14F0FF0F0646A4
:1019200005D02946FEF782FF3046FEF797FF14F4F4
:101930007F4F09D0741C20462946FEF777FF2046CA
:0A194000BDE87040FEF78ABF70BDDD
:0A194A0009B1006A7047C0697047D8
:10195400C3889BB223EA0103C3800389490C9BB269
:0A196400490423EA11410181704794
:10196E003C2010B5FEF75BFF3C20BDE81040FEF7B3
:02197E006EBF3A
:101980000918B1F80231B1F806019BB243EA0040F0
:0219900070479E
:10199200D9B912F0010F05D090F8023143F040039B
:1019A20080F8023112F0100F05D090F8023143F0A6
:1019B200800380F8023112F0040F17D090F8023140
:1019C20003F0FB0380F802317047081890F80231E7
:1019D20002F0240123EA010380F8023190F8063173
:0E19E20002F4980223EA124280F806217047B0
:0A19F000437843F040034370704752
:1019FA0011B101F5837301E04FF481731B5A13F09F
:101A0A00010304D000F58470405A80B2704718462A
:021A1A00704713
:101A1C0031B9002A0CBF4022482280F802217047BD
:0E1A2C0000F58370435C03F0FE0343547047E3
:101A3A0030B500F58174645C002914BF01250225C4
:101A4A0025420BD1203000EB910103E012F8010B83
:101A5A00013B0870002BF9D1184630BD4FF0FF301A
:021A6A0030BD8D
:101A6C0029B990F8023113F0020F07D00BE000F502
:101A7C0081735B5C13F0010F08D1120A00F58170C1
:101A8C004254002070474FF0FF3070474FF0FF304A
:021A9C00704791
:101A9E0041B990F8023113F0030F1BD0012380F8E7
:101AAE000331704712F4005F0AD000F58170435C79
:101ABE0013F0010F0ED0435C43F0080343547047FC
:101ACE0000F58370435C13F0010F03D0435C43F0C9
:061ADE00100343547047A1
:101AE40040F68860C0F200000468204600F001F867
:021AF400FBE70E
:101AF60080B505281FD840F6F87CC2F2000C41F6E6
:101B06007D335CF82010C0F200034CF82030A9B1F8
:101B160041F67B32C0F2000291420CD0994208D0C5
:101B260041F67933C0F20003994207D04CF82030D1
:101B36008847002008BD4FF0FF3008BD0120FEF7A2
:021B46006FFE30
:101B480041F24E03C2F200031A78002A02464FF00F
:101B5800010007D141F2100CC2F2000CCCE90021BF
:061B680018700020704718
:0A1B6E00014600200022FFF7E8BF47
:021B78007047B4
:021B7A007047B2
:021B7C007047B0
:101B7E00082907D341F22C02C2F2000210600022A3
:061B8E00C0E900217047D0
:101B940010B5044600F079FE204600F028FEBDE8AA
:061BA400104000F07EBEBF
:061BAA00FFF79BFFFEE7C0
:101BB000F8B541F21C04C2F20004206890B140F66E
:101BC0007875C2F2000540F6F866C2F200066FF0C2
:101BD000030707EB800029583058884720680138F0
:061BE0002060F6D1F8BD03
:101BE60070B582B004460125BFF35F8F057042F6DB
:101BF6009821C0F2000101A800F02FF86678657000
:101C060000F0BAFE700706D541F22000C2F20000CD
:101C160000F0B0FD08B902B070BD42F6F010C0F297
:0E1C2600000042F69821C0F20001FFF7BBFF5C
:101C340010B541F22404C2F200040020206000F038
:061C44009AFD206010BDB6
:101C4A0010B541F22004C2F200040020206000F026
:061C5A008FFD206010BDAB
:101C600010B50446016041F22400C2F2000000F009
:101C700084FD08B9204610BD216842F6BA10C0F2B2
:061C80000000FFF792FFD7
:101C860080B500F008F800B108BD42F63E20C0F26B
:061C96000000FFF787FFCC
:101C9C0010B50446012898BF0124204600F005FE2B
:0E1CAC0020B900F078FE08B18047F6E710BDC1
:101CBA0081B078B51446059305A841F24F06C2F2E1
:101CCA00000600903278031D1F2A009318D8056871
:101CDA0002EB420040F62812C2F2000202EBC000F8
:101CEA0000F012F8307841F22C11C2F2000151F8DA
:101CFA00202020462946FFF706FE30780130307052
:081D0A00BDE8784001B070470C
:101D120070B50D4604460021002600F011F828692E
:101D220020B1A84204D020612E6107E0266105E0BF
:101D3200246128690168CA6821469047204670BD1F
:101D420010B5044600690021A042216102D028B1E9
:101D5200142100E01021026851588847204610BD26
:101D620081B030B582B0144641F24F05C2F200058F
:101D72000593287805AA1F28019216D800EB400087
:101D820040F62812C2F2000202EBC000FFF7C0FFC9
:101D9200287841F22C11C2F2000151F8201020469D
:101DA200FFF7E4FD28780130287002B0BDE830402A
:041DB20001B07047C5
:101DB60010B504460069A04202D028B1142100E003
:0C1DC6001021026851588847204610BDCB
:101DD20070B514460D4606460260FEF76EFE4DF6DD
:101DE2008361C4F21B31A0FB0101880C6843B4FB80
:101DF200F5F10138C6E9010100213046317370BDA9
:101E020030B585B004460820FFF73CFF05460DF1CA
:101E12001300029001200390606840F2D051C0F29A
:101E22000001C5E900100020019001A80021FFF780
:081E3200D9FB284605B030BDC4
:101E3A0040F2D052C0F200024068C1E90020704767
:101E4A0030B585B004460820FFF718FF05460DF1A6
:101E5A001300029001200390606840F2F451C0F22E
:101E6A000001C5E900100020019001A80021FFF738
:081E7A00B5FB284605B030BDA0
:101E820040F2F452C0F200024068C1E900207047FB
:0C1E92004068097800F50160FFF7B6BB5E
:101E9E0010B50A6904463AB18A4207D010688168C3
:101EAE0010468847206107E0226105E02461086939
:0C1EBE000168CA6821469047204610BD0C
:101ECA0030B585B004460820FFF7D8FE05460DF167
:101EDA001300029001200390606840F21861C0F27A
:101EEA000001C5E900100020019001A80021FFF7B8
:081EFA0075FB284605B030BD60
:101F020040F21862C0F200024068C1E90020704746
:101F120030B585B004460820FFF7B4FE05460DF142
:101F22001300029001200390606840F23C61C0F20D
:101F32000001C5E900100020019001A80021FFF76F
:081F420051FB284605B030BD3B
:101F4A0040F23C62C0F200024068C1E900207047DA
:101F5A0030B593B004460025C4F205052846202171
:101F6A00FFF709FD024628462021FFF70DFD284606
:101F7A002021FFF73DFD119058B111AB28462021D1
:101F8A0001AA00F0D1FBBDF84420204601A9FFF7C1
:101F9A0082F8284620210022FFF73BFD41F2420049
:0C1FAA00215A41F00401215213B030BD57
:101FB60030B585B004460820FFF762FE05460DF1F0
:101FC6001300029001200390606840F26061C0F245
:101FD6000001C5E900100020019001A80021FFF7CB
:081FE600FFFA284605B030BDEA
:101FEE0040F26062C0F200024068C1E90020704712
:101FFE0030B585B004460820FFF73EFE05460DF1CC
:10200E001300029001200390606840F28461C0F2D8
:10201E000001C5E900100020019001A80021FFF782
:08202E00DBFA284605B030BDC5
:1020360040F28462C0F200024068C1E900207047A5
:10204600897840684FF4825201F00301815400F50B
:082056008250402141807047D7
:10205E0030B585B004460820FFF70EFE05460DF19B
:10206E001300029001200390606840F2A861C0F254
:10207E000001C5E900100020019001A80021FFF722
:08208E00ABFA284605B030BD95
:1020960040F2A862C0F200024068C1E90020704721
:1020A6004068126800F5815041F24001C2F2000119
:0420B600FEF7F5BE7E
:1020BA0030B585B004460820FFF7E0FD05460DF16E
:1020CA001300029001200390606840F2CC61C0F2D4
:1020DA000001C5E900100020019001A80021FFF7C6
:0820EA007DFA284605B030BD67
:1020F20040F2CC62C0F200024068C1E900207047A1
:1021020010B5006800F581520024C4F2050420468F
:1021120000210723FFF790FC204600214FF485722F
:08212200BDE81040FFF7A1BC6D
:10212A0030B585B004460820FFF7A8FD05460DF135
:10213A001300029001200390606840F2F061C0F23F
:10214A000001C5E900100020019001A80021FFF755
:08215A0045FA284605B030BD2E
:1021620040F2F062C0F200024068C1E9002070470C
:1021720030B585B004460820FFF784FD05460DF111
:102182001300029001200390606840F21471C0F2C3
:102192000001C5E900100020019001A80021FFF70D
:0821A20021FA284605B030BD0A
:1021AA0040F21472C0F200024068C1E90020704790
:1021BA00406841F24201425A22F0090242527047F3
:1021CA0030B585B004460820FFF758FD05460DF1E5
:1021DA001300029001200390606840F23871C0F247
:1021EA000001C5E900100020019001A80021FFF7B5
:0821FA00F5F9284605B030BDDF
:1022020040F23872C0F200024068C1E90020704713
:10221200406841F21001425A0844511E0022C0E9AE
:102222000121C160032180F83010402141867047AE
:1022320030B585B004460820FFF724FD05460DF1B0
:102242001300029001200390606840F25C71C0F2BA
:102252000001C5E900100020019001A80021FFF74C
:08226200C1F9284605B030BDAA
:10226A0040F25C72C0F200024068C1E90020704787
:10227A0040680022B0F800180139C0F8042841F279
:10228A004202C0F80818835AC0F80C1823F0240137
:04229A0081527047B6
:10229E0030B585B004460820FFF7EEFC05460DF17B
:1022AE001300029001200390606840F28071C0F22A
:1022BE000001C5E900100020019001A80021FFF7E0
:0822CE008BF9284605B030BD74
:1022D60040F28072C0F200024068C1E900207047F7
:1022E60070B582B004460025C4F20505284600F004
:1022F600CFF9060009D0F00704D028460021FFF7E1
:1023060079FB68B93046FEF73EF92846FEF79BFD95
:1023160000F00700012804BF0020207002B070BD45
:10232600019041F24006C2F2000601AB28460021A8
:10233600324600F0FBF941F24801C2F2000195F87D
:1023460002018878002806BF308808800888214660
:04235600FEF7B3FEDD
:10235A0038B504460025C4F2050528462146FFF78C
:10236A000AFB024628462146BDE83840FFF70CBB67
:0C237A0042F60920C0F20000FFF712BC80
:1023860030B585B004460820FFF77AFC05460DF106
:102396001300029001200390606840F2A471C0F21D
:1023A6000001C5E900100020019001A80021FFF7F7
:0823B60017F9284605B030BDFF
:1023BE0040F2A472C0F200024068C1E900207047EA
:1023CE0040F64010C2F200000169002908BF7047B4
:0423DE00FFF768BAE3
:1023E20040F65810C2F200000169002908BF704788
:0423F200FFF75EBAD9
:1023F60040F67010C2F200000169002908BF70475C
:04240600FFF754BACE
:10240A0040F68810C2F200000169002908BF70472F
:04241A00FFF74ABAC4
:10241E0040F6A010C2F200000169002908BF704703
:04242E00FFF740BABA
:1024320040F6B810C2F200000169002908BF7047D7
:04244200FFF736BAB0
:1024460040F6D010C2F200000169002908BF7047AB
:04245600FFF72CBAA6
:10245A0040F6E810C2F200000169002908BF70477F
:04246A00FFF722BA9C
:10246E0040F60020C2F200000169002908BF704743
:04247E00FFF718BA92
:1024820040F61820C2F200000169002908BF704717
:04249200FFF70EBA88
:1024960040F63020C2F200000169002908BF7047EB
:0424A600FFF704BA7E
:1024AA0040F64820C2F200000169002908BF7047BF
:0424BA00FFF7FAB975
:1024BE0040F66020C2F200000169002908BF704793
:0424CE00FFF7F0B96B
:1024D20040F67820C2F200000169002908BF704767
:0424E200FFF7E6B961
:1024E60040F69020C2F200000169002908BF70473B
:0424F600FFF7DCB957
:1024FA0040F6A820C2F200000169002908BF70470F
:04250A00FFF7D2B94C
:10250E0040F6C020C2F200000169002908BF7047E2
:04251E00FFF7C8B942
:1025220040F6D820C2F200000169002908BF7047B6
:04253200FFF7BEB938
:1025360040F6F020C2F200000169002908BF70478A
:04254600FFF7B4B92E
:10254A0040F60830C2F200000169002908BF70474E
:04255A00FFF7AAB924
:10255E0040F62030C2F200000169002908BF704722
:04256E00FFF7A0B91A
:1025720040F63830C2F200000169002908BF7047F6
:04258200FFF796B910
:1025860040F65030C2F200000169002908BF7047CA
:04259600FFF78CB906
:10259A0040F66830C2F200000169002908BF70479E
:0425AA00FFF782B9FC
:1025AE0040F68030C2F200000169002908BF704772
:0425BE00FFF778B9F2
:1025C20040F69830C2F200000169002908BF704746
:0425D200FFF76EB9E8
:1025D60040F6B030C2F200000169002908BF70471A
:0425E600FFF764B9DE
:1025EA0040F6C830C2F200000169002908BF7047EE
:0425FA00FFF75AB9D4
:1025FE0040F6E030C2F200000169002908BF7047C2
:04260E00FFF750B9C9
:1026120040F6F830C2F200000169002908BF704795
:04262200FFF746B9BF
:1026260040F61040C2F200000169002908BF704759
:04263600FFF73CB9B5
:08263A00AFF30080FEF7EBF89E
:08264200EFF3108062B670474F
:10264A00C36823F4807323F00103C3600B0E036095
:10265A0001F0FF03090A01F0FF0143F4007341F49A
:08266A000071436081607047BC
:0826720083690B43836170478B
:04267A004162704702
:10267E00C38841EA0303C3800389490C9BB2490412
:08268E0043EA1141018170478C
:0C269600438880889BB243EA00407047F4
:1026A20012F4005F05D000F58170435C43F04003F3
:1026B20004E000F58370435C43F0800343547047A9
:1026C20031B990F8023143F0600380F8023170476B
:1026D200B2F5005F05D100F58170435C43F0100351
:1026E20004E000F58370435C43F0200343547047D9
:1026F20031B990F8023103F0FB0380F802317047E0
:10270200B2F5005F09D100F58170435C03F0CF039D
:102712004354435C43F0400308E000F58370435C9C
:1027220003F09F034354435C43F0800343547047D8
:1027320030B511B101F5837401E04FF48174245A6C
:1027420014F0010403D11C604FF0FF3030BD00F5DE
:102752008474645A1D68A4B2AC4228BF2C4620304F
:102762001C6000EB910103E00B78013C02F8013B95
:08277200002CF9D1204630BD16
:04277A000020704784
:10277E0041F22C0CC2F2000CDCF800304BB170B5FB
:10278E000F305C6820F0070E0025744503D1184603
:10279E0015E00020704700214A1E0025744588BFB1
:1027AE000125944280414642186835421CBF1946A5
:1027BE00224668B1446874451D460346EDD1002D8E
:1027CE0001680CBFCCF80010296040F808EB70BD12
:1027DE000029FCD04B68A2EB0E000844A3EB0E02BE
:0427EE004A60F2E764
:1027F20020B350F8081CCA0718BF21F00100E8B145
:1028020010B541F22C02C2F200020146D2F800E0F9
:10281200BEF1000F51F808CD11D08E45734615D286
:102822001A461B681C0018BF012401D08B42F7D343
:1028320040F804CD40F8043C11600EE0704711608E
:10284200C1F800E01068C0F804C010BD40F804CD23
:10285200012440F804EC116000225CB101EB0C048D
:102862009C4201BFD3F804C004686444046004BFFE
:102872001B680B608E45E8D25368D4188C42E4D1B1
:0C2882000068184450600868106010BD29
:10288E00EFF3108072B6B0FA80F041F22801C2F276
:08289E000001400908607047C9
:1028A60041F22800C2F20000006800B162B670472B
:1028B60010B50446FFF7E8FF2046FFF75DFF044624
:0828C600FFF7EEFF204610BDF4
:1028CE0070B541F21C06C2F200060C46326805468F
:1028DE008AB11F2A16D840F67870C2F2000040F86E
:1028EE00225040F6F860C2F2000040F82240501C20
:1028FE003060002070BD41F6B130C0F20000FFF72D
:0C290E002FF908B1012070BD3268E2E72B
:10291A0070B582B004460078BFF35F8F08B1002417
:10292A0025E042F68421C0F2000101A8FFF793F9DD
:10293A006078810711D541F22005C2F2000541F203
:10294A002406C2F2000640F00400607028463146B0
:10295A00FFF70EFF60788107F5D401281CBF02211A
:10296A006170441E18BF012401A800F003F8204634
:04297A0002B070BD7A
:10297E0010B5044641F22400C2F20000FFF7F6FE45
:10298E0008B9204610BD216842F6D510C0F20000ED
:04299E00FFF704F942
:1029A20041F21800C2F200000068BFF35F8F704767
:0429B200FFF7EFB884
:0429B600FFF7FCBF6C
:1029BA002573206661696C656420746F2061637198
:0B29CA0075697265206D7574657800FA
:1029D5002573206661696C656420746F2072656C6F
:0B29E50065617365206D7574657800F6
:1029F0002573206661696C656420746F2062726F54
:072A0000616463617374005F
:022A07000300CA
:102A09006261645F66756E6374696F6E5F63616C42
:102A19006C20776173207468726F776E20696E20FD
:102A29002D666E6F2D657863657074696F6E73209E
:052A39006D6F646500F3
:102A3E006261645F616C6C6F632077617320746890
:102A4E00726F776E20696E202D666E6F2D657863BE
:0D2A5E00657074696F6E73206D6F646500A4
:042A6C004D00000019
:042A7000D900000089
:042A74002D0500002C
:042A78004D160000F7
:082A7C00351C00004B1C00009A
:102A84005F5F6378615F67756172645F61637175CD
:042A940069726500FE
:102A98005F5F6378615F67756172645F72656C65BB
:042AA80061736500F1
:102AAC0000B506480649884205D00268043003B4D4
:102ABC00904703BCF7E708BC184700006C2A0000DD
:042ACC00842A000058
:102AD000DD2B00000000002050100000EF2B000054
:102AE00050100020F82A00005C0100008D0E00004C
:082AF000AD2A000023080000DC
:102AF800DD0881CC05820182CC02820382CC04826B
:102B08008582CC81828282CC838284829B0101016E
:102B180088050201010201880202010302018804FA
:102B28000201850201888102018202018883020173
:102B38008402019B03010389020305020188010243
:102B48000102020188030201040201888502018151
:102B5800020188820201830201B88402010599807A
:102B6800068106B9820607B980080999810A010B0E
:102B780099820CA101F9210ABB0102992120A12106
:102B8800C92122C118CCCF23E323CCF7230B24CCB3
:102B98001F243324CC47245B24CC6F248324CC9774
:102BA80024AB24CCBF24D324CCE724FB24CC0F258E
:102BB8002325CC37254B25CC5F257325CC87259B32
:102BC80025CCAF25C325CCD725EB25CCFF2513264F
:042BD8000C272600A0
:102BDC00206861680834002200E04254491EFCD58C
:022BEC00704730
:102BEE0020686168A2680C340B78491C0826002501
:102BFE005B0801D20D78491C0570401C521E02D094
:082C0E00761EF4D1F0E77047D7
:040000030000263B98
:00000001FF
