:1000000000600020193A00003D250000890C000026
:100010003D2500003D2500003D25000000000000BA
:100020000000000000000000000000003D2500006E
:100030003D250000000000003D2500003D2500009A
:100040000010001000000540020000002000000029
:1000500040000000040000000021000082000000B9
:100060000300000000000000002000000000054028
:10007000020000002000000040000000000004001A
:10008000000100000200000003000000000000006A
:10009000000000000000054001000000100000000A
:1000A000100000000200000000220000810000009B
:0C00B00001000000000000000020000023
:0400BC000000000040
:1000C00000000540000000000000000040000000AB
:1000D0000000000000030000800000003C00000061
:1000E000FF0300000F0000000F0E03FF01000000DF
:0400F00001001020DB
:0C00F4000000000000000000D9290000FE
:1001000080B541F23820C2F200000078C007BFF38A
:100110005F8F26D141F23820C2F2000003F0DAFEF0
:10012000F8B1002040F20041C2F20001002200BFFD
:100130008B181832B2F5A56F1861F9D140F265102D
:10014000C0F2000040F20002C0F20002002103F001
:100150009BFE41F23820C2F20000BDE8084002F0E8
:04016000D1BB08BD4A
:1001640010B540F20044C2F2000404F5A56000BFDB
:0C017400183802F0ADFCA042FAD110BD1A
:0C0180000000000000000000812A0000C8
:10018C0080B541F23820C2F200000078C007BFF3FE
:10019C005F8F26D141F23820C2F2000003F094FEAA
:1001AC00F8B1002040F20041C2F20001002200BF71
:1001BC008B181832B2F5A56F1861F9D140F26510A1
:1001CC00C0F2000040F20002C0F20002002103F075
:1001DC0055FE41F23820C2F20000BDE8084002F0A2
:0401EC008BBB08BD04
:1001F00030B58DB0044640F28811C0F2000140F8DD
:10020000041F40F68C31C0F20001CDE9061406ADA2
:100210000A950022C4F20502294602F031FC0A9830
:10022000A84202D028B1142100E0102102685158E0
:10023000884740F6B030C0F20000CDE900046D46BA
:100240000495002141F27060C2F200000A4650F8A5
:100250002110B1F5A02F02F10101F7D102EB42000C
:1002600040F20041C2F2000101EBC000294602F059
:10027000DFFB0498A84202D028B1142100E010212D
:1002800002685158884740F2C000C0F2000002F0F6
:0802900077F820460DB030BDE7
:1002980041F23020C2F200000178C90719D10121CA
:1002A8000170002040F62841C2F20001002200BF80
:1002B8008B181832B2F5347F1861F9D140F2DD207D
:1002C800C0F2000040F20002C0F20002002103F078
:0402D800D7BD7047D7
:1002DC0010B540F62844C2F2000404F5347000BF97
:0C02EC00183802F0F1FBA042FAD110BD5E
:1002F80041F23420C2F200000178C90719D1012166
:100308000170002040F6F861C2F20001002200BF2F
:100318008B182032B2F5A07F9861F9D141F65D3093
:10032800C0F2000040F20002C0F20002002103F017
:04033800A7BD7047A6
:10033C00F8B514460D460646287840B3252808D053
:10034C0001358DF8030030460DF1030101F0F9FB86
:10035C00F2E76878722809DC58280BD0642814D18D
:10036C0054F8041B304602F07DFC0EE0732807D0D5
:10037C0078280AD154F8041B304601F0FDFB04E048
:10038C0054F8041B304601F021FC0235D4E7F8BDCB
:10039C0070B504460025C4F2030528460121012648
:1003AC0002F011F9C0071CD02846012103F052FBC2
:1003BC00217E6068267591B104F12002E369B44690
:1003CC009668B0FBF6F505FB16062EB9166882F892
:1003DC000CC0F61A08BF304610320139F0D101308A
:0403EC00606070BD20
:1003F0002DE9F84F5FEA020970D0834641F26A6046
:10040000C2F20000884604784FF0000A41F25A65B3
:10041000C2F2000541F26B66C2F20006032C59D805
:1004200018F80A70DFE804F0021E0E16432F30D0D1
:100430005846394601F089FC41F26A60C2F2000078
:10044000047847E0442F11D144F643502880AF7020
:10045000032439E03078232F0ED100242C5401F0EE
:1004600045FC31E04D2F0ED102242EE058464321A9
:1004700001F06BFC4D2107E00E2812D2411C3170B7
:100480002F54032426E04321584601F05EFC432FFD
:1004900001D1012419E05846394601F056FC0024E8
:1004A00013E044464FF0000815F80810584601F0D4
:1004B0004CFC307808F101088045F5D3432FA04665
:1004C00014BF0024012400BF347041F26A60C2F2FC
:1004D000000004700AF1010ACA459FD1BDE8F88FF7
:1004E0002DE9F04190B0044642F214002158002951
:1004F00041D0271897F82C00032803D02046032169
:1005000002F0C0FCF88DC00635D43A6841F2100004
:100510002518402A13D300BF28466946402201F01F
:10052000A5FB804620466946424601F018FE3A681F
:100530003F2AF1D822B95FEA88600BD01BE04AB1AC
:100540002846694601F092FB02462046694601F0C2
:1005500006FE10E040F24404C0F2000420460021F0
:1005600002F0BEFC20464FF4817101F056FEF88D7A
:0C05700040F01000F88510B0BDE8F081EC
:10057C0038B5040019D040F62845C2F2000500BF7A
:10058C0094FAA4F0B0FA80F0C0F12E01102838BF14
:10059C00411E01EB410005EBC0000169002918BFA9
:0C05AC0001F0DEFE601E0440EAD138BD04
:1005B80030B583B041F23C24C2F20004B0F5D06FEC
:1005C800A2783ADB0B4642F22001884253DCE578F8
:1005D800B0F5D06F00F08C80B0F5086F00F088801F
:1005E800B0F5106F40F08E81002141F27060C2F2C8
:1005F800000000BF0A4650F82110B1F5102F02F193
:100608000101F7D102EB420040F20041C2F20001C1
:1006180001EBC000016931B141F23C21C2F2000195
:100628001A4601F07AFD0020C4F2050000210122DB
:1006380003B0BDE8304003F0C9B9B0F5817F51DBA4
:1006480000F09C80B0F5407F5ED0B0F5A06F40F020
:1006580059810021CDE9001141F27060C2F2000019
:100668000A4650F82110B1F5A02F02F10101F7D187
:1006780002EB420037E10131884200F08A8042F201
:10068800A11188424ED042F22121884240F03A819D
:10069800002141F27060C2F2000042F20012C0F282
:1006A800220200BF0B4650F82110914203F10101CC
:1006B800F8D103EB430040F20041C2F2000101EB24
:1006C800C000016949B141F23C21C2F2000141F286
:1006D8002822C2F2000201F020FD40F2C000C0F260
:1006E800000019E008280AD0B0F5807F0ED009E193
:1006F800A179284603B0BDE8304002F0B3BE03B08C
:10070800BDE8304002F096BE022A39D0012A40F2F4
:10071800C000C0F2000037D1012103B0BDE830406D
:1007280001F07CBD0021CDE9001141F27060C2F2F8
:1007380000004AF20012C0F2210200BF0B4650F836
:100748002110914203F10101F8D103EB430040F27B
:100758000041C2F2000101EBC000016931B141F270
:100768002822C2F20002694601F0D7FC40F2C0001C
:10077800C0F20000012101F051FDC3E06088E0B340
:1007880040F2C000C0F2000003B0BDE8304001F004
:10079800E4BD41F24825C2F2000515F8020C002814
:1007A80047D0002242F20010C0F2200041F27061EE
:1007B800C2F20001134651F82220824203F10102DD
:1007C800F8D103EB430040F20041C2F2000101EB13
:1007D800C000016931B141F23C21C2F200012A4650
:1007E80001F09BFC40F2C000C0F20000012101F0C2
:1007F80015FD002005F8020C84E02079802823DD0F
:10080800832838D0822849D08128B9D10021CDE960
:10081800001141F27060C2F2000040F28122C0F281
:1008280001020B4650F82110914203F10101F8D161
:1008380057E0012005F8020CE2882A8040F2C00047
:10084800C0F20000002168E701283AD0022897D1B9
:100858000021CDE9001141F27060C2F2000040F2BF
:100868000222C0F201020B4650F82110914203F116
:100878000101F8D135E00021CDE9001141F27060A5
:10088800C2F2000040F28322C0F201020B4650F887
:100898002110914203F10101F8D122E00021CDE9B4
:1008A800001141F27060C2F2000040F28222C0F2F0
:1008B80001020B4650F82110914203F10101F8D1D1
:1008C8000FE000F581300022CDE9002241F270618D
:1008D800C2F20001134651F82220824203F10102BC
:1008E800F8D103EB430040F20041C2F2000101EBF2
:1008F800C000016931B141F22822C2F20002694602
:0809080001F00BFC03B030BD4F
:1009100070B51546914238BF0D46402D04461AD396
:1009200040F2C006C0F2000630462146402202F0E6
:10093000D7FA0130F8D000BF30464FF4817101F092
:100940006CFC0130F8D04034A5F1400069B2402978
:100950000546E9DB00E02846C5B240F2C006C0F219
:10096000000600BF304621462A4602F0B9FA01309F
:10097000F8D040F2C004C0F2000400BF20464FF49B
:0C098000857101F04AFC0130F8D070BD18
:10098C000000000000000000D71B00007F1B0000CF
:10099C00CD2C0000052D0000D71B00007F1B000094
:0409AC00FF1B00002D
:1009B0000000000000000000D71B00007F1B0000AB
:1009C0006D2D0000A52D0000D71B00007F1B00002F
:0409D000DF1C000028
:1009D4000000000000000000D71B00007F1B000087
:1009E400E12D0000192E0000D71B00007F1B000022
:0409F400E71E0000FA
:1009F8000000000000000000D71B00007F1B000063
:100A0800292E0000612E0000D71B00007F1B00006C
:040A18008520000035
:100A1C000000000000000000D71B00007F1B00003E
:100A2C00ED2E0000252F0000D71B00007F1B0000BF
:040A3C002F22000065
:100A40000000000000000000D71B00007F1B00001A
:100A50005D2F0000952F0000D71B00007F1B0000BA
:040A6000A52F0000BE
:100A64000000000000000000D71B00007F1B0000F6
:100A7400B52F0000ED2F0000D71B00007F1B0000E6
:040A8400FD2F000042
:100A88000000000000000000D71B00007F1B0000D2
:100A98000D30000045300000D71B00007F1B000010
:040AA80055300000C5
:100AAC000000000000000000D71B00007F1B0000AE
:100ABC006D300000A5300000D71B00007F1B00002C
:040ACC00011E000007
:100AD0000000000000000000D71B00007F1B00008A
:100AE000B5300000ED300000D71B00007F1B000078
:040AF0005722000089
:100AF4000000000000000000D71B00007F1B000066
:100B0400253100005D310000D71B00007F1B000071
:040B14005D2200005E
:100B18000000000000000000D71B00007F1B000041
:100B28003932000071320000D71B00007F1B000023
:040B38006D2200002A
:100B3C000000000000000000D71B00007F1B00001D
:100B4C0081320000B9320000D71B00007F1B00006F
:040B5C009D220000D6
:100B60000000000000000000D71B00007F1B0000F9
:100B7000C932000001330000D71B00007F1B0000BA
:040B80000523000049
:100B84000000000000000000D71B00007F1B0000D5
:100B9400653300009D330000D71B00007F1B00005D
:040BA4005D230000CD
:100BA8000000000000000000D71B00007F1B0000B1
:100BB800CD34000005350000D71B00007F1B000066
:040BC8007B2300008B
:100BCC00743500008435000094350000A435000015
:100BDC0010B540F62814C2F2000404F5407000BFB2
:0C0BEC00183801F071FFA042FAD110BDD2
:100BF80000B501F5837C002908BF4FF4817C3CF8DF
:100C080000C05FEACC7C04D1C3F800C04FF0FF30CD
:100C180000BD00EB010CBCF808C1D3F800E0E645C4
:100C280038BFF446BCF1000FC3F800C008D020302C
:100C3800890800BF0B5C02F8013BBCF1010CF9D13B
:040C4800002000BDCB
:100C4C0000B500EB010E4FF0010C9EF802E10029FB
:100C5C0008BF4FF0020C1CEA0E0F02D04FF0FF3011
:100C6C0000BD4BB100F1200C890800BF12F8010B3C
:0C0C7C0001F80C00013BF9D1002000BD84
:100C880008490A68002AFED41EF0040F0CBFEFF3CF
:100C98000880EFF3098042F000420A60816902315E
:080CA800816170472CED00E0B2
:100CB000094B0A4A70B51C689442144609D01D6855
:100CC00000235E59E6500433B3F51B7FF9D1024B84
:100CD0001A6044F8201070BD08ED00E0000000200C
:100CE000042804D1134B1A6842F4803205E0052829
:100CF00005D1104B1A6842F400321A60704706287A
:100D000004D10C4B1A6842F48022F6E70F2804D174
:100D1000094B1A6842F00202EFE70AD91038074B74
:100D2000420953F8223000F01F00012212FA00F0AD
:100D30001860704724ED00E010E000E0400D000076
:100D400000E100E004E100E008E100E00CE100E087
:040D500010E100E0CE
:100D540000F07043B3F1704F15D100F47F42114B92
:100D6400120A00F0FF00D318800003F0704240F034
:100D7400007023F07F43104323F4700340EA4313CD
:100D840001221A607047020F81B200F4F810000CBF
:100D940011FA00F0044B53F822301A68104318601B
:0C0DA400704700BF00E60F4098110000EF
:100DB000054B18B11A6842F0006202E01A6822F08E
:0C0DC00000621A60704700BF60E00F4046
:100DCC00534B2DE9F0411A68044612F0E04F06D05F
:100DDC001A68504B02EA0303B3F1805F02D1002C76
:100DEC00C0F294804C494D4A0B68166843F400637A
:100DFC0023F4800546F4006613F0020F0D601660B4
:100E0C0002D014F0020F05D015F0010F1AD014F017
:100E1C00010F17D164F003031D403F4B002E1D60E2
:100E2C0005DA06F07003302B05D0702B02E005F0CC
:100E3C003003302B02D14FF4805001E04FF40020EE
:100E4C0001F081FB04F4FE6325F4FE6545EA03081A
:100E5C00334D26F0004604EA050526F0700645EAF7
:100E6C00060604F0080546EAC5052C4F2A4E10204C
:100E7C00C6F800803D6001F066FB28F4405804F48D
:100E8C000052284904F4405325F4005548EA030362
:100E9C0040201543244A086052BF33603D603360E4
:100EAC0023F0F86304EA020223F0030358BF3D6009
:100EBC00134304F0FC5125F0FC5214F0804F42EA2D
:100ECC00010208D0194922F4800204EA010143F41A
:100EDC0080030A4301E022F0804214F4006F0CD12D
:100EEC004FF400411248006810F0400F01D1013955
:100EFC00F8D123F4006322F40062074910200B6040
:100F0C00064B1A60BDE8F04101F01DBBBDE8F08155
:100F1C0000E00F400000FF7060E00F4070E00F40F9
:100F2C003000008058E00F400300C0070000404034
:040F3C0050E00F4032
:100F4000694B70B51A6810331B68002BB4BF03F0EF
:100F5000700102F0300120293AD004D869B110297B
:100F600040F0C08010E060295DD0702958D0302951
:100F700040F0B88047F2305063E002F4F8605B491B
:100F8000800951F820005CE05949086810F0E04FF2
:100F90004CD00C68574804EA0000B0F1805F45D09F
:100FA0000C68544804EA0000534CA04203D109687D
:100FB00089B202293CD04E484E49046804EA010136
:100FC0004E4CA14236D100684D4980B24D4C22E0D2
:100FD0004749086810F0E04F2ED00C68454804EAF5
:100FE0000000B0F1805F27D00C68424804EA00009E
:100FF000414CA04203D1096889B202291ED03C4865
:101000003C49046804EA01013C4CA14218D1006843
:101010003D493E4C80B200280CBF2046084610E0F7
:101020004FF400400DE04FF480000AE0384808E03B
:10103000344806E0324804E0364802E0334800E035
:101040003148002B02DA13F4006F01E012F4006F54
:101050002AD13149264D09682C6814F0E04F43F637
:10106000E07401EA040406D02E68224D06EA050564
:10107000B5F1805F06D16409023401F01F056043B9
:10108000023505E06409604301F01F0501356D007C
:10109000B0FBF5F011F4804F18BF400811F4004F79
:1010A00018BF800842F4800212F4800F1BD0002B7E
:1010B00011DA13F0804F07D013F4006F04D103F05E
:1010C000FE5340009B0D02E003F0FC53DB0D0133A7
:1010D000B0FBF3F070BD02F0F062D20D0132B0FB54
:1010E000F2F070BD002070BD60E00F402C110000D8
:1010F00000E00F400000FF7000000110000003102E
:101100000024F400001BB70000093D00C0C62D00FC
:0C111000C0E1E4007038390064E00F40DA
:10111C00024B1A6822F480421A60704770E00F404C
:10112C0040420F0000201C0080841E00008025001F
:10113C00999E36000040380000093D0000803E00BA
:10114C0000004B00404B4C0000204E00808D5B009B
:10115C0000C05D000080700000127A0000007D006D
:10116C0080969800001BB7000080BB00C0E8CE0042
:10117C00647ADA000024F4000000FA0080A812015E
:0C118C00002D310100366E0140787D011D
:0C11980000E10F4004E10F4008E10F40AF
:1011A40010B50023074AD90052F83340844202D1D3
:1011B4005218506810BD01330C2BF3D14FF0FF309F
:0811C40010BD00BFCC110000BA
:1011CC000000034023000000001003402500000035
:1011DC0000200340270000000030034033000000D3
:1011EC000040034056000000005003406C0000001B
:1011FC00006003406E0000000070034070000000AF
:10120C0000C004407200000000D0044074000000D4
:10121C0000E004407600000000F00440780000007C
:10122C00034C206804348047FBE700F065FAFEE7C6
:04123C005843000013
:101240002DE9F04F87B017468B4680460020C8F83E
:1012500000000DF1060A1BF8011B252906D0002904
:1012600000F08681404602F0FFFBF4E70025594676
:101270001BF8010B5E28FAD0672813DC262805DC52
:10128000202809D0232832D1802009E0272805D042
:101290002B282CD1202003E0402001E04FF4004017
:1012A0000543E4E76B2806DD6C280DD0742818BFD1
:1012B0007A2805D01BE068280BD06A2817D10235A0
:1012C00001F1020B487812E048786C2809D1023508
:1012D00003E04878682807D1083501F1030B8878C6
:1012E00005E001F1020B02E001F1020B0435622876
:1012F00021DDA0F1630115294FF00009ABD8DFE82B
:1013000011F0260017001600160016001600170030
:10131000160016001600160029003600E700160019
:1013200016003B0016004D0016001600210092E743
:1013300045F4804532E0252873D0582840F02981B3
:1013400045F40055290623D44FF0000926E017F88C
:10135000041B87E757F8040B2907D8F8001000F1A1
:101360000581AA0754BF0160C0E9001973E7290687
:10137000302202EAE17911E057F8046B3178002954
:101380003FF469AF404602F06FFB16F8011FF6E725
:1013900043F25809782808BF43F27809690404D455
:1013A000A90709D4391D00260CE0A90713D4394632
:1013B00051F8047BFE1714E0F91D21F0070707F12F
:1013C00008017E686A073F6814D415F0080F13D02F
:1013D0000026FFB210E0F91D21F007014E6851F818
:1013E000087B0091690709D429070AD547F3C0167D
:1013F0007FB206E0BFB20026009119E047F3C03685
:101400003FB2002E06DBA90610D4690610D54FF0B6
:1014100020090DE000217F4261EB06064FF02D0907
:1014200006E04046252102F01FFB14E74FF02B0990
:1014300000246E2821DD6F38092800F27880DFE86B
:1014400000F00550767676762276765057EA0600DA
:1014500069D0F80840EA4670062262F3DF070AF80E
:101460000470013450EAD6014FEAD6064FEAD001A3
:10147000074641EA4670F0D159E0582831D0642837
:1014800018BF692853D157EA06004CD0280407D565
:1014900004F00300032802BF2C200AF804000134E2
:1014A000384631460A22002300F048FD00EB800256
:1014B000A7EB4202B7F10A0376F1000342F03002D3
:1014C0000AF8042004F1010407460E46DED22EE09D
:1014D0003846232150F8047B0090280601EAE07981
:1014E000002657EA06001ED044F26C20C0F200002D
:1014F000A9045CBF44F27C20C0F20000390941EA33
:101500000671002407F00F020F46825C0AF80420DF
:10151000013451EA16114FEA16164FEA171141EA43
:101520000671EFD103E030208DF806000124B9F1F7
:10153000FF0F06D94FEA1921404602F095FA009FA5
:1015400003E0B9F1000F009F03D04046494602F086
:101550008BFA012CFFF67FAE661E40461AF8061085
:1015600002F082FA012C3446F6D874E6017072E675
:10157000D8F80C0028B1D8E9001291423CBF0022F3
:101580004254404601F0F1F8D8F8000007B0BDE839
:10159000F08F00287FF45FAE404601F0E6F84FF090
:0415A000FF30F3E73E
:1015A40003480449091A08B501F041F90CBC18476D
:0815B400F8170020F81F0020C9
:1015BC005AB3844690EA01039B071FD1830707D0D7
:1015CC0011F8013B00F8013B521EF7D11CE0844698
:1015DC00203A09D32DE9F007B1E8F807A0E8F8079D
:1015EC00203AF9D2BDE8F0071C3205D451F8043B7F
:1015FC0040F8043B121FF9D2043205D011F8013B1C
:0C160C0000F8013B521EF9D16046704707
:1016180000220B0011001A0084465AB3830704D035
:1016280000F8011B521EF9D124E0C9B241EA012198
:1016380041EA0141202A11D3203A2DE9F0030B4653
:101648000C460D460E460F4688468946A0E8FA0322
:10165800203AFBD2BDE8F00320320BD0042A05D390
:1016680040F8041B121F05D0042AF9D200F8011B08
:08167800521EFBD160467047D1
:0C16800002410000AC1600008C160000B7
:10168C00313E0000513E00005D3E0000693E00000E
:10169C00513E00005D3E0000BB2800008928000080
:1016AC0004410000FB410000FB410000FB41000035
:1016BC00FB410000FB410000FB410000FB4100002E
:1016CC00FB410000FB410000FFFFFFFFFFFFFFFF9E
:1016DC00FFFFFFFFFFFF0000C8400000AD4100000E
:1016EC00F83F0000CA4100004F4000009B41000041
:0816FC00A4410000564000006B
:1017040030B4ADF5035D8EB000F01CFF40F24050E4
:10171400C0F2C010FFF758FB0120FFF747FB012080
:10172400C2F21000FFF714FB0DF1340E0EF5015553
:10173400284601F0DBF900F032F805F12C0105F13F
:101744007C0204AC204600F043F801A8FEF74EFDED
:1017540000F0F3FE284601F049FA42F22800251869
:1017640041F22C27C2F2000743F67478C0F2000855
:10177400002600BF204601F05BFA0DF5005090F8FA
:10178400B0000128F6D13A68501C3860284641461A
:0E17940001F060FA0DF5005080F8B060EAE751
:1017A20038B5044690F88100012811D194F88000E0
:1017B20001280DD10025C4F203052846FF2100F0BF
:1017C200D3FE2846012100F0FEFE002084F88100AD
:0217D20038BD20
:1017D4002DE9F041CEB090460E46044600F5805007
:1017E40040F6FF714B1C42F21002E3520027C0E99D
:1017F4000171C160A518A352C5E90171E96040F601
:10180400B810C0F20000CDE9480442F2280048AF05
:1018140020444C97394601F0CBFA4C98B84202D098
:1018240028B1142100E01021026851588847002093
:1018340085F84200C5E91168688640F6DC10C0F2FC
:101844000000CDE9420442AE469640F64045C2F25D
:1018540000052846314600F0BAFA4698B04202D054
:1018640028B1142100E0102102685158884740F63D
:101874000020C0F20000CDE93C043CAE409605F5E2
:101884002270314600F0A3FA4098B04202D028B149
:10189400142100E0102102685158884740F62420A2
:1018A400C0F20000CDE9360436AD3A9540F6284042
:1018B400C2F20000294600F08AFA3A98A84202D0FF
:1018C40028B1142100E0102102685158884740F6DD
:1018D4004820C0F20000CDE9300430AD349543F621
:1018E4009370C0F20000294601F012FA3498A8421D
:1018F40002D028B1142100E0102102685158884711
:1019040040F66C20C0F20000CDE92A042AAD2E95E1
:1019140044F25420C0F20000294601F0F9F92E984F
:10192400A84202D028B1142100E0102102685158C5
:10193400884742F20017C0F2200740F69020C0F218
:101944000000CDE9240424AD2895002141F27066FD
:10195400C2F2000607F500300A4656F8211081420B
:1019640002F10101F8D102EB420040F20048C2F258
:10197400000808EBC000294601F058F82898A8424E
:1019840002D028B1142100E0102102685158884780
:1019940040F6B420C0F20000CDE91E041EAD22952D
:1019A400002100BF084656F82110B94200F1010198
:1019B400F8D100EB400008EBC000294601F036F8EE
:1019C4002298A84202D028B1142100E01021026814
:1019D4005158884740F6D820C0F20000CDE91804D9
:1019E40018AD1C95002107F5C03000BF0A4656F813
:1019F4002110814202F10101F8D102EB420008EB0F
:101A0400C000294601F012F81C98A84202D028B15F
:101A1400142100E0102102685158884740F6FC2048
:101A2400C0F20000CDE9120412AD1695002100BFEA
:101A3400084656F82110B1F5102F00F10101F7D135
:101A440000EB400008EBC000294600F0EFFF1698B9
:101A5400A84202D028B1142100E010210268515894
:101A6400884740F20227C0F2010740F62030C0F256
:101A74000000CDE90C040CAD1095002107F17F00A6
:101A84000A4656F82110814202F10101F8D102EB15
:101A9400420008EBC000294600F0C8FF1098A84295
:101AA40002D028B1142100E010210268515888475F
:101AB40040F64430C0F20000CDE9060406AD0A95B4
:101AC400002107F1800000BF0A4656F82110814228
:101AD40002F10101F8D102EB420008EBC0002946F3
:101AE40000F0A4FF0A98A84202D028B1142100E013
:101AF400102102685158884740F66830C0F200004F
:101B0400CDE900046D460495002100BF084656F84F
:101B14002110B94200F10101F8D100EB400008EBBB
:101B2400C000294600F082FF0498A84202D028B1E0
:101B3400142100E01021026851588847204600F023
:0A1B4400A8F820464EB0BDE8F0817D
:0E1B4E00006910B102689269104701F09AF820
:101B5C0038B540F6F864C2F2000404F5A07000BF7A
:101B6C00A0F12005183800F0AFFFA5422846F7D1A8
:021B7C0038BD72
:061B7E00082102F0F6B997
:101B8400F0B585B00446039103A80DF10305294679
:101B9400042200F035F830208DF8130020460DF1B2
:101BA4001301FFF7D2FF78208DF813000DF1130114
:101BB4002046FFF7CAFF082715F8010B8DF813001C
:101BC40020460DF11301FFF7C0FF013FF4D105B02A
:021BD400F0BD62
:021BD600704756
:101BD800F8B50C46097869B1054600278DF8031059
:101BE800013728460DF10301FFF7ADFFF8B2215C7C
:061BF8000029F3D1F8BD45
:061BFE004068FEF7CCBBBD
:101C040001EB4201002301F801391AB3F0B54FF09A
:101C1400200C6FF01F0E00BFD0E900459E00ACEB16
:101C2400830705FA07F7F4403C431EEB830658BFCD
:101C340025FA06F404F00F04CD1A04F13006092C39
:101C440088BF04F137060133DCB2B4EB420F2E70C7
:061C5400E2D3F0BD704771
:101C5A0002460068116018B19168C90002F083B9A0
:021C6A007047C1
:101C6C00F8B5044641F20400265866B1964228BFE6
:101C7C00164642B10D463746204600F053FA013F56
:0A1C8C0005F8010BF8D1B0B2F8BD65
:101C960010B540F24404C0F2000404F150004021A3
:101CA60001F033FB0146204601F02FFB014604F10B
:0A1CB6002800BDE8104001F028BB33
:101CC000F8B5140009D00D460646274615F8011B45
:0E1CD000304600F03AF8013FF8D12046F8BD4A
:0E1CDE000978406841F21002104400F02FB85F
:101CEC0070B541F26B65C2F2000541F25A64287876
:101CFC00C2F200040021215440B10026A019C07882
:101D0C0000F0E7FC287801368642F7D344F2C6008F
:101D1C00C0F2000000F0F5FCE01C00F031F80028E7
:101D2C000CD440F6F861C2F2000101EB401008300F
:0E1D3C0000210022BDE8704000F0E2B970BD49
:101D4A0000B500F580524FF4805C936830F80CE0DF
:101D5A0003F1010C0023F44528BF9C46C2F808C0D1
:101D6A0000F80C10D2E90210884206D1118801301D
:101D7A00884238BF0346D36000BD506801305060C6
:021D8A0000BD9A
:101D8C0041F26C61C2F200010B78D3B130B58446DC
:101D9C00002040F6F86EC2F2000E00BF5EF8201B69
:101DAC00624600BF12F8014B11F8015B14B1AC4252
:101DBC00F8D000E025B101309842EFD14FF0FF3060
:061DCC0030BDD843704752
:101DD20030B587B004466D46284600F0EAFF21463A
:101DE20000F01AF80498A84202D028B1142100E0A9
:0E1DF2001021026851588847204607B030BDC6
:101E0000406842F220021044072200BF11F8013B53
:0A1E100000F8013B013AF9D17047D8
:101E1A0081420CD0B0B584B00C4605460069096908
:101E2A00A84205D0A14210D02961206137E070474D
:101E3A000268A142D26815D02146904728690168F4
:101E4A00096988472069286128E00868C268084645
:101E5A0029469047206901680969884728692061ED
:101E6A002D611CE06946904728690168096988471D
:101E7A0000272F6120690168CA68294690472069AE
:101E8A00016809698847276100982D61C268684618
:101E9A00214690470098016968468847246104B042
:021EAA00B0BDC9
:101EAC0038B505680024C4F2050440F2C000C0F245
:101EBC000000002100F0B0F994F80201C006FBD537
:101ECC0041F23C20C2F20000807800F07F012046F5
:0A1EDC0001F01AFD0220287038BD45
:061EE600406800F017B88F
:101EEC00002040F62811C2F2000100228B18183293
:101EFC00B2F5407F1861F9D140F6DD30C0F2000038
:0E1F0C0040F20002C0F20002002101F0B7BF57
:101F1A0010B5044640F24400C0F2000000F0A0F8F8
:101F2A0042F24200215A41F0020121F010012152ED
:021F3A0010BDD8
:101F3C00002B35D129B9B0FBF2FC0CFB1202604628
:101F4C007047914215D22DE9F041B2FA82F39A40D2
:101F5C009940D3F1200C30FA0CFC51EA0C0198405A
:101F6C0000F04EF8280036FA03F200210023BDE8F9
:101F7C00F081F0B5B1FBF2FC0CFB1211B2FA82F35A
:101F8C009A409940D3F1200630FA06F63143984036
:101F9C0000F036F8614628003200DA400023F0BD2C
:101FAC00F3B5B3FA83FC49085FEA300013FA0CF37B
:101FBC00DCF1200432FA04F423430CB41A0000F0D0
:101FCC001FF80CBC33FA0CF3DCF11F0C35FA0CF5D2
:101FDC0018BF6D1E03BCA5FB026705FB0377801BB6
:101FEC00B941904271EB030C05D3821A71EB0303D8
:101FFC00681C0021F0BD02000B0028000021F0BD80
:10200C00940D4FF6C2752D02B5FBF4F4D60A761C6E
:10201C0004FB04F5A5FB0656F64306EB041655081F
:10202C0032BF002777086D1C05FB1677A6FB074708
:10203C007F0807EBC63714001500E7FB02457F1B32
:10204C004D1C0400E7FB014505FB1206A64284BFAC
:0E205C006D1EB618964224BF6D1CB61A704752
:10206A0010B504460068A16801F01BFC024620680E
:0A207A00A168BDE8104001F01CBC95
:06208400406800F000B806
:10208A00F0B5A1B0054640F26C04C0F20004204647
:10209A00FFF7E6FF204600F0E6FE209078B320AA7C
:1020AA00204610A900F0E3FE209A284610A9FEF760
:1020BA009AF942F24206AF19A85BC0F3803144F2A2
:1020CA005C20C0F2000001F04EFDA85B40040ED572
:1020DA00284669464022FFF7C4FD024641F2100035
:1020EA0028446946FFF7E7FD2846FEF7F4F920463B
:1020FA00002100F092F8388840F00400388021B0BE
:02210A00F0BD26
:10210C0002B582B08DF8072002A90DF1070200F08C
:06211C0002F803B000BD53
:0E212200006910B103689B69184700F0B0FD1A
:1021300000F580520146536800207BB130B5D2E9EA
:1021400002C415880134AC4238BF2046B0EB0C0500
:0E215000D06018BF5D1E5560085C30BD704742
:10215E002DE9F04142F242031446C25A0D46C71809
:10216E00D1061AD4402C264628BF402640F24408F9
:10217E00C0F2000840462946324600F0AAFE40460C
:10218E004FF4817100F042F8388840F01001412C74
:10219E0039800CD340F0900002E042F0800000261F
:1021AE003880C7F80250C7F80640C7F80A60BDE885
:0221BE00F081AE
:1021C00070B5044642F241000D46215C26182046B7
:1021D00000F06EFEB6F8010001070AD431782046FF
:1021E00000F066FEB6F8010040F00800A6F8010015
:1021F00006E02DB140F6D27000F0ABF9B6F8010060
:10220000010709D400F108023178A6F80120204620
:0A221000BDE8704000F04CBE70BD48
:0A221A000A468168006801F0E8BB85
:0A2224000A468168006801F0D3BB90
:06222E00406800F000B85A
:1022340010B5044640F29400C0F20000FFF713FF0B
:1022440042F24200215A41F0010121F008012152D9
:0222540010BDBB
:06225600043000F050BF4F
:06225C00043000F085BF14
:0A2262008168426A006800F047B985
:06226C00043000F000B890
:1022720010B5006842F2420140F29404425A22F040
:1022820009024252C0F200042046FFF7EDFE20464A
:0A2292000121BDE81040FFF7C4BFB2
:06229C00043000F000B860
:1022A200F8B5056842F21006AF1940F24404C0F2D4
:1022B20000042046FFF7D8FE204600F018F820461A
:1022C20000F01AF8A85B01380021C7E90110F86094
:1022D200032087F830004020788640F68C2000F0FA
:0E22E20037F920460121BDE8F840FFF79ABF0A
:0A22F00081684269006800F0D6B86A
:0A22FA008168426A006800F0ADB888
:06230400043000F000B8F7
:10230A0070B5056805F5805640F26C04C0F2000409
:10231A002046FFF7A5FE2046FFF7E5FF2046FFF718
:10232A00E7FF4FF480500021285A0138C6E901100E
:10233A0042F242016A5AF06022F0240068522046B2
:10234A000121FFF76AFF20460021BDE87040FFF730
:02235A0064BF5E
:06235C00406801F025B805
:0A23620081684269006800F088B845
:0E236C00006910B101688969084700F08BFC18
:06237A000430FFF796BDE0
:1023800010B50446006BFEF7E5FCFEF7C7FEE069FA
:10239000FEF7A6FC2068216A00F022F82068616A36
:1023A00000F031F82068A16A01F076FA2068E16A4D
:1023B00000F03CF82068A16A01F032FA2068BDE81C
:0623C000104000F095B88A
:1023C60040F62810C2F20000006928B140F6281035
:0A23D600C2F20000FFF7C7BF704716
:1023E0000A061EBFC27A8A43C272CA0544BF0022CF
:1023F000C0F80824880505D540F24840C4F205001D
:062400000021016070479D
:102406000A061EBFC27A0A43C272CA0544BF012227
:10241600C0F80824880505D540F24840C4F20500F6
:0624260001210160704776
:10242C00C2880A43C2806FF00102038902EA11419B
:06243C0019430181704705
:0A2442004188808841EA004070479D
:10244C0080B53C20FEF72EFC3C20BDE80840FEF792
:02245C0041BC81
:10245E00084412F4005F4FF4817108BF0431425CEE
:0E246E000CBF42F0800342F04003435470471D
:10247C0039B1B2F5005F08D1084400F58170102124
:10248C0007E000F58170602103E0084400F58370DB
:0A249C0020210278114301707047FF
:1024A60071B1B2F5005F12D1084490F8021101F043
:1024B600CF0180F8021190F8021141F0400103E0CB
:1024C60090F8021101F0FB0180F8021170470844F0
:1024D60090F8061101F09F0180F8061190F8061198
:0A24E60041F0800180F806117047F4
:0A24F000417841F04001417070474F
:1024FA0069B1920413D4084490F80611C9071EBFA3
:10250A0090F8061141F0100180F80611704790F812
:10251A0002118907FAD0012180F80311704700F5EA
:10252A008170425CD207F1D00A5C42F008020A5478
:02253A007047E8
:02253C00FEE7B8
:0A253E0008B501F072FAC0B208BD42
:0A25480008B501F069FAC0B208BD41
:062552000138FDD17047C5
:10255800C26840F2011301EA030342EA0303C360BD
:022568007047BA
:10256A00C26840F2011301EA030322EA0303C360CB
:02257A007047A8
:10257C0011F0FF0F18BF826211F47F4F18BFC262B7
:02258C00704796
:10258E0070B50C461546FEF706FE14F0FF0F064614
:10259E0005D02946FEF785FB3046FEF79AFB14F46C
:1025AE007F4F09D0741C20462946FEF77AFB204641
:0A25BE00BDE87040FEF78DBB70BD54
:0A25C800836923EA01038361704771
:0A25D20009B1006A7047C069704744
:1025DC0010B500280C4603DA0A2A01D1012300E0C9
:0A25EC00002300F002F8204610BDA5
:1025F60030B5002B8C46E6461EBF2D210EF8011B7A
:1026060040427346B0FBF2F404FB120101F13005BF
:10261600092988BF01F157058242194603F8015B73
:102626002046EFD90020187008789EF8002001F89F
:0E26360001290EF8010B8E45F6D3604630BD2B
:1026440040F2BC00C0F200000468204600F001F82B
:02265400FBE7A2
:1026560080B505281FD841F2E01CC2F2000C42F2F8
:10266600DD635CF82010C0F200034CF82030A9B1FD
:1026760042F2DB62C0F2000291420CD0994208D0CD
:1026860042F2D963C0F20003994207D04CF82030D9
:102696008847002008BD4FF0FF3008BD0120FEF737
:0226A600C9FD6C
:1026A80041F26963C2F200031A78002A02464FF029
:1026B800010007D141F2F81CC2F2000CCCE900215C
:0626C800187000207047AD
:0A26CE00014600200022FFF7E8BFDC
:0226D800704749
:0226DA00704747
:0226DC00704745
:0E26DE0041F2E071C2F20001096800F000B89C
:1026EC0080B50B468DF803000DF10300012101228A
:1026FC0000F01EF89DF80310002808BF411E084684
:02270C0008BD06
:10270E0038B541F2E071C2F2000104460D6800F0E6
:10271E009FF802462846214600F032F8013004D0D8
:0E272E000A20BDE83840FFF7D3BFC04338BDD6
:10273C00F8B51D4617460C460646184601F028FA11
:10274C00002803D407FB04F2A24201D20020F8BDFA
:0E275C002846314600F015F8B0FBF4F0F8BD49
:10276A0042694AB110B50446036A002B1CBF2169AD
:0A277A0098470020606110BD704711
:0A278400436A08460121FFF7D7BFA2
:06278E00006800F034B801
:102794000146C0680A6982426FEA000010449CBF87
:0627A4008968084470473B
:1027AA002DE9F843144688460546C7684FF00009E4
:1027BA002869F943B8420844A96898BF0844CE1B5F
:1027CA00B04238BF06466868A64228BF2646384443
:1027DA0041463246FEF7EDFEA868F1190F1A18BFF6
:1027EA000F46A41BB144B044EF60E1D14846BDE8AE
:0227FA00F88362
:1027FC00F8B541F23803C2F2000314461B78002BE3
:10280C000D46064608BF01F0E1F9EFF311874FF0D2
:10281C00200181F3118830462946224601F022FA24
:06282C0087F31188F8BDDE
:10283200082907D341F22422C2F2000210600022CA
:06284200C0E9002170470F
:1028480010B5044601F0C4FA204601F073FABDE859
:06285800104001F0C9BAB6
:10285E00017881B10246944652F8043BA3F101314E
:10286E00994331F07F33F6D019BAB1FA81F10CEBFE
:0A287E00D101081A704700207047CE
:1028880084460020002918BF002A0ED0097848B2D3
:1028980000280BD4BCF1000F18BFCCF800100021A1
:1028A800C3E90011002818BF012070476FF001002C
:0228B800704767
:0E28BA007F298EBF6FF0010001700120704772
:0628C800FFF7BCFEFEE775
:1028CE00F8B541F20424C2F20004206890B141F23E
:1028DE006015C2F2000541F2E006C2F200066FF08A
:1028EE00030707EB800029583058884720680138C5
:0628FE002060F6D1F8BDD8
:1029040070B582B004460125BFF35F8F057044F2B1
:102914002031C0F2000101A800F02FF8667865703C
:1029240001F008FB700706D541F20820C2F200004E
:1029340001F096F808B902B070BD44F29B00C0F2F1
:0E294400000044F22031C0F20001FFF7BBFF9B
:1029520010B541F20C24C2F200040020206001F004
:0629620080F8206010BDAA
:1029680010B541F20824C2F200040020206001F0F2
:0629780075F8206010BD9F
:10297E0010B50446016041F20C20C2F2000001F0D5
:10298E006AF808B9204610BD216844F26500C0F20D
:06299E000000FFF792FFAC
:1029A40080B500F008F800B108BD44F20920C0F277
:0629B4000000FFF787FFA1
:1029BA0010B50446012898BF0124204601F01BFAED
:0E29CA0020B901F0C6FA08B18047F6E710BD4B
:1029D80081B078B51446059305A841F26D66C2F238
:1029E800000600903278031D1F2A009318D8056846
:1029F80002EB420040F62812C2F2000202EBC000CD
:102A080000F012F8307841F24C71C2F2000151F82E
:102A1800202020462946FFF7B6FD30780130307077
:082A2800BDE8784001B07047E1
:102A300070B50D4604460021002600F011F8286903
:102A400020B1A84204D020612E6107E0266105E094
:102A5000246128690168CA6821469047204670BDF4
:102A600010B5044600690021A042216102D028B1BE
:102A7000142100E01021026851588847204610BDFB
:102A800081B030B582B0144641F26D65C2F20005E6
:102A90000593287805AA1F28019216D800EB40005C
:102AA00040F62812C2F2000202EBC000FFF7C0FF9E
:102AB000287841F24C71C2F2000151F820102046F2
:102AC000FFF7C4FC28780130287002B0BDE8304020
:042AD00001B070479A
:102AD40010B504460069A04202D028B1142100E0D8
:0C2AE4001021026851588847204610BDA0
:102AF00070B586B004460025C4F2030540F2FC0020
:102B0000C0F20000206004F108000221022200F05F
:102B1000C5F80620207649F28066C0F29806E66184
:102B200004F120000221042200F0B8F804F1300082
:102B30000221062200F0B2F804F14000022142F224
:102B4000107200F0ABF804F1500048F2A062C0F23D
:102B50000102022100F0A2F804F1600044F24022D8
:102B6000C0F20F02022100F099F804F17000022176
:102B7000324600F093F80020A4F880000120C1F252
:102B80001000FEF7E7F82846FF21FFF7EEFC284685
:102B9000222100F04DFFE2682846FF21FFF7EEFCFE
:102BA00040F69410C0F20000CDE900046E46049691
:102BB000204631462A46FF23FFF70EFF0498B04215
:102BC00002D028B1142100E0102102685158884732
:102BD00028460121012600F043FF2846012100F08C
:102BE0003BFF00206060204684F8806006B070BD26
:102BF00038B5044690F8802090F8811044F25810BF
:102C0000C0F2000000F0B4FF94F8810088B994F895
:102C1000800001280DD10025C4F203052846FF21BC
:102C2000FFF79AFC28460121012500F015FF84F8E2
:042C3000815038BDDA
:102C340038B5044600F06CFC42F25400215809787F
:102C4400012906D125182046FDF748FC28680021F3
:042C5400017038BD16
:102C580082B080B5CDE9022302AA0092FDF76AFB93
:082C6800BDE8084002B070470E
:102C700010B584B0044608460DF102010A22FFF7A0
:102C8000ADFC20460DF10201FEF7A6FF04B010BD19
:0C2C900044F20610C0F20000FFF716BE70
:102C9C0070B514460D4606460260FEF74BF94DF62C
:102CAC008361C4F21B31A0FB0101880C6843B4FBA7
:102CBC00F5F10138C6E9010100213046317370BDD0
:102CCC0030B585B004460820FFF766FE05460DF1C9
:102CDC001300029001200390606840F69411C0F23A
:102CEC000001C5E900100020019001A80021FEF7A9
:082CFC00AEFF284605B030BD13
:102D040040F69412C0F200024068C1E90020704706
:102D140070B588B041F26C66C2F200063578092DB0
:102D24001DD8009002AC204600F002F93078411C16
:102D3400317040F6F861C2F2000101EB4010009AD4
:102D440040F8082B2146FFF771FE0698A04202D0F6
:102D540028B1142100E010210268515888470A2D37
:082D64008041404208B070BD3F
:102D6C0030B585B004460820FFF716FE05460DF178
:102D7C001300029001200390606840F6B811C0F275
:102D8C000001C5E900100020019001A80021FEF708
:082D9C005EFF284605B030BDC2
:102DA40040F6B812C0F200024068C1E90020704742
:102DB40010B50A6904463AB18A4207D0106881689E
:102DC40010468847206107E0226105E02461086914
:0C2DD4000168CA6821469047204610BDE7
:102DE00030B585B004460820FFF7DCFD05460DF13F
:102DF0001300029001200390606840F6DC11C0F2DD
:102E00000001C5E900100020019001A80021FEF793
:082E100024FF284605B030BD87
:102E180040F6DC12C0F200024068C1E900207047A9
:102E280030B585B004460820FFF7B8FD05460DF11A
:102E38001300029001200390606840F60021C0F260
:102E48000001C5E900100020019001A80021FEF74B
:082E580000FF284605B030BD63
:102E600040F60022C0F200024068C1E9002070472D
:082E70008168006800F0A0BDBC
:0C2E780013460A4681680068FDF7BABEE8
:102E840042F24102835C994200D1704738B58518FB
:102E94000C4629700121FFF791F9032C02BFB5F804
:0C2EA400010040F40070A5F8010038BDEA
:102EB00010B541F2EC72C2F2000240F294041181AA
:102EC000C0F20004204611460A2200F009F800B1C1
:102ED00010BD20464FF48171BDE81040FFF79DB949
:0C2EE00013460A4681680068FDF7B0BE8A
:102EEC0030B585B004460820FFF756FD05460DF1B8
:102EFC001300029001200390606840F62421C0F278
:102F0C000001C5E900100020019001A80021FEF786
:082F1C009EFE284605B030BD01
:102F240040F62422C0F200024068C1E90020704744
:102F340010B50A6904462AB18A4205D022610020EC
:102F4400086107E0226105E0246108690168CA6834
:082F540021469047204610BD04
:102F5C0030B585B004460820FFF71EFD05460DF17F
:102F6C001300029001200390606840F64821C0F2E3
:102F7C000001C5E900100020019001A80021FEF716
:082F8C0066FE284605B030BDC9
:102F940040F64822C0F200024068C1E900207047B0
:102FA400406842F24201425A42F48042425270471F
:102FB40030B585B004460820FFF7F2FC05460DF154
:102FC4001300029001200390606840F66C21C0F267
:102FD4000001C5E900100020019001A80021FEF7BE
:082FE4003AFE284605B030BD9D
:102FEC0040F66C22C0F200024068C1E90020704734
:102FFC00406842F24201425A22F4804242527047E7
:10300C0030B585B004460820FFF7C6FC05460DF127
:10301C001300029001200390606840F69021C0F2EA
:10302C000001C5E900100020019001A80021FEF765
:08303C000EFE284605B030BD70
:1030440040F69022C0F200024068C1E900207047B7
:10305400897840684FF4015201F00301815400F56E
:0830640001504021418070473A
:10306C0030B585B004460820FFF796FC05460DF1F7
:10307C001300029001200390606840F6B421C0F266
:10308C000001C5E900100020019001A80021FEF705
:08309C00DEFD284605B030BD41
:1030A40040F6B422C0F200024068C1E90020704733
:1030B40030B585B004460820FFF772FC05460DF1D3
:1030C4001300029001200390606840F6D821C0F2FA
:1030D4000001C5E900100020019001A80021FEF7BD
:0830E400BAFD284605B030BD1D
:1030EC0040F6D822C0F200024068C1E900207047C7
:1030FC0010B5006842F22001014440F2C004C0F255
:10310C00000420460722FFF7E5FE20464FF48571A8
:08311C00BDE81040FFF77BB88D
:1031240030B585B004460820FFF73AFC05460DF19A
:103134001300029001200390606840F6FC21C0F265
:103144000001C5E900100020019001A80021FEF74C
:0831540082FD284605B030BDE4
:10315C0040F6FC22C0F200024068C1E90020704732
:10316C00F8B50468154604F50157204600210026E1
:10317C0000F036F82878032811D17E8040F24406FE
:10318C00C0F2000606F15000FFF765F83046FFF775
:10319C0062F806F12800FFF75EF8012028607888B5
:1031AC0020F40070788044F23B10C0F20000002143
:1031BC0000F0D8FC032028604FF480703880204643
:1031CC00012100F00DF8788840F4007243F69A70F3
:1031DC00C0F2000001217A80BDE8F84000F0C2BCCA
:1031EC0010B540F24404C0F2000404F1500051B197
:1031FC0000F014F8204600F011F804F12800BDE8A6
:10320C00104000F00BB800F00DF8204600F00AF862
:0C321C0004F12800BDE8104000F004B8E8
:0832280001690068FFF7FEB820
:083230000169006800F030BBE9
:1032380030B585B004460820FFF7B0FB05460DF110
:103248001300029001200390606840F62031C0F21C
:103258000001C5E900100020019001A80021FEF737
:08326800F8FC284605B030BD5A
:1032700040F62032C0F200024068C1E900207047E9
:1032800030B585B004460820FFF78CFB05460DF1EC
:103290001300029001200390606840F64431C0F2B0
:1032A0000001C5E900100020019001A80021FEF7EF
:0832B000D4FC284605B030BD36
:1032B80040F64432C0F200024068C1E9002070477D
:1032C80030B585B004460820FFF768FB05460DF1C8
:1032D8001300029001200390606840F66831C0F244
:1032E8000001C5E900100020019001A80021FEF7A7
:0832F800B0FC284605B030BD12
:1033000040F66832C0F200024068C1E90020704710
:1033100038B5044605C80D468273204600F00EF805
:103320002068E16801602046294600F00DF8E06859
:0C33300094F820108840284480B238BD7A
:0C333C00D0E902124369006800F0E8BA12
:1033480010B582B0D0F808C0C369446A0068009418
:0C3358000A46614600F012FB02B010BDF6
:1033640030B585B004460820FFF71AFB05460DF179
:103374001300029001200390606840F68C31C0F283
:103384000001C5E900100020019001A80021FEF70A
:0833940062FC284605B030BDC3
:10339C0040F68C32C0F200024068C1E90020704750
:1033AC00F0B583B040F20211C4F2050104460A786C
:1033BC008DF807208A798DF806200A7A8DF8052079
:1033CC00A1F581752846FFF736F8060025D0F007E1
:1033DC0020D040F2C000C0F20000FFF743FDC8B19E
:1033EC00029040F2C000C0F2000041F23C27C2F251
:1033FC00000702AA3946FFF739FD41F24421C2F217
:10340C0000018878002806BF388808800888214683
:10341C00FDF7CCF83046FDF7ABF8284600F01AFA69
:10342C0000F00700012804BF0020207003B0F0BD9D
:10343C0038B541F23C25C2F2000544F2B204AA7937
:10344C00C0F2000420460221FDF75CFAAA7940F292
:10345C00C000C0F200002146BDE83840FFF73ABD7D
:10346C00032815D080B5022808D0012814D1CAB27F
:10347C0044F2B400C0F20000122105E0CAB243F6D7
:10348C00B570C0F200004321FDF73CFA012008BDE5
:0C349C00C9B2104600F002B8002008BDC4
:1034A80010B50446032809D840F6CC30C0F2000015
:1034B8000A4650F824001021FDF726FA042C804112
:0434C800404210BDB1
:1034CC0030B585B004460820FFF766FA05460DF1C5
:1034DC001300029001200390606840F6B031C0F2F6
:1034EC000001C5E900100020019001A80021FEF7A1
:0834FC00AEFB284605B030BD0F
:1035040040F6B032C0F200024068C1E900207047C2
:1035140042F24202815A0B0600D4704770B58618F5
:10352400D6F80620D6F80A0082421DD9141AD6F815
:103534000210402C28BF4024014440F24405C0F24C
:10354400000528462246FFF7C9FC28464FF481713E
:10355400FEF761FE3088D6F80A1040F01000308083
:103564000819C6F80A0070BD21F09000308070BDC3
:103574000403090400000000000000000000000033
:103584000E0341006E0064007200650077000000C5
:103594000A035400450053005400300000000000AA
:1035A4001003310032003300340035003600370098
:1035B40040F64010C2F200000169002908BF7047BC
:0435C400FEF7D2BE7E
:1035C80040F65810C2F200000169002908BF704790
:0435D800FEF7C8BE74
:1035DC0040F67010C2F200000169002908BF704764
:0435EC00FEF7BEBE6A
:1035F00040F68810C2F200000169002908BF704738
:04360000FEF7B4BE5F
:1036040040F6A010C2F200000169002908BF70470B
:04361400FEF7AABE55
:1036180040F6B810C2F200000169002908BF7047DF
:04362800FEF7A0BE4B
:10362C0040F6D010C2F200000169002908BF7047B3
:04363C00FEF796BE41
:1036400040F6E810C2F200000169002908BF704787
:04365000FEF78CBE37
:1036540040F60020C2F200000169002908BF70474B
:04366400FEF782BE2D
:1036680040F61820C2F200000169002908BF70471F
:04367800FEF778BE23
:10367C0040F63020C2F200000169002908BF7047F3
:04368C00FEF76EBE19
:1036900040F64820C2F200000169002908BF7047C7
:0436A000FEF764BE0F
:1036A40040F66020C2F200000169002908BF70479B
:0436B400FEF75ABE05
:1036B80040F67820C2F200000169002908BF70476F
:0436C800FEF750BEFB
:1036CC0040F69020C2F200000169002908BF704743
:0436DC00FEF746BEF1
:1036E00040F6A820C2F200000169002908BF704717
:0436F000FEF73CBEE7
:1036F40040F6C020C2F200000169002908BF7047EB
:04370400FEF732BEDC
:1037080040F6D820C2F200000169002908BF7047BE
:04371800FEF728BED2
:10371C0040F6F020C2F200000169002908BF704792
:04372C00FEF71EBEC8
:1037300040F60830C2F200000169002908BF704756
:04374000FEF714BEBE
:1037440040F62030C2F200000169002908BF70472A
:04375400FEF70ABEB4
:1037580040F63830C2F200000169002908BF7047FE
:04376800FEF700BEAA
:10376C0040F65030C2F200000169002908BF7047D2
:04377C00FEF7F6BDA1
:1037800040F66830C2F200000169002908BF7047A6
:04379000FEF7ECBD97
:1037940040F68030C2F200000169002908BF70477A
:0437A400FEF7E2BD8D
:1037A80040F69830C2F200000169002908BF70474E
:0437B800FEF7D8BD83
:1037BC0040F6B030C2F200000169002908BF704722
:0437CC00FEF7CEBD79
:1037D00040F6C830C2F200000169002908BF7047F6
:0437E000FEF7C4BD6F
:1037E40040F6E030C2F200000169002908BF7047CA
:0437F400FEF7BABD65
:1037F80040F6F830C2F200000169002908BF70479E
:04380800FEF7B0BD5A
:10380C0040F61040C2F200000169002908BF704761
:04381C00FEF7A6BD50
:1038200011F00F021EBFC3881A43C28011F46062F8
:103830001EBF038943EA122202810A0E1EBFC37A09
:103840001A43C272CA0344BF0122C0F80824880385
:1038500005D540F24840C4F20500012101607047DF
:103860000146807AD1F80C24D20707D091F80C24B5
:1038700000F5807042F0010281F80C2440F24C41C6
:10388000C4F205010A68D20705D00A6800F5007085
:0838900042F001020A607047DA
:10389800C2888A43C2800289012363EA1141114028
:0438A80001817047E3
:1038AC000844B0F80211B0F8060141EA0040704734
:1038BC0089B10844DB2390F8021163EA0203194032
:1038CC0080F8021190F80611B32363EA12421140FA
:1038DC0080F806117047D1071EBF90F8021141F015
:1038EC00400180F80211D10642BF90F8021141F05C
:1038FC00800180F802115107ECD590F8021101F00B
:08390C00FB0180F80211704775
:043914000170704787
:1039180000B508441038990413D4A0F8142103F012
:1039280004014FF0200CDA064CBF28220CEA83026F
:1039380042EA41124FF0800E4FF48B7140F2171C8F
:1039480012E0A0F81021D90640F2131C05D403F0A8
:10395800090191FAA1F10A0E02E0142263F3C712D9
:103968004FF0400E4FF4897113F4407F08BF42F0C6
:0C397800400200F80C2000F801E000BD47
:1039840000B50909DDF804C04FEAD20E62221CF426
:10399400005F90F80EC008BF63228173835480F8DF
:1039A4000EC0827B817314BF6421662120F801E07C
:0439B400827300BD5D
:1039B80001F58372002908BF4FF48172125AD207A9
:0C39C8000EBF00200844B0F80801704752
:1039D40039B1084490F8061101F0FE0180F806118F
:1039E40070474821002A08BF402180F8021170471F
:1039F40000F5817029B1435CDB0708D10844120A41
:103A040002E00178890702D40270002070474FF069
:043A1400FF307047C8
:083A1800AFF30080FDF706FC8E
:083A2000EFF3108072B670474D
:083A2800EFF3108062B6704755
:103A3000C36823F4807323F00103C3600B0E03609B
:103A400001F0FF03090A01F0FF0143F4007341F4A0
:083A50000071436081607047C2
:083A580083690B438361704791
:043A60004162704708
:043A64000020704787
:103A680010B582B0044600698DF8071078B1D4E922
:103A780000239A4231D26269531C63618154D4E9AC
:103A88000501884229D12046FEF76BFE25E0E06853
:103A980050B1D4E9002C62451FD2531CB3EB0C0380
:103AA80018BF0B46835418E0A06858B1D4E9002C1D
:103AB800624512D2531CB3EB0C0318BFCBB240F8CB
:103AC80022300AE0236A43B1D4E90001884204D2D3
:103AD8000DF1070120460122984720680130206037
:043AE80002B010BD5B
:103AEC0070B514460D46064600F090F90146304676
:0C3AFC002A462346BDE8704000F000B8E8
:103B08002DE9F04F03AF8DB047F83C3C91460C4689
:103B1800064600F05BF80546EB46073020F0070044
:103B2800ADEB0008C546A7F1380A5046002124220B
:103B3800FDF772FD47E908546FF0004047F8340C70
:103B480042F28570C0F2000047F8288C47E9060663
:103B58005046494657F83C2CFDF76EFBDD46A7F169
:083B68000C04A546BDE8F08F36
:103B700083B000B582B0CDE9031241F2E07CC2F21D
:103B8000000C059303AA01920146DCF80000FFF740
:0C3B9000ADFF02B05DF804EB03B070471D
:103B9C0041F2E471C2F2000141F2E072C2F20002A1
:103BAC000968126841F2E873C2F20003411A1B68FB
:103BBC0018BF0121821A18BF01221140C01A18BF68
:083BCC0001200840404270474F
:043BD40040207047D6
:103BD80041F23800C2F20000032144F29212C0F20E
:103BE80000020161416141F24A21C2F20001826191
:103BF800C1614FF480610162002181624162C1624A
:103C080041F24A63C2F200030266436610228266EA
:103C18000167C16644F28112C0F200024167531A7B
:0C3C2800DB7B435401311029F9D17047B7
:103C34002DE9F04104468068E66815466268871BF2
:103C44009019BD4204D22A46FDF7B6FC35440AE079
:103C540088463A46FDF7B0FCED1B08EB07016068A7
:0C3C64002A46FDF7A9FCE560BDE8F081F0
:103C700070B500EB400041F23803C2F2000303EBE1
:103C8000C00303F11806D86A022818D00D4614465E
:103C9000012807D020B93046FEF77CFDA04207D2AC
:103CA00000240AE03046FEF775FDA04238BF044606
:103CB000304629462246FFF7BDFF204670BD3046FC
:083CC000BDE87040FEF771BD84
:103CC80041F2242CC2F2000CDCF800304BB170B584
:103CD8000F305C6820F0070E0025744503D11846A4
:103CE80015E00020704700214A1E0025744588BF52
:103CF8000125944280414642186835421CBF194646
:103D0800224668B1446874451D460346EDD1002D2E
:103D180001680CBFCCF80010296040F808EB70BDB2
:103D28000029FCD04B68A2EB0E000844A3EB0E025E
:043D38004A60F2E704
:103D3C0020B350F8081CCA0718BF21F00100E8B1E5
:103D4C0010B541F22422C2F200020146D2F800E082
:103D5C00BEF1000F51F808CD11D08E45734615D227
:103D6C001A461B681C0018BF012401D08B42F7D3E4
:103D7C0040F804CD40F8043C11600EE0704711602F
:103D8C00C1F800E01068C0F804C010BD40F804CDC4
:103D9C00012440F804EC116000225CB101EB0C042E
:103DAC009C4201BFD3F804C004686444046004BF9F
:103DBC001B680B608E45E8D25368D4188C42E4D152
:0C3DCC000068184450600868106010BDCA
:103DD800EFF3108072B6B0FA80F041F21021C2F20F
:083DE80000014009086070476A
:103DF00041F21020C2F20000006800B162B67047C4
:103E000010B50446FFF7E8FF2046FFF75DFF0446C4
:083E1000FFF7EEFF204610BD94
:103E180041F22020C2F200000068002804BF41F2ED
:083E2800CC70C2F200007047EB
:103E30007F280BD844F28C22C0F2000244F2FC131B
:103E4000C0F20003105C595C0840704700207047C6
:0C3E5000A0F161011A2938BF203870472A
:0C3E5C00A0F141011A2938BF2030704746
:103E68007F280BD844F28C22C0F2000244F2FC13E3
:103E7800C0F20003105C595C08407047002070478E
:103E880070B541F20426C2F200060C4632680546B7
:103E98008AB11F2A16D841F26010C2F2000040F819
:103EA800225041F2E000C2F2000040F82240501CCB
:103EB8003060002070BD42F6CF00C0F20000FEF76F
:0C3EC80002FC08B1012070BD3268E2E786
:103ED40070B582B004460078BFF35F8F08B1002448
:103EE40025E044F20C31C0F2000101A8FEF745FDC3
:103EF4006078810711D541F20825C2F2000541F22C
:103F04000C26C2F2000640F00400607028463146D8
:103F1400FFF7A6FD60788107F5D401281CBF0221B4
:103F24006170441E18BF012401A800F003F8204664
:043F340002B070BDAA
:103F380010B5044641F20C20C2F20000FFF78EFDD6
:103F480008B9204610BD216844F28000C0F2000084
:043F5800FEF7B6FCBE
:103F5C0041F20020C2F200000068BFF35F8F70478F
:043F6C00FEF76CBC34
:043F7000FFF7FCBF9C
:103F740028545F75732E496E74466C616728312925
:0F3F840020696E74657276616C2025640D0A00E9
:073F93006563686F6F6E00AB
:103F9A0073657420466C6167732E444154415F49CE
:0B3FAA004E5F4F4E202564200D0A00E2
:103FB50009024300020100803209040000010202E7
:103FC5000100052400100105240101010424020259
:103FD50005240600010705810310000109040100FD
:103FE500020A0000000705820240000107050202DF
:033FF50040000188
:103FF8004A616E756172790046656272756172799F
:10400800004D6172636800417072696C004D61799E
:10401800004A756E65004A756C790041756775735D
:10402800740053657074656D626572004F63746FD8
:10403800626572004E6F76656D62657200446563F5
:07404800656D626572000066
:07404F00414D00504D00003F
:0F4056002561202562202565202554202559004D
:104065002573206661696C656420746F20616371D6
:0B40750075697265206D757465780038
:104080002573206661696C656420746F2072656CAD
:0B40900065617365206D757465780034
:10409B002573206661696C656420746F2062726F92
:0740AB00616463617374009E
:0240B200030009
:1040B4001201000200000040470502100001010245
:0240C4000301F6
:0240C6000D00EB
:1040C80053756E646179004D6F6E64617900547543
:1040D8006573646179005765646E6573646179001E
:1040E8005468757273646179004672696461790015
:0A40F8005361747572646179000071
:02410200430078
:024104002E008B
:104106006261645F66756E6374696F6E5F63616C2E
:104116006C20776173207468726F776E20696E20E9
:104126002D666E6F2D657863657074696F6E73208A
:054136006D6F646500DF
:10413B00636C65617220466C6167732E4441544118
:0D414B005F494E5F4F4E202564200D0A0095
:1041580054494D45525F49535F454E41424C4520B5
:104168003D2025642C2054494D45525F49535F49F1
:094178004E4954203D25640A0063
:104181000000000000005454522052454747455357
:01419100002D
:094192005465726D696E616C00E8
:09419B00256D2F25642F25790004
:0941A40025483A254D3A25530047
:1041AD0053756E004D6F6E00547565005765640054
:0D41BD00546875004672690053617400007B
:1041CA004A616E00466562004D617200417072007C
:1041DA004D6179004A756E004A756C004175670039
:1041EA00536570004F6374004E6F76004465630038
:0141FA0000C4
:0141FB0000C3
:0D41FC00000703200417020108571040803F
:104209006261645F616C6C6F6320776173207468AD
:10421900726F776E20696E202D666E6F2D657863DB
:0D422900657074696F6E73206D6F646500C1
:044238000101000080
:04423C008D010000F0
:0442400099020000DF
:04424400F90200007B
:04424800ED1E000067
:08424C0053290000692900005C
:084254006563686F6F66660088
:10425C00466C6167732E4543484F3D2025640A0028
:10426C0030313233343536373839414243444546A0
:10427C0030313233343536373839616263646566D0
:10428C0020202020202020202068282828282020BA
:10429C002020202020202020202020202020202012
:1042AC0048101010101010101010101010101010CA
:1042BC00848484848484848484841010101010106A
:1042CC0010818181818181010101010101010101C3
:1042DC000101010101010101010101101010101077
:1042EC001082828282828202020202020202020294
:1042FC00020202020202020202020210101010203C
:10430C005F5F6378615F67756172645F616371752C
:04431C00697265005D
:104320005F5F6378615F67756172645F72656C651A
:044330006173650050
:1043340000B506480649884205D00268043003B433
:10434400904703BCF7E708BC184700003842000058
:0443540054420000CF
:1043580081440000000000206E1600009344000015
:10436800701600208043000086010000A51500009B
:0843780035430000371200007C
:10438000DD0881CC05820182CC02820382CC0482CA
:104390008582CC81828282CC838284829B010101CE
:1043A000880502010102018802020103020188045A
:1043B00002018502018881020182020188830201D3
:1043C0008402019B030103890203050201880102A3
:1043D00001020201880302010402018885020181B1
:1043E000020188820201830201B8840201059980DA
:1043F000068106B9820607B980080999810A010B6E
:1044000099820CA101F9210ABB0102992120A12165
:10441000C92122C723CCB535C935CCDD35F135CC22
:1044200005361936CC2D364136CC55366936CC7D1D
:10443000369136CCA536B936CCCD36E136CCF5360C
:104440000937CC1D373137CC45375937CC6D3781DB
:1044500037CC9537A937CCBD37D137CCE537F937CD
:10446000CC0D388016CC80168016CC801680164471
:10447000141220181220C41C1220A1202B020200AA
:10448000206861680834002200E04254491EFCD5CF
:02449000704773
:1044920020686168A2680C340B78491C0826002544
:1044A2005B0801D20D78491C0570401C521E02D0D7
:0844B200761EF4D1F0E770471B
:0400000300003A19A6
:00000001FF
