:1000000000600020A12B0000C51A0000090B0000B1
:10001000C51A0000C51A0000C51A00000000000043
:10002000000000000000000000000000C51A0000F1
:10003000C51A000000000000C51A0000C51A000023
:100040000008000800000540020000002000000039
:1000500040000000040000000021000082000000B9
:100060000300000000000000002000000000054028
:10007000020000002000000040000000000004001A
:10008000000100000200000003000000000000006A
:10009000000000000000054001000000100000000A
:1000A000100000000200000000220000810000009B
:0C00B00001000000000000000020000023
:0400BC000000000040
:1000C00000000540000000000000000040000000AB
:1000D0000100000000030000800000003C00000060
:1000E000FF0300000F0000000F0E03FF01000000DF
:0400F00001001020DB
:1000F40080B541F23020C2F200000078C007BFF39F
:100104005F8F26D141F23020C2F2000002F0B6FE29
:10011400F8B1002040F20041C2F20001002200BF09
:100124008B181832B2F5A56F1861F9D140F2591045
:10013400C0F2000040F20002C0F20002002102F00E
:1001440077FE41F23020C2F20000BDE8084001F021
:04015400F3BD08BD32
:1001580010B540F20044C2F2000404F5A56000BFE7
:0C016800183801F0A3FEA042FAD110BD2F
:0C0174000000000000000000611E000000
:1001800080B541F23020C2F200000078C007BFF312
:100190005F8F26D141F23020C2F2000002F070FEE3
:1001A000F8B1002040F20041C2F20001002200BF7D
:1001B0008B181832B2F5A56F1861F9D140F25910B9
:1001C000C0F2000040F20002C0F20002002102F082
:1001D00031FE41F23020C2F20000BDE8084001F0DB
:0401E000ADBD08BDEC
:1001E40030B58DB0044640F27C11C0F2000140F8F5
:1001F400041F40F60C21C0F20001CDE9061406AD3F
:100204000A950022C4F20502294601F027FE0A9845
:10021400A84202D028B1142100E0102102685158EC
:10022400884740F63020C0F20000CDE900046D4656
:100234000495002141F26860C2F200000A4650F8B9
:100244002110B1F5A02F02F10101F7D102EB420018
:1002540040F20041C2F2000101EBC000294601F066
:10026400D5FD0498A84202D028B1142100E0102141
:1002740002685158884740F2C000C0F2000001F003
:0802840041FB20460DB030BD26
:10028C0041F22820C2F200000178C90719D10121DE
:10029C000170002040F62841C2F20001002200BF8C
:1002AC008B181832B2F5347F1861F9D140F2D12095
:1002BC00C0F2000040F20002C0F20002002102F085
:0402CC00B3BD704707
:1002D00010B540F62844C2F2000404F5347000BFA3
:0C02E000183801F0E7FDA042FAD110BD73
:1002EC0041F22C20C2F200000178C90719D101217A
:1002FC000170002040F6F861C2F20001002200BF3C
:10030C008B182032B2F5A07F9861F9D141F26520AB
:10031C00C0F2000040F20002C0F20002002102F024
:04032C0083BD7047D6
:100330002DE9F84F5FEA020970D0834641F262600E
:10034000C2F20000884604784FF0000A41F252657C
:10035000C2F2000541F26366C2F20006032C59D8CE
:1003600018F80A70DFE804F0021E0E16432F30D092
:100370005846394600F0B7FF41F26260C2F2000011
:10038000047847E0442F11D144F643502880AF70E1
:10039000032439E03078232F0ED100242C5401F0AF
:1003A00029F831E04D2F0ED102242EE0584643218A
:1003B00000F099FF4D2107E00E2812D2411C317048
:1003C0002F54032426E04321584600F08CFF432F8E
:1003D00001D1012419E05846394600F084FF002479
:1003E00013E044464FF0000815F80810584600F096
:1003F0007AFF307808F101088045F5D3432FA046F5
:1004000014BF0024012400BF347041F26260C2F2C4
:10041000000004700AF1010ACA459FD1BDE8F88FB7
:1004200038B5040019D040F62845C2F2000500BFD7
:1004300094FAA4F0B0FA80F0C0F12E01102838BF71
:10044000411E01EB410005EBC0000169002918BF06
:0C04500001F050FA601E0440EAD138BDF3
:10045C0030B583B041F23424C2F20004B0F5D06F51
:10046C00A2783ADB0B4642F22001884253DCE57855
:10047C00B0F5D06F00F08C80B0F5086F00F088807C
:10048C00B0F5106F40F08E81002141F26860C2F22D
:10049C00000000BF0A4650F82110B1F5102F02F1F0
:1004AC000101F7D102EB420040F20041C2F200011F
:1004BC0001EBC000016931B141F23421C2F20001FB
:1004CC001A4601F0DAF80020C4F2050000210122DE
:1004DC0003B0BDE8304002F03BBBB0F5817F51DB8F
:1004EC0000F09C80B0F5407F5ED0B0F5A06F40F07E
:1004FC0059810021CDE9001141F26860C2F200007F
:10050C000A4650F82110B1F5A02F02F10101F7D1E4
:10051C0002EB420037E10131884200F08A8042F25E
:10052C00A11188424ED042F22121884240F03A81FA
:10053C00002141F26860C2F2000042F20012C0F2E7
:10054C00220200BF0B4650F82110914203F1010129
:10055C00F8D103EB430040F20041C2F2000101EB81
:10056C00C000016949B141F23421C2F2000141F2EB
:10057C002422C2F2000201F080F840F2C000C0F266
:10058C00000019E008280AD0B0F5807F0ED009E1F0
:10059C00A179284603B0BDE8304002F055B803B04D
:1005AC00BDE8304002F038B8022A39D0012A40F2B6
:1005BC00C000C0F2000037D1012103B0BDE83040CB
:1005CC0001F0DBB80021CDE9001141F26860C2F204
:1005DC0000004AF20012C0F2210200BF0B4650F894
:1005EC002110914203F10101F8D103EB430040F2D9
:1005FC000041C2F2000101EBC000016931B141F2CE
:10060C002422C2F20002694601F037F840F2C00021
:10061C00C0F20000012101F0B0F8C3E06088E0B343
:10062C0040F2C000C0F2000003B0BDE8304001F061
:10063C0056B941F24025C2F2000515F8020C00280B
:10064C0047D0002242F20010C0F2200041F2686153
:10065C00C2F20001134651F82220824203F101023A
:10066C00F8D103EB430040F20041C2F2000101EB70
:10067C00C000016931B141F23421C2F200012A46B5
:10068C0000F0FBFF40F2C000C0F20000012101F0BD
:10069C0074F8002005F8020C84E02079802823DD12
:1006AC00832838D0822849D08128B9D10021CDE9BE
:1006BC00001141F26860C2F2000040F28122C0F2E7
:1006CC0001020B4650F82110914203F10101F8D1BF
:1006DC0057E0012005F8020CE2882A8040F2C000A5
:1006EC00C0F20000002168E701283AD0022897D117
:1006FC000021CDE9001141F26860C2F2000040F225
:10070C000222C0F201020B4650F82110914203F173
:10071C000101F8D135E00021CDE9001141F268600A
:10072C00C2F2000040F28322C0F201020B4650F8E4
:10073C002110914203F10101F8D122E00021CDE911
:10074C00001141F26860C2F2000040F28222C0F255
:10075C0001020B4650F82110914203F10101F8D12E
:10076C000FE000F581300022CDE9002241F26861F2
:10077C00C2F20001134651F82220824203F1010219
:10078C00F8D103EB430040F20041C2F2000101EB4F
:10079C00C000016931B141F22422C2F20002694663
:0807AC0000F06BFF03B030BD4B
:1007B40070B51546914238BF0D46402D04461AD3F4
:1007C40040F2C006C0F2000630462146402201F045
:1007D4003DFC0130F8D000BF30464FF4817100F089
:1007E40006FF0130F8D04034A5F1400069B2402939
:1007F4000546E9DB00E02846C5B240F2C006C0F277
:10080400000600BF304621462A4601F01FFC013095
:10081400F8D040F2C004C0F2000400BF20464FF4F8
:0C082400857100F0E4FE0130F8D070BDDA
:1008300000000000000000006312000087120000AA
:10084000291F0000611F00006312000087120000D2
:04085000711F000014
:100854000000000000000000631200008712000086
:10086400A91F0000E11F00006312000087120000AE
:040874002B15000040
:100878000000000000000000631200008712000062
:100888005D20000095200000631200008712000020
:04089800FD1500004A
:10089C00000000000000000063120000871200003E
:1008AC002121000059210000631200008712000072
:0408BC009117000090
:1008C000000000000000000063120000871200001A
:1008D00091210000C921000063120000871200006E
:0408E000D92100001A
:1008E40000000000000000006312000087120000F6
:1008F400E921000021220000631200008712000099
:04090400312200009C
:1009080000000000000000006312000087120000D1
:1009180041220000792200006312000087120000C3
:040928008922000020
:10092C0000000000000000006312000087120000AD
:10093C00A1220000D92200006312000087120000DF
:04094C003115000061
:100950000000000000000000631200008712000089
:10096000E92200002123000063120000871200002A
:04097000B9170000B3
:100974000000000000000000631200008712000065
:100984003123000069230000631200008712000075
:04099400E517000063
:100998000000000000000000631200008712000041
:1009A800212400005924000063120000871200006F
:0409B800F51700002F
:1009BC00000000000000000063120000871200001D
:1009CC0069240000A12400006312000087120000BB
:0409DC0025180000DA
:1009E00000000000000000006312000087120000F9
:1009F000B1240000E9240000631200008712000007
:040A00008D1800004D
:100A040000000000000000006312000087120000D4
:100A14004D250000852500006312000087120000A8
:040A2400E5180000D1
:100A280000000000000000006312000087120000B0
:100A3800B5260000ED2600006312000087120000B2
:040A4800031900008E
:100A4C00FC2600000C2700001C2700002C270000AF
:100A5C0010B540F62814C2F2000404F5407000BF33
:0C0A6C00183801F021FAA042FAD110BDA8
:100A780000B501F5837C002908BF4FF4817C3CF860
:100A880000C05FEACC7C04D1C3F800C04FF0FF304F
:100A980000BD00EB010CBCF808C1D3F800E0E64546
:100AA80038BFF446BCF1000FC3F800C008D02030AE
:100AB800890800BF0B5C02F8013BBCF1010CF9D1BD
:040AC800002000BD4D
:100ACC0000B500EB010E4FF0010C9EF802E100297D
:100ADC0008BF4FF0020C1CEA0E0F02D04FF0FF3093
:100AEC0000BD4BB100F1200C890800BF12F8010BBE
:0C0AFC0001F80C00013BF9D1002000BD06
:100B080008490A68002AFED41EF0040F0CBFEFF350
:100B18000880EFF3098042F000420A6081690231DF
:080B2800816170472CED00E033
:100B3000094B0A4A70B51C689442144609D01D68D6
:100B400000235E59E6500433B3F51B7FF9D1024B05
:100B50001A6044F8201070BD08ED00E0000000208D
:100B6000042804D1134B1A6842F4803205E00528AA
:100B700005D1104B1A6842F400321A6070470628FB
:100B800004D10C4B1A6842F48022F6E70F2804D1F6
:100B9000094B1A6842F00202EFE70AD91038074BF6
:100BA000420953F8223000F01F00012212FA00F02F
:100BB0001860704724ED00E010E000E0C00B00007A
:100BC00000E100E004E100E008E100E00CE100E009
:040BD00010E100E050
:100BD40000F07043B3F1704F15D100F47F42114B14
:100BE400120A00F0FF00D318800003F0704240F0B6
:100BF400007023F07F43104323F4700340EA43134F
:100C040001221A607047020F81B200F4F810000C40
:100C140011FA00F0044B53F822301A68104318609C
:0C0C2400704700BF00E60F40D00D00003C
:100C3000054B18B11A6842F0006202E01A6822F00F
:0C0C400000621A60704700BF60E00F40C7
:100C4C00534B2DE9F0411A68044612F0E04F06D0E0
:100C5C001A68504B02EA0303B3F1805F02D1002CF7
:100C6C00C0F294804C494D4A0B68166843F40063FB
:100C7C0023F4800546F4006613F0020F0D60166035
:100C8C0002D014F0020F05D015F0010F1AD014F099
:100C9C00010F17D164F003031D403F4B002E1D6064
:100CAC0005DA06F07003302B05D0702B02E005F04E
:100CBC003003302B02D14FF4805001E04FF4002070
:100CCC0000F005FF04F4FE6325F4FE6545EA030815
:100CDC00334D26F0004604EA050526F0700645EA79
:100CEC00060604F0080546EAC5052C4F2A4E1020CE
:100CFC00C6F800803D6000F0EAFE28F4405804F489
:100D0C000052284904F4405325F4005548EA0303E3
:100D1C0040201543244A086052BF33603D60336065
:100D2C0023F0F86304EA020223F0030358BF3D608A
:100D3C00134304F0FC5125F0FC5214F0804F42EAAE
:100D4C00010208D0194922F4800204EA010143F49B
:100D5C0080030A4301E022F0804214F4006F0CD1AE
:100D6C004FF400411248006810F0400F01D10139D6
:100D7C00F8D123F4006322F40062074910200B60C1
:100D8C00064B1A60BDE8F04100F0A1BEBDE8F08151
:100D9C0000E00F400000FF7060E00F4070E00F407B
:100DAC003000008058E00F400300C00700004040B6
:040DBC0050E00F40B4
:100DC000024B1A6822F480421A60704770E00F40AC
:0C0DD00000E10F4004E10F4008E10F407B
:100DDC00034C206804348047FBE700F03DF8FEE745
:040DEC00BC30000017
:100DF00003480449091A08B500F057FF0CBC18470E
:080E0000E0170020E01F0020B4
:100E08005AB3844690EA01039B071FD1830707D092
:100E180011F8013B00F8013B521EF7D11CE0844653
:100E2800203A09D32DE9F007B1E8F807A0E8F80758
:100E3800203AF9D2BDE8F0071C3205D451F8043B3A
:100E480040F8043B121FF9D2043205D011F8013BD7
:0C0E580000F8013B521EF9D160467047C3
:100E6400ADF5835D86B000F031FE40F24050C0F233
:100E7400C010FFF7E9FE0120FFF7D8FE0120C2F2FF
:100E84001000FFF7A5FE0DF5805E00208EF87700B8
:100E94008EF8760004A80DF1170E0EF583510DF1AE
:100EA400160E0EF5835200F01BF801A8FFF798F90F
:060EB40000F007FEFEE75E
:100EBA0010B540F24404C0F2000404F1500040218D
:100ECA0001F015FB0146204601F011FB014604F131
:0A0EDA002800BDE8104001F00ABB3B
:100EE4002DE9F041CEB090460E46044640F2FF7024
:100EF40041F21001421CA4F800280023C4F804386D
:100F0400C4F80808C4F80C0865186252C5E9013031
:100F1400E86040F63800C0F20000CDE9480441F230
:100F2400280048AF20444C97394601F025F84C98E6
:100F3400B84202D028B1142100E0102102685158AF
:100F44008847002085F84200C5E91168688640F6A4
:100F54005C00C0F20000CDE9420442AE469640F681
:100F64004045C2F200052846314600F02AFA469868
:100F7400B04202D028B1142100E010210268515877
:100F8400884740F68000C0F20000CDE93C043CAE46
:100F9400409605F52270314600F013FA4098B042AD
:100FA40002D028B1142100E010210268515888476A
:100FB40040F6A400C0F20000CDE9360436AD3A95FF
:100FC40040F62840C2F20000294600F0FAF93A98A7
:100FD400A84202D028B1142100E01021026851581F
:100FE400884740F6C800C0F20000CDE9300430ADB7
:100FF400349542F62070C0F20000294600F066FFE6
:101004003498A84202D028B1142100E010210268CB
:101014005158884740F6EC00C0F20000CDE92A049C
:101024002AAD2E9543F26800C0F20000294600F074
:101034004DFF2E98A84202D028B1142100E01021BF
:1010440002685158884742F20017C0F2200740F660
:101054001010C0F20000CDE9240424AD289500212D
:1010640041F26866C2F2000607F500300A4656F8F7
:101074002110814202F10101F8D102EB420040F259
:101084000048C2F2000808EBC000294600F0BEFE8A
:101094002898A84202D028B1142100E01021026847
:1010A4005158884740F63410C0F20000CDE91E04C0
:1010B4001EAD2295002100BF084656F82110B94202
:1010C40000F10101F8D100EB400008EBC000294613
:1010D40000F09CFE2298A84202D028B1142100E01E
:1010E400102102685158884740F65810C0F2000099
:1010F400CDE9180418AD1C95002107F5C03000BFD8
:101104000A4656F82110814202F10101F8D102EB9E
:10111400420008EBC000294600F078FE1C98A84263
:1011240002D028B1142100E01021026851588847E8
:1011340040F67C10C0F20000CDE9120412AD169501
:10114400002100BF084656F82110B1F5102F00F118
:101154000101F7D100EB400008EBC000294600F084
:1011640055FE1698A84202D028B1142100E010219F
:1011740002685158884740F20227C0F2010740F63E
:10118400A010C0F20000CDE90C040CAD10950021B4
:1011940007F17F000A4656F82110814202F101014D
:1011A400F8D102EB420008EBC000294600F02EFE05
:1011B4001098A84202D028B1142100E0102102683E
:1011C4005158884740F6C410C0F20000CDE9060427
:1011D40006AD0A95002107F1800000BF0A4656F8C3
:1011E4002110814202F10101F8D102EB420008EB27
:1011F400C000294600F00AFE0A98A84202D028B18D
:10120400142100E0102102685158884740F6E81084
:10121400C0F20000CDE900046D460495002100BF32
:10122400084656F82110B94200F10101F8D100EB4B
:10123400400008EBC000294600F0E8FD0498A842ED
:1012440002D028B1142100E01021026851588847C7
:0E1254002046FFF730FE20464EB0BDE8F08188
:021262007047D3
:1012640038B540F6F864C2F2000404F5A07000BF7B
:10127400A0F12005183800F01BFEA5422846F7D13E
:0212840038BD73
:06128600082101F048BE42
:10128C00F8B5D0F8046876B1964228BF164652B12C
:10129C0004460D46374600BF204600F0F5F9013FE5
:0A12AC0005F8010BF8D1B0B2F8BD4F
:1012B60002460068116018B19168C90001F02BBEA2
:0212C60070476F
:1012C800F8B5140009D00D460646274615F8011B47
:0E12D800304600F004F8013FF8D12046F8BD82
:1012E600D0F80838B0F8002801339342002228BF0E
:1012F6001346C0F80838C154D0F80838D0F80C188E
:10130600994208D1B0F800380131994238BF0A46EF
:10131600C0F80C287047D0F804180131C0F804183A
:0213260070470E
:101328002DE9F04190B0044641F2140021580029FB
:1013380042D0251895F82C00032803D02046032115
:1013480000F0BCFEE88D00F40470B0F5007F33D1E6
:101358002A68402A04F5016812D300BF404669464E
:101368004022FFF78FFF0746204669463A4600F0BD
:10137800A8F92A683F2AF1D81AB9B8060BD01BE099
:101388004AB140466946FFF77DFF02462046694656
:1013980000F097F910E040F24404C0F2000420463F
:1013A800002100F051FE20464FF4817100F01DF934
:0E13B800E88D40F01000E88510B0BDE8F0812F
:1013C60030B587B004466D46284600F0D4FD214668
:1013D60000F03CF80498A84202D028B1142100E09D
:0E13E6001021026851588847204607B030BDDC
:1013F40070B541F26365C2F2000541F25264287887
:10140400C2F200040021215440B10026A019C07882
:1014140000F0B1FB287801368642F7D342F6CB7050
:10142400C0F2000000F0BFFBE01C00F059F80028F7
:101434000CD440F6F861C2F2000101EB4010083010
:0E14440000210022BDE8704000F010B970BD1C
:1014520081420CD0B0B584B00C46054600690969DA
:10146200A84205D0A14210D02961206137E070471F
:101472000268A142D26815D02146904728690168C6
:10148200096988472069286128E00868C268084617
:1014920029469047206901680969884728692061BF
:1014A2002D611CE0694690472869016809698847EF
:1014B20000272F6120690168CA6829469047206980
:1014C200016809698847276100982D61C2686846EA
:1014D200214690470098016968468847246104B014
:0214E200B0BD9B
:1014E40041F26461C2F200010B78D3B130B5844695
:1014F400002040F6F86EC2F2000E00BF5EF8201B1A
:10150400624600BF12F8014B11F8015B14B1AC4202
:10151400F8D000E025B101309842EFD14FF0FF3010
:0615240030BDD843704702
:06152A00406800F00BB860
:10153000406800F58150072211F8013B00F8013B9B
:06154000013AF9D17047E9
:1015460010B5044640F24400C0F2000000F02AF84C
:1015560041F24201605A40F0020020F0100220469B
:0A1566006252BDE8104000F040BDE5
:1015700038B505680024C4F2050440F2C000C0F28A
:101580000000002100F0FFF894F80201C006FBD52E
:1015900041F23420C2F20000807800F07F01204642
:0A15A00001F07CFA0220287038BD2B
:1015AA0010B504460068A16801F03FFA02462068B7
:0A15BA00A168BDE8104001F040BA3E
:1015C400002040F62811C2F2000100228B181832C4
:1015D400B2F5407F1861F9D140F65D20C0F20000F9
:0E15E40040F20002C0F20002002101F021BC22
:0A15F2000A468168006801F0C0BAE3
:0615FC00406800F000B899
:10160200B0B5A2B0054640F26C04C0F20004204618
:10161200FFF7CAFF204600F044FD209028B320AA1D
:10162200204610A900F041FD209A284610A9FEF795
:101632007EFE41F242002F18295A49040DD5284650
:1016420069464022FFF721FE024605F50160694620
:10165200FFF739FE2846FFF766FE2046002100F01C
:0E16620091F8388840F00400388022B0B0BD06
:1016700002B582B08DF8072002A90DF1070200F033
:0616800002F803B000BDFA
:0E168600006910B103689B69184700F012FD5F
:101694008446D0F804280020A2B100B5DCF80C1868
:1016A400BCF800E84B1CDCF80818734538BF184632
:1016B400431A18BF531ECCF80C08CCF804381CF895
:0616C400000000BD7047AC
:1016CA002DE9F04141F242031446C25A0D46C718A9
:1016DA00D1061AD4402C264628BF402640F2440898
:1016EA00C0F2000840462946324600F0ACFC4046AB
:1016FA004FF48171FFF778FF388840F01001412CD0
:10170A0039800CD340F0900002E042F080000026BD
:10171A003880C7F80250C7F80640C7F80A60BDE823
:02172A00F0814C
:10172C0070B5044641F241000D46215C2618204656
:10173C0000F0D8FCB6F8010001070AD43178204635
:10174C0000F0D0FCB6F8010040F00800A6F801004B
:10175C0006E02DB140F6D27000F0B9F9B6F80100F0
:10176C00010709D400F108023178A6F801202046BF
:0A177C00BDE8704000F0B6BC70BD7F
:0A1786000A468168006801F0E6B928
:06179000406800F000B803
:1017960010B5044640F29400C0F20000FFF702FFC5
:1017A60041F24200215A41F0010121F00801215283
:0217B60010BD64
:0617B800043000F000B84F
:1017BE0010B5006800F5815140F2C004C0F200047B
:1017CE002046072200F03DFC20464FF48571BDE80F
:0617DE001040FFF707BFF9
:0617E400043000F0C7BD57
:0A17EA008168426A006800F047B908
:0617F400043000F000B813
:1017FA0010B5006841F2420140F29404425A22F0C4
:10180A0009024252C0F200042046FFF7C9FE2046F0
:0A181A000121BDE81040FFF7B1BF47
:06182400043000F000B8E2
:10182A00F8B5056841F21006AF1940F24404C0F257
:10183A0000042046FFF7B4FE204600F018F82046C0
:10184A0000F01AF8A85B01380021C7E90110F86016
:10185A00032087F830004020788640F68C2000F07C
:0E186A0037F920460121BDE8F840FFF787BF9F
:0A18780081684269006800F0D6B8EC
:0A1882008168426A006800F0ADB80A
:06188C00043000F000B87A
:1018920038B5056840F26C04C0F200042046FFF738
:1018A20083FE2046FFF7E7FF2046FFF7E9FFB5F882
:1018B200000801380021C5F8041841F24201C5F8B8
:1018C20008086A5AC5F80C0822F02400685220461B
:1018D2000121FFF757FF20460021BDE83840FFF7FE
:0218E20051BFF4
:0618E400406800F055BE53
:0A18EA0081684269006800F088B8C8
:0E18F400006910B101688969084700F0DBFB4C
:061902000430FFF734BEC3
:1019080010B50446006BFFF761F9FFF755FAE06977
:10191800FFF722F92068216A00F022F82068616A3E
:1019280000F031F82068A16A01F076F82068E16AD1
:1019380000F03CF82068A16A01F032F82068BDE8A0
:06194800104000F095B80C
:10194E0040F62810C2F20000006928B140F62810B7
:0A195E00C2F20000FFF7C7BF704798
:101968000A061EBFC27A8A43C272CA0544BF002251
:10197800C0F80824880505D540F24840C4F205009F
:0619880000210160704720
:10198E000A061EBFC27A0A43C272CA0544BF0122AA
:10199E00C0F80824880505D540F24840C4F2050079
:0619AE00012101607047F9
:1019B400C2880A43C2806FF00102038902EA11411E
:0619C40019430181704788
:0A19CA004188808841EA0040704720
:1019D40080B53C20FFF7AAF83C20BDE80840FFF79B
:0219E400BDB88C
:1019E600084412F4005F4FF4817108BF0431425C71
:0E19F6000CBF42F0800342F0400343547047A0
:101A040039B1B2F5005F08D1084400F581701021A6
:101A140007E000F58170602103E0084400F583705D
:0A1A24002021027811430170704781
:101A2E0071B1B2F5005F12D1084490F8021101F0C5
:101A3E00CF0180F8021190F8021141F0400103E04D
:101A4E0090F8021101F0FB0180F802117047084472
:101A5E0090F8061101F09F0180F8061190F806111A
:0A1A6E0041F0800180F80611704776
:0A1A7800417841F0400141707047D1
:101A820069B1920413D4084490F80611C9071EBF25
:101A920090F8061141F0100180F80611704790F895
:101AA20002118907FAD0012180F80311704700F56D
:101AB2008170425CD207F1D00A5C42F008020A54FB
:021AC20070476B
:021AC400FEE73B
:0A1AC60008B501F072F8C0B208BDC7
:0A1AD00008B501F069F8C0B208BDC6
:061ADA000138FDD1704748
:101AE00040F2BC00C0F200000468204600F001F89B
:021AF000FBE712
:101AF20080B505281FD841F2E01CC2F2000C41F665
:101B020079335CF82010C0F200034CF82030A9B100
:101B120041F67732C0F2000291420CD0994208D0CD
:101B220041F67533C0F20003994207D04CF82030D9
:101B32008847002008BD4FF0FF3008BD0120FFF7A5
:021B420053F955
:101B440041F26163C2F200031A78002A02464FF0A0
:101B5400010007D141F2F81CC2F2000CCCE90021CB
:061B64001870002070471C
:0A1B6A00014600200022FFF7E8BF4B
:021B74007047B8
:021B76007047B6
:021B78007047B4
:0E1B7A0041F2C471C2F20001096800F000B827
:101B880080B50B468DF803000DF1030001210122F9
:101B980000F01EF89DF80310002808BF411E0846F3
:021BA80008BD76
:101BAA0038B541F2C471C2F2000104460D6800F072
:101BBA008DF802462846214600F020F8013004D06C
:0E1BCA000A20BDE83840FFF7D3BFC04338BD46
:101BD800F8B51D4617460C460646184600F0EAFFBB
:101BE800002803D407FB04F2A24201D20020F8BD6A
:0E1BF8002846314600F003F8B0FBF4F0F8BDCB
:061C0600006800F034B894
:101C0C000146C0680A6982426FEA000010449CBF1A
:061C1C00896808447047CE
:101C22002DE9F843144688460546C7684FF0000977
:101C32002869F943B8420844A96898BF0844CE1BF2
:101C4200B04238BF06466868A64228BF26463844D6
:101C520041463246FFF7D7F8A868F1190F1A18BFA4
:101C62000F46A41BB144B044EF60E1D14846BDE841
:021C7200F883F5
:101C7400F8B541F23803C2F2000314461B78002B76
:101C84000D46064608BF00F0B3FFEFF311874FF08F
:101C9400200181F3118830462946224600F0F4FFE2
:061CA40087F31188F8BD72
:101CAA00082907D341F22022C2F200021060002262
:061CBA00C0E900217047A3
:101CC00010B5044601F096F8204601F045F8BDE84D
:061CD000104001F09BB87A
:101CD600017881B10246944652F8043BA3F10131E2
:101CE600994331F07F33F6D019BAB1FA81F10CEB92
:0A1CF600D101081A70470020704762
:061D0000FFF7EEFEFEE716
:101D0600F8B541F20424C2F20004206890B141F211
:101D16006015C2F2000541F2E006C2F200066FF05D
:101D2600030707EB80002958305888472068013898
:061D36002060F6D1F8BDAB
:101D3C0070B582B004460125BFF35F8F057043F286
:101D4C008401C0F2000101A800F02FF866786570DC
:101D5C0001F0C2F8700706D541F20820C2F200006B
:101D6C0000F024FF08B902B070BD42F6A070C0F2BA
:0E1D7C00000043F28401C0F20001FFF7BBFF3C
:101D8A0010B541F20C24C2F200040020206000F0D9
:061D9A000EFF206010BDE9
:101DA00010B541F20824C2F200040020206000F0C7
:061DB00003FF206010BDDE
:101DB60010B50446016041F20C20C2F2000000F0AA
:101DC600F8FE08B9204610BD216842F66A70C0F2D6
:061DD6000000FFF792FF80
:101DDC0080B500F008F800B108BD43F21C00C0F259
:061DEC000000FFF787FF75
:101DF20010B50446012898BF0124204601F00DF8D1
:0E1E020020B901F080F808B18047F6E710BD66
:101E100070B50D4604460021002600F011F828692F
:101E200020B1A84204D020612E6107E0266105E0C0
:101E3000246128690168CA6821469047204670BD20
:101E400010B5044600690021A042216102D028B1EA
:101E5000142100E01021026851588847204610BD27
:101E600081B030B582B0144641F26565C2F200051A
:101E70000593287805AA1F28019216D800EB400088
:101E800040F62812C2F2000202EBC000FFF7C0FFCA
:101E9000287841F24471C2F2000151F82010204626
:101EA000FFF798FD28780130287002B0BDE8304077
:041EB00001B07047C6
:101EB40010B504460069A04202D028B1142100E004
:0C1EC4001021026851588847204610BDCC
:101ED00070B588B041F26466C2F200063578092D0B
:101EE0001DD8009002AC204600F03EF93078411C2D
:101EF000317040F6F861C2F2000101EB4010009A27
:101F000040F8082B2146FFF783FF0698A04202D035
:101F100028B1142100E010210268515888470A2D89
:081F20008041404208B070BD91
:101F280030B585B004460820FFF754FF05460DF18B
:101F38001300029001200390606840F63801C0F257
:101F48000001C5E900100020019001A80021FFF759
:081F5800AEF9284605B030BDCA
:101F600040F63802C0F200024068C1E90020704724
:0C1F70004068097800F50160FFF7B5B982
:101F7C0010B50A6904463AB18A4207D010688168E4
:101F8C0010468847206107E0226105E0246108695A
:0C1F9C000168CA6821469047204610BD2D
:101FA80030B585B004460820FFF714FF05460DF14B
:101FB8001300029001200390606840F65C01C0F2B3
:101FC8000001C5E900100020019001A80021FFF7D9
:081FD8006EF9284605B030BD8A
:101FE00040F65C02C0F200024068C1E90020704780
:101FF00041F24202815A0B0600D4704770B5861830
:10200000D6F80620D6F80A0082421DD9141AD6F84E
:102010000210402C28BF4024014440F24405C0F285
:1020200000052846224600F013F828464FF4817137
:10203000FFF7DFFA3088D6F80A1040F01000308041
:102040000819C6F80A0070BD21F08000308070BD0C
:0C20500013460A4681680068FEF738BDA0
:10205C0030B585B004460820FFF7BAFE05460DF1F1
:10206C001300029001200390606840F68001C0F2DA
:10207C000001C5E900100020019001A80021FFF724
:08208C0014F9284605B030BD2F
:1020940040F68002C0F200024068C1E900207047A7
:0820A4008168006800F04ABDEC
:0C20AC0013460A4681680068FEF7E0BC9D
:0C20B80042F6CD70C0F20000FFF71EBE23
:1020C40041F24102835C994200D1704738B58518CA
:1020D4000C4629700121FFF727FB032C02BFB5F83A
:0C20E400010040F40070A5F8010038BDB8
:1020F00010B541F2D072C2F2000240F29404118194
:10210000C0F20004204611460A22FFF7A1FF00B1E9
:1021100010BD20464FF48171BDE81040FFF769BA49
:1021200030B585B004460820FFF758FE05460DF18E
:102130001300029001200390606840F6A401C0F2F1
:102140000001C5E900100020019001A80021FFF75F
:08215000B2F8284605B030BDCD
:1021580040F6A402C0F200024068C1E900207047BE
:1021680010B50A6904462AB18A4205D022610020C6
:10217800086107E0226105E0246108690168CA680E
:0821880021469047204610BDDE
:1021900030B585B004460820FFF720FE05460DF156
:1021A0001300029001200390606840F6C801C0F25D
:1021B0000001C5E900100020019001A80021FFF7EF
:0821C0007AF8284605B030BD95
:1021C80040F6C802C0F200024068C1E9002070472A
:1021D800406841F24201425A42F4804242527047FA
:1021E80030B585B004460820FFF7F4FD05460DF12B
:1021F8001300029001200390606840F6EC01C0F2E1
:102208000001C5E900100020019001A80021FFF796
:082218004EF8284605B030BD68
:1022200040F6EC02C0F200024068C1E900207047AD
:10223000406841F24201425A22F4804242527047C1
:1022400030B585B004460820FFF7C8FD05460DF1FE
:102250001300029001200390606840F61011C0F254
:102260000001C5E900100020019001A80021FFF73E
:0822700022F8284605B030BD3C
:1022780040F61012C0F200024068C1E90020704721
:10228800897840684FF4825201F00301815400F5C7
:08229800825040214180704793
:1022A00030B585B004460820FFF798FD05460DF1CE
:1022B0001300029001200390606840F63411C0F2D0
:1022C0000001C5E900100020019001A80021FEF7DF
:0822D000F2FF284605B030BD05
:1022D80040F63412C0F200024068C1E9002070479D
:1022E80030B585B004460820FFF774FD05460DF1AA
:1022F8001300029001200390606840F65811C0F264
:102308000001C5E900100020019001A80021FEF796
:08231800CEFF284605B030BDE0
:1023200040F65812C0F200024068C1E90020704730
:1023300030B585B004460820FFF750FD05460DF185
:102340001300029001200390606840F67C11C0F2F7
:102350000001C5E900100020019001A80021FEF74E
:08236000AAFF284605B030BDBC
:1023680040F67C12C0F200024068C1E900207047C4
:10237800F8B50468154604F5825720460021002662
:1023880000F024F82878032811D17E8040F2440612
:10239800C0F2000606F15000FFF723FA3046FFF7B7
:1023A80020FA06F12800FFF71CFA01202860788837
:1023B80020F400707880032028604FF48072204653
:0C23C80001213A80BDE8F84000F000B8A8
:1023D40010B540F24404C0F2000404F1500051B1BD
:1023E40000F014F8204600F011F804F12800BDE8CC
:1023F400104000F00BB800F00DF8204600F00AF889
:0C24040004F12800BDE8104000F004B80E
:0824100001690068FFF7CEBA74
:082418000169006800F000BB3F
:1024200030B585B004460820FFF7D8FC05460DF10D
:102430001300029001200390606840F6A011C0F2E2
:102440000001C5E900100020019001A80021FEF75D
:0824500032FF284605B030BD43
:1024580040F6A012C0F200024068C1E900207047AF
:1024680030B585B004460820FFF7B4FC05460DF1E9
:102478001300029001200390606840F6C411C0F276
:102488000001C5E900100020019001A80021FEF715
:082498000EFF284605B030BD1F
:1024A00040F6C412C0F200024068C1E90020704743
:1024B00030B585B004460820FFF790FC05460DF1C5
:1024C0001300029001200390606840F6E811C0F20A
:1024D0000001C5E900100020019001A80021FEF7CD
:0824E000EAFE284605B030BDFC
:1024E80040F6E812C0F200024068C1E900207047D7
:1024F80038B5044605C80D468273204600F00EF82C
:102508002068E16801602046294600F00DF8E0687F
:0C25180094F820108840284480B238BDA0
:0C252400D0E902124369006800F0B8BA68
:1025300010B582B0D0F808C0C369446A006800943E
:0C2540000A46614600F0E2FA02B010BD4D
:10254C0030B585B004460820FFF742FC05460DF176
:10255C001300029001200390606840F60C21C0F239
:10256C000001C5E900100020019001A80021FEF730
:08257C009CFE284605B030BDAD
:1025840040F60C22C0F200024068C1E90020704706
:10259400F0B583B040F20211C4F2050104460A7892
:1025A4008DF807208A798DF806200A7A8DF805209F
:1025B400A1F581752846FFF706FA060025D0F00735
:1025C40020D040F2C000C0F20000FFF769FDC8B19E
:1025D400029040F2C000C0F2000041F23427C2F27F
:1025E400000702AA3946FFF75FFD41F23C21C2F21F
:1025F40000018878002806BF3888088008882146AA
:10260400FDF72AFF3046FDF709FF284600F0EAF9F6
:1026140000F00700012804BF0020207003B0F0BDC3
:1026240038B541F23425C2F2000542F6B774AA79EE
:10263400C0F2000420460221FEF7BAF8AA7940F25B
:10264400C000C0F200002146BDE83840FFF7FEBCE0
:10265400032815D080B5022808D0012814D1CAB2A5
:1026640042F6B970C0F20000122105E0CAB242F687
:102674002770C0F200004321FEF79AF8012008BD3C
:0C268400C9B2104600F002B8002008BDEA
:1026900010B50446032809D840F64C20C0F20000CB
:1026A0000A4650F824001021FEF784F8042C8041DB
:0426B000404210BDD7
:1026B40030B585B004460820FFF78EFB05460DF1C2
:1026C4001300029001200390606840F63021C0F2AC
:1026D4000001C5E900100020019001A80021FEF7C7
:0826E400E8FD284605B030BDF9
:1026EC0040F63022C0F200024068C1E90020704779
:1026FC0004030904000000000000000000000000BA
:10270C000E0341006E00640072006500770000004B
:10271C000A03540045005300540030000000000030
:10272C00100331003200330034003500360037001E
:10273C0040F64010C2F200000169002908BF704742
:04274C00FFF7D2B809
:1027500040F65810C2F200000169002908BF704716
:04276000FFF7C8B8FF
:1027640040F67010C2F200000169002908BF7047EA
:04277400FFF7BEB8F5
:1027780040F68810C2F200000169002908BF7047BE
:04278800FFF7B4B8EB
:10278C0040F6A010C2F200000169002908BF704792
:04279C00FFF7AAB8E1
:1027A00040F6B810C2F200000169002908BF704766
:0427B000FFF7A0B8D7
:1027B40040F6D010C2F200000169002908BF70473A
:0427C400FFF796B8CD
:1027C80040F6E810C2F200000169002908BF70470E
:0427D800FFF78CB8C3
:1027DC0040F60020C2F200000169002908BF7047D2
:0427EC00FFF782B8B9
:1027F00040F61820C2F200000169002908BF7047A6
:04280000FFF778B8AE
:1028040040F63020C2F200000169002908BF704779
:04281400FFF76EB8A4
:1028180040F64820C2F200000169002908BF70474D
:04282800FFF764B89A
:10282C0040F66020C2F200000169002908BF704721
:04283C00FFF75AB890
:1028400040F67820C2F200000169002908BF7047F5
:04285000FFF750B886
:1028540040F69020C2F200000169002908BF7047C9
:04286400FFF746B87C
:1028680040F6A820C2F200000169002908BF70479D
:04287800FFF73CB872
:10287C0040F6C020C2F200000169002908BF704771
:04288C00FFF732B868
:1028900040F6D820C2F200000169002908BF704745
:0428A000FFF728B85E
:1028A40040F6F020C2F200000169002908BF704719
:0428B400FFF71EB854
:1028B80040F60830C2F200000169002908BF7047DD
:0428C800FFF714B84A
:1028CC0040F62030C2F200000169002908BF7047B1
:0428DC00FFF70AB840
:1028E00040F63830C2F200000169002908BF704785
:0428F000FFF700B836
:1028F40040F65030C2F200000169002908BF704759
:04290400FEF7F6BF25
:1029080040F66830C2F200000169002908BF70472C
:04291800FEF7ECBF1B
:10291C0040F68030C2F200000169002908BF704700
:04292C00FEF7E2BF11
:1029300040F69830C2F200000169002908BF7047D4
:04294000FEF7D8BF07
:1029440040F6B030C2F200000169002908BF7047A8
:04295400FEF7CEBFFD
:1029580040F6C830C2F200000169002908BF70477C
:04296800FEF7C4BFF3
:10296C0040F6E030C2F200000169002908BF704750
:04297C00FEF7BABFE9
:1029800040F6F830C2F200000169002908BF704724
:04299000FEF7B0BFDF
:1029940040F61040C2F200000169002908BF7047E8
:0429A400FEF7A6BFD5
:1029A80011F00F021EBFC3881A43C28011F460627F
:1029B8001EBF038943EA122202810A0E1EBFC37A90
:1029C8001A43C272CA0344BF0122C0F8082488030C
:1029D80005D540F24840C4F2050001210160704766
:1029E8000146807AD1F80C24D20707D091F80C243C
:1029F80000F5807042F0010281F80C2440F24C414D
:102A0800C4F205010A68D20705D00A6800F500700B
:082A180042F001020A60704760
:102A2000C2888A43C2800289012363EA11411140AE
:042A30000181704769
:102A34000844B0F80211B0F8060141EA00407047BA
:102A440089B10844DB2390F8021163EA02031940B8
:102A540080F8021190F80611B32363EA1242114080
:102A640080F806117047D1071EBF90F8021141F09B
:102A7400400180F80211D10642BF90F8021141F0E2
:102A8400800180F802115107ECD590F8021101F091
:082A9400FB0180F802117047FC
:042A9C00017070470E
:102AA00000B508441038990413D4A0F8142103F099
:102AB00004014FF0200CDA064CBF28220CEA8302F6
:102AC00042EA41124FF0800E4FF48B7140F2171C16
:102AD00012E0A0F81021D90640F2131C05D403F02F
:102AE000090191FAA1F10A0E02E0142263F3C71260
:102AF0004FF0400E4FF4897113F4407F08BF42F04D
:0C2B0000400200F80C2000F801E000BDCD
:102B0C0000B50909DDF804C04FEAD20E62221CF4AC
:102B1C00005F90F80EC008BF63228173835480F865
:102B2C000EC0827B817314BF6421662120F801E002
:042B3C00827300BDE3
:102B400001F58372002908BF4FF48172125AD2072F
:0C2B50000EBF00200844B0F808017047D8
:102B5C0039B1084490F8061101F0FE0180F8061115
:102B6C0070474821002A08BF402180F802117047A5
:102B7C0000F5817029B1435CDB0708D10844120AC7
:102B8C0002E00178890702D40270002070474FF0F0
:042B9C00FF3070474F
:082BA000AFF30080FEF71AF903
:082BA800EFF3108072B67047D4
:082BB000EFF3108062B67047DC
:042BB8000020704742
:102BBC0041F2C871C2F2000141F2C472C2F20002C9
:102BCC000968126841F2CC73C2F20003411A1B6807
:102BDC0018BF0121821A18BF01221140C01A18BF58
:082BEC0001200840404270473F
:102BF40041F23800C2F20000032143F21302C0F292
:102C040000020161416141F24221C2F2000182618C
:102C1400C1614FF480610162002181624162C1623D
:102C240041F24263C2F200030266436610228266E6
:102C34000167C16643F20202C0F200024167531AFF
:0C2C4400DB7B435401311029F9D17047AB
:102C50002DE9F04104468068E66815466268871BE6
:102C60009019BD4204D22A46FEF7CEF835440AE058
:102C700088463A46FEF7C8F8ED1B08EB0701606886
:0C2C80002A46FEF7C1F8E560BDE8F081CF
:102C8C0070B500EB400041F23803C2F2000303EBD5
:102C9C00C00303F11806D86A022818D00D46144652
:102CAC00012807D020B93046FEF7AAFFA04207D270
:102CBC0000240AE03046FEF7A3FFA04238BF0446CA
:102CCC00304629462246FFF7BDFF204670BD3046F0
:082CDC00BDE87040FEF79FBF48
:102CE40041F2202CC2F2000CDCF800304BB170B57C
:102CF4000F305C6820F0070E0025744503D1184698
:102D040015E00020704700214A1E0025744588BF45
:102D14000125944280414642186835421CBF194639
:102D2400224668B1446874451D460346EDD1002D22
:102D340001680CBFCCF80010296040F808EB70BDA6
:102D44000029FCD04B68A2EB0E000844A3EB0E0252
:042D54004A60F2E7F8
:102D580020B350F8081CCA0718BF21F00100E8B1D9
:102D680010B541F22022C2F200020146D2F800E07A
:102D7800BEF1000F51F808CD11D08E45734615D21B
:102D88001A461B681C0018BF012401D08B42F7D3D8
:102D980040F804CD40F8043C11600EE07047116023
:102DA800C1F800E01068C0F804C010BD40F804CDB8
:102DB800012440F804EC116000225CB101EB0C0422
:102DC8009C4201BFD3F804C004686444046004BF93
:102DD8001B680B608E45E8D25368D4188C42E4D146
:0C2DE8000068184450600868106010BDBE
:102DF400EFF3108072B6B0FA80F041F21021C2F203
:082E040000014009086070475D
:102E0C0041F21020C2F20000006800B162B67047B7
:102E1C0010B50446FFF7E8FF2046FFF75DFF0446B8
:082E2C00FFF7EEFF204610BD88
:102E340070B541F20426C2F200060C46326805461B
:102E44008AB11F2A16D841F26010C2F2000040F87D
:102E5400225041F2E000C2F2000040F82240501C2F
:102E64003060002070BD41F60750C0F20000FEF74C
:0C2E74007AFE08B1012070BD3268E2E770
:102E800070B582B004460078BFF35F8F08B10024AC
:102E900025E043F27001C0F2000101A8FEF78BFFAC
:102EA0006078810711D541F20825C2F2000541F290
:102EB0000C26C2F2000640F004006070284631463D
:102EC000FFF77AFE60788107F5D401281CBF022144
:102ED0006170441E18BF012401A800F003F82046C9
:042EE00002B070BD0F
:102EE40010B5044641F20C20C2F20000FFF762FE66
:102EF40008B9204610BD216842F68570C0F2000072
:042F0400FEF7FCFEDA
:102F080041F20020C2F200000068BFF35F8F7047F3
:042F1800FEF7D2BE30
:042F1C00FFF7FCBF00
:072F20006563686F6F6E002E
:102F27000902430002010080320904000001020285
:102F370001000524001001052401010104240202F7
:102F4700052406000107058103100001090401009B
:102F5700020A00000007058202400001070502027D
:032F670040000126
:102F6A002573206661696C656420746F20616371E2
:0B2F7A0075697265206D757465780044
:102F85002573206661696C656420746F2072656CB9
:0B2F950065617365206D757465780040
:102FA0002573206661696C656420746F2062726F9E
:072FB00061646361737400AA
:022FB700030015
:102FB9001201000200000040470502100001010251
:022FC900030102
:022FCB000D00F7
:102FCD006261645F66756E6374696F6E5F63616C79
:102FDD006C20776173207468726F776E20696E2034
:102FED002D666E6F2D657863657074696F6E7320D5
:052FFD006D6F6465002A
:1030020000000000000054545220524547474553E7
:0130120000BD
:093013005465726D696E616C0078
:10301C006261645F616C6C6F6320776173207468AC
:10302C00726F776E20696E202D666E6F2D657863DA
:0D303C00657074696F6E73206D6F646500C0
:04304C00F50000008B
:0430500081010000FA
:043054008D020000E9
:04305800ED02000085
:04305C00C515000096
:083060008B1D0000A11D000002
:083068006563686F6F66660086
:103070005F5F6378615F67756172645F61637175DB
:04308000697265000C
:103084005F5F6378615F67756172645F72656C65C9
:0430940061736500FF
:1030980000B506480649884205D00268043003B4E2
:1030A800904703BCF7E708BC184700004C30000005
:0430B800683000007C
:1030BC00D93100000000002066160000EB31000042
:1030CC0068160020E430000072010000F10D0000D1
:0830DC0099300000E70D00002F
:1030E400DD0881CC05820182CC02820382CC048279
:1030F4008582CC81828282CC838284829B0101017D
:103104008805020101020188020201030201880408
:103114000201850201888102018202018883020181
:103124008402019B03010389020305020188010251
:10313400010202018803020104020188850201815F
:10314400020188820201830201B884020105998088
:10315400068106B9820607B980080999810A010B1C
:1031640099820CA101F9210ABB0102992120A12114
:10317400C921224F19CC3D275127CC65277927CC6B
:103184008D27A127CCB527C927CCDD27F127CC056E
:10319400281928CC2D284128CC55286928CC7D28ED
:1031A4009128CCA528B928CCCD28E128CCF528092C
:1031B40029CC1D293129CC45295929CC6D298129AE
:1031C4004C9529141220441812201C1220BCA12052
:0431D40002020200F1
:1031D800206861680834002200E04254491EFCD58A
:0231E80070472E
:1031EA0020686168A2680C340B78491C08260025FF
:1031FA005B0801D20D78491C0570401C521E02D092
:08320A00761EF4D1F0E77047D5
:0400000300002BA12D
:00000001FF
