:10000000006000202FF000001B7A0000E173000068
:10001000277A00005F7A00006B7A00000000000081
:10002000000000000000000000000000E37A000073
:10003000F37A0000000000006B7B00008F7B000063
:1000400081B080B589B002910B9308900791069218
:100050000BA80590069804900598011D059100686D
:10006000039041F25700C2F200000078202800DB24
:1000700023E0029807F0CCFC014641F25700C2F29F
:1000800000000190007800EB400240F62810C2F218
:10009000000000EBC20000F015F8019A04980399E3
:1000A000137841F23412C2F2000252F8232007F012
:1000B000DCFE019908780130087009B0BDE8804085
:0400C00001B07047D4
:1000C40080B584B00390029103980190029807F0E0
:1000D400A3FC0146019800F003F8019804B080BD28
:1000E40080B584B00390029103980190002107F039
:1000F40099FC0298006918B901990020086116E07A
:100104000299086988420BD1019807F0A7FC01996C
:1001140008610298006909690268D268904706E09C
:100124000199029800690861029900200861019808
:0401340004B080BDD6
:0C0138000000000000000000410000007A
:1001440080B582B001900198009007F0C9FC009836
:0401540002B080BDB8
:1001580080B584B0039040F20040C2F2000000F580
:10016800A56002900298183801900146009100F0AD
:100178000BF80098019940F20042C2F20002914245
:080188000290EFD104B080BD2C
:1001900080B582B001900198009000F03FF800987F
:0401A00002B080BD6C
:1001A40081B080B587B001910993069005910492BE
:1001B40009A803900498029041F25700C2F200008B
:1001C4000078202800DB22E0019807F01FFC01469C
:1001D40041F25700C2F200000090007800EB4002A8
:1001E40040F62810C2F2000000EBC200FFF768FFDF
:1001F400009902980A7841F23411C2F2000151F8D0
:10020400221006F097FC009908780130087007B0B6
:08021400BDE8804001B0704715
:10021C0080B584B0029002990191039108698842DB
:10022C0005D10198006901680969884707E00198C0
:10023C00006920B1019800690168496988470398F1
:04024C0004B080BDBD
:0C0250000000000000000000A5010000FC
:10025C0080B584B0039040F20040C2F2000000F57B
:10026C00A560029002981838019001460091FFF7A2
:10027C0089FF0098019940F20042C2F200029142BB
:08028C000290EFD104B080BD27
:10029400F0B595B014901498049000F037F90498D0
:1002A400043001220392114607F0BCFD0499062094
:1002B400087546F2D463C0F200030CA90A4693E819
:1002C400F05082E8F050129113901298139900F0B4
:1002D4002DF903990246049882611C300A2207F022
:1002E400A1FD049803992C30642207F09BFD049827
:1002F40003993C304FF47A7207F094FD0498039903
:100304004C3042F2107207F08DFD049803995C3072
:1003140048F2A062C0F2010207F084FD0498039938
:100324006C3044F24022C0F20F0207F07BFD0499C6
:10033400002081F87C000120C1F2100007F0BEF813
:100344000020C4F203000290FF21009107F08BFC0F
:10035400029822210EF071FE00990298049A926884
:1003640007F057FD04980590059906A8019000F040
:10037400F3F80498009B0199029AFFF75FFE019835
:1003840000F0BAF8029803990EF06FFE02980399F0
:100394000EF067FE0399049880F87C1015B0F0BD48
:1003A40080B596B01590159804900430009000F034
:1003B40005FC04980D900D990EA8019000F00EFC18
:1003C400009801990022C4F205020392FFF7E8FEA7
:1003D400019800F091F804980590059906A80290F8
:1003E40000F00CFC02984FF4A061002208F0AEFA71
:1003F4000298FFF7CBFE0120C2F2100007F05EF86E
:1004040007F040FA3C2007F01FF8039840F2FF3150
:1004140000F004FC03980F2100F00AFC03984FF04D
:10042400FF3100F00FFC0398012100F015FC039844
:1004340040F60F61CFF6037100F018FC039800F04A
:080444001FFC049816B080BDF6
:10044C0080B582B041F24000C2F200000078C007D3
:10045C0030BB41F24001C2F200010120087040F6AD
:10046C002840C2F2000001900198009000F01AF8A8
:10047C00009800F11801084640F62842C2F200022A
:10048C0002F5347291420190EED140F2C540C0F2B7
:10049C00000040F20002C0F2000200210EF0C1FE8A
:0404AC0002B080BD5D
:1004B00080B582B001900198009009F02FFB009860
:0404C00002B080BD49
:1004C40080B584B0039040F62840C2F2000000F5E5
:1004D400347002900298183801900146009100F09F
:1004E4000BF80098019940F62842C2F200029142AA
:0804F4000290EFD104B080BDBD
:1004FC0080B582B001900198009001F071FF0098D6
:04050C0002B080BDFC
:1005100080B582B001900198009007F0C3FC00986C
:1005200040F23811C0F200010831016002B080BD14
:1005300080B586B00591049004A8019000F032F8CF
:1005400001460198029107F0BDFC014602989DF812
:0C0550000F2000F019F8006806B080BD14
:10055C0080B584B0039102900298019003A807F033
:10056C0017FD0146019807F02BFD019804B080BDE2
:0C057C0083B002900191009203B0704720
:1005880080B584B08DF80F200290019102980199EE
:0C0598000DF10F0207F0A0FC04B080BDC4
:0C05A40081B000900098006801B0704722
:1005B00080B582B001900198009007F029FD009865
:0405C00002B080BD48
:1005C40080B58AB008900791069208990491099120
:1005D40000200861079807F01FFDB0B106990DF1DE
:1005E4001700019007F01EFD079807F0D5FC01994C
:1005F40002900DF11600039007F02AFD0498029969
:10060400039A07F03BFD0498006109980AB080BD85
:1006140080B588B0079006910592079801900698D6
:1006240007F0BAFC07F096FE0390059807F09CFDCE
:1006340007F0ACFE014601980291039A029B9DF8D3
:0C064400131000F00DF8019808B080BD04
:1006500080B582B001900198009007F06BFE009881
:0406600002B080BDA7
:1006640080B58AB08DF827100892079306900698F3
:10067400009008A807F01EFF01460098096804913D
:10068400049A9DF80F309DF8171007F019FF07A87A
:1006940007F02CFF0146009809680291029A9DF820
:1006A40007309DF80E1000F053F800980AB080BD92
:1006B40080B584B08C46079906998DF80FC08DF8E3
:1006C4000E208DF80D308DF80C10029002980190D8
:1006D400079807F095FC0146019800F003F801988B
:0406E40004B080BD21
:1006E80080B584B00390029103980190029807F0B6
:0C06F80085FC01460198016004B080BD43
:1007040080B584B08C46079906998DF80FC08DF892
:100714000E208DF80D308DF80C1002900298019087
:10072400079807F0A3FE0146019800F003F801982A
:0407340004B080BDD0
:1007380080B584B00390029103980190029807F065
:0C07480093FE01460198016004B080BDE2
:1007540080B586B08DF8171004928DF80F30029092
:100764000298019004A800F013F807F0CBFE01985A
:0407740006B080BD8E
:1007780080B582B00190019800F002F802B080BD07
:0C07880081B000900098006801B070473C
:1007940080B582B00190019800F002F802B080BDEB
:0C07A40081B000900098006801B0704720
:1007B00080B582B00190019800F032F802B080BD9F
:1007C00080B584B00390029103980299019100F0E2
:1007D0002FF801460198884201D907F0F7FE0298E8
:0C07E000C000042107F0FAFE04B080BD48
:1007EC0080B584B003900291019203980090019817
:1007FC0007F00AFF0246009802A907F00BFF0098C9
:04080C0004B080BDF7
:1008100080B582B00190019800F03AF802B080BD36
:1008200080B582B00190019807F0CAFE02B080BD89
:1008300080B582B0019000F003F8C00802B080BD1E
:0808400080B507F0E3FE80BD66
:1008480081B00090009808284FF0000088BF012070
:0408580001B0704734
:10085C0080B582B0019000910198009907F04DFD90
:04086C0002B080BD99
:1008700080B582B00190019807F009FD02B080BDFB
:1008800080B582B00190019807F014FF02B080BDDE
:1008900080B582B00190019807F012FF02B080BDD0
:1008A00080B588B007900691059207980190069848
:1008B00007F00CFF0390059807F058FC07F068FD5F
:1008C000014601980291039A029B9DF8131000F0D3
:0808D00003F8019808B080BD97
:1008D80080B58AB08DF8271008920793069006987D
:1008E800009008A807F01CFF0146009809680491C9
:1008F800049A9DF80F309DF8171007F017FF07A806
:1009080007F0F2FD0146009809680291029A9DF8E5
:1009180007309DF80E10FFF719FF00980AB080BD48
:1009280080B584B08C46079906998DF80FC08DF86C
:100938000E208DF80D308DF80C1002900298019061
:10094800079807F0CDFE0146019800F003F80198DA
:0409580004B080BDAA
:10095C0080B584B00390029103980190029807F03F
:0C096C00BDFE01460198016004B080BD92
:1009780080B582B00190019800F002F802B080BD05
:0C09880081B000900098006801B070473A
:1009940080B582B00190019807F0E0FE02B080BDFE
:1009A40080B582B001900091019A00991068526854
:0809B40000F002F802B080BD62
:1009BC0080B584B003900291019203980299019A38
:0809CC0007F0FCFE04B080BD41
:1009D40080B584B003900291019203980299019A20
:0809E40000F00CF804B080BD26
:1009EC0080B582B0019000910198009900F00EF84A
:0409FC0002B080BD08
:100A000080B584B003900291019203980299019AF3
:080A100007F08DFC04B080BD6D
:100A180080B582B001900091019800990EF07DFC9C
:040A280002B080BDDB
:100A2C0080B584B00390029101920398009007F076
:100A3C0065FB009846F2F861C0F20001083140F8FD
:100A4C00041B0299019A00F003F8009804B080BDD1
:100A5C0080B588B00790069105920798019006988A
:100A6C0007F02EFE0390059807F0CEFE0146019884
:100A7C000291039A029B9DF8131000F003F8019861
:040A8C0008B080BD71
:100A900080B58AB08DF827100892079306900698C3
:100AA000009008A807F040FE0146009809680491EC
:100AB000049A9DF80F309DF8171007F03BFE07A829
:100AC00007F0D6FE0146009809680291029A9DF847
:100AD00007309DF80E1000F02BF800980AB080BD8A
:100AE00080B584B08C46079906998DF80FC08DF8B3
:100AF0000E208DF80D308DF80C10029002980190A8
:100B0000079807F095FE0146019800F003F8019858
:040B100004B080BDF0
:100B140080B584B00390029103980190029807F085
:0C0B240085FE01460198016004B080BD10
:100B300080B586B08DF8171004928DF80F300290B2
:100B40000298019004A800F005F807F071FE0198E2
:040B500006B080BDAE
:100B540080B582B00190019800F002F802B080BD27
:0C0B640081B000900098006801B070475C
:080B700081B0009001B0704754
:100B780080B582B00190019800F00EF800F002F8FC
:040B880002B080BD7A
:100B8C0080B582B00190019807F072FE00F00AF86F
:040B9C0002B080BD66
:100BA00080B582B00190019807F0CCFE02B080BD04
:100BB00080B582B00190019807F066FE02B080BD5A
:100BC00080B582B001900198009007F06BF9009811
:100BD00040F25021C0F200010831016002B080BD36
:100BE00080B584B0039102900298019003A807F0A9
:100BF000D1FE0146019807F0D3FE019804B080BDF4
:100C000080B584B0039102900298019003A808F087
:100C100005FC0146019808F007FC019804B080BD6E
:100C200080B582B0019000910198009901F0A4FB79
:040C300002B080BDD1
:100C340080B582B0019000910198009901F0A4FB65
:040C440002B080BDBD
:100C480080B582B0019000910198009901F0A4FB51
:040C580002B080BDA9
:100C5C0080B582B0019000910198009901F0A4FB3D
:040C6C0002B080BD95
:100C700080B582B0019000910198009901F0A4FB29
:040C800002B080BD81
:100C840080B582B00190019801F0A6FB02B080BD4E
:100C940080B582B001900198009007F09DFE009805
:040CA40002B080BD5D
:100CA80080B58AB008900791069208990491099135
:100CB80000200861079807F093FEB0B106990DF17E
:100CC8001700019007F092FE079807F05FFE019960
:100CD80002900DF11600039007F094FE0498029913
:100CE800039A07F09BFE0498006109980AB080BD3A
:100CF80080B588B0079006910592079801900698EC
:100D080007F044FE07F04CFF0390059807F0AEFE8D
:100D180007F054FF014601980291039A029B9DF83F
:0C0D2800131000F00DF8019808B080BD19
:100D340080B582B001900198009007F0F9FA00980C
:040D440002B080BDBC
:100D480080B58AB08DF82710089207930690069808
:100D5800009008A807F082FF0146009809680491EE
:100D6800049A9DF80F309DF8171007F07DFF07A82B
:100D780007F090FF0146009809680291029A9DF8D1
:100D880007309DF80E1000F053F800980AB080BDA7
:100D980080B584B08C46079906998DF80FC08DF8F8
:100DA8000E208DF80D308DF80C10029002980190ED
:100DB800079807F009FE0146019800F003F801982A
:040DC80004B080BD36
:100DCC0080B584B00390029103980190029807F0CB
:0C0DDC00F9FD01460198016004B080BDE3
:100DE80080B584B08C46079906998DF80FC08DF8A8
:100DF8000E208DF80D308DF80C100290029801909D
:100E0800079807F007FF0146019800F003F80198DA
:040E180004B080BDE5
:100E1C0080B584B00390029103980190029807F07A
:0C0E2C00F7FE01460198016004B080BD93
:100E380080B586B08DF8171004928DF80F300290A7
:100E48000298019004A800F013F807F02FFF01980A
:040E580006B080BDA3
:100E5C0080B582B00190019800F002F802B080BD1C
:0C0E6C0081B000900098006801B0704751
:100E780080B582B00190019800F002F802B080BD00
:0C0E880081B000900098006801B0704735
:100E940080B582B00190019800F032F802B080BDB4
:100EA40080B584B00390029103980299019100F0F7
:100EB4002FF801460198884201D907F085FB029872
:0C0EC400C000042107F088FB04B080BDD2
:100ED00080B584B00390029101920398009001982C
:100EE00007F04AFF0246009802A907F04BFF00985E
:040EF00004B080BD0D
:100EF40080B582B00190019800F01AF802B080BD6C
:100F040080B582B00190019807F02EFF02B080BD39
:100F140080B582B00190FFF791FCC00802B080BD9B
:100F240080B582B00190019807F074FF02B080BDD3
:100F340080B582B00190019807F072FF02B080BDC5
:100F440080B588B00790069105920798019006989D
:100F540007F06CFF0390059807F08AFD07F030FE58
:100F6400014601980291039A029B9DF8131000F028
:080F740003F8019808B080BDEC
:100F7C0080B58AB08DF827100892079306900698D2
:100F8C00009008A807F07CFF0146009809680491BE
:100F9C00049A9DF80F309DF8171007F077FF07A8FB
:100FAC0007F076FE0146009809680291029A9DF8B6
:100FBC0007309DF80E10FFF739FF00980AB080BD7E
:100FCC0080B584B08C46079906998DF80FC08DF8C2
:100FDC000E208DF80D308DF80C10029002980190B7
:100FEC00079807F02DFF0146019800F003F80198CF
:040FFC0004B080BD00
:1010000080B584B00390029103980190029807F094
:0C1010001DFF01460198016004B080BD86
:10101C0080B582B00190019800F002F802B080BD5A
:0C102C0081B000900098006801B070478F
:1010380080B582B00190019807F040FF02B080BDF2
:1010480080B582B001900091019A009910685268A9
:0810580000F002F802B080BDB7
:1010600080B584B003900291019203980299019A8D
:0810700007F05CFF04B080BD35
:1010780080B584B00390029101920398009007F024
:101088003FF8009846F24071C0F20001083140F87C
:10109800041B0299019A00F003F8009804B080BD7F
:1010A80080B588B007900691059207980190069838
:1010B80007F0BAFE0390059807F042FF0146019831
:1010C8000291039A029B9DF8131000F003F801980F
:0410D80008B080BD1F
:1010DC0080B58AB08DF82710089207930690069871
:1010EC00009008A807F0CCFE01460098096804910E
:1010FC00049A9DF80F309DF8171007F0C7FE07A84B
:10110C0007F04AFF0146009809680291029A9DF87F
:10111C0007309DF80E1000F02BF800980AB080BD37
:10112C0080B584B08C46079906998DF80FC08DF860
:10113C000E208DF80D308DF80C1002900298019055
:10114C00079807F009FF0146019800F003F8019891
:04115C0004B080BD9E
:1011600080B584B00390029103980190029807F033
:0C117000F9FE01460198016004B080BD4A
:10117C0080B586B08DF8171004928DF80F30029060
:10118C000298019004A800F005F807F0E5FE01981C
:04119C0006B080BD5C
:1011A00080B582B00190019800F002F802B080BDD5
:0C11B00081B000900098006801B070470A
:0811BC0081B0009001B0704702
:1011C40080B582B00190019800F00EF800F002F8AA
:0411D40002B080BD28
:1011D80080B582B00190019807F0E6FE00F00AF8A9
:0411E80002B080BD14
:1011EC0080B582B00190019808F0DEF802B080BDA5
:1011FC0080B582B00190019807F0DAFE02B080BD94
:10120C0080B582B00190019800F056F802B080BD14
:10121C0080B584B003900291039800909DF808006B
:10122C00C00778B10020C4F20500002107F0FEFED3
:10123C000190019830B1009B03F108000299019ACA
:10124C0000F042F8029807F003FF002004B080BDC4
:10125C0080B582B00190019800F070FD02B080BDA5
:10126C0084B002900191029800909DF80400400710
:10127C00002802D5012003901BE09DF80400800794
:10128C00002802D50320039013E09DF80400C0074A
:10129C0028B10099002008700220039009E09DF805
:1012AC0004000007002802D50820039001E000206C
:0812BC000390039804B0704791
:1012C40080B582B0019001980DF0ACFC02B080BDF5
:1012D40080B584B0039002910192009341F24802D8
:1012E400C2F200020020C4F20500002101AB07F0A5
:1012F400D3FE41F25000C2F20000807848B941F2B6
:101304004800C2F20000008841F25001C2F200011C
:10131400088041F25000C2F200000088009900F0F9
:0813240015F8002004B080BDA3
:10132C0080B582B0019000910198009905F0E2FE21
:04133C0002B080BDBE
:1013400081B08DF803009DF80300000101B07047E3
:1013500080B5AAB0ADF8A6002891BDF8A600014658
:10136000199108287BD0199881287BD01998822858
:1013700079D01998B0F5807F76D0199840F2011194
:10138000884200F088801998B0F5817F00F0848051
:10139000199840F2A111884200F012821998B0F514
:1013A000407F00F0A481199840F20131884200F09A
:1013B000C381199840F20231884200F0BE81199829
:1013C000B0F5A06F00F0BA811998B0F5D06F00F0B9
:1013D000D181199840F28161884200F0D781199833
:1013E00040F28261884200F0D2811998B0F5E06F36
:1013F00000F0CE811998B0F5086F00F0CA811998F5
:10140000B0F5106F00F0C681199840F6212188428E
:1014100000F0D781199840F68121884200F0CD81F3
:10142000199840F60131884200F0C881199840F6B9
:101430008241884200F0C381199842F2210188421A
:1014400000F0C081199842F2A111884200F0EF81AA
:10145000199842F22121884200F00C8220E207F024
:1014600033FE25E21CE21BE241F24800C2F200001A
:101470008078012807D10020C4F205000021012254
:1014800007F03EFE06E00020C4F2050000221146EF
:1014900007F04EFE0CE203E241F24800C2F2000007
:1014A000408838B10020C4F205000022114607F040
:1014B0003FFEFDE141F24800C2F200000079014622
:1014C0001891012800F0E680189802283FD018985B
:1014D000812807D01898822871D01898832800F0A6
:1014E000A780FCE00020C4F20500179001211691AE
:1014F0004FF40052149207F02FFE149A1798169981
:1015000007F03EFE169800F0E3F9002015908DF8E4
:1015100098008DF899008DF89A008DF89B008DF851
:101520009C008DF89D008DF89E008DF89F0041F283
:101530003803C2F200034FF48170812126AA07F01C
:1015400033FE1599169A179807F0DAFDCEE00020C1
:10155000C4F205001190022112910022139207F0AB
:10156000FBFD11981299139A07F00AFE129800F0E9
:10157000AFF9129913988DF890008DF891008DF8BD
:1015800092008DF893008DF894008DF895008DF8F9
:1015900096008DF8970041F23803C2F200034FF431
:1015A000817024AA07F000FE13991198012207F018
:1015B000A7FD11981299139A07F0A2FD96E0022058
:1015C0000D9000F085F90D990020C4F205000F90F0
:1015D0004FF400520E9207F0D3FD002010908DF8CA
:1015E00088008DF889008DF88A008DF88B008DF8C1
:1015F0008C008DF88D008DF88E008DF88F0041F2F3
:101600003803C2F200034FF48170822122AA07F04E
:10161000CBFD0D990E9A0F9807F09EFD40F68C2099
:1016200006F011FB0F981099012207F069FD5DE0AB
:101630000020C4F205000C90032109914FF40052E0
:101640000A9207F089FD09990A9A0C9807F098FD0B
:1016500000200B908DF880008DF881008DF88200BD
:101660008DF883008DF884008DF885008DF8860054
:101670008DF8870041F23803C2F200034FF4817005
:10168000832120AA07F090FD0B990C98012207F006
:1016900037FD2BE0002007908DF878008DF8790059
:1016A0008DF87A008DF87B008DF87C008DF87D0038
:1016B0008DF87E008DF87F0041F23803C2F20003FE
:1016C0004FF48170012108911EAA07F06DFD079962
:1016D000089A0020C4F2050007F012FD06E0002081
:1016E000C4F205000022114607F022FDE0E041F2BD
:1016F0004800C2F20000807801460691012803D01C
:101700000698022808D00FE00020C4F2050000214E
:10171000012207F0F5FC0EE00020C4F205000022D3
:10172000114607F005FD06E00020C4F20500002286
:10173000114607F0FDFCBBE0B2E0B1E000210591ED
:101740008DF870108DF871108DF872108DF873107F
:101750008DF874108DF875108DF876108DF877105F
:1017600041F23803C2F200034FF4A0601CAA07F054
:101770001BFD9DE041F24801C2F200018A78C87861
:10178000897900F0BBF800B98AE091E088E087E051
:1017900086E085E0289B41F24802C2F200024FF445
:1017A00010600021049107F0FFFC04990020C4F2AE
:1017B000050001220DF0CAFA7AE071E070E06FE0F6
:1017C0006EE075E041F25000C2F20000807898B9F6
:1017D00041F25001C2F200010120887041F248003C
:1017E000C2F20000C08888800020C4F205000022F8
:1017F000114607F085FC19E041F25000C2F20000EA
:101800000290031D41F24802C2F2000242F221009E
:101810000021039107F0C8FC03990020C4F20500E1
:10182000012207F06DFC02990398887040E00021C6
:1018300001918DF868108DF869108DF86A108DF897
:101840006B108DF86C108DF86D108DF86E108DF892
:101850006F1041F23803C2F2000342F2A1101AAA3B
:1018600007F0A2FC01990020C4F20500012207F054
:1018700047FC1DE041F24802C2F2000241F2380387
:10188000C2F2000342F221200021009107F08CFCFB
:1018900000990020C4F20500012207F031FC07E0A6
:1018A0000020C4F2050000214FF4005207F040FC74
:0418B0002AB080BD1D
:1018B40080B584B003900291019200930398029939
:0C18C400019A009B05F07EFC04B080BD82
:1018D00080B584B08DF80F009DF80F100020C4F281
:1018E0000500019007F0BAFC0146019802919DF8AD
:0C18F0000F10029A07F0C4FC04B080BD89
:1018FC0080B584B08DF80E00ADF80C108DF80B206F
:10190C009DF80E0001380146019107282FD8019946
:10191C00DFE801F0041120292A2B2C2D9DF80C2036
:10192C0048F24630C0F20000122100F021F90120EB
:10193C008DF80F001EE04321ADF808109DF80C2027
:10194C004FF25230C0F2000000F012F901208DF875
:10195C000F000FE09DF80B009DF80C1000F082F9C1
:10196C008DF80F0006E002E001E000E0FFE7002048
:0C197C008DF80F009DF80F0004B080BD36
:1019880080B586B005908DF813108DF812209DF85B
:1019980013009DF81210884203DD9DF81200019093
:1019A80002E09DF81300019001988DF81100059848
:1019B80003909DF81100402835DB40208DF80B007E
:1019C800039A9DF80B300020C4F20500002107F0AF
:1019D80017FC013000B9F3E79DF8110058B9002051
:1019E800C4F2050000214FF4817207F01FFC01309A
:1019F80000B9F4E717E00020C4F2050000214FF415
:101A0800817207F013FC013000B9F4E79DF80B1060
:101A18009DF81100401A8DF811009DF80B100398DD
:101A280008440390C5E7039A9DF811300020C4F2DA
:101A38000500002107F0E4FB013000B9F3E70020BE
:101A4800C4F2050000214FF4857207F0EFFB013066
:081A580000B9F4E706B080BDFF
:101A600080B584B003900291019203980299019A83
:081A70000DF04AFA04B080BD3C
:101A780080B584B003900291019200930398029973
:0C1A8800019A009B0DF0C2F904B080BD73
:101A940080B584B0039002918DF8072003980299D1
:101AA4009DF8072002F001020DF04EF904B080BD4C
:101AB40080B584B003900291019203980299019A2F
:081AC40005F040F904B080BDFB
:101ACC0080B584B003900291019203980299019A17
:081ADC0005F0AEF904B080BD75
:101AE40080B584B003900291019203980299019AFF
:081AF40005F0C6F804B080BD46
:101AFC0080B582B001900091019800990DF0ACF87E
:041B0C0002B080BDE6
:101B100080B584B003900291019203980299019AD2
:081B200005F026F804B080BDB9
:101B280080B584B00390029100208DF807009DF8DD
:101B38000700362812D802989DF8071007F0C6FB50
:101B480000680399884203D19DF8070004B080BD5E
:101B58009DF8070001308DF80700E8E700F008F865
:101B680080B582B00190019807F0BAFB02B080BD41
:041B780000F000F881
:101B7C0080B5B0B02F908DF8BB108DF8BA209DF8C1
:101B8C00BB00462802D101208DF8B9009DF8BB009E
:101B9C009DF8BA10884203DD9DF8BA00019002E06E
:101BAC009DF8BB00019001988DF8B8002F982D90EE
:101BBC002F999DF8BB200DF10A0005F0F5FE9DF85C
:101BCC00B800402835DB40208DF809002D9A9DF88F
:101BDC0009300020C4F20500002107F00FFB013092
:101BEC0000B9F3E79DF8B80058B90020C4F205001D
:101BFC0000214FF4817207F017FB013000B9F4E7B4
:101C0C0017E00020C4F2050000214FF4817207F0A8
:101C1C000BFB013000B9F4E79DF809109DF8B800F2
:101C2C00401A8DF8B8009DF809102D9808442D9095
:101C3C00C5E72D9A9DF8B8300020C4F205000021AC
:101C4C0007F0DCFA013000B9F3E70020C4F205001C
:101C5C0000214FF4857207F0E7FA013000B9F4E780
:041C6C0030B080BD57
:101C700080B582B08DF806008DF805109DF806003D
:101C800001460091032838D80099DFE801F0020FDF
:101C90001C299DF805204EF6EE70C0F200001021C0
:101CA000FFF76CFF01208DF8070029E09DF8052063
:101CB0004EF6FE70C0F200001021FFF75FFF01201A
:101CC0008DF807001CE09DF805204FF20E00C0F2D1
:101CD00000001021FFF752FF01208DF807000FE0F0
:101CE0009DF805204FF21E00C0F200001021FFF702
:101CF00045FF01208DF8070002E000208DF8070065
:081D00009DF8070002B080BD50
:101D080080B582B00190019807F046FB02B080BD13
:101D180080B582B00190019800F002F802B080BD51
:101D280080B582B0019001980090006908B907F069
:101D38000BFB0098006901688969884702B080BD7B
:101D480080B582B00190019804F0B8FE02B080BD61
:101D580080B584B00390029103980190029807F02F
:101D680031FB0146019800F003F8019804B080BDEA
:101D780080B584B00390029103980190002107F088
:101D880027FB0298006918B901990020086116E03C
:101D98000299086988420BD1019807F035FB01992F
:101DA80008610298006909690268D268904706E0EC
:101DB8000199029800690861029900200861019858
:041DC80004B080BD26
:101DCC0080B582B001900198009007F045FB009817
:041DDC0002B080BD14
:101DE00080B58AB0089007910692089904910991EC
:101DF00000200861079807F03BFBB0B106990DF190
:101E00001700019007F03AFB079807F007FB0199CC
:101E100002900DF11600039007F03CFB0498029924
:101E2000039A07F043FB0498006109980AB080BD4B
:101E300080B588B0079006910592079801900698A2
:101E400007F0ECFA07F000FC0390059807F062FB3E
:101E500007F008FC014601980291039A029B9DF845
:0C1E6000131000F023F8019808B080BDBA
:101E6C0080B582B001900198009007F0DDFB0098DE
:041E7C0002B080BD73
:101E800080B586B0059004910392059804300290C5
:101E9000049807F051FA0190039807F053FA01995A
:0C1EA0000246029807F0D4FD06B080BD99
:101EAC0080B58AB08DF82710089207930690069893
:101EBC00009008A807F020FC0146009809680491DE
:101ECC00049A9DF80F309DF8171007F01BFC07A81B
:101EDC0007F02EFC0146009809680291029A9DF8C1
:101EEC0007309DF80E1000F053F800980AB080BD32
:101EFC0080B584B08C46079906998DF80FC08DF883
:101F0C000E208DF80D308DF80C1002900298019077
:101F1C00079807F09BFA0146019800F003F8019826
:041F2C0004B080BDC0
:101F300080B584B00390029103980190029807F055
:0C1F40008BFA01460198016004B080BDDE
:101F4C0080B584B08C46079906998DF80FC08DF832
:101F5C000E208DF80D308DF80C1002900298019027
:101F6C00079807F0A5FB0146019800F003F80198CB
:041F7C0004B080BD70
:101F800080B584B00390029103980190029807F005
:0C1F900095FB01460198016004B080BD83
:101F9C0080B586B08DF8171004928DF80F30029032
:101FAC000298019004A800F013F807F0CDFB0198FB
:041FBC0006B080BD2E
:101FC00080B582B00190019800F002F802B080BDA7
:0C1FD00081B000900098006801B07047DC
:101FDC0080B582B00190019800F002F802B080BD8B
:0C1FEC0081B000900098006801B07047C0
:101FF80080B582B00190019800F032F802B080BD3F
:1020080080B584B00390029103980299019100F081
:102018002FF801460198884201D906F0D3FA0298B0
:0C202800C000042106F0D6FA04B080BD10
:1020340080B584B0039002910192039800900198B6
:1020440007F0E8FB0246009802A907F0E9FB0098B4
:0420540004B080BD97
:1020580080B582B00190019800F01AF802B080BDF6
:1020680080B582B00190019807F0CCFB02B080BD2A
:1020780080B582B00190FEF7DFFBC00802B080BDDA
:1020880080B582B00190019807F012FC02B080BDC3
:1020980080B582B00190019807F010FC02B080BDB5
:1020A80080B588B007900691059207980190069828
:1020B80007F00AFC0390059807F028FA07F0CEFA13
:1020C800014601980291039A029B9DF8131000F0B3
:0820D80003F8019808B080BD77
:1020E00080B58AB08DF8271008920793069006985D
:1020F000009008A807F01AFC0146009809680491AE
:10210000049A9DF80F309DF8171007F015FC07A8EA
:1021100007F014FB0146009809680291029A9DF8A5
:1021200007309DF80E10FFF739FF00980AB080BD08
:1021300080B584B08C46079906998DF80FC08DF84C
:102140000E208DF80D308DF80C1002900298019041
:10215000079807F0CBFB0146019800F003F80198BF
:0421600004B080BD8A
:1021640080B584B00390029103980190029807F01F
:0C217400BBFB01460198016004B080BD77
:1021800080B582B00190019800F002F802B080BDE5
:0C21900081B000900098006801B070471A
:10219C0080B582B00190019807F0DEFB02B080BDE3
:1021AC0080B582B001900091019A00991068526834
:0821BC0000F002F802B080BD42
:1021C40080B584B003900291019203980299019A18
:0821D40007F0FAFB04B080BD26
:1021DC0080B584B00390029101920398009007F0AF
:1021EC0087F9009846F26471C0F20001083140F89A
:1021FC00041B0299019A00F003F8009804B080BD0A
:10220C0080B588B0079006910592079801900698C2
:10221C0007F058FB0390059807F0E0FB0146019886
:10222C000291039A029B9DF8131000F003F8019899
:04223C0008B080BDA9
:1022400080B58AB08DF827100892079306900698FB
:10225000009008A807F06AFB0146009809680491FD
:10226000049A9DF80F309DF8171007F065FB07A83A
:1022700007F0E8FB0146009809680291029A9DF870
:1022800007309DF80E1000F02BF800980AB080BDC2
:1022900080B584B08C46079906998DF80FC08DF8EB
:1022A0000E208DF80D308DF80C10029002980190E0
:1022B000079807F0A7FB0146019800F003F8019882
:0422C00004B080BD29
:1022C40080B584B00390029103980190029807F0BE
:0C22D40097FB01460198016004B080BD3A
:1022E00080B586B08DF8171004928DF80F300290EB
:1022F0000298019004A800F005F807F083FB01980C
:0423000006B080BDE6
:1023040080B582B00190019800F002F802B080BD5F
:0C23140081B000900098006801B0704794
:0823200081B0009001B070478C
:1023280080B582B00190019807F0EEFB02B080BD45
:1023380080B584B003900291019203980299019AA2
:0823480007F0B8FB04B080BDF2
:1023500080B582B0019000910198009900F002F8D8
:0423600002B080BD8A
:1023640080B582B001900091019800990CF0D4FCE2
:0423740002B080BD76
:1023780080B582B0019000910198009904F02AFB81
:0423880002B080BD62
:10238C0080B582B0019000910198009904F05AFB3D
:04239C0002B080BD4E
:1023A00080B582B001900091019800990CF0F8FB83
:0423B00002B080BD3A
:1023B40080B582B001900091019800990CF010FC56
:0423C40002B080BD26
:1023C80080B582B001900091019800990CF08CFBC7
:0423D80002B080BD12
:1023DC0080B582B00190019804F0B6FD02B080BDCA
:1023EC0080B584B0029002990191039108698842EA
:1023FC0005D10198006901680969884707E00198CF
:10240C00006920B1019800690168496988470398FF
:04241C0004B080BDCB
:0C24200081B0009000980C3001B07047B3
:10242C0081B0009000984FF40061A0F800180021D2
:10243C00C0F8041840F2FF71C0F80818C0F80C1866
:04244C0001B0704724
:1024500080B584B0039102900298019003A807F020
:1024600087FB0146019807F089FB019804B080BD05
:1024700080B582B001900198009000F0D9FB0098DF
:0424800002B080BD69
:1024840070B591B08DF8430046F2F472C0F20002C8
:1024940068460146B2E83850A1E83850B2E83850EE
:1024A400A1E8385092E8785081E878509DF84310BC
:0824B40050F8210011B070BDC9
:1024BC0080B584B0039102900298019003A807F0B4
:1024CC00F7FE0146019807F0F9FE019804B080BDB3
:1024DC0080B584B0039102900298019003A808F093
:1024EC0083FA0146019808F085FA019804B080BD82
:1024FC0080B584B0039102900298019003A808F073
:10250C00B7FD0146019808F0B9FD019804B080BDF3
:10251C0080B584B0039102900298019003A809F051
:10252C00EDF80146019809F0EFF8019804B080BD70
:10253C0080B584B0039102900298019003A809F031
:10254C002BFC0146019809F02DFC019804B080BDCC
:10255C0080B584B0039102900298019003A809F011
:10256C006FFF0146019809F071FF019804B080BD1E
:10257C0080B584B0039102900298019003A80AF0F0
:10258C009FFA014601980AF0A1FA019804B080BDA7
:10259C0080B584B0039102900298019003A80AF0D0
:1025AC003BFE014601980AF03DFE019804B080BD47
:1025BC0080B584B0039102900298019003A80BF0AF
:1025CC006BF9014601980BF06DF9019804B080BDD0
:1025DC0080B584B0039102900298019003A80BF08F
:1025EC009BFC014601980BF09DFC019804B080BD4A
:1025FC0080B582B001900198009007F0D7FA00984E
:04260C0002B080BDDB
:1026100080B58AB0089007910692089904910991B3
:1026200000200861079807F0CDFAB0B106990DF1C6
:102630001700019007F0CCFA079807F099FA019972
:1026400002900DF11600039007F0CEFA049802995B
:10265000039A07F0D5FA0498006109980AB080BD82
:1026600080B588B00790069105920798019006986A
:1026700007F07EFA07F092FB0390059807F0F4FA52
:1026800007F09AFB014601980291039A029B9DF87C
:0C269000131000F01DF8019808B080BD88
:10269C0080B582B001900198009007F06FFB009814
:0426AC0002B080BD3B
:1026B00080B584B003900291039804300190029891
:1026C00007F082FD0146019807F06CFD04B080BD63
:1026D00080B58AB08DF82710089207930690069867
:1026E000009008A807F0B8FB01460098096804911B
:1026F000049A9DF80F309DF8171007F0B3FB07A858
:1027000007F0C6FB0146009809680291029A9DF8FD
:1027100007309DF80E1000F053F800980AB080BD05
:1027200080B584B08C46079906998DF80FC08DF856
:102730000E208DF80D308DF80C100290029801904B
:10274000079807F033FA0146019800F003F8019862
:0427500004B080BD94
:1027540080B584B00390029103980190029807F029
:0C27640023FA01460198016004B080BD1A
:1027700080B584B08C46079906998DF80FC08DF806
:102780000E208DF80D308DF80C10029002980190FB
:10279000079807F03DFB0146019800F003F8019807
:0427A00004B080BD44
:1027A40080B584B00390029103980190029807F0D9
:0C27B4002DFB01460198016004B080BDBF
:1027C00080B586B08DF8171004928DF80F30029006
:1027D0000298019004A800F013F807F065FB019837
:0427E00006B080BD02
:1027E40080B582B00190019800F002F802B080BD7B
:0C27F40081B000900098006801B07047B0
:1028000080B582B00190019800F002F802B080BD5E
:0C28100081B000900098006801B0704793
:10281C0080B582B00190019800F032F802B080BD12
:10282C0080B584B00390029103980299019100F055
:10283C002FF801460198884201D905F0C1FE029893
:0C284C00C000042105F0C4FE04B080BDF3
:1028580080B584B00390029101920398009001988A
:1028680007F080FB0246009802A907F081FB009858
:0428780004B080BD6B
:10287C0080B582B00190019800F01AF802B080BDCA
:10288C0080B582B00190019807F064FB02B080BD66
:10289C0080B582B00190FDF7CDFFC00802B080BDBD
:1028AC0080B582B00190019807F0AAFB02B080BD00
:1028BC0080B582B00190019807F0A8FB02B080BDF2
:1028CC0080B588B0079006910592079801900698FC
:1028DC0007F0A2FB0390059807F0C0F907F066FA21
:1028EC00014601980291039A029B9DF8131000F087
:0828FC0003F8019808B080BD4B
:1029040080B58AB08DF82710089207930690069830
:10291400009008A807F0B2FB0146009809680491EA
:10292400049A9DF80F309DF8171007F0ADFB07A827
:1029340007F0ACFA0146009809680291029A9DF8E2
:1029440007309DF80E10FFF739FF00980AB080BDDC
:1029540080B584B08C46079906998DF80FC08DF820
:102964000E208DF80D308DF80C1002900298019015
:10297400079807F063FB0146019800F003F80198FB
:0429840004B080BD5E
:1029880080B584B00390029103980190029807F0F3
:0C29980053FB01460198016004B080BDB3
:1029A40080B582B00190019800F002F802B080BDB9
:0C29B40081B000900098006801B07047EE
:1029C00080B582B00190019807F076FB02B080BD1F
:1029D00080B582B001900091019A00991068526808
:0829E00000F002F802B080BD16
:1029E80080B584B003900291019203980299019AEC
:0829F80007F092FB04B080BD62
:102A000080B584B00390029101920398009007F082
:102A10001FF9009846F2AC71C0F20001083140F88D
:102A2000041B0299019A00F003F8009804B080BDDD
:102A300080B588B007900691059207980190069896
:102A400007F0F0FA0390059807F078FB014601982B
:102A50000291039A029B9DF8131000F003F801986D
:042A600008B080BD7D
:102A640080B58AB08DF827100892079306900698CF
:102A7400009008A807F002FB014600980968049139
:102A8400049A9DF80F309DF8171007F0FDFA07A877
:102A940007F080FB0146009809680291029A9DF8AC
:102AA40007309DF80E1000F02BF800980AB080BD96
:102AB40080B584B08C46079906998DF80FC08DF8BF
:102AC4000E208DF80D308DF80C10029002980190B4
:102AD400079807F03FFB0146019800F003F80198BE
:042AE40004B080BDFD
:102AE80080B584B00390029103980190029807F092
:0C2AF8002FFB01460198016004B080BD76
:102B040080B586B08DF8171004928DF80F300290BE
:102B14000298019004A800F005F807F01BFB019847
:042B240006B080BDBA
:102B280080B582B00190019800F002F802B080BD33
:0C2B380081B000900098006801B0704768
:082B440081B0009001B0704760
:102B4C0080B582B00190019807F072FB02B080BD95
:102B5C0083B002908DF8071002990091D1F8080803
:102B6C000130C1F80808B1F80018884203D3009965
:102B7C000020C1F8080800989DF80710D0F8082824
:102B8C008154D0F80818D0F80C0888420ED100995E
:102B9C00D1F80C080130C1F80C08B1F800188842C3
:102BAC0003D300990020C1F80C0805E00099D1F876
:0C2BBC0004080130C1F8040803B07047A1
:102BC80080B584B00390029103980190029900F0B7
:082BD80003F8019804B080BD70
:102BE00080B584B002900191029800900390019802
:102BF000006918B900990020086116E00199086978
:102C000088420BD1009807F01FFB009908610198DA
:102C1000006909690268D268904706E00198006976
:102C200001688968884700990861039804B080BDED
:102C300080B584B00290029901910391086988429D
:102C400005D10198006901680969884707E0019882
:102C5000006920B1019800690168496988470398B3
:042C600004B080BD7F
:102C640080B584B00390029103980190029900F01A
:082C74000DF8019804B080BDC9
:102C7C0080B582B0019000910198009900F02AF87B
:042C8C0002B080BD55
:102C900080B584B002900191029800900390019851
:102CA000006918B900990020086116E001990869C7
:102CB00088420BD1009804F0D3FE00990861019876
:102CC000006909690268D268904706E001980069C6
:102CD00001688968884700990861039804B080BD3D
:102CE00080B58EB00D900C910D9906910C9888428C
:102CF00000D187E006990869884242D10C99086999
:102D000088423ED108A804F0ABFE01460698079120
:102D1000006907990268D2689047069800690168BF
:102D20000969884706980021049101610C99096995
:102D3000039104F095FE014603980268D26890471B
:102D40000C980069016809698847049906980C9AEB
:102D5000116104F085FE06990861079805900C98AA
:102D600004F07EFE014605980268D26890470798F5
:102D70000168096988470C9804F072FE0C99086193
:102D800040E006990869884219D1069800690290C6
:102D90000C9804F065FE014602980268D2689047DC
:102DA0000698006901680969884706990C980069C6
:102DB00008610C9804F054FE0C99086122E00C990B
:102DC0000869884218D106980C990969019104F0A4
:102DD00047FE014601980268D26890470C98006946
:102DE000016809698847069801690C9A116104F025
:102DF00037FE0699086105E0069810300C991031ED
:082E000007F03EFA0EB080BDA0
:102E080080B582B001900198009007F077FA009899
:042E180002B080BDC7
:102E1C0080B58AB00890079106920899049109919F
:102E2C0000200861079807F06DFAB0B106990DF112
:102E3C001700019007F06CFA079807F039FA01991E
:102E4C0002900DF11600039007F06EFA04980299A7
:102E5C00039A07F075FA0498006109980AB080BDCE
:102E6C0080B588B007900691059207980190069856
:102E7C0007F01EFA07F026FB0390059807F088FA76
:102E8C0007F02EFB014601980291039A029B9DF8D4
:0C2E9C00131000F00DF8019808B080BD84
:102EA80080B582B001900198009005F03FFA009833
:042EB80002B080BD27
:102EBC0080B58AB08DF82710089207930690069873
:102ECC00009008A807F05CFB014600980968049183
:102EDC00049A9DF80F309DF8171007F057FB07A8C0
:102EEC0007F06AFB0146009809680291029A9DF866
:102EFC0007309DF80E1000F053F800980AB080BD12
:102F0C0080B584B08C46079906998DF80FC08DF862
:102F1C000E208DF80D308DF80C1002900298019057
:102F2C00079807F0E3F90146019800F003F80198BF
:042F3C0004B080BDA0
:102F400080B584B00390029103980190029807F035
:0C2F5000D3F901460198016004B080BD77
:102F5C0080B584B08C46079906998DF80FC08DF812
:102F6C000E208DF80D308DF80C1002900298019007
:102F7C00079807F0E1FA0146019800F003F8019870
:042F8C0004B080BD50
:102F900080B584B00390029103980190029807F0E5
:0C2FA000D1FA01460198016004B080BD28
:102FAC0080B586B08DF8171004928DF80F30029012
:102FBC000298019004A800F013F807F009FB01989F
:042FCC0006B080BD0E
:102FD00080B582B00190019800F002F802B080BD87
:0C2FE00081B000900098006801B07047BC
:102FEC0080B582B00190019800F002F802B080BD6B
:0C2FFC0081B000900098006801B07047A0
:1030080080B582B00190019800F032F802B080BD1E
:1030180080B584B00390029103980299019100F061
:103028002FF801460198884201D905F0CBFA029899
:0C303800C000042105F0CEFA04B080BDF9
:1030440080B584B003900291019203980090019896
:1030540007F024FB0246009802A907F025FB00981C
:0430640004B080BD77
:1030680080B582B00190019800F01AF802B080BDD6
:1030780080B582B00190019807F008FB02B080BDCE
:1030880080B582B00190FDF7D7FBC00802B080BDC3
:1030980080B582B00190019807F04EFB02B080BD68
:1030A80080B582B00190019807F04CFB02B080BD5A
:1030B80080B588B007900691059207980190069808
:1030C80007F046FB0390059807F064F907F00AFA41
:1030D800014601980291039A029B9DF8131000F093
:0830E80003F8019808B080BD57
:1030F00080B58AB08DF8271008920793069006983D
:10310000009008A807F056FB014600980968049152
:10311000049A9DF80F309DF8171007F051FB07A88F
:1031200007F050FA0146009809680291029A9DF84A
:1031300007309DF80E10FFF739FF00980AB080BDE8
:1031400080B584B08C46079906998DF80FC08DF82C
:103150000E208DF80D308DF80C1002900298019021
:10316000079807F007FB0146019800F003F8019863
:0431700004B080BD6A
:1031740080B584B00390029103980190029807F0FF
:0C318400F7FA01460198016004B080BD1C
:1031900080B582B00190019800F002F802B080BDC5
:0C31A00081B000900098006801B07047FA
:1031AC0080B582B00190019807F01AFB02B080BD87
:1031BC0080B582B001900091019A00991068526814
:0831CC0000F002F802B080BD22
:1031D40080B584B003900291019203980299019AF8
:0831E40007F036FB04B080BDCA
:1031EC0080B584B00390029101920398009004F092
:1031FC0085FF009846F63401C0F20001083140F812
:10320C00041B0299019A00F003F8009804B080BDE9
:10321C0080B588B0079006910592079801900698A2
:10322C0007F094FA0390059807F01CFB01460198EF
:10323C000291039A029B9DF8131000F003F8019879
:04324C0008B080BD89
:1032500080B58AB08DF827100892079306900698DB
:10326000009008A807F0A6FA0146009809680491A2
:10327000049A9DF80F309DF8171007F0A1FA07A8DF
:1032800007F024FB0146009809680291029A9DF814
:1032900007309DF80E1000F02BF800980AB080BDA2
:1032A00080B584B08C46079906998DF80FC08DF8CB
:1032B0000E208DF80D308DF80C10029002980190C0
:1032C000079807F0E3FA0146019800F003F8019827
:0432D00004B080BD09
:1032D40080B584B00390029103980190029807F09E
:0C32E400D3FA01460198016004B080BDDF
:1032F00080B586B08DF8171004928DF80F300290CB
:103300000298019004A800F005F807F0BFFA0198B0
:0433100006B080BDC6
:1033140080B582B00190019800F002F802B080BD3F
:0C33240081B000900098006801B0704774
:0833300081B0009001B070476C
:1033380080B582B00190019800F00EF800F002F814
:0433480002B080BD92
:10334C0080B582B00190019807F0C0FA00F00AF83D
:04335C0002B080BD7E
:1033600080B582B00190019807F03EFB02B080BDAD
:1033700080B582B00190019807F0B4FA02B080BD28
:1033800080B582B001900198009007F057FB00983B
:0433900002B080BD4A
:1033940080B58AB008900791069208990491099122
:1033A40000200861079807F04DFBB0B106990DF1B4
:1033B4001700019007F04CFB079807F019FB0199DF
:1033C40002900DF11600039007F04EFB0498029949
:1033D400039A07F055FB0498006109980AB080BD70
:1033E40080B588B0079006910592079801900698D9
:1033F40007F0FEFA07F006FC0390059807F068FB57
:1034040007F00EFC014601980291039A029B9DF875
:0C341400131000F00DF8019808B080BD06
:1034200080B582B001900198009004F083FF00986D
:0434300002B080BDA9
:1034340080B58AB08DF827100892079306900698F5
:10344400009008A807F03CFC014600980968049124
:10345400049A9DF80F309DF8171007F037FC07A861
:1034640007F04AFC0146009809680291029A9DF807
:1034740007309DF80E1000F053F800980AB080BD94
:1034840080B584B08C46079906998DF80FC08DF8E5
:103494000E208DF80D308DF80C10029002980190DA
:1034A400079807F0C3FA0146019800F003F8019861
:0434B40004B080BD23
:1034B80080B584B00390029103980190029807F0B8
:0C34C800B3FA01460198016004B080BD19
:1034D40080B584B08C46079906998DF80FC08DF895
:1034E4000E208DF80D308DF80C100290029801908A
:1034F400079807F0C1FB0146019800F003F8019812
:0435040004B080BDD2
:1035080080B584B00390029103980190029807F067
:0C351800B1FB01460198016004B080BDC9
:1035240080B586B08DF8171004928DF80F30029094
:103534000298019004A800F013F807F0E9FB019841
:0435440006B080BD90
:1035480080B582B00190019800F002F802B080BD09
:0C35580081B000900098006801B070473E
:1035640080B582B00190019800F002F802B080BDED
:0C35740081B000900098006801B0704722
:1035800080B582B00190019800F032F802B080BDA1
:1035900080B584B00390029103980299019100F0E4
:1035A0002FF801460198884201D905F00FF80298DA
:0C35B000C000042105F012F804B080BD3A
:1035BC0080B584B003900291019203980090019819
:1035CC0007F004FC0246009802A907F005FC0098DD
:0435DC0004B080BDFA
:1035E00080B582B00190019800F01AF802B080BD59
:1035F00080B582B00190019807F0E8FB02B080BD71
:1036000080B582B00190FDF71BF9C00802B080BD03
:1036100080B582B00190019807F02EFC02B080BD09
:1036200080B582B00190019807F02CFC02B080BDFB
:1036300080B588B00790069105920798019006988A
:1036400007F026FC0390059807F044FA07F0EAFA21
:10365000014601980291039A029B9DF8131000F015
:0836600003F8019808B080BDD9
:1036680080B58AB08DF827100892079306900698BF
:10367800009008A807F036FC0146009809680491F4
:10368800049A9DF80F309DF8171007F031FC07A831
:1036980007F030FB0146009809680291029A9DF8EC
:1036A80007309DF80E10FFF739FF00980AB080BD6B
:1036B80080B584B08C46079906998DF80FC08DF8AF
:1036C8000E208DF80D308DF80C10029002980190A4
:1036D800079807F0E7FB0146019800F003F8019806
:0436E80004B080BDED
:1036EC0080B584B00390029103980190029807F082
:0C36FC00D7FB01460198016004B080BDBE
:1037080080B582B00190019800F002F802B080BD47
:0C37180081B000900098006801B070477C
:1037240080B582B00190019807F0FAFB02B080BD29
:1037340080B582B001900091019A00991068526896
:0837440000F002F802B080BDA4
:10374C0080B584B003900291019203980299019A7A
:08375C0007F016FC04B080BD6B
:1037640080B584B00390029101920398009004F014
:10377400C9FC009846F65801C0F20001083140F82F
:10378400041B0299019A00F003F8009804B080BD6C
:1037940080B588B007900691059207980190069825
:1037A40007F074FB0390059807F0FCFB01460198B1
:1037B4000291039A029B9DF8131000F003F80198FC
:0437C40008B080BD0C
:1037C80080B58AB08DF8271008920793069006985E
:1037D800009008A807F086FB014600980968049144
:1037E800049A9DF80F309DF8171007F081FB07A881
:1037F80007F004FC0146009809680291029A9DF8B6
:1038080007309DF80E1000F02BF800980AB080BD24
:1038180080B584B08C46079906998DF80FC08DF84D
:103828000E208DF80D308DF80C1002900298019042
:10383800079807F0C3FB0146019800F003F80198C8
:0438480004B080BD8B
:10384C0080B584B00390029103980190029807F020
:0C385C00B3FB01460198016004B080BD80
:1038680080B586B08DF8171004928DF80F3002904D
:103878000298019004A800F005F807F09FFB019852
:0438880006B080BD49
:10388C0080B582B00190019800F002F802B080BDC2
:0C389C0081B000900098006801B07047F7
:0838A80081B0009001B07047EF
:1038B00080B582B00190019800F00EF800F002F897
:0438C00002B080BD15
:1038C40080B582B00190019807F0A0FB00F00AF8DF
:0438D40002B080BD01
:1038D80080B582B00190019807F0C6FB02B080BDA8
:1038E80080B582B00190019807F094FB02B080BDCA
:1038F80080B598B01790179802900020C4F2050080
:1039080003900221049105F0A5FC0499024603984E
:103918001692169A05F0B0FC0398049905F088FBF6
:103928001590159870B10020C4F20500022105AA6F
:10393800019215AB05F0AEFB01990298BDF8542031
:1039480007F072FB0020C4F205000221002205F0F6
:10395800D3FB029941F24202885A40F0040088528F
:0439680018B080BD56
:10396C0080B582B001900198009007F0A5FB0098FB
:04397C0002B080BD58
:1039800080B58AB008900791069208990491099130
:1039900000200861079807F09BFBB0B106990DF174
:1039A0001700019007F09AFB079807F067FB019951
:1039B00002900DF11600039007F09CFB0498029909
:1039C000039A07F0A3FB0498006109980AB080BD30
:1039D00080B588B0079006910592079801900698E7
:1039E00007F04CFB07F054FC0390059807F0B6FB7A
:1039F00007F05CFC014601980291039A029B9DF836
:0C3A0000131000F00DF8019808B080BD14
:103A0C0080B582B001900198009004F08DFC009874
:043A1C0002B080BDB7
:103A200080B58AB08DF82710089207930690069803
:103A3000009008A807F08AFC0146009809680491E4
:103A4000049A9DF80F309DF8171007F085FC07A821
:103A500007F098FC0146009809680291029A9DF8C7
:103A600007309DF80E1000F053F800980AB080BDA2
:103A700080B584B08C46079906998DF80FC08DF8F3
:103A80000E208DF80D308DF80C10029002980190E8
:103A9000079807F011FB0146019800F003F8019820
:043AA00004B080BD31
:103AA40080B584B00390029103980190029807F0C6
:0C3AB40001FB01460198016004B080BDD8
:103AC00080B584B08C46079906998DF80FC08DF8A3
:103AD0000E208DF80D308DF80C1002900298019098
:103AE000079807F00FFC0146019800F003F80198D1
:043AF00004B080BDE1
:103AF40080B584B00390029103980190029807F076
:0C3B0400FFFB01460198016004B080BD89
:103B100080B586B08DF8171004928DF80F300290A2
:103B20000298019004A800F013F807F037FC019800
:043B300006B080BD9E
:103B340080B582B00190019800F002F802B080BD17
:0C3B440081B000900098006801B070474C
:103B500080B582B00190019800F002F802B080BDFB
:0C3B600081B000900098006801B0704730
:103B6C0080B582B00190019800F032F802B080BDAF
:103B7C0080B584B00390029103980299019100F0F2
:103B8C002FF801460198884201D904F019FD0298DA
:0C3B9C00C000042104F01CFD04B080BD3A
:103BA80080B584B003900291019203980090019827
:103BB80007F052FC0246009802A907F053FC00984F
:043BC80004B080BD08
:103BCC0080B582B00190019800F01AF802B080BD67
:103BDC0080B582B00190019807F036FC02B080BD30
:103BEC0080B582B00190FCF725FEC00802B080BD04
:103BFC0080B582B00190019807F07CFC02B080BDCA
:103C0C0080B582B00190019807F07AFC02B080BDBB
:103C1C0080B588B007900691059207980190069898
:103C2C0007F074FC0390059807F092FA07F038FB44
:103C3C00014601980291039A029B9DF8131000F023
:083C4C0003F8019808B080BDE7
:103C540080B58AB08DF827100892079306900698CD
:103C6400009008A807F084FC0146009809680491B4
:103C7400049A9DF80F309DF8171007F07FFC07A8F1
:103C840007F07EFB0146009809680291029A9DF8AC
:103C940007309DF80E10FFF739FF00980AB080BD79
:103CA40080B584B08C46079906998DF80FC08DF8BD
:103CB4000E208DF80D308DF80C10029002980190B2
:103CC400079807F035FC0146019800F003F80198C5
:043CD40004B080BDFB
:103CD80080B584B00390029103980190029807F090
:0C3CE80025FC01460198016004B080BD7D
:103CF40080B582B00190019800F002F802B080BD56
:0C3D040081B000900098006801B070478A
:103D100080B582B00190019807F048FC02B080BDE8
:103D200080B582B001900091019A009910685268A4
:083D300000F002F802B080BDB2
:103D380080B584B003900291019203980299019A88
:083D480007F064FC04B080BD2B
:103D500080B584B00390029101920398009004F022
:103D6000D3F9009846F67C01C0F20001083140F812
:103D7000041B0299019A00F003F8009804B080BD7A
:103D800080B588B007900691059207980190069833
:103D900007F0C2FB0390059807F04AFC0146019822
:103DA0000291039A029B9DF8131000F003F801980A
:043DB00008B080BD1A
:103DB40080B58AB08DF8271008920793069006986C
:103DC400009008A807F0D4FB014600980968049104
:103DD400049A9DF80F309DF8171007F0CFFB07A841
:103DE40007F052FC0146009809680291029A9DF876
:103DF40007309DF80E1000F02BF800980AB080BD33
:103E040080B584B08C46079906998DF80FC08DF85B
:103E14000E208DF80D308DF80C1002900298019050
:103E2400079807F011FC0146019800F003F8019887
:043E340004B080BD99
:103E380080B584B00390029103980190029807F02E
:0C3E480001FC01460198016004B080BD3F
:103E540080B586B08DF8171004928DF80F3002905B
:103E64000298019004A800F005F807F0EDFB019812
:043E740006B080BD57
:103E780080B582B00190019800F002F802B080BDD0
:0C3E880081B000900098006801B0704705
:083E940081B0009001B07047FD
:103E9C0080B582B00190019800F00EF800F002F8A5
:043EAC0002B080BD23
:103EB00080B582B00190019807F0EEFB00F00AF89F
:043EC00002B080BD0F
:103EC40080B582B00190019807F016FC02B080BD65
:103ED40080B582B00190019807F0E2FB02B080BD8A
:103EE40080B582B001900198009007F02FFC0098F3
:043EF40002B080BDDB
:103EF80080B58AB0089007910692089904910991B3
:103F080000200861079807F025FCB0B106990DF16B
:103F18001700019007F024FC079807F0F1FB0199BE
:103F280002900DF11600039007F026FC0498029900
:103F3800039A07F02DFC0498006109980AB080BD27
:103F480080B588B007900691059207980190069869
:103F580007F0D6FB07F0D4FC0390059807F040FC67
:103F680007F0DCFC014601980291039A029B9DF838
:0C3F7800131000F023F8019808B080BD81
:103F840080B582B001900198009005F051FB009833
:043F940002B080BD3A
:103F980080B586B00590049103920598043002908C
:103FA800049805F0C5F90190039805F0C7F901993F
:0C3FB8000246029807F0A8FE06B080BD8B
:103FC40080B58AB08DF8271008920793069006985A
:103FD400009008A807F0F4FC0146009809680491D1
:103FE400049A9DF80F309DF8171007F0EFFC07A80E
:103FF40007F002FD0146009809680291029A9DF8B3
:1040040007309DF80E1000F053F800980AB080BDF8
:1040140080B584B08C46079906998DF80FC08DF849
:104024000E208DF80D308DF80C100290029801903E
:10403400079807F085FB0146019800F003F8019802
:0440440004B080BD87
:1040480080B584B00390029103980190029807F01C
:0C40580075FB01460198016004B080BDBA
:1040640080B584B08C46079906998DF80FC08DF8F9
:104074000E208DF80D308DF80C10029002980190EE
:10408400079807F079FC0146019800F003F80198BD
:0440940004B080BD37
:1040980080B584B00390029103980190029807F0CC
:0C40A80069FC01460198016004B080BD75
:1040B40080B586B08DF8171004928DF80F300290F9
:1040C4000298019004A800F013F807F0A1FC0198ED
:0440D40006B080BDF5
:1040D80080B582B00190019800F002F802B080BD6E
:0C40E80081B000900098006801B07047A3
:1040F40080B582B00190019800F002F802B080BD52
:0C41040081B000900098006801B0704786
:1041100080B582B00190019800F032F802B080BD05
:1041200080B584B00390029103980299019100F048
:104130002FF801460198884201D904F047FA029805
:0C414000C000042104F04AFA04B080BD65
:10414C0080B584B00390029101920398009001987D
:10415C0007F0BCFC0246009802A907F0BDFC0098D1
:04416C0004B080BD5E
:1041700080B582B00190019800F01AF802B080BDBD
:1041800080B582B00190019807F0A0FC02B080BD1C
:1041900080B582B00190FCF753FBC00802B080BD2F
:1041A00080B582B00190019807F0E6FC02B080BDB6
:1041B00080B582B00190019807F0E4FC02B080BDA8
:1041C00080B588B0079006910592079801900698EF
:1041D00007F0DEFC0390059807F006FB07F0A2FB52
:1041E000014601980291039A029B9DF8131000F07A
:0841F00003F8019808B080BD3E
:1041F80080B58AB08DF82710089207930690069824
:10420800009008A807F0EEFC0146009809680491A0
:10421800049A9DF80F309DF8171007F0E9FC07A8DD
:1042280007F0E8FB0146009809680291029A9DF898
:1042380007309DF80E10FFF739FF00980AB080BDCF
:1042480080B584B08C46079906998DF80FC08DF813
:104258000E208DF80D308DF80C1002900298019008
:10426800079807F09FFC0146019800F003F80198B1
:0442780004B080BD51
:10427C0080B584B00390029103980190029807F0E6
:0C428C008FFC01460198016004B080BD69
:1042980080B582B00190019800F002F802B080BDAC
:0C42A80081B000900098006801B07047E1
:1042B40080B582B00190019807F0B2FC02B080BDD5
:1042C40080B582B001900091019A009910685268FB
:0842D40000F002F802B080BD09
:1042DC0080B584B003900291019203980299019ADF
:0842EC0007F0CEFC04B080BD18
:1042F40080B584B00390029101920398009005F078
:10430400FBF8009846F6A001C0F20001083140F81D
:10431400041B0299019A00F003F8009804B080BDD0
:1043240080B588B007900691059207980190069889
:1043340007F02CFC0390059807F0B4FC01460198A3
:104344000291039A029B9DF8131000F003F8019860
:0443540008B080BD70
:1043580080B58AB08DF827100892079306900698C2
:10436800009008A807F03EFC0146009809680491EF
:10437800049A9DF80F309DF8171007F039FC07A82C
:1043880007F0BCFC0146009809680291029A9DF862
:1043980007309DF80E1000F02BF800980AB080BD89
:1043A80080B584B08C46079906998DF80FC08DF8B2
:1043B8000E208DF80D308DF80C10029002980190A7
:1043C800079807F07BFC0146019800F003F8019874
:0443D80004B080BDF0
:1043DC0080B584B00390029103980190029807F085
:0C43EC006BFC01460198016004B080BD2C
:1043F80080B586B08DF8171004928DF80F300290B2
:104408000298019004A800F005F807F057FC0198FD
:0444180006B080BDAD
:10441C0080B582B00190019800F002F802B080BD26
:0C442C0081B000900098006801B070475B
:0844380081B0009001B0704753
:1044400080B582B00190019807F0A6FC02B080BD53
:1044500080B584B003900291019203980299019A69
:0844600007F08CFC04B080BDE4
:1044680082B00190ADF802100199BDF8020000F089
:1044780003004FF48252885441F2420200208852CD
:0C448800885A40F04000885202B0704793
:1044940080B582B001900198009007F0A5FC0098C7
:0444A40002B080BD25
:1044A80080B58AB0089007910692089904910991FD
:1044B80000200861079807F09BFCB0B106990DF140
:1044C8001700019007F09AFC079807F067FC01991C
:1044D80002900DF11600039007F09CFC04980299D5
:1044E800039A07F0A3FC0498006109980AB080BDFC
:1044F80080B588B0079006910592079801900698B4
:1045080007F04CFC07F04AFD0390059807F0B6FC4D
:1045180007F052FD014601980291039A029B9DF80B
:0C452800131000F023F8019808B080BDCB
:1045340080B582B001900198009005F079F8009858
:0445440002B080BD84
:1045480080B586B0059004910392059804300290D6
:10455800049804F0EDFE0190039804F0EFFE019931
:0C4568000246029807F01EFF06B080BD5E
:1045740080B58AB08DF827100892079306900698A4
:10458400009008A807F06AFD0146009809680491A4
:10459400049A9DF80F309DF8171007F065FD07A8E1
:1045A40007F078FD0146009809680291029A9DF887
:1045B40007309DF80E1000F053F800980AB080BD43
:1045C40080B584B08C46079906998DF80FC08DF894
:1045D4000E208DF80D308DF80C1002900298019089
:1045E400079807F0FBFB0146019800F003F80198D7
:0445F40004B080BDD2
:1045F80080B584B00390029103980190029807F067
:0C460800EBFB01460198016004B080BD8E
:1046140080B584B08C46079906998DF80FC08DF843
:104624000E208DF80D308DF80C1002900298019038
:10463400079807F0EFFC0146019800F003F8019891
:0446440004B080BD81
:1046480080B584B00390029103980190029807F016
:0C465800DFFC01460198016004B080BD49
:1046640080B586B08DF8171004928DF80F30029043
:104674000298019004A800F013F807F017FD0198C0
:0446840006B080BD3F
:1046880080B582B00190019800F002F802B080BDB8
:0C46980081B000900098006801B07047ED
:1046A40080B582B00190019800F002F802B080BD9C
:0C46B40081B000900098006801B07047D1
:1046C00080B582B00190019800F032F802B080BD50
:1046D00080B584B00390029103980299019100F093
:1046E0002FF801460198884201D903F06FFF029824
:0C46F000C000042103F072FF04B080BD84
:1046FC0080B584B0039002910192039800900198C8
:10470C0007F032FD0246009802A907F033FD00982D
:04471C0004B080BDA8
:1047200080B582B00190019800F01AF802B080BD07
:1047300080B582B00190019807F016FD02B080BDEF
:1047400080B582B00190FCF77BF8C00802B080BD54
:1047500080B582B00190019807F05CFD02B080BD89
:1047600080B582B00190019807F05AFD02B080BD7B
:1047700080B588B007900691059207980190069839
:1047800007F054FD0390059807F07CFB07F018FC38
:10479000014601980291039A029B9DF8131000F0C4
:0847A00003F8019808B080BD88
:1047A80080B58AB08DF8271008920793069006986E
:1047B800009008A807F064FD014600980968049174
:1047C800049A9DF80F309DF8171007F05FFD07A8B1
:1047D80007F05EFC0146009809680291029A9DF86C
:1047E80007309DF80E10FFF739FF00980AB080BD1A
:1047F80080B584B08C46079906998DF80FC08DF85E
:104808000E208DF80D308DF80C1002900298019052
:10481800079807F015FD0146019800F003F8019884
:0448280004B080BD9B
:10482C0080B584B00390029103980190029807F030
:0C483C0005FD01460198016004B080BD3C
:1048480080B582B00190019800F002F802B080BDF6
:0C48580081B000900098006801B070472B
:1048640080B582B00190019807F028FD02B080BDA8
:1048740080B582B001900091019A00991068526845
:0848840000F002F802B080BD53
:10488C0080B584B003900291019203980299019A29
:08489C0007F044FD04B080BDEB
:1048A40080B584B00390029101920398009004F0C3
:1048B40023FE009846F6C401C0F20001083140F816
:1048C400041B0299019A00F003F8009804B080BD1B
:1048D40080B588B0079006910592079801900698D4
:1048E40007F0A2FC0390059807F02AFD0146019801
:1048F4000291039A029B9DF8131000F003F80198AB
:0449040008B080BDBA
:1049080080B58AB08DF8271008920793069006980C
:10491800009008A807F0B4FC0146009809680491C3
:10492800049A9DF80F309DF8171007F0AFFC07A800
:1049380007F032FD0146009809680291029A9DF835
:1049480007309DF80E1000F02BF800980AB080BDD3
:1049580080B584B08C46079906998DF80FC08DF8FC
:104968000E208DF80D308DF80C10029002980190F1
:10497800079807F0F1FC0146019800F003F8019848
:0449880004B080BD3A
:10498C0080B584B00390029103980190029807F0CF
:0C499C00E1FC01460198016004B080BD00
:1049A80080B586B08DF8171004928DF80F300290FC
:1049B8000298019004A800F005F807F0CDFC0198D2
:0449C80006B080BDF8
:1049CC0080B582B00190019800F002F802B080BD71
:0C49DC0081B000900098006801B07047A6
:0849E80081B0009001B070479E
:1049F00080B582B00190019807F022FD02B080BD21
:104A000080B584B003900291019203980299019AB3
:084A100007F002FD04B080BDB7
:104A180080B582B001900198009007F037FD0098AA
:044A280002B080BD9B
:104A2C0080B58AB008900791069208990491099173
:104A3C0000200861079807F02DFDB0B106990DF123
:104A4C001700019007F02CFD079807F0F9FC01996D
:104A5C0002900DF11600039007F02EFD04980299B8
:104A6C00039A07F035FD0498006109980AB080BDDF
:104A7C0080B588B00790069105920798019006982A
:104A8C0007F0DEFC07F0DCFD0390059807F048FD0D
:104A9C0007F0E4FD014601980291039A029B9DF8F0
:0C4AAC00131000F023F8019808B080BD42
:104AB80080B582B001900198009004F0B7FD00988D
:044AC80002B080BDFB
:104ACC0080B586B00590049103920598043002904D
:104ADC00049804F02BFC0190039804F02DFC019930
:0C4AEC000246029807F0B0FF06B080BD43
:104AF80080B58AB08DF8271008920793069006981B
:104B0800009008A807F0FCFD014600980968049188
:104B1800049A9DF80F309DF8171007F0F7FD07A8C5
:104B280007F00AFE0146009809680291029A9DF86A
:104B380007309DF80E1000F053F800980AB080BDB9
:104B480080B584B08C46079906998DF80FC08DF80A
:104B58000E208DF80D308DF80C10029002980190FF
:104B6800079807F08DFC0146019800F003F80198BA
:044B780004B080BD48
:104B7C0080B584B00390029103980190029807F0DD
:0C4B8C007DFC01460198016004B080BD72
:104B980080B584B08C46079906998DF80FC08DF8BA
:104BA8000E208DF80D308DF80C10029002980190AF
:104BB800079807F081FD0146019800F003F8019875
:044BC80004B080BDF8
:104BCC0080B584B00390029103980190029807F08D
:0C4BDC0071FD01460198016004B080BD2D
:104BE80080B586B08DF8171004928DF80F300290BA
:104BF8000298019004A800F013F807F0A9FD0198A5
:044C080006B080BDB5
:104C0C0080B582B00190019800F002F802B080BD2E
:0C4C1C0081B000900098006801B0704763
:104C280080B582B00190019800F002F802B080BD12
:0C4C380081B000900098006801B0704747
:104C440080B582B00190019800F032F802B080BDC6
:104C540080B584B00390029103980299019100F009
:104C64002FF801460198884201D903F0ADFC02985F
:0C4C7400C000042103F0B0FC04B080BDBF
:104C800080B584B00390029101920398009001983E
:104C900007F0C4FD0246009802A907F0C5FD009880
:044CA00004B080BD1F
:104CA40080B582B00190019800F01AF802B080BD7E
:104CB40080B582B00190019807F0A8FD02B080BDD4
:104CC40080B582B00190FBF7B9FDC00802B080BD89
:104CD40080B582B00190019807F0EEFD02B080BD6E
:104CE40080B582B00190019807F0ECFD02B080BD60
:104CF40080B588B0079006910592079801900698B0
:104D040007F0E6FD0390059807F00EFC07F0AAFCF7
:104D1400014601980291039A029B9DF8131000F03A
:084D240003F8019808B080BDFE
:104D2C0080B58AB08DF827100892079306900698E4
:104D3C00009008A807F0F6FD014600980968049158
:104D4C00049A9DF80F309DF8171007F0F1FD07A895
:104D5C0007F0F0FC0146009809680291029A9DF850
:104D6C0007309DF80E10FFF739FF00980AB080BD90
:104D7C0080B584B08C46079906998DF80FC08DF8D4
:104D8C000E208DF80D308DF80C10029002980190C9
:104D9C00079807F0A7FD0146019800F003F8019869
:044DAC0004B080BD12
:104DB00080B584B00390029103980190029807F0A7
:0C4DC00097FD01460198016004B080BD21
:104DCC0080B582B00190019800F002F802B080BD6D
:0C4DDC0081B000900098006801B07047A2
:104DE80080B582B00190019807F0BAFD02B080BD8D
:104DF80080B582B001900091019A009910685268BC
:084E080000F002F802B080BDC9
:104E100080B584B003900291019203980299019A9F
:084E200007F0D6FD04B080BDCF
:104E280080B584B00390029101920398009004F039
:104E380061FB009846F6E801C0F20001083140F82D
:104E4800041B0299019A00F003F8009804B080BD91
:104E580080B588B00790069105920798019006984A
:104E680007F034FD0390059807F0BCFD0146019852
:104E78000291039A029B9DF8131000F003F8019821
:044E880008B080BD31
:104E8C0080B58AB08DF82710089207930690069883
:104E9C00009008A807F046FD0146009809680491A7
:104EAC00049A9DF80F309DF8171007F041FD07A8E4
:104EBC0007F0C4FD0146009809680291029A9DF81A
:104ECC0007309DF80E1000F02BF800980AB080BD4A
:104EDC0080B584B08C46079906998DF80FC08DF873
:104EEC000E208DF80D308DF80C1002900298019068
:104EFC00079807F083FD0146019800F003F801982C
:044F0C0004B080BDB0
:104F100080B584B00390029103980190029807F045
:0C4F200073FD01460198016004B080BDE3
:104F2C0080B586B08DF8171004928DF80F30029072
:104F3C000298019004A800F005F807F05FFD0198B5
:044F4C0006B080BD6E
:104F500080B582B00190019800F002F802B080BDE7
:0C4F600081B000900098006801B070471C
:084F6C0081B0009001B0704714
:104F740080B582B00190019807F0A0FD02B080BD19
:104F840080B584B003900291019203980299019A2A
:084F940000F002F804B080BD3A
:104F9C0080B586B00590049103920598006800F5E1
:104FAC0081520020C4F205000290002101910723D8
:104FBC0009F02AFF019902984FF4857209F09EFFBF
:044FCC0006B080BDEE
:104FD00080B582B001900198009007F09BFD009889
:044FE00002B080BDDE
:104FE40080B58AB0089007910692089904910991B6
:104FF40000200861079807F091FDB0B106990DF102
:105004001700019007F090FD079807F05DFD0199E6
:1050140002900DF11600039007F092FD0498029996
:10502400039A07F099FD0498006109980AB080BDBD
:1050340080B588B00790069105920798019006986C
:1050440007F042FD07F040FE0390059807F0ACFD21
:1050540007F048FE014601980291039A029B9DF8CD
:0C506400131000F023F8019808B080BD84
:1050700080B582B001900198009004F0DBFA0098AE
:0450800002B080BD3D
:1050840080B586B00590049103920598043002908F
:10509400049804F04FF90190039804F051F9019930
:0C50A4000246029808F014F806B080BD27
:1050B00080B58AB08DF8271008920793069006985D
:1050C000009008A807F060FE014600980968049166
:1050D000049A9DF80F309DF8171007F05BFE07A8A3
:1050E00007F06EFE0146009809680291029A9DF849
:1050F00007309DF80E1000F053F800980AB080BDFC
:1051000080B584B08C46079906998DF80FC08DF84C
:105110000E208DF80D308DF80C1002900298019041
:10512000079807F0F1FC0146019800F003F8019898
:0451300004B080BD8A
:1051340080B584B00390029103980190029807F01F
:0C514400E1FC01460198016004B080BD50
:1051500080B584B08C46079906998DF80FC08DF8FC
:105160000E208DF80D308DF80C10029002980190F1
:10517000079807F0E5FD0146019800F003F8019853
:0451800004B080BD3A
:1051840080B584B00390029103980190029807F0CF
:0C519400D5FD01460198016004B080BD0B
:1051A00080B586B08DF8171004928DF80F300290FC
:1051B0000298019004A800F013F807F00DFE019882
:0451C00006B080BDF8
:1051C40080B582B00190019800F002F802B080BD71
:0C51D40081B000900098006801B07047A6
:1051E00080B582B00190019800F002F802B080BD55
:0C51F00081B000900098006801B070478A
:1051FC0080B582B00190019800F032F802B080BD09
:10520C0080B584B00390029103980299019100F04B
:10521C002FF801460198884201D903F0D1F9029880
:0C522C00C000042103F0D4F904B080BDE0
:1052380080B584B003900291019203980090019880
:1052480007F028FE0246009802A907F029FE0098F8
:0452580004B080BD61
:10525C0080B582B00190019800F01AF802B080BDC0
:10526C0080B582B00190019807F00CFE02B080BDB1
:10527C0080B582B00190FBF7DDFAC00802B080BDAA
:10528C0080B582B00190019807F052FE02B080BD4B
:10529C0080B582B00190019807F050FE02B080BD3D
:1052AC0080B588B0079006910592079801900698F2
:1052BC0007F04AFE0390059807F072FC07F00EFD0C
:1052CC00014601980291039A029B9DF8131000F07D
:0852DC0003F8019808B080BD41
:1052E40080B58AB08DF82710089207930690069827
:1052F400009008A807F05AFE014600980968049136
:10530400049A9DF80F309DF8171007F055FE07A872
:1053140007F054FD0146009809680291029A9DF82D
:1053240007309DF80E10FFF739FF00980AB080BDD2
:1053340080B584B08C46079906998DF80FC08DF816
:105344000E208DF80D308DF80C100290029801900B
:10535400079807F00BFE0146019800F003F8019846
:0453640004B080BD54
:1053680080B584B00390029103980190029807F0E9
:0C537800FBFD01460198016004B080BDFF
:1053840080B582B00190019800F002F802B080BDAF
:0C53940081B000900098006801B07047E4
:1053A00080B582B00190019807F01EFE02B080BD6A
:1053B00080B582B001900091019A009910685268FE
:0853C00000F002F802B080BD0C
:1053C80080B584B003900291019203980299019AE2
:0853D80007F03AFE04B080BDAD
:1053E00080B584B00390029101920398009004F07C
:1053F00085F8009846F60C11C0F20001083140F81B
:10540000041B0299019A00F003F8009804B080BDD3
:1054100080B588B00790069105920798019006988C
:1054200007F098FD0390059807F020FE01460198CB
:105430000291039A029B9DF8131000F003F8019863
:0454400008B080BD73
:1054440080B58AB08DF827100892079306900698C5
:10545400009008A807F0AAFD014600980968049185
:10546400049A9DF80F309DF8171007F0A5FD07A8C2
:1054740007F028FE0146009809680291029A9DF8F7
:1054840007309DF80E1000F02BF800980AB080BD8C
:1054940080B584B08C46079906998DF80FC08DF8B5
:1054A4000E208DF80D308DF80C10029002980190AA
:1054B400079807F0E7FD0146019800F003F801980A
:0454C40004B080BDF3
:1054C80080B584B00390029103980190029807F088
:0C54D800D7FD01460198016004B080BDC2
:1054E40080B586B08DF8171004928DF80F300290B5
:1054F4000298019004A800F005F807F0C3FD019894
:0455040006B080BDB0
:1055080080B582B00190019800F002F802B080BD29
:0C55180081B000900098006801B070475E
:0855240081B0009001B0704756
:10552C0080B582B00190019807F070FE02B080BD8A
:10553C0080B584B003900291019203980299019A6C
:08554C0007F0F8FD04B080BD7A
:1055540080B586B005900120019000F017F80199FC
:105564000020C4F2050010224FF4085307F032FE65
:0455740006B080BD40
:1055780080B584B003900291019203980299019A30
:0855880001F0ACFE04B080BD8F
:1055900080B582B08DF807009DF8070007F032FE55
:0455A00002B080BD18
:1055A40080B584B00390029101920093039802990C
:0C55B400019A009B01F0E4FC04B080BDF3
:1055C00080B582B001900198009007F04FFE0098DE
:0455D00002B080BDE8
:1055D40080B58AB0089007910692089904910991C0
:1055E40000200861079807F045FEB0B106990DF157
:1055F4001700019007F044FE079807F011FE019987
:1056040002900DF11600039007F046FE04980299EB
:10561400039A07F04DFE0498006109980AB080BD12
:1056240080B588B007900691059207980190069876
:1056340007F0F6FD07F0F4FE0390059807F060FE0E
:1056440007F0FCFE014601980291039A029B9DF823
:0C565400131000F023F8019808B080BD8E
:1056600080B582B001900198009003F0E3FF0098AC
:0456700002B080BD47
:1056740080B586B005900491039205980430029099
:10568400049803F057FE0190039803F059FE019922
:0C5694000246029808F0C8F806B080BD7D
:1056A00080B58AB08DF82710089207930690069867
:1056B000009008A807F014FF0146009809680491BB
:1056C000049A9DF80F309DF8171007F00FFF07A8F8
:1056D00007F022FF0146009809680291029A9DF89E
:1056E00007309DF80E1000F053F800980AB080BD06
:1056F00080B584B08C46079906998DF80FC08DF857
:105700000E208DF80D308DF80C100290029801904B
:10571000079807F0A5FD0146019800F003F80198ED
:0457200004B080BD94
:1057240080B584B00390029103980190029807F029
:0C57340095FD01460198016004B080BDA5
:1057400080B584B08C46079906998DF80FC08DF806
:105750000E208DF80D308DF80C10029002980190FB
:10576000079807F099FE0146019800F003F80198A8
:0457700004B080BD44
:1057740080B584B00390029103980190029807F0D9
:0C57840089FE01460198016004B080BD60
:1057900080B586B08DF8171004928DF80F30029006
