:100000000060002073E900004377000009710000E0
:100010004F77000087770000937700000000000012
:100020000000000000000000000000000B7800004D
:100030001B7800000000000093780000B7780000F3
:1000400081B080B589B002910B9308900791069218
:100050000BA80590069804900598011D059100686D
:10006000039041F25700C2F200000078202800DB24
:1000700023E0029807F060FB014641F25700C2F20C
:1000800000000190007800EB400240F62810C2F218
:10009000000000EBC20000F015F8019A04980399E3
:1000A000137841F23412C2F2000252F8232007F012
:1000B000AEFC019908780130087009B0BDE88040B5
:0400C00001B07047D4
:1000C40080B584B00390029103980190029807F0E0
:1000D40037FB0146019800F003F8019804B080BD95
:1000E40080B584B00390029103980190002107F039
:1000F4002DFB0298006918B901990020086116E0E7
:100104000299086988420BD1019807F03BFB0199D9
:1001140008610298006909690268D268904706E09C
:100124000199029800690861029900200861019808
:0401340004B080BDD6
:0C0138000000000000000000410000007A
:1001440080B582B001900198009007F05DFB0098A3
:0401540002B080BDB8
:1001580080B584B0039040F20040C2F2000000F580
:10016800A56002900298183801900146009100F0AD
:100178000BF80098019940F20042C2F20002914245
:080188000290EFD104B080BD2C
:1001900080B582B001900198009000F03FF800987F
:0401A00002B080BD6C
:1001A40081B080B587B001910993069005910492BE
:1001B40009A803900498029041F25700C2F200008B
:1001C4000078202800DB22E0019807F0B3FA01460A
:1001D40041F25700C2F200000090007800EB4002A8
:1001E40040F62810C2F2000000EBC200FFF768FFDF
:1001F400009902980A7841F23411C2F2000151F8D0
:10020400221006F0E9FB009908780130087007B065
:08021400BDE8804001B0704715
:10021C0080B584B0029002990191039108698842DB
:10022C0005D10198006901680969884707E00198C0
:10023C00006920B1019800690168496988470398F1
:04024C0004B080BDBD
:0C0250000000000000000000A5010000FC
:10025C0080B584B0039040F20040C2F2000000F57B
:10026C00A560029002981838019001460091FFF7A2
:10027C0089FF0098019940F20042C2F200029142BB
:08028C000290EFD104B080BD27
:10029400F0B595B014901498049000F0FDF904980A
:1002A400043001220392114607F07AFB04990620D8
:1002B400087546F2B853C0F200030CA90A4693E845
:1002C400F05082E8F050129113901298139900F0B4
:1002D400F3F903990246049882611C300A2207F05C
:1002E4005FFB049803992C30642207F059FB0498AF
:1002F40003993C304FF47A7207F052FB0498039947
:100304004C3042F2107207F04BFB049803995C30B6
:1003140048F2A062C0F2010207F042FB049803997C
:100324006C3044F24022C0F20F0207F039FB04990A
:10033400002081F87C000120C1F2100006F052FF79
:100344000020C4F203000290FF21009107F01FFB7C
:10035400029822210EF013FB00990298049A9268E5
:1003640007F03FFB04980590059906A8019000F05A
:10037400B9F90498009B0199029AFFF75FFE01986E
:1003840000F080F9029803990EF011FB029803998A
:100394000EF009FB0399049880F87C1015B0F0BDA9
:1003A40080B596B01590159804900430009000F034
:1003B400CBFC04980D900D990EA8019000F0D4FC8C
:1003C400009801990022C4F205020392FFF7E8FEA7
:1003D400019800F057F904980590059906A8029031
:1003E40000F0D2FC02984FF4A061002208F074F8E7
:1003F4000298FFF7CBFE0120C2F2100006F0F2FED5
:1004040007F0D4F83C2006F0B3FE039840F2FF3125
:1004140006F034FA03980F2106F06AFA03984FF0B5
:10042400FF310EF05DF8039801210EF07BF803987C
:1004340040F60F61CFF603710DF0FAFF039806F052
:08044400D9FC049816B080BD3C
:10044C0080B5ECB06B906A9169926B98109001F04A
:10045C0071FF109800F5016001F06CFF109841F2EB
:10046C002801014401916190619962A8029001F008
:10047C0073FF0198029909F061F8029801F07CFF72
:10048C0010986A9941F254028150699941F25802CC
:10049C008150599059995AA8039001F077FF03990C
:1004AC002020049009F056F8039800F0E7F8109813
:1004BC005190519952A8059001F078FF0498059934
:1004CC0009F048F8059800F0D9F810984990499926
:1004DC004AA8069001F07AFF0699102009F03AF824
:1004EC00069800F0CBF810984190419942A80790DB
:1004FC0001F07CFF079842F2212100220A9207F0BA
:10050C00E7FF0798FFF73EFE1098399039993AA803
:10051C00089001F07BFF08980A9A42F2210107F03B
:10052C00D7FF0898FFF72EFE10983190319932A81A
:10053C00099001F07BFF09980A9A42F2A11107F089
:10054C00C7FF0998FFF71EFE1098299029992AA831
:10055C000B9001F07BFF0B980A9A4FF4106107F097
:10056C00B7FF0B98FFF70EFE10982190219922A847
:10057C000C9001F07BFF0C984FF481710E9181224D
:10058C0007F0A6FF0C98FFF7FDFD1098199019992C
:10059C001AA80D9001F07AFF0D980E99822207F09F
:1005AC0097FF0D98FFF7EEFD10981190119912A876
:1005BC000F9001F07BFF0F980E99022207F088FF35
:0C05CC000F98FFF7DFFD10986CB080BDA9
:1005D80080B582B041F24000C2F200000078C00746
:1005E80030BB41F24001C2F200010120087040F620
:1005F8002840C2F2000001900198009000F01AF81B
:10060800009800F11801084640F62842C2F200029C
:1006180002F5347291420190EED140F25160C0F27D
:10062800000040F20002C0F2000200210EF09DFA24
:0406380002B080BDCF
:10063C0080B582B001900198009008F077FF009887
:04064C0002B080BDBB
:1006500080B584B0039040F62840C2F2000000F557
:10066000347002900298183801900146009100F011
:100670000BF80098019940F62842C2F2000291421C
:080680000290EFD104B080BD2F
:1006880080B582B001900198009001F035FE009885
:0406980002B080BD6F
:10069C0080B582B001900198009007F0A7F90098FE
:1006AC0040F23811C0F200010831016002B080BD87
:1006BC0080B586B00591049004A8019000F032F842
:1006CC0001460198029107F0B9F9014602989DF88C
:0C06DC000F2000F019F8006806B080BD87
:1006E80080B584B0039102900298019003A807F0A6
:1006F800EFF90146019807F019FA019804B080BD96
:0C07080083B002900191009203B0704792
:1007140080B584B08DF80F20029001910298019960
:0C0724000DF10F0207F09CF904B080BD3D
:0C07300081B000900098006801B0704794
:10073C0080B582B001900198009007F029FA0098DA
:04074C0002B080BDBA
:1007500080B58AB008900791069208990491099192
:1007600000200861079807F01FFAB0B106990DF153
:100770001700019007F01EFA079807F0ADF90199EC
:1007800002900DF11600039007F020FA04980299E8
:10079000039A07F031FA0498006109980AB080BD05
:1007A00080B588B007900691059207980190069849
:1007B00007F092F907F08EFB0390059807F076FAA0
:1007C00007F09EFB014601980291039A029B9DF857
:0C07D000131000F00DF8019808B080BD77
:1007DC0080B582B001900198009007F069FB0098F9
:0407EC0002B080BD1A
:1007F00080B58AB08DF82710089207930690069866
:10080000009008A807F01EFC0146009809680491B2
:10081000049A9DF80F309DF8171007F019FC07A8EF
:1008200007F02CFC0146009809680291029A9DF895
:1008300007309DF80E1000F053F800980AB080BD04
:1008400080B584B08C46079906998DF80FC08DF855
:100850000E208DF80D308DF80C100290029801904A
:10086000079807F091F90146019800F003F8019804
:0408700004B080BD93
:1008740080B584B00390029103980190029807F028
:0C08840081F901460198016004B080BDBC
:1008900080B584B08C46079906998DF80FC08DF805
:1008A0000E208DF80D308DF80C10029002980190FA
:1008B000079807F0A3FB0146019800F003F80198A0
:0408C00004B080BD43
:1008C40080B584B00390029103980190029807F0D8
:0C08D40093FB01460198016004B080BD58
:1008E00080B586B08DF8171004928DF80F30029005
:1008F0000298019004A800F013F807F0CBFB0198D0
:0409000006B080BD00
:1009040080B582B00190019800F002F802B080BD79
:0C09140081B000900098006801B07047AE
:1009200080B582B00190019800F002F802B080BD5D
:0C09300081B000900098006801B0704792
:10093C0080B582B00190019800F032F802B080BD11
:10094C0080B584B00390029103980299019100F054
:10095C002FF801460198884201D907F0F7FB02985D
:0C096C00C000042107F0FAFB04B080BDBD
:1009780080B584B003900291019203980090019889
:1009880007F00AFC0246009802A907F00BFC009841
:0409980004B080BD6A
:10099C0080B582B00190019800F03AF802B080BDA9
:1009AC0080B582B00190019807F0CAFB02B080BDFF
:1009BC0080B582B0019000F003F8C00802B080BD91
:0809CC0080B507F0E3FB80BDDC
:1009D40081B00090009808284FF0000088BF0120E3
:0409E40001B07047A7
:1009E80080B582B0019000910198009907F057FAFC
:0409F80002B080BD0C
:1009FC0080B582B00190019807F013FA02B080BD67
:100A0C0080B582B00190019807F014FC02B080BD53
:100A1C0080B582B00190019807F012FC02B080BD45
:100A2C0080B588B0079006910592079801900698BA
:100A3C0007F00CFC0390059807F032F907F05AFA0E
:100A4C00014601980291039A029B9DF8131000F045
:080A5C0003F8019808B080BD09
:100A640080B58AB08DF827100892079306900698EF
:100A7400009008A807F01CFC01460098096804913E
:100A8400049A9DF80F309DF8171007F017FC07A87B
:100A940007F0F2FA0146009809680291029A9DF85B
:100AA40007309DF80E10FFF719FF00980AB080BDBB
:100AB40080B584B08C46079906998DF80FC08DF8DF
:100AC4000E208DF80D308DF80C10029002980190D4
:100AD400079807F0CDFB0146019800F003F8019850
:040AE40004B080BD1D
:100AE80080B584B00390029103980190029807F0B2
:0C0AF800BDFB01460198016004B080BD08
:100B040080B582B00190019800F002F802B080BD77
:0C0B140081B000900098006801B07047AC
:100B200080B582B00190019807F0E0FB02B080BD73
:100B300080B582B001900091019A009910685268C6
:080B400000F002F802B080BDD4
:100B480080B584B003900291019203980299019AAA
:080B580007F0FCFB04B080BDB6
:100B600080B584B003900291019203980299019A92
:080B700000F00CF804B080BD98
:100B780080B582B0019000910198009900F00EF8BC
:040B880002B080BD7A
:100B8C0080B584B003900291019203980299019A66
:080B9C0007F093F904B080BDDD
:100BA40080B582B001900091019800990EF059F837
:040BB40002B080BD4E
:100BB80080B584B00390029101920398009007F0E9
:100BC8004BF8009846F2DC51C0F20001083140F8B9
:100BD800041B0299019A00F003F8009804B080BD44
:100BE80080B588B0079006910592079801900698FD
:100BF80007F02EFB0390059807F0CEFB01460198FD
:100C08000291039A029B9DF8131000F003F80198D3
:040C180008B080BDE3
:100C1C0080B58AB08DF82710089207930690069835
:100C2C00009008A807F040FB014600980968049161
:100C3C00049A9DF80F309DF8171007F03BFB07A89E
:100C4C0007F0D6FB0146009809680291029A9DF8BC
:100C5C0007309DF80E1000F02BF800980AB080BDFC
:100C6C0080B584B08C46079906998DF80FC08DF825
:100C7C000E208DF80D308DF80C100290029801901A
:100C8C00079807F095FB0146019800F003F80198CE
:040C9C0004B080BD63
:100CA00080B584B00390029103980190029807F0F8
:0C0CB00085FB01460198016004B080BD86
:100CBC0080B586B08DF8171004928DF80F30029025
:100CCC000298019004A800F005F807F071FB019858
:040CDC0006B080BD21
:100CE00080B582B00190019800F002F802B080BD9A
:0C0CF00081B000900098006801B07047CF
:080CFC0081B0009001B07047C7
:100D040080B582B00190019800F00EF800F002F86E
:040D140002B080BDEC
:100D180080B582B00190019807F072FB00F00AF8E4
:040D280002B080BDD8
:100D2C0080B582B00190019807F0CCFB02B080BD79
:100D3C0080B582B00190019807F066FB02B080BDCF
:100D4C0080B582B001900198009006F04FFE00989B
:100D5C0040F25021C0F200010831016002B080BDA8
:100D6C0080B584B0039102900298019003A807F01B
:100D7C00D1FB0146019807F0D3FB019804B080BD6C
:100D8C0080B584B0039102900298019003A808F0FA
:100D9C004DF80146019808F04FF8019804B080BD59
:100DAC0080B582B001900198009007F0D7FB0098B5
:040DBC0002B080BD44
:100DC00080B58AB00890079106920899049109911C
:100DD00000200861079807F0CDFBB0B106990DF12E
:100DE0001700019007F0CCFB079807F099FB0199D9
:100DF00002900DF11600039007F0CEFB04980299C3
:100E0000039A07F0D5FB0498006109980AB080BDE9
:100E100080B588B0079006910592079801900698D2
:100E200007F07EFB07F086FC0390059807F0E8FBCF
:100E300007F08EFC014601980291039A029B9DF8EF
:0C0E4000131000F00DF8019808B080BD00
:100E4C0080B582B001900198009007F031F80098BD
:040E5C0002B080BDA3
:100E600080B58AB08DF827100892079306900698EF
:100E7000009008A807F0BCFC01460098096804919E
:100E8000049A9DF80F309DF8171007F0B7FC07A8DB
:100E900007F0CAFC0146009809680291029A9DF881
:100EA00007309DF80E1000F053F800980AB080BD8E
:100EB00080B584B08C46079906998DF80FC08DF8DF
:100EC0000E208DF80D308DF80C10029002980190D4
:100ED000079807F043FB0146019800F003F80198DA
:040EE00004B080BD1D
:100EE40080B584B00390029103980190029807F0B2
:0C0EF40033FB01460198016004B080BD92
:100F000080B584B08C46079906998DF80FC08DF88E
:100F10000E208DF80D308DF80C1002900298019083
:100F2000079807F041FC0146019800F003F801988A
:040F300004B080BDCC
:100F340080B584B00390029103980190029807F061
:0C0F440031FC01460198016004B080BD42
:100F500080B586B08DF8171004928DF80F3002908E
:100F60000298019004A800F013F807F069FC0198BA
:040F700006B080BD8A
:100F740080B582B00190019800F002F802B080BD03
:0C0F840081B000900098006801B0704738
:100F900080B582B00190019800F002F802B080BDE7
:0C0FA00081B000900098006801B070471C
:100FAC0080B582B00190019800F032F802B080BD9B
:100FBC0080B584B00390029103980299019100F0DE
:100FCC002FF801460198884201D907F0BFF8029822
:0C0FDC00C000042107F0C2F804B080BD82
:100FE80080B584B003900291019203980090019813
:100FF80007F084FC0246009802A907F085FC0098D7
:0410080004B080BDF3
:10100C0080B582B00190019800F01AF802B080BD52
:10101C0080B582B00190019807F068FC02B080BDE9
:10102C0080B582B00190FFF7CBFCC00802B080BD48
:10103C0080B582B00190019807F0AEFC02B080BD83
:10104C0080B582B00190019807F0ACFC02B080BD75
:10105C0080B588B007900691059207980190069884
:10106C0007F0A6FC0390059807F0C4FA07F06AFB9A
:10107C00014601980291039A029B9DF8131000F00F
:08108C0003F8019808B080BDD3
:1010940080B58AB08DF827100892079306900698B9
:1010A400009008A807F0B6FC01460098096804916E
:1010B400049A9DF80F309DF8171007F0B1FC07A8AB
:1010C40007F0B0FB0146009809680291029A9DF866
:1010D40007309DF80E10FFF739FF00980AB080BD65
:1010E40080B584B08C46079906998DF80FC08DF8A9
:1010F4000E208DF80D308DF80C100290029801909E
:10110400079807F067FC0146019800F003F801987E
:0411140004B080BDE6
:1011180080B584B00390029103980190029807F07B
:0C11280057FC01460198016004B080BD36
:1011340080B582B00190019800F002F802B080BD41
:0C11440081B000900098006801B0704776
:1011500080B582B00190019807F07AFC02B080BDA2
:1011600080B582B001900091019A00991068526890
:0811700000F002F802B080BD9E
:1011780080B584B003900291019203980299019A74
:0811880007F096FC04B080BDE5
:1011900080B584B00390029101920398009006F00C
:1011A0005FFD009846F22461C0F20001083140F86A
:1011B000041B0299019A00F003F8009804B080BD66
:1011C00080B588B00790069105920798019006981F
:1011D00007F0F4FB0390059807F07CFC01460198AA
:1011E0000291039A029B9DF8131000F003F80198F6
:0411F00008B080BD06
:1011F40080B58AB08DF82710089207930690069858
:10120400009008A807F006FC0146009809680491BC
:10121400049A9DF80F309DF8171007F001FC07A8F9
:1012240007F084FC0146009809680291029A9DF82F
:1012340007309DF80E1000F02BF800980AB080BD1E
:1012440080B584B08C46079906998DF80FC08DF847
:101254000E208DF80D308DF80C100290029801903C
:10126400079807F043FC0146019800F003F8019841
:0412740004B080BD85
:1012780080B584B00390029103980190029807F01A
:0C12880033FC01460198016004B080BDF9
:1012940080B586B08DF8171004928DF80F30029047
:1012A4000298019004A800F005F807F01FFC0198CB
:0412B40006B080BD43
:1012B80080B582B00190019800F002F802B080BDBC
:0C12C80081B000900098006801B07047F1
:0812D40081B0009001B07047E9
:1012DC0080B582B00190019800F00EF800F002F891
:0412EC0002B080BD0F
:1012F00080B582B00190019807F020FC00F00AF858
:0413000002B080BDFA
:1013040080B582B00190019807F060FD02B080BD05
:1013140080B582B00190019807F014FC02B080BD42
:1013240080B584B003900291039800909DF8080062
:10133400C00778B10020C4F20500002105F072FD59
:101344000190019830B1009B03F108000299019AC1
:1013540000F032F8029807F033FC002004B080BD9E
:1013640084B002900191029800909DF80400400717
:10137400002802D5012003901BE09DF8040080079B
:10138400002802D50320039013E09DF80400C00751
:1013940028B10099002008700220039009E09DF80C
:1013A40004000007002802D50820039001E0002073
:0813B4000390039804B0704798
:1013BC0080B586B0059004910392029341F24802E5
:1013CC00C2F200020020C4F20500002103AB05F0BC
:1013DC0089FD40F20210C4F205000078019041F240
:1013EC005000C2F20000807848B941F24800C2F2C5
:1013FC000000008841F25001C2F20001088041F265
:10140C005000C2F200000088029900F003F800209E
:04141C0006B080BDD9
:1014200080B5AAB0ADF8A6002891BDF8A600014687
:10143000199108287BD0199881287BD01998822887
:1014400079D01998B0F5807F76D0199840F20111C3
:10145000884200F088801998B0F5817F00F0848080
:10146000199840F2A111884200F012821998B0F543
:10147000407F00F0A481199840F20131884200F0C9
:10148000C381199840F20231884200F0BE81199858
:10149000B0F5A06F00F0BA811998B0F5D06F00F0E8
:1014A000D181199840F28161884200F0D781199862
:1014B00040F28261884200F0D2811998B0F5E06F65
:1014C00000F0CE811998B0F5086F00F0CA81199824
:1014D000B0F5106F00F0C681199840F621218842BE
:1014E00000F0D781199840F68121884200F0CD8123
:1014F000199840F60131884200F0C881199840F6E9
:101500008241884200F0C381199842F22101884249
:1015100000F0C081199842F2A111884200F0EF81D9
:10152000199842F22121884200F00C8220E207F053
:1015300069FB25E21CE21BE241F24800C2F2000016
:101540008078012807D10020C4F205000021012283
:101550000DF09EF806E00020C4F2050000221146BE
:1015600005F044FB0CE203E241F24800C2F2000045
:10157000408838B10020C4F205000022114605F071
:1015800035FBFDE141F24800C2F20000007901465E
:101590001891012800F0E680189802283FD018988A
:1015A000812807D01898822871D01898832800F0D5
:1015B000A780FCE00020C4F20500179010211591CF
:1015C0004FF40052149205F08BFB149A159917985A
:1015D00005F0AAFA159807F031FB002016908DF857
:1015E00098008DF899008DF89A008DF89B008DF881
:1015F0009C008DF89D008DF89E008DF89F0041F2B3
:101600003803C2F200034FF48170812126AA07F04B
:1016100029FB1699179801220DF03AF8CEE0002028
:10162000C4F205001190202112910022139205F0BE
:1016300057FB11981299139A05F076FA129807F051
:10164000FDFA13988DF890008DF891008DF89200B6
:101650008DF893008DF894008DF895008DF8960024
:101660008DF8970041F23803C2F200034FF4817005
:10167000022124AA07F0F6FA1399119801220DF01D
:1016800007F811981299139A0DF002F896E02020AD
:101690000D9007F0D3FA0D990020C4F205000F90C9
:1016A0004FF400520E9205F03FFA002010908DF892
:1016B00088008DF889008DF88A008DF88B008DF8F0
:1016C0008C008DF88D008DF88E008DF88F0041F222
:1016D0003803C2F200034FF48170822122AA07F07E
:1016E000C1FA0D990E9A0F9805F0FAFA40F68C207F
:1016F00006F03DF90F98109901220CF0C9FF5DE04A
:101700000020C4F205000C90302109914FF40052E2
:101710000A9205F0E5FA09990A9A0C9805F004FA7C
:1017200000200B908DF880008DF881008DF88200EC
:101730008DF883008DF884008DF885008DF8860083
:101740008DF8870041F23803C2F200034FF4817034
:10175000832120AA07F086FA0B990C9801220CF03D
:1017600097FF2BE0002007908DF878008DF8790026
:101770008DF87A008DF87B008DF87C008DF87D0067
:101780008DF87E008DF87F0041F23803C2F200032D
:101790004FF48170012108911EAA07F063FA07999E
:1017A000089A0020C4F205000CF072FF06E0002049
:1017B000C4F205000022114605F018FAE0E041F2FB
:1017C0004800C2F20000807801460691012803D04B
:1017D0000698022808D00FE00020C4F2050000217E
:1017E00001220CF055FF0EE00020C4F2050000229B
:1017F000114605F0FBF906E00020C4F205000022C6
:10180000114605F0F3F9BBE0B2E0B1E0002105912B
:101810008DF870108DF871108DF872108DF87310AE
:101820008DF874108DF875108DF876108DF877108E
:1018300041F23803C2F200034FF4A0601CAA07F083
:1018400011FA9DE041F24801C2F200018A78C8789D
:10185000897900F097F800B98AE091E088E087E0A4
:1018600086E085E0289B41F24802C2F200024FF474
:1018700010600021049107F0F5F904990020C4F2EA
:10188000050001220CF004FF7AE071E070E06FE0E7
:101890006EE075E041F25000C2F20000807898B925
:1018A00041F25001C2F200010120887041F248006B
:1018B000C2F20000C08888800020C4F20500002227
:1018C00011460CF0E5FE19E041F25000C2F20000B2
:1018D0000290031D41F24802C2F2000242F22100CE
:1018E0000021039107F0BEF903990020C4F205001E
:1018F00001220CF0CDFE02990398887040E000218F
:1019000001918DF868108DF869108DF86A108DF8C6
:101910006B108DF86C108DF86D108DF86E108DF8C1
:101920006F1041F23803C2F2000342F2A1101AAA6A
:1019300007F098F901990020C4F2050001220CF08B
:10194000A7FE1DE041F24802C2F2000241F2380354
:10195000C2F2000342F221200021009107F082F937
:1019600000990020C4F2050001220CF091FE07E06E
:101970000020C4F2050000214FF4005205F036F9B2
:041980002AB080BD4C
:1019840080B584B08DF80E00ADF80C108DF80B20E6
:101994009DF80E0001380146019107282FD80199BE
:1019A400DFE801F0041120292A2B2C2D9DF80C20AE
:1019B40047F6EE60C0F20000122100F0BDF80120ED
:1019C4008DF80F001EE04321ADF808109DF80C209F
:1019D4004EF69640C0F2000000F0AEF801208DF8FB
:1019E4000F000FE09DF80B009DF80C1000F01EF99D
:1019F4008DF80F0006E002E001E000E0FFE70020C0
:0C1A04008DF80F009DF80F0004B080BDAD
:101A100080B586B005908DF813108DF812209DF8D2
:101A200013009DF81210884203DD9DF8120001900A
:101A300002E09DF81300019001988DF811000598BF
:101A400003909DF81100402835DB40208DF80B00F5
:101A5000039A9DF80B300020C4F2050000210CF021
:101A60007BFE013000B9F3E79DF8110058B9002062
:101A7000C4F2050000214FF481720CF0E7FE013042
:101A800000B9F4E717E00020C4F2050000214FF48C
:101A900081720CF0DBFE013000B9F4E79DF80B1009
:101AA0009DF81100401A8DF811009DF80B10039855
:101AB00008440390C5E7039A9DF811300020C4F252
:101AC000050000210CF048FE013000B9F3E70020CA
:101AD000C4F2050000214FF485720CF0B7FE01300E
:081AE00000B9F4E706B080BD77
:101AE80080B584B00390029100208DF807009DF81E
:101AF8000700362812D802989DF8071007F0F4F866
:101B080000680399884203D19DF8070004B080BD9E
:101B18009DF8070001308DF80700E8E700F008F8A5
:101B280080B582B00190019807F0E8F802B080BD56
:041B380000F000F8C1
:101B3C0080B5B0B02F908DF8BB108DF8BA209DF801
:101B4C00BB00462802D101208DF8B9009DF8BB00DE
:101B5C009DF8BA10884203DD9DF8BA00019002E0AE
:101B6C009DF8BB00019001988DF8B8002F982D902E
:101B7C002F999DF8BB200DF10A0005F0A9FD9DF8E9
:101B8C00B800402835DB40208DF809002D9A9DF8CF
:101B9C0009300020C4F2050000210CF0D7FD013003
:101BAC0000B9F3E79DF8B80058B90020C4F205005D
:101BBC0000214FF481720CF043FE013000B9F4E7C0
:101BCC0017E00020C4F2050000214FF481720CF0E4
:101BDC0037FE013000B9F4E79DF809109DF8B80004
:101BEC00401A8DF8B8009DF809102D9808442D90D6
:101BFC00C5E72D9A9DF8B8300020C4F205000021ED
:101C0C000CF0A4FD013000B9F3E70020C4F205008C
:101C1C0000214FF485720CF013FE013000B9F4E78B
:041C2C0030B080BD97
:101C300080B582B08DF806008DF805109DF806007D
:101C400001460091032838D80099DFE801F0020F1F
:101C50001C299DF805204EF63210C0F2000010211C
:101C6000FFF76CFF01208DF8070029E09DF80520A3
:101C70004EF64210C0F200001021FFF75FFF012076
:101C80008DF807001CE09DF805204EF65210C0F2BA
:101C900000001021FFF752FF01208DF807000FE030
:101CA0009DF805204EF66210C0F200001021FFF7EB
:101CB00045FF01208DF8070002E000208DF80700A5
:081CC0009DF8070002B080BD91
:101CC80080B582B00190019807F074F802B080BD29
:101CD80080B582B00190019800F002F802B080BD92
:101CE80080B582B0019001980090006908B907F0AA
:101CF80039F80098006901688969884702B080BD91
:101D080080B584B00390029103980190029807F07F
:101D180067F80146019800F003F8019804B080BD07
:101D280080B584B00390029103980190002107F0D8
:101D38005DF80298006918B901990020086116E059
:101D48000299086988420BD1019807F06BF801994C
:101D580008610298006909690268D268904706E03C
:101D680001990298006908610299002008610198A8
:041D780004B080BD76
:101D7C0080B582B001900198009007F07BF8009834
:041D8C0002B080BD64
:101D900080B58AB00890079106920899049109913C
:101DA00000200861079807F071F8B0B106990DF1AD
:101DB0001700019007F070F8079807F03DF80199B7
:101DC00002900DF11600039007F072F80498029942
:101DD000039A07F079F80498006109980AB080BD69
:101DE00080B588B0079006910592079801900698F3
:101DF00007F022F807F036F90390059807F098F8F5
:101E000007F03EF9014601980291039A029B9DF862
:0C1E1000131000F023F8019808B080BD0A
:101E1C0080B582B001900198009007F013F90098FA
:041E2C0002B080BDC3
:101E300080B586B005900491039205980430029015
:101E4000049806F087FF0190039806F089FF019936
:0C1E50000246029807F00AFB06B080BDB5
:101E5C0080B58AB08DF827100892079306900698E3
:101E6C00009008A807F056F90146009809680491FB
:101E7C00049A9DF80F309DF8171007F051F907A838
:101E8C0007F064F90146009809680291029A9DF8DE
:101E9C0007309DF80E1000F053F800980AB080BD82
:101EAC0080B584B08C46079906998DF80FC08DF8D3
:101EBC000E208DF80D308DF80C10029002980190C8
:101ECC00079806F0D1FF0146019800F003F801983D
:041EDC0004B080BD11
:101EE00080B584B00390029103980190029806F0A7
:0C1EF000C1FF01460198016004B080BDF4
:101EFC0080B584B08C46079906998DF80FC08DF883
:101F0C000E208DF80D308DF80C1002900298019077
:101F1C00079807F0DBF80146019800F003F80198E8
:041F2C0004B080BDC0
:101F300080B584B00390029103980190029807F055
:0C1F4000CBF801460198016004B080BDA0
:101F4C0080B586B08DF8171004928DF80F30029082
:101F5C000298019004A800F013F807F003F9019817
:041F6C0006B080BD7E
:101F700080B582B00190019800F002F802B080BDF7
:0C1F800081B000900098006801B070472C
:101F8C0080B582B00190019800F002F802B080BDDB
:0C1F9C0081B000900098006801B0704710
:101FA80080B582B00190019800F032F802B080BD8F
:101FB80080B584B00390029103980299019100F0D2
:101FC8002FF801460198884201D906F0C1F8029815
:0C1FD800C000042106F0C4F804B080BD75
:101FE40080B584B003900291019203980090019807
:101FF40007F01EF90246009802A907F01FF900989D
:0420040004B080BDE7
:1020080080B582B00190019800F01AF802B080BD46
:1020180080B582B00190019807F002F902B080BD46
:1020280080B582B00190FEF7CDFCC00802B080BD3B
:1020380080B582B00190019807F048F902B080BDE0
:1020480080B582B00190019807F046F902B080BDD2
:1020580080B588B007900691059207980190069878
:1020680007F040F90390059806F05EFF07F004F8C2
:10207800014601980291039A029B9DF8131000F003
:0820880003F8019808B080BDC7
:1020900080B58AB08DF827100892079306900698AD
:1020A000009008A807F050F90146009809680491CB
:1020B000049A9DF80F309DF8171007F04BF907A808
:1020C00007F04AF80146009809680291029A9DF8C3
:1020D00007309DF80E10FFF739FF00980AB080BD59
:1020E00080B584B08C46079906998DF80FC08DF89D
:1020F0000E208DF80D308DF80C1002900298019092
:10210000079807F001F90146019800F003F80198DB
:0421100004B080BDDA
:1021140080B584B00390029103980190029807F06F
:0C212400F1F801460198016004B080BD94
:1021300080B582B00190019800F002F802B080BD35
:0C21400081B000900098006801B070476A
:10214C0080B582B00190019807F014F902B080BDFF
:10215C0080B582B001900091019A00991068526884
:08216C0000F002F802B080BD92
:1021740080B584B003900291019203980299019A68
:0821840007F030F904B080BD42
:10218C0080B584B00390029101920398009006F000
:10219C00BDFE009846F24861C0F20001083140F8DB
:1021AC00041B0299019A00F003F8009804B080BD5A
:1021BC0080B588B007900691059207980190069813
:1021CC0007F08EF80390059807F016F90146019870
:1021DC000291039A029B9DF8131000F003F80198EA
:0421EC0008B080BDFA
:1021F00080B58AB08DF8271008920793069006984C
:10220000009008A807F0A0F801460098096804911A
:10221000049A9DF80F309DF8171007F09BF807A857
:1022200007F01EF90146009809680291029A9DF88C
:1022300007309DF80E1000F02BF800980AB080BD12
:1022400080B584B08C46079906998DF80FC08DF83B
:102250000E208DF80D308DF80C1002900298019030
:10226000079807F0DDF80146019800F003F801989F
:0422700004B080BD79
:1022740080B584B00390029103980190029807F00E
:0C228400CDF801460198016004B080BD57
:1022900080B586B08DF8171004928DF80F3002903B
:1022A0000298019004A800F005F807F0B9F8019829
:0422B00006B080BD37
:1022B40080B582B00190019800F002F802B080BDB0
:0C22C40081B000900098006801B07047E5
:0822D00081B0009001B07047DD
:1022D80080B582B00190019807F024F902B080BD62
:1022E80080B584B003900291019203980299019AF3
:0822F80007F0EEF804B080BD10
:1023000080B584B0029002990191039108698842D6
:1023100005D10198006901680969884707E00198BB
:10232000006920B1019800690168496988470398EC
:0423300004B080BDB8
:0C23340081B0009000980C3001B07047A0
:1023400081B0009000984FF40061A0F800180021BF
:10235000C0F8041840F2FF71C0F80818C0F80C1853
:0423600001B0704711
:1023640080B584B0039102900298019003A807F00D
:102374000BF90146019807F00DF9019804B080BDEE
:1023840080B582B001900198009000F0BDFB0098E8
:0423940002B080BD56
:1023980080B584B0039102900298019003A807F0D9
:1023A80097FC0146019807F099FC019804B080BD9C
:1023B80080B584B0039102900298019003A808F0B8
:1023C80023F80146019808F025F8019804B080BD6B
:1023D80080B584B0039102900298019003A808F098
:1023E80057FB0146019808F059FB019804B080BDDD
:1023F80080B584B0039102900298019003A808F078
:102408008DFE0146019808F08FFE019804B080BD4A
:1024180080B584B0039102900298019003A809F056
:10242800CBF90146019809F0CDF9019804B080BDB7
:1024380080B584B0039102900298019003A809F036
:102448000FFD0146019809F011FD019804B080BD07
:1024580080B584B0039102900298019003A80AF015
:102468003FF8014601980AF041F8019804B080BD90
:1024780080B584B0039102900298019003A80AF0F5
:102488006FFB014601980AF071FB019804B080BD0A
:1024980080B584B0039102900298019003A80AF0D5
:1024A8009FFE014601980AF0A1FE019804B080BD84
:1024B80080B584B0039102900298019003A80BF0B4
:1024C800CFF9014601980BF0D1F9019804B080BD0D
:1024D80080B582B001900198009007F077F80098D5
:0424E80002B080BD01
:1024EC0080B58AB0089007910692089904910991D9
:1024FC0000200861079807F06DF8B0B106990DF14E
:10250C001700019007F06CF8079807F039F801995B
:10251C0002900DF11600039007F06EF804980299E2
:10252C00039A07F075F80498006109980AB080BD09
:10253C0080B588B00790069105920798019006988F
:10254C0007F01EF807F032F90390059807F094F89D
:10255C0007F03AF9014601980291039A029B9DF803
:0C256C00131000F01DF8019808B080BDAD
:1025780080B582B001900198009007F00FF900989B
:0425880002B080BD60
:10258C0080B584B0039002910398043001900298B6
:10259C0007F022FB0146019807F00CFB04B080BD4C
:1025AC0080B58AB08DF8271008920793069006988C
:1025BC00009008A807F058F90146009809680491A2
:1025CC00049A9DF80F309DF8171007F053F907A8DF
:1025DC0007F066F90146009809680291029A9DF885
:1025EC0007309DF80E1000F053F800980AB080BD2B
:1025FC0080B584B08C46079906998DF80FC08DF87C
:10260C000E208DF80D308DF80C1002900298019070
:10261C00079806F0D3FF0146019800F003F80198E3
:04262C0004B080BDB9
:1026300080B584B00390029103980190029806F04F
:0C264000C3FF01460198016004B080BD9A
:10264C0080B584B08C46079906998DF80FC08DF82B
:10265C000E208DF80D308DF80C1002900298019020
:10266C00079807F0DDF80146019800F003F801988F
:04267C0004B080BD69
:1026800080B584B00390029103980190029807F0FE
:0C269000CDF801460198016004B080BD47
:10269C0080B586B08DF8171004928DF80F3002902B
:1026AC000298019004A800F013F807F005F90198BE
:0426BC0006B080BD27
:1026C00080B582B00190019800F002F802B080BDA0
:0C26D00081B000900098006801B07047D5
:1026DC0080B582B00190019800F002F802B080BD84
:0C26EC0081B000900098006801B07047B9
:1026F80080B582B00190019800F032F802B080BD38
:1027080080B584B00390029103980299019100F07A
:102718002FF801460198884201D905F019FD029861
:0C272800C000042105F01CFD04B080BDC1
:1027340080B584B0039002910192039800900198AF
:1027440007F020F90246009802A907F021F9009841
:0427540004B080BD90
:1027580080B582B00190019800F01AF802B080BDEF
:1027680080B582B00190019807F004F902B080BDED
:1027780080B582B00190FEF725F9C00802B080BD8F
:1027880080B582B00190019807F04AF902B080BD87
:1027980080B582B00190019807F048F902B080BD79
:1027A80080B588B007900691059207980190069821
:1027B80007F042F90390059806F060FF07F006F865
:1027C800014601980291039A029B9DF8131000F0AC
:0827D80003F8019808B080BD70
:1027E00080B58AB08DF82710089207930690069856
:1027F000009008A807F052F9014600980968049172
:10280000049A9DF80F309DF8171007F04DF907A8AE
:1028100007F04CF80146009809680291029A9DF869
:1028200007309DF80E10FFF739FF00980AB080BD01
:1028300080B584B08C46079906998DF80FC08DF845
:102840000E208DF80D308DF80C100290029801903A
:10285000079807F003F90146019800F003F8019882
:0428600004B080BD83
:1028640080B584B00390029103980190029807F018
:0C287400F3F801460198016004B080BD3B
:1028800080B582B00190019800F002F802B080BDDE
:0C28900081B000900098006801B0704713
:10289C0080B582B00190019807F016F902B080BDA6
:1028AC0080B582B001900091019A0099106852682D
:0828BC0000F002F802B080BD3B
:1028C40080B584B003900291019203980299019A11
:0828D40007F032F904B080BDE9
:1028DC0080B584B00390029101920398009006F0A9
:1028EC00BFFE009846F29061C0F20001083140F83A
:1028FC00041B0299019A00F003F8009804B080BD03
:10290C0080B588B0079006910592079801900698BB
:10291C0007F090F80390059807F018F90146019814
:10292C000291039A029B9DF8131000F003F8019892
:04293C0008B080BDA2
:1029400080B58AB08DF827100892079306900698F4
:10295000009008A807F0A2F80146009809680491C1
:10296000049A9DF80F309DF8171007F09DF807A8FE
:1029700007F020F90146009809680291029A9DF833
:1029800007309DF80E1000F02BF800980AB080BDBB
:1029900080B584B08C46079906998DF80FC08DF8E4
:1029A0000E208DF80D308DF80C10029002980190D9
:1029B000079807F0DFF80146019800F003F8019846
:0429C00004B080BD22
:1029C40080B584B00390029103980190029807F0B7
:0C29D400CFF801460198016004B080BDFE
:1029E00080B586B08DF8171004928DF80F300290E4
:1029F0000298019004A800F005F807F0BBF80198D0
:042A000006B080BDDF
:102A040080B582B00190019800F002F802B080BD58
:0C2A140081B000900098006801B070478D
:082A200081B0009001B0704785
:102A280080B582B00190019807F012F902B080BD1C
:102A380083B002908DF8071002990091D1F8080828
:102A48000130C1F80808B1F80018884203D300998A
:102A58000020C1F8080800989DF80710D0F8082849
:102A68008154D0F80818D0F80C0888420ED1009983
:102A7800D1F80C080130C1F80C08B1F800188842E8
:102A880003D300990020C1F80C0805E00099D1F89B
:0C2A980004080130C1F8040803B07047C6
:102AA40080B584B00390029103980190029900F0DC
:082AB40003F8019804B080BD95
:102ABC0080B584B002900191029800900390019827
:102ACC00006918B900990020086116E0019908699D
:102ADC0088420BD1009807F0BFF800990861019863
:102AEC00006909690268D268904706E0019800699C
:102AFC0001688968884700990861039804B080BD13
:102B0C0080B584B0029002990191039108698842C2
:102B1C0005D10198006901680969884707E00198A7
:102B2C00006920B1019800690168496988470398D8
:042B3C0004B080BDA4
:102B400080B584B00390029103980190029900F03F
:082B50000DF8019804B080BDEE
:102B580080B582B0019000910198009900F02AF8A0
:042B680002B080BD7A
:102B6C0080B584B002900191029800900390019876
:102B7C00006918B900990020086116E001990869EC
:102B8C0088420BD1009804F0F9FD00990861019876
:102B9C00006909690268D268904706E001980069EB
:102BAC0001688968884700990861039804B080BD62
:102BBC0080B58EB00D900C910D9906910C988842B1
:102BCC0000D187E006990869884242D10C990869BE
:102BDC0088423ED108A804F0D1FD01460698079121
:102BEC00006907990268D2689047069800690168E5
:102BFC000969884706980021049101610C990969BB
:102C0C00039104F0BBFD014603980268D26890471B
:102C1C000C980069016809698847049906980C9A10
:102C2C00116104F0ABFD06990861079805900C98AA
:102C3C0004F0A4FD014605980268D26890470798F5
:102C4C000168096988470C9804F098FD0C99086193
:102C5C0040E006990869884219D1069800690290EB
:102C6C000C9804F08BFD014602980268D2689047DC
:102C7C000698006901680969884706990C980069EB
:102C8C0008610C9804F07AFD0C99086122E00C990B
:102C9C000869884218D106980C990969019104F0C9
:102CAC006DFD014601980268D26890470C98006946
:102CBC00016809698847069801690C9A116104F04A
:102CCC005DFD0699086105E0069810300C991031ED
:082CDC0006F0DEFF0EB080BD22
:102CE40080B582B001900198009007F017F8009821
:042CF40002B080BDED
:102CF80080B58AB0089007910692089904910991C5
:102D080000200861079807F00DF8B0B106990DF199
:102D18001700019007F00CF8079806F0D9FF019901
:102D280002900DF11600039007F00EF8049802992E
:102D3800039A07F015F80498006109980AB080BD55
:102D480080B588B00790069105920798019006987B
:102D580006F0BEFF07F0C6F80390059807F028F8BC
:102D680007F0CEF8014601980291039A029B9DF85C
:0C2D7800131000F00DF8019808B080BDA9
:102D840080B582B001900198009005F095F8009804
:042D940002B080BD4C
:102D980080B58AB08DF82710089207930690069898
:102DA800009008A807F0FCF801460098096804910B
:102DB800049A9DF80F309DF8171007F0F7F807A848
:102DC80007F00AF90146009809680291029A9DF8ED
:102DD80007309DF80E1000F053F800980AB080BD37
:102DE80080B584B08C46079906998DF80FC08DF888
:102DF8000E208DF80D308DF80C100290029801907D
:102E0800079806F083FF0146019800F003F801983F
:042E180004B080BDC5
:102E1C0080B584B00390029103980190029806F05B
:0C2E2C0073FF01460198016004B080BDF6
:102E380080B584B08C46079906998DF80FC08DF837
:102E48000E208DF80D308DF80C100290029801902C
:102E5800079807F081F80146019800F003F80198F7
:042E680004B080BD75
:102E6C0080B584B00390029103980190029807F00A
:0C2E7C0071F801460198016004B080BDAF
:102E880080B586B08DF8171004928DF80F30029037
:102E98000298019004A800F013F807F0A9F8019827
:042EA80006B080BD33
:102EAC0080B582B00190019800F002F802B080BDAC
:0C2EBC0081B000900098006801B07047E1
:102EC80080B582B00190019800F002F802B080BD90
:0C2ED80081B000900098006801B07047C5
:102EE40080B582B00190019800F032F802B080BD44
:102EF40080B584B00390029103980299019100F087
:102F04002FF801460198884201D905F023F9029867
:0C2F1400C000042105F026F904B080BDC7
:102F200080B584B0039002910192039800900198BB
:102F300007F0C4F80246009802A907F0C5F8009807
:042F400004B080BD9C
:102F440080B582B00190019800F01AF802B080BDFB
:102F540080B582B00190019807F0A8F802B080BD56
:102F640080B582B00190FDF72FFDC00802B080BD8E
:102F740080B582B00190019807F0EEF802B080BDF0
:102F840080B582B00190019807F0ECF802B080BDE2
:102F940080B588B00790069105920798019006982D
:102FA40007F0E6F80390059806F004FF06F0AAFF80
:102FB400014601980291039A029B9DF8131000F0B8
:082FC40003F8019808B080BD7C
:102FCC0080B58AB08DF82710089207930690069862
:102FDC00009008A807F0F6F80146009809680491DB
:102FEC00049A9DF80F309DF8171007F0F1F807A818
:102FFC0006F0F0FF0146009809680291029A9DF8CC
:10300C0007309DF80E10FFF739FF00980AB080BD0D
:10301C0080B584B08C46079906998DF80FC08DF851
:10302C000E208DF80D308DF80C1002900298019046
:10303C00079807F0A7F80146019800F003F80198EB
:04304C0004B080BD8F
:1030500080B584B00390029103980190029807F024
:0C30600097F801460198016004B080BDA3
:10306C0080B582B00190019800F002F802B080BDEA
:0C307C0081B000900098006801B070471F
:1030880080B582B00190019807F0BAF802B080BD0F
:1030980080B582B001900091019A00991068526839
:0830A80000F002F802B080BD47
:1030B00080B584B003900291019203980299019A1D
:0830C00007F0D6F804B080BD52
:1030C80080B584B00390029101920398009004F0B7
:1030D800C3FD009846F2D861C0F20001083140F8FB
:1030E800041B0299019A00F003F8009804B080BD0F
:1030F80080B588B0079006910592079801900698C8
:1031080007F034F80390059807F0BCF801460198D9
:103118000291039A029B9DF8131000F003F801989E
:0431280008B080BDAE
:10312C0080B58AB08DF82710089207930690069800
:10313C00009008A807F046F8014600980968049129
:10314C00049A9DF80F309DF8171007F041F807A866
:10315C0007F0C4F80146009809680291029A9DF89C
:10316C0007309DF80E1000F02BF800980AB080BDC7
:10317C0080B584B08C46079906998DF80FC08DF8F0
:10318C000E208DF80D308DF80C10029002980190E5
:10319C00079807F083F80146019800F003F80198AE
:0431AC0004B080BD2E
:1031B00080B584B00390029103980190029807F0C3
:0C31C00073F801460198016004B080BD66
:1031CC0080B586B08DF8171004928DF80F300290F0
:1031DC000298019004A800F005F807F05FF8019838
:0431EC0006B080BDEC
:1031F00080B582B00190019800F002F802B080BD65
:0C32000081B000900098006801B0704799
:08320C0081B0009001B0704791
:1032140080B582B00190019800F00EF800F002F839
:0432240002B080BDB7
:1032280080B582B00190019807F060F800F00AF8C4
:0432380002B080BDA3
:10323C0080B582B00190019807F0DEF802B080BD35
:10324C0080B582B00190019807F054F802B080BDAF
:10325C0080B582B001900198009007F0F7F80098C3
:04326C0002B080BD6F
:1032700080B58AB008900791069208990491099147
:1032800000200861079807F0EDF8B0B106990DF13C
:103290001700019007F0ECF8079807F0B9F80199CA
:1032A00002900DF11600039007F0EEF804980299D1
:1032B000039A07F0F5F80498006109980AB080BDF8
:1032C00080B588B0079006910592079801900698FE
:1032D00007F09EF807F0A6F90390059807F008F9A3
:1032E00007F0AEF9014601980291039A029B9DF8FE
:0C32F000131000F00DF8019808B080BD2C
:1032FC0080B582B001900198009004F0D9FD00983F
:04330C0002B080BDCE
:1033100080B58AB08DF8271008920793069006981A
:10332000009008A807F0DCF90146009809680491AC
:10333000049A9DF80F309DF8171007F0D7F907A8E9
:1033400007F0EAF90146009809680291029A9DF88F
:1033500007309DF80E1000F053F800980AB080BDB9
:1033600080B584B08C46079906998DF80FC08DF80A
:103370000E208DF80D308DF80C10029002980190FF
:10338000079807F063F80146019800F003F80198E8
:0433900004B080BD48
:1033940080B584B00390029103980190029807F0DD
:0C33A40053F801460198016004B080BDA0
:1033B00080B584B08C46079906998DF80FC08DF8BA
:1033C0000E208DF80D308DF80C10029002980190AF
:1033D000079807F061F90146019800F003F8019899
:0433E00004B080BDF8
:1033E40080B584B00390029103980190029807F08D
:0C33F40051F901460198016004B080BD51
:1034000080B586B08DF8171004928DF80F300290B9
:103410000298019004A800F013F807F089F90198C8
:0434200006B080BDB5
:1034240080B582B00190019800F002F802B080BD2E
:0C34340081B000900098006801B0704763
:1034400080B582B00190019800F002F802B080BD12
:0C34500081B000900098006801B0704747
:10345C0080B582B00190019800F032F802B080BDC6
:10346C0080B584B00390029103980299019100F009
:10347C002FF801460198884201D904F067FE0298A2
:0C348C00C000042104F06AFE04B080BD02
:1034980080B584B00390029101920398009001983E
:1034A80007F0A4F90246009802A907F0A5F90098C8
:0434B80004B080BD1F
:1034BC0080B582B00190019800F01AF802B080BD7E
:1034CC0080B582B00190019807F088F902B080BDF8
:1034DC0080B582B00190FDF773FAC00802B080BDD0
:1034EC0080B582B00190019807F0CEF902B080BD92
:1034FC0080B582B00190019807F0CCF902B080BD84
:10350C0080B588B0079006910592079801900698AF
:10351C0007F0C6F90390059806F0E4FF07F08AF867
:10352C00014601980291039A029B9DF8131000F03A
:08353C0003F8019808B080BDFE
:1035440080B58AB08DF827100892079306900698E4
:10355400009008A807F0D6F901460098096804917C
:10356400049A9DF80F309DF8171007F0D1F907A8B9
:1035740007F0D0F80146009809680291029A9DF874
:1035840007309DF80E10FFF739FF00980AB080BD90
:1035940080B584B08C46079906998DF80FC08DF8D4
:1035A4000E208DF80D308DF80C10029002980190C9
:1035B400079807F087F90146019800F003F801988D
:0435C40004B080BD12
:1035C80080B584B00390029103980190029807F0A7
:0C35D80077F901460198016004B080BD45
:1035E40080B582B00190019800F002F802B080BD6D
:0C35F40081B000900098006801B07047A2
:1036000080B582B00190019807F09AF902B080BDB0
:1036100080B582B001900091019A009910685268BB
:0836200000F002F802B080BDC9
:1036280080B584B003900291019203980299019A9F
:0836380007F0B6F904B080BDF3
:1036400080B584B00390029101920398009004F039
:1036500007FB009846F2FC61C0F20001083140F817
:10366000041B0299019A00F003F8009804B080BD91
:1036700080B588B00790069105920798019006984A
:1036800007F014F90390059807F09CF9014601989A
:103690000291039A029B9DF8131000F003F8019821
:0436A00008B080BD31
:1036A40080B58AB08DF82710089207930690069883
:1036B400009008A807F026F90146009809680491CB
:1036C400049A9DF80F309DF8171007F021F907A808
:1036D40007F0A4F90146009809680291029A9DF83E
:1036E40007309DF80E1000F02BF800980AB080BD4A
:1036F40080B584B08C46079906998DF80FC08DF873
:103704000E208DF80D308DF80C1002900298019067
:10371400079807F063F90146019800F003F801984F
:0437240004B080BDB0
:1037280080B584B00390029103980190029807F045
:0C37380053F901460198016004B080BD07
:1037440080B586B08DF8171004928DF80F30029072
:103754000298019004A800F005F807F03FF90198D9
:0437640006B080BD6E
:1037680080B582B00190019800F002F802B080BDE7
:0C37780081B000900098006801B070471C
:0837840081B0009001B0704714
:10378C0080B582B00190019800F00EF800F002F8BC
:04379C0002B080BD3A
:1037A00080B582B00190019807F040F900F00AF866
:0437B00002B080BD26
:1037B40080B582B00190019807F066F902B080BD2F
:1037C40080B582B00190019807F034F902B080BD51
:1037D40080B598B01790179802900020C4F20500A5
:1037E4000390202104910AF0DDFE04990246039817
:1037F4001692169A03F00CF90398049903F012FB3D
:103804001590159870B10020C4F20500202105AA76
:10381400019215AB03F06AFB01990298BDF854209C
:1038240007F012F90020C4F20500202100220AF05A
:103834002DFF029941F24202885A40F00400885256
:0438440018B080BD7B
:1038480080B582B001900198009007F045F9009882
:0438580002B080BD7D
:10385C0080B58AB008900791069208990491099155
:10386C0000200861079807F03BF9B0B106990DF1FB
:10387C001700019007F03AF9079807F007F901993A
:10388C0002900DF11600039007F03CF90498029990
:10389C00039A07F043F90498006109980AB080BDB7
:1038AC0080B588B00790069105920798019006980C
:1038BC0007F0ECF807F0F4F90390059807F056F9C7
:1038CC0007F0FCF9014601980291039A029B9DF8BE
:0C38DC00131000F00DF8019808B080BD3A
:1038E80080B582B001900198009004F0E3FA009846
:0438F80002B080BDDD
:1038FC0080B58AB08DF82710089207930690069829
:10390C00009008A807F02AFA01460098096804916B
:10391C00049A9DF80F309DF8171007F025FA07A8A8
:10392C0007F038FA0146009809680291029A9DF84E
:10393C0007309DF80E1000F053F800980AB080BDC7
:10394C0080B584B08C46079906998DF80FC08DF818
:10395C000E208DF80D308DF80C100290029801900D
:10396C00079807F0B1F80146019800F003F80198A8
:04397C0004B080BD56
:1039800080B584B00390029103980190029807F0EB
:0C399000A1F801460198016004B080BD60
:10399C0080B584B08C46079906998DF80FC08DF8C8
:1039AC000E208DF80D308DF80C10029002980190BD
:1039BC00079807F0AFF90146019800F003F8019859
:0439CC0004B080BD06
:1039D00080B584B00390029103980190029807F09B
:0C39E0009FF901460198016004B080BD11
:1039EC0080B586B08DF8171004928DF80F300290C8
:1039FC000298019004A800F013F807F0D7F9019889
:043A0C0006B080BDC3
:103A100080B582B00190019800F002F802B080BD3C
:0C3A200081B000900098006801B0704771
:103A2C0080B582B00190019800F002F802B080BD20
:0C3A3C0081B000900098006801B0704755
:103A480080B582B00190019800F032F802B080BDD4
:103A580080B584B00390029103980299019100F017
:103A68002FF801460198884201D904F071FB0298A9
:0C3A7800C000042104F074FB04B080BD09
:103A840080B584B00390029101920398009001984C
:103A940007F0F2F90246009802A907F0F3F900983A
:043AA40004B080BD2D
:103AA80080B582B00190019800F01AF802B080BD8C
:103AB80080B582B00190019807F0D6F902B080BDB8
:103AC80080B582B00190FCF77DFFC00802B080BDD0
:103AD80080B582B00190019807F01CFA02B080BD51
:103AE80080B582B00190019807F01AFA02B080BD43
:103AF80080B588B0079006910592079801900698BE
:103B080007F014FA0390059807F032F807F0D8F890
:103B1800014601980291039A029B9DF8131000F048
:083B280003F8019808B080BD0C
:103B300080B58AB08DF827100892079306900698F2
:103B4000009008A807F024FA01460098096804913B
:103B5000049A9DF80F309DF8171007F01FFA07A878
:103B600007F01EF90146009809680291029A9DF833
:103B700007309DF80E10FFF739FF00980AB080BD9E
:103B800080B584B08C46079906998DF80FC08DF8E2
:103B90000E208DF80D308DF80C10029002980190D7
:103BA000079807F0D5F90146019800F003F801984D
:043BB00004B080BD20
:103BB40080B584B00390029103980190029807F0B5
:0C3BC400C5F901460198016004B080BD05
:103BD00080B582B00190019800F002F802B080BD7B
:0C3BE00081B000900098006801B07047B0
:103BEC0080B582B00190019807F0E8F902B080BD71
:103BFC0080B582B001900091019A009910685268CA
:083C0C0000F002F802B080BDD7
:103C140080B584B003900291019203980299019AAD
:083C240007F004FA04B080BDB2
:103C2C0080B584B00390029101920398009004F047
:103C3C0011F8009846F22071C0F20001083140F8EA
:103C4C00041B0299019A00F003F8009804B080BD9F
:103C5C0080B588B007900691059207980190069858
:103C6C0007F062F90390059807F0EAF9014601980C
:103C7C000291039A029B9DF8131000F003F801982F
:043C8C0008B080BD3F
:103C900080B58AB08DF82710089207930690069891
:103CA000009008A807F074F901460098096804918B
:103CB000049A9DF80F309DF8171007F06FF907A8C8
:103CC00007F0F2F90146009809680291029A9DF8FE
:103CD00007309DF80E1000F02BF800980AB080BD58
:103CE00080B584B08C46079906998DF80FC08DF881
:103CF0000E208DF80D308DF80C1002900298019076
:103D0000079807F0B1F90146019800F003F801980F
:043D100004B080BDBE
:103D140080B584B00390029103980190029807F053
:0C3D2400A1F901460198016004B080BDC7
:103D300080B586B08DF8171004928DF80F30029080
:103D40000298019004A800F005F807F08DF9019899
:043D500006B080BD7C
:103D540080B582B00190019800F002F802B080BDF5
:0C3D640081B000900098006801B070472A
:083D700081B0009001B0704722
:103D780080B582B00190019800F00EF800F002F8CA
:043D880002B080BD48
:103D8C0080B582B00190019807F08EF900F00AF826
:043D9C0002B080BD34
:103DA00080B582B00190019807F0B6F902B080BDED
:103DB00080B582B00190019807F082F902B080BD11
:103DC00080B582B001900198009007F0CFF900987B
:043DD00002B080BD00
:103DD40080B58AB0089007910692089904910991D8
:103DE40000200861079807F0C5F9B0B106990DF1F4
:103DF4001700019007F0C4F9079807F091F90199A9
:103E040002900DF11600039007F0C6F90498029988
:103E1400039A07F0CDF90498006109980AB080BDAF
:103E240080B588B00790069105920798019006988E
:103E340007F076F907F074FA0390059807F0E0F9B3
:103E440007F07CFA014601980291039A029B9DF8BF
:0C3E5400131000F023F8019808B080BDA6
:103E600080B582B001900198009005F0F1F80098BB
:043E700002B080BD5F
:103E740080B586B0059004910392059804300290B1
:103E8400049804F065FF0190039804F067FF01991A
:0C3E94000246029807F048FC06B080BD12
:103EA00080B58AB08DF8271008920793069006987F
:103EB000009008A807F094FA014600980968049158
:103EC000049A9DF80F309DF8171007F08FFA07A895
:103ED00007F0A2FA0146009809680291029A9DF83B
:103EE00007309DF80E1000F053F800980AB080BD1E
:103EF00080B584B08C46079906998DF80FC08DF86F
:103F00000E208DF80D308DF80C1002900298019063
:103F1000079807F025F90146019800F003F8019889
:043F200004B080BDAC
:103F240080B584B00390029103980190029807F041
:0C3F340015F901460198016004B080BD41
:103F400080B584B08C46079906998DF80FC08DF81E
:103F50000E208DF80D308DF80C1002900298019013
:103F6000079807F019FA0146019800F003F8019844
:043F700004B080BD5C
:103F740080B584B00390029103980190029807F0F1
:0C3F840009FA01460198016004B080BDFC
:103F900080B586B08DF8171004928DF80F3002901E
:103FA0000298019004A800F013F807F041FA019874
:043FB00006B080BD1A
:103FB40080B582B00190019800F002F802B080BD93
:0C3FC40081B000900098006801B07047C8
:103FD00080B582B00190019800F002F802B080BD77
:0C3FE00081B000900098006801B07047AC
:103FEC0080B582B00190019800F032F802B080BD2B
:103FFC0080B584B00390029103980299019100F06E
:10400C002FF801460198884201D904F09FF80298D4
:0C401C00C000042104F0A2F804B080BD34
:1040280080B584B0039002910192039800900198A2
:1040380007F05CFA0246009802A907F05DFA0098BA
:0440480004B080BD83
:10404C0080B582B00190019800F01AF802B080BDE2
:10405C0080B582B00190019807F040FA02B080BDA3
:10406C0080B582B00190FCF7ABFCC00802B080BDFB
:10407C0080B582B00190019807F086FA02B080BD3D
:10408C0080B582B00190019807F084FA02B080BD2F
:10409C0080B588B007900691059207980190069814
:1040AC0007F07EFA0390059807F0A6F807F042F99E
:1040BC00014601980291039A029B9DF8131000F09F
:0840CC0003F8019808B080BD63
:1040D40080B58AB08DF82710089207930690069849
:1040E400009008A807F08EFA014600980968049128
:1040F400049A9DF80F309DF8171007F089FA07A865
:1041040007F088F90146009809680291029A9DF81F
:1041140007309DF80E10FFF739FF00980AB080BDF4
:1041240080B584B08C46079906998DF80FC08DF838
:104134000E208DF80D308DF80C100290029801902D
:10414400079807F03FFA0146019800F003F8019838
:0441540004B080BD76
:1041580080B584B00390029103980190029807F00B
:0C4168002FFA01460198016004B080BDF0
:1041740080B582B00190019800F002F802B080BDD1
:0C41840081B000900098006801B0704706
:1041900080B582B00190019807F052FA02B080BD5C
:1041A00080B582B001900091019A00991068526820
:0841B00000F002F802B080BD2E
:1041B80080B584B003900291019203980299019A04
:0841C80007F06EFA04B080BD9F
:1041D00080B584B00390029101920398009004F09E
:1041E0009BFE009846F24471C0F20001083140F88D
:1041F000041B0299019A00F003F8009804B080BDF6
:1042000080B588B0079006910592079801900698AE
:1042100007F0CCF90390059807F054FA014601988D
:104220000291039A029B9DF8131000F003F8019885
:0442300008B080BD95
:1042340080B58AB08DF827100892079306900698E7
:10424400009008A807F0DEF9014600980968049177
:10425400049A9DF80F309DF8171007F0D9F907A8B4
:1042640007F05CFA0146009809680291029A9DF8E9
:1042740007309DF80E1000F02BF800980AB080BDAE
:1042840080B584B08C46079906998DF80FC08DF8D7
:104294000E208DF80D308DF80C10029002980190CC
:1042A400079807F01BFA0146019800F003F80198FB
:0442B40004B080BD15
:1042B80080B584B00390029103980190029807F0AA
:0C42C8000BFA01460198016004B080BDB3
:1042D40080B586B08DF8171004928DF80F300290D7
:1042E4000298019004A800F005F807F0F7F9019886
:0442F40006B080BDD3
:1042F80080B582B00190019800F002F802B080BD4C
:0C43080081B000900098006801B0704780
:0843140081B0009001B0704778
:10431C0080B582B00190019807F046FA02B080BDDA
:10432C0080B584B003900291019203980299019A8E
:08433C0007F02CFA04B080BD6B
:1043440082B00190ADF802100199BDF8020000F0AE
:1043540003004FF48252885441F2420200208852F2
:0C436400885A40F04000885202B07047B8
:1043700080B582B001900198009007F045FA00984E
:0443800002B080BD4A
:1043840080B58AB008900791069208990491099122
:1043940000200861079807F03BFAB0B106990DF1C7
:1043A4001700019007F03AFA079807F007FA019905
:1043B40002900DF11600039007F03CFA049802995C
:1043C400039A07F043FA0498006109980AB080BD83
:1043D40080B588B0079006910592079801900698D9
:1043E40007F0ECF907F0EAFA0390059807F056FA9B
:1043F40007F0F2FA014601980291039A029B9DF894
:0C440400131000F023F8019808B080BDF0
:1044100080B582B001900198009004F019FE0098D8
:0444200002B080BDA9
:1044240080B586B0059004910392059804300290FB
:10443400049804F08DFC0190039804F08FFC01991A
:0C4444000246029807F0BEFC06B080BDE6
:1044500080B58AB08DF827100892079306900698C9
:10446000009008A807F00AFB01460098096804912B
:10447000049A9DF80F309DF8171007F005FB07A868
:1044800007F018FB0146009809680291029A9DF80E
:1044900007309DF80E1000F053F800980AB080BD68
:1044A00080B584B08C46079906998DF80FC08DF8B9
:1044B0000E208DF80D308DF80C10029002980190AE
:1044C000079807F09BF90146019800F003F801985E
:0444D00004B080BDF7
:1044D40080B584B00390029103980190029807F08C
:0C44E4008BF901460198016004B080BD16
:1044F00080B584B08C46079906998DF80FC08DF869
:104500000E208DF80D308DF80C100290029801905D
:10451000079807F08FFA0146019800F003F8019818
:0445200004B080BDA6
:1045240080B584B00390029103980190029807F03B
:0C4534007FFA01460198016004B080BDD0
:1045400080B586B08DF8171004928DF80F30029068
:104550000298019004A800F013F807F0B7FA019848
:0445600006B080BD64
:1045640080B582B00190019800F002F802B080BDDD
:0C45740081B000900098006801B0704712
:1045800080B582B00190019800F002F802B080BDC1
:0C45900081B000900098006801B07047F6
:10459C0080B582B00190019800F032F802B080BD75
:1045AC0080B584B00390029103980299019100F0B8
:1045BC002FF801460198884201D903F0C7FD0298F3
:0C45CC00C000042103F0CAFD04B080BD53
:1045D80080B584B0039002910192039800900198ED
:1045E80007F0D2FA0246009802A907F0D3FA009819
:0445F80004B080BDCE
:1045FC0080B582B00190019800F01AF802B080BD2D
:10460C0080B582B00190019807F0B6FA02B080BD77
:10461C0080B582B00190FCF7D3F9C00802B080BD20
:10462C0080B582B00190019807F0FCFA02B080BD11
:10463C0080B582B00190019807F0FAFA02B080BD03
:10464C0080B588B00790069105920798019006985E
:10465C0007F0F4FA0390059807F01CF907F0B8F985
:10466C00014601980291039A029B9DF8131000F0E9
:08467C0003F8019808B080BDAD
:1046840080B58AB08DF82710089207930690069893
:10469400009008A807F004FB0146009809680491FB
:1046A400049A9DF80F309DF8171007F0FFFA07A839
:1046B40007F0FEF90146009809680291029A9DF8F4
:1046C40007309DF80E10FFF739FF00980AB080BD3F
:1046D40080B584B08C46079906998DF80FC08DF883
:1046E4000E208DF80D308DF80C1002900298019078
:1046F400079807F0B5FA0146019800F003F801980D
:0447040004B080BDC0
:1047080080B584B00390029103980190029807F055
:0C471800A5FA01460198016004B080BDC4
:1047240080B582B00190019800F002F802B080BD1B
:0C47340081B000900098006801B0704750
:1047400080B582B00190019807F0C8FA02B080BD30
:1047500080B582B001900091019A0099106852686A
:0847600000F002F802B080BD78
:1047680080B584B003900291019203980299019A4E
:0847780007F0E4FA04B080BD73
:1047800080B584B00390029101920398009004F0E8
:10479000C3FB009846F26871C0F20001083140F88E
:1047A000041B0299019A00F003F8009804B080BD40
:1047B00080B588B0079006910592079801900698F9
:1047C00007F042FA0390059807F0CAFA01460198EB
:1047D0000291039A029B9DF8131000F003F80198D0
:0447E00008B080BDE0
:1047E40080B58AB08DF82710089207930690069832
:1047F400009008A807F054FA01460098096804914B
:10480400049A9DF80F309DF8171007F04FFA07A887
:1048140007F0D2FA0146009809680291029A9DF8BD
:1048240007309DF80E1000F02BF800980AB080BDF8
:1048340080B584B08C46079906998DF80FC08DF821
:104844000E208DF80D308DF80C1002900298019016
:10485400079807F091FA0146019800F003F80198CF
:0448640004B080BD5F
:1048680080B584B00390029103980190029807F0F4
:0C48780081FA01460198016004B080BD87
:1048840080B586B08DF8171004928DF80F30029021
:104894000298019004A800F005F807F06DFA019859
:0448A40006B080BD1D
:1048A80080B582B00190019800F002F802B080BD96
:0C48B80081B000900098006801B07047CB
:0848C40081B0009001B07047C3
:1048CC0080B582B00190019807F0C2FA02B080BDA9
:1048DC0080B584B003900291019203980299019AD9
:0848EC0007F0A2FA04B080BD40
:1048F40080B582B001900198009007F0D7FA009833
:0449040002B080BDC0
:1049080080B58AB008900791069208990491099198
:1049180000200861079807F0CDFAB0B106990DF1AB
:104928001700019007F0CCFA079807F099FA019957
:1049380002900DF11600039007F0CEFA0498029940
:10494800039A07F0D5FA0498006109980AB080BD67
:1049580080B588B00790069105920798019006984F
:1049680007F07EFA07F07CFB0390059807F0E8FA59
:1049780007F084FB014601980291039A029B9DF877
:0C498800131000F023F8019808B080BD67
:1049940080B582B001900198009004F057FB009814
:0449A40002B080BD20
:1049A80080B586B005900491039205980430029072
:1049B800049804F0CBF90190039804F0CDF901991B
:0C49C8000246029807F050FD06B080BDCA
:1049D40080B58AB08DF82710089207930690069840
:1049E400009008A807F09CFB014600980968049110
:1049F400049A9DF80F309DF8171007F097FB07A84D
:104A040007F0AAFB0146009809680291029A9DF8F2
:104A140007309DF80E1000F053F800980AB080BDDE
:104A240080B584B08C46079906998DF80FC08DF82F
:104A34000E208DF80D308DF80C1002900298019024
:104A4400079807F02DFA0146019800F003F8019841
:044A540004B080BD6D
:104A580080B584B00390029103980190029807F002
:0C4A68001DFA01460198016004B080BDF9
:104A740080B584B08C46079906998DF80FC08DF8DF
:104A84000E208DF80D308DF80C10029002980190D4
:104A9400079807F021FB0146019800F003F80198FC
:044AA40004B080BD1D
:104AA80080B584B00390029103980190029807F0B2
:0C4AB80011FB01460198016004B080BDB4
:104AC40080B586B08DF8171004928DF80F300290DF
:104AD4000298019004A800F013F807F049FB01982C
:044AE40006B080BDDB
:104AE80080B582B00190019800F002F802B080BD54
:0C4AF80081B000900098006801B0704789
:104B040080B582B00190019800F002F802B080BD37
:0C4B140081B000900098006801B070476C
:104B200080B582B00190019800F032F802B080BDEB
:104B300080B584B00390029103980299019100F02E
:104B40002FF801460198884201D903F005FB02982D
:0C4B5000C000042103F008FB04B080BD8D
:104B5C0080B584B003900291019203980090019863
:104B6C0007F064FB0246009802A907F065FB009869
:044B7C0004B080BD44
:104B800080B582B00190019800F01AF802B080BDA3
:104B900080B582B00190019807F048FB02B080BD5B
:104BA00080B582B00190FBF711FFC00802B080BD54
:104BB00080B582B00190019807F08EFB02B080BDF5
:104BC00080B582B00190019807F08CFB02B080BDE7
:104BD00080B588B0079006910592079801900698D5
:104BE00007F086FB0390059807F0AEF907F04AFA44
:104BF000014601980291039A029B9DF8131000F060
:084C000003F8019808B080BD23
:104C080080B58AB08DF82710089207930690069809
:104C1800009008A807F096FB0146009809680491DF
:104C2800049A9DF80F309DF8171007F091FB07A81C
:104C380007F090FA0146009809680291029A9DF8D7
:104C480007309DF80E10FFF739FF00980AB080BDB5
:104C580080B584B08C46079906998DF80FC08DF8F9
:104C68000E208DF80D308DF80C10029002980190EE
:104C7800079807F047FB0146019800F003F80198F0
:044C880004B080BD37
:104C8C0080B584B00390029103980190029807F0CC
:0C4C9C0037FB01460198016004B080BDA8
:104CA80080B582B00190019800F002F802B080BD92
:0C4CB80081B000900098006801B07047C7
:104CC40080B582B00190019807F05AFB02B080BD14
:104CD40080B582B001900091019A009910685268E1
:084CE40000F002F802B080BDEF
:104CEC0080B584B003900291019203980299019AC5
:084CFC0007F076FB04B080BD57
:104D040080B584B00390029101920398009004F05E
:104D140001F9009846F28C71C0F20001083140F8A4
:104D2400041B0299019A00F003F8009804B080BDB6
:104D340080B588B00790069105920798019006986F
:104D440007F0D4FA0390059807F05CFB014601983C
:104D54000291039A029B9DF8131000F003F8019846
:044D640008B080BD56
:104D680080B58AB08DF827100892079306900698A8
:104D7800009008A807F0E6FA01460098096804912F
:104D8800049A9DF80F309DF8171007F0E1FA07A86C
:104D980007F064FB0146009809680291029A9DF8A1
:104DA80007309DF80E1000F02BF800980AB080BD6F
:104DB80080B584B08C46079906998DF80FC08DF898
:104DC8000E208DF80D308DF80C100290029801908D
:104DD800079807F023FB0146019800F003F80198B3
:044DE80004B080BDD6
:104DEC0080B584B00390029103980190029807F06B
:0C4DFC0013FB01460198016004B080BD6B
:104E080080B586B08DF8171004928DF80F30029097
:104E18000298019004A800F005F807F0FFFA01983D
:044E280006B080BD93
:104E2C0080B582B00190019800F002F802B080BD0C
:0C4E3C0081B000900098006801B0704741
:084E480081B0009001B0704739
:104E500080B582B00190019807F040FB02B080BDA0
:104E600080B584B003900291019203980299019A4F
:084E700000F002F804B080BD5F
:104E780080B586B00590049103920598006800F506
:104E880081520020C4F205000290002101910723FD
:104E980009F05EFC019902984FF4857209F0D2FC82
:044EA80006B080BD13
:104EAC0080B582B001900198009007F03BFB009810
:044EBC0002B080BD03
:104EC00080B58AB0089007910692089904910991DB
:104ED00000200861079807F031FBB0B106990DF189
:104EE0001700019007F030FB079807F0FDFA0199D1
:104EF00002900DF11600039007F032FB049802991E
:104F0000039A07F039FB0498006109980AB080BD44
:104F100080B588B007900691059207980190069891
:104F200007F0E2FA07F0E0FB0390059807F04CFB6E
:104F300007F0E8FB014601980291039A029B9DF855
:0C4F4000131000F023F8019808B080BDA9
:104F4C0080B582B001900198009004F07BF8009835
:044F5C0002B080BD62
:104F600080B586B0059004910392059804300290B4
:104F7000049803F0EFFE0190039803F0F1FE01990D
:0C4F80000246029807F0B4FD06B080BDA8
:104F8C0080B58AB08DF82710089207930690069882
:104F9C00009008A807F000FC0146009809680491ED
:104FAC00049A9DF80F309DF8171007F0FBFB07A82B
:104FBC0007F00EFC0146009809680291029A9DF8D0
:104FCC0007309DF80E1000F053F800980AB080BD21
:104FDC0080B584B08C46079906998DF80FC08DF872
:104FEC000E208DF80D308DF80C1002900298019067
:104FFC00079807F091FA0146019800F003F8019820
:04500C0004B080BDAF
:1050100080B584B00390029103980190029807F044
:0C50200081FA01460198016004B080BDD7
:10502C0080B584B08C46079906998DF80FC08DF821
:10503C000E208DF80D308DF80C1002900298019016
:10504C00079807F085FB0146019800F003F80198DA
:04505C0004B080BD5F
:1050600080B584B00390029103980190029807F0F4
:0C50700075FB01460198016004B080BD92
:10507C0080B586B08DF8171004928DF80F30029021
:10508C000298019004A800F013F807F0ADFB01980A
:04509C0006B080BD1D
:1050A00080B582B00190019800F002F802B080BD96
:0C50B00081B000900098006801B07047CB
:1050BC0080B582B00190019800F002F802B080BD7A
:0C50CC0081B000900098006801B07047AF
:1050D80080B582B00190019800F032F802B080BD2E
:1050E80080B584B00390029103980299019100F071
:1050F8002FF801460198884201D903F029F802984F
:0C510800C000042103F02CF804B080BDAE
:1051140080B584B0039002910192039800900198A5
:1051240007F0C8FB0246009802A907F0C9FB0098E3
:0451340004B080BD86
:1051380080B582B00190019800F01AF802B080BDE5
:1051480080B582B00190019807F0ACFB02B080BD39
:1051580080B582B00190FBF735FCC00802B080BD75
:1051680080B582B00190019807F0F2FB02B080BDD3
:1051780080B582B00190019807F0F0FB02B080BDC5
:1051880080B588B007900691059207980190069817
:1051980007F0EAFB0390059807F012FA07F0AEFA59
:1051A800014601980291039A029B9DF8131000F0A2
:0851B80003F8019808B080BD66
:1051C00080B58AB08DF8271008920793069006984C
:1051D000009008A807F0FAFB0146009809680491BE
:1051E000049A9DF80F309DF8171007F0F5FB07A8FB
:1051F00007F0F4FA0146009809680291029A9DF8B6
:1052000007309DF80E10FFF739FF00980AB080BDF7
:1052100080B584B08C46079906998DF80FC08DF83B
:105220000E208DF80D308DF80C1002900298019030
:10523000079807F0ABFB0146019800F003F80198CE
:0452400004B080BD79
:1052440080B584B00390029103980190029807F00E
:0C5254009BFB01460198016004B080BD86
:1052600080B582B00190019800F002F802B080BDD4
:0C52700081B000900098006801B0704709
:10527C0080B582B00190019807F0BEFB02B080BDF2
:10528C0080B582B001900091019A00991068526823
:08529C0000F002F802B080BD31
:1052A40080B584B003900291019203980299019A07
:0852B40007F0DAFB04B080BD35
:1052BC0080B584B00390029101920398009003F0A2
:1052CC0025FE009846F2B071C0F20001083140F89A
:1052DC00041B0299019A00F003F8009804B080BDF9
:1052EC0080B588B0079006910592079801900698B2
:1052FC0007F038FB0390059807F0C0FB01460198B6
:10530C000291039A029B9DF8131000F003F8019888
:04531C0008B080BD98
:1053200080B58AB08DF827100892079306900698EA
:10533000009008A807F04AFB01460098096804910C
:10534000049A9DF80F309DF8171007F045FB07A849
:1053500007F0C8FB0146009809680291029A9DF87F
:1053600007309DF80E1000F02BF800980AB080BDB1
:1053700080B584B08C46079906998DF80FC08DF8DA
:105380000E208DF80D308DF80C10029002980190CF
:10539000079807F087FB0146019800F003F8019891
:0453A00004B080BD18
:1053A40080B584B00390029103980190029807F0AD
:0C53B40077FB01460198016004B080BD49
:1053C00080B586B08DF8171004928DF80F300290DA
:1053D0000298019004A800F005F807F063FB01981B
:0453E00006B080BDD6
:1053E40080B582B00190019800F002F802B080BD4F
:0C53F40081B000900098006801B0704784
:0854000081B0009001B070477B
:1054080080B582B00190019807F0A4FB02B080BD7E
:1054180080B584B003900291019203980299019A91
:0854280000F002F804B080BDA1
:1054300080B588B00790069105920798006804909F
:105440000598007803281DD1049941F242020020FA
:10545000039088520020C4F20500019010214FF4FF
:105460000052009201F0D2FD009A01982021029191
:1054700001F0CCFD01980299039A01F0C7FD05994E
:1054800001200860049800F009F8049941F24202F2
:0C549000885A20F40070885208B080BDDB
:08549C0084B0039004B07047D6
:1054A40080B582B001900198009007F07FFB0098CE
:0454B40002B080BD05
:1054B80080B58AB0089007910692089904910991DD
:1054C80000200861079807F075FBB0B106990DF147
:1054D8001700019007F074FB079807F041FB01994A
:1054E80002900DF11600039007F076FB04980299DC
:1054F800039A07F07DFB0498006109980AB080BD03
:1055080080B588B007900691059207980190069893
:1055180007F026FB07F024FC0390059807F090FBA2
:1055280007F02CFC014601980291039A029B9DF812
:0C553800131000F023F8019808B080BDAB
:1055440080B582B001900198009003F07FFD00982F
:0455540002B080BD64
:1055580080B586B0059004910392059804300290B6
:10556800049803F0F3FB0190039803F0F5FB01990D
:0C5578000246029807F0F8FD06B080BD66
:1055840080B58AB08DF82710089207930690069884
:10559400009008A807F044FC0146009809680491AB
:1055A400049A9DF80F309DF8171007F03FFC07A8E8
:1055B40007F052FC0146009809680291029A9DF88E
:1055C40007309DF80E1000F053F800980AB080BD23
:1055D40080B584B08C46079906998DF80FC08DF874
:1055E4000E208DF80D308DF80C1002900298019069
:1055F400079807F0D5FA0146019800F003F80198DE
:0456040004B080BDB1
:1056080080B584B00390029103980190029807F046
:0C561800C5FA01460198016004B080BD95
:1056240080B584B08C46079906998DF80FC08DF823
:105634000E208DF80D308DF80C1002900298019018
:10564400079807F0C9FB0146019800F003F8019898
:0456540004B080BD61
:1056580080B584B00390029103980190029807F0F6
:0C566800B9FB01460198016004B080BD50
:1056740080B586B08DF8171004928DF80F30029023
:105684000298019004A800F013F807F0F1FB0198C8
:0456940006B080BD1F
:1056980080B582B00190019800F002F802B080BD98
:0C56A80081B000900098006801B07047CD
:1056B40080B582B00190019800F002F802B080BD7C
:0C56C40081B000900098006801B07047B1
:1056D00080B582B00190019800F032F802B080BD30
:1056E00080B584B00390029103980299019100F073
:1056F0002FF801460198884201D902F02DFD029849
:0C570000C000042102F030FD04B080BDA8
:10570C0080B584B0039002910192039800900198A7
:10571C0007F00CFC0246009802A907F00DFC00985B
:04572C0004B080BD88
:1057300080B582B00190019800F01AF802B080BDE7
:1057400080B582B00190019807F0F0FB02B080BDF7
:1057500080B582B00190FBF739F9C00802B080BD76
:1057600080B582B00190019807F036FC02B080BD90
:1057700080B582B00190019807F034FC02B080BD82
:1057800080B588B007900691059207980190069819
:1057900007F02EFC0390059807F056FA07F0F2FA8E
:1057A000014601980291039A029B9DF8131000F0A4
:0857B00003F8019808B080BD68
:1057B80080B58AB08DF8271008920793069006984E
:1057C800009008A807F03EFC01460098096804917B
