:10000000006000201FF300008F7C00005576000088
:100010009B7C0000D37C0000DF7C0000000000001F
:10002000000000000000000000000000577D0000FC
:10003000677D000000000000DF7D0000037E0000FF
:1000400081B080B589B002910B9308900791069218
:100050000BA80590069804900598011D059100686D
:10006000039041F25700C2F200000078202800DB24
:1000700023E0029807F006FE014641F25700C2F263
:1000800000000190007800EB400240F62810C2F218
:10009000000000EBC20000F015F8019A04980399E3
:1000A000137841F23412C2F2000252F8232007F012
:1000B00054FF019908780130087009B0BDE880400C
:0400C00001B07047D4
:1000C40080B584B00390029103980190029807F0E0
:1000D400DDFD0146019800F003F8019804B080BDED
:1000E40080B584B00390029103980190002107F039
:1000F400D3FD0298006918B901990020086116E03F
:100104000299086988420BD1019807F0E1FD019931
:1001140008610298006909690268D268904706E09C
:100124000199029800690861029900200861019808
:0401340004B080BDD6
:0C0138000000000000000000410000007A
:1001440080B582B001900198009007F003FE0098FA
:0401540002B080BDB8
:1001580080B584B0039040F20040C2F2000000F580
:10016800A56002900298183801900146009100F0AD
:100178000BF80098019940F20042C2F20002914245
:080188000290EFD104B080BD2C
:1001900080B582B001900198009000F03FF800987F
:0401A00002B080BD6C
:1001A40081B080B587B001910993069005910492BE
:1001B40009A803900498029041F25700C2F200008B
:1001C4000078202800DB22E0019807F059FD014661
:1001D40041F25700C2F200000090007800EB4002A8
:1001E40040F62810C2F2000000EBC200FFF768FFDF
:1001F400009902980A7841F23411C2F2000151F8D0
:10020400221006F0D1FD009908780130087007B07B
:08021400BDE8804001B0704715
:10021C0080B584B0029002990191039108698842DB
:10022C0005D10198006901680969884707E00198C0
:10023C00006920B1019800690168496988470398F1
:04024C0004B080BDBD
:0C0250000000000000000000A5010000FC
:10025C0080B584B0039040F20040C2F2000000F57B
:10026C00A560029002981838019001460091FFF7A2
:10027C0089FF0098019940F20042C2F200029142BB
:08028C000290EFD104B080BD27
:10029400F0B595B014901498049000F00DFA0498F9
:1002A400043001220392114607F020FE049906202F
:1002B400087546F6C803C0F200030CA90A4693E881
:1002C400F05082E8F050129113901298139900F0B4
:1002D40003FA03990246049882611C300A2207F04B
:1002E40005FE049803992C30642207F0FFFD04985E
:1002F40003993C304FF47A7207F0F8FD049803999F
:100304004C3042F2107207F0F1FD049803995C300E
:1003140048F2A062C0F2010207F0E8FD04980399D4
:100324006C3044F24022C0F20F0207F0DFFD049962
:10033400002081F87C000120C1F2100007F0F8F9D8
:100344000020C4F203000290FF21009107F0C5FDD4
:10035400029822210EF0E9FF00990298049A92680B
:1003640007F0E5FD04980590059906A8019000F0B2
:10037400C9F90498009B0199029AFFF75FFE01985E
:1003840000F090F9029803990EF0E7FF02980399A0
:100394000EF0DFFF0399049880F87C1015B0F0BDCF
:1003A40080B596B01590159804900430009000F034
:1003B400DBFC04980D900D990EA8019000F0E4FC6C
:1003C400009801990022C4F205020392FFF7E8FEA7
:1003D400019800F067F904980590059906A8029021
:1003E40000F0E2FC02984FF4A061002208F01AFB2E
:1003F4000298FFF7CBFE0120C2F2100007F098F933
:1004040007F07AFB3C2007F059F9039840F2FF31DA
:1004140000F0DAFC03980F2100F0E0FC03984FF0A1
:10042400FF3100F0E5FC0398012100F0EBFC039898
:1004340040F60F61CFF6037100F0EEFC039800F074
:08044400F5FC049816B080BD20
:10044C0080B5EEB06D906C916B926D98129002F03D
:10045C00BDF8129800F5016002F0B8F8129841F25C
:10046C002801014400916390639964A8019002F003
:10047C00BFF80098019909F0BFFB019802F0C8F889
:10048C0012996C9841F2540288506B9841F25802C0
:10049C0088500220109002F0C5F801461298029183
:1004AC005B905B995CA8039002F0D8F802980399D2
:1004BC0009F0AEFB039800F0F1F8109802F0DEF8AA
:1004CC000146129804915390539954A8059002F048
:1004DC00F1F80498059909F09BFB059800F0DEF8FB
:1004EC00012002F09FF80146129806914B904B990F
:1004FC004CA8079002F0EEF80698079909F088FBD3
:10050C00079800F0CBF812984390439944A80890B0
:10051C0002F0F0F8089842F2212100220B9208F028
:10052C007DFA0898FFF72EFE12983B903B993CA859
:10053C00099002F0EFF809980B9A42F2210108F0A9
:10054C006DFA0998FFF71EFE12983390339934A870
:10055C000A9002F0EFF80A980B9A42F2A11108F0F7
:10056C005DFA0A98FFF70EFE12982B902B992CA887
:10057C000C9002F0EFF80C980B9A4FF4106108F005
:10058C004DFA0C98FFF7FEFD12982390239924A89E
:10059C000D9002F0EFF80D984FF481710F918122BC
:1005AC0008F03CFA0D98FFF7EDFD12981B901B9983
:1005BC001CA80E9002F0EEF80E980F99822208F00B
:1005CC002DFA0E98FFF7DEFD12981390139914A8CC
:1005DC00119002F0EFF811980F99109A08F01EFA8A
:0C05EC001198FFF7CFFD12986EB080BD93
:1005F80080B582B041F24000C2F200000078C00726
:1006080030BB41F24001C2F200010120087040F6FF
:100618002840C2F2000001900198009000F01AF8FA
:10062800009800F11801084640F62842C2F200027C
:1006380002F5347291420190EED140F27160C0F23D
:10064800000040F20002C0F2000200210EF063FF39
:0406580002B080BDAF
:10065C0080B582B001900198009009F0C5FA00981D
:04066C0002B080BD9B
:1006700080B584B0039040F62840C2F2000000F537
:10068000347002900298183801900146009100F0F1
:100690000BF80098019940F62842C2F200029142FC
:0806A0000290EFD104B080BD0F
:1006A80080B582B001900198009001F071FF009828
:0406B80002B080BD4F
:1006BC0080B582B001900198009007F03DFC009845
:1006CC0040F23811C0F200010831016002B080BD67
:1006DC0080B586B00591049004A8019000F032F822
:1006EC0001460198029107F04FFC014602989DF8D3
:0C06FC000F2000F019F8006806B080BD67
:1007080080B584B0039102900298019003A807F085
:1007180085FC0146019807F0AFFC019804B080BD44
:0C07280083B002900191009203B0704772
:1007340080B584B08DF80F20029001910298019940
:0C0744000DF10F0207F032FC04B080BD84
:0C07500081B000900098006801B0704774
:10075C0080B582B001900198009007F0BFFC009822
:04076C0002B080BD9A
:1007700080B58AB008900791069208990491099172
:1007800000200861079807F0B5FCB0B106990DF19B
:100790001700019007F0B4FC079807F043FC01999B
:1007A00002900DF11600039007F0B6FC0498029930
:1007B000039A07F0C7FC0498006109980AB080BD4D
:1007C00080B588B007900691059207980190069829
:1007D00007F028FC07F024FE0390059807F00CFDB5
:1007E00007F034FE014601980291039A029B9DF89E
:0C07F000131000F00DF8019808B080BD57
:1007FC0080B582B001900198009007F0FFFD009841
:04080C0002B080BDF9
:1008100080B58AB08DF82710089207930690069845
:10082000009008A807F0B4FE0146009809680491FA
:10083000049A9DF80F309DF8171007F0AFFE07A837
:1008400007F0C2FE0146009809680291029A9DF8DD
:1008500007309DF80E1000F053F800980AB080BDE4
:1008600080B584B08C46079906998DF80FC08DF835
:100870000E208DF80D308DF80C100290029801902A
:10088000079807F027FC0146019800F003F801984B
:0408900004B080BD73
:1008940080B584B00390029103980190029807F008
:0C08A40017FC01460198016004B080BD03
:1008B00080B584B08C46079906998DF80FC08DF8E5
:1008C0000E208DF80D308DF80C10029002980190DA
:1008D000079807F039FE0146019800F003F80198E7
:0408E00004B080BD23
:1008E40080B584B00390029103980190029807F0B8
:0C08F40029FE01460198016004B080BD9F
:1009000080B586B08DF8171004928DF80F300290E4
:100910000298019004A800F013F807F061FE019816
:0409200006B080BDE0
:1009240080B582B00190019800F002F802B080BD59
:0C09340081B000900098006801B070478E
:1009400080B582B00190019800F002F802B080BD3D
:0C09500081B000900098006801B0704772
:10095C0080B582B00190019800F032F802B080BDF1
:10096C0080B584B00390029103980299019100F034
:10097C002FF801460198884201D907F08DFE0298A4
:0C098C00C000042107F090FE04B080BD04
:1009980080B584B003900291019203980090019869
:1009A80007F0A0FE0246009802A907F0A1FE0098F1
:0409B80004B080BD4A
:1009BC0080B582B00190019800F03AF802B080BD89
:1009CC0080B582B00190019807F060FE02B080BD46
:1009DC0080B582B0019000F003F8C00802B080BD71
:0809EC0080B507F079FE80BD23
:1009F40081B00090009808284FF0000088BF0120C3
:040A040001B0704786
:100A080080B582B0019000910198009907F0EDFC43
:040A180002B080BDEB
:100A1C0080B582B00190019807F0A9FC02B080BDAE
:100A2C0080B582B00190019807F0AAFE02B080BD9B
:100A3C0080B582B00190019807F0A8FE02B080BD8D
:100A4C0080B588B00790069105920798019006989A
:100A5C0007F0A2FE0390059807F0C8FB07F0F0FC26
:100A6C00014601980291039A029B9DF8131000F025
:080A7C0003F8019808B080BDE9
:100A840080B58AB08DF827100892079306900698CF
:100A9400009008A807F0B2FE014600980968049186
:100AA400049A9DF80F309DF8171007F0ADFE07A8C3
:100AB40007F088FD0146009809680291029A9DF8A2
:100AC40007309DF80E10FFF719FF00980AB080BD9B
:100AD40080B584B08C46079906998DF80FC08DF8BF
:100AE4000E208DF80D308DF80C10029002980190B4
:100AF400079807F063FE0146019800F003F8019897
:040B040004B080BDFC
:100B080080B584B00390029103980190029807F091
:0C0B180053FE01460198016004B080BD4E
:100B240080B582B00190019800F002F802B080BD57
:0C0B340081B000900098006801B070478C
:100B400080B582B00190019807F076FE02B080BDBA
:100B500080B582B001900091019A009910685268A6
:080B600000F002F802B080BDB4
:100B680080B584B003900291019203980299019A8A
:080B780007F092FE04B080BDFD
:100B800080B584B003900291019203980299019A72
:080B900000F00CF804B080BD78
:100B980080B582B0019000910198009900F00EF89C
:040BA80002B080BD5A
:100BAC0080B584B003900291019203980299019A46
:080BBC0007F029FC04B080BD24
:100BC40080B582B001900091019800990EF01FFD4C
:040BD40002B080BD2E
:100BD80080B584B00390029101920398009007F0C9
:100BE800E1FA009846F6EC01C0F20001083140F83D
:100BF800041B0299019A00F003F8009804B080BD24
:100C080080B588B0079006910592079801900698DC
:100C180007F0C4FD0390059807F064FE01460198AB
:100C28000291039A029B9DF8131000F003F80198B3
:040C380008B080BDC3
:100C3C0080B58AB08DF82710089207930690069815
:100C4C00009008A807F0D6FD0146009809680491A9
:100C5C00049A9DF80F309DF8171007F0D1FD07A8E6
:100C6C0007F06CFE0146009809680291029A9DF803
:100C7C0007309DF80E1000F02BF800980AB080BDDC
:100C8C0080B584B08C46079906998DF80FC08DF805
:100C9C000E208DF80D308DF80C10029002980190FA
:100CAC00079807F02BFE0146019800F003F8019815
:040CBC0004B080BD43
:100CC00080B584B00390029103980190029807F0D8
:0C0CD0001BFE01460198016004B080BDCD
:100CDC0080B586B08DF8171004928DF80F30029005
:100CEC000298019004A800F005F807F007FE01989F
:040CFC0006B080BD01
:100D000080B582B00190019800F002F802B080BD79
:0C0D100081B000900098006801B07047AE
:080D1C0081B0009001B07047A6
:100D240080B582B00190019800F00EF800F002F84E
:040D340002B080BDCC
:100D380080B582B00190019807F008FE00F00AF82B
:040D480002B080BDB8
:100D4C0080B582B00190019807F062FE02B080BDC0
:100D5C0080B582B00190019807F0FCFD02B080BD17
:100D6C0080B582B001900198009007F0E5F80098EA
:100D7C0040F25021C0F200010831016002B080BD88
:100D8C0080B584B0039102900298019003A807F0FB
:100D9C0067FE0146019807F069FE019804B080BD1A
:100DAC0080B584B0039102900298019003A808F0DA
:100DBC009BFB0146019808F09DFB019804B080BD97
:100DCC0080B582B0019000910198009901F0A4FBCC
:040DDC0002B080BD24
:100DE00080B582B0019000910198009901F0A4FBB8
:040DF00002B080BD10
:100DF40080B582B0019000910198009901F0A4FBA4
:040E040002B080BDFB
:100E080080B582B0019000910198009901F0A4FB8F
:040E180002B080BDE7
:100E1C0080B582B0019000910198009901F0A4FB7B
:040E2C0002B080BDD3
:100E300080B582B00190019801F0A6FB02B080BDA0
:100E400080B582B001900198009007F033FE0098C1
:040E500002B080BDAF
:100E540080B58AB008900791069208990491099187
:100E640000200861079807F029FEB0B106990DF13A
:100E74001700019007F028FE079807F0F5FD019987
:100E840002900DF11600039007F02AFE04980299CF
:100E9400039A07F031FE0498006109980AB080BDF6
:100EA40080B588B00790069105920798019006983E
:100EB40007F0DAFD07F0E2FE0390059807F044FE20
:100EC40007F0EAFE014601980291039A029B9DF8FD
:0C0ED400131000F00DF8019808B080BD6C
:100EE00080B582B001900198009007F08DFA0098CB
:040EF00002B080BD0F
:100EF40080B58AB08DF8271008920793069006985B
:100F0400009008A807F018FF0146009809680491AA
:100F1400049A9DF80F309DF8171007F013FF07A8E7
:100F240007F026FF0146009809680291029A9DF88D
:100F340007309DF80E1000F053F800980AB080BDF9
:100F440080B584B08C46079906998DF80FC08DF84A
:100F54000E208DF80D308DF80C100290029801903F
:100F6400079807F09FFD0146019800F003F80198E7
:040F740004B080BD88
:100F780080B584B00390029103980190029807F01D
:0C0F88008FFD01460198016004B080BD9F
:100F940080B584B08C46079906998DF80FC08DF8FA
:100FA4000E208DF80D308DF80C10029002980190EF
:100FB400079807F09DFE0146019800F003F8019898
:040FC40004B080BD38
:100FC80080B584B00390029103980190029807F0CD
:0C0FD8008DFE01460198016004B080BD50
:100FE40080B586B08DF8171004928DF80F300290FA
:100FF4000298019004A800F013F807F0C5FE0198C8
:0410040006B080BDF5
:1010080080B582B00190019800F002F802B080BD6E
:0C10180081B000900098006801B07047A3
:1010240080B582B00190019800F002F802B080BD52
:0C10340081B000900098006801B0704787
:1010400080B582B00190019800F032F802B080BD06
:1010500080B584B00390029103980299019100F049
:101060002FF801460198884201D907F01BFB02982E
:0C107000C000042107F01EFB04B080BD8E
:10107C0080B584B00390029101920398009001987E
:10108C0007F0E0FE0246009802A907F0E1FE009886
:04109C0004B080BD5F
:1010A00080B582B00190019800F01AF802B080BDBE
:1010B00080B582B00190019807F0C4FE02B080BDF7
:1010C00080B582B00190FFF791FCC00802B080BDEE
:1010D00080B582B00190019807F00AFF02B080BD90
:1010E00080B582B00190019807F008FF02B080BD82
:1010F00080B588B0079006910592079801900698F0
:1011000007F002FF0390059807F020FD07F0C6FDE9
:10111000014601980291039A029B9DF8131000F07A
:0811200003F8019808B080BD3E
:1011280080B58AB08DF82710089207930690069824
:10113800009008A807F012FF01460098096804917A
:10114800049A9DF80F309DF8171007F00DFF07A8B7
:1011580007F00CFE0146009809680291029A9DF872
:1011680007309DF80E10FFF739FF00980AB080BDD0
:1011780080B584B08C46079906998DF80FC08DF814
:101188000E208DF80D308DF80C1002900298019009
:10119800079807F0C3FE0146019800F003F801988C
:0411A80004B080BD52
:1011AC0080B584B00390029103980190029807F0E7
:0C11BC00B3FE01460198016004B080BD44
:1011C80080B582B00190019800F002F802B080BDAD
:0C11D80081B000900098006801B07047E2
:1011E40080B582B00190019807F0D6FE02B080BDB0
:1011F40080B582B001900091019A009910685268FC
:0812040000F002F802B080BD09
:10120C0080B584B003900291019203980299019ADF
:08121C0007F0F2FE04B080BDF2
:1012240080B584B00390029101920398009006F077
:10123400BBFF009846F63411C0F20001083140F8B3
:10124400041B0299019A00F003F8009804B080BDD1
:1012540080B588B00790069105920798019006988A
:1012640007F050FE0390059807F0D8FE0146019858
:101274000291039A029B9DF8131000F003F8019861
:0412840008B080BD71
:1012880080B58AB08DF827100892079306900698C3
:10129800009008A807F062FE0146009809680491CA
:1012A800049A9DF80F309DF8171007F05DFE07A807
:1012B80007F0E0FE0146009809680291029A9DF83D
:1012C80007309DF80E1000F02BF800980AB080BD8A
:1012D80080B584B08C46079906998DF80FC08DF8B3
:1012E8000E208DF80D308DF80C10029002980190A8
:1012F800079807F09FFE0146019800F003F801984F
:0413080004B080BDF0
:10130C0080B584B00390029103980190029807F085
:0C131C008FFE01460198016004B080BD06
:1013280080B586B08DF8171004928DF80F300290B2
:101338000298019004A800F005F807F07BFE0198D8
:0413480006B080BDAE
:10134C0080B582B00190019800F002F802B080BD27
:0C135C0081B000900098006801B070475C
:0813680081B0009001B0704754
:1013700080B582B00190019800F00EF800F002F8FC
:0413800002B080BD7A
:1013840080B582B00190019807F07CFE00F00AF865
:0413940002B080BD66
:1013980080B582B00190019808F074F802B080BD61
:1013A80080B582B00190019807F070FE02B080BD50
:1013B80080B582B00190019800F056F802B080BD67
:1013C80080B584B003900291039800909DF80800BE
:1013D800C00778B10020C4F20500002107F094FE90
:1013E8000190019830B1009B03F108000299019A1D
:1013F80000F042F8029807F099FE002004B080BD82
:1014080080B582B00190019800F070FD02B080BDF7
:1014180084B002900191029800909DF80400400762
:10142800002802D5012003901BE09DF804008007E6
:10143800002802D50320039013E09DF80400C0079C
:1014480028B10099002008700220039009E09DF857
:1014580004000007002802D50820039001E00020BE
:081468000390039804B07047E3
:1014700080B582B0019001980DF080FC02B080BD73
:1014800080B584B0039002910192009341F248022A
:10149000C2F200020020C4F20500002101AB07F0F7
:1014A00069FE41F25000C2F20000807848B941F272
:1014B0004800C2F20000008841F25001C2F200016F
:1014C000088041F25000C2F200000088009900F04C
:0814D00015F8002004B080BDF6
:1014D80080B582B0019000910198009905F046FF0F
:0414E80002B080BD11
:1014EC0081B08DF803009DF80300000101B0704736
:1014FC0080B5AAB0ADF8A6002891BDF8A6000146AB
:10150C00199108287BD0199881287BD019988228AA
:10151C0079D01998B0F5807F76D0199840F20111E6
:10152C00884200F088801998B0F5817F00F08480A3
:10153C00199840F2A111884200F012821998B0F566
:10154C00407F00F0A481199840F20131884200F0EC
:10155C00C381199840F20231884200F0BE8119987B
:10156C00B0F5A06F00F0BA811998B0F5D06F00F00B
:10157C00D181199840F28161884200F0D781199885
:10158C0040F28261884200F0D2811998B0F5E06F88
:10159C0000F0CE811998B0F5086F00F0CA81199847
:1015AC00B0F5106F00F0C681199840F621218842E1
:1015BC0000F0D781199840F68121884200F0CD8146
:1015CC00199840F60131884200F0C881199840F60C
:1015DC008241884200F0C381199842F2210188426D
:1015EC0000F0C081199842F2A111884200F0EF81FD
:1015FC00199842F22121884200F00C8220E207F077
:10160C00C9FD25E21CE21BE241F24800C2F20000D7
:10161C008078012807D10020C4F2050000210122A6
:10162C0007F0D4FD06E00020C4F2050000221146AC
:10163C0007F0E4FD0CE203E241F24800C2F20000C4
:10164C00408838B10020C4F205000022114607F092
:10165C00D5FDFDE141F24800C2F2000000790146DF
:10166C001891012800F0E680189802283FD01898AD
:10167C00812807D01898822871D01898832800F0F8
:10168C00A780FCE00020C4F2050017900121169100
:10169C004FF40052149207F0C5FD149A179816993E
:1016AC0007F0D4FD169800F0E3F9002015908DF8A2
:1016BC0098008DF899008DF89A008DF89B008DF8A4
:1016CC009C008DF89D008DF89E008DF89F0041F2D6
:1016DC003803C2F200034FF48170812126AA07F06F
:1016EC00C9FD1599169A179807F070FDCEE00020E9
:1016FC00C4F205001190022112910022139207F0FE
:10170C0091FD11981299139A07F0A0FD129800F010
:10171C00AFF9129913988DF890008DF891008DF80F
:10172C0092008DF893008DF894008DF895008DF84B
:10173C0096008DF8970041F23803C2F200034FF483
:10174C00817024AA07F096FD13991198012207F0D5
:10175C003DFD11981299139A07F038FD96E002207E
:10176C000D9000F085F90D990020C4F205000F9042
:10177C004FF400520E9207F069FD002010908DF886
:10178C0088008DF889008DF88A008DF88B008DF813
:10179C008C008DF88D008DF88E008DF88F0041F245
:1017AC003803C2F200034FF48170822122AA07F0A1
:1017BC0061FD0D990E9A0F9807F034FD40F68C20C0
:1017CC0006F075FB0F981099012207F0FFFC5DE005
:1017DC000020C4F205000C90032109914FF4005233
:1017EC000A9207F01FFD09990A9A0C9807F02EFD32
:1017FC0000200B908DF880008DF881008DF8820010
:10180C008DF883008DF884008DF885008DF88600A6
:10181C008DF8870041F23803C2F200034FF4817057
:10182C00832120AA07F026FD0B990C98012207F0C2
:10183C00CDFC2BE0002007908DF878008DF8790016
:10184C008DF87A008DF87B008DF87C008DF87D008A
:10185C008DF87E008DF87F0041F23803C2F2000350
:10186C004FF48170012108911EAA07F003FD07991E
:10187C00089A0020C4F2050007F0A8FC06E000203E
:10188C00C4F205000022114607F0B8FCE0E041F27A
:10189C004800C2F20000807801460691012803D06E
:1018AC000698022808D00FE00020C4F205000021A1
:1018BC00012207F08BFC0EE00020C4F20500002290
:1018CC00114607F09BFC06E00020C4F20500002244
:1018DC00114607F093FCBBE0B2E0B1E000210591AA
:1018EC008DF870108DF871108DF872108DF87310D2
:1018FC008DF874108DF875108DF876108DF87710B2
:10190C0041F23803C2F200034FF4A0601CAA07F0A6
:10191C00B1FC9DE041F24801C2F200018A78C8781E
:10192C00897900F0BBF800B98AE091E088E087E0A3
:10193C0086E085E0289B41F24802C2F200024FF497
:10194C0010600021049107F095FC04990020C4F26A
:10195C00050001220DF06CFB7AE071E070E06FE0A5
:10196C006EE075E041F25000C2F20000807898B948
:10197C0041F25001C2F200010120887041F248008E
:10198C00C2F20000C08888800020C4F2050000224A
:10199C00114607F01BFC19E041F25000C2F20000A6
:1019AC000290031D41F24802C2F2000242F22100F1
:1019BC000021039107F05EFC03990020C4F205009E
:1019CC00012207F003FC02990398887040E0002183
:1019DC0001918DF868108DF869108DF86A108DF8EA
:1019EC006B108DF86C108DF86D108DF86E108DF8E5
:1019FC006F1041F23803C2F2000342F2A1101AAA8E
:101A0C0007F038FC01990020C4F20500012207F010
:101A1C00DDFB1DE041F24802C2F2000241F2380344
:101A2C00C2F2000342F221200021009107F022FCB7
:101A3C0000990020C4F20500012207F0C7FB07E063
:101A4C000020C4F2050000214FF4005207F0D6FB31
:041A5C002AB080BD6F
:101A600080B584B00390029101920093039802998B
:0C1A7000019A009B05F0E2FC04B080BD70
:101A7C0080B584B08DF80F009DF80F100020C4F2D3
:101A8C000500019007F050FC0146019802919DF869
:0C1A9C000F10029A07F05AFC04B080BD45
:101AA80080B584B08DF80E00ADF80C108DF80B20C1
:101AB8009DF80E0001380146019107282FD8019999
:101AC800DFE801F0041120292A2B2C2D9DF80C2089
:101AD80048F23A40C0F20000122100F021F901203A
:101AE8008DF80F001EE04321ADF808109DF80C207A
:101AF8004FF24260C0F2000000F012F901208DF8A8
:101B08000F000FE09DF80B009DF80C1000F082F913
:101B18008DF80F0006E002E001E000E0FFE700209A
:0C1B28008DF80F009DF80F0004B080BD88
:101B340080B586B005908DF813108DF812209DF8AD
:101B440013009DF81210884203DD9DF812000190E5
:101B540002E09DF81300019001988DF8110005989A
:101B640003909DF81100402835DB40208DF80B00D0
:101B7400039A9DF80B300020C4F20500002107F001
:101B8400ADFB013000B9F3E79DF8110058B900200E
:101B9400C4F2050000214FF4817207F0B5FB013057
:101BA40000B9F4E717E00020C4F2050000214FF467
:101BB400817207F0A9FB013000B9F4E79DF80B101E
:101BC4009DF81100401A8DF811009DF80B10039830
:101BD40008440390C5E7039A9DF811300020C4F22D
:101BE4000500002107F07AFB013000B9F3E700207B
:101BF400C4F2050000214FF4857207F085FB013023
:081C040000B9F4E706B080BD51
:101C0C0080B584B003900291019203980299019AD5
:081C1C000DF0ECFA04B080BDEC
:101C240080B584B0039002910192009303980299C5
:0C1C3400019A009B0DF064FA04B080BD22
:101C400080B584B0039002918DF807200398029923
:101C50009DF8072002F001020DF0F0F904B080BDFC
:101C600080B584B003900291019203980299019A81
:081C700005F0A4F904B080BDE9
:101C780080B584B003900291019203980299019A69
:081C880005F012FA04B080BD62
:101C900080B584B003900291019203980299019A51
:081CA00005F02AF904B080BD33
:101CA80080B582B001900091019800990DF080F8FC
:041CB80002B080BD39
:101CBC0080B584B003900291019203980299019A25
:081CCC0005F08AF804B080BDA8
:101CD40080B584B00390029100208DF807009DF830
:101CE4000700362812D802989DF8071007F05CFB0D
:101CF40000680399884203D19DF8070004B080BDB1
:101D04009DF8070001308DF80700E8E700F008F8B7
:101D140080B582B00190019807F050FB02B080BDFD
:041D240000F000F8D3
:101D280080B5B0B02F908DF8BB108DF8BA209DF813
:101D3800BB00462802D101208DF8B9009DF8BB00F0
:101D48009DF8BA10884203DD9DF8BA00019002E0C0
:101D58009DF8BB00019001988DF8B8002F982D9040
:101D68002F999DF8BB200DF10A0005F059FF9DF849
:101D7800B800402835DB40208DF809002D9A9DF8E1
:101D880009300020C4F20500002107F0A5FA01304F
:101D980000B9F3E79DF8B80058B90020C4F205006F
:101DA80000214FF4817207F0ADFA013000B9F4E771
:101DB80017E00020C4F2050000214FF4817207F0FB
:101DC800A1FA013000B9F4E79DF809109DF8B800B0
:101DD800401A8DF8B8009DF809102D9808442D90E8
:101DE800C5E72D9A9DF8B8300020C4F205000021FF
:101DF80007F072FA013000B9F3E70020C4F20500D9
:101E080000214FF4857207F07DFA013000B9F4E73C
:041E180030B080BDA9
:101E1C0080B582B08DF806008DF805109DF806008F
:101E2C0001460091032838D80099DFE801F0020F31
:101E3C001C299DF805204FF2DE20C0F20000102175
:101E4C00FFF76CFF01208DF8070029E09DF80520B5
:101E5C004FF2EE20C0F200001021FFF75FFF0120CF
:101E6C008DF807001CE09DF805204FF2FE20C0F213
:101E7C0000001021FFF752FF01208DF807000FE042
:101E8C009DF805204FF20E30C0F200001021FFF734
:101E9C0045FF01208DF8070002E000208DF80700B7
:081EAC009DF8070002B080BDA3
:101EB40080B582B00190019807F0DCFA02B080BDD1
:101EC40080B582B00190019800F002F802B080BDA4
:101ED40080B582B0019001980090006908B907F0BC
:101EE400A1FA0098006901688969884702B080BD39
:101EF40080B582B00190019804F01CFF02B080BD4F
:101F040080B584B00390029103980190029807F081
:101F1400C7FA0146019800F003F8019804B080BDA7
:101F240080B584B00390029103980190002107F0DA
:101F3400BDFA0298006918B901990020086116E0F9
:101F44000299086988420BD1019807F0CBFA0199EC
:101F540008610298006909690268D268904706E03E
:101F640001990298006908610299002008610198AA
:041F740004B080BD78
:101F780080B582B001900198009007F0DBFA0098D4
:041F880002B080BD66
:101F8C0080B58AB00890079106920899049109913E
:101F9C0000200861079807F0D1FAB0B106990DF14D
:101FAC001700019007F0D0FA079807F09DFA0199F5
:101FBC0002900DF11600039007F0D2FA04980299E2
:101FCC00039A07F0D9FA0498006109980AB080BD09
:101FDC0080B588B0079006910592079801900698F5
:101FEC0007F082FA07F096FB0390059807F0F8FAD1
:101FFC0007F09EFB014601980291039A029B9DF803
:0C200C00131000F023F8019808B080BD0C
:1020180080B582B001900198009007F073FB00989A
:0420280002B080BDC5
:10202C0080B586B005900491039205980430029017
:10203C00049807F0E7F90190039807F0E9F9019982
:0C204C000246029807F06AFD06B080BD55
:1020580080B58AB08DF827100892079306900698E5
:10206800009008A807F0B6FB01460098096804919B
:10207800049A9DF80F309DF8171007F0B1FB07A8D8
:1020880007F0C4FB0146009809680291029A9DF87E
:1020980007309DF80E1000F053F800980AB080BD84
:1020A80080B584B08C46079906998DF80FC08DF8D5
:1020B8000E208DF80D308DF80C10029002980190CA
:1020C800079807F031FA0146019800F003F80198E3
:0420D80004B080BD13
:1020DC0080B584B00390029103980190029807F0A8
:0C20EC0021FA01460198016004B080BD9B
:1020F80080B584B08C46079906998DF80FC08DF885
:102108000E208DF80D308DF80C1002900298019079
:10211800079807F03BFB0146019800F003F8019887
:0421280004B080BDC2
:10212C0080B584B00390029103980190029807F057
:0C213C002BFB01460198016004B080BD3F
:1021480080B586B08DF8171004928DF80F30029084
:102158000298019004A800F013F807F063FB0198B7
:0421680006B080BD80
:10216C0080B582B00190019800F002F802B080BDF9
:0C217C0081B000900098006801B070472E
:1021880080B582B00190019800F002F802B080BDDD
:0C21980081B000900098006801B0704712
:1021A40080B582B00190019800F032F802B080BD91
:1021B40080B584B00390029103980299019100F0D4
:1021C4002FF801460198884201D906F069FA02986D
:0C21D400C000042106F06CFA04B080BDCD
:1021E00080B584B003900291019203980090019809
:1021F00007F07EFB0246009802A907F07FFB0098DB
:0422000004B080BDE9
:1022040080B582B00190019800F01AF802B080BD48
:1022140080B582B00190019807F062FB02B080BDE6
:1022240080B582B00190FEF7DFFBC00802B080BD2C
:1022340080B582B00190019807F0A8FB02B080BD80
:1022440080B582B00190019807F0A6FB02B080BD72
:1022540080B588B00790069105920798019006987A
:1022640007F0A0FB0390059807F0BEF907F064FAA5
:10227400014601980291039A029B9DF8131000F005
:0822840003F8019808B080BDC9
:10228C0080B58AB08DF827100892079306900698AF
:10229C00009008A807F0B0FB01460098096804916B
:1022AC00049A9DF80F309DF8171007F0ABFB07A8A8
:1022BC0007F0AAFA0146009809680291029A9DF863
:1022CC0007309DF80E10FFF739FF00980AB080BD5B
:1022DC0080B584B08C46079906998DF80FC08DF89F
:1022EC000E208DF80D308DF80C1002900298019094
:1022FC00079807F061FB0146019800F003F801987C
:04230C0004B080BDDC
:1023100080B584B00390029103980190029807F071
:0C23200051FB01460198016004B080BD33
:10232C0080B582B00190019800F002F802B080BD37
:0C233C0081B000900098006801B070476C
:1023480080B582B00190019807F074FB02B080BD9F
:1023580080B582B001900091019A00991068526886
:0823680000F002F802B080BD94
:1023700080B584B003900291019203980299019A6A
:0823800007F090FB04B080BDE2
:1023880080B584B00390029101920398009007F001
:102398001DF9009846F65811C0F20001083140F8BE
:1023A800041B0299019A00F003F8009804B080BD5C
:1023B80080B588B007900691059207980190069815
:1023C80007F0EEFA0390059807F076FB01460198AE
:1023D8000291039A029B9DF8131000F003F80198EC
:0423E80008B080BDFC
:1023EC0080B58AB08DF8271008920793069006984E
:1023FC00009008A807F000FB0146009809680491BA
:10240C00049A9DF80F309DF8171007F0FBFA07A8F7
:10241C0007F07EFB0146009809680291029A9DF82C
:10242C0007309DF80E1000F02BF800980AB080BD14
:10243C0080B584B08C46079906998DF80FC08DF83D
:10244C000E208DF80D308DF80C1002900298019032
:10245C00079807F03DFB0146019800F003F801983E
:04246C0004B080BD7B
:1024700080B584B00390029103980190029807F010
:0C2480002DFB01460198016004B080BDF6
:10248C0080B586B08DF8171004928DF80F3002903D
:10249C000298019004A800F005F807F019FB0198C8
:0424AC0006B080BD39
:1024B00080B582B00190019800F002F802B080BDB2
:0C24C00081B000900098006801B07047E7
:0824CC0081B0009001B07047DF
:1024D40080B582B00190019807F084FB02B080BD02
:1024E40080B584B003900291019203980299019AF5
:0824F40007F04EFB04B080BDAF
:1024FC0080B582B0019000910198009900F002F82B
:04250C0002B080BDDC
:1025100080B582B001900091019800990CF0A8FC60
:0425200002B080BDC8
:1025240080B582B0019000910198009904F08EFB6F
:0425340002B080BDB4
:1025380080B582B0019000910198009904F0BEFB2B
:0425480002B080BDA0
:10254C0080B582B001900091019800990CF0CCFB01
:04255C0002B080BD8C
:1025600080B582B001900091019800990CF0E4FBD5
:0425700002B080BD78
:1025740080B582B001900091019800990CF060FB45
:0425840002B080BD64
:1025880080B582B00190019804F01AFE02B080BDB7
:1025980080B584B00290029901910391086988423C
:1025A80005D10198006901680969884707E0019821
:1025B800006920B101980069016849698847039852
:0425C80004B080BD1E
:0C25CC0081B0009000980C3001B0704706
:1025D80081B0009000984FF40061A0F80018002125
:1025E800C0F8041840F2FF71C0F80818C0F80C18B9
:0425F80001B0704777
:1025FC0080B584B0039102900298019003A807F073
:10260C001DFB0146019807F01FFB019804B080BD2B
:10261C0080B582B001900198009000F0F5FB009815
:04262C0002B080BDBB
:1026300070B591B08DF8430046F6E812C0F2000282
:1026400068460146B2E83850A1E83850B2E8385040
:10265000A1E8385092E8785081E878509DF843100E
:0826600050F8210011B070BD1B
:1026680080B584B0039102900298019003A807F006
:102678008DFE0146019807F08FFE019804B080BDD9
:1026880070B591B08DF8430046F64C22C0F20002B6
:1026980068460146B2E83850A1E83850B2E83850E8
:1026A800A1E8385092E8785081E878509DF84310B6
:0826B80050F8210011B070BDC3
:1026C00080B584B0039102900298019003A808F0AD
:1026D000FDF90146019808F0FFF9019804B080BDAA
:1026E00080B584B0039102900298019003A808F08D
:1026F00031FD0146019808F033FD019804B080BD1A
:1027000080B584B0039102900298019003A809F06B
:1027100067F80146019809F069F8019804B080BD96
:1027200080B584B0039102900298019003A809F04B
:10273000A5FB0146019809F0A7FB019804B080BDF4
:1027400080B584B0039102900298019003A809F02B
:10275000E9FE0146019809F0EBFE019804B080BD46
:1027600080B584B0039102900298019003A80AF00A
:1027700019FA014601980AF01BFA019804B080BDCD
:1027800080B584B0039102900298019003A80AF0EA
:10279000F3FD014601980AF0F5FD019804B080BDF3
:1027A00080B584B0039102900298019003A80BF0C9
:1027B00023F9014601980BF025F9019804B080BD7A
:1027C00080B584B0039102900298019003A80BF0A9
:1027D00053FC014601980BF055FC019804B080BDF4
:1027E00080B582B001900198009007F051FA0098EE
:0427F00002B080BDF6
:1027F40080B58AB0089007910692089904910991CE
:1028040000200861079807F047FAB0B106990DF166
:102814001700019007F046FA079807F013FA019998
:1028240002900DF11600039007F048FA04980299FB
:10283400039A07F04FFA0498006109980AB080BD22
:1028440080B588B007900691059207980190069884
:1028540007F0F8F907F00CFB0390059807F06EFAFF
:1028640007F014FB014601980291039A029B9DF81C
:0C287400131000F01DF8019808B080BDA2
:1028800080B582B001900198009007F0E9FA0098B5
:0428900002B080BD55
:1028940080B584B0039002910398043001900298AB
:1028A40007F0FCFC0146019807F0E6FC04B080BD8B
:1028B40080B58AB08DF82710089207930690069881
:1028C400009008A807F032FB0146009809680491BB
:1028D400049A9DF80F309DF8171007F02DFB07A8F8
:1028E40007F040FB0146009809680291029A9DF89E
:1028F40007309DF80E1000F053F800980AB080BD20
:1029040080B584B08C46079906998DF80FC08DF870
:102914000E208DF80D308DF80C1002900298019065
:10292400079807F0ADF90146019800F003F8019803
:0429340004B080BDAE
:1029380080B584B00390029103980190029807F043
:0C2948009DF901460198016004B080BDBB
:1029540080B584B08C46079906998DF80FC08DF820
:102964000E208DF80D308DF80C1002900298019015
:10297400079807F0B7FA0146019800F003F80198A8
:0429840004B080BD5E
:1029880080B584B00390029103980190029807F0F3
:0C299800A7FA01460198016004B080BD60
:1029A40080B586B08DF8171004928DF80F30029020
:1029B4000298019004A800F013F807F0DFFA0198D8
:0429C40006B080BD1C
:1029C80080B582B00190019800F002F802B080BD95
:0C29D80081B000900098006801B07047CA
:1029E40080B582B00190019800F002F802B080BD79
:0C29F40081B000900098006801B07047AE
:102A000080B582B00190019800F032F802B080BD2C
:102A100080B584B00390029103980299019100F06F
:102A20002FF801460198884201D905F03BFE029833
:0C2A3000C000042105F03EFE04B080BD93
:102A3C0080B584B0039002910192039800900198A4
:102A4C0007F0FAFA0246009802A907F0FBFA009880
:042A5C0004B080BD85
:102A600080B582B00190019800F01AF802B080BDE4
:102A700080B582B00190019807F0DEFA02B080BD07
:102A800080B582B00190FDF7B1FFC00802B080BDF3
:102A900080B582B00190019807F024FB02B080BDA0
:102AA00080B582B00190019807F022FB02B080BD92
:102AB00080B588B007900691059207980190069816
:102AC00007F01CFB0390059807F03AF907F0E0F9CE
:102AD000014601980291039A029B9DF8131000F0A1
:082AE00003F8019808B080BD65
:102AE80080B58AB08DF8271008920793069006984B
:102AF800009008A807F02CFB01460098096804918B
:102B0800049A9DF80F309DF8171007F027FB07A8C7
:102B180007F026FA0146009809680291029A9DF882
:102B280007309DF80E10FFF739FF00980AB080BDF6
:102B380080B584B08C46079906998DF80FC08DF83A
:102B48000E208DF80D308DF80C100290029801902F
:102B5800079807F0DDFA0146019800F003F801989C
:042B680004B080BD78
:102B6C0080B584B00390029103980190029807F00D
:0C2B7C00CDFA01460198016004B080BD54
:102B880080B582B00190019800F002F802B080BDD3
:0C2B980081B000900098006801B0704708
:102BA40080B582B00190019807F0F0FA02B080BDC0
:102BB40080B582B001900091019A00991068526822
:082BC40000F002F802B080BD30
:102BCC0080B584B003900291019203980299019A06
:082BDC0007F00CFB04B080BD02
:102BE40080B584B00390029101920398009007F09D
:102BF40099F8009846F6A011C0F20001083140F897
:102C0400041B0299019A00F003F8009804B080BDF7
:102C140080B588B0079006910592079801900698B0
:102C240007F06AFA0390059807F0F2FA0146019852
:102C34000291039A029B9DF8131000F003F8019887
:042C440008B080BD97
:102C480080B58AB08DF827100892079306900698E9
:102C5800009008A807F07CFA0146009809680491DA
:102C6800049A9DF80F309DF8171007F077FA07A817
:102C780007F0FAFA0146009809680291029A9DF84D
:102C880007309DF80E1000F02BF800980AB080BDB0
:102C980080B584B08C46079906998DF80FC08DF8D9
:102CA8000E208DF80D308DF80C10029002980190CE
:102CB800079807F0B9FA0146019800F003F801985F
:042CC80004B080BD17
:102CCC0080B584B00390029103980190029807F0AC
:0C2CDC00A9FA01460198016004B080BD17
:102CE80080B586B08DF8171004928DF80F300290D9
:102CF8000298019004A800F005F807F095FA0198E9
:042D080006B080BDD4
:102D0C0080B582B00190019800F002F802B080BD4D
:0C2D1C0081B000900098006801B0704782
:082D280081B0009001B070477A
:102D300080B582B00190019807F0ECFA02B080BD36
:102D400083B002908DF8071002990091D1F808081D
:102D50000130C1F80808B1F80018884203D300997F
:102D60000020C1F8080800989DF80710D0F808283E
:102D70008154D0F80818D0F80C0888420ED1009978
:102D8000D1F80C080130C1F80C08B1F800188842DD
:102D900003D300990020C1F80C0805E00099D1F890
:0C2DA00004080130C1F8040803B07047BB
:102DAC0080B584B00390029103980190029900F0D1
:082DBC0003F8019804B080BD8A
:102DC40080B584B00290019102980090039001981C
:102DD400006918B900990020086116E00199086992
:102DE40088420BD1009807F099FA0099086101987C
:102DF400006909690268D268904706E00198006991
:102E040001688968884700990861039804B080BD07
:102E140080B584B0029002990191039108698842B7
:102E240005D10198006901680969884707E001989C
:102E3400006920B1019800690168496988470398CD
:042E440004B080BD99
:102E480080B584B00390029103980190029900F034
:082E58000DF8019804B080BDE3
:102E600080B582B0019000910198009900F02AF895
:042E700002B080BD6F
:102E740080B584B00290019102980090039001986B
:102E8400006918B900990020086116E001990869E1
:102E940088420BD1009804F01BFF00990861019847
:102EA400006909690268D268904706E001980069E0
:102EB40001688968884700990861039804B080BD57
:102EC40080B58EB00D900C910D9906910C988842A6
:102ED40000D187E006990869884242D10C990869B3
:102EE40088423ED108A804F0F3FE014606980791F3
:102EF400006907990268D2689047069800690168DA
:102F04000969884706980021049101610C990969AF
:102F1400039104F0DDFE014603980268D2689047ED
:102F24000C980069016809698847049906980C9A05
:102F3400116104F0CDFE06990861079805900C987C
:102F440004F0C6FE014605980268D26890470798C7
:102F54000168096988470C9804F0BAFE0C99086165
:102F640040E006990869884219D1069800690290E0
:102F74000C9804F0ADFE014602980268D2689047AE
:102F84000698006901680969884706990C980069E0
:102F940008610C9804F09CFE0C99086122E00C99DD
:102FA4000869884218D106980C990969019104F0BE
:102FB4008FFE014601980268D26890470C98006918
:102FC400016809698847069801690C9A116104F03F
:102FD4007FFE0699086105E0069810300C991031BF
:082FE40007F0B8F90EB080BD42
:102FEC0080B582B001900198009007F0F1F900983B
:042FFC0002B080BDE2
:1030000080B58AB0089007910692089904910991B9
:1030100000200861079807F0E7F9B0B106990DF1B3
:103020001700019007F0E6F9079807F0B3F9019946
:1030300002900DF11600039007F0E8F90498029948
:10304000039A07F0EFF90498006109980AB080BD6F
:1030500080B588B007900691059207980190069870
:1030600007F098F907F0A0FA0390059807F002FA24
:1030700007F0A8FA014601980291039A029B9DF875
:0C308000131000F00DF8019808B080BD9E
:10308C0080B582B001900198009005F0B7F90098D6
:04309C0002B080BD41
:1030A00080B58AB08DF8271008920793069006988D
:1030B000009008A807F0D6FA014600980968049124
:1030C000049A9DF80F309DF8171007F0D1FA07A861
:1030D00007F0E4FA0146009809680291029A9DF807
:1030E00007309DF80E1000F053F800980AB080BD2C
:1030F00080B584B08C46079906998DF80FC08DF87D
:103100000E208DF80D308DF80C1002900298019071
:10311000079807F05DF90146019800F003F801985F
:0431200004B080BDBA
:1031240080B584B00390029103980190029807F04F
:0C3134004DF901460198016004B080BD17
:1031400080B584B08C46079906998DF80FC08DF82C
:103150000E208DF80D308DF80C1002900298019021
:10316000079807F05BFA0146019800F003F8019810
:0431700004B080BD6A
:1031740080B584B00390029103980190029807F0FF
:0C3184004BFA01460198016004B080BDC8
:1031900080B586B08DF8171004928DF80F3002902C
:1031A0000298019004A800F013F807F083FA019840
:0431B00006B080BD28
:1031B40080B582B00190019800F002F802B080BDA1
:0C31C40081B000900098006801B07047D6
:1031D00080B582B00190019800F002F802B080BD85
:0C31E00081B000900098006801B07047BA
:1031EC0080B582B00190019800F032F802B080BD39
:1031FC0080B584B00390029103980299019100F07C
:10320C002FF801460198884201D905F045FA029839
:0C321C00C000042105F048FA04B080BD99
:1032280080B584B0039002910192039800900198B0
:1032380007F09EFA0246009802A907F09FFA009844
:0432480004B080BD91
:10324C0080B582B00190019800F01AF802B080BDF0
:10325C0080B582B00190019807F082FA02B080BD6F
:10326C0080B582B00190FDF7BBFBC00802B080BDF9
:10327C0080B582B00190019807F0C8FA02B080BD09
:10328C0080B582B00190019807F0C6FA02B080BDFB
:10329C0080B588B007900691059207980190069822
:1032AC0007F0C0FA0390059807F0DEF807F084F9F0
:1032BC00014601980291039A029B9DF8131000F0AD
:0832CC0003F8019808B080BD71
:1032D40080B58AB08DF82710089207930690069857
:1032E400009008A807F0D0FA0146009809680491F4
:1032F400049A9DF80F309DF8171007F0CBFA07A831
:1033040007F0CAF90146009809680291029A9DF8EB
:1033140007309DF80E10FFF739FF00980AB080BD02
:1033240080B584B08C46079906998DF80FC08DF846
:103334000E208DF80D308DF80C100290029801903B
:10334400079807F081FA0146019800F003F8019804
:0433540004B080BD84
:1033580080B584B00390029103980190029807F019
:0C33680071FA01460198016004B080BDBC
:1033740080B582B00190019800F002F802B080BDDF
:0C33840081B000900098006801B0704714
:1033900080B582B00190019807F094FA02B080BD28
:1033A00080B582B001900091019A0099106852682E
:0833B00000F002F802B080BD3C
:1033B80080B584B003900291019203980299019A12
:0833C80007F0B0FA04B080BD6B
:1033D00080B584B00390029101920398009004F0AC
:1033E000E5FE009846F62821C0F20001083140F8B9
:1033F000041B0299019A00F003F8009804B080BD04
:1034000080B588B0079006910592079801900698BC
:1034100007F00EFA0390059807F096FA0146019816
:103420000291039A029B9DF8131000F003F8019893
:0434300008B080BDA3
:1034340080B58AB08DF827100892079306900698F5
:10344400009008A807F020FA014600980968049142
:10345400049A9DF80F309DF8171007F01BFA07A87F
:1034640007F09EFA0146009809680291029A9DF8B5
:1034740007309DF80E1000F02BF800980AB080BDBC
:1034840080B584B08C46079906998DF80FC08DF8E5
:103494000E208DF80D308DF80C10029002980190DA
:1034A400079807F05DFA0146019800F003F80198C7
:0434B40004B080BD23
:1034B80080B584B00390029103980190029807F0B8
:0C34C8004DFA01460198016004B080BD7F
:1034D40080B586B08DF8171004928DF80F300290E5
:1034E4000298019004A800F005F807F039FA019851
:0434F40006B080BDE1
:1034F80080B582B00190019800F002F802B080BD5A
:0C35080081B000900098006801B070478E
:0835140081B0009001B0704786
:10351C0080B582B00190019800F00EF800F002F82E
:04352C0002B080BDAC
:1035300080B582B00190019807F03AFA00F00AF8DD
:0435400002B080BD98
:1035440080B582B00190019807F0B8FA02B080BD4E
:1035540080B582B00190019807F02EFA02B080BDC8
:1035640080B582B001900198009007F0D1FA0098DC
:0435740002B080BD64
:1035780080B58AB00890079106920899049109913C
:1035880000200861079807F0C7FAB0B106990DF155
:103598001700019007F0C6FA079807F093FA019907
:1035A80002900DF11600039007F0C8FA04980299EA
:1035B800039A07F0CFFA0498006109980AB080BD11
:1035C80080B588B0079006910592079801900698F3
:1035D80007F078FA07F080FB0390059807F0E2FA05
:1035E80007F088FB014601980291039A029B9DF817
:0C35F800131000F00DF8019808B080BD21
:1036040080B582B001900198009004F0FBFE009810
:0436140002B080BDC3
:1036180080B58AB08DF8271008920793069006980F
:10362800009008A807F0B6FB0146009809680491C5
:10363800049A9DF80F309DF8171007F0B1FB07A802
:1036480007F0C4FB0146009809680291029A9DF8A8
:1036580007309DF80E1000F053F800980AB080BDAE
:1036680080B584B08C46079906998DF80FC08DF8FF
:103678000E208DF80D308DF80C10029002980190F4
:10368800079807F03DFA0146019800F003F8019801
:0436980004B080BD3D
:10369C0080B584B00390029103980190029807F0D2
:0C36AC002DFA01460198016004B080BDB9
:1036B80080B584B08C46079906998DF80FC08DF8AF
:1036C8000E208DF80D308DF80C10029002980190A4
:1036D800079807F03BFB0146019800F003F80198B2
:0436E80004B080BDED
:1036EC0080B584B00390029103980190029807F082
:0C36FC002BFB01460198016004B080BD6A
:1037080080B586B08DF8171004928DF80F300290AE
:103718000298019004A800F013F807F063FB0198E1
:0437280006B080BDAA
:10372C0080B582B00190019800F002F802B080BD23
:0C373C0081B000900098006801B0704758
:1037480080B582B00190019800F002F802B080BD07
:0C37580081B000900098006801B070473C
:1037640080B582B00190019800F032F802B080BDBB
:1037740080B584B00390029103980299019100F0FE
:103784002FF801460198884201D904F089FF029874
:0C379400C000042104F08CFF04B080BDD4
:1037A00080B584B003900291019203980090019833
:1037B00007F07EFB0246009802A907F07FFB009805
:0437C00004B080BD14
:1037C40080B582B00190019800F01AF802B080BD73
:1037D40080B582B00190019807F062FB02B080BD11
:1037E40080B582B00190FDF7FFF8C00802B080BD3B
:1037F40080B582B00190019807F0A8FB02B080BDAB
:1038040080B582B00190019807F0A6FB02B080BD9C
:1038140080B588B0079006910592079801900698A4
:1038240007F0A0FB0390059807F0BEF907F064FACF
:10383400014601980291039A029B9DF8131000F02F
:0838440003F8019808B080BDF3
:10384C0080B58AB08DF827100892079306900698D9
:10385C00009008A807F0B0FB014600980968049195
:10386C00049A9DF80F309DF8171007F0ABFB07A8D2
:10387C0007F0AAFA0146009809680291029A9DF88D
:10388C0007309DF80E10FFF739FF00980AB080BD85
:10389C0080B584B08C46079906998DF80FC08DF8C9
:1038AC000E208DF80D308DF80C10029002980190BE
:1038BC00079807F061FB0146019800F003F80198A6
:0438CC0004B080BD07
:1038D00080B584B00390029103980190029807F09C
:0C38E00051FB01460198016004B080BD5E
:1038EC0080B582B00190019800F002F802B080BD62
:0C38FC0081B000900098006801B0704797
:1039080080B582B00190019807F074FB02B080BDC9
:1039180080B582B001900091019A009910685268B0
:0839280000F002F802B080BDBE
:1039300080B584B003900291019203980299019A94
:0839400007F090FB04B080BD0C
:1039480080B584B00390029101920398009004F02E
:1039580029FC009846F68C21C0F20001083140F895
:10396800041B0299019A00F003F8009804B080BD86
:1039780080B588B00790069105920798019006983F
:1039880007F0EEFA0390059807F076FB01460198D8
:103998000291039A029B9DF8131000F003F8019816
:0439A80008B080BD26
:1039AC0080B58AB08DF82710089207930690069878
:1039BC00009008A807F000FB0146009809680491E4
:1039CC00049A9DF80F309DF8171007F0FBFA07A822
:1039DC0007F07EFB0146009809680291029A9DF857
:1039EC0007309DF80E1000F02BF800980AB080BD3F
:1039FC0080B584B08C46079906998DF80FC08DF868
:103A0C000E208DF80D308DF80C100290029801905C
:103A1C00079807F03DFB0146019800F003F8019868
:043A2C0004B080BDA5
:103A300080B584B00390029103980190029807F03A
:0C3A40002DFB01460198016004B080BD20
:103A4C0080B586B08DF8171004928DF80F30029067
:103A5C000298019004A800F005F807F019FB0198F2
:043A6C0006B080BD63
:103A700080B582B00190019800F002F802B080BDDC
:0C3A800081B000900098006801B0704711
:083A8C0081B0009001B0704709
:103A940080B582B00190019800F00EF800F002F8B1
:043AA40002B080BD2F
:103AA80080B582B00190019807F01AFB00F00AF87F
:043AB80002B080BD1B
:103ABC0080B582B00190019807F040FB02B080BD48
:103ACC0080B582B00190019807F00EFB02B080BD6A
:103ADC0080B598B01790179802900020C4F205009A
:103AEC0003900221049105F01FFC049902460398EF
:103AFC001692169A05F02AFC0398049905F002FB1D
:103B0C001590159870B10020C4F20500022105AA89
:103B1C00019215AB05F028FB01990298BDF85420D1
:103B2C0007F0ECFA0020C4F205000221002205F097
:103B3C004DFB029941F24202885A40F0040088522F
:043B4C0018B080BD70
:103B500080B582B001900198009007F01FFB00989B
:043B600002B080BD72
:103B640080B58AB00890079106920899049109914A
:103B740000200861079807F015FBB0B106990DF114
:103B84001700019007F014FB079807F0E1FA019978
:103B940002900DF11600039007F016FB04980299A9
:103BA400039A07F01DFB0498006109980AB080BDD0
:103BB40080B588B007900691059207980190069801
:103BC40007F0C6FA07F0CEFB0390059807F030FB28
:103BD40007F0D6FB014601980291039A029B9DF8D7
:0C3BE400131000F00DF8019808B080BD2F
:103BF00080B582B001900198009004F005FC009817
:043C000002B080BDD1
:103C040080B58AB08DF8271008920793069006981D
:103C1400009008A807F004FC014600980968049184
:103C2400049A9DF80F309DF8171007F0FFFB07A8C2
:103C340007F012FC0146009809680291029A9DF867
:103C440007309DF80E1000F053F800980AB080BDBC
:103C540080B584B08C46079906998DF80FC08DF80D
:103C64000E208DF80D308DF80C1002900298019002
:103C7400079807F08BFA0146019800F003F80198C1
:043C840004B080BD4B
:103C880080B584B00390029103980190029807F0E0
:0C3C98007BFA01460198016004B080BD79
:103CA40080B584B08C46079906998DF80FC08DF8BD
:103CB4000E208DF80D308DF80C10029002980190B2
:103CC400079807F089FB0146019800F003F8019872
:043CD40004B080BDFB
:103CD80080B584B00390029103980190029807F090
:0C3CE80079FB01460198016004B080BD2A
:103CF40080B586B08DF8171004928DF80F300290BD
:103D04000298019004A800F013F807F0B1FB0198A1
:043D140006B080BDB8
:103D180080B582B00190019800F002F802B080BD31
:0C3D280081B000900098006801B0704766
:103D340080B582B00190019800F002F802B080BD15
:0C3D440081B000900098006801B070474A
:103D500080B582B00190019800F032F802B080BDC9
:103D600080B584B00390029103980299019100F00C
:103D70002FF801460198884201D904F093FC02987B
:0C3D8000C000042104F096FC04B080BDDB
:103D8C0080B584B003900291019203980090019841
:103D9C0007F0CCFB0246009802A907F0CDFB009877
:043DAC0004B080BD22
:103DB00080B582B00190019800F01AF802B080BD81
:103DC00080B582B00190019807F0B0FB02B080BDD1
:103DD00080B582B00190FCF709FEC00802B080BD3A
:103DE00080B582B00190019807F0F6FB02B080BD6B
:103DF00080B582B00190019807F0F4FB02B080BD5D
:103E000080B588B0079006910592079801900698B2
:103E100007F0EEFB0390059807F00CFA07F0B2FAF2
:103E2000014601980291039A029B9DF8131000F03D
:083E300003F8019808B080BD01
:103E380080B58AB08DF827100892079306900698E7
:103E4800009008A807F0FEFB014600980968049155
:103E5800049A9DF80F309DF8171007F0F9FB07A892
:103E680007F0F8FA0146009809680291029A9DF84D
:103E780007309DF80E10FFF739FF00980AB080BD93
:103E880080B584B08C46079906998DF80FC08DF8D7
:103E98000E208DF80D308DF80C10029002980190CC
:103EA800079807F0AFFB0146019800F003F8019866
:043EB80004B080BD15
:103EBC0080B584B00390029103980190029807F0AA
:0C3ECC009FFB01460198016004B080BD1E
:103ED80080B582B00190019800F002F802B080BD70
:0C3EE80081B000900098006801B07047A5
:103EF40080B582B00190019807F0C2FB02B080BD8A
:103F040080B582B001900091019A009910685268BE
:083F140000F002F802B080BDCC
:103F1C0080B584B003900291019203980299019AA2
:083F2C0007F0DEFB04B080BDCC
:103F340080B584B00390029101920398009004F03C
:103F440033F9009846F6B021C0F20001083140F878
:103F5400041B0299019A00F003F8009804B080BD94
:103F640080B588B00790069105920798019006984D
:103F740007F03CFB0390059807F0C4FB0146019849
:103F84000291039A029B9DF8131000F003F8019824
:043F940008B080BD34
:103F980080B58AB08DF82710089207930690069886
:103FA800009008A807F04EFB0146009809680491A4
:103FB800049A9DF80F309DF8171007F049FB07A8E1
:103FC80007F0CCFB0146009809680291029A9DF817
:103FD80007309DF80E1000F02BF800980AB080BD4D
:103FE80080B584B08C46079906998DF80FC08DF876
:103FF8000E208DF80D308DF80C100290029801906B
:10400800079807F08BFB0146019800F003F8019828
:0440180004B080BDB3
:10401C0080B584B00390029103980190029807F048
:0C402C007BFB01460198016004B080BDE0
:1040380080B586B08DF8171004928DF80F30029075
:104048000298019004A800F005F807F067FB0198B2
:0440580006B080BD71
:10405C0080B582B00190019800F002F802B080BDEA
:0C406C0081B000900098006801B070471F
:0840780081B0009001B0704717
:1040800080B582B00190019800F00EF800F002F8BF
:0440900002B080BD3D
:1040940080B582B00190019807F068FB00F00AF83F
:0440A40002B080BD29
:1040A80080B582B00190019807F090FB02B080BD06
:1040B80080B582B00190019807F05CFB02B080BD2A
:1040C80080B582B001900198009007F0A9FB009894
:0440D80002B080BDF5
:1040DC0080B58AB0089007910692089904910991CD
:1040EC0000200861079807F09FFBB0B106990DF10D
:1040FC001700019007F09EFB079807F06BFB0199E6
:10410C0002900DF11600039007F0A0FB04980299A1
:10411C00039A07F0A7FB0498006109980AB080BDC8
:10412C0080B588B007900691059207980190069883
:10413C0007F050FB07F04EFC0390059807F0BAFB14
:10414C0007F056FC014601980291039A029B9DF8D8
:0C415C00131000F023F8019808B080BD9B
:1041680080B582B001900198009005F0CBFA0098D4
:0441780002B080BD54
:10417C0080B586B0059004910392059804300290A6
:10418C00049805F03FF90190039805F041F9019965
:0C419C000246029807F022FE06B080BD2B
:1041A80080B58AB08DF82710089207930690069874
:1041B800009008A807F06EFC014600980968049171
:1041C800049A9DF80F309DF8171007F069FC07A8AE
:1041D80007F07CFC0146009809680291029A9DF854
:1041E80007309DF80E1000F053F800980AB080BD13
:1041F80080B584B08C46079906998DF80FC08DF864
:104208000E208DF80D308DF80C1002900298019058
:10421800079807F0FFFA0146019800F003F80198A3
:0442280004B080BDA1
:10422C0080B584B00390029103980190029807F036
:0C423C00EFFA01460198016004B080BD5B
:1042480080B584B08C46079906998DF80FC08DF813
:104258000E208DF80D308DF80C1002900298019008
:10426800079807F0F3FB0146019800F003F801985E
:0442780004B080BD51
:10427C0080B584B00390029103980190029807F0E6
:0C428C00E3FB01460198016004B080BD16
:1042980080B586B08DF8171004928DF80F30029013
:1042A8000298019004A800F013F807F01BFC01988D
:0442B80006B080BD0F
:1042BC0080B582B00190019800F002F802B080BD88
:0C42CC0081B000900098006801B07047BD
:1042D80080B582B00190019800F002F802B080BD6C
:0C42E80081B000900098006801B07047A1
:1042F40080B582B00190019800F032F802B080BD20
:1043040080B584B00390029103980299019100F062
:104314002FF801460198884201D904F0C1F90298A6
:0C432400C000042104F0C4F904B080BD06
:1043300080B584B003900291019203980090019897
:1043400007F036FC0246009802A907F037FC0098F7
:0443500004B080BD78
:1043540080B582B00190019800F01AF802B080BDD7
:1043640080B582B00190019807F01AFC02B080BDBC
:1043740080B582B00190FCF737FBC00802B080BD65
:1043840080B582B00190019807F060FC02B080BD56
:1043940080B582B00190019807F05EFC02B080BD48
:1043A40080B588B007900691059207980190069809
:1043B40007F058FC0390059807F080FA07F01CFBFF
:1043C400014601980291039A029B9DF8131000F094
:0843D40003F8019808B080BD58
:1043DC0080B58AB08DF8271008920793069006983E
:1043EC00009008A807F068FC014600980968049141
:1043FC00049A9DF80F309DF8171007F063FC07A87E
:10440C0007F062FB0146009809680291029A9DF838
:10441C0007309DF80E10FFF739FF00980AB080BDE9
:10442C0080B584B08C46079906998DF80FC08DF82D
:10443C000E208DF80D308DF80C1002900298019022
:10444C00079807F019FC0146019800F003F8019851
:04445C0004B080BD6B
:1044600080B584B00390029103980190029807F000
:0C44700009FC01460198016004B080BD09
:10447C0080B582B00190019800F002F802B080BDC6
:0C448C0081B000900098006801B07047FB
:1044980080B582B00190019807F02CFC02B080BD75
:1044A80080B582B001900091019A00991068526815
:0844B80000F002F802B080BD23
:1044C00080B584B003900291019203980299019AF9
:0844D00007F048FC04B080BDB8
:1044D80080B584B00390029101920398009005F092
:1044E80075F8009846F6D421C0F20001083140F86A
:1044F800041B0299019A00F003F8009804B080BDEB
:1045080080B588B0079006910592079801900698A3
:1045180007F0A6FB0390059807F02EFC01460198CA
:104528000291039A029B9DF8131000F003F801987A
:0445380008B080BD8A
:10453C0080B58AB08DF827100892079306900698DC
:10454C00009008A807F0B8FB014600980968049190
:10455C00049A9DF80F309DF8171007F0B3FB07A8CD
:10456C0007F036FC0146009809680291029A9DF802
:10457C0007309DF80E1000F02BF800980AB080BDA3
:10458C0080B584B08C46079906998DF80FC08DF8CC
:10459C000E208DF80D308DF80C10029002980190C1
:1045AC00079807F0F5FB0146019800F003F8019815
:0445BC0004B080BD0A
:1045C00080B584B00390029103980190029807F09F
:0C45D000E5FB01460198016004B080BDCD
:1045DC0080B586B08DF8171004928DF80F300290CC
:1045EC000298019004A800F005F807F0D1FB01989F
:0445FC0006B080BDC8
:1046000080B582B00190019800F002F802B080BD40
:0C46100081B000900098006801B0704775
:08461C0081B0009001B070476D
:1046240080B582B00190019807F020FC02B080BDF3
:1046340080B584B003900291019203980299019A83
:0846440007F006FC04B080BD84
:10464C0082B00190ADF802100199BDF8020000F0A3
:10465C0003004FF48252885441F2420200208852E7
:0C466C00885A40F04000885202B07047AD
:1046780080B582B001900198009007F01FFC009867
:0446880002B080BD3F
:10468C0080B58AB008900791069208990491099117
:10469C0000200861079807F015FCB0B106990DF1E0
:1046AC001700019007F014FC079807F0E1FB019943
:1046BC0002900DF11600039007F016FC0498029975
:1046CC00039A07F01DFC0498006109980AB080BD9C
:1046DC0080B588B0079006910592079801900698CE
:1046EC0007F0C6FB07F0C4FC0390059807F030FCFC
:1046FC0007F0CCFC014601980291039A029B9DF8AD
:0C470C00131000F023F8019808B080BDE5
:1047180080B582B001900198009004F0F3FF0098F2
:0447280002B080BD9E
:10472C0080B586B0059004910392059804300290F0
:10473C00049804F067FE0190039804F069FE019957
:0C474C000246029807F098FE06B080BDFF
:1047580080B58AB08DF827100892079306900698BE
:10476800009008A807F0E4FC014600980968049145
:10477800049A9DF80F309DF8171007F0DFFC07A882
:1047880007F0F2FC0146009809680291029A9DF828
:1047980007309DF80E1000F053F800980AB080BD5D
:1047A80080B584B08C46079906998DF80FC08DF8AE
:1047B8000E208DF80D308DF80C10029002980190A3
:1047C800079807F075FB0146019800F003F8019877
:0447D80004B080BDEC
:1047DC0080B584B00390029103980190029807F081
:0C47EC0065FB01460198016004B080BD2F
:1047F80080B584B08C46079906998DF80FC08DF85E
:104808000E208DF80D308DF80C1002900298019052
:10481800079807F069FC0146019800F003F8019831
:0448280004B080BD9B
:10482C0080B584B00390029103980190029807F030
:0C483C0059FC01460198016004B080BDE9
:1048480080B586B08DF8171004928DF80F3002905D
:104858000298019004A800F013F807F091FC019861
:0448680006B080BD59
:10486C0080B582B00190019800F002F802B080BDD2
:0C487C0081B000900098006801B0704707
:1048880080B582B00190019800F002F802B080BDB6
:0C48980081B000900098006801B07047EB
:1048A40080B582B00190019800F032F802B080BD6A
:1048B40080B584B00390029103980299019100F0AD
:1048C4002FF801460198884201D903F0E9FE0298C5
:0C48D400C000042103F0ECFE04B080BD25
:1048E00080B584B0039002910192039800900198E2
:1048F00007F0ACFC0246009802A907F0ADFC009856
:0449000004B080BDC2
:1049040080B582B00190019800F01AF802B080BD21
:1049140080B582B00190019807F090FC02B080BD90
:1049240080B582B00190FCF75FF8C00802B080BD8A
:1049340080B582B00190019807F0D6FC02B080BD2A
:1049440080B582B00190019807F0D4FC02B080BD1C
:1049540080B588B007900691059207980190069853
:1049640007F0CEFC0390059807F0F6FA07F092FBE7
:10497400014601980291039A029B9DF8131000F0DE
:0849840003F8019808B080BDA2
:10498C0080B58AB08DF82710089207930690069888
:10499C00009008A807F0DEFC014600980968049115
:1049AC00049A9DF80F309DF8171007F0D9FC07A852
:1049BC0007F0D8FB0146009809680291029A9DF80D
:1049CC0007309DF80E10FFF739FF00980AB080BD34
:1049DC0080B584B08C46079906998DF80FC08DF878
:1049EC000E208DF80D308DF80C100290029801906D
:1049FC00079807F08FFC0146019800F003F8019826
:044A0C0004B080BDB5
:104A100080B584B00390029103980190029807F04A
:0C4A20007FFC01460198016004B080BDDD
:104A2C0080B582B00190019800F002F802B080BD10
:0C4A3C0081B000900098006801B0704745
:104A480080B582B00190019807F0A2FC02B080BD49
:104A580080B582B001900091019A0099106852685F
:084A680000F002F802B080BD6D
:104A700080B584B003900291019203980299019A43
:084A800007F0BEFC04B080BD8C
:104A880080B584B00390029101920398009004F0DD
:104A98009DFD009846F6F821C0F20001083140F863
:104AA800041B0299019A00F003F8009804B080BD35
:104AB80080B588B0079006910592079801900698EE
:104AC80007F01CFC0390059807F0A4FC0146019828
:104AD8000291039A029B9DF8131000F003F80198C5
:044AE80008B080BDD5
:104AEC0080B58AB08DF82710089207930690069827
:104AFC00009008A807F02EFC014600980968049164
:104B0C00049A9DF80F309DF8171007F029FC07A8A0
:104B1C0007F0ACFC0146009809680291029A9DF8D6
:104B2C0007309DF80E1000F02BF800980AB080BDED
:104B3C0080B584B08C46079906998DF80FC08DF816
:104B4C000E208DF80D308DF80C100290029801900B
:104B5C00079807F06BFC0146019800F003F80198E8
:044B6C0004B080BD54
:104B700080B584B00390029103980190029807F0E9
:0C4B80005BFC01460198016004B080BDA0
:104B8C0080B586B08DF8171004928DF80F30029016
:104B9C000298019004A800F005F807F047FC019872
:044BAC0006B080BD12
:104BB00080B582B00190019800F002F802B080BD8B
:0C4BC00081B000900098006801B07047C0
:084BCC0081B0009001B07047B8
:104BD40080B582B00190019807F09CFC02B080BDC2
:104BE40080B584B003900291019203980299019ACE
:084BF40007F07CFC04B080BD59
:104BFC0080B582B001900198009007F0B1FC00984C
:044C0C0002B080BDB5
:104C100080B58AB00890079106920899049109918D
:104C200000200861079807F0A7FCB0B106990DF1C4
:104C30001700019007F0A6FC079807F073FC019994
:104C400002900DF11600039007F0A8FC0498029959
:104C5000039A07F0AFFC0498006109980AB080BD80
:104C600080B588B007900691059207980190069844
:104C700007F058FC07F056FD0390059807F0C2FCBA
:104C800007F05EFD014601980291039A029B9DF890
:0C4C9000131000F023F8019808B080BD5C
:104C9C0080B582B001900198009004F031FD00982D
:044CAC0002B080BD15
:104CB00080B586B005900491039205980430029067
:104CC000049804F0A5FB0190039804F0A7FB019958
:0C4CD0000246029807F02AFF06B080BDE3
:104CDC0080B58AB08DF82710089207930690069835
:104CEC00009008A807F076FD014600980968049129
:104CFC00049A9DF80F309DF8171007F071FD07A866
:104D0C0007F084FD0146009809680291029A9DF80B
:104D1C0007309DF80E1000F053F800980AB080BDD3
:104D2C0080B584B08C46079906998DF80FC08DF824
:104D3C000E208DF80D308DF80C1002900298019019
:104D4C00079807F007FC0146019800F003F801985A
:044D5C0004B080BD62
:104D600080B584B00390029103980190029807F0F7
:0C4D7000F7FB01460198016004B080BD13
:104D7C0080B584B08C46079906998DF80FC08DF8D4
:104D8C000E208DF80D308DF80C10029002980190C9
:104D9C00079807F0FBFC0146019800F003F8019816
:044DAC0004B080BD12
:104DB00080B584B00390029103980190029807F0A7
:0C4DC000EBFC01460198016004B080BDCE
:104DCC0080B586B08DF8171004928DF80F300290D4
:104DDC000298019004A800F013F807F023FD019845
:044DEC0006B080BDD0
:104DF00080B582B00190019800F002F802B080BD49
:0C4E000081B000900098006801B070477D
:104E0C0080B582B00190019800F002F802B080BD2C
:0C4E1C0081B000900098006801B0704761
:104E280080B582B00190019800F032F802B080BDE0
:104E380080B584B00390029103980299019100F023
:104E48002FF801460198884201D903F027FC0298FF
:0C4E5800C000042103F02AFC04B080BD5F
:104E640080B584B003900291019203980090019858
:104E740007F03EFD0246009802A907F03FFD0098A6
:044E840004B080BD39
:104E880080B582B00190019800F01AF802B080BD98
:104E980080B582B00190019807F022FD02B080BD74
:104EA80080B582B00190FBF79DFDC00802B080BDBF
:104EB80080B582B00190019807F068FD02B080BD0E
:104EC80080B582B00190019807F066FD02B080BD00
:104ED80080B588B0079006910592079801900698CA
:104EE80007F060FD0390059807F088FB07F024FCA5
:104EF800014601980291039A029B9DF8131000F055
:084F080003F8019808B080BD18
:104F100080B58AB08DF827100892079306900698FE
:104F2000009008A807F070FD0146009809680491F8
:104F3000049A9DF80F309DF8171007F06BFD07A835
:104F400007F06AFC0146009809680291029A9DF8F0
:104F500007309DF80E10FFF739FF00980AB080BDAA
:104F600080B584B08C46079906998DF80FC08DF8EE
:104F70000E208DF80D308DF80C10029002980190E3
:104F8000079807F021FD0146019800F003F8019809
:044F900004B080BD2C
:104F940080B584B00390029103980190029807F0C1
:0C4FA40011FD01460198016004B080BDC1
:104FB00080B582B00190019800F002F802B080BD87
:0C4FC00081B000900098006801B07047BC
:104FCC0080B582B00190019807F034FD02B080BD2D
:104FDC0080B582B001900091019A009910685268D6
:084FEC0000F002F802B080BDE4
:104FF40080B584B003900291019203980299019ABA
:0850040007F050FD04B080BD6F
:10500C0080B584B00390029101920398009004F053
:10501C00DBFA009846F61C31C0F20001083140F86A
:10502C00041B0299019A00F003F8009804B080BDAB
:10503C0080B588B007900691059207980190069864
:10504C0007F0AEFC0390059807F036FD0146019879
:10505C000291039A029B9DF8131000F003F801983B
:04506C0008B080BD4B
:1050700080B58AB08DF8271008920793069006989D
:10508000009008A807F0C0FC014600980968049148
:10509000049A9DF80F309DF8171007F0BBFC07A885
:1050A00007F03EFD0146009809680291029A9DF8BA
:1050B00007309DF80E1000F02BF800980AB080BD64
:1050C00080B584B08C46079906998DF80FC08DF88D
:1050D0000E208DF80D308DF80C1002900298019082
:1050E000079807F0FDFC0146019800F003F80198CD
:0450F00004B080BDCB
:1050F40080B584B00390029103980190029807F060
:0C510400EDFC01460198016004B080BD84
:1051100080B586B08DF8171004928DF80F3002908C
:105120000298019004A800F005F807F0D9FC019856
:0451300006B080BD88
:1051340080B582B00190019800F002F802B080BD01
:0C51440081B000900098006801B0704736
:0851500081B0009001B070472E
:1051580080B582B00190019807F01AFD02B080BDB9
:1051680080B584B003900291019203980299019A44
:0851780000F002F804B080BD54
:1051800080B586B00590049103920598006800F5FB
:1051900081520020C4F205000290002101910723F2
:1051A00009F0B0FF019902984FF485720AF024F8D3
:0451B00006B080BD08
:1051B40080B582B001900198009007F015FD009829
:0451C40002B080BDF8
:1051C80080B58AB0089007910692089904910991D0
:1051D80000200861079807F00BFDB0B106990DF1A2
:1051E8001700019007F00AFD079807F0D7FC01990E
:1051F80002900DF11600039007F00CFD0498029937
:10520800039A07F013FD0498006109980AB080BD5D
:1052180080B588B007900691059207980190069886
:1052280007F0BCFC07F0BAFD0390059807F026FDCF
:1052380007F0C2FD014601980291039A029B9DF86E
:0C524800131000F023F8019808B080BD9E
:1052540080B582B001900198009004F055FA00984E
:0452640002B080BD57
:1052680080B586B0059004910392059804300290A9
:10527800049804F0C9F80190039804F0CBF8019958
:0C5288000246029807F08EFF06B080BDC1
:1052940080B58AB08DF82710089207930690069877
:1052A400009008A807F0DAFD014600980968049107
:1052B400049A9DF80F309DF8171007F0D5FD07A844
:1052C40007F0E8FD0146009809680291029A9DF8EA
:1052D40007309DF80E1000F053F800980AB080BD16
:1052E40080B584B08C46079906998DF80FC08DF867
:1052F4000E208DF80D308DF80C100290029801905C
:10530400079807F06BFC0146019800F003F8019838
:0453140004B080BDA4
:1053180080B584B00390029103980190029807F039
:0C5328005BFC01460198016004B080BDF0
:1053340080B584B08C46079906998DF80FC08DF816
:105344000E208DF80D308DF80C100290029801900B
:10535400079807F05FFD0146019800F003F80198F3
:0453640004B080BD54
:1053680080B584B00390029103980190029807F0E9
:0C5378004FFD01460198016004B080BDAB
:1053840080B586B08DF8171004928DF80F30029016
:105394000298019004A800F013F807F087FD019823
:0453A40006B080BD12
:1053A80080B582B00190019800F002F802B080BD8B
:0C53B80081B000900098006801B07047C0
:1053C40080B582B00190019800F002F802B080BD6F
:0C53D40081B000900098006801B07047A4
:1053E00080B582B00190019800F032F802B080BD23
:1053F00080B584B00390029103980299019100F066
:105400002FF801460198884201D903F04BF9029820
:0C541000C000042103F04EF904B080BD80
:10541C0080B584B00390029101920398009001989A
:10542C0007F0A2FD0246009802A907F0A3FD009820
:04543C0004B080BD7B
:1054400080B582B00190019800F01AF802B080BDDA
:1054500080B582B00190019807F086FD02B080BD52
:1054600080B582B00190FBF7C1FAC00802B080BDE0
:1054700080B582B00190019807F0CCFD02B080BDEC
:1054800080B582B00190019807F0CAFD02B080BDDE
:1054900080B588B00790069105920798019006980C
:1054A00007F0C4FD0390059807F0ECFB07F088FCBB
:1054B000014601980291039A029B9DF8131000F097
:0854C00003F8019808B080BD5B
:1054C80080B58AB08DF82710089207930690069841
:1054D800009008A807F0D4FD0146009809680491D7
:1054E800049A9DF80F309DF8171007F0CFFD07A814
:1054F80007F0CEFC0146009809680291029A9DF8CF
:1055080007309DF80E10FFF739FF00980AB080BDEC
:1055180080B584B08C46079906998DF80FC08DF830
:105528000E208DF80D308DF80C1002900298019025
:10553800079807F085FD0146019800F003F80198E7
:0455480004B080BD6E
:10554C0080B584B00390029103980190029807F003
:0C555C0075FD01460198016004B080BD9F
:1055680080B582B00190019800F002F802B080BDC9
:0C55780081B000900098006801B07047FE
:1055840080B582B00190019807F098FD02B080BD0B
:1055940080B582B001900091019A00991068526818
:0855A40000F002F802B080BD26
:1055AC0080B584B003900291019203980299019AFC
:0855BC0007F0B4FD04B080BD4E
:1055C40080B584B00390029101920398009003F097
:1055D400FFFF009846F64031C0F20001083140F860
:1055E400041B0299019A00F003F8009804B080BDEE
:1055F40080B588B0079006910592079801900698A7
:1056040007F012FD0390059807F09AFD01460198F2
:105614000291039A029B9DF8131000F003F801987D
:0456240008B080BD8D
:1056280080B58AB08DF827100892079306900698DF
:10563800009008A807F024FD014600980968049125
:10564800049A9DF80F309DF8171007F01FFD07A862
:1056580007F0A2FD0146009809680291029A9DF898
:1056680007309DF80E1000F02BF800980AB080BDA6
:1056780080B584B08C46079906998DF80FC08DF8CF
:105688000E208DF80D308DF80C10029002980190C4
:10569800079807F061FD0146019800F003F80198AA
:0456A80004B080BD0D
:1056AC0080B584B00390029103980190029807F0A2
:0C56BC0051FD01460198016004B080BD62
:1056C80080B586B08DF8171004928DF80F300290CF
:1056D8000298019004A800F005F807F03DFD019834
:0456E80006B080BDCB
:1056EC0080B582B00190019800F002F802B080BD44
:0C56FC0081B000900098006801B0704779
:0857080081B0009001B0704770
:1057100080B582B00190019807F028FE02B080BDEC
:1057200080B584B003900291019203980299019A86
:0857300007F072FD04B080BD1A
:1057380080B584B003900291019203980299019A6E
:0857480001F006FF04B080BD72
:1057500080B582B08DF807009DF8070007F0FCFDCA
:0457600002B080BD56
:1057640070B591B0109046F66432C0F200026846FB
:105774000146B2E83850A1E83850B2E83850A1E800
:10578400385092E8785081E87850109950F8210008
:0457940011B070BD23
:1057980080B584B003900291019200930398029916
:0C57A800019A009B01F024FD04B080BDBC
