:10000000006000207308000047040000D1010000D8
:1000100083040000FB0400003F0500000000000016
:100020000000000000000000000000005305000078
:10003000A305000000000000B3050000F305000068
:1000400080B582B001900198009000F0ABFA009862
:0400500002B080BDBD
:1000540080B584B0039040F20000C2F2000000F5C5
:10006400A56002900298183801900146009100F0B2
:100074000BF80098019940F20002C2F2000291428A
:080084000290EFD104B080BD31
:10008C0080B582B001900198009000F017F80098AC
:04009C0002B080BD71
:1000A00080B582B0019001990020087000F052FAEA
:0800B0000199486002B080BD17
:1000B80080B582B00190019800F03EFA02B080BD90
:1000C80080B584B002900299019103910869884231
:1000D80005D10198006901680969884707E0019816
:1000E800006920B101980069016849698847039847
:0400F80004B080BD13
:1000FC0080B584B0039040F20000C2F2000000F51D
:10010C00A560029002981838019001460091FFF703
:10011C00B7FF0098019940F20002C2F2000291422E
:08012C000290EFD104B080BD88
:1001340080B582B001900198009000F0DFFA009839
:0401440002B080BDC8
:1001480080B584B0039040F22850C2F2000000F558
:10015800407002900298183801900146009100F012
:100168000BF80098019940F22852C2F2000291421D
:080178000290EFD104B080BD3C
:1001800080B582B001900198009000F003F80098CB
:0401900002B080BD7C
:1001940080B584B002900299019103910869884264
:1001A40005D10198006901680969884707E0019849
:1001B400006920B10198006901684969884703987A
:0401C40004B080BD46
:0801C80080B500F06BFA80BD68
:1001D00008490A68002AFED41EF0040F0CBFEFF392
:1001E0000880EFF3098042F000420A608169023121
:0801F000816170472CED00E075
:1001F80000F07043B3F1704F15D100F47F42114BFA
:10020800120A00F0FF00D318800003F0704240F09B
:10021800007023F07F43104323F4700340EA431334
:1002280001221A607047020F81B200F4F810000C26
:1002380011FA00F0044B53F822301A681043186082
:0C024800704700BF00E60F40E403000018
:10025400054B18B11A6842F0006202E01A6822F0F5
:0C02640000621A60704700BF60E00F40AD
:10027000534B2DE9F0411A68044612F0E04F06D0C6
:100280001A68504B02EA0303B3F1805F02D1002CDD
:10029000C0F294804C494D4A0B68166843F40063E1
:1002A00023F4800546F4006613F0020F0D6016601B
:1002B00002D014F0020F05D015F0010F1AD014F07F
:1002C000010F17D164F003031D403F4B002E1D604A
:1002D00005DA06F07003302B05D0702B02E005F034
:1002E0003003302B02D14FF4805001E04FF4002056
:1002F00000F0D5F904F4FE6325F4FE6545EA030831
:10030000334D26F0004604EA050526F0700645EA5E
:10031000060604F0080546EAC5052C4F2A4E1020B3
:10032000C6F800803D6000F0BAF928F4405804F4A3
:100330000052284904F4405325F4005548EA0303C9
:1003400040201543244A086052BF33603D6033604B
:1003500023F0F86304EA020223F0030358BF3D6070
:10036000134304F0FC5125F0FC5214F0804F42EA94
:10037000010208D0194922F4800204EA010143F481
:1003800080030A4301E022F0804214F4006F0CD194
:100390004FF400411248006810F0400F01D10139BC
:1003A000F8D123F4006322F40062074910200B60A7
:1003B000064B1A60BDE8F04100F071B9BDE8F0816C
:1003C00000E00F400000FF7060E00F4070E00F4061
:1003D0003000008058E00F400300C007000040409C
:0403E00050E00F409A
:0C03E40000E10F4004E10F4008E10F4071
:1003F000034C206804348047FBE700F03BF9FEE73C
:04040000240A0000CA
:0404040000000000F4
:1004080080B540F65C20C2F200000078BFF35F8F31
:10041800C00798B940F65C20C2F2000000F05FFA0D
:1004280060B100F00DF840F65421C2F200010860F6
:0E04380040F65C20C2F2000000F0C7F980BD63
:02044600FEE7CF
:1004480080B584B000F056F802900298202802D3B4
:10045800002003900EE0029940F62800C2F2000046
:10046800019000EBC100FFF717FE0198029900EB1D
:0A047800C1000390039804B080BD9A
:02048200FEE793
:1004840080B582B040F65820C2F200000078BFF375
:100494005F8FC00768BB40F65820C2F2000000F02E
:1004A40020FA30B340F20000C2F20000019001983B
:1004B4000090FFF7C3FD009800F11801084640F2D0
:1004C4000002C2F2000202F5A56291420190EED14F
:1004D40040F25500C0F2000040F20002C0F20002F7
:1004E400002100F0D8F940F65820C2F2000000F0D4
:0604F4006EF902B080BDAC
:0204FA00FEE71B
:1004FC0080B584B040F66830C2F20000006810B9D4
:10050C002020039012E040F66830C2F20000019007
:10051C000068FFF7CBFD01990290029A012000FAC6
:10052C0002F208689043086002980390039804B0A4
:02053C0080BD80
:02053E00FEE7D6
:1005400081B00090009890FAA0F0B0FA80F001B06D
:020550007047F2
:02055200FEE7C2
:1005540080B584B040F66430C2F20000006810B97F
:100564000020039018E040F66430C2F200000190CD
:100574000068FFF79FFD01990290029A012000FA9A
:1005840002F2086890430860029940F66020C2F2C3
:0E059400000000EBC1000390039804B080BD8E
:0205A200FEE772
:0E05A40081B0009000980021016101B0704705
:0205B200FEE762
:1005B40080B540F65C20C2F200000078BFF35F8F84
:1005C400C00798B940F65C20C2F2000000F089F937
:1005D40060B1FFF737FF40F65421C2F20001086012
:0E05E40040F65C20C2F2000000F0F1F880BD8D
:0205F200FEE722
:1005F40080B582B040F65820C2F200000078BFF304
:100604005F8FC00768BB40F65820C2F2000000F0BC
:1006140068F930B340F20000C2F200000190019882
:100624000090FFF70BFD009800F11801084640F216
:100634000002C2F2000202F5A56291420190EED1DD
:1006440040F2FD00C0F2000040F20002C0F20002DD
:10065400002100F020F940F65820C2F2000000F01A
:06066400B6F802B080BDF3
:0A066A0008B500F005F9C0B208BDA4
:1006740080B582B000200190FFF7F5FF40F24050B2
:10068400C0F2C010FFF7F2FD0120FFF7E1FD0120E9
:0A069400C2F21000FFF7AEFDFEE712
:06069E000138FDD1704798
:1006A40080B582B040F22850C2F200000190019857
:1006B4000090FFF73DFD009800F11801084640F254
:1006C4002852C2F2000202F5407291420190EED12A
:1006D40040F24910C0F2000040F20002C0F20002F1
:0A06E400002100F0D8F802B080BD3C
:1006EE0040F20440C0F200000468204600F008F812
:0206FE00FBE718
:0E07000081B0009000980021016101B07047A7
:10070E0080B505281FD840F6282CC2F2000C40F206
:10071E0095735CF82010C0F200034CF82030A9B19C
:10072E0040F29372C0F2000291420CD0994208D06E
:10073E0040F29173C0F20003994207D04CF820307A
:10074E008847002008BD4FF0FF3008BD0120FFF79D
:02075E004FFE4C
:1007600040F66033C2F200031A78002A02464FF0C6
:10077000010007D140F6402CC2F2000CCCE9002168
:0607800018700020704714
:0A078600014600200022FFF7E8BF43
:020790007047B0
:020792007047AE
:020794007047AC
:06079600FFF7AAFFFEE7D9
:10079C00F8B540F64824C2F20004206890B140F647
:1007AC00A815C2F2000540F62816C2F200066FF03A
:1007BC00030707EB80002958305888472068013818
:0607CC002060F6D1F8BD2B
:1007D20070B582B004460125BFF35F8F057040F605
:1007E200EC11C0F2000101A800F02FF866786570E4
:1007F20000F0AAF8700706D540F64C20C2F20000BD
:1008020000F046F808B902B070BD40F6A410C0F27C
:0E081200000040F6EC11C0F20001FFF7BBFF42
:1008200010B540F65024C2F200040020206000F011
:0608300028F8206010BD55
:1008360010B540F64C24C2F200040020206000F0FF
:0608460023F8206010BD44
:10084C0010B50446016040F65020C2F2000000F0E2
:10085C0014F808B9204610BD216840F66E10C0F29D
:06086C000000FFF792FFFF
:08087200AFF30080FFF7BBFDAE
:08087A00EFF3108072B6704725
:04088200002070479B
:040886000020704797
:04088A000020704793
:04088E00002070478F
:04089200002070478B
:040896000020704787
:10089A0070B540F64826C2F200060C463268054694
:1008AA008AB11F2A16D840F6A810C2F2000040F8F2
:1008BA00225040F62810C2F2000040F82240501C94
:1008CA003060002070BD40F29D70C0F20000FFF75A
:0C08DA0055FF08B1012070BD3268E2E754
:1008E60070B582B004460078BFF35F8F08B100246C
:1008F60025E040F6D811C0F2000101A8FFF7A3FFDA
:100906006078810711D540F64C25C2F2000540F605
:100916005026C2F2000640F00400607028463146B8
:10092600FFF7B6FF60788107F5D401281CBF0221C6
:100936006170441E18BF012401A800F003F8204688
:0409460002B070BDCE
:10094A0010B5044640F65020C2F20000FFF798FFA7
:10095A0008B9204610BD216840F68910C0F200008F
:04096A00FFF714FF80
:10096E002573206661696C656420746F2061637104
:0B097E0075697265206D757465780066
:100989002573206661696C656420746F2072656CDB
:0B09990065617365206D757465780062
:1009A4002573206661696C656420746F2062726FC0
:0709B40061646361737400CC
:0409BC00090400002A
:0409C00085040000AA
:0409C400B505000075
:0409C800F505000031
:0409CC00C90100005D
:0809D0002108000037080000B7
:1009D8005F5F6378615F67756172645F616371759A
:0409E80069726500CB
:1009EC005F5F6378615F67756172645F72656C6588
:0409FC0061736500BE
:100A000000B506480649884205D00268043003B4A0
:100A1000904703BCF7E708BC18470000BC0900007A
:040A2000D8090000F1
:100A2400510A000000000020610B0000630A00006E
:100A3400640B0020480A000008000000010A0000BE
:040A4400FB030000B0
:080A4800FFFFFFFFFFFFFFFFAE
:100A5000206861680834002200E04254491EFCD539
:020A60007047DD
:100A620020686168A2680C3401E08B5C8354521EDA
:040A7200FBD57047F9
:04000003000008737E
:00000001FF
