:1000000000600020231D0000230E0000B10D000041
:100010003B0E0000470E0000530E000000000000E1
:10002000000000000000000000000000830E00003F
:100030008F0E0000000000009B0E0000A70E0000C5
:1000400080B5B8B024A8009000F0DEFE00981590AE
:10005000159916A8019000F01FF801991CA80490AA
:1000600000F02AF8019800F033F89DF8171006A860
:10007000029000F037F802990CA8039000F01CF8E9
:10008000029800F025F8039800F0CCFE049800F0E8
:08009000C9FE002038B080BD5C
:1000980080B584B0039102900298019003A800F003
:1000A800CFFE0146019800F0D1FE019804B080BD52
:1000B80080B584B00390029103980190083000F055
:0800C8001FF8019804B080BD8F
:1000D00080B582B001900198009000F049F8009836
:0400E00002B080BD2D
:1000E40080B584B08DF80F100290029801900DF144
:1000F4000F0001F0F1FA0146019801F0F3FA0198BA
:0401040004B080BD06
:1001080080B584B00390029103980190029900F0A1
:0801180003F8019804B080BD5A
:1001200080B584B0029001910298009003900198EC
:10013000006918B900990020086116E00199086962
:1001400088420BD1009800F079FE0099086101986F
:10015000006909690268D268904706E00198006961
:1001600001688968884700990861039804B080BDD8
:1001700080B584B002900299019103910869884288
:1001800005D10198006901680969884707E001986D
:10019000006920B10198006901684969884703989E
:0401A00004B080BD6A
:1001A40080B582B001900198009000F06FFE009835
:0401B40002B080BD58
:1001B80080B58AB008900791069208990491099130
:1001C80000200861079800F065FEB0B106990DF1AE
:1001D8001700019000F064FE079800F031FE0199C5
:1001E80002900DF11600039000F06EFE049802993B
:1001F800039A00F09DFE0498006109980AB080BD3A
:1002080080B588B0079006910592079801900698E6
:1002180000F016FE00F0A2FF0390059800F0BCFE67
:1002280000F0AAFF014601980291039A029B9DF8EB
:0C023800131000F01DF8019808B080BD04
:1002440080B582B001900198009000F06FFF009893
:0402540002B080BDB7
:1002580080B584B00390029103980430019002980D
:1002680001F0CEF90146019801F0B8F904B080BD5B
:1002780080B58AB08DF827100892079306900698E3
:10028800009008A800F0C8FF01460098096804918A
:10029800049A9DF80F309DF8171000F0C3FF07A8C7
:1002A80000F0D6FF0146009809680291029A9DF86D
:1002B80007309DF80E1000F053F800980AB080BD82
:1002C80080B584B08C46079906998DF80FC08DF8D3
:1002D8000E208DF80D308DF80C10029002980190C8
:1002E800079800F0CBFD0146019800F003F801984B
:0402F80004B080BD11
:1002FC0080B584B00390029103980190029800F0AD
:0C030C00BBFD01460198016004B080BDFB
:1003180080B584B08C46079906998DF80FC08DF882
:100328000E208DF80D308DF80C1002900298019077
:10033800079800F04DFF0146019800F003F8019876
:0403480004B080BDC0
:10034C0080B584B00390029103980190029800F05C
:0C035C003DFF01460198016004B080BD27
:1003680080B586B08DF8171004928DF80F30029082
:100378000298019004A800F013F800F075FF0198A6
:0403880006B080BD7E
:10038C0080B582B00190019800F002F802B080BDF7
:0C039C0081B000900098006801B070472C
:1003A80080B582B00190019800F002F802B080BDDB
:0C03B80081B000900098006801B0704710
:1003C40080B582B00190019800F032F802B080BD8F
:1003D40080B584B00390029103980299019100F0D2
:1003E4002FF801460198884201D900F0A1FF029834
:0C03F400C000042100F0A4FF04B080BD94
:1004000080B584B003900291019203980090019806
:1004100000F0B4FF0246009802A900F0B5FF009872
:0404200004B080BDE7
:1004240080B582B00190019800F03AF802B080BD26
:1004340080B582B00190019800F074FF02B080BDD5
:1004440080B582B0019000F003F8C00802B080BD0E
:0804540080B500F08DFF80BDB2
:10045C0081B00090009808284FF0000088BF012060
:04046C0001B0704724
:1004700080B582B0019000910198009900F04DFE86
:0404800002B080BD89
:1004840080B582B00190019800F009FE02B080BDF1
:1004940080B582B00190019800F0BEFF02B080BD2B
:1004A40080B582B00190019800F0BCFF02B080BD1D
:1004B40080B588B007900691059207980190069838
:1004C40000F0B6FF0390059800F068FD00F056FEBA
:1004D400014601980291039A029B9DF8131000F0C3
:0804E40003F8019808B080BD87
:1004EC0080B58AB08DF8271008920793069006986D
:1004FC00009008A800F0C6FF014600980968049116
:10050C00049A9DF80F309DF8171000F0C1FF07A852
:10051C0000F09CFE0146009809680291029A9DF831
:10052C0007309DF80E10FFF719FF00980AB080BD38
:10053C0080B584B08C46079906998DF80FC08DF85C
:10054C000E208DF80D308DF80C1002900298019051
:10055C00079800F077FF0146019800F003F8019826
:04056C0004B080BD9A
:1005700080B584B00390029103980190029800F036
:0C05800067FF01460198016004B080BDD7
:10058C0080B582B00190019800F002F802B080BDF5
:0C059C0081B000900098006801B070472A
:1005A80080B582B00190019800F08AFF02B080BD4A
:1005B80080B582B001900091019A00991068526844
:0805C80000F002F802B080BD52
:1005D00080B584B003900291019203980299019A28
:0805E00000F0A6FF04B080BD8D
:1005E80080B584B003900291019203980299019A10
:0805F80000F00CF804B080BD16
:1006000080B582B0019000910198009900F00EF839
:0406100002B080BDF7
:1006140080B584B003900291019203980299019AE3
:0806240000F089FD04B080BD67
:10062C0080B582B0019000910198009901F05FFCB7
:04063C0002B080BDCB
:1006400080B584B00390029101920398009000F06D
:100650009BFC009840F64451C0F20001083140F87C
:10066000041B0299019A00F003F8009804B080BDC1
:1006700080B588B00790069105920798019006987A
:1006800000F0D8FE0390059800F078FF014601982D
:100690000291039A029B9DF8131000F003F8019851
:0406A00008B080BD61
:1006A40080B58AB08DF827100892079306900698B3
:1006B400009008A800F0EAFE014600980968049139
:1006C400049A9DF80F309DF8171000F0E5FE07A876
:1006D40000F080FF0146009809680291029A9DF893
:1006E40007309DF80E1000F02BF800980AB080BD7A
:1006F40080B584B08C46079906998DF80FC08DF8A3
:100704000E208DF80D308DF80C1002900298019097
:10071400079800F03FFF0146019800F003F80198A4
:0407240004B080BDE0
:1007280080B584B00390029103980190029800F07C
:0C0738002FFF01460198016004B080BD55
:1007440080B586B08DF8171004928DF80F300290A2
:100754000298019004A800F005F800F01BFF01982E
:0407640006B080BD9E
:1007680080B582B00190019800F002F802B080BD17
:0C07780081B000900098006801B070474C
:0807840081B0009001B0704744
:10078C0080B582B00190019800F09CFF02B080BD52
:10079C0080B582B001900198009000F0BDFF0098E8
:0407AC0002B080BD5A
:1007B00080B58AB008900791069208990491099132
:1007C00000200861079800F0B3FFB0B106990DF161
:1007D0001700019000F0B2FF079800F07FFF019929
:1007E00002900DF11600039000F0B4FF04980299F6
:1007F000039A00F0BBFF0498006109980AB080BD1D
:1008000080B588B0079006910592079801900698E8
:1008100000F064FF01F062F80390059800F0CEFF4D
:1008200001F06AF8014601980291039A029B9DF833
:0C083000131000F01DF8019808B080BD06
:10083C0080B582B001900198009000F073FC009894
:04084C0002B080BDB9
:1008500080B584B00390029103980430019002980F
:1008600000F0D2FE0146019801F010FA04B080BDFC
:1008700080B58AB08DF827100892079306900698E5
:10088000009008A801F088F80146009809680491D2
:10089000049A9DF80F309DF8171000F061F807A832
:1008A00001F080F80146009809680291029A9DF8CB
:1008B00007309DF80E1000F065F800980AB080BD72
:1008C00080B584B08C46079906998DF80FC08DF8D5
:1008D0000E208DF80D308DF80C10029002980190CA
:1008E000079800F019FF0146019800F003F80198FD
:0408F00004B080BD13
:1008F40080B584B00390029103980190029800F0AF
:0C09040009FF01460198016004B080BDAD
:1009100080B584B08C46079906998DF80FC08DF884
:100920000E208DF80D308DF80C1002900298019079
:10093000079801F00DF80146019800F003F80198BE
:0409400004B080BDC2
:1009440080B584B00390029103980190029800F05E
:0C095400FDFF01460198016004B080BD69
:1009600080B586B08DF8171004928DF80F30029084
:100970000298019004A800F017F801F019F8019806
:0409800006B080BD80
:1009840080B586B08DF8171004928DF80F30029060
:100994000298019004A800F013F801F00DF80198F2
:0409A40006B080BD5C
:1009A80080B582B00190019800F002F802B080BDD5
:0C09B80081B000900098006801B070470A
:1009C40080B582B00190019800F002F802B080BDB9
:0C09D40081B000900098006801B07047EE
:1009E00080B582B00190019800F032F802B080BD6D
:1009F00080B584B00390029103980299019100F0B0
:100A00002FF801460198884201D900F093FC029822
:0C0A1000C000042100F096FC04B080BD82
:100A1C0080B584B0039002910192039800900198E4
:100A2C0001F028F80246009802A901F029F8009874
:040A3C0004B080BDC5
:100A400080B582B00190019800F01AF802B080BD24
:100A500080B582B00190019801F00CF802B080BD21
:100A600080B582B00190FFF7F5FCC00802B080BDF0
:100A700080B582B00190019801F052F802B080BDBB
:100A800080B582B00190019801F050F802B080BDAD
:100A900080B588B007900691059207980190069856
:100AA00001F04AF80390059800F088FE00F024FF5A
:100AB000014601980291039A029B9DF8131000F0E1
:080AC00003F8019808B080BDA5
:100AC80080B58AB08DF8271008920793069006988B
:100AD800009008A801F05AF80146009809680491A6
:100AE800049A9DF80F309DF8171000F039F807A800
:100AF80000F054FF0146009809680291029A9DF897
:100B080007309DF80E10FFF739FF00980AB080BD36
:100B180080B584B08C46079906998DF80FC08DF87A
:100B28000E208DF80D308DF80C100290029801906F
:100B3800079801F00BF80146019800F003F80198B6
:040B480004B080BDB8
:100B4C0080B584B00390029103980190029800F054
:0C0B5C00FBFF01460198016004B080BD61
:100B680080B586B08DF8171004928DF80F3002907A
:100B78000298019004A800F005F800F0E7FF01983A
:040B880006B080BD76
:100B8C0080B582B00190019800F002F802B080BDEF
:0C0B9C0081B000900098006801B0704724
:100BA80080B582B00190019800F0F6FF02B080BDD8
:100BB80080B582B001900091019A0099106852683E
:080BC80000F002F802B080BD4C
:100BD00080B584B003900291019203980299019A22
:080BE00001F012F804B080BD21
:100BE80080B584B00390029101920398009000F0C0
:100BF800C7F9009840F68C51C0F20001083140F85E
:100C0800041B0299019A00F003F8009804B080BD13
:100C180080B588B0079006910592079801900698CC
:100C280000F086FF0390059800F0F8FF0146019850
:100C38000291039A029B9DF8131000F003F80198A3
:040C480008B080BDB3
:100C4C0080B58AB08DF82710089207930690069805
:100C5C00009008A800F098FF0146009809680491DC
:100C6C00049A9DF80F309DF81710FFF777FF07A82F
:100C7C0001F000F80146009809680291029A9DF86B
:100C8C0007309DF80E1000F02BF800980AB080BDCC
:100C9C0080B584B08C46079906998DF80FC08DF8F5
:100CAC000E208DF80D308DF80C10029002980190EA
:100CBC00079800F0BFFF0146019800F003F8019877
:040CCC0004B080BD33
:100CD00080B584B00390029103980190029800F0CF
:0C0CE000AFFF01460198016004B080BD28
:100CEC0080B586B08DF8171004928DF80F300290F5
:100CFC000298019004A800F005F800F09BFF019801
:040D0C0006B080BDF0
:100D100080B582B00190019800F002F802B080BD69
:0C0D200081B000900098006801B070479E
:080D2C0081B0009001B0704796
:100D340080B582B00190019800F0ECFF02B080BD54
:100D4400000000000000000045020000C10F000088
:100D5400F10F000075100000B9100000E910000048
:040D64005902000030
:100D680000000000000000003111000041110000E7
:100D7800EB1E0000EB1E0000EB1E0000EB1E000047
:040D8800EB1E00005E
:100D8C0000000000000000003D080000C917000032
:100D9C00E51700006518000095180000A918000060
:040DAC0051080000EA
:100DB00008490A68002AFED41EF0040F0CBFEFF3A6
:100DC0000880EFF3098042F000420A608169023135
:080DD000816170472CED00E089
:100DD800034C206804348047FBE7FFF72DF9FEE752
:040DE800901F000058
:040DEC000000000003
:100DF00003480449091A08B500F0D7F80CBC184795
:080E0000280000202808002052
:100E080081B0009000984021A0F840100021416472
:0A0E18003F218164C16401B07047FE
:020E2200FEE7E9
:100E240080B582B00190019800900830FFF74EF928
:060E3400009802B080BD31
:020E3A00FEE7D1
:0A0E3C0081B00090009801B07047EB
:020E4600FEE7C5
:0A0E480081B00090009801B07047DF
:020E5200FEE7B9
:100E540080B586B00590049105980290049800F03E
:100E64000FF800900DF10F000190FFF799F9029827
:0E0E74000099019AFFF79EF9029806B080BD22
:020E8200FEE789
:0A0E840081B00090009801B07047A3
:020E8E00FEE77D
:0A0E900081B00090009801B0704797
:020E9A00FEE771
:0A0E9C0081B00090012001B0704702
:020EA600FEE765
:100EA80080B584B0039002910398019000F062F835
:060EB800019804B080BDAA
:100EBE0040F6EC50C0F200000468204600F00CF83A
:020ECE00FBE740
:100ED00080B584B00390029103980190FFF7D8FF8A
:060EE000019804B080BD82
:100EE60080B505281FD840F2000CC2F2000C40F66F
:100EF6009F735CF82010C0F200034CF82030A9B1B3
:100F060040F68772C0F2000291420CD0994208D096
:100F160040F67B73C0F20003994207D04CF82030AC
:100F26008847002008BD4FF0FF3008BD0120FFF7BD
:020F360057FF63
:100F380080B586B00590049103920598029000F060
:100F48001FF8029840F64451C0F20001083140F8F9
:100F5800041B01900498FFF773FF0090039800F0BA
:100F68001BF8009902460198FFF74AF9029806B063
:020F780080BD3A
:020F7A007047BE
:0A0F7C0081B00090009801B07047AA
:020F86007047B2
:100F880081B00090009840F66851C0F20001083125
:060F9800016001B070478A
:020F9E0070479A
:0A0FA00081B00090009801B0704786
:100FAA00082907D340F22002C2F200021060002290
:060FBA00C0E900217047B0
:100FC00080B582B0019001980090FFF73BF900983E
:0A0FD000082100F092FF02B080BD7E
:100FDA0010B5044600F04EFF204600F0FDFEBDE8C5
:060FEA00104000F053BFAF
:100FF00080B592B01190119804300390FFF7E2F998
:1010000001460DF143000490FFF74EFF04980121C3
:101010000091FFF7DFF9009A049901900BA8029064
:1010200000F02CF90199029A0DA80890FFF7E8F951
:10103000089800F02FF9014603980591FFF7F2F99F
:10104000049906900DF12B000790FFF741FF0598DA
:101050000699079A00F028F9089800F045F901462A
:0E1060000898099100F054F9099812B080BD6B
:06106E00FFF726FFFEE77C
:1010740080B586B0059004910598049903910430D5
:101084000190FFF7CDF9014601980291FFF798F915
:0E109400029902460398FFF7D1FA06B080BD1C
:1010A20080B500F011F800B108BD41F62A70C0F217
:0610B2000000FFF7DBFF68
:1010B80080B582B0019001980430FFF75FFB02B061
:0210C80080BDE9
:1010CA0010B50446012898BF0124204600F0E6FE28
:0E10DA0020B900F0FDFE08B18047F6E710BD1A
:1010E80080B586B005900598039004300190FFF70D
:1010F80065F901460DF113000290FFF7D1FE019842
:10110800FFF73CFB02980399012200F00DFA06B0A4
:0211180080BD98
:10111A0080B500F0EFFE00B108BD41F62A70C0F2BA
:06112A000000FFF79FFF2B
:0A11300081B00090009801B07047F4
:06113A00114600F0F3BEB7
:0611400081B00090FEDE0C
:1011460050757265207669727475616C2066756E6D
:0E1156006374696F6E2063616C6C65642100C8
:1011640080B582B000900098FFF78AFE014601A87E
:0A11740000F012F8019802B080BDEF
:1011800080B582B00090009800F026F8014601A8D2
:0A11900000F028F8019802B080BDBD
:10119C0010B586B005900491059802900498FFF75D
:1011AC006BFE044602989DF80D309DF80E209DF8BC
:1011BC000F109DF80CC0EE46CEF80440CEF800C0DF
:0A11CC00FFF77CF8029806B010BD92
:0A11D80081B00090009801B070474C
:1011E40010B586B005900491059802900498FFF715
:1011F400F1FF044602989DF80D309DF80E209DF8ED
:101204000F109DF80CC0EE46CEF80440CEF800C096
:0A121400FFF780F8029806B010BD45
:0A12200081B00090009801B0704703
:10122C0080B586B08DF8171004928DF80F300290AF
:10123C000298019004A8FFF7A3F800F00DF80146FE
:0A124C0001980968016006B080BD3A
:0A12580081B00090009801B07047CB
:0A12640081B00090009801B07047BF
:0A12700081B00090009801B07047B3
:10127C0083B002900191009202980199016000994B
:06128C00416003B0704751
:1012940080B582B001900198FFF7FAF8006802B0B7
:0212A40080BD0B
:1012A80080B586B005900491039205980290FFF7E7
:1012B80067FE029840F64451C0F20001083140F838
:1012C800041B0190049800900398FFF765FE0099AD
:0E12D80002460198FFF7EAF8029806B080BDC2
:1012E80080B584B0039003980190FFF759F901463F
:1012F800019809680291FFF753F901460020086038
:06130800029804B080BD54
:1013100080B582B0019001980090002100F0DAF8C9
:06132000009802B080BD40
:0A13280081B00090009801B07047FA
:0E13340041F65770C0F20000FFF797FE7047B9
:1013440080B584B0029001910198FFF785F838B117
:101354000198009002980099FFF788F8039003E041
:0E1364000298FFF78DF80390039804B080BD47
:061374004FF0FF3070474E
:0A137C0081B00090009801B07047A6
:1013880080B586B005900491039205980290049860
:1013980000F012F80146029800F014F802980430A0
:1013A8000190039800F01EF80146019800F020F81B
:0613B800029806B080BDA2
:0A13C00081B00090009801B0704762
:1013CC0080B584B003900291039801900298FFF7C6
:0E13DC00F1FF014601980968016004B080BD70
:0A13EC0081B00090009801B0704736
:1013F80080B584B003900291039801900298FFF79A
:10140800F1FF02460198116852684260016004B019
:0214180080BD95
:0A141C0081B00090009801B0704705
:0A14280081B00090009801B07047F9
:1014340080B582B00090009800F008F8014601A839
:0A14440000F00AF8019802B080BD24
:0A14500081B00090009801B07047D1
:10145C0010B586B00590049105980290049C9DF8F7
:10146C000D309DF80E209DF80F109DF80CC0EE4627
:10147C00CEF80440CEF800C0FFF75AF8029806B038
:02148C0010BD91
:0A14900081B00090009801B0704791
:10149C0080B586B08DF8171004928DF80F3002903D
:1014AC000298019004A8FFF76BF8FFF7CBFF0146F9
:0A14BC0001980968016006B080BDC8
:0A14C80081B00090009801B0704759
:1014D40080B586B00590049105980190FFF762F8F5
:1014E400014601980968039104990291FFF75AF89B
:1014F400014602980860039828B1019800F006F8A4
:0A1504000399FFF757F806B080BD09
:1015100080B582B001900198043000F003F802B069
:0215200080BD8C
:0A15240081B00090009801B07047FC
:1015300080B584B003900291019202980199C9008C
:0A154000042200F003F804B080BD9F
:10154C0080B584B00390029101920198FEF780FF60
:10155C0038B10198009003980299009AFFF73EF871
:0E156C0003E003980299FFF745F804B080BD34
:10157C0080B582B00090009800F008F8014601A8F0
:0A158C0000F00AF8019802B080BDDB
:0A15980081B00090009801B0704788
:1015A40010B586B00590049105980290049C9DF8AE
:1015B4000D309DF80E209DF80F109DF80CC0EE46DE
:1015C400CEF80440CEF800C0FFF792F8029806B0B7
:0215D40010BD48
:0A15D80081B00090009801B0704748
:1015E40080B584B0039002910398FFF7CDF8019081
:1015F400029800F007F80146019800F009F804B0D9
:0216040080BDA7
:0A16080081B00090009801B0704717
:1016140080B584B003900291039800F017F801900C
:101624000298FFF7EFFF0146019800F003F804B0B9
:0216340080BD77
:1016380080B582B00190009101980099097800F076
:0616480009F802B080BDAC
:0A16500081B00090009801B07047CF
:10165C0080B582B001908DF80310019800689DF858
:0A166C00031000F003F802B080BD87
:1016780083B002908DF8071002990091886C0130B0
:101688008864B1F84010884202D300990020886429
:1016980000989DF80710826C8154816CC06C884258
:1016A8000BD10099C86C0130C864B1F84010884269
:1016B80002D300990020C86403E00099486C013007
:0616C800486403B0704706
:0A16D00081B00090009801B070474F
:0A16DC0081B00090009801B0704743
:1016E80080B586B00590049105980290049800F0A2
:1016F8000FF800900DF10F000190FFF74BF80298DA
:0E1708000099019AFFF750F8029806B080BDD4
:0A17180081B00090009801B0704706
:0A17240081B00090009801B07047FA
:0A17300081B00090012001B0704765
:10173C0080B584B0039002910398019000F032F8C8
:06174C00019804B080BD0D
:1017540080B584B00390029103980190FFF7E0FFF5
:06176400019804B080BDF5
:10176C0080B586B005900491039205980290FFF71E
:10177C0005FC029840F68C51C0F20001083140F88B
:10178C00041B01900498FFF7A3FF0090039800F04E
:10179C000FF8009902460198FFF72CF8029806B052
:0217AC0080BDFE
:0A17B00081B00090009801B070476E
:0A17BC0081B00090009801B0704762
:1017C80080B582B0019001980090FFF733F8009837
:0A17D800082100F08EFB02B080BD76
:1017E40080B592B01190119804300390FFF7F6F889
:1017F40001460DF143000490FFF79EFF0498012178
:101804000091FFF7F3F8009A049901900BA8029055
:1018140000F0D8F80199029A0DA80890FFF7FCF897
:10182400089800F0DBF8014603980591FFF706F9E4
:10183400049906900DF12B000790FFF789FF059896
:101844000699079A00F0D4F8089800F0F1F80146D8
:0E1854000898099100F000F9099812B080BDC3
:1018640080B586B0059004910598049903910430DD
:101874000190FFF7E3F8014601980291FFF7AEF8F3
:0E188400029902460398FFF7ADF906B080BD49
:1018940080B582B0019001980430FFF745FA02B098
:0218A40080BD05
:1018A80080B586B005900598039004300190FFF745
:1018B80093F801460DF113000290FFF73BFF0198E2
:1018C800FFF730FA02980399012200F099F906B05F
:0218D80080BDD1
:1018DC0080B582B000900098FFF718FF014601A870
:0A18EC0000F012F8019802B080BD70
:1018F80080B582B00090009800F026F8014601A853
:0A19080000F028F8019802B080BD3D
:1019140010B586B005900491059802900498FFF7DD
:10192400F9FE044602989DF80D309DF80E209DF8AE
:101934000F109DF80CC0EE46CEF80440CEF800C05F
:0A194400FEF7BCFF029806B010BDCC
:0A19500081B00090009801B07047CC
:10195C0010B586B005900491059802900498FFF795
:10196C00F1FF044602989DF80D309DF80E209DF86D
:10197C000F109DF80CC0EE46CEF80440CEF800C017
:0A198C00FEF7C0FF029806B010BD80
:0A19980081B00090009801B0704784
:0A19A40081B00090009801B0704778
:0A19B00081B00090009801B070476C
:0A19BC0081B00090009801B0704760
:1019C80083B00290019100920298019901600099F8
:0619D800416003B07047FE
:1019E00080B582B001900198FFF742F8006802B01C
:0219F00080BDB8
:1019F40080B586B005900491039205980290FFF794
:101A0400C1FA029840F68C51C0F20001083140F846
:101A1400041B0190049800900398FFF7CDFE0099F1
:0E1A240002460198FFF732F8029806B080BD26
:101A340080B584B0039003980190FFF7B3F8014692
:101A4400019809680291FFF7ADF80146002008608B
:061A5400029804B080BD01
:101A5C0080B582B0019001980090002100F0A0F8B0
:061A6C00009802B080BDED
:0A1A740081B00090009801B07047A7
:0A1A800081B00090009801B070479B
:101A8C0080B586B005900491039205980290049855
:101A9C0000F012F80146029800F014F80298043095
:101AAC000190039800F01EF80146019800F020F810
:061ABC00029806B080BD97
:0A1AC40081B00090009801B0704757
:101AD00080B584B003900291039801900298FFF7BB
:0E1AE000F1FF014601980968016004B080BD65
:0A1AF00081B00090009801B070472B
:101AFC0080B584B003900291039801900298FFF78F
:101B0C00F1FF02460198116852684260016004B00E
:021B1C0080BD8A
:0A1B200081B00090009801B07047FA
:0A1B2C0081B00090009801B07047EE
:101B380080B582B00090009800F008F8014601A82E
:0A1B480000F00AF8019802B080BD19
:0A1B540081B00090009801B07047C6
:101B600010B586B00590049105980290049C9DF8EC
:101B70000D309DF80E209DF80F109DF80CC0EE461C
:101B8000CEF80440CEF800C0FEF7C6FF029806B0BB
:021B900010BD86
:0A1B940081B00090009801B0704786
:0A1BA00081B00090009801B070477A
:101BAC0080B586B00590049105980190FEF7F6FF7C
:101BBC00014601980968039104990291FEF7EEFF22
:101BCC00014602980860039828B1019800F006F8C5
:0A1BDC000399FEF7EBFF06B080BD91
:101BE80080B582B001900198043000F003F802B08B
:021BF80080BDAE
:0A1BFC0081B00090009801B070471E
:101C080080B584B003900291019202980199C900AD
:0A1C18000422FFF797FC04B080BD22
:101C240080B582B00090009800F008F8014601A841
:0A1C340000F00AF8019802B080BD2C
:0A1C400081B00090009801B07047D9
:101C4C0010B586B00590049105980290049C9DF8FF
:101C5C000D309DF80E209DF80F109DF80CC0EE462F
:101C6C00CEF80440CEF800C0FFF712F8029806B088
:021C7C0010BD99
:0A1C800081B00090009801B0704799
:101C8C0080B584B0039002910398FFF74DF8019052
:101C9C000298FFF7B3FC0146019800F003F804B07A
:021CAC0080BDF9
:101CB00080B584B003900291039800F017F801906A
:101CC0000298FFF7A1FC0146019800F003F804B068
:021CD00080BDD5
:101CD40080B582B00190009101980099097800F0D4
:061CE40009F802B080BD0A
:0A1CEC0081B00090009801B070472D
:101CF80080B582B001908DF803109DF803104CF266
:0E1D08000000C4F2000000F00CF802B080BD34
:0A1D180081B00090009801B0704700
:081D2200AFF30080FFF757F852
:0C1D2A00836913F0200FFBD101607047AB
:101D360040F2200CC2F2000CDCF800304BB170B55A
:101D46000F305C6820F0070E0025744503D1184655
:101D560015E00020704700214A1E0025744588BF03
:101D66000125944280414642186835421CBF1946F7
:101D7600224668B1446874451D460346EDD1002DE0
:101D860001680CBFCCF80010296040F808EB70BD64
:101D96000029FCD04B68A2EB0E000844A3EB0E0210
:041DA6004A60F2E7B6
:101DAA0038B50446013884EA000282424FF0000046
:101DBA000ED969B1E51D6818FFF7B8FF01001FBF0A
:101DCA0068186242104041F0010118BF40F8081D2E
:081DDA00002818BF083038BDD5
:101DE20020B350F8081CCA0718BF21F00100E8B15F
:101DF20010B540F22002C2F200020146D2F800E021
:101E0200BEF1000F51F808CD11D08E45734615D2A0
:101E12001A461B681C0018BF012401D08B42F7D35D
:101E220040F804CD40F8043C11600EE070471160A8
:101E3200C1F800E01068C0F804C010BD40F804CD3D
:101E4200012440F804EC116000225CB101EB0C04A7
:101E52009C4201BFD3F804C004686444046004BF18
:101E62001B680B608E45E8D25368D4188C42E4D1CB
:0C1E72000068184450600868106010BD43
:101E7E00EFF3108072B6B0FA80F040F21C01C2F29D
:081E8E000001400908607047E3
:101E960040F21C00C2F20000006800B162B6704752
:101EA60010B50446FFF7E8FF2046FFF741FF04465A
:081EB600FFF7EEFF204610BD0E
:101EBE0038B50C460546FFF7DBFF28462146FFF7EF
:0C1ECE006DFF0446FFF7E0FF204638BD22
:101EDA0040F21800C2F200000068BFF35F8F70473B
:0C1EEA0041F24610C0F20000FFF7BCF807
:041EF600FFF770B8CA
:041EFA00FFF7FCBF33
:101EFE0038B50C460546012898BF0125042998BF20
:101F0E00042420462946FFF7D3FF20B9FFF7DEFF52
:081F1E0008B18047F5E738BD6A
:041F2600FFF758B8B1
:101F2A006261645F616C6C6F6320776173207468AF
:101F3A00726F776E20696E202D666E6F2D657863DD
:0D1F4A00657074696F6E73206D6F646500C3
:101F57006261645F61727261795F6E65775F6C65FC
:101F67006E67746820776173207468726F776E206C
:101F7700696E202D666E6F2D657863657074696F65
:081F87006E73206D6F646500AC
:101F9000A51F00000000002024000000F10D00003B
:041FA000E30D00004D
:101FA400206861680834002200E04254491EFCD5D0
:021FB400704774
:0400000300001D23B9
:00000001FF
