:1000000000600020B7EE000097790000DD7100006D
:10001000A3790000DB790000E77900000000000010
:100020000000000000000000000000005F7A0000F7
:100030006F7A000000000000E77A00000B7B0000F0
:100040000008000800000540020000002000000039
:1000500040000000040000000021000082000000B9
:100060000300000000000000002000000000054028
:10007000020000002000000040000000000004001A
:10008000000100000200000003000000000000006A
:10009000000000000000054001000000100000000A
:1000A000100000000200000000220000810000009B
:0C00B00001000000000000000020000023
:0400BC0002F012F943
:1000C00000000540000000000000000040000000AB
:1000D0000100000000030000800000003C00000060
:1000E000FF0300000F0000000F0E03FF01000000DF
:0400F00001001020DB
:1000F40080B584B00390029103980190029807F0B0
:1001040049FC0146019800F003F8019804B080BD51
:1001140080B584B00390029103980190002107F008
:100124003FFC0298006918B901990020086116E0A3
:100134000299086988420BD1019807F04DFC019996
:1001440008610298006909690268D268904706E06C
:1001540001990298006908610299002008610198D8
:0401640004B080BDA6
:1001680080B582B001900198009007F075FC009866
:0401780002B080BD94
:10017C0080B584B0039040F20040C2F2000000F55C
:10018C00A56002900298183801900146009100F089
:10019C000BF80098019940F20042C2F20002914221
:0801AC000290EFD104B080BD08
:1001B40080B582B001900198009000F03FF800985B
:0401C40002B080BD48
:1001C80081B080B587B0019109930690059104929A
:1001D80009A803900498029041F21B50C2F2000053
:1001E8000078202800DB22E0019807F0CBFB0146CD
:1001F80041F21B50C2F200000090007800EB400270
:1002080040F62810C2F2000000EBC200FFF76EFFB4
:10021800009902980A7841F2F851C2F2000151F8A7
:10022800221006F083FB009908780130087007B0A7
:08023800BDE8804001B07047F1
:1002400080B584B0029002990191039108698842B7
:1002500005D10198006901680969884707E001989C
:10026000006920B1019800690168496988470398CD
:0402700004B080BD99
:0C0274000000000000000000C9010000B4
:1002800080B584B0039040F20040C2F2000000F557
:10029000A560029002981838019001460091FFF77E
:1002A00089FF0098019940F20042C2F20002914297
:0802B0000290EFD104B080BD03
:1002B80080B5ADF5835D86B0002000900DF5805EB9
:1002C800CEF8740007F033FD40F24050C0F2C01081
:1002D80007F022F8012007F011F80120C2F21000FF
:1002E80006F0DEFF00980DF5805E8EF873000DF5C0
:1002F800805E8EF8720004A80DF1130E0EF583517E
:100308000DF1120E0EF5835207F0FCFB01A807F061
:08031800DBFC07F0D4FCFEE75A
:1003200080B582B041F2F400C2F200000078C0074C
:1003300030BB41F2F401C2F200010120087040F626
:100340002840C2F2000001900198009000F01AF8D5
:10035000009800F11801084640F62842C2F2000257
:1003600002F5347291420190EED140F29930C0F220
:10037000000040F20002C0F2000200210EF0F9FF7E
:0403800002B080BD8A
:1003840080B582B00190019800900CF03FFF009876
:0403940002B080BD76
:1003980080B584B0039040F62840C2F2000000F512
:1003A800347002900298183801900146009100F0CC
:1003B8000BF80098019940F62842C2F200029142D7
:0803C8000290EFD104B080BDEA
:1003D00080B582B001900198009004F02DFC009847
:0403E00002B080BD2A
:1003E40081B0009000984FF40061A0F8001800213B
:1003F400C0F8041840F2FF71C0F80818C0F80C18CF
:0404040001B070478C
:1004080080B584B0039102900298019003A807F088
:1004180009FD0146019807F01DFD019804B080BD53
:1004280080B582B001900198009000F061FC0098BE
:0404380002B080BDD1
:10043C0070B591B08DF8430046F2E412C0F20002A0
:10044C0068460146B2E83850A1E83850B2E8385056
:10045C00A1E8385092E8785081E878509DF8431024
:08046C0050F8210011B070BD31
:1004740080B584B0039102900298019003A808F01B
:10048400D5FA0146019808F0D7FA019804B080BD66
:1004940070B591B08DF8430046F26C22C0F20002B0
:1004A40068460146B2E83850A1E83850B2E83850FE
:1004B400A1E8385092E8785081E878509DF84310CC
:0804C40050F8210011B070BDD9
:1004CC0080B584B0039102900298019003A808F0C3
:1004DC0011FE0146019808F013FE019804B080BD8E
:1004EC0080B584B0039102900298019003A809F0A2
:1004FC00DFFA0146019809F0E1FA019804B080BDD9
:10050C0080B584B0039102900298019003A809F081
:10051C0045FE0146019809F047FE019804B080BDE4
:10052C0080B584B0039102900298019003A80AF060
:10053C00A5F9014601980AF0A7F9019804B080BD0D
:10054C0080B584B0039102900298019003A80AF040
:10055C00F3FC014601980AF0F5FC019804B080BD4B
:10056C0080B584B0039102900298019003A80BF01F
:10057C0023F8014601980BF025F8019804B080BDD2
:10058C0080B584B0039102900298019003A80BF0FF
:10059C009DFB014601980BF09FFB019804B080BDB8
:1005AC0080B584B0039102900298019003A80BF0DF
:1005BC00EDFE014601980BF0EFFE019804B080BDF2
:1005CC0080B584B0039102900298019003A80CF0BE
:1005DC006DFA014601980CF06FFA019804B080BDD9
:1005EC0080B584B0039040F24000C0F2000001904E
:1005FC00543040210CF09AFD01460198ADF80A10D8
:10060C00BDF80A1004300CF091FD01460198ADF8CC
:10061C000A10BDF80A102C300CF088FD04B080BD17
:10062C0080B582B001900198009007F033FC0098DF
:04063C0002B080BDCB
:1006400080B58AB0089007910692089904910991A3
:1006500000200861079807F029FCB0B106990DF158
:100660001700019007F028FC079807F0DFFB0199BD
:1006700002900DF11600039007F040FC04980299D7
:10068000039A07F053FC0498006109980AB080BDF2
:1006900080B588B00790069105920798019006985A
:1006A00007F0C4FB07F0B0FD0390059807F082FC4B
:1006B00007F0DEFD014601980291039A029B9DF826
:0C06C000131000F01DF8019808B080BD78
:1006CC0080B582B001900198009007F071FD009800
:0406DC0002B080BD2B
:1006E00080B584B003900291039804300190029881
:1006F00008F002F90146019808F0ECF804B080BD5A
:1007000080B58AB08DF82710089207930690069856
:10071000009008A807F02CFE014600980968049193
:10072000049A9DF80F309DF8171007F035FE07A8C2
:1007300007F052FE0146009809680291029A9DF85E
:1007400007309DF80E1000F053F800980AB080BDF5
:1007500080B584B08C46079906998DF80FC08DF846
:100760000E208DF80D308DF80C100290029801903B
:10077000079807F08FFB0146019800F003F80198F5
:0407800004B080BD84
:1007840080B584B00390029103980190029807F019
:0C0794007FFB01460198016004B080BDAD
:1007A00080B584B08C46079906998DF80FC08DF8F6
:1007B0000E208DF80D308DF80C10029002980190EB
:1007C000079807F095FD0146019800F003F801989D
:0407D00004B080BD34
:1007D40080B584B00390029103980190029807F0C9
:0C07E40085FD01460198016004B080BD55
:1007F00080B586B08DF8171004928DF80F300290F6
:100800000298019004A800F013F807F0F3FD019896
:0408100006B080BDF1
:1008140080B582B00190019800F002F802B080BD6A
:0C08240081B000900098006801B070479F
:1008300080B582B00190019800F002F802B080BD4E
:0C08400081B000900098006801B0704783
:10084C0080B582B00190019800F032F802B080BD02
:10085C0080B584B00390029103980299019100F045
:10086C002FF801460198884201D907F0A1FE0298A1
:0C087C00C000042107F0ACFE04B080BDF9
:1008880080B584B00390029101920398009001987A
:1008980007F0E8FE0246009802A907F0E9FE009872
:0408A80004B080BD5B
:1008AC0080B582B00190019800F03AF802B080BD9A
:1008BC0080B582B00190019807F068FE02B080BD4F
:1008CC0080B582B0019000F003F8C00802B080BD82
:0808DC0080B507F0BBFE80BDF2
:1008E40081B00090009808284FF0000088BF0120D4
:0408F40001B0704798
:1008F80080B582B0019000910198009907F05DFDE4
:0409080002B080BDFC
:10090C0080B582B00190019807F021FD02B080BD46
:10091C0080B582B00190019807F0F2FE02B080BD64
:10092C0080B582B00190019807F0F0FE02B080BD56
:10093C0080B588B0079006910592079801900698AB
:10094C0007F0EAFE0390059807F02EFB07F08AFCEF
:10095C00014601980291039A029B9DF8131000F036
:08096C0003F8019808B080BDFA
:1009740080B58AB08DF827100892079306900698E0
:10098400009008A807F0FAFE01460098096804914F
:10099400049A9DF80F309DF8171007F0F5FE07A88C
:1009A40007F018FD0146009809680291029A9DF823
:1009B40007309DF80E10FFF719FF00980AB080BDAC
:1009C40080B584B08C46079906998DF80FC08DF8D0
:1009D4000E208DF80D308DF80C10029002980190C5
:1009E400079807F0ABFE0146019800F003F8019860
:0409F40004B080BD0E
:1009F80080B584B00390029103980190029807F0A3
:0C0A08009BFE01460198016004B080BD17
:100A140080B582B00190019800F002F802B080BD68
:0C0A240081B000900098006801B070479D
:100A300080B582B00190019807F0BEFE02B080BD83
:100A400080B582B001900091019A009910685268B7
:080A500000F002F802B080BDC5
:100A580080B584B003900291019203980299019A9B
:080A680007F0DAFE04B080BDC6
:100A700080B584B003900291019203980299019A83
:080A800000F00CF804B080BD89
:100A880080B582B0019000910198009900F00EF8AD
:040A980002B080BD6B
:100A9C0080B584B003900291019203980299019A57
:080AAC0007F099FC04B080BDC5
:100AB40080B582B001900091019800990EF0D1FCAC
:040AC40002B080BD3F
:100AC80080B584B00390029101920398009007F0DA
:100AD80057FA009846F29C11C0F20001083140F81C
:100AE800041B0299019A00F003F8009804B080BD35
:100AF80080B588B0079006910592079801900698EE
:100B080007F00CFE0390059807F0ACFE014601982B
:100B18000291039A029B9DF8131000F003F80198C4
:040B280008B080BDD4
:100B2C0080B58AB08DF82710089207930690069826
:100B3C00009008A807F01EFE014600980968049171
:100B4C00049A9DF80F309DF8171007F019FE07A8AE
:100B5C0007F0B4FE0146009809680291029A9DF8CC
:100B6C0007309DF80E1000F02BF800980AB080BDED
:100B7C0080B584B08C46079906998DF80FC08DF816
:100B8C000E208DF80D308DF80C100290029801900B
:100B9C00079807F073FE0146019800F003F80198DE
:040BAC0004B080BD54
:100BB00080B584B00390029103980190029807F0E9
:0C0BC00063FE01460198016004B080BD96
:100BCC0080B586B08DF8171004928DF80F30029016
:100BDC000298019004A800F005F807F04FFE019868
:040BEC0006B080BD12
:100BF00080B582B00190019800F002F802B080BD8B
:0C0C000081B000900098006801B07047BF
:080C0C0081B0009001B07047B7
:100C140080B582B00190019807F0A6FE02B080BDB5
:100C240083B002908DF8071002990091D1F808085A
:100C34000130C1F80808B1F80018884203D30099BC
:100C44000020C1F8080800989DF80710D0F808287B
:100C54008154D0F80818D0F80C0888420ED10099B5
:100C6400D1F80C080130C1F80C08B1F8001888421A
:100C740003D300990020C1F80C0805E00099D1F8CD
:0C0C840004080130C1F8040803B07047F8
:100C900080B584B00390029103980190029900F00E
:080CA00003F8019804B080BDC7
:100CA80080B584B002900191029800900390019859
:100CB800006918B900990020086116E001990869CF
:100CC80088420BD1009807F053FE009908610198FB
:100CD800006909690268D268904706E001980069CE
:100CE80001688968884700990861039804B080BD45
:100CF80080B584B0029002990191039108698842F5
:100D080005D10198006901680969884707E00198D9
:100D1800006920B10198006901684969884703980A
:040D280004B080BDD6
:100D2C0080B582B00190019807F03CFE02B080BD06
:100D3C0080B584B00390029103980190029900F061
:080D4C000DF8019804B080BD10
:100D540080B582B0019000910198009900F02AF8C2
:040D640002B080BD9C
:100D680080B584B002900191029800900390019898
:100D7800006918B900990020086116E0019908690E
:100D880088420BD1009806F025FE00990861019869
:100D9800006909690268D268904706E0019800690D
:100DA80001688968884700990861039804B080BD84
:100DB80080B58EB00D900C910D9906910C988842D3
:100DC80000D187E006990869884242D10C990869E0
:100DD80088423ED108A806F0FDFD01460698079115
:100DE800006907990268D268904706980069016807
:100DF8000969884706980021049101610C990969DD
:100E0800039106F0E7FD014603980268D26890470F
:100E18000C980069016809698847049906980C9A32
:100E2800116106F0D7FD06990861079805900C989E
:100E380006F0D0FD014605980268D26890470798E9
:100E48000168096988470C9806F0C4FD0C99086187
:100E580040E006990869884219D10698006902900D
:100E68000C9806F0B7FD014602980268D2689047D0
:100E78000698006901680969884706990C9800690D
:100E880008610C9806F0A6FD0C99086122E00C99FF
:100E98000869884218D106980C990969019106F0E9
:100EA80099FD014601980268D26890470C9800693C
:100EB800016809698847069801690C9A116106F06A
:100EC80089FD0699086105E0069810300C991031E3
:080ED80007F08CFD0EB080BD97
:100EE00080B582B001900198009007F0C5FD009890
:040EF00002B080BD0F
:100EF40080B58AB0089007910692089904910991E7
:100F040000200861079807F0BBFDB0B106990DF108
:100F14001700019007F0BAFD079807F087FD0199C3
:100F240002900DF11600039007F0BCFD049802999D
:100F3400039A07F0C3FD0498006109980AB080BDC4
:100F440080B588B00790069105920798019006989D
:100F540007F06CFD07F08AFE0390059807F0E2FDA8
:100F640007F092FE014601980291039A029B9DF8B4
:0C0F7400131000F00DF8019808B080BDCB
:100F800080B582B001900198009007F067FE00984C
:040F900002B080BD6E
:100F940080B58AB08DF827100892079306900698BA
:100FA400009008A807F0C0FE014600980968049163
:100FB400049A9DF80F309DF8171007F0BBFE07A8A0
:100FC40007F0CEFE0146009809680291029A9DF846
:100FD40007309DF80E1000F053F800980AB080BD59
:100FE40080B584B08C46079906998DF80FC08DF8AA
:100FF4000E208DF80D308DF80C100290029801909F
:10100400079807F031FD0146019800F003F80198B4
:0410140004B080BDE7
:1010180080B584B00390029103980190029807F07C
:0C10280021FD01460198016004B080BD6C
:1010340080B584B08C46079906998DF80FC08DF859
:101044000E208DF80D308DF80C100290029801904E
:10105400079807F045FE0146019800F003F801984F
:0410640004B080BD97
:1010680080B584B00390029103980190029807F02C
:0C10780035FE01460198016004B080BD07
:1010840080B586B08DF8171004928DF80F30029059
:101094000298019004A800F013F807F06DFE01987F
:0410A40006B080BD55
:1010A80080B582B00190019800F002F802B080BDCE
:0C10B80081B000900098006801B0704703
:1010C40080B582B00190019800F002F802B080BDB2
:0C10D40081B000900098006801B07047E7
:1010E00080B582B00190019800F032F802B080BD66
:1010F00080B584B00390029103980299019100F0A9
:101100002FF801460198884201D907F057FA029852
:0C111000C000042107F062FA04B080BDAA
:10111C0080B584B0039002910192039800900198DD
:10112C0007F088FE0246009802A907F089FE009895
:04113C0004B080BDBE
:1011400080B582B00190019800F01AF802B080BD1D
:1011500080B582B00190019807F06CFE02B080BDAE
:1011600080B582B00190FFF7B9FBC00802B080BD26
:1011700080B582B00190019807F0B2FE02B080BD48
:1011800080B582B00190019807F0B0FE02B080BD3A
:1011900080B588B00790069105920798019006984F
:1011A00007F0AAFE0390059807F0BEFC07F06EFD5D
:1011B000014601980291039A029B9DF8131000F0DA
:0811C00003F8019808B080BD9E
:1011C80080B58AB08DF82710089207930690069884
:1011D800009008A807F0BAFE014600980968049133
:1011E800049A9DF80F309DF8171007F0B5FE07A870
:1011F80007F0B4FD0146009809680291029A9DF82B
:1012080007309DF80E10FFF739FF00980AB080BD2F
:1012180080B584B08C46079906998DF80FC08DF873
:101228000E208DF80D308DF80C1002900298019068
:10123800079807F06BFE0146019800F003F8019843
:0412480004B080BDB1
:10124C0080B584B00390029103980190029807F046
:0C125C005BFE01460198016004B080BDFB
:1012680080B582B00190019800F002F802B080BD0C
:0C12780081B000900098006801B0704741
:1012840080B582B00190019807F07EFE02B080BD67
:1012940080B582B001900091019A0099106852685B
:0812A40000F002F802B080BD69
:1012AC0080B584B003900291019203980299019A3F
:0812BC0007F09AFE04B080BDAA
:1012C40080B584B00390029101920398009007F0D6
:1012D4001DFC009846F22421C0F20001083140F8B8
:1012E400041B0299019A00F003F8009804B080BD31
:1012F40080B588B0079006910592079801900698EA
:1013040007F0F8FD0390059807F080FE0146019868
:101314000291039A029B9DF8131000F003F80198C0
:0413240008B080BDD0
:1013280080B58AB08DF82710089207930690069822
:10133800009008A807F00AFE014600980968049181
:10134800049A9DF80F309DF8171007F005FE07A8BE
:1013580007F088FE0146009809680291029A9DF8F4
:1013680007309DF80E1000F02BF800980AB080BDE9
:1013780080B584B08C46079906998DF80FC08DF812
:101388000E208DF80D308DF80C1002900298019007
:10139800079807F047FE0146019800F003F8019806
:0413A80004B080BD50
:1013AC0080B584B00390029103980190029807F0E5
:0C13BC0037FE01460198016004B080BDBE
:1013C80080B586B08DF8171004928DF80F30029012
:1013D8000298019004A800F005F807F023FE019890
:0413E80006B080BD0E
:1013EC0080B582B00190019800F002F802B080BD87
:0C13FC0081B000900098006801B07047BC
:0814080081B0009001B07047B3
:1014100080B582B00190019800F00EF800F002F85B
:0414200002B080BDD9
:1014240080B582B00190019807F024FE00F00AF81C
:0414340002B080BDC5
:1014380080B582B00190019807F058FE02B080BDD7
:1014480080B582B00190019807F018FE02B080BD07
:1014580080B582B00190019807F036FE02B080BDD9
:1014680080B588B007900798049041F24201405A2D
:10147800C009C007002843D0049841F24401084439
:1014880041688068884234D2049841F2440101449A
:1014980048688968401A06900698412802D3402077
:1014A800039001E00698039004980399059141F28E
:1014B800440281180291805889680144059A40F2D3
:1014C8004000C0F200000430019000F01BF80198C1
:1014D8004FF4817100F022F8049A029941F2420314
:1014E800D05A40F01000D052059A8868104488609D
:1014F80006E0049941F24202885A20F0800088529E
:0415080008B080BDEA
:10150C0080B584B003900291019203980299019ADC
:08151C0000F00CF804B080BDE2
:1015240080B582B0019000910198009900F010F804
:0415340002B080BDC4
:1015380080B584B003900291019203990868896884
:0C154800029A019B0DF00EFB04B080BD68
:1015540080B582B001900091019908688968009A69
:081564000DF07CFB02B080BD1C
:10156C0080B582B001900198009007F0E7FD0098DB
:04157C0002B080BD7C
:1015800080B58AB008900791069208990491099154
:1015900000200861079807F0DDFDB0B106990DF154
:1015A0001700019007F0DCFD079807F0A9FD0199ED
:1015B00002900DF11600039007F0DEFD04980299E9
:1015C000039A07F0E5FD0498006109980AB080BD10
:1015D00080B588B00790069105920798019006980B
:1015E00007F08EFD07F096FE0390059807F0F8FDD2
:1015F00007F09EFE014601980291039A029B9DF816
:0C160000131000F00DF8019808B080BD38
:10160C0080B582B001900198009007F021FB009802
:04161C0002B080BDDB
:1016200080B58AB08DF82710089207930690069827
:10163000009008A807F0CCFE0146009809680491C4
:10164000049A9DF80F309DF8171007F0C7FE07A801
:1016500007F0DAFE0146009809680291029A9DF8A7
:1016600007309DF80E1000F053F800980AB080BDC6
:1016700080B584B08C46079906998DF80FC08DF817
:101680000E208DF80D308DF80C100290029801900C
:10169000079807F053FD0146019800F003F8019800
:0416A00004B080BD55
:1016A40080B584B00390029103980190029807F0EA
:0C16B40043FD01460198016004B080BDB8
:1016C00080B584B08C46079906998DF80FC08DF8C7
:1016D0000E208DF80D308DF80C10029002980190BC
:1016E000079807F051FE0146019800F003F80198B1
:0416F00004B080BD05
:1016F40080B584B00390029103980190029807F09A
:0C17040041FE01460198016004B080BD68
:1017100080B586B08DF8171004928DF80F300290C6
:101720000298019004A800F013F807F079FE0198E0
:0417300006B080BDC2
:1017340080B582B00190019800F002F802B080BD3B
:0C17440081B000900098006801B0704770
:1017500080B582B00190019800F002F802B080BD1F
:0C17600081B000900098006801B0704754
:10176C0080B582B00190019800F032F802B080BDD3
:10177C0080B584B00390029103980299019100F016
:10178C002FF801460198884201D906F011FF029802
:0C179C00C000042106F01CFF04B080BD5A
:1017A80080B584B00390029101920398009001984B
:1017B80007F094FE0246009802A907F095FE0098EB
:0417C80004B080BD2C
:1017CC0080B582B00190019800F01AF802B080BD8B
:1017DC0080B582B00190019807F078FE02B080BD10
:1017EC0080B582B00190FFF773F8C00802B080BDDD
:1017FC0080B582B00190019807F0BEFE02B080BDAA
:10180C0080B582B00190019807F0BCFE02B080BD9B
:10181C0080B588B0079006910592079801900698BC
:10182C0007F0B6FE0390059807F0D4FC07F07AFD9C
:10183C00014601980291039A029B9DF8131000F047
:08184C0003F8019808B080BD0B
:1018540080B58AB08DF827100892079306900698F1
:10186400009008A807F0C6FE014600980968049194
:10187400049A9DF80F309DF8171007F0C1FE07A8D1
:1018840007F0C0FD0146009809680291029A9DF88C
:1018940007309DF80E10FFF739FF00980AB080BD9D
:1018A40080B584B08C46079906998DF80FC08DF8E1
:1018B4000E208DF80D308DF80C10029002980190D6
:1018C400079807F077FE0146019800F003F80198A5
:0418D40004B080BD1F
:1018D80080B584B00390029103980190029807F0B4
:0C18E80067FE01460198016004B080BD5D
:1018F40080B582B00190019800F002F802B080BD7A
:0C19040081B000900098006801B07047AE
:1019100080B582B00190019807F08AFE02B080BDC8
:1019200080B582B001900091019A009910685268C8
:0819300000F002F802B080BDD6
:1019380080B584B003900291019203980299019AAC
:0819480007F0A6FE04B080BD0B
:1019500080B584B00390029101920398009007F043
:10196000D7F8009846F2AC21C0F20001083140F8E7
:10197000041B0299019A00F003F8009804B080BD9E
:1019800080B588B007900691059207980190069857
:1019900007F004FE0390059807F08CFE01460198BD
:1019A0000291039A029B9DF8131000F003F801982E
:0419B00008B080BD3E
:1019B40080B58AB08DF82710089207930690069890
:1019C400009008A807F016FE0146009809680491E3
:1019D400049A9DF80F309DF8171007F011FE07A820
:1019E40007F094FE0146009809680291029A9DF856
:1019F40007309DF80E1000F02BF800980AB080BD57
:101A040080B584B08C46079906998DF80FC08DF87F
:101A14000E208DF80D308DF80C1002900298019074
:101A2400079807F053FE0146019800F003F8019867
:041A340004B080BDBD
:101A380080B584B00390029103980190029807F052
:0C1A480043FE01460198016004B080BD1F
:101A540080B586B08DF8171004928DF80F3002907F
:101A64000298019004A800F005F807F02FFE0198F1
:041A740006B080BD7B
:101A780080B582B00190019800F002F802B080BDF4
:0C1A880081B000900098006801B0704729
:081A940081B0009001B0704721
:101A9C0080B582B00190019800F00EF800F002F8C9
:041AAC0002B080BD47
:101AB00080B582B00190019807F030FE00F00AF87E
:041AC00002B080BD33
:101AC40080B582B00190019807F0F0FF02B080BDAC
:101AD40080B582B00190019807F024FE02B080BD69
:101AE40080B582B00190019800F052F802B080BD38
:101AF40080B584B003900291019203980299019AEF
:081B040000F050F804B080BDB0
:101B0C0080B586B004900391ADF80A20049800903B
:101B1C00D0F8040818B90020ADF8160022E000989F
:101B2C00D0F80408BDF80A10884204D20098D0F806
:101B3C000408ADF80A00002001900198BDF80A10C5
:101B4C0088420BDA009807F0F1FE039908700398AD
:101B5C0001300390019801300190EEE7BDF80A00C6
:0C1B6C00ADF81600BDF8160006B080BDF4
:101B780080B582B001908DF8031001989DF803108C
:0C1B880001F0010100F0AEF802B080BDD9
:101B940080B582B0019001990868896805F0ACF9B4
:041BA40002B080BD4E
:101BA80080B584B00390029101920399086889680E
:0C1BB800029A019B05F002FA04B080BD07
:101BC40080B588B00790069105920798039041F27A
:101BD4004201405A0009C007B0BB0598412802D30E
:101BE4004020029001E00598029002980490069922
:101BF400049A40F24000C0F2000004300190FFF764
:101C040083FC012007F044FF01460198FFF788FC9C
:101C1400039941F24202885A40F010008852059814
:101C2400049988420FD9039A41F24201505A40F074
:101C340080005052069841F24403D118D0500598C0
:101C44004860049888600FE0039A41F24201505AB8
:101C540040F080005052069841F24403D118D0500D
:0C1C6400059848600020886008B080BD32
:101C700080B584B003908DF80B100398019041F269
:101C80004101415C07F0E2FE019841F24201405AF5
:101C9000C008C00768B9019841F24101415C07F0F2
:101CA000D5FE019941F24202885A40F0080088525C
:101CB00007E09DF80B00C00718B140F6D27006F09F
:101CC0004AF8019841F24201405AC008C00758B989
:101CD000019841F24202815A41F00801815241F2D9
:0C1CE0004101415C07F0B2FE04B080BD81
:101CEC0080B582B001908DF803100199086889685D
:101CFC009DF8032002F001020CF0CEFE02B080BD74
:101D0C0080B582B001900198009007F0F5FE009824
:041D1C0002B080BDD4
:101D200080B58AB0089007910692089904910991AC
:101D300000200861079807F0EBFEB0B106990DF19D
:101D40001700019007F0EAFE079807F0B7FE019927
:101D500002900DF11600039007F0ECFE0498029932
:101D6000039A07F0F3FE0498006109980AB080BD59
:101D700080B588B007900691059207980190069863
:101D800007F09CFE07F0A4FF0390059807F006FFFC
:101D900007F0ACFF014601980291039A029B9DF85F
:0C1DA000131000F00DF8019808B080BD91
:101DAC0080B582B001900198009006F051FF009828
:041DBC0002B080BD34
:101DC00080B58AB08DF82710089207930690069880
:101DD000009008A807F0DAFF01460098096804910E
:101DE000049A9DF80F309DF8171007F0D5FF07A84B
:101DF00007F0E8FF0146009809680291029A9DF8F1
:101E000007309DF80E1000F053F800980AB080BD1E
:101E100080B584B08C46079906998DF80FC08DF86F
:101E20000E208DF80D308DF80C1002900298019064
:101E3000079807F061FE0146019800F003F8019849
:041E400004B080BDAD
:101E440080B584B00390029103980190029807F042
:0C1E540051FE01460198016004B080BD01
:101E600080B584B08C46079906998DF80FC08DF81F
:101E70000E208DF80D308DF80C1002900298019014
:101E8000079807F05FFF0146019800F003F80198FA
:041E900004B080BD5D
:101E940080B584B00390029103980190029807F0F2
:0C1EA4004FFF01460198016004B080BDB2
:101EB00080B586B08DF8171004928DF80F3002901F
:101EC0000298019004A800F013F807F087FF01982A
:041ED00006B080BD1B
:101ED40080B582B00190019800F002F802B080BD94
:0C1EE40081B000900098006801B07047C9
:101EF00080B582B00190019800F002F802B080BD78
:0C1F000081B000900098006801B07047AC
:101F0C0080B582B00190019800F032F802B080BD2B
:101F1C0080B584B00390029103980299019100F06E
:101F2C002FF801460198884201D906F041FB02982E
:0C1F3C00C000042106F04CFB04B080BD86
:101F480080B584B0039002910192039800900198A3
:101F580007F0A2FF0246009802A907F0A3FF009825
:041F680004B080BD84
:101F6C0080B582B00190019800F01AF802B080BDE3
:101F7C0080B582B00190019807F086FF02B080BD59
:101F8C0080B582B00190FEF7A3FCC00802B080BD02
:101F9C0080B582B00190019807F0CCFF02B080BDF3
:101FAC0080B582B00190019807F0CAFF02B080BDE5
:101FBC0080B588B007900691059207980190069815
:101FCC0007F0C4FF0390059807F0E2FD07F088FEC8
:101FDC00014601980291039A029B9DF8131000F0A0
:081FEC0003F8019808B080BD64
:101FF40080B58AB08DF8271008920793069006984A
:10200400009008A807F0D4FF0146009809680491DD
:10201400049A9DF80F309DF8171007F0CFFF07A81A
:1020240007F0CEFE0146009809680291029A9DF8D5
:1020340007309DF80E10FFF739FF00980AB080BDF5
:1020440080B584B08C46079906998DF80FC08DF839
:102054000E208DF80D308DF80C100290029801902E
:10206400079807F085FF0146019800F003F80198EE
:0420740004B080BD77
:1020780080B584B00390029103980190029807F00C
:0C20880075FF01460198016004B080BDA6
:1020940080B582B00190019800F002F802B080BDD2
:0C20A40081B000900098006801B0704707
:1020B00080B582B00190019807F098FF02B080BD12
:1020C00080B582B001900091019A00991068526821
:0820D00000F002F802B080BD2F
:1020D80080B584B003900291019203980299019A05
:0820E80007F0B4FF04B080BD55
:1020F00080B584B00390029101920398009006F09D
:1021000007FD009846F2E421C0F20001083140F8D2
:10211000041B0299019A00F003F8009804B080BDF6
:1021200080B588B0079006910592079801900698AF
:1021300007F012FF0390059807F09AFF01460198F7
:102140000291039A029B9DF8131000F003F8019886
:0421500008B080BD96
:1021540080B58AB08DF827100892079306900698E8
:10216400009008A807F024FF01460098096804912C
:10217400049A9DF80F309DF8171007F01FFF07A869
:1021840007F0A2FF0146009809680291029A9DF89F
:1021940007309DF80E1000F02BF800980AB080BDAF
:1021A40080B584B08C46079906998DF80FC08DF8D8
:1021B4000E208DF80D308DF80C10029002980190CD
:1021C400079807F061FF0146019800F003F80198B1
:0421D40004B080BD16
:1021D80080B584B00390029103980190029807F0AB
:0C21E80051FF01460198016004B080BD69
:1021F40080B586B08DF8171004928DF80F300290D8
:102204000298019004A800F005F807F03DFF01983A
:0422140006B080BDD3
:1022180080B582B00190019800F002F802B080BD4C
:0C22280081B000900098006801B0704781
:0822340081B0009001B0704779
:10223C0080B582B00190019800F00EF800F002F821
:04224C0002B080BD9F
:1022500080B582B00190019807F03EFF00F00AF8C7
:0422600002B080BD8B
:1022640080B582B00190019807F05EFF02B080BD96
:1022740080B582B00190019807F032FF02B080BDB2
:1022840080B584B00390029100208DF807009DF87A
:102294000700362812D802989DF8071007F050FF5F
:1022A40000680399884203D19DF8070004B080BDFB
:1022B4009DF8070001308DF80700E8E7FDF7FCFE04
:1022C40080B584B00390029103980190029807F0BE
:1022D40041FF0146019800F003F8019804B080BD65
:1022E40080B584B00390029103980190002107F017
:1022F40037FF0298006918B901990020086116E0B7
:102304000299086988420BD1019807F045FF0199A9
:1023140008610298006909690268D268904706E07A
:1023240001990298006908610299002008610198E6
:0423340004B080BDB4
:1023380080B582B001900198009007F055FF009891
:0423480002B080BDA2
:10234C0080B58AB00890079106920899049109917A
:10235C0000200861079807F04BFFB0B106990DF10A
:10236C001700019007F04AFF079807F017FF019933
:10237C0002900DF11600039007F04CFF049802999F
:10238C00039A07F053FF0498006109980AB080BDC6
:10239C0080B588B007900691059207980190069831
:1023AC0007F0FCFE08F010F80390059807F072FF98
:1023BC0008F018F8014601980291039A029B9DF8C7
:0C23CC00131000F023F8019808B080BD49
:1023D80080B582B001900198009007F0EDFF009859
:0423E80002B080BD02
:1023EC0080B586B005900491039205980430029054
:1023FC00049808F005FA0190039808F007FA01997F
:0C240C000246029808F0E4F906B080BD1A
:1024180080B58AB08DF82710089207930690069821
:10242800009008A808F030F801460098096804915F
:10243800049A9DF80F309DF8171008F02BF807A89C
:1024480008F03EF80146009809680291029A9DF842
:1024580007309DF80E1000F053F800980AB080BDC0
:1024680080B584B08C46079906998DF80FC08DF811
:102478000E208DF80D308DF80C1002900298019006
:10248800079807F0ABFE0146019800F003F80198A1
:0424980004B080BD4F
:10249C0080B584B00390029103980190029807F0E4
:0C24AC009BFE01460198016004B080BD59
:1024B80080B584B08C46079906998DF80FC08DF8C1
:1024C8000E208DF80D308DF80C10029002980190B6
:1024D800079807F0B5FF0146019800F003F8019846
:0424E80004B080BDFF
:1024EC0080B584B00390029103980190029807F094
:0C24FC00A5FF01460198016004B080BDFE
:1025080080B586B08DF8171004928DF80F300290C0
:102518000298019004A800F013F807F0DDFF019875
:0425280006B080BDBC
:10252C0080B582B00190019800F002F802B080BD35
:0C253C0081B000900098006801B070476A
:1025480080B582B00190019800F002F802B080BD19
:0C25580081B000900098006801B070474E
:1025640080B582B00190019800F032F802B080BDCD
:1025740080B584B00390029103980299019100F010
:102584002FF801460198884201D906F015F80298FF
:0C259400C000042106F020F804B080BD57
:1025A00080B584B003900291019203980090019845
:1025B00007F0F8FF0246009802A907F0F9FF00981B
:0425C00004B080BD26
:1025C40080B582B00190019800F01AF802B080BD85
:1025D40080B582B00190019807F0DCFF02B080BDA5
:1025E40080B582B00190FEF777F9C00802B080BDD3
:1025F40080B582B00190019808F022F802B080BD45
:1026040080B582B00190019808F020F802B080BD36
:1026140080B588B0079006910592079801900698B6
:1026240008F01AF80390059807F038FE07F0DEFE6C
:10263400014601980291039A029B9DF8131000F041
:0826440003F8019808B080BD05
:10264C0080B58AB08DF827100892079306900698EB
:10265C00009008A808F02AF801460098096804912F
:10266C00049A9DF80F309DF8171008F025F807A86C
:10267C0007F024FF0146009809680291029A9DF820
:10268C0007309DF80E10FFF739FF00980AB080BD97
:10269C0080B584B08C46079906998DF80FC08DF8DB
:1026AC000E208DF80D308DF80C10029002980190D0
:1026BC00079807F0DBFF0146019800F003F801983A
:0426CC0004B080BD19
:1026D00080B584B00390029103980190029807F0AE
:0C26E000CBFF01460198016004B080BDF2
:1026EC0080B582B00190019800F002F802B080BD74
:0C26FC0081B000900098006801B07047A9
:1027080080B582B00190019807F0EEFF02B080BD5D
:1027180080B582B001900091019A009910685268C2
:0827280000F002F802B080BDD0
:1027300080B584B003900291019203980299019AA6
:0827400008F00AF804B080BDA6
:1027480080B584B00390029101920398009007F03D
:1027580097FD009846F20831C0F20001083140F8B0
:10276800041B0299019A00F003F8009804B080BD98
:1027780080B588B007900691059207980190069851
:1027880007F068FF0390059807F0F0FF01460198ED
:102798000291039A029B9DF8131000F003F8019828
:0427A80008B080BD38
:1027AC0080B58AB08DF8271008920793069006988A
:1027BC00009008A807F07AFF014600980968049178
:1027CC00049A9DF80F309DF8171007F075FF07A8B5
:1027DC0007F0F8FF0146009809680291029A9DF8EB
:1027EC0007309DF80E1000F02BF800980AB080BD51
:1027FC0080B584B08C46079906998DF80FC08DF87A
:10280C000E208DF80D308DF80C100290029801906E
:10281C00079807F0B7FF0146019800F003F80198FC
:04282C0004B080BDB7
:1028300080B584B00390029103980190029807F04C
:0C284000A7FF01460198016004B080BDB4
:10284C0080B586B08DF8171004928DF80F30029079
:10285C000298019004A800F005F807F093FF019886
:04286C0006B080BD75
:1028700080B582B00190019800F002F802B080BDEE
:0C28800081B000900098006801B0704723
:08288C0081B0009001B070471B
:1028940080B582B00190019807F0EEFF02B080BDD0
:1028A40080B584B003900291019203980299019A31
:0828B40007F0D4FF04B080BD61
:1028BC0082B00190ADF802100199BDF8020000F051
:1028CC0003004FF48252885441F242020020885295
:0C28DC00885A40F04000885202B070475B
:1028E80080B582B001900198009007F0EDFF009844
:0428F80002B080BDED
:1028FC0080B58AB0089007910692089904910991C5
:10290C0000200861079807F0E3FFB0B106990DF1BC
:10291C001700019007F0E2FF079807F0AFFF01994D
:10292C0002900DF11600039007F0E4FF0498029951
:10293C00039A07F0EBFF0498006109980AB080BD78
:10294C0080B588B00790069105920798019006987B
:10295C0007F094FF08F092F80390059807F0FEFF3B
:10296C0008F09AF8014601980291039A029B9DF88F
:0C297C00131000F023F8019808B080BD93
:1029880080B582B001900198009007F015FD00987D
:0429980002B080BD4C
:10299C0080B586B00590049103920598043002909E
:1029AC00049807F02DFF0190039807F02FFF019971
:0C29BC000246029808F066FA06B080BDE2
:1029C80080B58AB08DF8271008920793069006986C
:1029D800009008A808F0B2F8014600980968049128
:1029E800049A9DF80F309DF8171008F0ADF807A865
:1029F80008F0C0F80146009809680291029A9DF80B
:102A080007309DF80E1000F053F800980AB080BD0A
:102A180080B584B08C46079906998DF80FC08DF85B
:102A28000E208DF80D308DF80C1002900298019050
:102A3800079807F043FF0146019800F003F8019852
:042A480004B080BD99
:102A4C0080B584B00390029103980190029807F02E
:0C2A5C0033FF01460198016004B080BD0A
:102A680080B584B08C46079906998DF80FC08DF80B
:102A78000E208DF80D308DF80C1002900298019000
:102A8800079808F037F80146019800F003F8019814
:042A980004B080BD49
:102A9C0080B584B00390029103980190029808F0DD
:0C2AAC0027F801460198016004B080BDCD
:102AB80080B586B08DF8171004928DF80F3002900B
:102AC8000298019004A800F013F808F05FF8019844
:042AD80006B080BD07
:102ADC0080B582B00190019800F002F802B080BD80
:0C2AEC0081B000900098006801B07047B5
:102AF80080B582B00190019800F002F802B080BD64
:0C2B080081B000900098006801B0704798
:102B140080B582B00190019800F032F802B080BD17
:102B240080B584B00390029103980299019100F05A
:102B34002FF801460198884201D905F03DFD02981D
:0C2B4400C000042105F048FD04B080BD75
:102B500080B584B00390029101920398009001988F
:102B600008F07AF80246009802A908F07BF800986D
:042B700004B080BD70
:102B740080B582B00190019800F01AF802B080BDCF
:102B840080B582B00190019808F05EF802B080BD73
:102B940080B582B00190FDF79FFEC00802B080BDF1
:102BA40080B582B00190019808F0A4F802B080BD0D
:102BB40080B582B00190019808F0A2F802B080BDFF
:102BC40080B588B007900691059207980190069801
:102BD40008F09CF80390059807F0C4FE07F060FF26
:102BE400014601980291039A029B9DF8131000F08C
:082BF40003F8019808B080BD50
:102BFC0080B58AB08DF82710089207930690069836
:102C0C00009008A808F0ACF80146009809680491F7
:102C1C00049A9DF80F309DF8171008F0A7F807A834
:102C2C0007F0A6FF0146009809680291029A9DF8E8
:102C3C0007309DF80E10FFF739FF00980AB080BDE1
:102C4C0080B584B08C46079906998DF80FC08DF825
:102C5C000E208DF80D308DF80C100290029801901A
:102C6C00079808F05DF80146019800F003F8019808
:042C7C0004B080BD63
:102C800080B584B00390029103980190029808F0F7
:0C2C90004DF801460198016004B080BDC1
:102C9C0080B582B00190019800F002F802B080BDBE
:0C2CAC0081B000900098006801B07047F3
:102CB80080B582B00190019808F070F802B080BD2C
:102CC80080B582B001900091019A0099106852680D
:082CD80000F002F802B080BD1B
:102CE00080B584B003900291019203980299019AF1
:082CF00008F08CF804B080BD6F
:102CF80080B584B00390029101920398009007F088
:102D0800BFFA009846F25031C0F20001083140F88D
:102D1800041B0299019A00F003F8009804B080BDE2
:102D280080B588B00790069105920798019006989B
:102D380007F0EAFF0390059808F072F80146019839
:102D48000291039A029B9DF8131000F003F8019872
:042D580008B080BD82
:102D5C0080B58AB08DF827100892079306900698D4
:102D6C00009008A807F0FCFF014600980968049140
:102D7C00049A9DF80F309DF8171007F0F7FF07A87D
:102D8C0008F07AF80146009809680291029A9DF8B9
:102D9C0007309DF80E1000F02BF800980AB080BD9B
:102DAC0080B584B08C46079906998DF80FC08DF8C4
:102DBC000E208DF80D308DF80C10029002980190B9
:102DCC00079808F039F80146019800F003F80198CB
:042DDC0004B080BD02
:102DE00080B584B00390029103980190029808F096
:0C2DF00029F801460198016004B080BD84
:102DFC0080B586B08DF8171004928DF80F300290C4
:102E0C000298019004A800F005F808F015F8019854
:042E1C0006B080BDBF
:102E200080B582B00190019800F002F802B080BD38
:0C2E300081B000900098006801B070476D
:082E3C0081B0009001B0704765
:102E440080B582B00190019808F074F802B080BD9A
:102E540080B584B003900291019203980299019A7B
:082E640008F04AF804B080BD3B
:102E6C0080B582B001900198009008F089F8009824
:042E7C0002B080BD63
:102E800080B58AB00890079106920899049109913B
:102E900000200861079808F07FF8B0B106990DF19D
:102EA0001700019008F07EF8079808F04BF8019998
:102EB00002900DF11600039008F080F80498029932
:102EC000039A08F087F80498006109980AB080BD59
:102ED00080B588B0079006910592079801900698F2
:102EE00008F030F808F02EF90390059808F09AF8E9
:102EF00008F036F9014601980291039A029B9DF869
:0C2F0000131000F023F8019808B080BD09
:102F0C0080B582B001900198009007F053FA0098B8
:042F1C0002B080BDC2
:102F200080B586B005900491039205980430029014
:102F3000049807F06BFC0190039807F06DFC019971
:0C2F40000246029808F002FB06B080BDBB
:102F4C0080B58AB08DF827100892079306900698E2
:102F5C00009008A808F04EF9014600980968049101
:102F6C00049A9DF80F309DF8171008F049F907A83E
:102F7C0008F05CF90146009809680291029A9DF8E4
:102F8C0007309DF80E1000F053F800980AB080BD81
:102F9C0080B584B08C46079906998DF80FC08DF8D2
:102FAC000E208DF80D308DF80C10029002980190C7
:102FBC00079807F0DFFF0146019800F003F801982D
:042FCC0004B080BD10
:102FD00080B584B00390029103980190029807F0A5
:0C2FE000CFFF01460198016004B080BDE5
:102FEC0080B584B08C46079906998DF80FC08DF882
:102FFC000E208DF80D308DF80C1002900298019077
:10300C00079808F0D3F80146019800F003F80198EE
:04301C0004B080BDBF
:1030200080B584B00390029103980190029808F053
:0C303000C3F801460198016004B080BDA7
:10303C0080B586B08DF8171004928DF80F30029081
:10304C000298019004A800F013F808F0FBF801981E
:04305C0006B080BD7D
:1030600080B582B00190019800F002F802B080BDF6
:0C30700081B000900098006801B070472B
:10307C0080B582B00190019800F002F802B080BDDA
:0C308C0081B000900098006801B070470F
:1030980080B582B00190019800F032F802B080BD8E
:1030A80080B584B00390029103980299019100F0D1
:1030B8002FF801460198884201D905F07BFA029859
:0C30C800C000042105F086FA04B080BDB1
:1030D40080B584B003900291019203980090019806
:1030E40008F016F90246009802A908F017F90098AA
:0430F40004B080BDE7
:1030F80080B582B00190019800F01AF802B080BD46
:1031080080B582B00190019808F0FAF802B080BD4D
:1031180080B582B00190FDF7DDFBC00802B080BD2C
:1031280080B582B00190019808F040F902B080BDE6
:1031380080B582B00190019808F03EF902B080BDD8
:1031480080B588B007900691059207980190069877
:1031580008F038F90390059807F060FF07F0FCFFC6
:10316800014601980291039A029B9DF8131000F002
:0831780003F8019808B080BDC6
:1031800080B58AB08DF827100892079306900698AC
:10319000009008A808F048F90146009809680491D1
:1031A000049A9DF80F309DF8171008F043F907A80E
:1031B00008F042F80146009809680291029A9DF8C9
:1031C00007309DF80E10FFF739FF00980AB080BD58
:1031D00080B584B08C46079906998DF80FC08DF89C
:1031E0000E208DF80D308DF80C1002900298019091
:1031F000079808F0F9F80146019800F003F80198E3
:0432000004B080BDD9
:1032040080B584B00390029103980190029808F06D
:0C321400E9F801460198016004B080BD9B
:1032200080B582B00190019800F002F802B080BD34
:0C32300081B000900098006801B0704769
:10323C0080B582B00190019808F00CF902B080BD05
:10324C0080B582B001900091019A00991068526883
:08325C0000F002F802B080BD91
:1032640080B584B003900291019203980299019A67
:0832740008F028F904B080BD48
:10327C0080B584B00390029101920398009006F0FF
:10328C00FDFF009846F27431C0F20001083140F89D
:10329C00041B0299019A00F003F8009804B080BD59
:1032AC0080B588B007900691059207980190069812
:1032BC0008F086F80390059808F00EF9014601987D
:1032CC000291039A029B9DF8131000F003F80198E9
:0432DC0008B080BDF9
:1032E00080B58AB08DF8271008920793069006984B
:1032F000009008A808F098F8014600980968049121
:10330000049A9DF80F309DF8171008F093F807A85D
:1033100008F016F90146009809680291029A9DF892
:1033200007309DF80E1000F02BF800980AB080BD11
:1033300080B584B08C46079906998DF80FC08DF83A
:103340000E208DF80D308DF80C100290029801902F
:10335000079808F0D5F80146019800F003F80198A5
:0433600004B080BD78
:1033640080B584B00390029103980190029808F00C
:0C337400C5F801460198016004B080BD5E
:1033800080B586B08DF8171004928DF80F3002903A
:103390000298019004A800F005F808F0B1F801982F
:0433A00006B080BD36
:1033A40080B582B00190019800F002F802B080BDAF
:0C33B40081B000900098006801B07047E4
:0833C00081B0009001B07047DC
:1033C80080B582B00190019808F0F2F802B080BD93
:1033D80080B584B003900291019203980299019AF2
:0833E80000F002F804B080BD02
:1033F00080B584B00390029101920398006800F5B3
:10340000815140F2C000C0F2000000900722FEF798
:103410007DF800984FF48571FEF784F804B080BD04
:1034200080B582B001900198009008F0EFF8009804
:0434300002B080BDA9
:1034340080B58AB008900791069208990491099181
:1034440000200861079808F0E5F8B0B106990DF17D
:103454001700019008F0E4F8079808F0B1F8019912
:1034640002900DF11600039008F0E6F80498029912
:10347400039A08F0EDF80498006109980AB080BD39
:1034840080B588B007900691059207980190069838
:1034940008F096F808F094F90390059808F000F9FC
:1034A40008F09CF9014601980291039A029B9DF849
:0C34B400131000F023F8019808B080BD50
:1034C00080B582B001900198009006F079FF0098D5
:0434D00002B080BD09
:1034D40080B586B00590049103920598043002905B
:1034E400049807F091F90190039807F093F9019972
:0C34F4000246029808F068FB06B080BD9C
:1035000080B58AB08DF82710089207930690069828
:10351000009008A808F0B4F90146009809680491E1
:10352000049A9DF80F309DF8171008F0AFF907A81E
:1035300008F0C2F90146009809680291029A9DF8C4
:1035400007309DF80E1000F053F800980AB080BDC7
:1035500080B584B08C46079906998DF80FC08DF818
:103560000E208DF80D308DF80C100290029801900D
:10357000079808F045F80146019800F003F8019813
:0435800004B080BD56
:1035840080B584B00390029103980190029808F0EA
:0C35940035F801460198016004B080BDCC
:1035A00080B584B08C46079906998DF80FC08DF8C8
:1035B0000E208DF80D308DF80C10029002980190BD
:1035C000079808F039F90146019800F003F80198CE
:0435D00004B080BD06
:1035D40080B584B00390029103980190029808F09A
:0C35E40029F901460198016004B080BD87
:1035F00080B586B08DF8171004928DF80F300290C8
:103600000298019004A800F013F808F061F90198FD
:0436100006B080BDC3
:1036140080B582B00190019800F002F802B080BD3C
:0C36240081B000900098006801B0704771
:1036300080B582B00190019800F002F802B080BD20
:0C36400081B000900098006801B0704755
:10364C0080B582B00190019800F032F802B080BDD4
:10365C0080B584B00390029103980299019100F017
:10366C002FF801460198884201D904F0A1FF029875
:0C367C00C000042104F0ACFF04B080BDCD
:1036880080B584B00390029101920398009001984C
:1036980008F07CF90246009802A908F07DF9009824
:0436A80004B080BD2D
:1036AC0080B582B00190019800F01AF802B080BD8C
:1036BC0080B582B00190019808F060F902B080BD2D
:1036CC0080B582B00190FDF703F9C00802B080BD4F
:1036DC0080B582B00190019808F0A6F902B080BDC7
:1036EC0080B582B00190019808F0A4F902B080BDB9
:1036FC0080B588B0079006910592079801900698BE
:10370C0008F09EF90390059807F0C6FF08F062F8E0
:10371C00014601980291039A029B9DF8131000F048
:08372C0003F8019808B080BD0C
:1037340080B58AB08DF827100892079306900698F2
:10374400009008A808F0AEF90146009809680491B1
:10375400049A9DF80F309DF8171008F0A9F907A8EE
:1037640008F0A8F80146009809680291029A9DF8A9
:1037740007309DF80E10FFF739FF00980AB080BD9E
:1037840080B584B08C46079906998DF80FC08DF8E2
:103794000E208DF80D308DF80C10029002980190D7
:1037A400079808F05FF90146019800F003F80198C2
:0437B40004B080BD20
:1037B80080B584B00390029103980190029808F0B4
:0C37C8004FF901460198016004B080BD7B
:1037D40080B582B00190019800F002F802B080BD7B
:0C37E40081B000900098006801B07047B0
:1037F00080B582B00190019808F072F902B080BDE6
:1038000080B582B001900091019A009910685268C9
:0838100000F002F802B080BDD7
:1038180080B584B003900291019203980299019AAD
:0838280008F08EF904B080BD28
:1038300080B584B00390029101920398009006F045
:1038400023FD009846F29831C0F20001083140F89B
:10385000041B0299019A00F003F8009804B080BD9F
:1038600080B588B007900691059207980190069858
:1038700008F0ECF80390059808F074F901460198F7
:103880000291039A029B9DF8131000F003F801982F
:0438900008B080BD3F
:1038940080B58AB08DF82710089207930690069891
:1038A400009008A808F0FEF8014600980968049101
:1038B400049A9DF80F309DF8171008F0F9F807A83E
:1038C40008F07CF90146009809680291029A9DF873
:1038D40007309DF80E1000F02BF800980AB080BD58
:1038E40080B584B08C46079906998DF80FC08DF881
:1038F4000E208DF80D308DF80C1002900298019076
:10390400079808F03BF90146019800F003F8019884
:0439140004B080BDBE
:1039180080B584B00390029103980190029808F052
:0C3928002BF901460198016004B080BD3D
:1039340080B586B08DF8171004928DF80F30029080
:103944000298019004A800F005F808F017F901980E
:0439540006B080BD7C
:1039580080B582B00190019800F002F802B080BDF5
:0C39680081B000900098006801B070472A
:0839740081B0009001B0704722
:10397C0080B582B00190019808F0A2F902B080BD28
:10398C0080B584B003900291019203980299019A38
:08399C0008F04CF904B080BDF5
:1039A40080B584B003908DF80B109DF80B00C00710
:1039B40080B140F24000C0F200000190543000F0A9
:1039C40023F80198043000F01FF801982C3000F01F
:1039D4001BF80FE040F24000C0F2000000905430A9
:1039E40000F01AF80098043000F016F800982C3013
:0839F40000F012F804B080BDE0
:1039FC0080B582B00190019808F056F902B080BDF4
:103A0C0080B582B00190019800F00AF802B080BD38
:103A1C0080B582B00190019800F00CF802B080BD26
:103A2C0080B582B001900199086809690AF0B2FE6C
:043A3C0002B080BD97
:103A400080B582B001900199086809690AF086FE84
:043A500002B080BD83
:103A540080B582B001900198009008F05FF9009859
:043A640002B080BD6F
:103A680080B58AB008900791069208990491099147
:103A780000200861079808F055F9B0B106990DF1D2
:103A88001700019008F054F9079808F021F90199F6
:103A980002900DF11600039008F056F90498029967
:103AA800039A08F05DF90498006109980AB080BD8E
:103AB80080B588B0079006910592079801900698FE
:103AC80008F006F908F004FA0390059808F070F970
:103AD80008F00CFA014601980291039A029B9DF89E
:0C3AE800131000F023F8019808B080BD16
:103AF40080B582B001900198009006F05FFC0098B8
:043B040002B080BDCE
:103B080080B586B005900491039205980430029020
:103B1800049806F077FE0190039806F079FE019963
:0C3B28000246029808F0D8FB06B080BDF1
:103B340080B58AB08DF827100892079306900698EE
:103B4400009008A808F024FA014600980968049136
:103B5400049A9DF80F309DF8171008F01FFA07A873
:103B640008F032FA0146009809680291029A9DF819
:103B740007309DF80E1000F053F800980AB080BD8D
:103B840080B584B08C46079906998DF80FC08DF8DE
:103B94000E208DF80D308DF80C10029002980190D3
:103BA400079808F0B5F80146019800F003F8019869
:043BB40004B080BD1C
:103BB80080B584B00390029103980190029808F0B0
:0C3BC800A5F801460198016004B080BD22
:103BD40080B584B08C46079906998DF80FC08DF88E
:103BE4000E208DF80D308DF80C1002900298019083
:103BF400079808F0A9F90146019800F003F8019824
:043C040004B080BDCB
:103C080080B584B00390029103980190029808F05F
:0C3C180099F901460198016004B080BDDC
:103C240080B586B08DF8171004928DF80F3002908D
:103C34000298019004A800F013F808F0D1F9019853
:043C440006B080BD89
:103C480080B582B00190019800F002F802B080BD02
:0C3C580081B000900098006801B0704737
:103C640080B582B00190019800F002F802B080BDE6
:0C3C740081B000900098006801B070471B
:103C800080B582B00190019800F032F802B080BD9A
:103C900080B584B00390029103980299019100F0DD
:103CA0002FF801460198884201D904F087FC029858
:0C3CB000C000042104F092FC04B080BDB0
:103CBC0080B584B003900291019203980090019812
:103CCC0008F0ECF90246009802A908F0EDF900980A
:043CDC0004B080BDF3
:103CE00080B582B00190019800F01AF802B080BD52
:103CF00080B582B00190019808F0D0F902B080BD83
:103D000080B582B00190FCF7E9FDC00802B080BD2B
:103D100080B582B00190019808F016FA02B080BD1B
:103D200080B582B00190019808F014FA02B080BD0D
:103D300080B588B007900691059207980190069883
:103D400008F00EFA0390059808F036F808F0D2F85B
:103D5000014601980291039A029B9DF8131000F00E
:083D600003F8019808B080BDD2
:103D680080B58AB08DF827100892079306900698B8
:103D7800009008A808F01EFA014600980968049106
:103D8800049A9DF80F309DF8171008F019FA07A843
:103D980008F018F90146009809680291029A9DF8FE
:103DA80007309DF80E10FFF739FF00980AB080BD64
:103DB80080B584B08C46079906998DF80FC08DF8A8
:103DC8000E208DF80D308DF80C100290029801909D
:103DD800079808F0CFF90146019800F003F8019818
:043DE80004B080BDE6
:103DEC0080B584B00390029103980190029808F07A
:0C3DFC00BFF901460198016004B080BDD1
:103E080080B582B00190019800F002F802B080BD40
:0C3E180081B000900098006801B0704775
:103E240080B582B00190019808F0E2F902B080BD3B
:103E340080B582B001900091019A0099106852688F
:083E440000F002F802B080BD9D
:103E4C0080B584B003900291019203980299019A73
:083E5C0008F0FEF904B080BD7E
:103E640080B584B00390029101920398009006F00B
:103E740009FA009846F2BC31C0F20001083140F85A
:103E8400041B0299019A00F003F8009804B080BD65
:103E940080B588B00790069105920798019006981E
:103EA40008F05CF90390059808F0E4F901460198DC
:103EB4000291039A029B9DF8131000F003F80198F5
:043EC40008B080BD05
:103EC80080B58AB08DF82710089207930690069857
:103ED800009008A808F06EF9014600980968049156
:103EE800049A9DF80F309DF8171008F069F907A893
:103EF80008F0ECF90146009809680291029A9DF8C9
:103F080007309DF80E1000F02BF800980AB080BD1D
:103F180080B584B08C46079906998DF80FC08DF846
:103F28000E208DF80D308DF80C100290029801903B
:103F3800079808F0ABF90146019800F003F80198DA
:043F480004B080BD84
:103F4C0080B584B00390029103980190029808F018
:0C3F5C009BF901460198016004B080BD93
:103F680080B586B08DF8171004928DF80F30029046
:103F78000298019004A800F005F808F087F9019864
:043F880006B080BD42
:103F8C0080B582B00190019800F002F802B080BDBB
:0C3F9C0081B000900098006801B07047F0
:083FA80081B0009001B07047E8
:103FB00080B582B00190019808F0E8F902B080BDA8
:103FC00080B584B003900291019203980299019AFE
:083FD00008F0BCF904B080BD4B
:103FD80080B582B001900198009008F0FDF9009832
:043FE80002B080BDE6
:103FEC0080B58AB0089007910692089904910991BE
:103FFC0000200861079808F0F3F9B0B106990DF1AB
:10400C001700019008F0F2F9079808F0BFF9019930
:10401C0002900DF11600039008F0F4F9049802993F
:10402C00039A08F0FBF90498006109980AB080BD66
:10403C0080B588B007900691059207980190069874
:10404C0008F0A4F908F0A2FA0390059808F00EFA0B
:10405C0008F0AAFA014601980291039A029B9DF876
:0C406C00131000F023F8019808B080BD8C
:1040780080B582B001900198009006F09DF90098F3
:0440880002B080BD45
:10408C0080B586B005900491039205980430029097
:10409C00049806F0B5FB0190039806F0B7FB019964
:0C40AC000246029808F076FC06B080BDC9
:1040B80080B58AB08DF82710089207930690069865
:1040C800009008A808F0C2FA01460098096804910F
:1040D800049A9DF80F309DF8171008F0BDFA07A84C
:1040E80008F0D0FA0146009809680291029A9DF8F2
:1040F80007309DF80E1000F053F800980AB080BD04
:1041080080B584B08C46079906998DF80FC08DF854
:104118000E208DF80D308DF80C1002900298019049
:10412800079808F053F90146019800F003F8019840
:0441380004B080BD92
:10413C0080B584B00390029103980190029808F026
:0C414C0043F901460198016004B080BDF9
:1041580080B584B08C46079906998DF80FC08DF804
:104168000E208DF80D308DF80C10029002980190F9
:10417800079808F047FA0146019800F003F80198FB
:0441880004B080BD42
:10418C0080B584B00390029103980190029808F0D6
:0C419C0037FA01460198016004B080BDB4
:1041A80080B586B08DF8171004928DF80F30029004
:1041B8000298019004A800F013F808F06FFA01982B
:0441C80006B080BD00
:1041CC0080B582B00190019800F002F802B080BD79
:0C41DC0081B000900098006801B07047AE
:1041E80080B582B00190019800F002F802B080BD5D
:0C41F80081B000900098006801B0704792
:1042040080B582B00190019800F032F802B080BD10
:1042140080B584B00390029103980299019100F053
:104224002FF801460198884201D904F0C5F9029893
:0C423400C000042104F0D0F904B080BDEB
:1042400080B584B003900291019203980090019888
:1042500008F08AFA0246009802A908F08BFA009842
:0442600004B080BD69
:1042640080B582B00190019800F01AF802B080BDC8
:1042740080B582B00190019808F06EFA02B080BD5A
:1042840080B582B00190FCF727FBC00802B080BD66
:1042940080B582B00190019808F0B4FA02B080BDF4
:1042A40080B582B00190019808F0B2FA02B080BDE6
:1042B40080B588B0079006910592079801900698FA
:1042C40008F0ACFA0390059808F0D4F808F070F9F7
:1042D400014601980291039A029B9DF8131000F085
:0842E40003F8019808B080BD49
:1042EC0080B58AB08DF8271008920793069006982F
:1042FC00009008A808F0BCFA0146009809680491DF
:10430C00049A9DF80F309DF8171008F0B7FA07A81B
:10431C0008F0B6F90146009809680291029A9DF8D6
:10432C0007309DF80E10FFF739FF00980AB080BDDA
:10433C0080B584B08C46079906998DF80FC08DF81E
:10434C000E208DF80D308DF80C1002900298019013
:10435C00079808F06DFA0146019800F003F80198EF
:04436C0004B080BD5C
:1043700080B584B00390029103980190029808F0F0
:0C4380005DFA01460198016004B080BDA8
:10438C0080B582B00190019800F002F802B080BDB7
:0C439C0081B000900098006801B07047EC
:1043A80080B582B00190019808F080FA02B080BD13
:1043B80080B582B001900091019A00991068526806
:0843C80000F002F802B080BD14
:1043D00080B584B003900291019203980299019AEA
:0843E00008F09CFA04B080BD56
:1043E80080B584B00390029101920398009005F083
:1043F80047FF009846F2E031C0F20001083140F86A
:10440800041B0299019A00F003F8009804B080BDDB
:1044180080B588B007900691059207980190069894
:1044280008F0FAF90390059808F082FA0146019815
:104438000291039A029B9DF8131000F003F801986B
:0444480008B080BD7B
:10444C0080B58AB08DF827100892079306900698CD
:10445C00009008A808F00CFA01460098096804912D
:10446C00049A9DF80F309DF8171008F007FA07A86A
:10447C0008F08AFA0146009809680291029A9DF8A0
:10448C0007309DF80E1000F02BF800980AB080BD94
:10449C0080B584B08C46079906998DF80FC08DF8BD
:1044AC000E208DF80D308DF80C10029002980190B2
:1044BC00079808F049FA0146019800F003F80198B2
:0444CC0004B080BDFB
:1044D00080B584B00390029103980190029808F08F
:0C44E00039FA01460198016004B080BD6B
:1044EC0080B586B08DF8171004928DF80F300290BD
:1044FC000298019004A800F005F808F025FA01983C
:04450C0006B080BDB8
:1045100080B582B00190019800F002F802B080BD31
:0C45200081B000900098006801B0704766
:08452C0081B0009001B070475E
:1045340080B582B00190019808F0B6FA02B080BD4F
:1045440080B584B003900291019203980299019A74
:0845540008F05AFA04B080BD22
:10455C0080B582B00190019808F08AFA02B080BD53
:10456C0080B582B00190019808F08EFA02B080BD3F
:10457C0081B000900099B1F800080138C1F8080822
:10458C00B1F800080138C1F80C080020C1F8040883
:04459C0001B07047B3
:1045A00080B582B001900198009008F0A9FA0098B7
:0445B00002B080BD18
:1045B40080B58AB0089007910692089904910991F0
:1045C40000200861079808F09FFAB0B106990DF130
:1045D4001700019008F09EFA079808F06BFA019909
:1045E40002900DF11600039008F0A0FA04980299C5
:1045F400039A08F0A7FA0498006109980AB080BDEC
:1046040080B588B0079006910592079801900698A6
:1046140008F050FA08F04EFB0390059808F0BAFA37
:1046240008F056FB014601980291039A029B9DF8FB
:0C463400131000F023F8019808B080BDBE
:1046400080B582B001900198009005F0B9FE009805
:0446500002B080BD77
:1046540080B586B0059004910392059804300290C9
:10466400049806F0D1F80190039806F0D3F8019964
:0C4674000246029808F022FD06B080BD4E
:1046800080B58AB08DF82710089207930690069897
:10469000009008A808F06EFB014600980968049194
:1046A000049A9DF80F309DF8171008F069FB07A8D1
:1046B00008F07CFB0146009809680291029A9DF877
:1046C00007309DF80E1000F053F800980AB080BD36
:1046D00080B584B08C46079906998DF80FC08DF887
:1046E0000E208DF80D308DF80C100290029801907C
:1046F000079808F0FFF90146019800F003F80198C7
:0447000004B080BDC4
:1047040080B584B00390029103980190029808F058
:0C471400EFF901460198016004B080BD7F
:1047200080B584B08C46079906998DF80FC08DF836
:104730000E208DF80D308DF80C100290029801902B
:10474000079808F0F3FA0146019800F003F8019881
:0447500004B080BD74
:1047540080B584B00390029103980190029808F008
:0C476400E3FA01460198016004B080BD3A
:1047700080B586B08DF8171004928DF80F30029036
:104780000298019004A800F013F808F01BFB0198B0
:0447900006B080BD32
:1047940080B582B00190019800F002F802B080BDAB
:0C47A40081B000900098006801B07047E0
:1047B00080B582B00190019800F002F802B080BD8F
:0C47C00081B000900098006801B07047C4
:1047CC0080B582B00190019800F032F802B080BD43
:1047DC0080B584B00390029103980299019100F086
:1047EC002FF801460198884201D903F0E1FE0298A6
:0C47FC00C000042103F0ECFE04B080BDFE
:1048080080B584B0039002910192039800900198BA
:1048180008F036FB0246009802A908F037FB00981A
:0448280004B080BD9B
:10482C0080B582B00190019800F01AF802B080BDFA
:10483C0080B582B00190019808F01AFB02B080BDDF
:10484C0080B582B00190FCF743F8C00802B080BD7F
:10485C0080B582B00190019808F060FB02B080BD79
:10486C0080B582B00190019808F05EFB02B080BD6B
:10487C0080B588B00790069105920798019006982C
:10488C0008F058FB0390059808F080F908F01CFA22
:10489C00014601980291039A029B9DF8131000F0B7
:0848AC0003F8019808B080BD7B
:1048B40080B58AB08DF82710089207930690069861
:1048C400009008A808F068FB014600980968049164
:1048D400049A9DF80F309DF8171008F063FB07A8A1
:1048E40008F062FA0146009809680291029A9DF85C
:1048F40007309DF80E10FFF739FF00980AB080BD0D
:1049040080B584B08C46079906998DF80FC08DF850
:104914000E208DF80D308DF80C1002900298019045
:10492400079808F019FB0146019800F003F8019874
:0449340004B080BD8E
:1049380080B584B00390029103980190029808F022
:0C49480009FB01460198016004B080BD2D
:1049540080B582B00190019800F002F802B080BDE9
:0C49640081B000900098006801B070471E
:1049700080B582B00190019808F02CFB02B080BD98
:1049800080B582B001900091019A00991068526838
:0849900000F002F802B080BD46
:1049980080B584B003900291019203980299019A1C
:0849A80008F048FB04B080BDDB
:1049B00080B584B00390029101920398009005F0B5
:1049C00063FC009846F20441C0F20001083140F84F
:1049D000041B0299019A00F003F8009804B080BD0E
:1049E00080B588B0079006910592079801900698C7
:1049F00008F0A6FA0390059808F02EFB01460198EE
:104A00000291039A029B9DF8131000F003F801989D
:044A100008B080BDAD
:104A140080B58AB08DF827100892079306900698FF
:104A2400009008A808F0B8FA0146009809680491B3
:104A3400049A9DF80F309DF8171008F0B3FA07A8F0
:104A440008F036FB0146009809680291029A9DF825
:104A540007309DF80E1000F02BF800980AB080BDC6
:104A640080B584B08C46079906998DF80FC08DF8EF
:104A74000E208DF80D308DF80C10029002980190E4
:104A8400079808F0F5FA0146019800F003F8019838
:044A940004B080BD2D
:104A980080B584B00390029103980190029808F0C1
:0C4AA800E5FA01460198016004B080BDF1
:104AB40080B586B08DF8171004928DF80F300290EF
:104AC4000298019004A800F005F808F0D1FA0198C2
:044AD40006B080BDEB
:104AD80080B582B00190019800F002F802B080BD64
:0C4AE80081B000900098006801B0704799
:084AF40081B0009001B0704791
:104AFC0080B582B00190019808F012FB02B080BD25
:104B0C0080B584B003900291019203980299019AA6
:084B1C0000F002F804B080BDB6
:104B240080B586B0059004910392059800680190C1
:104B340040F24000C0F200002C300290FCF78AFCE6
:104B44000298FFF709FD0298FFF70EFD0198FFF7A1
:104B540013FD019A029841F24203D15A21F0200137
:104B6400D152D15A21F00401D1520121FDF702F8AA
:0C4B740002980021FCF7FEFF06B080BD97
:104B800080B582B00190ADF80210019808F0E0FA0B
:104B9000019800F01BF8019808F0F4FA0198BDF8AC
:104BA000021000F01FF80199C86891F82010C90799
:104BB00000294FF0010118BF0221BDF8022000FBBF
:0C4BC0000120ADF8020080B202B080BD00
:104BCC0080B582B00190019B18689968DA685B69BE
:084BDC0002F0D0F802B080BD28
:104BE40080B584B003900291DDF80CC0029ADCF821
:104BF4000000DCF80810DCF81C30DCF824C0EE46B9
:0C4C0400CEF800C009F07EFE04B080BDB8
:104C100081B08DF803008DF802109DF8030046F274
:104C20008442C0F200022C2100FB01209DF80210FA
:084C300050F8210001B07047AB
:104C380080B584B002900299019103910869884275
:104C480005D10198006901680969884707E001985A
:104C5800006920B10198006901684969884703988B
:044C680004B080BD57
:104C6C0080B582B001900198009008F0D3FA0098BA
:104C7C0040F27421C0F200010831016002B080BD25
:104C8C0080B584B0039102900298019003A808F0BB
:104C9C00CDFA0146019808F0CFFA019804B080BD16
:104CAC0080B584B0039102900298019003A808F09B
:104CBC00EBFE0146019808F0EDFE019804B080BDB2
:104CCC0080B582B00190019809F02AFA02B080BD3B
:0C4CDC0083B002900191009203B0704779
:104CE80080B582B001900198009008F0C5FA00984C
:044CF80002B080BDC9
:104CFC0080B58AB0089007910692089904910991A1
:104D0C0000200861079808F0BBFAB0B106990DF1C4
:104D1C001700019008F0BAFA079808F087FA019981
:104D2C0002900DF11600039008F0BCFA0498029959
:104D3C00039A08F0C3FA0498006109980AB080BD80
:104D4C0080B588B007900691059207980190069857
:104D5C0008F06CFA08F074FB0390059808F0D6FA8A
:104D6C0008F07CFB014601980291039A029B9DF886
:0C4D7C00131000F00DF8019808B080BD85
:104D880080B582B001900198009003F063FF00980D
:044D980002B080BD28
:104D9C0080B58AB08DF82710089207930690069874
:104DAC00009008A808F0AAFB014600980968049135
:104DBC00049A9DF80F309DF8171008F0A5FB07A872
:104DCC0008F0B8FB0146009809680291029A9DF818
:104DDC0007309DF80E1000F053F800980AB080BD13
:104DEC0080B584B08C46079906998DF80FC08DF864
:104DFC000E208DF80D308DF80C1002900298019059
:104E0C00079808F031FA0146019800F003F8019870
:044E1C0004B080BDA1
:104E200080B584B00390029103980190029808F035
:0C4E300021FA01460198016004B080BD29
:104E3C0080B584B08C46079906998DF80FC08DF813
:104E4C000E208DF80D308DF80C1002900298019008
:104E5C00079808F02FFB0146019800F003F8019821
:044E6C0004B080BD51
:104E700080B584B00390029103980190029808F0E5
:0C4E80001FFB01460198016004B080BDDA
:104E8C0080B586B08DF8171004928DF80F30029013
:104E9C000298019004A800F013F808F057FB019851
:044EAC0006B080BD0F
:104EB00080B582B00190019800F002F802B080BD88
:0C4EC00081B000900098006801B07047BD
:104ECC0080B582B00190019800F002F802B080BD6C
:0C4EDC0081B000900098006801B07047A1
:104EE80080B582B00190019800F032F802B080BD20
:104EF80080B584B00390029103980299019100F063
:104F08002FF801460198884201D903F053FB029813
:0C4F1800C000042103F05EFB04B080BD6B
:104F240080B584B003900291019203980090019897
:104F340008F072FB0246009802A908F073FB00987F
:044F440004B080BD78
:104F480080B582B00190019800F01AF802B080BDD7
:104F580080B582B00190019808F056FB02B080BD80
:104F680080B582B00190FBF7B5FCC00802B080BDE7
:104F780080B582B00190019808F09CFB02B080BD1A
:104F880080B582B00190019808F09AFB02B080BD0C
:104F980080B588B007900691059207980190069809
:104FA80008F094FB0390059808F0B2F908F058FA55
:104FB800014601980291039A029B9DF8131000F094
:084FC80003F8019808B080BD58
:104FD00080B58AB08DF8271008920793069006983E
:104FE000009008A808F0A4FB014600980968049105
:104FF000049A9DF80F309DF8171008F09FFB07A842
:1050000008F09EFA0146009809680291029A9DF8FC
:1050100007309DF80E10FFF739FF00980AB080BDE9
:1050200080B584B08C46079906998DF80FC08DF82D
:105030000E208DF80D308DF80C1002900298019022
:10504000079808F055FB0146019800F003F8019815
:0450500004B080BD6B
:1050540080B584B00390029103980190029808F0FF
:0C50640045FB01460198016004B080BDCE
:1050700080B582B00190019800F002F802B080BDC6
:0C50800081B000900098006801B07047FB
:10508C0080B582B00190019808F068FB02B080BD39
:10509C0080B582B001900091019A00991068526815
:0850AC0000F002F802B080BD23
:1050B40080B584B003900291019203980299019AF9
:0850C40008F084FB04B080BD7C
:1050CC0080B584B00390029101920398009003F094
:1050DC0019FD009846F25071C0F20001083140F8F9
:1050EC00041B0299019A00F003F8009804B080BDEB
:1050FC0080B588B0079006910592079801900698A4
:10510C0008F0E2FA0390059808F06AFB0146019852
:10511C000291039A029B9DF8131000F003F801987A
:04512C0008B080BD8A
:1051300080B58AB08DF827100892079306900698DC
:10514000009008A808F0F4FA014600980968049154
:10515000049A9DF80F309DF8171008F0EFFA07A891
:1051600008F072FB0146009809680291029A9DF8C6
:1051700007309DF80E1000F02BF800980AB080BDA3
:1051800080B584B08C46079906998DF80FC08DF8CC
:105190000E208DF80D308DF80C10029002980190C1
:1051A000079808F031FB0146019800F003F80198D8
:0451B00004B080BD0A
:1051B40080B584B00390029103980190029808F09E
:0C51C40021FB01460198016004B080BD91
:1051D00080B586B08DF8171004928DF80F300290CC
:1051E0000298019004A800F005F808F00DFB019862
:0451F00006B080BDC8
:1051F40080B582B00190019800F002F802B080BD41
:0C52040081B000900098006801B0704775
:0852100081B0009001B070476D
:1052180080B582B00190019800F00EF800F002F815
:0452280002B080BD93
:10522C0080B582B00190019808F00EFB00F00AF8EE
:04523C0002B080BD7F
:1052400080B582B00190019808F01EFC02B080BDCC
:1052500080B582B00190019808F002FB02B080BDD9
:1052600080B586B005900598019040F20210C4F216
:10527000050000788DF8130040F20810C4F2050014
:1052800000788DF8120040F20A10C4F20500007890
:105290008DF8110040F2C000C0F2000000F01CF8D0
:1052A0000290029830B102994FF21C60C0F20000E7
:1052B00009F09DFE0198029908F0DCFA40F2C00066
:1052C000C0F2000000F010F8014601980391039924
:0852D00000F012F806B080BDE9
:1052D80080B582B00190019808F0ECFA02B080BD68
:1052E80080B582B00190019808F0C0FB02B080BD83
:1052F80084B002900191029800909DF80400400744
:10530800002802D5012003901BE09DF804008007C7
:10531800002802D50320039013E09DF80400C0077D
:1053280028B10099002008700220039009E09DF838
:1053380004000007002802D50820039001E000209F
:085348000390039804B07047C4
:1053500080B584B0039002910192009340F2C000A6
:10536000C0F2000041F2FC01C2F2000101AAFCF708
:10537000C1FB41F20410C2F20000807848B941F24A
:10538000FC00C2F20000008841F20411C2F20001E8
:10539000088041F20410C2F200000088009900F079
:0853A00003F8002004B080BDF9
:1053A80080B59EB0ADF876001C9141F2FC00C2F2C7
:1053B80000008178C0780238B0FA80F040090239DC
:1053C800B1FA81F14909084310B101208DF86F0045
:1053D800BDF8760001460C9108287BD00C988128EE
:1053E8007BD00C98822879D00C98B0F5807F76D045
:1053F8000C9840F20111884200F087800C98B0F5B3
:10540800817F00F083800C9840F2A111884200F05F
:10541800B1810C98B0F5407F00F039810C9840F2CA
:105428000131884200F056810C9840F202318842DE
:1054380000F051810C98B0F5A06F00F04D810C98E8
:10544800B0F5D06F00F065810C9840F28161884218
:1054580000F06B810C9840F28261884200F066810E
:105468000C98B0F5E06F00F062810C98B0F5086F09
:1054780000F05E810C98B0F5106F00F065810C9813
:1054880040F62121884200F076810C9840F681216F
:10549800884200F06C810C9840F60131884200F097
:1054A80067810C9840F68241884200F062810C982E
:1054B80042F22101884200F05F810C9842F2A1116A
:1054C800884200F08E810C9842F22121884200F037
:1054D800AC81BFE108F022FABCE1BBE1BAE141F2DC
:1054E800FC00C2F200008078012807D140F2C00019
:1054F800C0F200000121FCF73BFB05E040F2C000D0
:10550800C0F2000000F0A8F9A4E1A3E141F2FC0018
:10551800C2F20000408830B140F2C000C0F2000082
:1055280000F09AF996E141F2FC00C2F2000000791D
:1055380001460B91012800F085800B98022827D09E
:105548000B98812806D00B9882283FD00B98832887
:105558005AD095E000200A908DF866008DF8670013
:105568008DF868008DF869008DF86A008DF86B0079
:105578008DF86C008DF86D0041F2F003C2F2000363
:105588004FF4817081210DF1660208F0E3F97DE0A6
:10559800002009908DF85E008DF85F008DF860009E
:1055A8008DF861008DF862008DF863008DF8640055
:1055B8008DF8650041F2F003C2F200034FF48170E8
:1055C80002210DF15E0208F0C5F95FE000200890A5
:1055D8008DF856008DF857008DF858008DF8590051
:1055E8008DF85A008DF85B008DF85C008DF85D0031
:1055F80041F2F003C2F200034FF4817082210DF1F1
:10560800560208F0A7F941E0002007908DF84E00F7
:105618008DF84F008DF850008DF851008DF852002C
:105628008DF853008DF854008DF8550041F2F003C1
:10563800C2F200034FF4817083210DF14E0208F08D
:1056480089F923E0002006908DF846008DF8470080
:105658008DF848008DF849008DF84A008DF84B0008
:105668008DF84C008DF84D0041F2F003C2F20003B2
:105678004FF4817001210DF1460208F06BF905E045
:1056880040F2C000C0F2000000F0E6F8E2E041F2AB
:10569800FC00C2F20000807801460591012803D081
:1056A8000598022808D00EE040F2C000C0F20000C1
:1056B8000121FCF75DFA0CE040F2C000C0F20000E6
:1056C80000F0CAF805E040F2C000C0F2000000F0A7
:1056D800C3F8BFE0BEE0BDE0002104918DF83E10A4
:1056E8008DF83F108DF840108DF841108DF842105C
:1056F8008DF843108DF844108DF8451041F2F003F1
:10570800C2F200034FF4A0600DF13E0208F022F946
:10571800A0E041F2FC01C2F200018A78C8788979D8
:1057280000F0A2F800B995E094E093E092E091E0EF
:1057380041F2FC01C2F200018A78C878897900F048
:1057480093F800B986E085E01C9B41F2FC02C2F2A6
:1057580000024FF410600021039108F0FBF8039950
:105768000020C4F20500012209F098F972E071E006
:1057780070E06FE06EE06DE041F20410C2F20000EC
:10578800807898B941F20411C2F2000101208870B2
:1057980041F2FC00C2F20000C088888040F2C000DC
