:1000000000600020075100007F270000052A000043
:100010008B270000C3270000CF270000000000004E
:100020000000000000000000000000004728000061
:100030005728000000000000632800000729000086
:1000400080B584B00390029103980190029802F069
:1000500097FB0146019800F003F8019804B080BDB9
:1000600080B584B00390029103980190002102F0C2
:100070008DFB0298006918B901990020086116E00B
:100080000299086988420BD1019802F09BFB019903
:1000900008610298006909690268D268904706E021
:1000A000019902980069086102990020086101988D
:0400B00004B080BD5B
:1000B40080B582B001900198009002F0C3FB0098D3
:0400C40002B080BD49
:1000C80080B584B0039040F27020C2F2000000F5C1
:1000D800A56002900298183801900146009100F03E
:1000E8000BF80098019940F27022C2F20002914286
:0800F8000290EFD104B080BDBD
:1001000080B582B001900198009000F03FF800980F
:0401100002B080BDFC
:1001140081B080B587B0019109930690059104924E
:1001240009A803900498029040F6CF60C2F2000040
:100134000078202800DB22E0019802F019FB014638
:1001440040F6CF60C2F200000090007800EB40025D
:1001540040F29870C2F2000000EBC200FFF76EFF9D
:10016400009902980A7840F6AC71C2F2000151F885
:10017400221001F09FFF009908780130087007B041
:08018400BDE8804001B07047A6
:10018C0080B584B00290029901910391086988426C
:10019C0005D10198006901680969884707E0019851
:1001AC00006920B101980069016849698847039882
:0401BC0004B080BD4E
:0C01C0000000000000000000150100001D
:1001CC0080B582B0019001989B2807D345F2EE30A0
:1001DC00C0F2000040F2EF1102F0D4FB01980428A9
:1001EC0008D14EF62451CEF20001086840F480305C
:1001FC00086035E00198052808D14EF62451CEF25E
:10020C000001086840F40030086029E001980628D5
:10021C0008D14EF62451CEF20001086840F480203B
:10022C0008601DE001980F2808D14EF21001CEF2A3
:10023C000001086840F00200086011E001981028E5
:10024C000ED30198A0F1100101F01F020120904083
:10025C004A0940F27021C0F2000151F822100860E6
:04026C0002B080BD9F
:1002700000E100E004E100E008E100E00CE100E062
:0402800010E100E0A9
:1002840080B584B0039040F27020C2F2000000F503
:10029400A560029002981838019001460091FFF77A
:1002A4002DFF0098019940F27022C2F2000291429F
:0802B4000290EFD104B080BDFF
:0402BC0062B670476F
:1002C00080B586B00020059040F24050C0F2C010CA
:1002D00004F02CFB012004F00FFB01F06DFC0490F6
:0C02E00001A800F003F802F0B7FAFEE7F6
:1002EC0080B596B01590159804900430009000F0ED
:1002FC00ADF804980D900D990EA8019000F0B6F889
:10030C00009801990022C4F205020392FFF7FCFE4B
:10031C00019800F091F804980590059906A80290B0
:10032C0000F0B4F802984FF4A061002202F0AAFB8E
:10033C000298FFF7DFFE0120C2F2100004F0A0FAD1
:10034C0004F032FC3C20FFF73BFF039840F2FF31F6
:10035C0001F0FEFD03980F2101F034FE03984FF0DD
:10036C00FF3104F083FC0398012104F0A1FC0398F5
:10037C0040F60F61CFF6037104F020FC039802F0F5
:08038C00A3F8049816B080BD2F
:1003940080B582B040F6A860C2F200000078C007C1
:1003A40030BB40F6A861C2F200010120087040F69B
:1003B4009820C2F2000001900198009000F01AF811
:1003C400009800F11801084640F69822C2F2000293
:1003D40002F5347291420190EED140F20D40C0F228
:1003E400000040F20002C0F20002002104F06BFFA2
:0403F40002B080BD16
:1003F80080B582B001900198009003F0EDFC009860
:0404080002B080BD01
:10040C0080B584B0039040F69820C2F2000000F54D
:10041C00347002900298183801900146009100F057
:10042C000BF80098019940F69822C2F20002914212
:08043C000290EFD104B080BD75
:1004440080B582B001900198009001F027FB0098DC
:0404540002B080BDB5
:1004580080B582B001900198009002F037FB0098B7
:1004680040F2C011C0F200010831016002B080BD45
:1004780080B584B0039102900298019003A802F01D
:1004880031FB0146019802F033FB019804B080BDAE
:1004980080B584B0039102900298019003A803F0FC
:1004A8001BF90146019803F01DF9019804B080BDBD
:0C04B80083B002900191009203B07047E5
:1004C40080B582B001900198009002F045FB00983D
:0404D40002B080BD35
:1004D80080B58AB00890079106920899049109910D
:1004E80000200861079802F03DFBB0B106990DF1B4
:1004F8001700019002F056FB079802F0F3FA0199F1
:1005080002900DF11600039002F07EFB0498029908
:10051800039A02F08FFB0498006109980AB080BD25
:1005280080B588B0079006910592079801900698C3
:1005380002F0D8FA02F012FD0390059802F0D4FBFD
:1005480002F01AFD014601980291039A029B9DF858
:0C055800131000F00DF8019808B080BDF1
:1005640080B582B001900198009002F0ABFC009835
:0405740002B080BD94
:1005780080B58AB08DF827100892079306900698E0
:10058800009008A802F048FD014600980968049107
:10059800049A9DF80F309DF8171002F043FD07A844
:1005A80002F056FD0146009809680291029A9DF8EA
:1005B80007309DF80E1000F053F800980AB080BD7F
:1005C80080B584B08C46079906998DF80FC08DF8D0
:1005D8000E208DF80D308DF80C10029002980190C5
:1005E800079802F0A7FA0146019800F003F801986D
:0405F80004B080BD0E
:1005FC0080B584B00390029103980190029802F0A8
:0C060C0097FA01460198016004B080BD1F
:1006180080B584B08C46079906998DF80FC08DF87F
:100628000E208DF80D308DF80C1002900298019074
:10063800079802F0CDFC0146019800F003F80198F4
:0406480004B080BDBD
:10064C0080B584B00390029103980190029802F057
:0C065C00BDFC01460198016004B080BDA7
:1006680080B586B08DF8171004928DF80F3002907F
:100678000298019004A800F013F802F0F5FC019824
:0406880006B080BD7B
:10068C0080B582B00190019800F002F802B080BDF4
:0C069C0081B000900098006801B0704729
:1006A80080B582B00190019800F002F802B080BDD8
:0C06B80081B000900098006801B070470D
:1006C40080B582B00190019800F032F802B080BD8C
:1006D40080B584B00390029103980299019100F0CF
:1006E4002FF801460198884201D902F021FD0298B1
:0C06F400C000042102F024FD04B080BD11
:1007000080B584B003900291019203980090019803
:1007100002F034FD0246009802A902F035FD00986F
:0407200004B080BDE4
:1007240080B582B00190019800F03AF802B080BD23
:1007340080B582B00190019802F0F4FC02B080BD53
:1007440080B582B0019000F003F8C00802B080BD0B
:0807540080B502F00DFD80BD2F
:10075C0081B00090009808284FF0000088BF01205D
:04076C0001B0704721
:1007700080B582B0019000910198009902F0D9FAF9
:0407800002B080BD86
:1007840080B582B00190019802F0A5FA02B080BD54
:1007940080B582B00190019802F03EFD02B080BDA8
:1007A40080B582B00190019802F03CFD02B080BD9A
:1007B40080B588B007900691059207980190069835
:1007C40002F036FD0390059802F090FA02F0D6FB91
:1007D400014601980291039A029B9DF8131000F0C0
:0807E40003F8019808B080BD84
:1007EC0080B58AB08DF8271008920793069006986A
:1007FC00009008A802F046FD014600980968049193
:10080C00049A9DF80F309DF8171002F041FD07A8CF
:10081C0002F01CFC0146009809680291029A9DF8AE
:10082C0007309DF80E10FFF719FF00980AB080BD35
:10083C0080B584B08C46079906998DF80FC08DF859
:10084C000E208DF80D308DF80C100290029801904E
:10085C00079802F0F7FC0146019800F003F80198A4
:04086C0004B080BD97
:1008700080B584B00390029103980190029802F031
:0C088000E7FC01460198016004B080BD57
:10088C0080B582B00190019800F002F802B080BDF2
:0C089C0081B000900098006801B0704727
:1008A80080B582B00190019802F00AFD02B080BDC7
:1008B80080B582B001900091019A00991068526841
:0808C80000F002F802B080BD4F
:1008D00080B584B003900291019203980299019A25
:0808E00002F026FD04B080BD0A
:1008E80080B584B003900291019203980299019A0D
:0808F80000F00CF804B080BD13
:1009000080B582B0019000910198009900F00EF836
:0409100002B080BDF4
:1009140080B584B003900291019203980299019AE0
:0809240002F04FFA04B080BD9F
:10092C0080B582B0019000910198009904F041FDCE
:04093C0002B080BDC8
:1009400080B584B00390029101920398009002F068
:10095000B9F9009841F6E021C0F20001083140F8F1
:10096000041B0299019A00F003F8009804B080BDBE
:1009700080B588B007900691059207980190069877
:1009800002F058FC0390059802F0F8FC014601982B
:100990000291039A029B9DF8131000F003F801984E
:0409A00008B080BD5E
:1009A40080B58AB08DF827100892079306900698B0
:1009B400009008A802F06AFC0146009809680491B6
:1009C400049A9DF80F309DF8171002F065FC07A8F3
:1009D40002F000FD0146009809680291029A9DF810
:1009E40007309DF80E1000F02BF800980AB080BD77
:1009F40080B584B08C46079906998DF80FC08DF8A0
:100A04000E208DF80D308DF80C1002900298019094
:100A1400079802F0BFFC0146019800F003F8019822
:040A240004B080BDDD
:100A280080B584B00390029103980190029802F077
:0C0A3800AFFC01460198016004B080BDD5
:100A440080B586B08DF8171004928DF80F3002909F
:100A54000298019004A800F005F802F09BFC0198AC
:040A640006B080BD9B
:100A680080B582B00190019800F002F802B080BD14
:0C0A780081B000900098006801B0704749
:080A840081B0009001B0704741
:100A8C0080B582B00190019800F00EF800F002F8E9
:040A9C0002B080BD67
:100AA00080B582B00190019802F09CFC00F00AF839
:040AB00002B080BD53
:100AB40080B582B00190019802F0DCFD02B080BDE7
:100AC40080B582B00190019802F090FC02B080BD24
:100AD40080B584B003900291039800909DF80800BB
:100AE400C00778B10020C4F20500002101F008FD20
:100AF4000190019830B1009B03F108000299019A1A
:100B040000F032F8029802F0AFFC002004B080BD7F
:100B140084B002900191029800909DF8040040076F
:100B2400002802D5012003901BE09DF804008007F3
:100B3400002802D50320039013E09DF80400C007A9
:100B440028B10099002008700220039009E09DF864
:100B540004000007002802D50820039001E00020CB
:080B64000390039804B07047F0
:100B6C0080B586B0059004910392029340F6C06262
:100B7C00C2F200020020C4F20500002103AB01F018
:100B8C001FFD40F20210C4F205000078019040F6FF
:100B9C00C860C2F20000807848B940F6C060C2F26A
:100BAC000000008840F6C861C2F20001088040F6DF
:100BBC00C860C2F200000088029900F003F800201F
:040BCC0006B080BD32
:100BD00080B5AAB0ADF8A6002891BDF8A6000146E0
:100BE000199108287BD0199881287BD019988228E0
:100BF00079D01998B0F5807F76D0199840F201111C
:100C0000884200F088801998B0F5817F00F08480D8
:100C1000199840F2A111884200F012821998B0F59B
:100C2000407F00F0A481199840F20131884200F021
:100C3000C381199840F20231884200F0BE811998B0
:100C4000B0F5A06F00F0BA811998B0F5D06F00F040
:100C5000D181199840F28161884200F0D7811998BA
:100C600040F28261884200F0D2811998B0F5E06FBD
:100C700000F0CE811998B0F5086F00F0CA8119987C
:100C8000B0F5106F00F0C681199840F62121884216
:100C900000F0D781199840F68121884200F0CD817B
:100CA000199840F60131884200F0C881199840F641
:100CB0008241884200F0C381199842F221018842A2
:100CC00000F0C081199842F2A111884200F0EF8132
:100CD000199842F22121884200F00C8220E202F0B1
:100CE000E5FB25E21CE21BE240F6C060C2F2000018
:100CF0008078012807D10020C4F2050000210122DC
:100D000004F090F806E00020C4F20500002211462D
:100D100001F0DAFA0CE203E240F6C060C2F2000031
:100D2000408838B10020C4F205000022114601F0CD
:100D3000CBFAFDE140F6C060C2F200000079014646
:100D40001891012800F0E680189802283FD01898E2
:100D5000812807D01898822871D01898832800F02D
:100D6000A780FCE00020C4F2050017901021159127
:100D70004FF40052149201F021FB149A1599179820
:100D800001F040FA159802F0ADFB002016908DF8A6
:100D900098008DF899008DF89A008DF89B008DF8D9
:100DA0009C008DF89D008DF89E008DF89F0040F608
:100DB000A463C2F200034FF48170812126AA02F0DD
:100DC000A5FB16991798012204F02CF8CEE000201C
:100DD000C4F205001190202112910022139201F01B
:100DE000EDFA11981299139A01F00CFA129802F088
:100DF00079FB13988DF890008DF891008DF8920092
:100E00008DF893008DF894008DF895008DF896007C
:100E10008DF8970040F6A463C2F200034FF481708E
:100E2000022124AA02F072FB13991198012203F007
:100E3000F9FF11981299139A03F0F4FF96E020201D
:100E40000D9002F04FFB0D990020C4F205000F90A9
:100E50004FF400520E9201F0D5F9002010908DF859
:100E600088008DF889008DF88A008DF88B008DF848
:100E70008C008DF88D008DF88E008DF88F0040F677
:100E8000A463C2F200034FF48170822122AA02F00F
:100E90003DFB0D990E9A0F9801F090FA40F68C20C8
:100EA00000F086FE0F981099012203F0BBFF5DE071
:100EB0000020C4F205000C90302109914FF400523B
:100EC0000A9201F07BFA09990A9A0C9801F09AF9B2
:100ED00000200B908DF880008DF881008DF8820045
:100EE0008DF883008DF884008DF885008DF88600DC
:100EF0008DF8870040F6A463C2F200034FF48170BE
:100F0000832120AA02F002FB0B990C98012203F026
:100F100089FF2BE0002007908DF878008DF879008C
:100F20008DF87A008DF87B008DF87C008DF87D00BF
:100F30008DF87E008DF87F0040F6A463C2F20003B6
:100F40004FF48170012108911EAA02F0DFFA07997F
:100F5000089A0020C4F2050003F064FF06E00020B8
:100F6000C4F205000022114601F0AEF9E0E040F6BF
:100F7000C060C2F20000807801460691012803D0CB
:100F80000698022808D00FE00020C4F205000021D6
:100F9000012203F047FF0EE00020C4F2050000220A
:100FA000114601F091F906E00020C4F2050000228C
:100FB000114601F089F9BBE0B2E0B1E000210591F2
:100FC0008DF870108DF871108DF872108DF8731007
:100FD0008DF874108DF875108DF876108DF87710E7
:100FE00040F6A463C2F200034FF4A0601CAA02F012
:100FF0008DFA9DE040F6C061C2F200018A78C8789F
:10100000897900F097F800B98AE091E088E087E0FC
:1010100086E085E0289B40F6C062C2F200024FF4F1
:1010200010600021049102F071FA04990020C4F2CA
:101030000500012203F0F6FE7AE071E070E06FE057
:101040006EE075E040F6C860C2F20000807898B9A2
:1010500040F6C861C2F200010120887040F6C0600D
:10106000C2F20000C08888800020C4F2050000227F
:10107000114603F0D7FE19E040F6C860C2F2000046
:101080000290031D40F6C062C2F2000242F221004B
:101090000021039102F03AFA03990020C4F20500FE
:1010A000012203F0BFFE02990398887040E00021FE
:1010B00001918DF868108DF869108DF86A108DF81F
:1010C0006B108DF86C108DF86D108DF86E108DF81A
:1010D0006F1040F6A463C2F2000342F2A1101AAAF4
:1010E00002F014FA01990020C4F20500012203F075
:1010F00099FE1DE040F6C062C2F2000240F6A46311
:10110000C2F2000342F221200021009102F0FEF918
:1011100000990020C4F20500012203F083FE07E0DD
:101120000020C4F2050000214FF4005201F0CCF879
:041130002AB080BDA4
:1011340080B584B08DF80E00ADF80C108DF80B203E
:101144009DF80E0001380146019107282FD8019916
:10115400DFE801F0041120292A2B2C2D9DF80C2006
:1011640042F60E60C0F20000122100F0BDF801202A
:101174008DF80F001EE04621ADF808109DF80C20F4
:1011840042F65260C0F2000000F0AEF801208DF883
:101194000F000FE09DF80B009DF80C1000F016F9FD
:1011A4008DF80F0006E002E001E000E0FFE7002018
:0C11B4008DF80F009DF80F0004B080BD06
:1011C00080B586B005908DF813108DF812209DF82B
:1011D00013009DF81210884203DD9DF81200019063
:1011E00002E09DF81300019001988DF81100059818
:1011F00003909DF81100402835DB40208DF80B004E
:10120000039A9DF80B300020C4F20500002103F082
:101210006DFE013000B9F3E79DF8110058B90020C8
:10122000C4F2050000214FF4817203F0D9FE0130B1
:1012300000B9F4E717E00020C4F2050000214FF4E4
:10124000817203F0CDFE013000B9F4E79DF80B1078
:101250009DF81100401A8DF811009DF80B100398AD
:1012600008440390C5E7039A9DF811300020C4F2AA
:101270000500002103F03AFE013000B9F3E7002039
:10128000C4F2050000214FF4857203F0A9FE01307D
:0812900000B9F4E706B080BDCF
:1012980080B584B00390029100208DF807009DF876
:1012A8000700362812D802989DF8071002F070F946
:1012B80000680399884203D19DF8070004B080BDF7
:1012C8009DF8070001308DF80700E8E700F008F8FE
:1012D80080B582B00190019802F064F902B080BD37
:0412E80000F000F81A
:1012EC0080B596B015908DF853108DF852209DF85E
:1012FC0053009DF85210884203DD9DF85200019076
:10130C0002E09DF85300019001988DF8510015985A
:10131C00139015999DF8532003A801F0F7F99DF847
:10132C005100402835DB40208DF80B00139A9DF8B6
:10133C000B300020C4F20500002103F0D1FD013078
:10134C0000B9F3E79DF8510058B90020C4F205002C
:10135C0000214FF4817203F03DFE013000B9F4E737
:10136C0017E00020C4F2050000214FF4817203F055
:10137C0031FE013000B9F4E79DF80B109DF85100D7
:10138C00401A8DF851009DF80B10139808441390D7
:10139C00C5E7139A9DF851300020C4F205000021D6
:1013AC0003F09EFD013000B9F3E70020C4F2050004
:1013BC0000214FF4857203F00DFE013000B9F4E703
:0413CC0016B080BD1A
:1013D00080B582B08DF806008DF805109DF80600E6
:1013E00001460091032838D80099DFE801F0020F88
:1013F0001C299DF8052045F2C600C0F2000010210E
:10140000FFF774FF01208DF8070029E09DF8052003
:1014100045F2D600C0F200001021FFF767FF01205F
:101420008DF807001CE09DF8052045F2E600C0F2AB
:1014300000001021FFF75AFF01208DF807000FE090
:101440009DF8052045F2F600C0F200001021FFF7DC
:101450004DFF01208DF8070002E000208DF8070005
:081460009DF8070002B080BDF9
:1014680080B582B00190019802F0F8F802B080BD12
:1014780080B582B00190019800F002F802B080BDFA
:1014880080B582B0019001980090006908B902F017
:10149800BDF80098006901688969884702B080BD75
:1014A80080B584B00390029103980190029802F0ED
:1014B800EBF80146019800F003F8019804B080BDEC
:1014C80080B584B00390029103980190002102F046
:1014D800E1F80298006918B901990020086116E03E
:1014E8000299086988420BD1019802F0EFF8019936
:1014F80008610298006909690268D268904706E0A5
:101508000199029800690861029900200861019810
:0415180004B080BDDE
:10151C0080B582B001900198009002F0FFF800981D
:04152C0002B080BDCC
:1015300080B58AB0089007910692089904910991A4
:1015400000200861079802F0F5F8B0B106990DF196
:101550001700019002F0F4F8079802F0C1F8019921
:1015600002900DF11600039002F0F6F8049802992B
:10157000039A02F0FDF80498006109980AB080BD52
:1015800080B588B00790069105920798019006985B
:1015900002F0A6F802F0BAF90390059802F01CF9DF
:1015A00002F0C2F9014601980291039A029B9DF84C
:0C15B000131000F023F8019808B080BD73
:1015BC0080B582B001900198009002F097F90098E4
:0415CC0002B080BD2C
:1015D00080B586B00590049103920598043002907E
:1015E000049802F00BF80190039802F00DF80199AD
:0C15F0000246029802F08EFB06B080BD9F
:1015FC0080B58AB08DF8271008920793069006984C
:10160C00009008A802F0DAF90146009809680491E4
:10161C00049A9DF80F309DF8171002F0D5F907A821
:10162C0002F0E8F90146009809680291029A9DF8C7
:10163C0007309DF80E1000F053F800980AB080BDEA
:10164C0080B584B08C46079906998DF80FC08DF83B
:10165C000E208DF80D308DF80C1002900298019030
:10166C00079802F055F80146019800F003F801982C
:04167C0004B080BD79
:1016800080B584B00390029103980190029802F013
:0C16900045F801460198016004B080BDDF
:10169C0080B584B08C46079906998DF80FC08DF8EB
:1016AC000E208DF80D308DF80C10029002980190E0
:1016BC00079802F05FF90146019800F003F80198D1
:0416CC0004B080BD29
:1016D00080B584B00390029103980190029802F0C3
:0C16E0004FF901460198016004B080BD84
:1016EC0080B586B08DF8171004928DF80F300290EB
:1016FC000298019004A800F013F802F087F9019801
:04170C0006B080BDE6
:1017100080B582B00190019800F002F802B080BD5F
:0C17200081B000900098006801B0704794
:10172C0080B582B00190019800F002F802B080BD43
:0C173C0081B000900098006801B0704778
:1017480080B582B00190019800F032F802B080BDF7
:1017580080B584B00390029103980299019100F03A
:101768002FF801460198884201D901F0DFFC029860
:0C177800C000042101F0E2FC04B080BDC0
:1017840080B584B00390029101920398009001986F
:1017940002F0A2F90246009802A902F0A3F9009807
:0417A40004B080BD50
:1017A80080B582B00190019800F01AF802B080BDAF
:1017B80080B582B00190019802F086F902B080BD30
:1017C80080B582B00190FEF7C1FFC00802B080BDAD
:1017D80080B582B00190019802F0CCF902B080BDCA
:1017E80080B582B00190019802F0CAF902B080BDBC
:1017F80080B588B0079006910592079801900698E1
:1018080002F0C4F90390059801F0E2FF02F088F8AD
:10181800014601980291039A029B9DF8131000F06B
:0818280003F8019808B080BD2F
:1018300080B58AB08DF82710089207930690069815
:10184000009008A802F0D4F90146009809680491B4
:10185000049A9DF80F309DF8171002F0CFF907A8F1
:1018600002F0CEF80146009809680291029A9DF8AC
:1018700007309DF80E10FFF739FF00980AB080BDC1
:1018800080B584B08C46079906998DF80FC08DF805
:101890000E208DF80D308DF80C10029002980190FA
:1018A000079802F085F90146019800F003F80198C5
:0418B00004B080BD43
:1018B40080B584B00390029103980190029802F0DD
:0C18C40075F901460198016004B080BD78
:1018D00080B582B00190019800F002F802B080BD9E
:0C18E00081B000900098006801B07047D3
:1018EC0080B582B00190019802F098F902B080BDE9
:1018FC0080B582B001900091019A009910685268ED
:08190C0000F002F802B080BDFA
:1019140080B584B003900291019203980299019AD0
:0819240002F0B4F904B080BD2B
:10192C0080B584B00390029101920398009001F06D
:10193C0041FF009841F62831C0F20001083140F80F
:10194C00041B0299019A00F003F8009804B080BDC2
:10195C0080B588B00790069105920798019006987B
:10196C0002F012F90390059802F09AF901460198D9
:10197C000291039A029B9DF8131000F003F8019852
:04198C0008B080BD62
:1019900080B58AB08DF827100892079306900698B4
:1019A000009008A802F024F9014600980968049103
:1019B000049A9DF80F309DF8171002F01FF907A840
:1019C00002F0A2F90146009809680291029A9DF876
:1019D00007309DF80E1000F02BF800980AB080BD7B
:1019E00080B584B08C46079906998DF80FC08DF8A4
:1019F0000E208DF80D308DF80C1002900298019099
:101A0000079802F061F90146019800F003F8019887
:041A100004B080BDE1
:101A140080B584B00390029103980190029802F07B
:0C1A240051F901460198016004B080BD3A
:101A300080B586B08DF8171004928DF80F300290A3
:101A40000298019004A800F005F802F03DF9019811
:041A500006B080BD9F
:101A540080B582B00190019800F002F802B080BD18
:0C1A640081B000900098006801B070474D
:081A700081B0009001B0704745
:101A780080B582B00190019802F0A8F902B080BD4B
:101A880080B584B003900291019203980299019A5B
:081A980002F072F904B080BDF8
:101AA00080B584B00290029901910391086988423F
:101AB00005D10198006901680969884707E0019824
:101AC000006920B101980069016849698847039855
:041AD00004B080BD21
:0C1AD4000000000000000000B904000049
:101AE000000000000000000065050000192D000046
:101AF000492D0000CD2D0000FD2D0000212E0000FD
:041B0000992E00001A
:101B04000000000000000000C92E00005D2F00004E
:101B1400AF530000AF530000AF530000AF530000B9
:041B2400AF530000BB
:101B28000000000000000000BD150000E5370000BF
:101B38000138000081380000B1380000C5380000C5
:041B4800D1150000B3
:101B4C000000000000000000F9380000053900001A
:101B5C00AF530000AF530000AF530000AF53000071
:041B6C00AF53000073
:101B700080B584B0039040F29870C2F2000000F586
:101B80004070029002981838019001460091FEF7CB
:101B900059FC0098019940F29872C2F200029142F9
:081BA0000290EFD104B080BDFA
:081BA80080B502F089FB80BD4D
:081BB00001387FF4FDAF70471E
:101BB80087B04EF26000C4F20F00006805904EF244
:101BC8007000C4F20F00006804909DF8130000062E
:101BD800002804D5049800F07000019003E00598EF
:101BE80000F0300001900198009090B10098102802
:101BF8001AD00098202868D00098302800F0B680C5
:101C08000098602800F0B6800098702800F0B68030
:101C1800B8E0059800F4F860010941F6F060C0F2F8
:101C2800000040580290B0E04EF20000C4F20F00ED
:101C3800006810F0E04F0BD04EF20000C4F20F0025
:101C480000680021C7F2FF010840B0F1805F05D1AC
:101C58004EF2C010C0F2E400029035E04EF20000EF
:101C6800C4F20F0000680021C7F2FF0108400021FC
:101C7800C1F20101884207D14EF20000C4F20F0000
:101C8800006880B2022814D04EF20000C4F20F009F
:101C980000680021C7F2FF0108400021C1F20301DA
:101CA80088420CD14EF20000C4F20F000068000414
:101CB80028B941F60030C0F2B700029004E042F2C1
:101CC8000040C0F2F40002905FE04EF20000C4F25F
:101CD8000F00006810F0E04F0BD04EF20000C4F285
:101CE8000F0000680021C7F2FF010840B0F1805FD3
:101CF80005D143F67000C0F23900029035E04EF28B
:101D08000000C4F20F0000680021C7F2FF0108407C
:101D18000021C1F20101884207D14EF20000C4F24D
:101D28000F00006880B2022814D04EF20000C4F2FE
:101D38000F0000680021C7F2FF0108400021C1F22E
:101D4800030188420CD14EF20000C4F20F00006873
:101D5800000428B94CF2C060C0F22D00029004E0E3
:101D680040F60010C0F23D0002900EE047F23050FD
:101D780002900AE04FF48000029006E04FF4004021
:101D8800029002E000200690A5E09DF813000006EE
:101D9800002804D59DF811000007002809D59DF8F2
:101DA80013000006002850D49DF8150000070028ED
:101DB8004BD44EF26400C4F20F00006803904EF258
:101DC8000000C4F20F00006810F0E04F0BD04EF294
:101DD8000000C4F20F0000680021C7F2FF010840AC
:101DE800B0F1805F10D10298039943F6E07201EADE
:101DF8000203022202EB5312504301F01F01023189
:101E0800B0FBF1F002900CE002980399C1F348127C
:101E1800504301F01F02022101EB4201B0FBF1F037
:101E280002909DF80D004006002802D5029840084F
:101E380002909DF80D000006002802D5029880083F
:101E48000290059840F4800005909DF81600400621
:101E580000283ED59DF81300000600282FD59DF8D0
:101E68001300400600281FD59DF81300000600281F
:101E780004D59DF811000007002809D59DF8130026
:101E88000006002810D49DF81500000700280BD480
:101E980002984000049901F0FE52012101EB925191
:101EA800B0FBF1F0029009E0049800F0FC51012029
:101EB80000EBD1510298B0FBF1F0029009E00598CF
:101EC80000F0F061012000EBD1510298B0FBF1F075
:0C1ED800029002980690069807B0704730
:0C1EE40000E10F4004E10F4008E10F4056
:101EF00040420F0000201C0080841E00008025004E
:101F0000999E36000040380000093D0000803E00E8
:101F100000004B00404B4C0000204E00808D5B00C9
:101F200000C05D000080700000127A0000007D009B
:101F300080969800001BB7000080BB00C0E8CE0070
:101F4000647ADA000024F4000000FA0080A812018C
:0C1F5000002D310100366E0140787D014B
:101F5C0080B582B00190009101980021C4F2050176
:101F6C00884207D042F60770C0F2000040F295217B
:101F7C0000F008FD0098800A38B142F60770C0F2F4
:101F8C00000040F2962100F0FDFC9DF8000020B10D
:101F9C00009A0199C87A9043C8729DF80100C00755
:101FAC0018B101990020C1F808049DF801008007C0
:101FBC00002805D540F24841C4F205010020086014
:041FCC0002B080BD22
:101FD00080B582B00190009101980021C4F2050102
:101FE000884207D042F60770C0F200004FF4327109
:101FF00000F0CEFC0098800A38B142F60770C0F2BB
:10200000000040F2C92100F0C3FC9DF8000020B19F
:10201000009A0199C87A1043C8729DF80100C00760
:1020200018B101990120C1F808049DF8010080074A
:10203000002805D540F24841C4F20501012008609E
:0420400002B080BDAD
:1020440080B582B0019001980021C4F20501884254
:1020540007D042F60770C0F2000040F2163100F0DB
:1020640095FC0198807A00900198D0F80C04C00780
:1020740050B1009840F480700090019991F80C04DC
:1020840040F0010081F80C0440F24C40C4F2050019
:102094000068C00758B1009840F40070009040F206
:1020A4004C41C4F20501086840F001000860009842
:0420B40002B080BD39
:1020B80080B584B00390029103980021C4F2050111
:1020C800884207D042F60770C0F200004FF47571DD
:1020D80000F05AFC02993C20019000F0BFFB0198E7
:0820E800FEF770F804B080BDA2
:1020F00080B584B003900291019203980021C4F24C
:102100000501884207D042F60770C0F2000040F295
:10211000B54100F03DFC0298A0B30298102831D0E0
:10212000029820282ED0029830282BD002984028E0
:1021300028D00298502825D00298602822D00298F2
:1021400070281FD0029880281CD00298902819D09F
:102150000298A02816D00298B02813D00298C02860
:1021600010D00298D0280DD00298E0280AD002980A
:10217000F02807D042F60770C0F2000040F2BD41DF
:1021800000F006FC029818BB9DF80400C00730B1AF
:10219000039991F8020140F0400081F802019DF896
:1021A0000400C006002806D5039991F8020140F00A
:1021B000800081F802019DF804004007002806D540
:1021C000039991F8020100F0FB0081F8020117E089
:1021D0000199DB2060EA010203990298014491F819
:1021E0000201104081F80201019800F4980203995D
:1021F0000298014491F8060120EA124081F8060194
:0422000004B080BDE9
:1022040080B584B003900291019203980021C4F236
:102214000501884207D042F60770C0F200004FF46F
:10222400AE6100F0B3FB0298102831D00298202848
:102234002ED0029830282BD00298402828D002981B
:10224400502825D00298602822D0029870281FD0E8
:10225400029880281CD00298902819D00298A028AF
:1022640016D00298B02813D00298C02810D0029833
:10227400D0280DD00298E0280AD00298F02807D080
:1022840042F60770C0F200004FF4AF6100F07EFB2D
:102294009DF805008006002809D503990298014499
:1022A40091F8020140F0400081F8020108E003992E
:1022B4000298014491F8060140F0800081F806017B
:0422C40004B080BD25
:1022C80080B584B003900291019203980021C4F272
:1022D8000501884207D042F60770C0F2000040F2BC
:1022E800A35100F051FB01986FF40051084207D048
:1022F80042F60770C0F2000040F2A45100F044FB1F
:102308000298A0B30298102831D0029820282ED025
:10231800029830282BD00298402828D002985028BC
:1023280025D00298602822D0029870281FD00298E1
:1023380080281CD00298902819D00298A02816D07E
:102348000298B02813D00298C02810D00298D0283C
:102358000DD00298E0280AD00298F02807D042F65B
:102368000770C0F2000040F2AC5100F00DFB02987B
:1023780038B9039991F8020140F0600081F8020130
:1023880016E00198B0F5005F09D10399029801445D
:1023980091F8020140F0100081F8020108E0039969
:1023A8000298014491F8060140F0200081F80601E6
:0423B80004B080BD30
:1023BC0080B584B003900291019203980021C4F27D
:1023CC000501884207D042F60770C0F2000040F2C7
:1023DC00E65100F0D7FA0298A0B30298102831D039
:1023EC00029820282ED0029830282BD00298402812
:1023FC0028D00298502825D00298602822D0029824
:10240C0070281FD0029880281CD00298902819D0D0
:10241C000298A02816D00298B02813D00298C02891
:10242C0010D00298D0280DD00298E0280AD002983B
:10243C00F02807D042F60770C0F2000040F2EE51CF
:10244C0000F0A0FA01986FF40051084207D042F650
:10245C000770C0F2000040F2EF5100F093FA0298BE
:10246C0038B9039991F8020100F0FB0081F80201E0
:10247C0028E00198B0F5005F12D10399029801444D
:10248C0091F8020100F0CF0081F802010399029843
:10249C00014491F8020140F0400081F8020111E082
:1024AC0003990298014491F8060100F09F0081F80D
:1024BC00060103990298014491F8060140F080004E
:0824CC0081F8060104B080BD97
:1024D40080B582B0019001980021C4F205018842C0
:1024E40007D042F60770C0F2000040F22D6100F000
:1024F4004DFA0199487840F04000487002B080BD20
:1025040080B584B00290019102980021C4F20501C3
:10251400884207D042F60770C0F2000040F6072157
:1025240000F034FA0198A0B30198102831D0019832
:1025340020282ED0019830282BD00198402828D06C
:102544000198502825D00198602822D0019870283D
:102554001FD0019880281CD00198902819D0019888
:10256400A02816D00198B02813D00198C02810D004
:102574000198D0280DD00198E0280AD00198F028BD
:1025840007D042F60770C0F2000040F60F2100F0B9
:10259400FDF9019818B94FF48170009003E0019897
:1025A40000F58370009002980099405AC00710B952
:1025B4000020039005E0029801990844B0F808014E
:0825C4000390039804B080BDF0
:1025CC0080B58AB00890079106920593089800216F
:1025DC00C4F20501884207D042F60770C0F2000031
:1025EC0040F64C2100F0CEF90798A0B307981028BC
:1025FC0031D0079820282ED0079830282BD0079858
:10260C00402828D00798502825D00798602822D039
:10261C00079870281FD0079880281CD007989028FE
:10262C0019D00798A02816D00798B02813D007986F
:10263C00C02810D00798D0280DD00798E0280AD0D1
:10264C000798F02807D042F60770C0F2000040F659
:10265C00542100F097F9079818B94FF48170049041
:10266C0003E0079800F58370049008980499405A89
:10267C00C00730B90599002008604FF0FF30099071
:10268C0029E0089807990844B0F8080103900398CA
:10269C0005990968884202D20398019002E00598D6
:1026AC0000680190019803900398059908600898B8
:1026BC00079900EB910020300290039848B10298E2
:1026CC00007806994A1C069208700398013803900A
:0C26DC00F3E70020099009980AB080BDC7
:1026E800034C206804348047FBE7FDF7E5FDFEE76F
:0426F800B8550000D1
:0426FC0000000000DA
:1027000003480449091A08B500F00DFA0CBC184733
:082710003010002030180020F9
:102718005AB3844690EA01039B071FD1830707D069
:1027280011F8013B00F8013B521EF7D11CE084462A
:10273800203A09D32DE9F007B1E8F807A0E8F8072F
:10274800203AF9D2BDE8F0071C3205D451F8043B11
:1027580040F8043B121FF9D2043205D011F8013BAE
:0C27680000F8013B521EF9D1604670479A
:0A27740081B00090009801B070479A
:02277E00FEE774
:0A27800081B00090009801B070478E
:02278A00FEE768
:10278C0080B584B00390029103990091086901907F
:10279C00002008610198884204D1019801680969F8
:1027AC00884705E0019818B1019801684969884784
:0627BC00009804B080BD8E
:0227C200FEE730
:0A27C40081B00090009801B070474A
:0227CE00FEE724
:1027D00080B582B040F6AC60C2F200000078BFF372
:1027E0005F8FC00768BB40F6AC60C2F2000002F029
:1027F00092FD30B340F27020C2F2000001900198C7
:102800000090FDF757FC009800F11801084640F2CF
:102810007022C2F2000202F5A56291420190EED14F
:1028200040F2C900C0F2000040F20002C0F2000213
:10283000002102F04AFD40F6AC60C2F2000000F058
:06284000C0F902B080BDEA
:02284600FEE7AB
:0E28480081B0009000980021016101B070473E
:02285600FEE79B
:0A28580080B5FDF72FFDC0B280BD72
:02286200FEE78F
:1028640080B584B00390029103989B2807D345F266
:10287400EE30C0F200004FF4877100F087F80120B9
:1028840038B945F2EE30C0F2000040F2131100F006
:102894007DF84EF60850CEF20000006840F20001C8
:1028A400C2F20001884222D04EF60850CEF2000057
:1028B400006800900020019001989A280ED8019990
:1028C400009850F82100019A40F20001C2F2000180
:1028D40041F82200019801300190EDE740F2000038
:1028E400C2F200004EF60851CEF2000108600298D0
:1028F400039A40F20001C2F2000141F8220004B040
:0229040080BD94
:02290600FEE7EA
:1029080080B582B040F6AC60C2F200000078BFF338
:102918005F8FC00768BB40F6AC60C2F2000002F0EF
:10292800F6FC30B340F27020C2F20000019001982A
:102938000090FDF7BBFB009800F11801084640F233
:102948007022C2F2000202F5A56291420190EED116
:1029580040F28520C0F2000040F20002C0F20002FE
:10296800002102F0AEFC40F6AC60C2F2000000F0BC
:0629780024F902B080BD4D
:10297E0042F2FC60C0F200000468204600F012F83B
:02298E00FBE765
:1029900082B001900091019840F6A061C2F200015E
:1029A0000860009840F69C61C2F20001086000BF18
:0229B000FDE741
:1029B20080B505281FD840F6686CC2F2000C42F6BA
:1029C200F7235CF82010C0F200034CF82030A9B1C4
:1029D20042F6EB22C0F2000291420CD0994208D09A
:1029E20042F6D323C0F20003994207D04CF82030BC
:1029F2008847002008BD4FF0FF3008BD0120FFF7D7
:022A020079FE5B
:102A04001EF0040F0CBFEFF30880EFF3098000F011
:022A140013B8F5
:102A160040F6CE63C2F200031A78002A02464FF04F
:102A2600010007D140F6806CC2F2000CCCE900210F
:062A36001870002070473B
:102A3C0081B000900098806940F6B061C2F200014C
:102A4C0008600098406940F6B461C2F20001086069
:102A5C004EF62C50CEF20000006840F6B861C2F27F
:102A6C00000108604EF62850CEF20000006840F6D7
:0A2A7C00BC61C2F200010860FEE731
:0A2A8600014600200022FFF7C3BF45
:102A900080B584B0039002918DF8072000F0F2FD1C
:102AA000009002999DF8070040EA012040F6D061AD
:102AB000C2F20001FEF7F0FB009900EB400240F289
:102AC0007020C2F2000000EBC200FEF7EDFC04B083
:022AD00080BDC7
:022AD20070474B
:102AD40081B00090009841F6D421C0F20001083181
:062AE400016001B0704723
:022AEA00704733
:0A2AEC0081B00090009801B070471F
:022AF600704727
:102AF80080B586B00590049105980290049800F07E
:102B080019F800900DF10F000190FDF7D7FC02981D
:0E2B18000099019AFDF7DCFC029806B080BD22
:102B2600082907D340F69862C2F20002106000221C
:062B3600C0E90021704718
:0A2B3C0081B00090009801B07047CE
:102B460010B5044602F090FB204602F03FFBBDE8BC
:062B5600104002F095BBE7
:0A2B5C0081B00090009801B07047AE
:062B6600FFF70AFFFEE785
:0A2B6C0081B00090012001B0704715
:102B7600F8B540F68864C2F20004206890B140F6C9
:102B8600E855C2F2000540F66856C2F200066FF03C
:102B9600030707EB8000295830588847206801381A
:062BA6002060F6D1F8BD2D
:102BAC0080B584B0039002910398019000F06CF80A
:062BBC00019804B080BD89
:102BC20070B582B004460125BFF35F8F057045F2F0
:102BD2008051C0F2000101A800F060F866786570CB
:102BE20002F0CAFB700706D540F68C60C2F2000004
:102BF20002F094FA08B902B070BD45F27F40C0F20B
:0E2C0200000045F28051C0F20001FFF7ABFF69
:102C100080B584B00390029103980190FFF79EFF66
:062C2000019804B080BD24
:102C260010B540F69064C2F200040020206002F065
:062C36006BFA206010BDE6
:102C3C0080B586B00590049103920598029000F03F
:102C4C003BF8029841F6E021C0F20001083140F84F
:102C5C00041B01900498FFF743FF0090039800F0C9
:102C6C0041F8009902460198FDF758FC029806B00D
:022C7C0080BD19
:102C7E0010B540F68C64C2F200040020206002F011
:062C8E0045FA206010BDB4
:0A2C940081B00090009801B0704775
:102C9E0010B50446016040F69060C2F2000002F0EA
:102CAE0031FA08B9204610BD216845F24940C0F2FC
:062CBE000000FFF751FFCA
:102CC40081B00090009841F60431C0F2000108314F
:062CD400016001B0704731
:102CDA0080B500F00DF800B108BD45F29640C0F28B
:062CEA000000FFF73BFFB4
:0A2CF00081B00090009801B0704719
:102CFA0010B50446012898BF0124204602F0C6FAFE
:0E2D0A0020B902F047FB08B18047F6E710BD84
:102D180080B582B0019001980090FDF71FFC0098E3
:0A2D2800082102F048FB02B080BD54
:102D320080B502F045FB00B108BD45F29640C0F2F5
:062D42000000FFF70FFF87
:102D480080B592B01190119804300390FDF7B6FC4D
:102D580001460DF143000490FFF724FF0498012178
:102D68000091FDF7B3FC009A049901900BA802901A
:102D780000F080F90199029A0DA80890FDF7BCFCB3
:102D8800089800F083F9014603980591FDF7C6FC01
:102D9800049906900DF12B000790FFF735FF059871
:102DA8000699079A00F07CF9089800F099F901460D
:0E2DB8000898099100F0A8F9099812B080BDA2
:062DC600114602F00FBBF4
:102DCC0080B586B005900491059804990391043060
:102DDC000190FDF7A1FC014601980291FDF76CFCF6
:0E2DEC00029902460398FDF7A5FD06B080BDD2
:022DFA000300D4
:102DFC0080B582B0019001980430FDF73DFE02B021
:022E0C0080BD87
:102E0E0012010002000000404705021000010102FD
:022E1E000301AE
:102E200080B586B005900598039004300190FDF7B9
:102E300049FC01460DF113000290FFF7B7FE01981F
:102E4000FDF720FE02980399012200F071FA06B006
:022E500080BD43
:102E52000902450002010080320904000001020259
:102E620001000524001001052401010104240202CD
:102E72000524060001000705810010000109040174
:102E820000020A00000000070502024000010705D7
:062E9200020240000100F5
:102E980080B582B0019001980430FDF7F3FD02B0CF
:022EA80080BDEB
:102EAA0050757265207669727475616C2066756EEC
:0E2EBA006374696F6E2063616C6C6564210047
:0A2EC80081B00090009801B070473F
:102ED2006261645F66756E6374696F6E5F63616C75
:102EE2006C20776173207468726F776E20696E2030
:102EF2002D666E6F2D657863657074696F6E7320D1
:052F02006D6F64650025
:102F07002F686F6D652F416E647265772F446F630D
:102F1700756D656E74732F53454747455220456D50
:102F27006265646465642053747564696F205072C8
:102F37006F6A656374732F5374656C6C6172697320
:102F4700576172652F6472697665726C69622F7555
:052F570073622E63000F
:062F5C0081B00090FEDED2
:102F640080B582B000900098FFF7E6FD014601A805
:0A2F740000F012F8019802B080BDD1
:102F800080B582B00090009800F026F8014601A8B4
:0A2F900000F028F8019802B080BD9F
:102F9C0010B586B005900491059802900498FFF73F
:102FAC00C7FD044602989DF80D309DF80E209DF843
:102FBC000F109DF80CC0EE46CEF80440CEF800C0C1
:0A2FCC00FDF7FCFA029806B010BDF4
:0A2FD80081B00090009801B070472E
:102FE40010B586B005900491059802900498FFF7F7
:102FF400F1FF044602989DF80D309DF80E209DF8CF
:103004000F109DF80CC0EE46CEF80440CEF800C078
:0A301400FDF700FB029806B010BDA6
:0A30200081B00090009801B07047E5
:10302C0080B586B08DF8171004928DF80F30029091
:10303C000298019004A8FDF723FB00F00DF801465F
:0A304C0001980968016006B080BD1C
:0A30580081B00090009801B07047AD
:0A30640081B00090009801B07047A1
:0A30700081B00090009801B0704795
:10307C0083B002900191009202980199016000992D
:06308C00416003B0704733
:1030940080B582B001900198FDF77AFB006802B018
:0230A40080BDED
:1030A80080B586B005900491039205980290FFF7C9
:1030B80005FE029841F6E021C0F20001083140F80F
:1030C800041B0190049800900398FFF70DFE0099E7
:0E30D80002460198FDF76AFB029806B080BD23
:1030E80080B584B0039003980190FDF7D9FB0146A1
:1030F800019809680291FDF7D3FB0146002008609A
:06310800029804B080BD36
:1031100080B582B0019001980090002100F0DAF8AB
:06312000009802B080BD22
:0A31280081B00090009801B07047DC
:0E31340045F2DC40C0F20000FFF713FD7047CB
:1031440080B584B0029001910198FDF705FB38B178
:103154000198009002980099FDF708FB039003E0A2
:0E3164000298FDF70DFB0390039804B080BDA8
:063174004FF0FF30704730
:0A317C0081B00090009801B0704788
:1031880080B586B005900491039205980290049842
:1031980000F012F80146029800F014F80298043082
:1031A8000190039800F01EF80146019800F020F8FD
:0631B800029806B080BD84
:0A31C00081B00090009801B0704744
:1031CC0080B584B003900291039801900298FFF7A8
:0E31DC00F1FF014601980968016004B080BD52
:0A31EC0081B00090009801B0704718
:1031F80080B584B003900291039801900298FFF77C
:10320800F1FF02460198116852684260016004B0FB
:0232180080BD77
:0A321C0081B00090009801B07047E7
:0A32280081B00090009801B07047DB
:1032340080B582B00090009800F008F8014601A81B
:0A32440000F00AF8019802B080BD06
:0A32500081B00090009801B07047B3
:10325C0010B586B00590049105980290049C9DF8D9
:10326C000D309DF80E209DF80F109DF80CC0EE4609
:10327C00CEF80440CEF800C0FDF7DAFA029806B09A
:02328C0010BD73
:0A32900081B00090009801B0704773
:10329C0080B586B08DF8171004928DF80F3002901F
:1032AC000298019004A8FDF7EBFAFFF7CBFF01465B
:0A32BC0001980968016006B080BDAA
:0A32C80081B00090009801B070473B
:1032D40080B586B00590049105980190FDF7E2FA57
:1032E400014601980968039104990291FDF7DAFAFD
:1032F400014602980860039828B1019800F006F886
:0A3304000399FDF7D7FA06B080BD6B
:1033100080B582B001900198043000F003F802B04B
:0233200080BD6E
:0A33240081B00090009801B07047DE
:1033300080B584B003900291019202980199C9006E
:0A334000042200F003F804B080BD81
:10334C0080B584B00390029101920198FDF700FAC8
:10335C0038B10198009003980299009AFDF7BEFAD3
:0E336C0003E003980299FDF7C5FA04B080BD96
:10337C0080B582B00090009800F008F8014601A8D2
:0A338C0000F00AF8019802B080BDBD
:0A33980081B00090009801B070476A
:1033A40010B586B00590049105980290049C9DF890
:1033B4000D309DF80E209DF80F109DF80CC0EE46C0
:1033C400CEF80440CEF800C0FDF712FB029806B018
:0233D40010BD2A
:0A33D80081B00090009801B070472A
:0A33E40081B00090009801B070471E
:1033F00080B582B001900198006800F003F802B037
:0234000080BD8D
:1034040080B586B005900598019040F20210C4F290
:10341400050000788DF8130040F20810C4F205008E
:1034240000788DF8120040F20A10C4F2050000780A
:103434008DF811000020C4F2050001F05FFC029039
:10344400029818B101980299FDF742FB0020C4F2DA
:103454000500FEF7F5FD0146019803910399FDF778
:0634640057FB06B080BD1D
:10346C0080B582B001900198B8B1019800F0D4F801
:10347C0000EB400140F69820C2F2000000EBC100C6
:10348C0000900098FDF7EAFF10B10098FDF7EEFFF1
:0E349C000198411E08400190E5E702B080BD96
:1034AC0080B582B040F6C060C2F200000090827914
:1034BC0042F6FA50C0F2000001900221FDF77AFEAC
:1034CC000098019A83790020C4F20500002101F0D4
:0634DC0007FD02B080BDF7
:1034E40080B584B0039003990020C4F205000190D4
:1034F40001F022FC0146019802910399029AFEF719
:06350400F5FD04B080BDDE
:10350C0080B586B004908DF80F1002920193049947
:10351C009DF80F0040EA012040F6D061C2F2000194
:10352C00FDF7B4FE00EB400140F27020C2F2000047
:10353C0000EBC10000900098FDF7C8FE18B9002000
:10354C008DF8170007E000980299019A00F008F82E
:0E355C0001208DF817009DF8170006B080BD05
:10356C0080B586B00590049103920598029004985A
:10357C0000F03EF80190039800F040F801990246E3
:0A358C00029800F017F806B080BDA9
:1035980082B0019000910198009900EB810002B07F
:0235A80070476A
:1035AC0081B0009000980069002818BF012001B07C
:0235BC00704756
:1035C00080B586B005900491039205980290006939
:1035D00008B900F01FF8029800690190049800F003
:1035E0000DF80090039800F00FF80099024601983A
:0A35F00003689B69984706B080BD90
:0A35FC0081B00090009801B0704704
:0A36080081B00090009801B07047F7
:0E36140042F6D260C0F20000FFF7A3FA704742
:1036240080B584B00390039800F010F802900298DB
:103634000F2803D802980138019003E00298C0F1E2
:0A3644002E000190019804B080BD33
:1036500081B00090009890FAA0F0B0FA80F001B02C
:023660007047B1
:1036640081B0009000980069002818BF012001B0C3
:0236740070479D
:0A36780081B00090009801B0704787
:0A36840081B00090009801B070477B
:0A36900081B00090009801B070476F
:10369C0080B584B003900291039900910869019060
:1036AC00002008610198884204D1019801680969D9
:1036BC00884705E0019818B1019801684969884765
:0636CC00009804B080BD6F
:0A36D40081B00090009801B070472B
:0A36E00081B00090009801B070471F
:1036EC0080B586B00590049105980290049800F07E
:1036FC000FF800900DF10F000190FDF709FF0298F3
:0E370C000099019AFDF70EFF029806B080BDED
:0A371C0081B00090009801B07047E2
:0A37280081B00090009801B07047D6
:0A37340081B00090012001B0704741
:1037400080B584B0039002910398019000F032F8A4
:06375000019804B080BDE9
:1037580080B584B00390029103980190FFF7E0FFD1
:06376800019804B080BDD1
:1037700080B586B00590049103920598029000F000
:103780001FF8029841F62831C0F20001083140F8D4
:10379000041B01900498FFF7A3FF0090039800F02A
:1037A0001BF8009902460198FDF7EAFE029806B060
:0237B00080BDDA
:0A37B40081B00090009801B070474A
:1037C00081B00090009841F64C31C0F20001083100
:0637D000016001B070472A
:0A37D80081B00090009801B0704726
:1037E40080B582B0019001980090FDF7E5FE009845
:0A37F400082101F0E2FD02B080BDE3
:1038000080B592B01190119804300390FDF79CFFA1
:1038100001460DF143000490FFF792FF0498012147
:103820000091FDF799FF009A049901900BA802906E
:1038300000F0F8F80199029A0DA80890FDF7A2FF90
:10384000089800F0FBF8014603980591FDF7ACFFDE
:10385000049906900DF12B000790FFF77DFF059866
:103860000699079A00F0F4F8089800F011F901465B
:0E3870000898099100F020F9099812B080BD67
:1038800080B586B0059004910598049903910430A1
:103890000190FDF789FF014601980291FDF754FF61
:0E38A000029902460398FEF741F806B080BD7B
:1038B00080B582B0019001980430FEF7D9F802B0CB
:0238C00080BDC9
:1038C40080B586B005900598039004300190FDF70B
:1038D40039FF01460DF113000290FFF72FFF019805
:1038E400FEF7C4F802980399012200F0CFF906B05C
:0238F40080BD95
:0A38F80081B00090009801B0704705
:0639040081B00090FEDE20
:10390C0080B582B000900098FFF702FF014601A835
:0A391C0000F012F8019802B080BD1F
:1039280080B582B00090009800F026F8014601A802
:0A39380000F028F8019802B080BDED
:1039440010B586B005900491059802900498FFF78D
:10395400E3FE044602989DF80D309DF80E209DF874
:103964000F109DF80CC0EE46CEF80440CEF800C00F
:0A397400FDF76AFE029806B010BDD0
:0A39800081B00090009801B070477C
:10398C0010B586B005900491059802900498FFF745
:10399C00F1FF044602989DF80D309DF80E209DF81D
:1039AC000F109DF80CC0EE46CEF80440CEF800C0C7
:0A39BC00FDF76EFE029806B010BD84
:0A39C80081B00090009801B0704734
:1039D40080B586B08DF8171004928DF80F300290E0
:1039E4000298019004A8FDF791FE00F00DF801463D
:0A39F40001980968016006B080BD6B
:0A3A000081B00090009801B07047FB
:0A3A0C0081B00090009801B07047EF
:0A3A180081B00090009801B07047E3
:103A240083B002900191009202980199016000997B
:063A3400416003B0704781
:103A3C0080B582B001900198FDF7C8FE006802B015
:023A4C0080BD3B
:103A500080B586B005900491039205980290FFF717
:103A6000AFFE029841F62831C0F20001083140F85B
:103A7000041B0190049800900398FFF7ADFE009995
:0E3A800002460198FDF7B8FE029806B080BD20
:103A900080B584B0039003980190FDF727FF01469D
:103AA000019809680291FDF721FF01460020086096
:063AB000029804B080BD85
:103AB80080B582B0019001980090002100F0B6F81E
:063AC800009802B080BD71
:0A3AD00081B00090009801B070472B
:0A3ADC0081B00090009801B070471F
:103AE80080B586B0059004910392059802900498D9
:103AF80000F012F80146029800F014F80298043019
:103B08000190039800F01EF80146019800F020F893
:063B1800029806B080BD1A
:0A3B200081B00090009801B07047DA
:103B2C0080B584B003900291039801900298FFF73E
:0E3B3C00F1FF014601980968016004B080BDE8
:0A3B4C0081B00090009801B07047AE
:103B580080B584B003900291039801900298FFF712
:103B6800F1FF02460198116852684260016004B092
:023B780080BD0E
:0A3B7C0081B00090009801B070477E
:0A3B880081B00090009801B0704772
:103B940080B582B00090009800F008F8014601A8B2
:0A3BA40000F00AF8019802B080BD9D
:0A3BB00081B00090009801B070474A
:103BBC0010B586B00590049105980290049C9DF870
:103BCC000D309DF80E209DF80F109DF80CC0EE46A0
:103BDC00CEF80440CEF800C0FDF74CFE029806B0BB
:023BEC0010BD0A
:0A3BF00081B00090009801B070470A
:103BFC0080B586B08DF8171004928DF80F300290B6
:103C0C000298019004A8FDF75DFEFFF7CBFF01467B
:0A3C1C0001980968016006B080BD40
:0A3C280081B00090009801B07047D1
:103C340080B586B00590049105980190FDF754FE77
:103C4400014601980968039104990291FDF74CFE1D
:103C5400014602980860039828B1019800F006F81C
:0A3C64000399FDF749FE06B080BD8C
:103C700080B582B001900198043000F003F802B0E2
:023C800080BD05
:0A3C840081B00090009801B0704775
:103C900080B584B003900291019202980199C90005
:0A3CA0000422FFF753FB04B080BDBF
:103CAC0080B582B00090009800F008F8014601A899
:0A3CBC0000F00AF8019802B080BD84
:0A3CC80081B00090009801B0704731
:103CD40010B586B00590049105980290049C9DF857
:103CE4000D309DF80E209DF80F109DF80CC0EE4687
:103CF400CEF80440CEF800C0FDF770FE029806B07E
:023D040010BDF0
:0A3D080081B00090009801B07047F0
:103D140080B586B00590049103920598FDF7AAFE3C
:103D240002900498FFF768FC01900398FFF76AFC7F
:0E3D340001990246029800F003F806B080BD27
:103D440080B586B0059004910392059800F010F8B0
:103D540002900498FFF750FC01900398FFF752FC7F
:0E3D6400019902460298FDF78DFE06B080BD63
:0A3D740081B00090009801B0704784
:103D800080B584B00390029101920398006800907E
:103D90000020C4F205000022114601F043F840F271
:103DA0000210C4F205000078C006002800D4F6E72F
:103DB00040F6C060C2F20000807800F07F01002071
:103DC000C4F2050001F016F800990220087004B052
:023DD00080BDB4
:0A3DD40081B00090009801B0704724
:0E3DE00081B0009000980021016101B0704791
:103DF00080B540F29870C2F20000FDF735FB28B1A3
:0E3E000040F29870C2F20000FDF736FB80BD64
:103E100080B540F29870C2F200001830FDF724FB24
:103E200030B140F29870C2F200001830FDF724FB68
:023E300080BD53
:103E340080B540F29870C2F200003030FDF712FBFA
:103E440030B140F29870C2F200003030FDF712FB3E
:023E540080BD2F
:103E580080B540F29870C2F200004830FDF700FBD0
:103E680030B140F29870C2F200004830FDF700FB14
:023E780080BD0B
:103E7C0080B540F29870C2F200006030FDF7EEFAA7
:103E8C0030B140F29870C2F200006030FDF7EEFAEB
:023E9C0080BDE7
:103EA00080B540F29870C2F200007830FDF7DCFA7D
:103EB00030B140F29870C2F200007830FDF7DCFAC1
:023EC00080BDC3
:103EC40080B540F29870C2F200009030FDF7CAFA53
:103ED40030B140F29870C2F200009030FDF7CAFA97
:023EE40080BD9F
:103EE80080B540F29870C2F20000A830FDF7B8FA29
:103EF80030B140F29870C2F20000A830FDF7B8FA6D
:023F080080BD7A
:103F0C0080B540F29870C2F20000C030FDF7A6FAFE
:103F1C0030B140F29870C2F20000C030FDF7A6FA42
:023F2C0080BD56
:103F300080B540F29870C2F20000D830FDF794FAD4
:103F400030B140F29870C2F20000D830FDF794FA18
:023F500080BD32
:103F540080B540F29870C2F20000F030FDF782FAAA
:103F640030B140F29870C2F20000F030FDF782FAEE
:023F740080BD0E
:103F780080B540F29870C2F2000000F58470FDF739
:103F88006FFA38B140F29870C2F2000000F5847000
:063F9800FDF76EFA80BD8A
:103FA00080B540F29870C2F2000000F59070FDF705
:103FB0005BFA38B140F29870C2F2000000F59070E0
:063FC000FDF75AFA80BD76
:103FC80080B540F29870C2F2000000F59C70FDF7D1
:103FD80047FA38B140F29870C2F2000000F59C70C0
:063FE800FDF746FA80BD62
:103FF00080B540F29870C2F2000000F5A870FDF79D
:1040000033FA38B140F29870C2F2000000F5A8709F
:06401000FDF732FA80BD4D
:1040180080B540F29870C2F2000000F5B470FDF768
:104028001FFA38B140F29870C2F2000000F5B4707F
:06403800FDF71EFA80BD39
:1040400080B540F29870C2F2000000F5C070FDF734
:104050000BFA38B140F29870C2F2000000F5C0705F
:06406000FDF70AFA80BD25
:1040680080B540F29870C2F2000000F5CC70FDF700
:10407800F7F938B140F29870C2F2000000F5CC7040
:06408800FDF7F6F980BD12
:1040900080B540F29870C2F2000000F5D870FDF7CC
:1040A000E3F938B140F29870C2F2000000F5D87020
:0640B000FDF7E2F980BDFE
:1040B80080B540F29870C2F2000000F5E470FDF798
:1040C800CFF938B140F29870C2F2000000F5E47000
:0640D800FDF7CEF980BDEA
:1040E00080B540F29870C2F2000000F5F070FDF764
:1040F000BBF938B140F29870C2F2000000F5F070E0
:06410000FDF7BAF980BDD5
:1041080080B540F29870C2F2000000F5FC70FDF72F
:10411800A7F938B140F29870C2F2000000F5FC70BF
:06412800FDF7A6F980BDC1
:1041300080B540F29870C2F2000000F50470FDF7FF
:1041400093F938B140F29870C2F2000000F50470A3
:06415000FDF792F980BDAD
:1041580080B540F29870C2F2000000F50A70FDF7D1
:104168007FF938B140F29870C2F2000000F50A7089
:06417800FDF77EF980BD99
:1041800080B540F29870C2F2000000F51070FDF7A3
:104190006BF938B140F29870C2F2000000F510706F
:0641A000FDF76AF980BD85
:1041A80080B540F29870C2F2000000F51670FDF775
:1041B80057F938B140F29870C2F2000000F5167055
:0641C800FDF756F980BD71
:1041D00080B540F29870C2F2000000F51C70FDF747
:1041E00043F938B140F29870C2F2000000F51C703B
:0641F000FDF742F980BD5D
:1041F80080B540F29870C2F2000000F52270FDF719
:104208002FF938B140F29870C2F2000000F5227020
:06421800FDF72EF980BD48
:1042200080B540F29870C2F2000000F52870FDF7EA
:104230001BF938B140F29870C2F2000000F5287006
:06424000FDF71AF980BD34
:1042480080B540F29870C2F2000000F52E70FDF7BC
:1042580007F938B140F29870C2F2000000F52E70EC
:06426800FDF706F980BD20
:1042700080B540F29870C2F2000000F53470FDF78E
:10428000F3F838B140F29870C2F2000000F53470D3
:06429000FDF7F2F880BD0D
:1042980080B540F29870C2F2000000F53A70FDF760
:1042A800DFF838B140F29870C2F2000000F53A70B9
:0642B800FDF7DEF880BDF9
:1042C00080B582B040F29870C2F20000019001986F
:1042D0000090FCF791F8009800F11801084640F2B0
:1042E0009872C2F2000202F5407291420190EED142
:1042F00041F67130C0F2000040F20002C0F200024C
:0A430000002100F0E2FF02B080BDD2
:10430C0082B00190019901200122C0F21002914269
:10431C00009000F0AF82019901200222C0F210023D
:10432C009142009000F0A6820199012040F2001207
:10433C00C0F210029142009000F09C820199012081
:10434C0040F20022C0F210029142009000F09282E2
:10435C000199012040F20042C0F2100291420090FB
:10436C0000F088820199012040F20012C1F2100283
:10437C009142009000F07E820199012040F20022CF
:10438C00C1F210029142009000F074820199012058
:10439C0040F20042C1F210029142009000F06A8299
:1043AC000199012045F60002CFF2000291420090E3
:1043BC0000F060820199012044F20002C1F2100267
:1043CC009142009000F056820199012045F20002C2
:1043DC00C2F210029142009000F04C82019901202F
:1043EC0045F20042CFF200029142009000F042826E
:1043FC00019901200122C2F200029142009000F0CA
:10440C003982019901200222C2F2000291420090ED
:10441C0000F03082019901200422C2F20002914284
:10442C00009000F02782019901200822C2F20002BC
:10443C009142009000F01E82019901201022C2F2DC
:10444C0000029142009000F0158201990120202277
:10445C00C2F200029142009000F00C8201990120FE
:10446C004022C2F200029142009000F003820199B6
:10447C0001208022C2F200029142009000F0FA81E9
:10448C000199012040F20012C2F200029142009008
:10449C0000F0F0810199012040F60902CFF20002F0
:1044AC009142009000F0E6810199012040F60A0249
:1044BC00CFF200029142009000F0DC8101990120C2
:1044CC0040F60B02CFF200029142009000F0D28134
:1044DC000199012040F60C02CFF2000291420090AB
:1044EC0000F0C8810199012040F60D02CFF20002C4
:1044FC009142009000F0BE810199012040F60E021D
:10450C00CFF200029142009000F0B4810199012099
:10451C0040F60F02CFF200029142009000F0AA8107
:10452C000199012040F61002CFF200029142009056
:10453C0000F0A081019901204029009000F09A819F
:10454C0001990120B1F1102F009000F09381019995
:10455C00012044F20002C1F200029142009000F0EE
:10456C0089810199012042F20202CFF200029142AC
:10457C00009000F07F810199012042F20302CFF2FA
:10458C0000029142009000F075810199012042F2E5
:10459C000402CFF200029142009000F06B8101996D
:1045AC00012042F20502CFF200029142009000F08D
:1045BC0061810199012041F20002C1F21002914285
:1045CC00009000F057810199012040F20012C2F2D4
:1045DC0010029142009000F04D810199012044F6A7
:1045EC000002CFF200029142009000F04381019949
:1045FC0001208022C3F200029142009000F03A8127
:10460C000199012045F20002CFF200029142009084
:10461C0000F03081019901201022C3F20002914276
:10462C00009000F0278101990120B1F1101F00903A
:10463C0000F020810199012044F20102CFF2000226
:10464C009142009000F016810199012040F2001275
:10465C00C1F200029142009000F00C8101990120FE
:10466C0040F20022C1F200029142009000F002815F
:10467C00019901201022C1F200029142009000F039
:10468C00F980019901202022C1F200029142009090
:10469C0000F0F0800199012041F60242CFF20002B5
:1046AC009142009000F0E6800199012041F603420E
:1046BC00CFF200029142009000F0DC8001990120C1
:1046CC002022C3F200029142009000F0D3800199A5
:1046DC0001200122C1F210029142009000F0CA8028
:1046EC00019901200222C1F210029142009000F0C7
:1046FC00C180019901200422C1F210029142009064
:10470C0000F0B880019901200822C1F210029142F8
:10471C00009000F0AF800199012040F20442CFF2EA
:10472C0000029142009000F0A5800199012040F216
:10473C000542CFF200029142009000F09B8001995B
:10474C0001200122C1F200029142009000F09280FF
:10475C00019901200222C1F200029142009000F066
:10476C008980019901200422C1F20002914200903B
:10477C0000F080800199012041F60302CFF2000283
:10478C009142009076D00199012041F60402CFF2BB
:10479C000002914200906DD00199012041F6050272
:1047AC00CFF200029142009064D00199012041F6B1
:1047BC000602CFF20002914200905BD001990120D9
:1047CC0041F60702CFF200029142009052D00199BB
:1047DC000120B1F1202F00904CD001990120012231
:1047EC00C2F210029142009044D001990120082994
:1047FC0000903FD00199012041F20002C0F210025A
:10480C009142009036D00199012045F60042CFF23A
:10481C000002914200902DD00199012045F60142F1
:10482C00CFF200029142009024D00199012045F66C
:10483C000242CFF20002914200901BD0019901205C
:10484C0045F60342CFF200029142009012D001993A
:10485C00012045F60442CFF200029142009009D0AB
:10486C0001984AF2FB31C0F6FF710844B0FA80F0AF
:0E487C0040090090009800F0010002B0704763
:10488C0080B582B001900198FFF73AFD38B945F236
:10489C001450C0F2000040F29631FEF773F8019804
:1048AC0000F07040B0F1704F0DD1019901F47F40D0
:1048BC00C008C9B240EA81014CF20002C4F2FC32D9
:1048CC00012088500FE0019881B2C0F3044201FA34
:1048DC0002F2010F41F6E460C0F2000050F8211022
:0A48EC0008681043086002B080BDA8
:1048F80081B08DF803009DF8030040B14EF26001CD
:10490800C4F20F01086840F00060086007E04EF24A
:104918006001C4F20F01086820F00060086001B06F
:024928007047D6
:10492C0080B584B003904EF20000C4F20F00006812
:10493C0010F0E04F0BD04EF20000C4F20F000068F4
:10494C000021C7F2FF010840B0F1805F05D19DF84E
:10495C000F000006002800D523E14EF26002C4F2DD
:10496C000F02106801904EF27001C4F20F0108683A
:10497C000090019840F400600190019820F48000B0
:10498C000190009840F4006000900198106000982D
:10499C0008609DF804008007002804D59DF80C00E1
:1049AC008007002807D59DF80400C00788B39DF840
:1049BC000C00C00768BB039860F003010198084025
:1049CC00019001984EF26001C4F20F0108609DF84D
:1049DC0003000006002809D5009800F0700030286C
:1049EC000ED0009800F07000702809D09DF80300DC
:1049FC000006002809D4019800F03000302804D1BA
:104A0C004FF48050FDF7CEF803E04FF40020FDF793
:104A1C00C9F8019820F4FE600190039800F4FE613F
:104A2C0001980843019000984FF68F71C7F6FF71FB
:104A3C000840009003983021C8F200010140009812
:104A4C0008430090039800F00801009840EAC10068
:104A5C00009001984EF26001C4F20F0108600098BA
:104A6C004EF27001C4F20F0108601020FDF79AF8A5
:104A7C00019820F440500190039800F440510198A3
:104A8C0008430190009820F400500090039800F423
:104A9C0000510098084300904EF25801C4F20F01E7
:104AAC00402008609DF80300000600280CD50098F3
:104ABC004EF27001C4F20F01086001984EF26001D1
:104ACC00C4F20F0108600BE001984EF26001C4F2D1
:104ADC000F01086000984EF27001C4F20F010860DB
:104AEC0001984FF6FC71CFF63F01084001900398F6
:104AFC000321C0F2C0710140019808430190009855
:104B0C0020F0FC500090039800F0FC5100980843F2
:104B1C0000909DF80F004006002810D5019840F435
:104B2C0080000190009820F48000009003980021F0
:104B3C00C4F24001014000980843009003E0009843
:104B4C0020F0804000909DF80D000007002819D43B
:104B5C004FF400400290029860B14EF25000C4F243
:104B6C000F0000684006002800D503E002980138C9
:104B7C000290F0E7019820F400600190009820F476
:104B8C000060009001984EF26001C4F20F010860C1
:104B9C0000984EF27001C4F20F0108601020FDF76E
:064BAC0001F804B080BD19
:104BB4004EF27001C4F20F01086820F480400860CE
:024BC400704738
:104BC80080B582B00190009101980021C4F20501DE
:104BD800884207D042F60770C0F2000040F24B212D
:104BE800FDF7D2FE00984FF2F011C0F2FC01084226
:104BF80007D042F60770C0F200004FF41371FDF7BA
:104C0800C3FE9DF80000000730B1009800F00F02C5
:104C18000199C8881043C8809DF8010010F00E0F54
:104C280007D0009800F460620199088940EA1220D0
:104C380008819DF8030028B19DF803200199C87ADE
:104C48001043C8729DF80200C00718B101990120ED
:104C5800C1F808049DF802008007002805D540F235
:0E4C68004841C4F205010120086002B080BD81
:104C780080B582B00190009101980021C4F205012D
:104C8800884207D042F60770C0F2000040F2573160
:104C9800FDF77AFE009A0199C8889043C880009A67
:104CA8006FF310020199088920EA1240088102B0C6
:024CB80080BDBD
:104CBC0080B582B00190009101980021C4F20501E9
:104CCC00884207D042F60770C0F2000040F27F31F4
:104CDC00FDF758FE009A0199C8881043C880009AC5
:104CEC006FF310020199088940EA1240088102B062
:024CFC0080BD79
:104D000080B582B0019001980021C4F2050188426B
:104D100007D042F60770C0F2000040F2AA31FDF75A
:104D200037FE01984088009001988188009840EAF9
:0A4D300001400090009802B080BD21
:104D3C0080B584B00390029103980021C4F2050160
:104D4C00884207D042F60770C0F2000040F2514191
:104D5C00FDF718FE0298A0B30298102831D00298E3
:104D6C0020282ED0029830282BD00298402828D00A
:104D7C000298502825D00298602822D002987028DA
:104D8C001FD0029880281CD00298902819D0029825
:104D9C00A02816D00298B02813D00298C02810D0A2
:104DAC000298D0280DD00298E0280AD00298F0285A
:104DBC0007D042F60770C0F2000040F25941FDF7EF
:104DCC00E1FD039902980844B0F80201019003999F
:104DDC0002980844B0F80611019840EA014001908D
:064DEC00019804B080BD37
:104DF40080B582B00190009101980021C4F20501B0
:104E0400884207D042F60770C0F2000040F26761A2
:0E4E1400FDF7BCFD00980199087002B080BD4A
:104E240080B584B0039002918DF807200398002187
:104E3400C4F20501884207D042F60770C0F20000B0
:104E440040F6B421FDF7A2FD0298A0B30298102801
:104E540031D0029820282ED0029830282BD00298E6
:104E6400402828D00298502825D00298602822D0C3
:104E7400029870281FD0029880281CD0029890288D
:104E840019D00298A02816D00298B02813D00298FE
:104E9400C02810D00298D0280DD00298E0280AD05B
:104EA4000298F02807D042F60770C0F2000040F6DE
:104EB400BC21FDF76BFD029850B99DF8070000284E
:104EC4004FF0400018BF4820039981F8020108E020
:104ED40003990298014491F8060100F0FE0081F85C
:064EE400060104B080BDD0
:104EEC0080B588B006900591049203930698002132
:104EFC00C4F20501884207D042F60770C0F20000E8
:104F0C004FF43261FDF73EFD0598A0B305981028CB
:104F1C0031D0059820282ED0059830282BD0059814
:104F2C00402828D00598502825D00598602822D0F4
:104F3C00059870281FD0059880281CD005989028BB
:104F4C0019D00598A02816D00598B02813D005982C
:104F5C00C02810D00598D0280DD00598E0280AD08C
:104F6C000598F02807D042F60770C0F2000040F612
:104F7C002831FDF707FD059818B902208DF80700B8
:104F8C0002E001208DF8070006980599084490F876
:104F9C0002019DF807100840000618B14FF0FF30D1
:104FAC00079013E00698059900EB910020300290D1
:104FBC00039848B10498411C049100780299087038
:104FCC00039801380390F3E700200790079808B086
:024FDC0080BD96
:104FE00080B586B004900391029204980021C4F227
:104FF0000501884207D042F60770C0F2000040F673
:105000007331FDF7C5FC0398A0B30398102831D085
:10501000039820282ED0039830282BD003984028BE
:1050200028D00398502825D00398602822D00398D0
:1050300070281FD0039880281CD00398902819D07E
:105040000398A02816D00398B02813D00398C0283E
:1050500010D00398D0280DD00398E0280AD00398E8
:10506000F02807D042F60770C0F2000040F67B310E
:10507000FDF78EFC039868B9049890F80201800748
:10508000002803D54FF0FF30059019E09DF8080087
:1050900001900DE004980399084490F80201C007BC
:1050A00018B14FF0FF3005900AE09DF8090001901B
:1050B00001980499039A114481F802010020059097
:0650C000059806B080BD5A
:1050C60004030904000000000000000000000000C6
:1050D6000E0341006E006400720065007700000058
:1050E6000A0354004500530054003000000000003D
:1050F600100331003200330034003500360037002B
:08510600AFF30080FDF7EDFAA4
:04510E0000207047C6
:0451120000207047C2
:0451160000207047BE
:04511A0000207047BA
:04511E0000207047B6
:0451220000207047B2
:1051260040F6986CC2F2000CDCF800304BB170B55A
:105136000F305C6820F0070E0025744503D1184631
:1051460015E00020704700214A1E0025744588BFDF
:105156000125944280414642186835421CBF1946D3
:10516600224668B1446874451D460346EDD1002DBC
:1051760001680CBFCCF80010296040F808EB70BD40
:105186000029FCD04B68A2EB0E000844A3EB0E02EC
:045196004A60F2E792
:10519A0038B50446013884EA000282424FF0000022
:1051AA000ED969B1E51D6818FFF7B8FF01001FBFE6
:1051BA0068186242104041F0010118BF40F8081D0A
:0851CA00002818BF083038BDB1
:1051D20020B350F8081CCA0718BF21F00100E8B13B
:1051E20010B540F69862C2F200020146D2F800E021
:1051F200BEF1000F51F808CD11D08E45734615D27D
:105202001A461B681C0018BF012401D08B42F7D339
:1052120040F804CD40F8043C11600EE07047116084
:10522200C1F800E01068C0F804C010BD40F804CD19
:10523200012440F804EC116000225CB101EB0C0483
:105242009C4201BFD3F804C004686444046004BFF4
:105252001B680B608E45E8D25368D4188C42E4D1A7
:0C5262000068184450600868106010BD1F
:10526E00EFF3108072B6B0FA80F040F69461C2F29D
:08527E000001400908607047BF
:1052860040F69460C2F20000006800B162B6704752
:1052960010B50446FFF7E8FF2046FFF741FF044636
:0852A600FFF7EEFF204610BDEA
:1052AE0038B50C460546FFF7DBFF28462146FFF7CB
:0C52BE006DFF0446FFF7E0FF204638BDFE
:1052CA0070B540F68866C2F200060C46326805469A
:1052DA008AB11F2A16D840F6E850C2F2000040F8F8
:1052EA00225040F66850C2F2000040F82240501C9A
:1052FA003060002070BD42F67730C0F20000FDF742
:0C530A00BDFB08B1012070BD3268E2E775
:1053160070B582B004460078BFF35F8F08B10024F1
:1053260025E045F26C51C0F2000101A8FDF7B4FC7E
:105336006078810711D540F68C65C2F2000540F60B
:105346009066C2F2000640F00400607028463146BE
:10535600FFF7E4FE60788107F5D401281CBF02211F
:105366006170441E18BF012401A800F003F820460E
:0453760002B070BD54
:10537A0010B5044640F69060C2F20000FFF7C6FE80
:10538A0008B9204610BD216845F26440C0F2000009
:04539A00FDF7E4FB3C
:10539E0040F26C20C2F200000068BFF35F8F7047CE
:0C53AE0042F6AA60C0F20000FDF7D6FB3A
:0453BA00FDF7C4BB7C
:0453BE00FFF7FCBF3A
:1053C20038B50C460546012898BF0125042998BF27
:1053D200042420462946FFF769FF20B9FFF7DEFFC4
:0853E20008B18047F5E738BD72
:0453EA00FDF7ACBB64
:1053EE002F686F6D652F416E647265772F446F6302
:1053FE00756D656E74732F53454747455220456D45
:10540E006265646465642053747564696F205072BC
:10541E006F6A656374732F5374656C6C6172697314
:10542E00576172652F6472697665726C69622F6955
:0B543E006E746572727570742E63004E
:105449002573206661696C656420746F20616371DE
:0B54590075697265206D757465780040
:105464002573206661696C656420746F2072656CB5
:0B54740065617365206D75746578003C
:10547F002573206661696C656420746F2062726F9A
:07548F0061646361737400A6
:105496006261645F616C6C6F63207761732074680E
:1054A600726F776E20696E202D666E6F2D6578633C
:0D54B600657074696F6E73206D6F64650022
:0454C400D1270000EC
:0454C80009290000AE
:0454CC009503000044
:0454D000A91B000014
:0854D400272C00007F2C0000D2
:1054DC006261645F61727261795F6E65775F6C6542
:1054EC006E67746820776173207468726F776E20B2
:1054FC00696E202D666E6F2D657863657074696FAB
:08550C006E73206D6F646500F1
:105514002F686F6D652F416E647265772F446F63DA
:10552400756D656E74732F53454747455220456D1D
:105534006265646465642053747564696F20507295
:105544006F6A656374732F5374656C6C61726973ED
:10555400576172652F6472697665726C69622F7324
:08556400797363746C2E63007F
:10556C005F5F6378615F67756172645F61637175BA
:04557C0069726500EB
:105580005F5F6378615F67756172645F72656C65A8
:0455900061736500DE
:1055940000B506480649884205D00268043003B4C1
:1055A400904703BCF7E708BC18470000C454000048
:0455B400DC540000C3
:1055B800C556000000000020D00E0000D75600009D
:1055C800D00E0020E05500005C010000012700001B
:0855D80095550000F3260000C8
:1055E000DD0881CC05820182CC02820382CC048258
:1055F0008582CC81828282CC838284829B0101015C
:1056000088050201010201880202010302018804E7
:105610000201850201888102018202018883020160
:105620008402019B03010389020305020188010230
:10563000010202018803020104020188850201813E
:10564000020188820201830201B884020105998067
:10565000068106B9820607B980080999810A010BFB
:1056600099820CA101F9210ABB0102992120A121F3
:10567000C92122F13DCC113E353ECC593E7D3ECC78
:10568000A13EC53ECCE93E0D3FCC313F553FCC79E4
:105690003FA13FCCC93FF13FCC19404140CC6940CC
:1056A0009140CCB940E140CC09413141CC594181D4
:1056B00041CCA941D141CCF9412142CC494271426E
:0456C0000C994200FF
:1056C400206861680834002200E04254491EFCD579
:0256D40070471D
:1056D60020686168A2680C340B78491C08260025EE
:1056E6005B0801D20D78491C0570401C521E02D081
:0856F600761EF4D1F0E77047C5
:0400000300005107A1
:00000001FF
