:1000000000600020BF2A0000AB140000391400007B
:10001000031500001F150000371500000000000048
:100020000000000000000000000000004315000078
:100030004F150000000000007F1500008B15000028
:1000400080B5ADF58A5D86B00DF10C0E0EF58650CB
:1000500001900DF1080E0EF58850029001F018FA8B
:1000600001980299016001680DF1100E0EF586509D
:10007000039000F03BF803990DF1080E0EF5875040
:10008000079000F043F8039800F04CF80DF5805EFF
:100090009EF88F100DF1100E0EF58450049000F0B4
:1000A0004BF804990DF1080E0EF58550069000F0FE
:1000B0002DF8049800F036F808A805900DF10E0E02
:1000C0000EF584510DF10D0E0EF5845201F0EEF98E
:1000D000059801F017FA069801F022FA079801F046
:0C00E0001FFA00200DF58A5D06B080BDFF
:1000EC0080B584B0039102900298019003A801F0AE
:1000FC0023FA0146019801F025FA019804B080BD5D
:10010C0080B584B00390029103980190083000F000
:08011C001FF8019804B080BD3A
:1001240080B582B001900198009000F049F80098E1
:0401340002B080BDD8
:1001380080B584B08DF80F100290029801900DF1EF
:100148000F0001F045FE0146019801F047FE0198B5
:0401580004B080BDB2
:10015C0080B584B00390029103980190029900F04D
:08016C0003F8019804B080BD06
:1001740080B584B002900191029800900390019898
:10018400006918B900990020086116E0019908690E
:1001940088420BD1009801F0CDF9009908610198CB
:1001A400006909690268D268904706E0019800690D
:1001B40001688968884700990861039804B080BD84
:1001C40080B584B002900299019103910869884234
:1001D40005D10198006901680969884707E0019819
:1001E400006920B10198006901684969884703984A
:0401F40004B080BD16
:1001F80080B582B001900198009001F0C3F9009891
:0402080002B080BD03
:10020C0080B58AB0089007910692089904910991DB
:10021C0000200861079801F0C1F9B0B106990DF101
:10022C001700019001F0E8F9079801F085F90199A0
:10023C0002900DF11600039001F0EAF9049802996E
:10024C00039A01F0F1F90498006109980AB080BD95
:10025C0080B588B007900691059207980190069892
:10026C0001F06AF901F0F6FA0390059801F024FA0E
:10027C0001F0FEFA014601980291039A029B9DF847
:0C028C00131000F01DF8019808B080BDB0
:1002980080B582B001900198009001F0D3FA0098DF
:0402A80002B080BD63
:1002AC0080B584B0039002910398043001900298B9
:1002BC0001F022FD0146019801F00CFD04B080BD57
:1002CC0080B58AB08DF8271008920793069006988F
:1002DC00009008A801F01CFB0146009809680491E5
:1002EC00049A9DF80F309DF8171001F017FB07A822
:1002FC0001F02AFB0146009809680291029A9DF8C8
:10030C0007309DF80E1000F053F800980AB080BD2D
:10031C0080B584B08C46079906998DF80FC08DF87E
:10032C000E208DF80D308DF80C1002900298019073
:10033C00079801F01FF90146019800F003F80198A5
:04034C0004B080BDBC
:1003500080B584B00390029103980190029801F057
:0C0360000FF901460198016004B080BD57
:10036C0080B584B08C46079906998DF80FC08DF82E
:10037C000E208DF80D308DF80C1002900298019023
:10038C00079801F0A1FA0146019800F003F80198D2
:04039C0004B080BD6C
:1003A00080B584B00390029103980190029801F007
:0C03B00091FA01460198016004B080BD84
:1003BC0080B586B08DF8171004928DF80F3002902E
:1003CC000298019004A800F013F801F0C9FA019802
:0403DC0006B080BD2A
:1003E00080B582B00190019800F002F802B080BDA3
:0C03F00081B000900098006801B07047D8
:1003FC0080B582B00190019800F002F802B080BD87
:0C040C0081B000900098006801B07047BB
:1004180080B582B00190019800F032F802B080BD3A
:1004280080B584B00390029103980299019100F07D
:100438002FF801460198884201D901F0F5FA02988F
:0C044800C000042101F0F8FA04B080BDEF
:1004540080B584B0039002910192039800900198B2
:1004640001F008FB0246009802A901F009FB00987C
:0404740004B080BD93
:1004780080B582B00190019800F03AF802B080BDD2
:1004880080B582B00190019801F0C8FA02B080BD31
:1004980080B582B0019000F003F8C00802B080BDBA
:0804A80080B501F0E1FA80BD0E
:1004B00081B00090009808284FF0000088BF01200C
:0404C00001B07047D0
:1004C40080B582B0019000910198009901F07DF906
:0404D40002B080BD35
:1004D80080B582B00190019801F005F902B080BDA5
:1004E80080B582B00190019801F012FB02B080BD86
:1004F80080B582B00190019801F010FB02B080BD78
:1005080080B588B0079006910592079801900698E3
:1005180001F00AFB0390059801F0D0F801F0AAF960
:10052800014601980291039A029B9DF8131000F06E
:0805380003F8019808B080BD32
:1005400080B58AB08DF82710089207930690069818
:10055000009008A801F01AFB014600980968049170
:10056000049A9DF80F309DF8171001F015FB07A8AD
:1005700001F0F0F90146009809680291029A9DF88D
:1005800007309DF80E10FFF719FF00980AB080BDE4
:1005900080B584B08C46079906998DF80FC08DF808
:1005A0000E208DF80D308DF80C10029002980190FD
:1005B000079801F0CBFA0146019800F003F8019882
:0405C00004B080BD46
:1005C40080B584B00390029103980190029801F0E1
:0C05D400BBFA01460198016004B080BD34
:1005E00080B582B00190019800F002F802B080BDA1
:0C05F00081B000900098006801B07047D6
:1005FC0080B582B00190019801F0DEFA02B080BDA6
:10060C0080B582B001900091019A009910685268EF
:08061C0000F002F802B080BDFD
:1006240080B584B003900291019203980299019AD3
:0806340001F0FAFA04B080BDE8
:10063C0080B584B003900291019203980299019ABB
:08064C0000F00CF804B080BDC1
:1006540080B582B0019000910198009900F00EF8E5
:0406640002B080BDA3
:1006680080B584B003900291019203980299019A8F
:0806780001F0BDF804B080BDE3
:1006800080B582B0019000910198009902F003FBBF
:0406900002B080BD77
:1006940080B584B00390029101920398009000F019
:1006A400F9FF009841F2A831C0F20001083140F886
:1006B400041B0299019A00F003F8009804B080BD6D
:1006C40080B588B007900691059207980190069826
:1006D40001F02CFA0390059801F0CCFA0146019838
:1006E4000291039A029B9DF8131000F003F80198FD
:0406F40008B080BD0D
:1006F80080B58AB08DF8271008920793069006985F
:10070800009008A801F03EFA014600980968049193
:10071800049A9DF80F309DF8171001F039FA07A8D0
:1007280001F0D4FA0146009809680291029A9DF8EE
:1007380007309DF80E1000F02BF800980AB080BD25
:1007480080B584B08C46079906998DF80FC08DF84E
:100758000E208DF80D308DF80C1002900298019043
:10076800079801F093FA0146019800F003F8019800
:0407780004B080BD8C
:10077C0080B584B00390029103980190029801F027
:0C078C0083FA01460198016004B080BDB2
:1007980080B586B08DF8171004928DF80F3002904E
:1007A8000298019004A800F005F801F06FFA01988A
:0407B80006B080BD4A
:1007BC0080B582B00190019800F002F802B080BDC3
:0C07CC0081B000900098006801B07047F8
:0807D80081B0009001B07047F0
:1007E00080B582B00190019801F0F0FA02B080BDAE
:1007F00080B582B001900198009001F011FB009843
:0408000002B080BD05
:1008040080B58AB0089007910692089904910991DD
:1008140000200861079801F007FBB0B106990DF1BB
:100824001700019001F006FB079801F0D3FA019933
:1008340002900DF11600039001F008FB0498029950
:10084400039A01F00FFB0498006109980AB080BD77
:1008540080B588B007900691059207980190069894
:1008640001F0B8FA01F0B6FB0390059801F022FB01
:1008740001F0BEFB014601980291039A029B9DF888
:0C088400131000F01DF8019808B080BDB2
:1008900080B582B001900198009000F0D7FF0098D9
:0408A00002B080BD65
:1008A40080B584B0039002910398043001900298BB
:1008B40001F026FA0146019801F064FD04B080BD00
:1008C40080B58AB08DF82710089207930690069891
:1008D400009008A801F0DCFB014600980968049127
:1008E400049A9DF80F309DF8171000F061F807A8DE
:1008F40001F0D4FB0146009809680291029A9DF820
:1009040007309DF80E1000F065F800980AB080BD1D
:1009140080B584B08C46079906998DF80FC08DF880
:100924000E208DF80D308DF80C1002900298019075
:10093400079801F06DFA0146019800F003F8019858
:0409440004B080BDBE
:1009480080B584B00390029103980190029801F059
:0C0958005DFA01460198016004B080BD0A
:1009640080B584B08C46079906998DF80FC08DF830
:100974000E208DF80D308DF80C1002900298019025
:10098400079801F061FB0146019800F003F8019813
:0409940004B080BD6E
:1009980080B584B00390029103980190029801F009
:0C09A80051FB01460198016004B080BDC5
:1009B40080B586B08DF8171004928DF80F30029030
:1009C4000298019004A800F017F801F06DFB01985B
:0409D40006B080BD2C
:1009D80080B586B08DF8171004928DF80F3002900C
:1009E8000298019004A800F013F801F061FB019847
:0409F80006B080BD08
:1009FC0080B582B00190019800F002F802B080BD81
:0C0A0C0081B000900098006801B07047B5
:100A180080B582B00190019800F002F802B080BD64
:0C0A280081B000900098006801B0704799
:100A340080B582B00190019800F032F802B080BD18
:100A440080B584B00390029103980299019100F05B
:100A54002FF801460198884201D900F0E7FF029877
:0C0A6400C000042100F0EAFF04B080BDD7
:100A700080B584B003900291019203980090019890
:100A800001F07CFB0246009802A901F07DFB009872
:040A900004B080BD71
:100A940080B582B00190019800F01AF802B080BDD0
:100AA40080B582B00190019801F060FB02B080BD76
:100AB40080B582B00190FFF7F5FCC00802B080BD9C
:100AC40080B582B00190019801F0A6FB02B080BD10
:100AD40080B582B00190019801F0A4FB02B080BD02
:100AE40080B588B007900691059207980190069802
:100AF40001F09EFB0390059801F0DCF901F078FA0F
:100B0400014601980291039A029B9DF8131000F08C
:080B140003F8019808B080BD50
:100B1C0080B58AB08DF82710089207930690069836
:100B2C00009008A801F0AEFB0146009809680491FA
:100B3C00049A9DF80F309DF8171000F039F807A8AB
:100B4C0001F0A8FA0146009809680291029A9DF8F2
:100B5C0007309DF80E10FFF739FF00980AB080BDE2
:100B6C0080B584B08C46079906998DF80FC08DF826
:100B7C000E208DF80D308DF80C100290029801901B
:100B8C00079801F05FFB0146019800F003F801980B
:040B9C0004B080BD64
:100BA00080B584B00390029103980190029801F0FF
:0C0BB0004FFB01460198016004B080BDBD
:100BBC0080B586B08DF8171004928DF80F30029026
:100BCC000298019004A800F005F801F03BFB019895
:040BDC0006B080BD22
:100BE00080B582B00190019800F002F802B080BD9B
:0C0BF00081B000900098006801B07047D0
:100BFC0080B582B00190019801F04AFB02B080BD33
:100C0C0080B582B001900091019A009910685268E9
:080C1C0000F002F802B080BDF7
:100C240080B584B003900291019203980299019ACD
:080C340001F066FB04B080BD75
:100C3C0080B584B00390029101920398009000F06B
:100C4C0025FD009841F2F031C0F20001083140F866
:100C5C00041B0299019A00F003F8009804B080BDBF
:100C6C0080B588B007900691059207980190069878
:100C7C0001F0DAFA0390059801F04CFB014601985B
:100C8C000291039A029B9DF8131000F003F801984F
:040C9C0008B080BD5F
:100CA00080B58AB08DF827100892079306900698B1
:100CB000009008A801F0ECFA014600980968049138
:100CC000049A9DF80F309DF81710FFF777FF07A8DB
:100CD00001F054FB0146009809680291029A9DF8C0
:100CE00007309DF80E1000F02BF800980AB080BD78
:100CF00080B584B08C46079906998DF80FC08DF8A1
:100D00000E208DF80D308DF80C1002900298019095
:100D1000079801F013FB0146019800F003F80198D1
:040D200004B080BDDE
:100D240080B584B00390029103980190029801F079
:0C0D340003FB01460198016004B080BD83
:100D400080B586B08DF8171004928DF80F300290A0
:100D50000298019004A800F005F801F0EFFA01985C
:040D600006B080BD9C
:100D640080B582B00190019800F002F802B080BD15
:0C0D740081B000900098006801B070474A
:080D800081B0009001B0704742
:100D880080B582B00190019801F040FB02B080BDAF
:100D980081B0009000984FF40061A0F8001800217D
:100DA800C0F8041840F2FF71C0F80818C0F80C1811
:040DB80001B07047CF
:100DBC0080B584B0039102900298019003A801F0D1
:100DCC0029FB0146019801F02BFB019804B080BD72
:100DDC0080B582B001900198009001F03FFB009823
:040DEC0002B080BD14
:100DF00080B58AB0089007910692089904910991EC
:100E000000200861079801F035FBB0B106990DF19B
:100E10001700019001F034FB079801F001FB0199E4
:100E200002900DF11600039001F036FB0498029930
:100E3000039A01F03DFB0498006109980AB080BD57
:100E400080B588B0079006910592079801900698A2
:100E500001F0E6FA01F0E4FB0390059801F050FB85
:100E600001F0ECFB014601980291039A029B9DF868
:0C0E7000131000F01DF8019808B080BDC0
:100E7C0080B582B001900198009000F0E1FC0098E0
:040E8C0002B080BD73
:100E900080B584B0039002910398043001900298C9
:100EA00000F030FF0146019801F0BEFD04B080BDA6
:100EB00080B58AB08DF8271008920793069006989F
:100EC000009008A801F00AFC014600980968049106
:100ED000049A9DF80F309DF8171001F005FC07A843
:100EE00001F018FC0146009809680291029A9DF8E9
:100EF00007309DF80E1000F053F800980AB080BD3E
:100F000080B584B08C46079906998DF80FC08DF88E
:100F10000E208DF80D308DF80C1002900298019083
:100F2000079801F09BFA0146019800F003F8019838
:040F300004B080BDCC
:100F340080B584B00390029103980190029801F067
:0C0F44008BFA01460198016004B080BDEA
:100F500080B584B08C46079906998DF80FC08DF83E
:100F60000E208DF80D308DF80C1002900298019033
:100F7000079801F08FFB0146019800F003F80198F3
:040F800004B080BD7C
:100F840080B584B00390029103980190029801F017
:0C0F94007FFB01460198016004B080BDA5
:100FA00080B586B08DF8171004928DF80F3002903E
:100FB0000298019004A800F013F801F0B7FB019823
:040FC00006B080BD3A
:100FC40080B582B00190019800F002F802B080BDB3
:0C0FD40081B000900098006801B07047E8
:100FE00080B582B00190019800F002F802B080BD97
:0C0FF00081B000900098006801B07047CC
:100FFC0080B582B00190019800F032F802B080BD4B
:10100C0080B584B00390029103980299019100F08D
:10101C002FF801460198884201D900F003FD02988F
:0C102C00C000042100F006FD04B080BDEF
:1010380080B584B0039002910192039800900198C2
:1010480001F0D2FB0246009802A901F0D3FB0098F8
:0410580004B080BDA3
:10105C0080B582B00190019800F01AF802B080BD02
:10106C0080B582B00190019801F0B6FB02B080BD52
:10107C0080B582B00190FFF711FAC00802B080BDB4
:10108C0080B582B00190019801F0FCFB02B080BDEC
:10109C0080B582B00190019801F0FAFB02B080BDDE
:1010AC0080B588B007900691059207980190069834
:1010BC0001F0F4FB0390059801F01CFA01F0B8FA6A
:1010CC00014601980291039A029B9DF8131000F0BF
:0810DC0003F8019808B080BD83
:1010E40080B58AB08DF82710089207930690069869
:1010F400009008A801F004FC0146009809680491D6
:10110400049A9DF80F309DF8171001F0FFFB07A813
:1011140001F0FEFA0146009809680291029A9DF8CE
:1011240007309DF80E10FFF739FF00980AB080BD14
:1011340080B584B08C46079906998DF80FC08DF858
:101144000E208DF80D308DF80C100290029801904D
:10115400079801F0B5FB0146019800F003F80198E7
:0411640004B080BD96
:1011680080B584B00390029103980190029801F031
:0C117800A5FB01460198016004B080BD99
:1011840080B582B00190019800F002F802B080BDF1
:0C11940081B000900098006801B0704726
:1011A00080B582B00190019801F0C8FB02B080BD0B
:1011B00080B582B001900091019A00991068526840
:0811C00000F002F802B080BD4E
:1011C80080B584B003900291019203980299019A24
:0811D80001F0E4FB04B080BD4E
:1011E00080B584B00390029101920398009000F0C2
:1011F00053FA009841F21441C0F20001083140F85E
:10120000041B0299019A00F003F8009804B080BD15
:1012100080B588B0079006910592079801900698CE
:1012200001F042FB0390059801F0CAFB01460198CA
:101230000291039A029B9DF8131000F003F80198A5
:0412400008B080BDB5
:1012440080B58AB08DF82710089207930690069807
:10125400009008A801F054FB014600980968049125
:10126400049A9DF80F309DF8171001F04FFB07A862
:1012740001F0D2FB0146009809680291029A9DF898
:1012840007309DF80E1000F02BF800980AB080BDCE
:1012940080B584B08C46079906998DF80FC08DF8F7
:1012A4000E208DF80D308DF80C10029002980190EC
:1012B400079801F091FB0146019800F003F80198AA
:0412C40004B080BD35
:1012C80080B584B00390029103980190029801F0D0
:0C12D80081FB01460198016004B080BD5C
:1012E40080B586B08DF8171004928DF80F300290F7
:1012F4000298019004A800F005F801F06DFB019834
:0413040006B080BDF2
:1013080080B582B00190019800F002F802B080BD6B
:0C13180081B000900098006801B07047A0
:0813240081B0009001B0704798
:10132C0080B582B00190019801F0BEFB02B080BD87
:10133C0083B002908DF8071002990091D1F808083B
:10134C000130C1F80808B1F80018884203D300999D
:10135C000020C1F8080800989DF80710D0F808285C
:10136C008154D0F80818D0F80C0888420ED1009996
:10137C00D1F80C080130C1F80C08B1F800188842FB
:10138C0003D300990020C1F80C0805E00099D1F8AE
:0C139C0004080130C1F8040803B07047D9
:1013A800000000000000000099020000D5160000AF
:1013B80005170000A1170000E5170000FD17000041
:0413C800AD02000072
:1013CC0000000000000000004D180000591800003B
:1013DC00872C0000872C0000872C0000872C000035
:0413EC00872C00004A
:1013F000000000000000000091080000C51E000071
:10140000E11E0000611F0000911F0000A51F0000E9
:04141000A50800002B
:1014140000000000000000007D0E00000D2500000B
:1014240029250000A9250000D9250000ED2500008C
:04143400910E000015
:1014380008490A68002AFED41EF0040F0CBFEFF317
:101448000880EFF3098042F000420A6081690231A6
:08145800816170472CED00E0FA
:10146000034C206804348047FBE7FEF7E9FDFEE704
:041470002C2D00001F
:041474000000000074
:1014780003480449091A08B500F0FFF80CBC1847DE
:081488002800002028080020C4
:1014900081B0009000984021A0F8401000214164E4
:0A14A0003F218164C16401B0704770
:0214AA00FEE75B
:1014AC0080B58EB00D900C910B920D980290FFF7B9
:1014BC006DFC029800F50160FFF768FC029841F2A0
:1014CC002801014400910390039904A80190FFF7AF
:1014DC006FFC00980199FEF713FE0198FEF71CFEB5
:1014EC0002980C9941F25C0281500B994FF4835293
:0614FC0081500EB080BD1E
:02150200FEE702
:1015040080B582B001900198009041F2280108440E
:0A15140000F004F8009802B080BD5A
:02151E00FEE7E6
:1015200080B582B00190019800900830FEF7FAFD76
:06153000009802B080BD2E
:02153600FEE7CE
:0A15380081B00090009801B07047E8
:02154200FEE7C2
:0A15440081B00090009801B07047DC
:02154E00FEE7B6
:1015500080B586B00590049105980290049800F03B
:101560000FF800900DF10F000190FEF745FE029874
:0E1570000099019AFEF74AFE029806B080BD6F
:02157E00FEE786
:0A15800081B00090009801B07047A0
:02158A00FEE77A
:0A158C0081B00090009801B0704794
:1015960041F27440C0F200000468204600F006F8EC
:0215A600FBE761
:0A15A80081B00090012001B07047EF
:1015B20080B505281FD840F2000CC2F2000C41F29F
:1015C20077635CF82010C0F200034CF82030A9B118
:1015D20041F23362C0F2000291420CD0994208D02B
:1015E20041F21B63C0F20003994207D04CF820304D
:1015F2008847002008BD4FF0FF3008BD0120FFF7EB
:0216020035FFB2
:1016040080B584B0039002910398019000F032F801
:06161400019804B080BD46
:02161A00704717
:10161C0080B584B00390029103980190FFF7B0FF5E
:06162C00019804B080BD2E
:021632007047FF
:1016340080B586B00590049103920598029000F05D
:1016440029F8029841F2A831C0F20001083140F8AB
:10165400041B01900498FFF773FF0090039800F0B7
:101664002FF8009902460198FEF7F6FD029806B09D
:0216740080BD37
:021676007047BB
:0A16780081B00090009801B07047A7
:10168200082907D340F22002C2F2000210600022B1
:06169200C0E900217047D1
:1016980081B00090009841F2CC31C0F200010831CD
:0616A800016001B0704773
:1016AE0010B5044601F0B2FA204601F061FABDE829
:0616BE00104001F0B7BA74
:0A16C40081B00090009801B070475B
:0616CE00FFF762FFFEE7DA
:1016D40080B582B0019001980090FEF7DBFD009880
:0A16E400082101F0D6FA02B080BD23
:1016EE0080B500F047F800B108BD42F6C640C0F222
:0616FE000000FFF7E5FF0C
:1017040080B592B01190119804300390FEF782FED8
:1017140001460DF143000490FFF772FF0498012184
:101724000091FEF77FFE009A049901900BA80290A5
:1017340000F020F90199029A0DA80890FEF788FE9E
:10174400089800F023F9014603980591FEF792FEEC
:10175400049906900DF12B000790FFF75DFF0598A3
:101764000699079A00F01CF9089800F039F9014627
:0E1774000898099100F048F9099812B080BD5C
:1017820010B50446012898BF0124204601F058FAFA
:0E17920020B901F06FFA08B18047F6E710BDEC
:1017A00080B586B0059004910598049903910430A2
:1017B0000190FEF761FE014601980291FEF72CFEB2
:0E17C000029902460398FEF765FF06B080BD51
:1017CE0080B501F063FA00B108BD42F6C640C0F222
:0617DE000000FFF775FF9B
:1017E40080B582B0019001980430FEF7F3FF02B097
:0217F40080BDB6
:0617F600114601F063BA88
:1017FC0080B586B005900598039004300190FEF7F3
:10180C0005FE01460DF113000290FFF7F5FE01985D
:10181C00FEF7DCFF02980399012200F001FA06B0F2
:02182C0080BD7D
:10182E0050757265207669727475616C2066756E7E
:0E183E006374696F6E2063616C6C65642100D9
:0A184C0081B00090009801B07047D1
:0618580081B00090FEDEED
:1018600080B582B000900098FFF78AFE014601A87B
:0A18700000F012F8019802B080BDEC
:10187C0080B582B00090009800F026F8014601A8CF
:0A188C0000F028F8019802B080BDBA
:1018980010B586B005900491059802900498FFF75A
:1018A8006BFE044602989DF80D309DF80E209DF8B9
:1018B8000F109DF80CC0EE46CEF80440CEF800C0DC
:0A18C800FEF728FD029806B010BDDF
:0A18D40081B00090009801B0704749
:1018E00010B586B005900491059802900498FFF712
:1018F000F1FF044602989DF80D309DF80E209DF8EA
:101900000F109DF80CC0EE46CEF80440CEF800C093
:0A191000FEF72CFD029806B010BD92
:0A191C0081B00090009801B0704700
:1019280080B586B08DF8171004928DF80F300290AC
:101938000298019004A8FEF74FFD00F00DF801464B
:0A19480001980968016006B080BD37
:0A19540081B00090009801B07047C8
:0A19600081B00090009801B07047BC
:0A196C0081B00090009801B07047B0
:1019780083B0029001910092029801990160009948
:06198800416003B070474E
:1019900080B582B001900198FEF7A6FD006802B004
:0219A00080BD08
:1019A40080B586B005900491039205980290FFF7E4
:1019B40071FE029841F2A831C0F20001083140F8EA
:1019C400041B0190049800900398FFF779FE009996
:0E19D40002460198FEF796FD029806B080BD0F
:1019E40080B584B0039003980190FEF705FE01468C
:1019F400019809680291FEF7FFFD01460020086086
:061A0400029804B080BD51
:101A0C0080B582B0019001980090002100F0DAF8C6
:061A1C00009802B080BD3D
:0A1A240081B00090009801B07047F7
:0E1A300042F6F340C0F20000FFF749FE704797
:101A400080B584B0029001910198FEF731FD38B164
:101A50000198009002980099FEF734FD039003E08E
:0E1A60000298FEF739FD0390039804B080BD94
:061A70004FF0FF3070474B
:0A1A780081B00090009801B07047A3
:101A840080B586B00590049103920598029004985D
:101A940000F012F80146029800F014F8029804309D
:101AA4000190039800F01EF80146019800F020F818
:061AB400029806B080BD9F
:0A1ABC0081B00090009801B070475F
:101AC80080B584B003900291039801900298FFF7C3
:0E1AD800F1FF014601980968016004B080BD6D
:0A1AE80081B00090009801B0704733
:101AF40080B584B003900291039801900298FFF797
:101B0400F1FF02460198116852684260016004B016
:021B140080BD92
:0A1B180081B00090009801B0704702
:0A1B240081B00090009801B07047F6
:101B300080B582B00090009800F008F8014601A836
:0A1B400000F00AF8019802B080BD21
:0A1B4C0081B00090009801B07047CE
:101B580010B586B00590049105980290049C9DF8F4
:101B68000D309DF80E209DF80F109DF80CC0EE4624
:101B7800CEF80440CEF800C0FEF706FD029806B085
:021B880010BD8E
:0A1B8C0081B00090009801B070478E
:101B980080B586B08DF8171004928DF80F3002903A
:101BA8000298019004A8FEF717FDFFF7CBFF014646
:0A1BB80001980968016006B080BDC5
:0A1BC40081B00090009801B0704756
:101BD00080B586B00590049105980190FEF70EFD42
:101BE000014601980968039104990291FEF706FDE8
:101BF000014602980860039828B1019800F006F8A1
:0A1C00000399FEF703FD06B080BD56
:101C0C0080B582B001900198043000F003F802B066
:021C1C0080BD89
:0A1C200081B00090009801B07047F9
:101C2C0080B584B003900291019202980199C90089
:0A1C3C00042200F003F804B080BD9C
:101C480080B584B00390029101920198FEF72CFCB4
:101C580038B10198009003980299009AFEF7EAFCBF
:0E1C680003E003980299FEF7F1FC04B080BD82
:101C780080B582B00090009800F008F8014601A8ED
:0A1C880000F00AF8019802B080BDD8
:0A1C940081B00090009801B0704785
:101CA00010B586B00590049105980290049C9DF8AB
:101CB0000D309DF80E209DF80F109DF80CC0EE46DB
:101CC000CEF80440CEF800C0FEF73EFD029806B004
:021CD00010BD45
:0A1CD40081B00090009801B0704745
:101CE00080B584B0039002910398FEF779FD0190CE
:101CF000029800F007F80146019800F009F804B0D6
:021D000080BDA4
:0A1D040081B00090009801B0704714
:101D100080B584B003900291039800F017F8019009
:101D20000298FFF7EFFF0146019800F003F804B0B6
:021D300080BD74
:101D340080B582B00190009101980099097800F073
:061D440009F802B080BDA9
:0A1D4C0081B00090009801B07047CC
:101D580080B582B001908DF80310019800689DF855
:0A1D6800031000F003F802B080BD84
:101D740083B002908DF8071002990091886C0130AD
:101D84008864B1F84010884202D300990020886426
:101D940000989DF80710826C8154816CC06C884255
:101DA4000BD10099C86C0130C864B1F84010884266
:101DB40002D300990020C86403E00099486C013004
:061DC400486403B0704703
:0A1DCC0081B00090009801B070474C
:0A1DD80081B00090009801B0704740
:101DE40080B586B00590049105980290049800F09F
:101DF4000FF800900DF10F000190FEF7F7FC029828
:0E1E04000099019AFEF7FCFC029806B080BD22
:0A1E140081B00090009801B0704703
:0A1E200081B00090009801B07047F7
:0A1E2C0081B00090012001B0704762
:101E380080B584B0039002910398019000F032F8C5
:061E4800019804B080BD0A
:101E500080B584B00390029103980190FFF7E0FFF2
:061E6000019804B080BDF2
:101E680080B586B005900491039205980290FFF71B
:101E78000FFC029841F2F031C0F20001083140F83D
:101E8800041B01900498FFF7A3FF0090039800F04B
:101E98000FF8009902460198FEF7D8FC029806B0A0
:021EA80080BDFB
:0A1EAC0081B00090009801B070476B
:0A1EB80081B00090009801B070475F
:101EC40080B582B0019001980090FEF7DFFC009885
:0A1ED400082100F0DEFE02B080BD20
:101EE00080B592B01190119804300390FEF7A2FDD6
:101EF00001460DF143000490FFF79EFF0498012175
:101F00000091FEF79FFD009A049901900BA80290A2
:101F100000F0D8F80199029A0DA80890FEF7A8FDE4
:101F2000089800F0DBF8014603980591FEF7B2FD32
:101F3000049906900DF12B000790FFF789FF059893
:101F40000699079A00F0D4F8089800F0F1F80146D5
:0E1F50000898099100F000F9099812B080BDC0
:101F600080B586B0059004910598049903910430DA
:101F70000190FEF78FFD014601980291FEF75AFD90
:0E1F8000029902460398FEF759FE06B080BD96
:101F900080B582B0019001980430FEF7F1FE02B0E6
:021FA00080BD02
:101FA40080B586B005900598039004300190FEF743
:101FB4003FFD01460DF113000290FFF73BFF01982E
:101FC400FEF7DCFE02980399012200F099F906B0AD
:021FD40080BDCE
:101FD80080B582B000900098FFF718FF014601A86D
:0A1FE80000F012F8019802B080BD6D
:101FF40080B582B00090009800F026F8014601A850
:0A20040000F028F8019802B080BD3A
:1020100010B586B005900491059802900498FFF7DA
:10202000F9FE044602989DF80D309DF80E209DF8AB
:102030000F109DF80CC0EE46CEF80440CEF800C05C
:0A204000FEF768FC029806B010BD20
:0A204C0081B00090009801B07047C9
:1020580010B586B005900491059802900498FFF792
:10206800F1FF044602989DF80D309DF80E209DF86A
:102078000F109DF80CC0EE46CEF80440CEF800C014
:0A208800FEF76CFC029806B010BDD4
:0A20940081B00090009801B0704781
:0A20A00081B00090009801B0704775
:0A20AC0081B00090009801B0704769
:0A20B80081B00090009801B070475D
:1020C40083B00290019100920298019901600099F5
:0620D400416003B07047FB
:1020DC0080B582B001900198FEF7EEFC006802B06A
:0220EC0080BDB5
:1020F00080B586B005900491039205980290FFF791
:10210000CBFA029841F2F031C0F20001083140F8F8
:10211000041B0190049800900398FFF7CDFE0099EE
:0E21200002460198FEF7DEFC029806B080BD74
:1021300080B584B0039003980190FEF75FFD0146DF
:10214000019809680291FEF759FD014600200860D8
:06215000029804B080BDFE
:1021580080B582B0019001980090002100F0A0F8AD
:06216800009802B080BDEA
:0A21700081B00090009801B07047A4
:0A217C0081B00090009801B0704798
:1021880080B586B005900491039205980290049852
:1021980000F012F80146029800F014F80298043092
:1021A8000190039800F01EF80146019800F020F80D
:0621B800029806B080BD94
:0A21C00081B00090009801B0704754
:1021CC0080B584B003900291039801900298FFF7B8
:0E21DC00F1FF014601980968016004B080BD62
:0A21EC0081B00090009801B0704728
:1021F80080B584B003900291039801900298FFF78C
:10220800F1FF02460198116852684260016004B00B
:0222180080BD87
:0A221C0081B00090009801B07047F7
:0A22280081B00090009801B07047EB
:1022340080B582B00090009800F008F8014601A82B
:0A22440000F00AF8019802B080BD16
:0A22500081B00090009801B07047C3
:10225C0010B586B00590049105980290049C9DF8E9
:10226C000D309DF80E209DF80F109DF80CC0EE4619
:10227C00CEF80440CEF800C0FEF772FC029806B00F
:02228C0010BD83
:0A22900081B00090009801B0704783
:0A229C0081B00090009801B0704777
:1022A80080B586B00590049105980190FEF7A2FCD0
:1022B800014601980968039104990291FEF79AFC76
:1022C800014602980860039828B1019800F006F8C2
:0A22D8000399FEF797FC06B080BDE5
:1022E40080B582B001900198043000F003F802B088
:0222F40080BDAB
:0A22F80081B00090009801B070471B
:1023040080B584B003900291019202980199C900AA
:0A2314000422FFF797FC04B080BD1F
:1023200080B582B00090009800F008F8014601A83E
:0A23300000F00AF8019802B080BD29
:0A233C0081B00090009801B07047D6
:1023480010B586B00590049105980290049C9DF8FC
:102358000D309DF80E209DF80F109DF80CC0EE462C
:10236800CEF80440CEF800C0FEF7BEFC029806B0D6
:0223780010BD96
:0A237C0081B00090009801B0704796
:1023880080B584B0039002910398FEF7F9FC0190A0
:102398000298FFF7B3FC0146019800F003F804B077
:0223A80080BDF6
:1023AC0080B584B003900291039800F017F8019067
:1023BC000298FFF7A1FC0146019800F003F804B065
:0223CC0080BDD2
:1023D00080B582B00190009101980099097800F0D1
:0623E00009F802B080BD07
:0A23E80081B00090009801B070472A
:1023F40080B582B001908DF803109DF803104CF263
:0E2404000000C4F2000000F05CFB02B080BDDE
:0A24140081B00090009801B07047FD
:0A24200081B00090009801B07047F1
:10242C0080B586B00590049105980290049800F050
:10243C000FF800900DF10F000190FEF7C9FC029807
:0E244C000099019AFEF7CEFC029806B080BD02
:0A245C0081B00090009801B07047B5
:0A24680081B00090009801B07047A9
:0A24740081B00090012001B0704714
:1024800080B584B0039002910398019000F032F877
:06249000019804B080BDBC
:1024980080B584B00390029103980190FFF7E0FFA4
:0624A800019804B080BDA4
:1024B00080B586B005900491039205980290FFF7CD
:1024C000EBF8029841F21441C0F20001083140F8E3
:1024D000041B01900498FFF7A3FF0090039800F0FD
:1024E0000FF8009902460198FEF7AAFC029806B080
:0224F00080BDAD
:0A24F40081B00090009801B070471D
:0A25000081B00090009801B0704710
:10250C0080B582B0019001980090FEF7B1FC009864
:0A251C00082100F0BAFB02B080BDF8
:1025280080B592B01190119804300390FEF762FDC7
:1025380001460DF143000490FFF79EFF0498012126
:102548000091FEF75FFD009A049901900BA8029094
:1025580000F0EEF80199029A0DA80890FEF768FDC0
:10256800089800F0F1F8014603980591FEF772FD0E
:10257800049906900DF12B000790FFF789FF059845
:102588000699079A00F0EAF8089800F007F901465A
:0E2598000898099100F016F9099812B080BD5C
:1025A80080B586B00590049105980499039104308C
:1025B8000190FEF74FFD014601980291FEF71AFDC2
:0E25C800029902460398FEF707FE06B080BD9A
:1025D80080B582B0019001980430FEF79FFE02B0EA
:0225E80080BDB4
:1025EC0080B586B005900598039004300190FEF7F5
:1025FC00FFFC01460DF113000290FFF73BFF019821
:10260C00FEF78AFE02980399012200F0C5F906B084
:02261C0080BD7F
:1026200080B582B000900098FFF718FF014601A81E
:0A26300000F012F8019802B080BD1E
:10263C0080B582B00090009800F026F8014601A801
:0A264C0000F028F8019802B080BDEC
:1026580010B586B005900491059802900498FFF78C
:10266800F9FE044602989DF80D309DF80E209DF85D
:102678000F109DF80CC0EE46CEF80440CEF800C00E
:0A268800FEF73AFC029806B010BD00
:0A26940081B00090009801B070477B
:1026A00010B586B005900491059802900498FFF744
:1026B000F1FF044602989DF80D309DF80E209DF81C
:1026C0000F109DF80CC0EE46CEF80440CEF800C0C6
:0A26D000FEF73EFC029806B010BDB4
:0A26DC0081B00090009801B0704733
:1026E80080B586B08DF8171004928DF80F300290DF
:1026F8000298019004A8FEF761FC00F00DF801466D
:0A27080001980968016006B080BD69
:0A27140081B00090009801B07047FA
:0A27200081B00090009801B07047EE
:0A272C0081B00090009801B07047E2
:1027380083B002900191009202980199016000997A
:06274800416003B0704780
:1027500080B582B001900198FEF798FC006802B045
:0227600080BD3A
:1027640080B586B005900491039205980290FEF717
:1027740091FF029841F21441C0F20001083140F87F
:10278400041B0190049800900398FFF7B7FE00998A
:0E27940002460198FEF788FC029806B080BD50
:1027A40080B584B0039003980190FEF7F7FC0146CE
:1027B400019809680291FEF7F1FC014600200860C7
:0627C400029804B080BD84
:1027CC0080B582B0019001980090002100F0B6F81D
:0627DC00009802B080BD70
:0A27E40081B00090009801B070472A
:0A27F00081B00090009801B070471E
:1027FC0080B586B0059004910392059802900498D8
:10280C0000F012F80146029800F014F80298043017
:10281C000190039800F01EF80146019800F020F892
:06282C00029806B080BD19
:0A28340081B00090009801B07047D9
:1028400080B584B003900291039801900298FFF73D
:0E285000F1FF014601980968016004B080BDE7
:0A28600081B00090009801B07047AD
:10286C0080B584B003900291039801900298FFF711
:10287C00F1FF02460198116852684260016004B091
:02288C0080BD0D
:0A28900081B00090009801B070477D
:0A289C0081B00090009801B0704771
:1028A80080B582B00090009800F008F8014601A8B1
:0A28B80000F00AF8019802B080BD9C
:0A28C40081B00090009801B0704749
:1028D00010B586B00590049105980290049C9DF86F
:1028E0000D309DF80E209DF80F109DF80CC0EE469F
:1028F000CEF80440CEF800C0FEF71CFC029806B0EB
:0229000010BD08
:0A29040081B00090009801B0704708
:1029100080B586B08DF8171004928DF80F300290B4
:102920000298019004A8FEF72DFCFFF7CBFF0146AB
:0A29300001980968016006B080BD3F
:0A293C0081B00090009801B07047D0
:1029480080B586B00590049105980190FEF724FCA7
:10295800014601980968039104990291FEF71CFC4D
:10296800014602980860039828B1019800F006F81B
:0A2978000399FEF719FC06B080BDBC
:1029840080B582B001900198043000F003F802B0E1
:0229940080BD04
:0A29980081B00090009801B0704774
:1029A40080B584B003900291019202980199C90004
:0A29B4000422FFF747F904B080BDCC
:1029C00080B582B00090009800F008F8014601A898
:0A29D00000F00AF8019802B080BD83
:0A29DC0081B00090009801B0704730
:1029E80010B586B00590049105980290049C9DF856
:1029F8000D309DF80E209DF80F109DF80CC0EE4686
:102A0800CEF80440CEF800C0FEF740FC029806B0AD
:022A180010BDEF
:0A2A1C0081B00090009801B07047EF
:102A280080B584B0039002910398FEF77BFC019077
:102A38000298FFF763F90146019800F003F804B023
:022A480080BD4F
:102A4C0080B584B003900291039800F017F80190C0
:102A5C000298FFF751F90146019800F003F804B011
:022A6C0080BD2B
:102A700080B582B00190009101980099097800F02A
:062A800009F802B080BD60
:0A2A880081B00090009801B0704783
:102A940080B582B001908DF803100198006800F5AC
:0E2AA40001609DF80310FEF747FC02B080BDF4
:0A2AB40081B00090009801B0704757
:082ABE00AFF30080FEF7CDFC30
:0C2AC600836913F0200FFBD10160704702
:102AD20040F2200CC2F2000CDCF800304BB170B5B1
:102AE2000F305C6820F0070E0025744503D11846AC
:102AF20015E00020704700214A1E0025744588BF5A
:102B02000125944280414642186835421CBF19464D
:102B1200224668B1446874451D460346EDD1002D36
:102B220001680CBFCCF80010296040F808EB70BDBA
:102B32000029FCD04B68A2EB0E000844A3EB0E0266
:042B42004A60F2E70C
:102B460038B50446013884EA000282424FF000009C
:102B56000ED969B1E51D6818FFF7B8FF01001FBF60
:102B660068186242104041F0010118BF40F8081D84
:082B7600002818BF083038BD2B
:102B7E0020B350F8081CCA0718BF21F00100E8B1B5
:102B8E0010B540F22002C2F200020146D2F800E077
:102B9E00BEF1000F51F808CD11D08E45734615D2F7
:102BAE001A461B681C0018BF012401D08B42F7D3B4
:102BBE0040F804CD40F8043C11600EE070471160FF
:102BCE00C1F800E01068C0F804C010BD40F804CD94
:102BDE00012440F804EC116000225CB101EB0C04FE
:102BEE009C4201BFD3F804C004686444046004BF6F
:102BFE001B680B608E45E8D25368D4188C42E4D122
:0C2C0E000068184450600868106010BD99
:102C1A00EFF3108072B6B0FA80F040F21C01C2F2F3
:082C2A00000140090860704739
:102C320040F21C00C2F20000006800B162B67047A8
:102C420010B50446FFF7E8FF2046FFF741FF0446B0
:082C5200FFF7EEFF204610BD64
:102C5A0038B50C460546FFF7DBFF28462146FFF745
:0C2C6A006DFF0446FFF7E0FF204638BD78
:102C760040F21800C2F200000068BFF35F8F704791
:0C2C860041F62E00C0F20000FEF71EFD1B
:042C9200FEF70CBD80
:042C9600FFF7FCBF89
:102C9A0038B50C460546012898BF0125042998BF76
:102CAA00042420462946FFF7D3FF20B9FFF7DEFFA9
:082CBA0008B18047F5E738BDC1
:042CC200FEF7F4BC69
:102CC6006261645F616C6C6F632077617320746806
:102CD600726F776E20696E202D666E6F2D65786334
:0D2CE600657074696F6E73206D6F6465001A
:102CF3006261645F61727261795F6E65775F6C6553
:102D03006E67746820776173207468726F776E20C2
:102D1300696E202D666E6F2D657863657074696FBB
:082D23006E73206D6F64650002
:102D2C00412D000000000020240000007914000058
:042D3C006B14000014
:102D4000206861680834002200E04254491EFCD526
:022D50007047CA
:0400000300002ABF10
:00000001FF
