:10000000006000209F2D0000FF150000C1110000BE
:100010000B160000431600004F1600000000000001
:100020000000000000000000000000006F1600004B
:10003000C716000000000000E3160000FB160000D9
:1000400081B080B589B002910B9308900791069218
:100050000BA80590069804900598011D059100686D
:10006000039040F63500C2F200000078202800DB43
:1000700023E0029801F0BEFA014640F63500C2F2D4
:1000800000000190007800EB400240F20040C2F214
:10009000000000EBC20000F015F8019A04980399E3
:1000A000137840F63802C2F2000252F8232001F021
:1000B0006CFB019908780130087009B0BDE88040F8
:0400C00001B07047D4
:1000C40080B584B00390029103980190029801F0E6
:1000D40095FA0146019800F003F8019804B080BD38
:1000E40080B584B00390029103980190002101F03F
:1000F4008BFA0298006918B901990020086116E08A
:100104000299086988420BD1019801F099FA019982
:1001140008610298006909690268D268904706E09C
:100124000199029800690861029900200861019808
:0401340004B080BDD6
:0C0138000000000000000000410000007A
:1001440080B5ADF5875D86B00DF1180E0EF58350C0
:10015400009000F019F800980021039101F076FA5C
:10016400039902460098019201F070FA019902463F
:1001740004A8029001F07AFA029801F0A3FA039815
:080184000DF5875D06B080BD9A
:10018C00F0B595B014901498049000F0A5F804986C
:10019C00043001220392114601F0AAFA04990620B8
:1001AC00087541F27803C0F200030CA90A4693E8E3
:1001BC00F05082E8F050129113901298139900F0BD
:1001CC009BF803990246049882611C300A2201F0C4
:1001DC008FFA049803992C30642201F089FA049860
:1001EC0003993C304FF47A7201F082FA0498039927
:1001FC004C3042F2107201F07BFA049803995C3097
:10020C0048F2A062C0F2010201F072FA049803995C
:10021C006C3044F24022C0F20F0201F069FA0499EA
:10022C00002081F87C000120C1F2100001F032F8AE
:10023C000020C4F203000290FF21009101F079FA32
:10024C000298222102F0A9FD00990298049A926862
:10025C0001F083FA04980590059906A8019000F026
:10026C0061F80498009B0199029AFFF7E3FE01984C
:10027C0000F068F80298039902F0A7FD0298039920
:10028C0002F09FFD0399049880F87C1015B0F0BD26
:10029C0080B582B001900198009000F003F80098AE
:0402AC0002B080BD5F
:1002B00080B584B002900299019103910869884247
:1002C00005D10198006901680969884707E001982C
:1002D000006920B10198006901684969884703985D
:0402E00004B080BD29
:1002E40080B582B001900198009001F02FFA009837
:1002F40040F23811C0F200010831016002B080BD43
:1003040080B586B00591049004A8019000F03CF8F3
:1003140001460198029101F02DFA014602989DF8D8
:0C0324000F2000F023F8006806B080BD38
:1003300080B584B0039102900298019003A801F067
:100340007BFA0146019801F0A5FA019804B080BD3E
:1003500080B582B001900198009000F025FB0098D4
:0403600002B080BDAA
:0C03640083B002900191009203B070473A
:1003700080B584B08DF80F20029001910298019908
:0C0380000DF10F0201F01EFA04B080BD68
:0C038C0081B000900098006801B070473C
:1003980080B582B001900198009001F0ABFA009806
:0403A80002B080BD62
:1003AC0080B58AB00890079106920899049109913A
:1003BC0000200861079801F0A1FAB0B106990DF17F
:1003CC001700019001F0A0FA079801F02FFA01999B
:1003DC0002900DF11600039001F0A2FA0498029914
:1003EC00039A01F0B3FA0498006109980AB080BD31
:1003FC0080B588B0079006910592079801900698F1
:10040C0001F014FA01F002FC0390059801F0F8FADF
:10041C0001F00AFC014601980291039A029B9DF897
:0C042C00131000F00DF8019808B080BD1E
:1004380080B582B001900198009001F0DFFB009830
:0404480002B080BDC1
:10044C0080B58AB08DF8271008920793069006980D
:10045C00009008A801F038FC014600980968049146
:10046C00049A9DF80F309DF8171001F033FC07A883
:10047C0001F046FC0146009809680291029A9DF829
:10048C0007309DF80E1000F053F800980AB080BDAC
:10049C0080B584B08C46079906998DF80FC08DF8FD
:1004AC000E208DF80D308DF80C10029002980190F2
:1004BC00079801F013FA0146019800F003F801982F
:0404CC0004B080BD3B
:1004D00080B584B00390029103980190029801F0D6
:0C04E00003FA01460198016004B080BDE1
:1004EC0080B584B08C46079906998DF80FC08DF8AD
:1004FC000E208DF80D308DF80C10029002980190A2
:10050C00079801F0BDFB0146019800F003F8019833
:04051C0004B080BDEA
:1005200080B584B00390029103980190029801F085
:0C053000ADFB01460198016004B080BDE5
:10053C0080B586B08DF8171004928DF80F300290AC
:10054C000298019004A800F013F801F0E5FB019863
:04055C0006B080BDA8
:1005600080B582B00190019800F002F802B080BD21
:0C05700081B000900098006801B0704756
:10057C0080B582B00190019800F002F802B080BD05
:0C058C0081B000900098006801B070473A
:1005980080B582B00190019800F032F802B080BDB9
:1005A80080B584B00390029103980299019100F0FC
:1005B8002FF801460198884201D901F011FC0298F0
:0C05C800C000042101F014FC04B080BD50
:1005D40080B584B003900291019203980090019831
:1005E40001F024FC0246009802A901F025FC0098C1
:0405F40004B080BD12
:1005F80080B582B00190019800F03AF802B080BD51
:1006080080B582B00190019801F0E4FB02B080BD92
:1006180080B582B0019000F003F8C00802B080BD38
:0806280080B501F0FDFB80BD6F
:1006300081B00090009808284FF0000088BF01208A
:0406400001B070474E
:1006440080B582B0019000910198009901F047FAB9
:0406540002B080BDB3
:1006580080B582B00190019801F0D9F902B080BD4F
:1006680080B582B00190019801F02EFC02B080BDE7
:1006780080B582B00190019801F02CFC02B080BDD9
:1006880080B588B007900691059207980190069862
:1006980001F026FC0390059801F0B4F901F0C6FAC0
:1006A800014601980291039A029B9DF8131000F0ED
:0806B80003F8019808B080BDB1
:1006C00080B58AB08DF82710089207930690069897
:1006D000009008A801F036FC0146009809680491D2
:1006E000049A9DF80F309DF8171001F031FC07A80F
:1006F00001F00CFB0146009809680291029A9DF8EE
:1007000007309DF80E10FFF719FF00980AB080BD62
:1007100080B584B08C46079906998DF80FC08DF886
:100720000E208DF80D308DF80C100290029801907B
:10073000079801F0E7FB0146019800F003F80198E3
:0407400004B080BDC4
:1007440080B584B00390029103980190029801F05F
:0C075400D7FB01460198016004B080BD95
:1007600080B582B00190019800F002F802B080BD1F
:0C07700081B000900098006801B0704754
:10077C0080B582B00190019801F0FAFB02B080BD07
:10078C0080B582B001900091019A0099106852686E
:08079C0000F002F802B080BD7C
:1007A40080B584B003900291019203980299019A52
:0807B40001F016FC04B080BD49
:1007BC0080B584B003900291019203980299019A3A
:0807CC0000F00CF804B080BD40
:1007D40080B582B0019000910198009900F00EF864
:0407E40002B080BD22
:1007E80080B584B003900291019203980299019A0E
:0807F80001F095F904B080BD89
:1008000080B582B0019000910198009902F0EDFB53
:0408100002B080BDF5
:1008140080B584B00390029101920398009001F096
:10082400CDF8009841F29C01C0F20001083140F873
:10083400041B0299019A00F003F8009804B080BDEB
:1008440080B588B0079006910592079801900698A4
:1008540001F048FB0390059801F0E8FB014601987C
:100864000291039A029B9DF8131000F003F801987B
:0408740008B080BD8B
:1008780080B58AB08DF827100892079306900698DD
:10088800009008A801F05AFB0146009809680491F5
:10089800049A9DF80F309DF8171001F055FB07A832
:1008A80001F0F0FB0146009809680291029A9DF850
:1008B80007309DF80E1000F02BF800980AB080BDA4
:1008C80080B584B08C46079906998DF80FC08DF8CD
:1008D8000E208DF80D308DF80C10029002980190C2
:1008E800079801F0AFFB0146019800F003F8019862
:0408F80004B080BD0B
:1008FC0080B584B00390029103980190029801F0A6
:0C090C009FFB01460198016004B080BD13
:1009180080B586B08DF8171004928DF80F300290CC
:100928000298019004A800F005F801F08BFB0198EB
:0409380006B080BDC8
:10093C0080B582B00190019800F002F802B080BD41
:0C094C0081B000900098006801B0704776
:0809580081B0009001B070476E
:1009600080B582B00190019800F00EF800F002F816
:0409700002B080BD94
:1009740080B582B00190019801F08CFB00F00AF878
:0409840002B080BD80
:1009880080B582B00190019801F0E6FB02B080BD0D
:1009980080B582B00190019801F080FB02B080BD63
:1009A80080B584B002900299019103910869884248
:1009B80005D10198006901680969884707E001982D
:1009C800006920B10198006901684969884703985E
:0409D80004B080BD2A
:0C09DC0081B0009000980C3001B0704712
:1009E80081B0009000984FF40061A0F80018002131
:1009F800C0F8041840F2FF71C0F80818C0F80C18C5
:040A080001B0704782
:100A0C0080B584B0039102900298019003A801F084
:100A1C00A7FB0146019801F0A9FB019804B080BD29
:100A2C0080B584B00390029103980190083000F0D7
:080A3C00E9FA019804B080BD45
:100A440080B582B001900198009001F0B1FB00984C
:040A540002B080BDAF
:100A580080B58AB008900791069208990491099187
:100A680000200861079801F0A7FBB0B106990DF1C5
:100A78001700019001F0A6FB079801F073FB01999C
:100A880002900DF11600039001F0A8FB049802995A
:100A9800039A01F0AFFB0498006109980AB080BD81
:100AA80080B588B00790069105920798019006983E
:100AB80001F058FB01F06CFC0390059801F0CEFBA7
:100AC80001F074FC014601980291039A029B9DF87B
:0C0AD800131000F01DF8019808B080BD5C
:100AE40080B582B001900198009001F049FC009813
:040AF40002B080BD0F
:100AF80080B584B003900291039804300190029865
:100B080001F05CFE0146019801F046FE04B080BD8C
:100B180080B58AB08DF8271008920793069006983A
:100B2800009008A801F092FC014600980968049119
:100B3800049A9DF80F309DF8171001F08DFC07A856
:100B480001F0A0FC0146009809680291029A9DF8FC
:100B580007309DF80E1000F053F800980AB080BDD9
:100B680080B584B08C46079906998DF80FC08DF82A
:100B78000E208DF80D308DF80C100290029801901F
:100B8800079801F00DFB0146019800F003F8019861
:040B980004B080BD68
:100B9C0080B584B00390029103980190029801F003
:0C0BAC00FDFA01460198016004B080BD14
:100BB80080B584B08C46079906998DF80FC08DF8DA
:100BC8000E208DF80D308DF80C10029002980190CF
:100BD800079801F017FC0146019800F003F8019806
:040BE80004B080BD18
:100BEC0080B584B00390029103980190029801F0B3
:0C0BFC0007FC01460198016004B080BDB8
:100C080080B586B08DF8171004928DF80F300290D9
:100C18000298019004A800F013F801F03FFC019835
:040C280006B080BDD5
:100C2C0080B582B00190019800F002F802B080BD4E
:0C0C3C0081B000900098006801B0704783
:100C480080B582B00190019800F002F802B080BD32
:0C0C580081B000900098006801B0704767
:100C640080B582B00190019800F032F802B080BDE6
:100C740080B584B00390029103980299019100F029
:100C84002FF801460198884201D901F0ABF8029887
:0C0C9400C000042101F0AEF804B080BDE7
:100CA00080B584B00390029101920398009001985E
:100CB00001F05AFC0246009802A901F05BFC009882
:040CC00004B080BD3F
:100CC40080B582B00190019800F01AF802B080BD9E
:100CD40080B582B00190019801F03EFC02B080BD65
:100CE40080B582B00190FFF79DFCC00802B080BDC2
:100CF40080B582B00190019801F084FC02B080BDFF
:100D040080B582B00190019801F082FC02B080BDF0
:100D140080B588B0079006910592079801900698CF
:100D240001F07CFC0390059801F09AFA01F040FB75
:100D3400014601980291039A029B9DF8131000F05A
:080D440003F8019808B080BD1E
:100D4C0080B58AB08DF82710089207930690069804
:100D5C00009008A801F08CFC0146009809680491E9
:100D6C00049A9DF80F309DF8171001F087FC07A826
:100D7C0001F086FB0146009809680291029A9DF8E1
:100D8C0007309DF80E10FFF739FF00980AB080BDB0
:100D9C0080B584B08C46079906998DF80FC08DF8F4
:100DAC000E208DF80D308DF80C10029002980190E9
:100DBC00079801F03DFC0146019800F003F80198FA
:040DCC0004B080BD32
:100DD00080B584B00390029103980190029801F0CD
:0C0DE0002DFC01460198016004B080BDAC
:100DEC0080B582B00190019800F002F802B080BD8D
:0C0DFC0081B000900098006801B07047C2
:100E080080B582B00190019801F050FC02B080BD1D
:100E180080B582B001900091019A009910685268DB
:080E280000F002F802B080BDE9
:100E300080B584B003900291019203980299019ABF
:080E400001F06CFC04B080BD60
:100E480080B584B00390029101920398009001F05C
:100E5800F9F9009841F2E401C0F20001083140F8C4
:100E6800041B0299019A00F003F8009804B080BDB1
:100E780080B588B00790069105920798019006986A
:100E880001F0CAFB0390059801F052FC0146019855
:100E98000291039A029B9DF8131000F003F8019841
:040EA80008B080BD51
:100EAC0080B58AB08DF827100892079306900698A3
:100EBC00009008A801F0DCFB014600980968049139
:100ECC00049A9DF80F309DF8171001F0D7FB07A876
:100EDC0001F05AFC0146009809680291029A9DF8AB
:100EEC0007309DF80E1000F02BF800980AB080BD6A
:100EFC0080B584B08C46079906998DF80FC08DF893
:100F0C000E208DF80D308DF80C1002900298019087
:100F1C00079801F019FC0146019800F003F80198BC
:040F2C0004B080BDD0
:100F300080B584B00390029103980190029801F06B
:0C0F400009FC01460198016004B080BD6E
:100F4C0080B586B08DF8171004928DF80F30029092
:100F5C000298019004A800F005F801F0F5FB019847
:040F6C0006B080BD8E
:100F700080B582B00190019800F002F802B080BD07
:0C0F800081B000900098006801B070473C
:080F8C0081B0009001B0704734
:100F940080B582B00190019801F04CFC02B080BD94
:100FA40083B002908DF8071002990091D1F80808D7
:100FB4000130C1F80808B1F80018884203D3009939
:100FC4000020C1F8080800989DF80710D0F80828F8
:100FD4008154D0F80818D0F80C0888420ED1009932
:100FE400D1F80C080130C1F80C08B1F80018884297
:100FF40003D300990020C1F80C0805E00099D1F84A
:0C10040004080130C1F8040803B0704774
:1010100080B584B00390029103980190029900F08A
:0810200003F8019804B080BD43
:1010280080B584B0029001910298009003900198D5
:10103800006918B900990020086116E0019908694B
:1010480088420BD1009801F0F9FB009908610198DA
:10105800006909690268D268904706E0019800694A
:1010680001688968884700990861039804B080BDC1
:101078000A00000064000000E803000010270000D8
:08108800A086010040420F00A8
:0C109000000000000000000065030000EC
:10109C000000000000000000390400002D1A0000C0
:1010AC00651A0000F91A00002D1B00005D1B0000E2
:0410BC00F11B000024
:1010C0000000000000000000051C0000111C0000D2
:1010D000DB2F0000DB2F0000DB2F0000DB2F0000E8
:0410E000DB2F000002
:1010E4000000000000000000E50A0000712200007A
:1010F4008D2200000D2300003D2300005123000039
:04110400F90A0000E4
:10110800000000000000000085230000912300007B
:10111800DB2F0000DB2F0000DB2F0000DB2F00009F
:04112800DB2F0000B9
:10112C0080B582B00190019801F01AFE02B080BD2A
:10113C0080B582B00190019800F028F802B080BD13
:10114C0080B582B001900198009001F01BFE0098D0
:04115C0002B080BDA0
:1011600080B584B0039040F20040C2F2000000F568
:101170004070029002981838019001460091FFF7E4
:10118000E7F80098019940F20042C2F20002914251
:081190000290EFD104B080BD14
:1011980080B582B0019001980090006908B901F00B
:1011A800EBFD0098006901688969884702B080BD35
:0811B80080B501F0B1FD80BD1E
:1011C00008490A68002AFED41EF0040F0CBFEFF392
:1011D0000880EFF3098042F000420A608169023121
:0811E000816170472CED00E075
:1011E800034C206804348047FBE7FEF7A7FFFEE7BF
:0411F8007C30000047
:1011FC00094B0A4A70B51C689442144609D01D6804
:10120C0000235E59E6500433B3F51B7FF9D1024B32
:10121C001A6044F8201070BD08ED00E000000020BA
:10122C00042804D1134B1A6842F4803205E00528D7
:10123C0005D1104B1A6842F400321A607047062828
:10124C0004D10C4B1A6842F48022F6E70F2804D123
:10125C00094B1A6842F00202EFE70AD91038074B23
:10126C00420953F8223000F01F00012212FA00F05C
:10127C001860704724ED00E010E000E08C120000D4
:10128C0000E100E004E100E008E100E00CE100E036
:04129C0010E100E07D
:1012A00000F07043B3F1704F15D100F47F42114B41
:1012B000120A00F0FF00D318800003F0704240F0E3
:1012C000007023F07F43104323F4700340EA43137C
:1012D00001221A607047020F81B200F4F810000C6E
:1012E00011FA00F0044B53F822301A6810431860CA
:0C12F000704700BF00E60F4044150000EE
:1012FC00694B70B51A6810331B68002BB4BF03F030
:10130C00700102F0300120293AD004D869B11029BB
:10131C0040F0C08010E060295DD0702958D0302991
:10132C0040F0B88047F2305063E002F4F8605B495B
:10133C00800951F820005CE05949086810F0E04F32
:10134C004CD00C68574804EA0000B0F1805F45D0DF
:10135C000C68544804EA0000534CA04203D10968BD
:10136C0089B202293CD04E484E49046804EA010176
:10137C004E4CA14236D100684D4980B24D4C22E012
:10138C004749086810F0E04F2ED00C68454804EA35
:10139C000000B0F1805F27D00C68424804EA0000DE
:1013AC00414CA04203D1096889B202291ED03C48A5
:1013BC003C49046804EA01013C4CA14218D1006884
:1013CC003D493E4C80B200280CBF2046084610E038
:1013DC004FF400400DE04FF480000AE0384808E07C
:1013EC00344806E0324804E0364802E0334800E076
:1013FC003148002B02DA13F4006F01E012F4006F95
:10140C002AD13149264D09682C6814F0E04F43F677
:10141C00E07401EA040406D02E68224D06EA0505A4
:10142C00B5F1805F06D16409023401F01F056043F9
:10143C00023505E06409604301F01F0501356D00BC
:10144C00B0FBF5F011F4804F18BF400811F4004FB9
:10145C0018BF800842F4800212F4800F1BD0002BBE
:10146C0011DA13F0804F07D013F4006F04D103F09E
:10147C00FE5340009B0D02E003F0FC53DB0D0133E7
:10148C00B0FBF3F070BD02F0F062D20D0132B0FB94
:10149C00F2F070BD002070BD60E00F40D814000069
:1014AC0000E00F400000FF7000000110000003106E
:1014BC000024F400001BB70000093D00C0C62D003D
:0C14CC00C0E1E4007038390064E00F401B
:1014D80040420F0000201C0080841E000080250070
:1014E800999E36000040380000093D0000803E000B
:1014F80000004B00404B4C0000204E00808D5B00EC
:1015080000C05D000080700000127A0000007D00BD
:1015180080969800001BB7000080BB00C0E8CE0092
:10152800647ADA000024F4000000FA0080A81201AE
:0C153800002D310100366E0140787D016D
:0C15440000E10F4004E10F4008E10F40FF
:1015500010B50023074AD90052F83340844202D123
:101560005218506810BD01330C2BF3D14FF0FF30EF
:0815700010BD00BF781500005A
:101578000000034023000000001003402500000085
:101588000020034027000000003003403300000023
:101598000040034056000000005003406C0000006B
:1015A800006003406E0000000070034070000000FF
:1015B80000C004407200000000D004407400000025
:1015C80000E004407600000000F0044078000000CD
:0415D800000000000F
:1015DC0003480449091A08B500F0ADF90CBC1847CA
:0815EC00B8080020B81000202F
:0A15F40081B00090009801B070472C
:0215FE00FEE706
:0A16000081B00090009801B070471F
:02160A00FEE7F9
:10160C0080B584B003900291039900910869019010
:10161C00002008610198884204D101980168096989
:10162C00884705E0019818B1019801684969884715
:06163C00009804B080BD1F
:02164200FEE7C1
:0A16440081B00090009801B07047DB
:02164E00FEE7B5
:1016500080B582B001908DF8031001989DF80310B9
:0E16600000EB01101C30FFF7B9F902B080BD9D
:02166E00FEE795
:1016700080B58EB00D900C910B920D980290FFF7F3
:10168000B3F9029800F50160FFF7AEF9029841F254
:101690002801014400910390039904A80190FFF7E9
:1016A000B5F900980199FFF7C1F90198FEF7F6FD29
:1016B00002980C9941F25C0281500B994FF48352CD
:0616C00081500EB080BD58
:0216C600FEE73D
:1016C80080B582B001900198009041F22801084449
:0A16D80000F004F8009802B080BD95
:0216E200FEE721
:1016E40080B582B00190019800900830FEF7D4FDD7
:0616F400009802B080BD69
:0216FA00FEE709
:1016FC0080B584B0039002910192039900910198F6
:10170C000860FFF7F5FD014600984DF68362C4F2C0
:10171C001B32A1FB0221890C029A51430139416011
:10172C000199029AB1FBF2F181600021017304B0BE
:02173C0080BD6E
:10173E00C26840F2011301EA030322EA0303C36005
:02174E007047E2
:1017500081B00090009841F29001C0F20001083180
:06176000016001B07047BA
:1017660011F0FF0F18BF826211F47F4F18BFC262DB
:021776007047BA
:1017780081B0009000990868496800EB810001B0C9
:021788007047A8
:10178A0070B50C461546FFF7DEFE14F0FF0F06464D
:10179A0005D02946FFF72DFD3046FFF742FD14F428
:1017AA007F4F09D0741C20462946FFF722FD2046A8
:0A17BA00BDE87040FFF735BD70BDBB
:1017C40080B584B0039002910192039802998842F3
:1017D40010D0039800900098043000900299884239
:1017E40008D001980399009A00F00CF808B1009809
:0A17F4000390F0E7039804B080BDF5
:0A17FE0009B1006A7047C069704726
:1018080083B00290019100920198006800990968DC
:0E18180088424FF0000038BF012003B0704737
:1018260041F2D850C0F200000468204600F006F8E5
:02183600FBE7CE
:0A18380081B00090009801B07047E5
:1018420080B505281FD840F6000CC2F2000C41F604
:101852002B135CF82010C0F200034CF82030A9B121
:1018620041F61312C0F2000291420CD0994208D004
:1018720041F60713C0F20003994207D04CF820301A
:101882008847002008BD4FF0FF3008BD0120FFF758
:02189200B1FCA7
:1018940080B586B00590049105980290049800F0F4
:1018A40021F800900DF10F000190FEF773FD0298EE
:0E18B4000099019AFEF778FD029806B080BDFB
:1018C20040F63403C2F200031A78002A02464FF0AF
:1018D200010007D140F6180CC2F2000CCCE900213D
:0618E200187000207047A1
:0A18E80081B00090009801B0704735
:0A18F200014600200022FFF7E3BFCB
:0A18FC0081B00090009801B0704721
:02190600704728
:0A19080081B00090012001B070478B
:0219120070471C
:1019140080B584B0039002910398019000F046F8DA
:06192400019804B080BD33
:02192A00704704
:10192C0080B584B00390029103980190FFF7E0FF1B
:06193C00019804B080BD1B
:10194200082907D340F62C02C2F2000210600022DE
:06195200C0E9002170470E
:1019580080B586B00590049103920598029000F036
:101968002BF8029841F29C01C0F20001083140F8BE
:10197800041B01900498FFF75BFF0090039800F0A8
:1019880041F8009902460198FEF734FD029806B026
:0219980080BD10
:10199A0010B5044601F0C0FA204601F06FFABDE81E
:0619AA00104001F0C5BA77
:0A19B00081B00090009801B070476C
:0619BA00FFF734FFFEE719
:1019C00081B00090009841F2C001C0F200010831DE
:0619D000016001B0704748
:1019D600F8B540F62404C2F20004206890B140F243
:1019E6008075C2F2000540F20076C2F200066FF082
:1019F600030707EB800029583058884720680138CC
:061A06002060F6D1F8BDDE
:0A1A0C0081B00090009801B070470F
:101A160080B500F015F800B108BD41F6C330C0F23C
:061A26000000FFF7C7FFFE
:101A2C0080B582B0019001980090FEF7FFFC009801
:0A1A3C00082101F0D4FA02B080BDC9
:101A460010B50446012898BF0124204601F07AFA11
:0E1A560020B901F0B7FA08B18047F6E710BDDD
:101A640080B592B01190119804300390FEF792FD66
:101A740001460DF143000490FFF74AFF0498012149
:101A84000091FEF78FFD009A049901900BA8029033
:101A940000F04CF90199029A0DA80890FEF798FD00
:101AA400089800F04FF9014603980591FEF7A2FD4E
:101AB400049906900DF12B000790FFF735FF059868
:101AC4000699079A00F048F9089800F065F901466C
:0E1AD4000898099100F074F9099812B080BDCD
:101AE20080B501F083FA00B108BD41F6C330C0F2FF
:061AF2000000FFF761FF98
:101AF80080B586B005900491059804990391043047
:101B08000190FEF775FD014601980291FEF740FD30
:0E1B1800029902460398FEF779FE06B080BDE2
:061B2600114601F075BA42
:101B2C0080B582B0019001980430FEF70FFF02B02F
:021B3C0080BD6A
:101B3E0050757265207669727475616C2066756E6B
:0E1B4E006374696F6E2063616C6C65642100C6
:101B5C0080B586B005900598039004300190FEF78F
:101B6C0015FD01460DF113000290FFF7CDFE019813
:101B7C00FEF7ECFE02980399012200F02DFA06B054
:021B8C0080BD1A
:101B8E006261645F66756E6374696F6E5F63616CCC
:101B9E006C20776173207468726F776E20696E2087
:101BAE002D666E6F2D657863657074696F6E732028
:051BBE006D6F6465007D
:101BC3006261645F616C6C6F63207761732074681A
:101BD300726F776E20696E202D666E6F2D65786348
:0D1BE300657074696F6E73206D6F6465002E
:101BF00080B582B0019001980430FEF7B1FE02B0CA
:021C000080BDA5
:0A1C040081B00090009801B0704715
:061C100081B00090FEDE31
:101C180080B582B000900098FFF762FE014601A8E7
:0A1C280000F012F8019802B080BD30
:101C340080B582B00090009800F026F8014601A813
:0A1C440000F028F8019802B080BDFE
:101C500010B586B005900491059802900498FFF79E
:101C600043FE044602989DF80D309DF80E209DF825
:101C70000F109DF80CC0EE46CEF80440CEF800C020
:0A1C8000FEF70CFC029806B010BD40
:0A1C8C0081B00090009801B070478D
:101C980010B586B005900491059802900498FFF756
:101CA800F1FF044602989DF80D309DF80E209DF82E
:101CB8000F109DF80CC0EE46CEF80440CEF800C0D8
:0A1CC800FEF710FC029806B010BDF4
:0A1CD40081B00090009801B0704745
:101CE00080B586B08DF8171004928DF80F300290F1
:101CF0000298019004A8FEF733FC00F00DF80146AD
:0A1D000001980968016006B080BD7B
:0A1D0C0081B00090009801B070470C
:0A1D180081B00090009801B0704700
:0A1D240081B00090009801B07047F4
:101D300083B002900191009202980199016000998C
:061D4000416003B0704792
:101D480080B582B001900198FEF78AFC006802B065
:021D580080BD4C
:101D5C0080B586B005900491039205980290FFF728
:101D6C0029FE029841F29C01C0F20001083140F8B2
:101D7C00041B0190049800900398FFF741FE009912
:0E1D8C0002460198FEF77AFC029806B080BD70
:101D9C0080B584B0039003980190FEF7E9FC0146EE
:101DAC00019809680291FEF7E3FC014600200860E7
:061DBC00029804B080BD96
:101DC40080B582B0019001980090002100F0DAF80B
:061DD400009802B080BD82
:0A1DDC0081B00090009801B070473C
:0E1DE80043F22000C0F20000FFF7E3FD704759
:101DF80080B584B0029001910198FEF715FC38B1C6
:101E08000198009002980099FEF718FC039003E0EF
:0E1E18000298FEF71DFC0390039804B080BDF5
:061E28004FF0FF3070478F
:0A1E300081B00090009801B07047E7
:101E3C0080B586B0059004910392059802900498A1
:101E4C0000F012F80146029800F014F802980430E1
:101E5C000190039800F01EF80146019800F020F85C
:061E6C00029806B080BDE3
:0A1E740081B00090009801B07047A3
:101E800080B584B003900291039801900298FFF707
:0E1E9000F1FF014601980968016004B080BDB1
:0A1EA00081B00090009801B0704777
:101EAC0080B584B003900291039801900298FFF7DB
:101EBC00F1FF02460198116852684260016004B05B
:021ECC0080BDD7
:0A1ED00081B00090009801B0704747
:0A1EDC0081B00090009801B070473B
:101EE80080B582B00090009800F008F8014601A87B
:0A1EF80000F00AF8019802B080BD66
:0A1F040081B00090009801B0704712
:101F100010B586B00590049105980290049C9DF838
:101F20000D309DF80E209DF80F109DF80CC0EE4668
:101F3000CEF80440CEF800C0FEF7EAFB029806B0E7
:021F400010BDD2
:0A1F440081B00090009801B07047D2
:101F500080B586B08DF8171004928DF80F3002907E
:101F60000298019004A8FEF7FBFBFFF7CBFF0146A8
:0A1F700001980968016006B080BD09
:0A1F7C0081B00090009801B070479A
:101F880080B586B00590049105980190FEF7F2FBA4
:101F9800014601980968039104990291FEF7EAFB4A
:101FA800014602980860039828B1019800F006F8E5
:0A1FB8000399FEF7E7FB06B080BDB9
:101FC40080B582B001900198043000F003F802B0AB
:021FD40080BDCE
:0A1FD80081B00090009801B070473E
:101FE40080B584B003900291019202980199C900CE
:0A1FF400042200F003F804B080BDE1
:1020000080B584B00390029101920198FEF710FB15
:1020100038B10198009003980299009AFEF7CEFB20
:0E20200003E003980299FEF7D5FB04B080BDE3
:1020300080B582B00090009800F008F8014601A831
:0A20400000F00AF8019802B080BD1C
:0A204C0081B00090009801B07047C9
:1020580010B586B00590049105980290049C9DF8EF
:102068000D309DF80E209DF80F109DF80CC0EE461F
:10207800CEF80440CEF800C0FEF722FC029806B065
:0220880010BD89
:0A208C0081B00090009801B0704789
:0A20980081B00090009801B070477D
:1020A40080B582B001900198006800F003F802B096
:0220B40080BDED
:1020B80080B586B00590059802900020C4F2030010
:1020C8000121FFF798FB04909DF81000C007002835
:1020D8003FD00020C4F203000121019100F077FEF7
:1020E8000299019808740020039002990398097DC9
:1020F80088422EDA029840F63001C2F200010A68DE
:10210800039900EB0110416AB2FBF1F000FB1120CA
:10211800D8B9029901F11C00039A00EB02130122BD
:102128001A73039A120180588969884206D140F6C9
:102138003001C2F200010020086006E040F63001DC
:10214800C2F200010868013008600398013003906A
:06215800CBE706B080BDDC
:0A21600081B00090009801B07047B4
:0A216C0081B00090009801B07047A8
:1021780080B586B00590049105980290049800F007
:102188000FF800900DF10F000190FEF757FC029830
:0E2198000099019AFEF75CFC029806B080BD2B
:0A21A80081B00090009801B070476C
:0A21B40081B00090009801B0704760
:0A21C00081B00090012001B07047CB
:1021CC0080B584B0039002910398019000F032F82E
:0621DC00019804B080BD73
:1021E40080B584B00390029103980190FFF7E0FF5B
:0621F400019804B080BD5B
:1021FC0080B586B00590049103920598029000F08A
:10220C001FF8029841F2E401C0F20001083140F8D5
:10221C00041B01900498FFF7A3FF0090039800F0B3
:10222C001BF8009902460198FEF738FC029806B09C
:02223C0080BD63
:0A22400081B00090009801B07047D3
:10224C0081B00090009841F20811C0F200010831F1
:06225C00016001B07047B3
:0A22640081B00090009801B07047AF
:1022700080B582B0019001980090FEF733FC009881
:0A228000082100F0B2FE02B080BD9C
:10228C0080B592B01190119804300390FEF7E4FCE5
:10229C0001460DF143000490FFF792FF04980121D1
:1022AC000091FEF7E1FC009A049901900BA80290B2
:1022BC0000F0F8F80199029A0DA80890FEF7EAFCD4
:1022CC00089800F0FBF8014603980591FEF7F4FC22
:1022DC00049906900DF12B000790FFF77DFF0598F0
:1022EC000699079A00F0F4F8089800F011F90146E5
:0E22FC000898099100F020F9099812B080BDF1
:10230C0080B586B00590049105980499039104302A
:10231C000190FEF7D1FC014601980291FEF79CFC5E
:0E232C00029902460398FEF789FD06B080BDB7
:10233C0080B582B0019001980430FEF721FE02B006
:02234C0080BD52
:1023500080B586B005900598039004300190FEF793
:1023600081FC01460DF113000290FFF72FFF019849
:10237000FEF70CFE02980399012200F0CFF906B097
:0223800080BD1E
:0A23840081B00090009801B070478E
:0623900081B00090FEDEAA
:1023980080B582B000900098FFF702FF014601A8BF
:0A23A80000F012F8019802B080BDA9
:1023B40080B582B00090009800F026F8014601A88C
:0A23C40000F028F8019802B080BD77
:1023D00010B586B005900491059802900498FFF717
:1023E000E3FE044602989DF80D309DF80E209DF8FE
:1023F0000F109DF80CC0EE46CEF80440CEF800C099
:0A240000FEF7B2FB029806B010BD13
:0A240C0081B00090009801B0704705
:1024180010B586B005900491059802900498FFF7CE
:10242800F1FF044602989DF80D309DF80E209DF8A6
:102438000F109DF80CC0EE46CEF80440CEF800C050
:0A244800FEF7B6FB029806B010BDC7
:0A24540081B00090009801B07047BD
:1024600080B586B08DF8171004928DF80F30029069
:102470000298019004A8FEF7D9FB00F00DF8014680
:0A24800001980968016006B080BDF4
:0A248C0081B00090009801B0704785
:0A24980081B00090009801B0704779
:0A24A40081B00090009801B070476D
:1024B00083B0029001910092029801990160009905
:0624C000416003B070470B
:1024C80080B582B001900198FEF710FC006802B058
:0224D80080BDC5
:1024DC0080B586B005900491039205980290FFF7A1
:1024EC00AFFE029841F2E401C0F20001083140F85D
:1024FC00041B0190049800900398FFF7ADFE00991F
:0E250C0002460198FEF700FC029806B080BD62
:10251C0080B584B0039003980190FEF76FFC0146E0
:10252C00019809680291FEF769FC014600200860D9
:06253C00029804B080BD0E
:1025440080B582B0019001980090002100F0B6F8A7
:06255400009802B080BDFA
:0A255C0081B00090009801B07047B4
:0A25680081B00090009801B07047A8
:1025740080B586B005900491039205980290049862
:1025840000F012F80146029800F014F802980430A2
:102594000190039800F01EF80146019800F020F81D
:0625A400029806B080BDA4
:0A25AC0081B00090009801B0704764
:1025B80080B584B003900291039801900298FFF7C8
:0E25C800F1FF014601980968016004B080BD72
:0A25D80081B00090009801B0704738
:1025E40080B584B003900291039801900298FFF79C
:1025F400F1FF02460198116852684260016004B01C
:0226040080BD97
:0A26080081B00090009801B0704707
:0A26140081B00090009801B07047FB
:1026200080B582B00090009800F008F8014601A83B
:0A26300000F00AF8019802B080BD26
:0A263C0081B00090009801B07047D3
:1026480010B586B00590049105980290049C9DF8F9
:102658000D309DF80E209DF80F109DF80CC0EE4629
:10266800CEF80440CEF800C0FEF794FB029806B0FE
:0226780010BD93
:0A267C0081B00090009801B0704793
:1026880080B586B08DF8171004928DF80F3002903F
:102698000298019004A8FEF7A5FBFFF7CBFF0146BF
:0A26A80001980968016006B080BDCA
:0A26B40081B00090009801B070475B
:1026C00080B586B00590049105980190FEF79CFBBB
:1026D000014601980968039104990291FEF794FB61
:1026E000014602980860039828B1019800F006F8A6
:0A26F0000399FEF791FB06B080BDD0
:1026FC0080B582B001900198043000F003F802B06C
:02270C0080BD8E
:0A27100081B00090009801B07047FE
:10271C0080B584B003900291019202980199C9008E
:0A272C000422FFF767FC04B080BD33
:1027380080B582B00090009800F008F8014601A822
:0A27480000F00AF8019802B080BD0D
:0A27540081B00090009801B07047BA
:1027600010B586B00590049105980290049C9DF8E0
:102770000D309DF80E209DF80F109DF80CC0EE4610
:10278000CEF80440CEF800C0FEF7B8FB029806B0C1
:0227900010BD7A
:0A27940081B00090009801B070477A
:1027A00080B584B0039002910398FEF7F3FB01908B
:1027B000029800F007F80146019800F009F804B00B
:0227C00080BDDA
:0A27C40081B00090009801B070474A
:1027D00080B584B003900291039800F017F801903F
:1027E0000298FFF7EFFF0146019800F003F804B0EC
:0227F00080BDAA
:1027F40080B582B00190009101980099097800F0A9
:0628040009F802B080BDDE
:0A280C0081B00090009801B0704701
:1028180080B582B001908DF803100198006800F52A
:0E28280001609DF80310FEF7B9FB02B080BD01
:0A28380081B00090009801B07047D5
:0A28440081B00090009801B07047C9
:1028500080B540F20040C2F20000FEF767FC28B1EC
:0E28600040F20040C2F20000FEF768FC80BDAE
:1028700080B540F20040C2F200001830FEF756FC6E
:1028800030B140F20040C2F200001830FEF756FCB2
:0228900080BD09
:1028940080B540F20040C2F200003030FEF744FC44
:1028A40030B140F20040C2F200003030FEF744FC88
:0228B40080BDE5
:1028B80080B540F20040C2F200004830FEF732FC1A
:1028C80030B140F20040C2F200004830FEF732FC5E
:0228D80080BDC1
:1028DC0080B540F20040C2F200006030FEF720FCF0
:1028EC0030B140F20040C2F200006030FEF720FC34
:0228FC0080BD9D
:1029000080B540F20040C2F200007830FEF70EFCC5
:1029100030B140F20040C2F200007830FEF70EFC09
:0229200080BD78
:1029240080B540F20040C2F200009030FEF7FCFB9C
:1029340030B140F20040C2F200009030FEF7FCFBE0
:0229440080BD54
:1029480080B540F20040C2F20000A830FEF7EAFB72
:1029580030B140F20040C2F20000A830FEF7EAFBB6
:0229680080BD30
:10296C0080B540F20040C2F20000C030FEF7D8FB48
:10297C0030B140F20040C2F20000C030FEF7D8FB8C
:02298C0080BD0C
:1029900080B540F20040C2F20000D830FEF7C6FB1E
:1029A00030B140F20040C2F20000D830FEF7C6FB62
:0229B00080BDE8
:1029B40080B540F20040C2F20000F030FEF7B4FBF4
:1029C40030B140F20040C2F20000F030FEF7B4FB38
:0229D40080BDC4
:1029D80080B540F20040C2F2000000F58470FEF7B6
:1029E800A1FB38B140F20040C2F2000000F584704B
:0629F800FEF7A0FB80BD0C
:102A000080B540F20040C2F2000000F59070FEF781
:102A10008DFB38B140F20040C2F2000000F590702A
:062A2000FEF78CFB80BDF7
:102A280080B540F20040C2F2000000F59C70FEF74D
:102A380079FB38B140F20040C2F2000000F59C700A
:062A4800FEF778FB80BDE3
:102A500080B540F20040C2F2000000F5A870FEF719
:102A600065FB38B140F20040C2F2000000F5A870EA
:062A7000FEF764FB80BDCF
:102A780080B540F20040C2F2000000F5B470FEF7E5
:102A880051FB38B140F20040C2F2000000F5B470CA
:062A9800FEF750FB80BDBB
:102AA00080B540F20040C2F2000000F5C070FEF7B1
:102AB0003DFB38B140F20040C2F2000000F5C070AA
:062AC000FEF73CFB80BDA7
:102AC80080B540F20040C2F2000000F5CC70FEF77D
:102AD80029FB38B140F20040C2F2000000F5CC708A
:062AE800FEF728FB80BD93
:102AF00080B540F20040C2F2000000F5D870FEF749
:102B000015FB38B140F20040C2F2000000F5D87069
:062B1000FEF714FB80BD7E
:102B180080B540F20040C2F2000000F5E470FEF714
:102B280001FB38B140F20040C2F2000000F5E47049
:062B3800FEF700FB80BD6A
:102B400080B540F20040C2F2000000F5F070FEF7E0
:102B5000EDFA38B140F20040C2F2000000F5F0702A
:062B6000FEF7ECFA80BD57
:102B680080B540F20040C2F2000000F5FC70FEF7AC
:102B7800D9FA38B140F20040C2F2000000F5FC700A
:062B8800FEF7D8FA80BD43
:102B900080B540F20040C2F2000000F50470FEF77C
:102BA000C5FA38B140F20040C2F2000000F50470EE
:062BB000FEF7C4FA80BD2F
:102BB80080B540F20040C2F2000000F50A70FEF74E
:102BC800B1FA38B140F20040C2F2000000F50A70D4
:062BD800FEF7B0FA80BD1B
:102BE00080B540F20040C2F2000000F51070FEF720
:102BF0009DFA38B140F20040C2F2000000F51070BA
:062C0000FEF79CFA80BD06
:102C080080B540F20040C2F2000000F51670FEF7F1
:102C180089FA38B140F20040C2F2000000F516709F
:062C2800FEF788FA80BDF2
:102C300080B540F20040C2F2000000F51C70FEF7C3
:102C400075FA38B140F20040C2F2000000F51C7085
:062C5000FEF774FA80BDDE
:102C580080B540F20040C2F2000000F52270FEF795
:102C680061FA38B140F20040C2F2000000F522706B
:062C7800FEF760FA80BDCA
:102C800080B540F20040C2F2000000F52870FEF767
:102C90004DFA38B140F20040C2F2000000F5287051
:062CA000FEF74CFA80BDB6
:102CA80080B540F20040C2F2000000F52E70FEF739
:102CB80039FA38B140F20040C2F2000000F52E7037
:062CC800FEF738FA80BDA2
:102CD00080B540F20040C2F2000000F53470FEF70B
:102CE00025FA38B140F20040C2F2000000F534701D
:062CF000FEF724FA80BD8E
:102CF80080B540F20040C2F2000000F53A70FEF7DD
:102D080011FA38B140F20040C2F2000000F53A7002
:062D1800FEF710FA80BD79
:102D200080B582B040F20040C2F2000001900198EC
:102D30000090FEF70BFA009800F11801084640F2E7
:102D40000042C2F2000202F5407291420190EED1BF
:102D500041F26110C0F2000040F20002C0F2000235
:0A2D6000002100F00CF902B080BD64
:102D6C0081B0009000980069002818BF012001B0C4
:022D7C0070479E
:0E2D800041F68E30C0F20000FEF717FE7047DD
:0E2D900081B0009000980021016101B07047F1
:082D9E00AFF30080FEF721FAFB
:102DA600C36823F4807323F00103C3600B0E036032
:102DB60001F0FF03090A01F0FF0143F4007341F437
:082DC600007143608160704759
:082DCE0083690B438361704728
:042DD600416270479F
:102DDA0040F62C0CC2F2000CDCF800304BB170B596
:102DEA000F305C6820F0070E0025744503D11846A1
:102DFA0015E00020704700214A1E0025744588BF4F
:102E0A000125944280414642186835421CBF194642
:102E1A00224668B1446874451D460346EDD1002D2B
:102E2A0001680CBFCCF80010296040F808EB70BDAF
:102E3A000029FCD04B68A2EB0E000844A3EB0E025B
:042E4A004A60F2E701
:102E4E0038B50446013884EA000282424FF0000091
:102E5E000ED969B1E51D6818FFF7B8FF01001FBF55
:102E6E0068186242104041F0010118BF40F8081D79
:082E7E00002818BF083038BD20
:102E860020B350F8081CCA0718BF21F00100E8B1AA
:102E960010B540F62C02C2F200020146D2F800E05C
:102EA600BEF1000F51F808CD11D08E45734615D2EC
:102EB6001A461B681C0018BF012401D08B42F7D3A9
:102EC60040F804CD40F8043C11600EE070471160F4
:102ED600C1F800E01068C0F804C010BD40F804CD89
:102EE600012440F804EC116000225CB101EB0C04F3
:102EF6009C4201BFD3F804C004686444046004BF64
:102F06001B680B608E45E8D25368D4188C42E4D116
:0C2F16000068184450600868106010BD8E
:102F2200EFF3108072B6B0FA80F040F62801C2F2D8
:082F320000014009086070472E
:102F3A0040F62800C2F20000006800B162B670478D
:102F4A0010B50446FFF7E8FF2046FFF741FF0446A5
:082F5A00FFF7EEFF204610BD59
:102F620038B50C460546FFF7DBFF28462146FFF73A
:0C2F72006DFF0446FFF7E0FF204638BD6D
:102F7E0070B540F62406C2F200060C4632680546CD
:102F8E008AB11F2A16D840F28070C2F2000040F8B3
:102F9E00225040F20070C2F2000040F82240501C55
:102FAE003060002070BD41F6D710C0F20000FEF771
:0C2FBE0099FC08B1012070BD3268E2E708
:102FCA0040F62000C2F200000068BFF35F8F70472E
:0C2FDA0041F63E30C0F20000FEF7EAFCB9
:042FE600FEF7D8BC5E
:042FEA00FFF7FCBF32
:102FEE0038B50C460546012898BF0125042998BF1F
:102FFE00042420462946FFF7ADFF20B9FFF7DEFF78
:08300E0008B18047F5E738BD69
:04301600FEF7C0BC45
:04301C00B9110000E6
:103020006261645F61727261795F6E65775F6C6522
:103030006E67746820776173207468726F776E2092
:10304000696E202D666E6F2D657863657074696F8B
:083050006E73206D6F646500D2
:1030580000B506480649884205D00268043003B422
:10306800904703BCF7E708BC184700001C30000075
:043078002030000004
:10307C00F530000000000020360800000731000089
:10308C0038080020A430000080000000DD1500008E
:08309C0059300000F31100009F
:1030A400CC51287128CC9528B928CCDD280129CC0D
:1030B40025294929CC6D299129CCB529D929CC01B7
:1030C4002A292ACC512A792ACCA12AC92ACCF12A24
:1030D400192BCC412B692BCC912BB92BCCE12B098F
:1030E4002CCC312C592CCC812CA92CCCD12CF92CC6
:1030F400206861680834002200E04254491EFCD56F
:02310400704712
:1031060020686168A2680C340B78491C08260025E3
:103116005B0801D20D78491C0570401C521E02D076
:08312600761EF4D1F0E77047BA
:0400000300002D9F2D
:00000001FF
